{"abi":[{"type":"constructor","inputs":[],"stateMutability":"nonpayable"},{"type":"function","name":"getAccRolloverFeesLong","inputs":[{"name":"pairIndex","type":"uint256","internalType":"uint256"}],"outputs":[{"name":"","type":"uint256","internalType":"uint256"}],"stateMutability":"view"},{"type":"function","name":"getAccRolloverFeesShort","inputs":[{"name":"pairIndex","type":"uint256","internalType":"uint256"}],"outputs":[{"name":"","type":"uint256","internalType":"uint256"}],"stateMutability":"view"},{"type":"function","name":"getAccRolloverFeesUpdateBlock","inputs":[{"name":"pairIndex","type":"uint256","internalType":"uint256"}],"outputs":[{"name":"","type":"uint256","internalType":"uint256"}],"stateMutability":"view"},{"type":"function","name":"getBlendedSkew","inputs":[{"name":"_pairIndex","type":"uint256","internalType":"uint256"},{"name":"_long","type":"bool","internalType":"bool"},{"name":"_longOI","type":"uint256","internalType":"uint256"},{"name":"_shortOI","type":"uint256","internalType":"uint256"}],"outputs":[{"name":"","type":"uint256","internalType":"uint256"}],"stateMutability":"view"},{"type":"function","name":"getBlendedUtilizationRatio","inputs":[{"name":"_pairIndex","type":"uint256","internalType":"uint256"},{"name":"_longOI","type":"uint256","internalType":"uint256"},{"name":"_shortOI","type":"uint256","internalType":"uint256"}],"outputs":[{"name":"","type":"uint256","internalType":"uint256"}],"stateMutability":"view"},{"type":"function","name":"getOnePercentDepthAbove","inputs":[{"name":"pairIndex","type":"uint256","internalType":"uint256"}],"outputs":[{"name":"","type":"uint256","internalType":"uint256"}],"stateMutability":"view"},{"type":"function","name":"getOnePercentDepthBelow","inputs":[{"name":"pairIndex","type":"uint256","internalType":"uint256"}],"outputs":[{"name":"","type":"uint256","internalType":"uint256"}],"stateMutability":"view"},{"type":"function","name":"getPairInfos","inputs":[{"name":"indices","type":"uint256[]","internalType":"uint256[]"}],"outputs":[{"name":"","type":"tuple[]","internalType":"struct IPairInfos.PairParams[]","components":[{"name":"onePercentDepthAbove","type":"uint256","internalType":"uint256"},{"name":"onePercentDepthBelow","type":"uint256","internalType":"uint256"},{"name":"rolloverFeePerBlockP","type":"uint256","internalType":"uint256"}]},{"name":"","type":"tuple[]","internalType":"struct IPairInfos.PairRolloverFees[]","components":[{"name":"accPerOiLong","type":"uint256","internalType":"uint256"},{"name":"accPerOiShort","type":"uint256","internalType":"uint256"},{"name":"lastUpdateBlock","type":"uint256","internalType":"uint256"}]}],"stateMutability":"view"},{"type":"function","name":"getPendingAccRolloverFees","inputs":[{"name":"pairIndex","type":"uint256","internalType":"uint256"}],"outputs":[{"name":"valueLong","type":"uint256","internalType":"uint256"},{"name":"valueShort","type":"uint256","internalType":"uint256"}],"stateMutability":"view"},{"type":"function","name":"getPriceImpactSpread","inputs":[{"name":"_pairIndex","type":"uint256","internalType":"uint256"},{"name":"_isBuy","type":"bool","internalType":"bool"},{"name":"_leveragePosition","type":"uint256","internalType":"uint256"},{"name":"isPnl","type":"bool","internalType":"bool"}],"outputs":[{"name":"spread","type":"int256","internalType":"int256"}],"stateMutability":"view"},{"type":"function","name":"getRolloverFeePerBlockP","inputs":[{"name":"pairIndex","type":"uint256","internalType":"uint256"}],"outputs":[{"name":"","type":"uint256","internalType":"uint256"}],"stateMutability":"view"},{"type":"function","name":"getSkewImpactSpread","inputs":[{"name":"_pairIndex","type":"uint256","internalType":"uint256"},{"name":"_isBuy","type":"bool","internalType":"bool"},{"name":"_leveragePosition","type":"uint256","internalType":"uint256"},{"name":"isPnl","type":"bool","internalType":"bool"}],"outputs":[{"name":"spread","type":"int256","internalType":"int256"}],"stateMutability":"view"},{"type":"function","name":"getTradeInitialAccRolloverFeesPerCollateral","inputs":[{"name":"trader","type":"address","internalType":"address"},{"name":"pairIndex","type":"uint256","internalType":"uint256"},{"name":"index","type":"uint256","internalType":"uint256"}],"outputs":[{"name":"","type":"uint256","internalType":"uint256"}],"stateMutability":"view"},{"type":"function","name":"getTradeLiquidationPrice","inputs":[{"name":"trader","type":"address","internalType":"address"},{"name":"pairIndex","type":"uint256","internalType":"uint256"},{"name":"index","type":"uint256","internalType":"uint256"},{"name":"openPrice","type":"uint256","internalType":"uint256"},{"name":"long","type":"bool","internalType":"bool"},{"name":"collateral","type":"uint256","internalType":"uint256"},{"name":"leverage","type":"uint256","internalType":"uint256"}],"outputs":[{"name":"","type":"uint256","internalType":"uint256"}],"stateMutability":"view"},{"type":"function","name":"getTradeLiquidationPricePure","inputs":[{"name":"openPrice","type":"uint256","internalType":"uint256"},{"name":"long","type":"bool","internalType":"bool"},{"name":"collateral","type":"uint256","internalType":"uint256"},{"name":"leverage","type":"uint256","internalType":"uint256"},{"name":"rolloverFee","type":"uint256","internalType":"uint256"}],"outputs":[{"name":"","type":"uint256","internalType":"uint256"}],"stateMutability":"view"},{"type":"function","name":"getTradePriceImpact","inputs":[{"name":"openPrice","type":"uint256","internalType":"uint256"},{"name":"pairIndex","type":"uint256","internalType":"uint256"},{"name":"long","type":"bool","internalType":"bool"},{"name":"tradeOpenInterest","type":"uint256","internalType":"uint256"},{"name":"isPnl","type":"bool","internalType":"bool"}],"outputs":[{"name":"priceAfterImpact","type":"uint256","internalType":"uint256"}],"stateMutability":"view"},{"type":"function","name":"getTradeRolloverFee","inputs":[{"name":"trader","type":"address","internalType":"address"},{"name":"pairIndex","type":"uint256","internalType":"uint256"},{"name":"index","type":"uint256","internalType":"uint256"},{"name":"long","type":"bool","internalType":"bool"},{"name":"collateral","type":"uint256","internalType":"uint256"},{"name":"leverage","type":"uint256","internalType":"uint256"}],"outputs":[{"name":"","type":"uint256","internalType":"uint256"}],"stateMutability":"view"},{"type":"function","name":"getTradeRolloverFeePure","inputs":[{"name":"accRolloverFeesPerOi","type":"uint256","internalType":"uint256"},{"name":"endAccRolloverFeesPerOi","type":"uint256","internalType":"uint256"},{"name":"collateral","type":"uint256","internalType":"uint256"},{"name":"leverage","type":"uint256","internalType":"uint256"}],"outputs":[{"name":"","type":"uint256","internalType":"uint256"}],"stateMutability":"pure"},{"type":"function","name":"getTradeValue","inputs":[{"name":"_trade","type":"tuple","internalType":"struct ITradingStorage.Trade","components":[{"name":"trader","type":"address","internalType":"address"},{"name":"pairIndex","type":"uint256","internalType":"uint256"},{"name":"index","type":"uint256","internalType":"uint256"},{"name":"initialPosToken","type":"uint256","internalType":"uint256"},{"name":"positionSizeUSDC","type":"uint256","internalType":"uint256"},{"name":"openPrice","type":"uint256","internalType":"uint256"},{"name":"buy","type":"bool","internalType":"bool"},{"name":"leverage","type":"uint256","internalType":"uint256"},{"name":"tp","type":"uint256","internalType":"uint256"},{"name":"sl","type":"uint256","internalType":"uint256"},{"name":"timestamp","type":"uint256","internalType":"uint256"}]},{"name":"collateral","type":"uint256","internalType":"uint256"},{"name":"percentProfit","type":"int256","internalType":"int256"},{"name":"closingFee","type":"uint256","internalType":"uint256"}],"outputs":[{"name":"amount","type":"uint256","internalType":"uint256"},{"name":"pnl","type":"int256","internalType":"int256"},{"name":"fees","type":"uint256","internalType":"uint256"}],"stateMutability":"nonpayable"},{"type":"function","name":"getTradeValuePure","inputs":[{"name":"collateral","type":"uint256","internalType":"uint256"},{"name":"percentProfit","type":"int256","internalType":"int256"},{"name":"rolloverFee","type":"uint256","internalType":"uint256"},{"name":"closingFee","type":"uint256","internalType":"uint256"},{"name":"lossProtection","type":"uint256","internalType":"uint256"}],"outputs":[{"name":"","type":"uint256","internalType":"uint256"},{"name":"","type":"int256","internalType":"int256"},{"name":"","type":"uint256","internalType":"uint256"}],"stateMutability":"view"},{"type":"function","name":"initialize","inputs":[{"name":"_storageT","type":"address","internalType":"address"},{"name":"_pairsStorage","type":"address","internalType":"address"}],"outputs":[],"stateMutability":"nonpayable"},{"type":"function","name":"keeper","inputs":[],"outputs":[{"name":"","type":"address","internalType":"address"}],"stateMutability":"view"},{"type":"function","name":"liqThreshold","inputs":[],"outputs":[{"name":"","type":"uint256","internalType":"uint256"}],"stateMutability":"view"},{"type":"function","name":"longSkewConfig","inputs":[{"name":"","type":"uint256","internalType":"uint256"},{"name":"","type":"uint256","internalType":"uint256"}],"outputs":[{"name":"","type":"uint256","internalType":"uint256"}],"stateMutability":"view"},{"type":"function","name":"lossProtectionNumTiers","inputs":[{"name":"","type":"uint256","internalType":"uint256"}],"outputs":[{"name":"","type":"uint256","internalType":"uint256"}],"stateMutability":"view"},{"type":"function","name":"lossProtectionTier","inputs":[{"name":"_trade","type":"tuple","internalType":"struct ITradingStorage.Trade","components":[{"name":"trader","type":"address","internalType":"address"},{"name":"pairIndex","type":"uint256","internalType":"uint256"},{"name":"index","type":"uint256","internalType":"uint256"},{"name":"initialPosToken","type":"uint256","internalType":"uint256"},{"name":"positionSizeUSDC","type":"uint256","internalType":"uint256"},{"name":"openPrice","type":"uint256","internalType":"uint256"},{"name":"buy","type":"bool","internalType":"bool"},{"name":"leverage","type":"uint256","internalType":"uint256"},{"name":"tp","type":"uint256","internalType":"uint256"},{"name":"sl","type":"uint256","internalType":"uint256"},{"name":"timestamp","type":"uint256","internalType":"uint256"}]},{"name":"isPnl","type":"bool","internalType":"bool"}],"outputs":[{"name":"","type":"uint256","internalType":"uint256"}],"stateMutability":"view"},{"type":"function","name":"manager","inputs":[],"outputs":[{"name":"","type":"address","internalType":"address"}],"stateMutability":"view"},{"type":"function","name":"pairParams","inputs":[{"name":"","type":"uint256","internalType":"uint256"}],"outputs":[{"name":"onePercentDepthAbove","type":"uint256","internalType":"uint256"},{"name":"onePercentDepthBelow","type":"uint256","internalType":"uint256"},{"name":"rolloverFeePerBlockP","type":"uint256","internalType":"uint256"}],"stateMutability":"view"},{"type":"function","name":"pairRolloverFees","inputs":[{"name":"","type":"uint256","internalType":"uint256"}],"outputs":[{"name":"accPerOiLong","type":"uint256","internalType":"uint256"},{"name":"accPerOiShort","type":"uint256","internalType":"uint256"},{"name":"lastUpdateBlock","type":"uint256","internalType":"uint256"}],"stateMutability":"view"},{"type":"function","name":"pairsStorage","inputs":[],"outputs":[{"name":"","type":"address","internalType":"contract IPairStorage"}],"stateMutability":"view"},{"type":"function","name":"resetTradeInitialAccess","inputs":[{"name":"trader","type":"address","internalType":"address"},{"name":"pairIndex","type":"uint256","internalType":"uint256"},{"name":"index","type":"uint256","internalType":"uint256"}],"outputs":[],"stateMutability":"nonpayable"},{"type":"function","name":"setKeeper","inputs":[{"name":"_keeper","type":"address","internalType":"address"}],"outputs":[],"stateMutability":"nonpayable"},{"type":"function","name":"setLossProtectionConfig","inputs":[{"name":"_pairIndex","type":"uint256","internalType":"uint256"},{"name":"_longSkewConfig","type":"uint256[]","internalType":"uint256[]"},{"name":"_shortSkewConfig","type":"uint256[]","internalType":"uint256[]"}],"outputs":[],"stateMutability":"nonpayable"},{"type":"function","name":"setManager","inputs":[{"name":"_manager","type":"address","internalType":"address"}],"outputs":[],"stateMutability":"nonpayable"},{"type":"function","name":"setOnePercentDepth","inputs":[{"name":"pairIndex","type":"uint256","internalType":"uint256"},{"name":"valueAbove","type":"uint256","internalType":"uint256"},{"name":"valueBelow","type":"uint256","internalType":"uint256"}],"outputs":[],"stateMutability":"nonpayable"},{"type":"function","name":"setOnePercentDepthArray","inputs":[{"name":"indices","type":"uint256[]","internalType":"uint256[]"},{"name":"valuesAbove","type":"uint256[]","internalType":"uint256[]"},{"name":"valuesBelow","type":"uint256[]","internalType":"uint256[]"}],"outputs":[],"stateMutability":"nonpayable"},{"type":"function","name":"setPairParams","inputs":[{"name":"pairIndex","type":"uint256","internalType":"uint256"},{"name":"value","type":"tuple","internalType":"struct IPairInfos.PairParams","components":[{"name":"onePercentDepthAbove","type":"uint256","internalType":"uint256"},{"name":"onePercentDepthBelow","type":"uint256","internalType":"uint256"},{"name":"rolloverFeePerBlockP","type":"uint256","internalType":"uint256"}]}],"outputs":[],"stateMutability":"nonpayable"},{"type":"function","name":"setPairParamsArray","inputs":[{"name":"indices","type":"uint256[]","internalType":"uint256[]"},{"name":"values","type":"tuple[]","internalType":"struct IPairInfos.PairParams[]","components":[{"name":"onePercentDepthAbove","type":"uint256","internalType":"uint256"},{"name":"onePercentDepthBelow","type":"uint256","internalType":"uint256"},{"name":"rolloverFeePerBlockP","type":"uint256","internalType":"uint256"}]}],"outputs":[],"stateMutability":"nonpayable"},{"type":"function","name":"setRolloverFeePerBlockP","inputs":[{"name":"pairIndex","type":"uint256","internalType":"uint256"},{"name":"value","type":"uint256","internalType":"uint256"}],"outputs":[],"stateMutability":"nonpayable"},{"type":"function","name":"shortSkewConfig","inputs":[{"name":"","type":"uint256","internalType":"uint256"},{"name":"","type":"uint256","internalType":"uint256"}],"outputs":[{"name":"","type":"uint256","internalType":"uint256"}],"stateMutability":"view"},{"type":"function","name":"storageT","inputs":[],"outputs":[{"name":"","type":"address","internalType":"contract ITradingStorage"}],"stateMutability":"view"},{"type":"function","name":"storeTradeInitialAccFees","inputs":[{"name":"trader","type":"address","internalType":"address"},{"name":"pairIndex","type":"uint256","internalType":"uint256"},{"name":"index","type":"uint256","internalType":"uint256"},{"name":"long","type":"bool","internalType":"bool"}],"outputs":[],"stateMutability":"nonpayable"},{"type":"function","name":"tradeInitialAccFees","inputs":[{"name":"","type":"address","internalType":"address"},{"name":"","type":"uint256","internalType":"uint256"},{"name":"","type":"uint256","internalType":"uint256"}],"outputs":[{"name":"rollover","type":"uint256","internalType":"uint256"},{"name":"openedAfterUpdate","type":"bool","internalType":"bool"}],"stateMutability":"view"},{"type":"function","name":"udpateLiquidationThreshold","inputs":[{"name":"_newThreshold","type":"uint256","internalType":"uint256"}],"outputs":[],"stateMutability":"nonpayable"},{"type":"function","name":"updatePairStorage","inputs":[{"name":"_newPairStorage","type":"address","internalType":"address"}],"outputs":[],"stateMutability":"nonpayable"},{"type":"event","name":"AccRolloverFeesStored","inputs":[{"name":"pairIndex","type":"uint256","indexed":false,"internalType":"uint256"},{"name":"valueLong","type":"uint256","indexed":false,"internalType":"uint256"},{"name":"valueShort","type":"uint256","indexed":false,"internalType":"uint256"}],"anonymous":false},{"type":"event","name":"CoeffUpdated","inputs":[{"name":"multiplierCoeffMax","type":"uint256","indexed":false,"internalType":"uint256"},{"name":"groupId","type":"uint256","indexed":false,"internalType":"uint256"}],"anonymous":false},{"type":"event","name":"DenomUpdated","inputs":[{"name":"multiplierDenom","type":"uint256","indexed":false,"internalType":"uint256"},{"name":"groupId","type":"uint256","indexed":false,"internalType":"uint256"}],"anonymous":false},{"type":"event","name":"FeesCharged","inputs":[{"name":"buy","type":"bool","indexed":false,"internalType":"bool"},{"name":"collateral","type":"uint256","indexed":false,"internalType":"uint256"},{"name":"leverage","type":"uint256","indexed":false,"internalType":"uint256"},{"name":"percentProfit","type":"int256","indexed":false,"internalType":"int256"},{"name":"r","type":"uint256","indexed":false,"internalType":"uint256"},{"name":"closingFee","type":"uint256","indexed":false,"internalType":"uint256"},{"name":"lossProtection","type":"uint256","indexed":false,"internalType":"uint256"}],"anonymous":false},{"type":"event","name":"Initialized","inputs":[{"name":"version","type":"uint8","indexed":false,"internalType":"uint8"}],"anonymous":false},{"type":"event","name":"KeeperUpdated","inputs":[{"name":"keeper","type":"address","indexed":false,"internalType":"address"}],"anonymous":false},{"type":"event","name":"LiqThresholdUpdated","inputs":[{"name":"newThreshold","type":"uint256","indexed":false,"internalType":"uint256"}],"anonymous":false},{"type":"event","name":"LossProtectionConfigSet","inputs":[{"name":"numTiers","type":"uint256","indexed":false,"internalType":"uint256"},{"name":"longSkewConfig","type":"uint256[]","indexed":false,"internalType":"uint256[]"},{"name":"shortSkewConfig","type":"uint256[]","indexed":false,"internalType":"uint256[]"}],"anonymous":false},{"type":"event","name":"ManagerUpdated","inputs":[{"name":"value","type":"address","indexed":false,"internalType":"address"}],"anonymous":false},{"type":"event","name":"MaxNegativePnlOnOpenPUpdated","inputs":[{"name":"value","type":"uint256","indexed":false,"internalType":"uint256"}],"anonymous":false},{"type":"event","name":"MultiplierUpdated","inputs":[{"name":"minMultiplierRate","type":"uint256","indexed":false,"internalType":"uint256"},{"name":"maxMultiplierRate","type":"uint256","indexed":false,"internalType":"uint256"},{"name":"groupId","type":"uint256","indexed":false,"internalType":"uint256"}],"anonymous":false},{"type":"event","name":"OnePercentDepthUpdated","inputs":[{"name":"pairIndex","type":"uint256","indexed":false,"internalType":"uint256"},{"name":"valueAbove","type":"uint256","indexed":false,"internalType":"uint256"},{"name":"valueBelow","type":"uint256","indexed":false,"internalType":"uint256"}],"anonymous":false},{"type":"event","name":"PairParamsUpdated","inputs":[{"name":"pairIndex","type":"uint256","indexed":false,"internalType":"uint256"},{"name":"value","type":"tuple","indexed":false,"internalType":"struct IPairInfos.PairParams","components":[{"name":"onePercentDepthAbove","type":"uint256","internalType":"uint256"},{"name":"onePercentDepthBelow","type":"uint256","internalType":"uint256"},{"name":"rolloverFeePerBlockP","type":"uint256","internalType":"uint256"}]}],"anonymous":false},{"type":"event","name":"PairStorageUpdated","inputs":[{"name":"newPairStorage","type":"address","indexed":false,"internalType":"address"}],"anonymous":false},{"type":"event","name":"RolloverFeePerBlockPUpdated","inputs":[{"name":"pairIndex","type":"uint256","indexed":false,"internalType":"uint256"},{"name":"fee","type":"uint256","indexed":false,"internalType":"uint256"}],"anonymous":false},{"type":"event","name":"TradeInitialAccFeesStored","inputs":[{"name":"trader","type":"address","indexed":false,"internalType":"address"},{"name":"pairIndex","type":"uint256","indexed":false,"internalType":"uint256"},{"name":"index","type":"uint256","indexed":false,"internalType":"uint256"},{"name":"rollover","type":"uint256","indexed":false,"internalType":"uint256"}],"anonymous":false}],"bytecode":{"object":"0x60806040523480156200001157600080fd5b506200001c62000022565b620000e3565b600054610100900460ff16156200008f5760405162461bcd60e51b815260206004820152602760248201527f496e697469616c697a61626c653a20636f6e747261637420697320696e697469604482015266616c697a696e6760c81b606482015260840160405180910390fd5b60005460ff90811614620000e1576000805460ff191660ff9081179091556040519081527f7f26b83ff96e1f2b6a682f133852f6798a09c465da95921460cefb38474024989060200160405180910390a15b565b6155f380620000f36000396000f3fe608060405234801561001057600080fd5b506004361061027f5760003560e01c806375923b9d1161015c578063b74243ba116100ce578063cfc23e9e11610087578063cfc23e9e1461069f578063d0ebdbe7146106bf578063eb95e10c146106d2578063f6960654146106e5578063fdd3265f146106f8578063fe3cfd8c1461070b57600080fd5b8063b74243ba14610611578063bf1db1f614610624578063c04254ec14610653578063c21fbef814610666578063c9533ebc14610679578063cf2befd21461068c57600080fd5b806390999397116101205780639099939714610594578063a8feac6e146105a7578063ab21a05c146105ba578063aced1661146105e2578063ae2293d7146105f5578063aee94fcf146105fe57600080fd5b806375923b9d146105285780637d36dda81461053b5780637d8271371461054e57806380242e511461056e578063867a60c21461058157600080fd5b806342dee1ad116101f557806368286d36116101b957806368286d36146104a65780636a3ca5fd146104b95780636bc84d59146104cc578063726219f3146104df5780637390b23614610502578063748747e61461051557600080fd5b806342dee1ad146103d3578063481c6a751461041d578063485cc955146104305780635ed5804e146104435780636676d8501461049357600080fd5b8063183566d411610247578063183566d4146103345780631f4934a1146103475780632b180a7d14610367578063338139ad1461038a578063351533e7146103ad57806335b03c17146103c057600080fd5b806305098272146102845780630e0052fc146102aa5780630e6bc39a146102cd5780630ea77770146102e257806316fff07414610303575b600080fd5b610297610292366004614b03565b61074c565b6040519081526020015b60405180910390f35b6102976102b8366004614ee0565b60009081526006602052604090206002015490565b6102e06102db366004614ab9565b61087d565b005b6102f56102f0366004614c4f565b610a08565b6040516102a19291906151da565b60005461031c906201000090046001600160a01b031681565b6040516001600160a01b0390911681526020016102a1565b6102976103423660046150aa565b610be2565b610297610355366004614ee0565b60086020526000908152604090205481565b610297610375366004614ee0565b60009081526005602052604090206001015490565b610297610398366004614ee0565b60009081526005602052604090206002015490565b6102e06103bb366004614d2b565b610c13565b60015461031c906001600160a01b031681565b6104026103e1366004614ee0565b60056020526000908152604090208054600182015460029092015490919083565b604080519384526020840192909252908201526060016102a1565b60025461031c906001600160a01b031681565b6102e061043e366004614a4b565b610cf5565b61047e610451366004614a84565b60076020908152600093845260408085208252928452828420905282529020805460019091015460ff1682565b604080519283529015156020830152016102a1565b6102976104a1366004614fb2565b610e46565b6104026104b4366004614ea2565b6111de565b6102976104c73660046150aa565b61149a565b6102976104da366004614b5f565b6114b6565b6102976104ed366004614ee0565b60009081526006602052604090206001015490565b610297610510366004614e73565b6114d9565b6102e0610523366004614a11565b61179b565b610402610536366004615037565b6118cc565b610297610549366004614fef565b6119b6565b61029761055c366004614ee0565b60009081526006602052604090205490565b61029761057c3660046150f0565b611a3a565b6102e061058f366004614c91565b611c32565b6102e06105a2366004614a84565b611ced565b6102e06105b5366004614a11565b611de0565b6105cd6105c8366004614ee0565b611f0a565b604080519283526020830191909152016102a1565b60035461031c906001600160a01b031681565b61029760045481565b61029761060c366004614f73565b612239565b6102e061061f3660046150aa565b61232c565b610402610632366004614ee0565b60066020526000908152604090208054600182015460029092015490919083565b610297610661366004614f73565b6123f1565b6102e0610674366004614ee0565b61271d565b610297610687366004615146565b612808565b6102e061069a366004614ef9565b6129f2565b6102976106ad366004614ee0565b60009081526005602052604090205490565b6102e06106cd366004614a11565b612aaf565b6102e06106e0366004615072565b612bd9565b6102e06106f3366004615146565b612c11565b610297610706366004615172565b612c64565b610297610719366004614a84565b6001600160a01b038316600090815260076020908152604080832085845282528083208484529091529020549392505050565b6001546040516362faca8d60e11b81526001600160a01b0388811660048301526024820188905260448201879052600092839291169063c5f5951a9060640160206040518083038186803b1580156107a357600080fd5b505afa1580156107b7573d6000803e3d6000fd5b505050506040513d601f19601f820116820180604052508101906107db9190614dc5565b6001600160a01b03891660009081526007602090815260408083208b845282528083208a84528252918290208251808401909352805483526001015460ff161580159183019190915291925090806108305750815b1561084057600092505050610873565b60008061084c8a611f0a565b9150915061086c8360000151896108635782610865565b835b8989612c64565b9450505050505b9695505050505050565b600060029054906101000a90046001600160a01b03166001600160a01b031662b127836040518163ffffffff1660e01b815260040160206040518083038186803b1580156108ca57600080fd5b505afa1580156108de573d6000803e3d6000fd5b505050506040513d601f19601f820116820180604052508101906109029190614a2e565b6001600160a01b0316336001600160a01b03161461093b5760405162461bcd60e51b81526004016109329061528d565b60405180910390fd5b61094483612cad565b6001600160a01b0384166000908152600760209081526040808320868452825280832085845290915290208161098b5760008481526006602052604090206001015461099b565b6000848152600660205260409020545b8082556001808301805460ff19169091179055604080516001600160a01b03881681526020810187905290810185905260608101919091527f835af8708eb91d2079c09e00124475ffca3f81cbef1e074867d53e5c9ec0ed98906080015b60405180910390a15050505050565b60608060008367ffffffffffffffff811115610a2657610a26615581565b604051908082528060200260200182016040528015610a7b57816020015b610a6860405180606001604052806000815260200160008152602001600081525090565b815260200190600190039081610a445790505b50905060008467ffffffffffffffff811115610a9957610a99615581565b604051908082528060200260200182016040528015610aee57816020015b610adb60405180606001604052806000815260200160008152602001600081525090565b815260200190600190039081610ab75790505b50905060005b85811015610bd4576000878783818110610b1057610b1061556b565b905060200201359050600560008281526020019081526020016000206040518060600160405290816000820154815260200160018201548152602001600282015481525050848381518110610b6757610b6761556b565b6020026020010181905250600660008281526020019081526020016000206040518060600160405290816000820154815260200160018201548152602001600282015481525050838381518110610bc057610bc061556b565b602090810291909101015250600101610af4565b5090925090505b9250929050565b600a6020528160005260406000208181548110610bfe57600080fd5b90600052602060002001600091509150505481565b6002546001600160a01b03163314610c3d5760405162461bcd60e51b8152600401610932906152b5565b8483148015610c4b57508481145b610c865760405162461bcd60e51b815260206004820152600c60248201526b0aea49e9c8ebe988a9c8ea8960a31b6044820152606401610932565b60005b85811015610cec57610ce4878783818110610ca657610ca661556b565b90506020020135868684818110610cbf57610cbf61556b565b90506020020135858585818110610cd857610cd861556b565b90506020020135612d10565b600101610c89565b50505050505050565b600054610100900460ff1615808015610d155750600054600160ff909116105b80610d2f5750303b158015610d2f575060005460ff166001145b610d925760405162461bcd60e51b815260206004820152602e60248201527f496e697469616c697a61626c653a20636f6e747261637420697320616c72656160448201526d191e481a5b9a5d1a585b1a5e995960921b6064820152608401610932565b6000805460ff191660011790558015610db5576000805461ff0019166101001790555b6000805462010000600160b01b031916620100006001600160a01b038681169190910291909117909155600180546001600160a01b03191691841691909117905560556004558015610e41576000805461ff0019169055604051600181527f7f26b83ff96e1f2b6a682f133852f6798a09c465da95921460cefb38474024989060200160405180910390a15b505050565b6000610e5282846153b8565b610e5e575060006111d6565b600154604051633c44d0a360e01b8152600481018790526001600160a01b0390911690633c44d0a39060240160206040518083038186803b158015610ea257600080fd5b505afa158015610eb6573d6000803e3d6000fd5b505050506040513d601f19601f82011682018060405250810190610eda9190614de2565b600214156111835760008060029054906101000a90046001600160a01b03166001600160a01b0316638ecf3f5a6040518163ffffffff1660e01b8152600401604080518083038186803b158015610f3057600080fd5b505afa158015610f44573d6000803e3d6000fd5b505050506040513d601f19601f82011682018060405250810190610f689190614bc7565b9050600085610f78576001610f7b565b60005b600154604051636dc37de360e01b8152600481018a905260ff92909216925060009184916001600160a01b031690636dc37de39060240160206040518083038186803b158015610fca57600080fd5b505afa158015610fde573d6000803e3d6000fd5b505050506040513d601f19601f820116820180604052508101906110029190614dc5565b611016576110118360016154f5565b611018565b825b600281106110285761102861556b565b6020020151600154604051636dc37de360e01b8152600481018b905291925060009185916001600160a01b031690636dc37de39060240160206040518083038186803b15801561107757600080fd5b505afa15801561108b573d6000803e3d6000fd5b505050506040513d601f19601f820116820180604052508101906110af9190614dc5565b6110b957836110c4565b6110c48460016154f5565b600281106110d4576110d461556b565b6020020151905060006110e783836153b8565b6110f2846064615497565b6110fc91906153fe565b90506000896111295761110f888a6153b8565b61111a896064615497565b61112491906153fe565b611148565b611133888a6153b8565b61113e8a6064615497565b61114891906153fe565b90506064611157826019615497565b61116284604b615497565b61116c91906153b8565b61117691906153fe565b96505050505050506111d6565b6000846111ae5761119483856153b8565b61119f846064615497565b6111a991906153fe565b6111cd565b6111b883856153b8565b6111c3856064615497565b6111cd91906153fe565b91506111d69050565b949350505050565b60008060008060029054906101000a90046001600160a01b03166001600160a01b031662b127836040518163ffffffff1660e01b815260040160206040518083038186803b15801561122f57600080fd5b505afa158015611243573d6000803e3d6000fd5b505050506040513d601f19601f820116820180604052508101906112679190614a2e565b6001600160a01b0316336001600160a01b0316146112975760405162461bcd60e51b81526004016109329061528d565b60008054885160208a01516040808c01519051638c8ff1d560e01b81526001600160a01b03938416600482015260248101929092526044820152620100009092041690638c8ff1d59060640160a06040518083038186803b1580156112fb57600080fd5b505afa15801561130f573d6000803e3d6000fd5b505050506040513d601f19601f820116820180604052508101906113339190614dfb565b6080015190506113468860200151612cad565b600061136a89600001518a602001518b604001518c60c001518c8e60e0015161074c565b60015460208b0151604051632b1cbe9d60e01b81529293506000926001600160a01b0390921691632b1cbe9d916113ae918790600401918252602082015260400190565b60206040518083038186803b1580156113c657600080fd5b505afa1580156113da573d6000803e3d6000fd5b505050506040513d601f19601f820116820180604052508101906113fe9190614de2565b905061140d8989848a856118cc565b60c08d015160e08e0151604051949a509298509096507fb70bf101b761b8a0fe59428f8a894321d6639ef13ab81b9bf16d19764a7dba6692611485928d918d9088908e9089909615158752602087019590955260408601939093526060850191909152608084015260a083015260c082015260e00190565b60405180910390a15050509450945094915050565b60096020528160005260406000208181548110610bfe57600080fd5b60006114cd858585856105498d8d8d8c8c8c61074c565b98975050505050505050565b600081156114e957506000611795565b600080546020850151604051639cb87f2360e01b8152600481019190915260248101839052620100009091046001600160a01b031690639cb87f239060440160206040518083038186803b15801561154057600080fd5b505afa158015611554573d6000803e3d6000fd5b505050506040513d601f19601f820116820180604052508101906115789190614de2565b600080546020870151604051639cb87f2360e01b81526004810191909152600160248201529293509091620100009091046001600160a01b031690639cb87f239060440160206040518083038186803b1580156115d457600080fd5b505afa1580156115e8573d6000803e3d6000fd5b505050506040513d601f19601f8201168201806040525081019061160c9190614de2565b9050600061162b8660e001518760600151612d7090919063ffffffff16565b90508560c00151156116ea5761164181846153b8565b9250600061164f83856153b8565b61165a846064615497565b61166491906153fe565b6020808901516000908152600a90915260409020549091505b80156116e3576020808901516000908152600a909152604090206116a26001836154f5565b815481106116b2576116b261556b565b906000526020600020015482106116da576116ce6001826154f5565b95505050505050611795565b6000190161167d565b505061178d565b6116f481836153b8565b9150600061170283856153b8565b61170d856064615497565b61171791906153fe565b6020808901516000908152600990915260409020549091505b801561178a5760208089015160009081526009909152604090206117556001836154f5565b815481106117655761176561556b565b90600052602060002001548210611781576116ce6001826154f5565b60001901611730565b50505b600093505050505b92915050565b600060029054906101000a90046001600160a01b03166001600160a01b03166312d43a516040518163ffffffff1660e01b815260040160206040518083038186803b1580156117e957600080fd5b505afa1580156117fd573d6000803e3d6000fd5b505050506040513d601f19601f820116820180604052508101906118219190614a2e565b6001600160a01b0316336001600160a01b0316146118515760405162461bcd60e51b8152600401610932906152fe565b6001600160a01b0381166118775760405162461bcd60e51b8152600401610932906152db565b600380546001600160a01b0319166001600160a01b0383169081179091556040519081527f0425bcd291db1d48816f2a98edc7ecaf6dd5c64b973d9e4b3b6b750763dc6c2e906020015b60405180910390a150565b600080808060646402540be4006118e38a8c615412565b6118ed91906153d0565b6118f791906153d0565b905080600081121561191c57606461190f8784615412565b61191991906153d0565b90505b6000611928888a615377565b9050600081611937848e615377565b61194191906154b6565b90506064600454606461195491906154f5565b61195e908e615412565b61196891906153d0565b81136119925761197884846154b6565b9050806119858d846154b6565b61198f9190615377565b92505b600081136119a15760006119a3565b805b9c929b5090995090975050505050505050565b6000806119c38585612d70565b836064600454886119d49190615497565b6119de91906153fe565b6119e891906154b6565b6119f29089615412565b6119fc91906153d0565b9050600086611a1457611a0f8289615377565b611a1e565b611a1e82896154b6565b905060008113611a2f5760006114cd565b979650505050505050565b600154604051631ae07f6160e31b815260048101869052600091829182916001600160a01b03169063d703fb0890602401604080518083038186803b158015611a8257600080fd5b505afa158015611a96573d6000803e3d6000fd5b505050506040513d601f19601f82011682018060405250810190611aba91906150cc565b915091506000611acc88888888612239565b90506000611adc898989896123f1565b6001546040516312f070cd60e01b8152600481018c90528815156024820152919250600091839185916001600160a01b03909116906312f070cd9060440160206040518083038186803b158015611b3257600080fd5b505afa158015611b46573d6000803e3d6000fd5b505050506040513d601f19601f82011682018060405250810190611b6a9190614de2565b611b749190615377565b611b7e9190615377565b9050611b8b600a866153fe565b611b949061550c565b8112611bc157611ba5600a856153fe565b8113611bb15780611bd5565b611bbc600a856153fe565b611bd5565b611bcc600a866153fe565b611bd59061550c565b9050600060646402540be400611beb8e85615412565b611bf591906153d0565b611bff91906153d0565b905060008a611c1757611c12828e6154b6565b611c21565b611c21828e615377565b9d9c50505050505050505050505050565b6002546001600160a01b03163314611c5c5760405162461bcd60e51b8152600401610932906152b5565b828114611c9a5760405162461bcd60e51b815260206004820152600c60248201526b0aea49e9c8ebe988a9c8ea8960a31b6044820152606401610932565b60005b83811015611ce657611cde858583818110611cba57611cba61556b565b90506020020135848484818110611cd357611cd361556b565b905060600201612d93565b600101611c9d565b5050505050565b600060029054906101000a90046001600160a01b03166001600160a01b031662b127836040518163ffffffff1660e01b815260040160206040518083038186803b158015611d3a57600080fd5b505afa158015611d4e573d6000803e3d6000fd5b505050506040513d601f19601f82011682018060405250810190611d729190614a2e565b6001600160a01b0316336001600160a01b031614611da25760405162461bcd60e51b81526004016109329061528d565b6001600160a01b039092166000908152600760209081526040808320938352928152828220938252929092528120908155600101805460ff19169055565b600060029054906101000a90046001600160a01b03166001600160a01b03166312d43a516040518163ffffffff1660e01b815260040160206040518083038186803b158015611e2e57600080fd5b505afa158015611e42573d6000803e3d6000fd5b505050506040513d601f19601f82011682018060405250810190611e669190614a2e565b6001600160a01b0316336001600160a01b031614611e965760405162461bcd60e51b8152600401610932906152fe565b6001600160a01b038116611ebc5760405162461bcd60e51b8152600401610932906152db565b600180546001600160a01b0319166001600160a01b0383169081179091556040519081527f5eabd50379e54b19420d1c67256a5d9b1200c1c4c44d14af4540bae519b58b06906020016118c1565b6000818152600660205260408082208054600182015484549351639cb87f2360e01b81526004810187905260248101869052919490939091620100009091046001600160a01b031690639cb87f239060440160206040518083038186803b158015611f7457600080fd5b505afa158015611f88573d6000803e3d6000fd5b505050506040513d601f19601f82011682018060405250810190611fac9190614de2565b60008054604051639cb87f2360e01b815260048101899052600160248201529293509091620100009091046001600160a01b031690639cb87f239060440160206040518083038186803b15801561200257600080fd5b505afa158015612016573d6000803e3d6000fd5b505050506040513d601f19601f8201168201806040525081019061203a9190614de2565b905060008061204983856153b8565b11612055576000612060565b612060878484612808565b905082156121495760006120778860018686610e46565b905060006120858284615497565b6120956402540be4006064615497565b61209f91906154f5565b6120a98385615497565b6120b8906402540be400615497565b6120c291906153fe565b9050600060646402540be40080600560008e8152602001908152602001600020600201548a60020154436120f691906154f5565b6121056402540be40088615497565b61210f9190615497565b6121199190615497565b61212391906153fe565b61212d91906153fe565b61213791906153fe565b9050612143818a6153b8565b98505050505b811561223057600061215e8860008686610e46565b9050600061216c8284615497565b61217c6402540be4006064615497565b61218691906154f5565b6121908385615497565b61219f906402540be400615497565b6121a991906153fe565b9050600060646402540be40080600560008e8152602001908152602001600020600201548a60020154436121dd91906154f5565b6121ec6402540be40088615497565b6121f69190615497565b6122009190615497565b61220a91906153fe565b61221491906153fe565b61221e91906153fe565b905061222a81896153b8565b97505050505b50505050915091565b60008115612249575060006111d6565b600154604051630bf919a560e31b8152600481018790526000916001600160a01b031690635fc8cd289060240160206040518083038186803b15801561228e57600080fd5b505afa1580156122a2573d6000803e3d6000fd5b505050506040513d601f19601f820116820180604052508101906122c69190614de2565b90506000856122e6576000878152600560205260409020600101546122f6565b6000878152600560205260409020545b90506402540be4006123228161230c8886615497565b61231691906153fe565b836402540be400612e1b565b611a2f91906154b6565b6002546001600160a01b031633146123565760405162461bcd60e51b8152600401610932906152b5565b63017d78408111156123955760405162461bcd60e51b81526020600482015260086024820152670a89e9ebe90928e960c31b6044820152606401610932565b61239e82612cad565b60008281526005602090815260409182902060020183905581518481529081018390527f048ce436ab4f2632f2aac62af26be3383ebdf5efc9a63f0bbeb6d6c9762d708991015b60405180910390a15050565b60008115612401575060006111d6565b600154604051633a2d43e160e21b8152600481018790526402540be400916000916001600160a01b039091169063e8b50f849060240160206040518083038186803b15801561244f57600080fd5b505afa158015612463573d6000803e3d6000fd5b505050506040513d601f19601f820116820180604052508101906124879190614de2565b60008054604051639cb87f2360e01b8152600481018b9052602481018390529293509091620100009091046001600160a01b031690639cb87f239060440160206040518083038186803b1580156124dd57600080fd5b505afa1580156124f1573d6000803e3d6000fd5b505050506040513d601f19601f820116820180604052508101906125159190614de2565b60008054604051639cb87f2360e01b8152600481018c9052600160248201529293509091620100009091046001600160a01b031690639cb87f239060440160206040518083038186803b15801561256b57600080fd5b505afa15801561257f573d6000803e3d6000fd5b505050506040513d601f19601f820116820180604052508101906125a39190614de2565b90506125af81836153b8565b6125c05760009450505050506111d6565b6000886125ec576125d182846153b8565b6125dd83612710615497565b6125e791906153fe565b61260c565b6125f682846153b8565b61260284612710615497565b61260c91906153fe565b905060008961264f578861262084866153b8565b61262a91906153b8565b6126348a856153b8565b61264090612710615497565b61264a91906153fe565b612684565b8861265a84866153b8565b61266491906153b8565b61266e8a866153b8565b61267a90612710615497565b61268491906153fe565b905060006126a5612697846127106154f5565b6127106402540be400612e1b565b6126b4612697846127106154f5565b6126c6856127106402540be400612e1b565b6126d8856127106402540be400612e1b565b6126e291906154b6565b6126ec9190615377565b6126f691906154b6565b9050866127038288615412565b61270d91906153d0565b9c9b505050505050505050505050565b600060029054906101000a90046001600160a01b03166001600160a01b03166312d43a516040518163ffffffff1660e01b815260040160206040518083038186803b15801561276b57600080fd5b505afa15801561277f573d6000803e3d6000fd5b505050506040513d601f19601f820116820180604052508101906127a39190614a2e565b6001600160a01b0316336001600160a01b0316146127d35760405162461bcd60e51b8152600401610932906152fe565b60048190556040518181527fb7e4406c7dbd1b93965e7b215a33b02672c462728044a364e16b2b47d321aee0906020016118c1565b60015460405163232683a960e21b81526004810185905260009182916001600160a01b0390911690638c9a0ea49060240160206040518083038186803b15801561285157600080fd5b505afa158015612865573d6000803e3d6000fd5b505050506040513d601f19601f820116820180604052508101906128899190614de2565b600154604051635e4f8f5960e01b8152600481018890526402540be400916001600160a01b031690635e4f8f599060240160206040518083038186803b1580156128d257600080fd5b505afa1580156128e6573d6000803e3d6000fd5b505050506040513d601f19601f8201168201806040525081019061290a9190614de2565b6129149190615497565b61291e91906153fe565b600154604051635970d96b60e11b8152600481018890529192506000916001600160a01b039091169063b2e1b2d69060240160206040518083038186803b15801561296857600080fd5b505afa15801561297c573d6000803e3d6000fd5b505050506040513d601f19601f820116820180604052508101906129a09190614de2565b6402540be4006129b086886153b8565b6129ba9190615497565b6129c491906153fe565b905060646129d3826019615497565b6129de84604b615497565b6129e891906153b8565b61087391906153fe565b6002546001600160a01b03163314612a1c5760405162461bcd60e51b8152600401610932906152b5565b828114612a2857600080fd5b600085815260086020908152604080832086905560099091529020612a4e9085856148b7565b506000858152600a60205260409020612a689083836148b7565b50600085815260086020526040908190205490517f7441144ceb286becc54eb23d4ba7d881ec8f99733a2ef397bcefc8a89bb5bd78916109f9918790879087908790615320565b600060029054906101000a90046001600160a01b03166001600160a01b03166312d43a516040518163ffffffff1660e01b815260040160206040518083038186803b158015612afd57600080fd5b505afa158015612b11573d6000803e3d6000fd5b505050506040513d601f19601f82011682018060405250810190612b359190614a2e565b6001600160a01b0316336001600160a01b031614612b655760405162461bcd60e51b8152600401610932906152fe565b6001600160a01b038116612b8b5760405162461bcd60e51b8152600401610932906152db565b600280546001600160a01b0319166001600160a01b0383169081179091556040519081527f2c1c11af44aa5608f1dca38c00275c30ea091e02417d36e70e9a1538689c433d906020016118c1565b6002546001600160a01b03163314612c035760405162461bcd60e51b8152600401610932906152b5565b612c0d8282612d93565b5050565b6003546001600160a01b03163314612c595760405162461bcd60e51b815260206004820152600b60248201526a4b45455045525f4f4e4c5960a81b6044820152606401610932565b610e41838383612d10565b600083851115612c76575060006111d6565b6402540be400612c868484612d70565b612c9087876154f5565b612c9a9190615497565b612ca491906153fe565b95945050505050565b6000818152600660205260409020612cc482611f0a565b600183018190558183554360028401556040805185815260208101939093528201527fda1d5f1f1aab631c047218e2f5f973b6c12729f4181103a91459dda3d1603c38906060016123e5565b6000838152600560209081526040918290208481556001810184905582518681529182018590529181018390527f1daeaff85d4d7cfda495ef83720a04b81df77e38711ca570061e16efa6ffa2759060600160405180910390a150505050565b60006402540be400612d828385615497565b612d8c91906153fe565b9392505050565b612d9c82612cad565b60008281526005602052604090208190612dcd82828135815560208201356001820155604082013560028201555050565b5050604080518381528235602080830191909152830135818301529082013560608201527fa25aa2e7710f36dc1fc81eae36e26c3554faca8ba5af724112efee783e2f75ee906080016123e5565b600080612e2785612e7d565b90506000612e3485612e7d565b90506000612e428383612ee6565b90506000612e4f8261319e565b90506000612e6582612e6089612e7d565b6131c5565b9050612e7081613420565b9998505050505050505050565b600081612e8c57506000919050565b816000612e98826134c7565b90506070811015612eb1578060700382901b9150612ec4565b6070811115612ec4576070810382901c91505b613fff0160701b6001600160701b03919091161760801b92915050565b919050565b6000617fff60f084811c8216919084901c811690821415612f2c5780617fff1415612f1b575061ffff60ef1b91506117959050565b505050600160ff1b81168218611795565b80617fff1415612f70576dffffffffffffffffffffffffffff60801b841615612f5f575061ffff60ef1b91506117959050565b505050808218600160ff1b16611795565b600160801b600160ff1b038416612fba57600160801b600160ff1b038516612fa2575061ffff60ef1b91506117959050565b505050808218600160ff1b16617fff60f01b17611795565b6001600160701b03608085901c1681612fd65760019150612fdd565b600160701b175b6001600160701b03608087901c168361301c578015613017576000613001826134c7565b6001955060e20393840160711901939190911b90505b613026565b600160701b1760721b5b81818161303557613035615555565b0490508061306257600160ff1b87871816613051576000613057565b600160ff1b5b945050505050611795565b6001606c1b81101561307657613076615529565b6000600160731b8210156130b557600160721b8210156130aa57600160711b8210156130a35760706130ad565b60716130ad565b60725b60ff166130be565b6130be826134c7565b9050836140710181860111156130dc57617fff94506000915061316f565b83818601613ffc0110156130f757600094506000915061316f565b83818601613f8c011015613144578385613ffc011115613122578385613ffc010382901b915061313b565b8385613ffc01101561313b57613ffc8585030382901c91505b6000945061316f565b6070811115613157576070810382901c91505b6001600160701b038216915083818601613f8d010394505b81607086901b888a186001607f1b60801b1660801c6001600160801b0316171760801b95505050505050611795565b60006117956131c0836f1fffb8aa3b295c17f0bbbe87fed0691d60811b6131c5565b613565565b6000617fff60f084811c8216919084901c8116908214156132645780617fff1415613243576001600160801b0319858116908516141561321057505050600160ff1b81168218611795565b600160ff1b6001600160801b031986861816141561323357505050818117611795565b5061ffff60ef1b91506117959050565b600160801b600160ff1b038416612f1b575061ffff60ef1b91506117959050565b80617fff14156132a057600160801b600160ff1b03851661328f575061ffff60ef1b91506117959050565b505050600160ff1b82168118611795565b6001600160701b03608086901c16826132bc57600192506132c3565b600160701b175b6001600160701b03608086901c16826132df57600192506132e6565b600160701b175b908102908161330357600160ff1b87871816613051576000613057565b928201926000600160e11b83101561333657600160e01b83101561332f5761332a836134c7565b613339565b60e0613339565b60e15b905061407081860110156133545760009450600092506133f1565b6140e081860110156133975761407085101561337957846140700383901c925061338e565b61407085111561338e57614070850383901b92505b600094506133f1565b61c0dd81860111156133b157617fff9450600092506133f1565b60708111156133c8576070810383901c92506133db565b60708110156133db578060700383901b92505b6001600160701b03831692506140df8186010394505b82607086901b888a186001607f1b60801b1660801c6001600160801b0316171760801b95505050505050611795565b6000617fff60f083901c166140fe81111561343a57600080fd5b613fff81101561344d5750600092915050565b600160701b6001600160701b03608085901c161761406f8210156134775761406f8290031c613489565b61406f8211156134895761406e1982011b5b6001607f1b608085901c106134b357600160ff1b8111156134a957600080fd5b6000039392505050565b6001600160ff1b03811115612d8c57600080fd5b60008082116134d557600080fd5b6000600160801b83106134ea57608092831c92015b600160401b83106134fd57604092831c92015b640100000000831061351157602092831c92015b62010000831061352357601092831c92015b610100831061353457600892831c92015b6010831061354457600492831c92015b6004831061355457600292831c92015b600283106117955760010192915050565b60006001607f1b608083901c90811190617fff60f085901c8116916001600160701b0316908214801561359757508015155b156135ab575061ffff60ef1b949350505050565b61400d8211156135d057826135c557617fff60f01b612ca4565b600095945050505050565b613f7f8210156135e95750613fff60f01b949350505050565b816135f757600191506135fe565b600160701b175b613fef82111561361457613fee1982011b613626565b613fef82101561362657613fef8290031c5b828015613637575061203760811b81115b1561364757506000949350505050565b821580156136665750713fffffffffffffffffffffffffffffffffff81115b1561367a5750617fff60f01b949350505050565b6001600160801b0381169060801c83801561369457508115155b156136a0579019906001015b6001607f1b828116156136c45770016a09e667f3bcc908b2fb1366ea957d3e0260801c5b6001607e1b8316156136e7577001306fe0a31b7152de8d5a46305c85edec0260801c5b6001607d1b83161561370a577001172b83c7d517adcdf7c8c50eb14a791f0260801c5b6001607c1b83161561372d5770010b5586cf9890f6298b92b71842a983630260801c5b6001607b1b831615613750577001059b0d31585743ae7c548eb68ca417fd0260801c5b6001607a1b83161561377357700102c9a3e778060ee6f7caca4f7a29bde80260801c5b600160791b8316156137965770010163da9fb33356d84a66ae336dcdfa3f0260801c5b600160781b8316156137b957700100b1afa5abcbed6129ab13ec11dc95430260801c5b600160771b8316156137dc5770010058c86da1c09ea1ff19d294cf2f679b0260801c5b600160761b8316156137ff577001002c605e2e8cec506d21bfc89a23a00f0260801c5b600160751b83161561382257700100162f3904051fa128bca9c55c31e5df0260801c5b600160741b831615613845577001000b175effdc76ba38e31671ca9397250260801c5b600160731b83161561386857700100058ba01fb9f96d6cacd4b180917c3d0260801c5b600160721b83161561388b5770010002c5cc37da9491d0985c348c68e7b30260801c5b600160711b8316156138ae577001000162e525ee054754457d59952920260260801c5b600160701b8316156138d15770010000b17255775c040618bf4a4ade83fc0260801c5b6001606f1b8316156138f4577001000058b91b5bc9ae2eed81e9b7d4cfab0260801c5b6001606e1b83161561391757700100002c5c89d5ec6ca4d7c8acc017b7c90260801c5b6001606d1b83161561393a5770010000162e43f4f831060e02d839a9d16d0260801c5b6001606c1b83161561395d57700100000b1721bcfc99d9f890ea069117630260801c5b6001606b1b8316156139805770010000058b90cf1e6d97f9ca14dbcc16280260801c5b6001606a1b8316156139a3577001000002c5c863b73f016468f6bac5ca2b0260801c5b600160691b8316156139c657700100000162e430e5a18f6119e3c02282a50260801c5b600160681b8316156139e9577001000000b1721835514b86e6d96efd1bfe0260801c5b600160671b831615613a0c57700100000058b90c0b48c6be5df846c5b2ef0260801c5b600160661b831615613a2f5770010000002c5c8601cc6b9e94213c72737a0260801c5b600160651b831615613a52577001000000162e42fff037df38aa2b219f060260801c5b600160641b831615613a755770010000000b17217fba9c739aa5819f44f90260801c5b600160631b831615613a98577001000000058b90bfcdee5acd3c1cedc8230260801c5b600160621b831615613abb57700100000002c5c85fe31f35a6a30da1be500260801c5b600160611b831615613ade5770010000000162e42ff0999ce3541b9fffcf0260801c5b600160601b831615613b0157700100000000b17217f80f4ef5aadda455540260801c5b6001605f1b831615613b245770010000000058b90bfbf8479bd5a81b51ad0260801c5b6001605e1b831615613b47577001000000002c5c85fdf84bd62ae30a74cc0260801c5b6001605d1b831615613b6a57700100000000162e42fefb2fed257559bdaa0260801c5b6001605c1b831615613b8d577001000000000b17217f7d5a7716bba4a9ae0260801c5b6001605b1b831615613bb057700100000000058b90bfbe9ddbac5e109cce0260801c5b6001605a1b831615613bd35770010000000002c5c85fdf4b15de6f17eb0d0260801c5b600160591b831615613bf6577001000000000162e42fefa494f1478fde050260801c5b600160581b831615613c195770010000000000b17217f7d20cf927c8e94c0260801c5b600160571b831615613c3c577001000000000058b90bfbe8f71cb4e4b33d0260801c5b600160561b831615613c5f57700100000000002c5c85fdf477b662b269450260801c5b600160551b831615613c825770010000000000162e42fefa3ae53369388c0260801c5b600160541b831615613ca557700100000000000b17217f7d1d351a389d400260801c5b600160531b831615613cc85770010000000000058b90bfbe8e8b2d3d4ede0260801c5b600160521b831615613ceb577001000000000002c5c85fdf4741bea6e77e0260801c5b600160511b831615613d0e57700100000000000162e42fefa39fe95583c20260801c5b600160501b831615613d31577001000000000000b17217f7d1cfb72b45e10260801c5b6980000000000000000000831615613d5a57700100000000000058b90bfbe8e7cc35c3f00260801c5b6940000000000000000000831615613d835770010000000000002c5c85fdf473e242ea380260801c5b6920000000000000000000831615613dac577001000000000000162e42fefa39f02b772c0260801c5b6910000000000000000000831615613dd55770010000000000000b17217f7d1cf7d83c1a0260801c5b6908000000000000000000831615613dfe577001000000000000058b90bfbe8e7bdcbe2e0260801c5b6904000000000000000000831615613e2757700100000000000002c5c85fdf473dea871f0260801c5b6902000000000000000000831615613e505770010000000000000162e42fefa39ef44d910260801c5b6901000000000000000000831615613e7957700100000000000000b17217f7d1cf79e9490260801c5b68800000000000000000831615613ea15770010000000000000058b90bfbe8e7bce5440260801c5b68400000000000000000831615613ec9577001000000000000002c5c85fdf473de6eca0260801c5b68200000000000000000831615613ef157700100000000000000162e42fefa39ef366f0260801c5b68100000000000000000831615613f19577001000000000000000b17217f7d1cf79afa0260801c5b68080000000000000000831615613f4157700100000000000000058b90bfbe8e7bcd6d0260801c5b68040000000000000000831615613f695770010000000000000002c5c85fdf473de6b20260801c5b68020000000000000000831615613f91577001000000000000000162e42fefa39ef3580260801c5b600160401b831615613fb45770010000000000000000b17217f7d1cf79ab0260801c5b678000000000000000831615613fdb577001000000000000000058b90bfbe8e7bcd50260801c5b67400000000000000083161561400257700100000000000000002c5c85fdf473de6a0260801c5b6720000000000000008316156140295770010000000000000000162e42fefa39ef340260801c5b67100000000000000083161561405057700100000000000000000b17217f7d1cf7990260801c5b6708000000000000008316156140775770010000000000000000058b90bfbe8e7bcc0260801c5b67040000000000000083161561409e577001000000000000000002c5c85fdf473de50260801c5b6702000000000000008316156140c557700100000000000000000162e42fefa39ef20260801c5b6701000000000000008316156140ec577001000000000000000000b17217f7d1cf780260801c5b668000000000000083161561411257700100000000000000000058b90bfbe8e7bb0260801c5b66400000000000008316156141385770010000000000000000002c5c85fdf473dd0260801c5b662000000000000083161561415e577001000000000000000000162e42fefa39ee0260801c5b66100000000000008316156141845770010000000000000000000b17217f7d1cf60260801c5b66080000000000008316156141aa577001000000000000000000058b90bfbe8e7a0260801c5b66040000000000008316156141d057700100000000000000000002c5c85fdf473c0260801c5b66020000000000008316156141f65770010000000000000000000162e42fefa39d0260801c5b660100000000000083161561421c57700100000000000000000000b17217f7d1ce0260801c5b658000000000008316156142415770010000000000000000000058b90bfbe8e60260801c5b65400000000000831615614266577001000000000000000000002c5c85fdf4720260801c5b6520000000000083161561428b57700100000000000000000000162e42fefa380260801c5b651000000000008316156142b0577001000000000000000000000b17217f7d1b0260801c5b650800000000008316156142d557700100000000000000000000058b90bfbe8d0260801c5b650400000000008316156142fa5770010000000000000000000002c5c85fdf460260801c5b6502000000000083161561431f577001000000000000000000000162e42fefa20260801c5b650100000000008316156143445770010000000000000000000000b17217f7d00260801c5b648000000000831615614368577001000000000000000000000058b90bfbe70260801c5b64400000000083161561438c57700100000000000000000000002c5c85fdf30260801c5b6420000000008316156143b05770010000000000000000000000162e42fef90260801c5b6410000000008316156143d457700100000000000000000000000b17217f7c0260801c5b6408000000008316156143f85770010000000000000000000000058b90bfbd0260801c5b64040000000083161561441c577001000000000000000000000002c5c85fde0260801c5b64020000000083161561444057700100000000000000000000000162e42fee0260801c5b640100000000831615614464577001000000000000000000000000b17217f60260801c5b638000000083161561448757700100000000000000000000000058b90bfa0260801c5b63400000008316156144aa5770010000000000000000000000002c5c85fc0260801c5b63200000008316156144cd577001000000000000000000000000162e42fd0260801c5b63100000008316156144f05770010000000000000000000000000b17217e0260801c5b6308000000831615614513577001000000000000000000000000058b90be0260801c5b630400000083161561453657700100000000000000000000000002c5c85e0260801c5b63020000008316156145595770010000000000000000000000000162e42e0260801c5b630100000083161561457c57700100000000000000000000000000b172160260801c5b6280000083161561459e5770010000000000000000000000000058b90a0260801c5b624000008316156145c0577001000000000000000000000000002c5c840260801c5b622000008316156145e257700100000000000000000000000000162e410260801c5b62100000831615614604577001000000000000000000000000000b17200260801c5b6208000083161561462657700100000000000000000000000000058b8f0260801c5b620400008316156146485770010000000000000000000000000002c5c70260801c5b6202000083161561466a577001000000000000000000000000000162e30260801c5b6201000083161561468c5770010000000000000000000000000000b1710260801c5b6180008316156146ad577001000000000000000000000000000058b80260801c5b6140008316156146ce57700100000000000000000000000000002c5b0260801c5b6120008316156146ef5770010000000000000000000000000000162d0260801c5b61100083161561471057700100000000000000000000000000000b160260801c5b6108008316156147315770010000000000000000000000000000058a0260801c5b610400831615614752577001000000000000000000000000000002c40260801c5b610200831615614773577001000000000000000000000000000001610260801c5b610100831615614794577001000000000000000000000000000000b00260801c5b60808316156147b4577001000000000000000000000000000000570260801c5b60408316156147d45770010000000000000000000000000000002b0260801c5b60208316156147f4577001000000000000000000000000000000150260801c5b60108316156148145770010000000000000000000000000000000a0260801c5b6008831615614834577001000000000000000000000000000000040260801c5b6004831615614854577001000000000000000000000000000000010260801c5b8461487557600f81901c6001600160701b03169050613fff820191506148a4565b613ffe821161489a57600f81901c6001600160701b0316905081613fff0391506148a4565b600091613fee19011c5b60709190911b1760801b95945050505050565b8280548282559060005260206000209081019282156148f2579160200282015b828111156148f25782358255916020019190600101906148d7565b506148fe929150614902565b5090565b5b808211156148fe5760008155600101614903565b8035612ee181615597565b60008083601f84011261493457600080fd5b50813567ffffffffffffffff81111561494c57600080fd5b6020830191508360208260051b8501011115610bdb57600080fd5b8035612ee1816155af565b6000610160828403121561498557600080fd5b61498d61534d565b905061499882614917565b81526020820135602082015260408201356040820152606082013560608201526080820135608082015260a082013560a08201526149d860c08301614967565b60c082015260e082013560e082015261010080830135818301525061012080830135818301525061014080830135818301525092915050565b600060208284031215614a2357600080fd5b8135612d8c81615597565b600060208284031215614a4057600080fd5b8151612d8c81615597565b60008060408385031215614a5e57600080fd5b8235614a6981615597565b91506020830135614a7981615597565b809150509250929050565b600080600060608486031215614a9957600080fd5b8335614aa481615597565b95602085013595506040909401359392505050565b60008060008060808587031215614acf57600080fd5b8435614ada81615597565b935060208501359250604085013591506060850135614af8816155af565b939692955090935050565b60008060008060008060c08789031215614b1c57600080fd5b8635614b2781615597565b955060208701359450604087013593506060870135614b45816155af565b9598949750929560808101359460a0909101359350915050565b600080600080600080600060e0888a031215614b7a57600080fd5b8735614b8581615597565b96506020880135955060408801359450606088013593506080880135614baa816155af565b9699959850939692959460a0840135945060c09093013592915050565b600060408284031215614bd957600080fd5b82601f830112614be857600080fd5b6040516040810181811067ffffffffffffffff82111715614c0b57614c0b615581565b8060405250808385604086011115614c2257600080fd5b60005b6002811015614c44578151835260209283019290910190600101614c25565b509195945050505050565b60008060208385031215614c6257600080fd5b823567ffffffffffffffff811115614c7957600080fd5b614c8585828601614922565b90969095509350505050565b60008060008060408587031215614ca757600080fd5b843567ffffffffffffffff80821115614cbf57600080fd5b614ccb88838901614922565b90965094506020870135915080821115614ce457600080fd5b818701915087601f830112614cf857600080fd5b813581811115614d0757600080fd5b886020606083028501011115614d1c57600080fd5b95989497505060200194505050565b60008060008060008060608789031215614d4457600080fd5b863567ffffffffffffffff80821115614d5c57600080fd5b614d688a838b01614922565b90985096506020890135915080821115614d8157600080fd5b614d8d8a838b01614922565b90965094506040890135915080821115614da657600080fd5b50614db389828a01614922565b979a9699509497509295939492505050565b600060208284031215614dd757600080fd5b8151612d8c816155af565b600060208284031215614df457600080fd5b5051919050565b600060a08284031215614e0d57600080fd5b60405160a0810181811067ffffffffffffffff82111715614e3057614e30615581565b80604052508251815260208301516020820152604083015160408201526060830151614e5b816155af565b60608201526080928301519281019290925250919050565b6000806101808385031215614e8757600080fd5b614e918484614972565b9150610160830135614a79816155af565b6000806000806101c08587031215614eb957600080fd5b614ec38686614972565b966101608601359650610180860135956101a00135945092505050565b600060208284031215614ef257600080fd5b5035919050565b600080600080600060608688031215614f1157600080fd5b85359450602086013567ffffffffffffffff80821115614f3057600080fd5b614f3c89838a01614922565b90965094506040880135915080821115614f5557600080fd5b50614f6288828901614922565b969995985093965092949392505050565b60008060008060808587031215614f8957600080fd5b843593506020850135614f9b816155af565b9250604085013591506060850135614af8816155af565b60008060008060808587031215614fc857600080fd5b843593506020850135614fda816155af565b93969395505050506040820135916060013590565b600080600080600060a0868803121561500757600080fd5b853594506020860135615019816155af565b94979496505050506040830135926060810135926080909101359150565b600080600080600060a0868803121561504f57600080fd5b505083359560208501359550604085013594606081013594506080013592509050565b600080828403608081121561508657600080fd5b833592506060601f198201121561509c57600080fd5b506020830190509250929050565b600080604083850312156150bd57600080fd5b50508035926020909101359150565b600080604083850312156150df57600080fd5b505080516020909101519092909150565b600080600080600060a0868803121561510857600080fd5b85359450602086013593506040860135615121816155af565b9250606086013591506080860135615138816155af565b809150509295509295909350565b60008060006060848603121561515b57600080fd5b505081359360208301359350604090920135919050565b6000806000806080858703121561518857600080fd5b5050823594602084013594506040840135936060013592509050565b81835260006001600160fb1b038311156151bd57600080fd5b8260051b8083602087013760009401602001938452509192915050565b60408082528351908201819052600090606090818401906020808801855b8381101561522f5761521f8583518051825260208082015190830152604090810151910152565b93850193908201906001016151f8565b5050858303818701528651808452878201938201925060005b8181101561527f5761526f8486518051825260208082015190830152604090810151910152565b9382019392850192600101615248565b509198975050505050505050565b6020808252600e908201526d43414c4c4241434b535f4f4e4c5960901b604082015260600190565b6020808252600c908201526b4d414e414745525f4f4e4c5960a01b604082015260600190565b6020808252600990820152682d22a927afa0a2222960b91b604082015260600190565b602080825260089082015267474f565f4f4e4c5960c01b604082015260600190565b85815260606020820152600061533a6060830186886151a4565b82810360408401526114cd8185876151a4565b604051610160810167ffffffffffffffff8111828210171561537157615371615581565b60405290565b600080821280156001600160ff1b03849003851316156153995761539961553f565b600160ff1b83900384128116156153b2576153b261553f565b50500190565b600082198211156153cb576153cb61553f565b500190565b6000826153df576153df615555565b600160ff1b8214600019841416156153f9576153f961553f565b500590565b60008261540d5761540d615555565b500490565b60006001600160ff1b03818413828413808216868404861116156154385761543861553f565b600160ff1b60008712828116878305891216156154575761545761553f565b600087129250878205871284841616156154735761547361553f565b878505871281841616156154895761548961553f565b505050929093029392505050565b60008160001904831182151516156154b1576154b161553f565b500290565b60008083128015600160ff1b8501841216156154d4576154d461553f565b6001600160ff1b03840183138116156154ef576154ef61553f565b50500390565b6000828210156155075761550761553f565b500390565b6000600160ff1b8214156155225761552261553f565b5060000390565b634e487b7160e01b600052600160045260246000fd5b634e487b7160e01b600052601160045260246000fd5b634e487b7160e01b600052601260045260246000fd5b634e487b7160e01b600052603260045260246000fd5b634e487b7160e01b600052604160045260246000fd5b6001600160a01b03811681146155ac57600080fd5b50565b80151581146155ac57600080fdfea2646970667358221220d5906593077b75d31f8b8ebe7d7e0d64f0a55ff4108c4ddacf12ef67d4dfc5a164736f6c63430008070033","linkReferences":{}},"methodIdentifiers":{"getAccRolloverFeesLong(uint256)":"7d827137","getAccRolloverFeesShort(uint256)":"726219f3","getAccRolloverFeesUpdateBlock(uint256)":"0e0052fc","getBlendedSkew(uint256,bool,uint256,uint256)":"6676d850","getBlendedUtilizationRatio(uint256,uint256,uint256)":"c9533ebc","getOnePercentDepthAbove(uint256)":"cfc23e9e","getOnePercentDepthBelow(uint256)":"2b180a7d","getPairInfos(uint256[])":"0ea77770","getPendingAccRolloverFees(uint256)":"ab21a05c","getPriceImpactSpread(uint256,bool,uint256,bool)":"aee94fcf","getRolloverFeePerBlockP(uint256)":"338139ad","getSkewImpactSpread(uint256,bool,uint256,bool)":"c04254ec","getTradeInitialAccRolloverFeesPerCollateral(address,uint256,uint256)":"fe3cfd8c","getTradeLiquidationPrice(address,uint256,uint256,uint256,bool,uint256,uint256)":"6bc84d59","getTradeLiquidationPricePure(uint256,bool,uint256,uint256,uint256)":"7d36dda8","getTradePriceImpact(uint256,uint256,bool,uint256,bool)":"80242e51","getTradeRolloverFee(address,uint256,uint256,bool,uint256,uint256)":"05098272","getTradeRolloverFeePure(uint256,uint256,uint256,uint256)":"fdd3265f","getTradeValue((address,uint256,uint256,uint256,uint256,uint256,bool,uint256,uint256,uint256,uint256),uint256,int256,uint256)":"68286d36","getTradeValuePure(uint256,int256,uint256,uint256,uint256)":"75923b9d","initialize(address,address)":"485cc955","keeper()":"aced1661","liqThreshold()":"ae2293d7","longSkewConfig(uint256,uint256)":"6a3ca5fd","lossProtectionNumTiers(uint256)":"1f4934a1","lossProtectionTier((address,uint256,uint256,uint256,uint256,uint256,bool,uint256,uint256,uint256,uint256),bool)":"7390b236","manager()":"481c6a75","pairParams(uint256)":"42dee1ad","pairRolloverFees(uint256)":"bf1db1f6","pairsStorage()":"35b03c17","resetTradeInitialAccess(address,uint256,uint256)":"90999397","setKeeper(address)":"748747e6","setLossProtectionConfig(uint256,uint256[],uint256[])":"cf2befd2","setManager(address)":"d0ebdbe7","setOnePercentDepth(uint256,uint256,uint256)":"f6960654","setOnePercentDepthArray(uint256[],uint256[],uint256[])":"351533e7","setPairParams(uint256,(uint256,uint256,uint256))":"eb95e10c","setPairParamsArray(uint256[],(uint256,uint256,uint256)[])":"867a60c2","setRolloverFeePerBlockP(uint256,uint256)":"b74243ba","shortSkewConfig(uint256,uint256)":"183566d4","storageT()":"16fff074","storeTradeInitialAccFees(address,uint256,uint256,bool)":"0e6bc39a","tradeInitialAccFees(address,uint256,uint256)":"5ed5804e","udpateLiquidationThreshold(uint256)":"c21fbef8","updatePairStorage(address)":"a8feac6e"},"id":108}