{"abi":[{"type":"constructor","inputs":[],"stateMutability":"nonpayable"},{"type":"function","name":"getAccRolloverFeesLong","inputs":[{"name":"pairIndex","type":"uint256","internalType":"uint256"}],"outputs":[{"name":"","type":"uint256","internalType":"uint256"}],"stateMutability":"view"},{"type":"function","name":"getAccRolloverFeesShort","inputs":[{"name":"pairIndex","type":"uint256","internalType":"uint256"}],"outputs":[{"name":"","type":"uint256","internalType":"uint256"}],"stateMutability":"view"},{"type":"function","name":"getAccRolloverFeesUpdateBlock","inputs":[{"name":"pairIndex","type":"uint256","internalType":"uint256"}],"outputs":[{"name":"","type":"uint256","internalType":"uint256"}],"stateMutability":"view"},{"type":"function","name":"getBlendedSkew","inputs":[{"name":"_pairIndex","type":"uint256","internalType":"uint256"},{"name":"_long","type":"bool","internalType":"bool"},{"name":"_longOI","type":"uint256","internalType":"uint256"},{"name":"_shortOI","type":"uint256","internalType":"uint256"}],"outputs":[{"name":"","type":"uint256","internalType":"uint256"}],"stateMutability":"view"},{"type":"function","name":"getBlendedUtilizationRatio","inputs":[{"name":"_pairIndex","type":"uint256","internalType":"uint256"},{"name":"_longOI","type":"uint256","internalType":"uint256"},{"name":"_shortOI","type":"uint256","internalType":"uint256"}],"outputs":[{"name":"","type":"uint256","internalType":"uint256"}],"stateMutability":"view"},{"type":"function","name":"getOnePercentDepthAbove","inputs":[{"name":"pairIndex","type":"uint256","internalType":"uint256"}],"outputs":[{"name":"","type":"uint256","internalType":"uint256"}],"stateMutability":"view"},{"type":"function","name":"getOnePercentDepthBelow","inputs":[{"name":"pairIndex","type":"uint256","internalType":"uint256"}],"outputs":[{"name":"","type":"uint256","internalType":"uint256"}],"stateMutability":"view"},{"type":"function","name":"getPairInfos","inputs":[{"name":"indices","type":"uint256[]","internalType":"uint256[]"}],"outputs":[{"name":"","type":"tuple[]","internalType":"struct IPairInfos.PairParams[]","components":[{"name":"onePercentDepthAbove","type":"uint256","internalType":"uint256"},{"name":"onePercentDepthBelow","type":"uint256","internalType":"uint256"},{"name":"rolloverFeePerBlockP","type":"uint256","internalType":"uint256"}]},{"name":"","type":"tuple[]","internalType":"struct IPairInfos.PairRolloverFees[]","components":[{"name":"accPerOiLong","type":"uint256","internalType":"uint256"},{"name":"accPerOiShort","type":"uint256","internalType":"uint256"},{"name":"lastUpdateBlock","type":"uint256","internalType":"uint256"}]}],"stateMutability":"view"},{"type":"function","name":"getPendingAccRolloverFees","inputs":[{"name":"pairIndex","type":"uint256","internalType":"uint256"}],"outputs":[{"name":"valueLong","type":"uint256","internalType":"uint256"},{"name":"valueShort","type":"uint256","internalType":"uint256"}],"stateMutability":"view"},{"type":"function","name":"getPriceImpactSpread","inputs":[{"name":"_pairIndex","type":"uint256","internalType":"uint256"},{"name":"_isBuy","type":"bool","internalType":"bool"},{"name":"_leveragePosition","type":"uint256","internalType":"uint256"}],"outputs":[{"name":"spread","type":"int256","internalType":"int256"}],"stateMutability":"view"},{"type":"function","name":"getRolloverFeePerBlockP","inputs":[{"name":"pairIndex","type":"uint256","internalType":"uint256"}],"outputs":[{"name":"","type":"uint256","internalType":"uint256"}],"stateMutability":"view"},{"type":"function","name":"getSkewImpactSpread","inputs":[{"name":"_pairIndex","type":"uint256","internalType":"uint256"},{"name":"_isBuy","type":"bool","internalType":"bool"},{"name":"_leveragePosition","type":"uint256","internalType":"uint256"}],"outputs":[{"name":"spread","type":"int256","internalType":"int256"}],"stateMutability":"view"},{"type":"function","name":"getTradeInitialAccRolloverFeesPerCollateral","inputs":[{"name":"trader","type":"address","internalType":"address"},{"name":"pairIndex","type":"uint256","internalType":"uint256"},{"name":"index","type":"uint256","internalType":"uint256"}],"outputs":[{"name":"","type":"uint256","internalType":"uint256"}],"stateMutability":"view"},{"type":"function","name":"getTradeLiquidationPrice","inputs":[{"name":"trader","type":"address","internalType":"address"},{"name":"pairIndex","type":"uint256","internalType":"uint256"},{"name":"index","type":"uint256","internalType":"uint256"},{"name":"openPrice","type":"uint256","internalType":"uint256"},{"name":"long","type":"bool","internalType":"bool"},{"name":"collateral","type":"uint256","internalType":"uint256"},{"name":"leverage","type":"uint256","internalType":"uint256"}],"outputs":[{"name":"","type":"uint256","internalType":"uint256"}],"stateMutability":"view"},{"type":"function","name":"getTradeLiquidationPricePure","inputs":[{"name":"openPrice","type":"uint256","internalType":"uint256"},{"name":"long","type":"bool","internalType":"bool"},{"name":"collateral","type":"uint256","internalType":"uint256"},{"name":"leverage","type":"uint256","internalType":"uint256"},{"name":"rolloverFee","type":"uint256","internalType":"uint256"}],"outputs":[{"name":"","type":"uint256","internalType":"uint256"}],"stateMutability":"view"},{"type":"function","name":"getTradePriceImpact","inputs":[{"name":"openPrice","type":"uint256","internalType":"uint256"},{"name":"pairIndex","type":"uint256","internalType":"uint256"},{"name":"long","type":"bool","internalType":"bool"},{"name":"tradeOpenInterest","type":"uint256","internalType":"uint256"}],"outputs":[{"name":"priceAfterImpact","type":"uint256","internalType":"uint256"}],"stateMutability":"view"},{"type":"function","name":"getTradeRolloverFee","inputs":[{"name":"trader","type":"address","internalType":"address"},{"name":"pairIndex","type":"uint256","internalType":"uint256"},{"name":"index","type":"uint256","internalType":"uint256"},{"name":"long","type":"bool","internalType":"bool"},{"name":"collateral","type":"uint256","internalType":"uint256"},{"name":"leverage","type":"uint256","internalType":"uint256"}],"outputs":[{"name":"","type":"uint256","internalType":"uint256"}],"stateMutability":"view"},{"type":"function","name":"getTradeRolloverFeePure","inputs":[{"name":"accRolloverFeesPerOi","type":"uint256","internalType":"uint256"},{"name":"endAccRolloverFeesPerOi","type":"uint256","internalType":"uint256"},{"name":"collateral","type":"uint256","internalType":"uint256"},{"name":"leverage","type":"uint256","internalType":"uint256"}],"outputs":[{"name":"","type":"uint256","internalType":"uint256"}],"stateMutability":"pure"},{"type":"function","name":"getTradeValue","inputs":[{"name":"_trade","type":"tuple","internalType":"struct ITradingStorage.Trade","components":[{"name":"trader","type":"address","internalType":"address"},{"name":"pairIndex","type":"uint256","internalType":"uint256"},{"name":"index","type":"uint256","internalType":"uint256"},{"name":"initialPosToken","type":"uint256","internalType":"uint256"},{"name":"positionSizeUSDC","type":"uint256","internalType":"uint256"},{"name":"openPrice","type":"uint256","internalType":"uint256"},{"name":"buy","type":"bool","internalType":"bool"},{"name":"leverage","type":"uint256","internalType":"uint256"},{"name":"tp","type":"uint256","internalType":"uint256"},{"name":"sl","type":"uint256","internalType":"uint256"},{"name":"timestamp","type":"uint256","internalType":"uint256"}]},{"name":"collateral","type":"uint256","internalType":"uint256"},{"name":"percentProfit","type":"int256","internalType":"int256"},{"name":"closingFee","type":"uint256","internalType":"uint256"},{"name":"_tier","type":"uint256","internalType":"uint256"}],"outputs":[{"name":"amount","type":"uint256","internalType":"uint256"},{"name":"pnl","type":"int256","internalType":"int256"},{"name":"fees","type":"uint256","internalType":"uint256"}],"stateMutability":"nonpayable"},{"type":"function","name":"getTradeValuePure","inputs":[{"name":"collateral","type":"uint256","internalType":"uint256"},{"name":"percentProfit","type":"int256","internalType":"int256"},{"name":"rolloverFee","type":"uint256","internalType":"uint256"},{"name":"closingFee","type":"uint256","internalType":"uint256"},{"name":"lossProtection","type":"uint256","internalType":"uint256"}],"outputs":[{"name":"","type":"uint256","internalType":"uint256"},{"name":"","type":"int256","internalType":"int256"},{"name":"","type":"uint256","internalType":"uint256"}],"stateMutability":"view"},{"type":"function","name":"initialize","inputs":[{"name":"_storageT","type":"address","internalType":"address"},{"name":"_pairsStorage","type":"address","internalType":"address"}],"outputs":[],"stateMutability":"nonpayable"},{"type":"function","name":"keeper","inputs":[],"outputs":[{"name":"","type":"address","internalType":"address"}],"stateMutability":"view"},{"type":"function","name":"liqThreshold","inputs":[],"outputs":[{"name":"","type":"uint256","internalType":"uint256"}],"stateMutability":"view"},{"type":"function","name":"longSkewConfig","inputs":[{"name":"","type":"uint256","internalType":"uint256"},{"name":"","type":"uint256","internalType":"uint256"}],"outputs":[{"name":"","type":"uint256","internalType":"uint256"}],"stateMutability":"view"},{"type":"function","name":"lossProtectionNumTiers","inputs":[{"name":"","type":"uint256","internalType":"uint256"}],"outputs":[{"name":"","type":"uint256","internalType":"uint256"}],"stateMutability":"view"},{"type":"function","name":"lossProtectionTier","inputs":[{"name":"_trade","type":"tuple","internalType":"struct ITradingStorage.Trade","components":[{"name":"trader","type":"address","internalType":"address"},{"name":"pairIndex","type":"uint256","internalType":"uint256"},{"name":"index","type":"uint256","internalType":"uint256"},{"name":"initialPosToken","type":"uint256","internalType":"uint256"},{"name":"positionSizeUSDC","type":"uint256","internalType":"uint256"},{"name":"openPrice","type":"uint256","internalType":"uint256"},{"name":"buy","type":"bool","internalType":"bool"},{"name":"leverage","type":"uint256","internalType":"uint256"},{"name":"tp","type":"uint256","internalType":"uint256"},{"name":"sl","type":"uint256","internalType":"uint256"},{"name":"timestamp","type":"uint256","internalType":"uint256"}]}],"outputs":[{"name":"","type":"uint256","internalType":"uint256"}],"stateMutability":"view"},{"type":"function","name":"manager","inputs":[],"outputs":[{"name":"","type":"address","internalType":"address"}],"stateMutability":"view"},{"type":"function","name":"pairParams","inputs":[{"name":"","type":"uint256","internalType":"uint256"}],"outputs":[{"name":"onePercentDepthAbove","type":"uint256","internalType":"uint256"},{"name":"onePercentDepthBelow","type":"uint256","internalType":"uint256"},{"name":"rolloverFeePerBlockP","type":"uint256","internalType":"uint256"}],"stateMutability":"view"},{"type":"function","name":"pairRolloverFees","inputs":[{"name":"","type":"uint256","internalType":"uint256"}],"outputs":[{"name":"accPerOiLong","type":"uint256","internalType":"uint256"},{"name":"accPerOiShort","type":"uint256","internalType":"uint256"},{"name":"lastUpdateBlock","type":"uint256","internalType":"uint256"}],"stateMutability":"view"},{"type":"function","name":"pairsStorage","inputs":[],"outputs":[{"name":"","type":"address","internalType":"contract IPairStorage"}],"stateMutability":"view"},{"type":"function","name":"setKeeper","inputs":[{"name":"_keeper","type":"address","internalType":"address"}],"outputs":[],"stateMutability":"nonpayable"},{"type":"function","name":"setLossProtectionConfig","inputs":[{"name":"_pairIndex","type":"uint256","internalType":"uint256"},{"name":"_longSkewConfig","type":"uint256[]","internalType":"uint256[]"},{"name":"_shortSkewConfig","type":"uint256[]","internalType":"uint256[]"}],"outputs":[],"stateMutability":"nonpayable"},{"type":"function","name":"setManager","inputs":[{"name":"_manager","type":"address","internalType":"address"}],"outputs":[],"stateMutability":"nonpayable"},{"type":"function","name":"setOnePercentDepth","inputs":[{"name":"pairIndex","type":"uint256","internalType":"uint256"},{"name":"valueAbove","type":"uint256","internalType":"uint256"},{"name":"valueBelow","type":"uint256","internalType":"uint256"}],"outputs":[],"stateMutability":"nonpayable"},{"type":"function","name":"setOnePercentDepthArray","inputs":[{"name":"indices","type":"uint256[]","internalType":"uint256[]"},{"name":"valuesAbove","type":"uint256[]","internalType":"uint256[]"},{"name":"valuesBelow","type":"uint256[]","internalType":"uint256[]"}],"outputs":[],"stateMutability":"nonpayable"},{"type":"function","name":"setPairParams","inputs":[{"name":"pairIndex","type":"uint256","internalType":"uint256"},{"name":"value","type":"tuple","internalType":"struct IPairInfos.PairParams","components":[{"name":"onePercentDepthAbove","type":"uint256","internalType":"uint256"},{"name":"onePercentDepthBelow","type":"uint256","internalType":"uint256"},{"name":"rolloverFeePerBlockP","type":"uint256","internalType":"uint256"}]}],"outputs":[],"stateMutability":"nonpayable"},{"type":"function","name":"setPairParamsArray","inputs":[{"name":"indices","type":"uint256[]","internalType":"uint256[]"},{"name":"values","type":"tuple[]","internalType":"struct IPairInfos.PairParams[]","components":[{"name":"onePercentDepthAbove","type":"uint256","internalType":"uint256"},{"name":"onePercentDepthBelow","type":"uint256","internalType":"uint256"},{"name":"rolloverFeePerBlockP","type":"uint256","internalType":"uint256"}]}],"outputs":[],"stateMutability":"nonpayable"},{"type":"function","name":"setRolloverFeePerBlockP","inputs":[{"name":"pairIndex","type":"uint256","internalType":"uint256"},{"name":"value","type":"uint256","internalType":"uint256"}],"outputs":[],"stateMutability":"nonpayable"},{"type":"function","name":"shortSkewConfig","inputs":[{"name":"","type":"uint256","internalType":"uint256"},{"name":"","type":"uint256","internalType":"uint256"}],"outputs":[{"name":"","type":"uint256","internalType":"uint256"}],"stateMutability":"view"},{"type":"function","name":"storageT","inputs":[],"outputs":[{"name":"","type":"address","internalType":"contract ITradingStorage"}],"stateMutability":"view"},{"type":"function","name":"storeTradeInitialAccFees","inputs":[{"name":"trader","type":"address","internalType":"address"},{"name":"pairIndex","type":"uint256","internalType":"uint256"},{"name":"index","type":"uint256","internalType":"uint256"},{"name":"long","type":"bool","internalType":"bool"}],"outputs":[],"stateMutability":"nonpayable"},{"type":"function","name":"tradeInitialAccFees","inputs":[{"name":"","type":"address","internalType":"address"},{"name":"","type":"uint256","internalType":"uint256"},{"name":"","type":"uint256","internalType":"uint256"}],"outputs":[{"name":"rollover","type":"uint256","internalType":"uint256"},{"name":"openedAfterUpdate","type":"bool","internalType":"bool"}],"stateMutability":"view"},{"type":"function","name":"udpateLiquidationThreshold","inputs":[{"name":"_newThreshold","type":"uint256","internalType":"uint256"}],"outputs":[],"stateMutability":"nonpayable"},{"type":"event","name":"AccRolloverFeesStored","inputs":[{"name":"pairIndex","type":"uint256","indexed":false,"internalType":"uint256"},{"name":"valueLong","type":"uint256","indexed":false,"internalType":"uint256"},{"name":"valueShort","type":"uint256","indexed":false,"internalType":"uint256"}],"anonymous":false},{"type":"event","name":"CoeffUpdated","inputs":[{"name":"multiplierCoeffMax","type":"uint256","indexed":false,"internalType":"uint256"},{"name":"groupId","type":"uint256","indexed":false,"internalType":"uint256"}],"anonymous":false},{"type":"event","name":"DenomUpdated","inputs":[{"name":"multiplierDenom","type":"uint256","indexed":false,"internalType":"uint256"},{"name":"groupId","type":"uint256","indexed":false,"internalType":"uint256"}],"anonymous":false},{"type":"event","name":"FeesCharged","inputs":[{"name":"buy","type":"bool","indexed":false,"internalType":"bool"},{"name":"collateral","type":"uint256","indexed":false,"internalType":"uint256"},{"name":"leverage","type":"uint256","indexed":false,"internalType":"uint256"},{"name":"percentProfit","type":"int256","indexed":false,"internalType":"int256"},{"name":"r","type":"uint256","indexed":false,"internalType":"uint256"},{"name":"closingFee","type":"uint256","indexed":false,"internalType":"uint256"},{"name":"lossProtection","type":"uint256","indexed":false,"internalType":"uint256"}],"anonymous":false},{"type":"event","name":"Initialized","inputs":[{"name":"version","type":"uint8","indexed":false,"internalType":"uint8"}],"anonymous":false},{"type":"event","name":"KeeperUpdated","inputs":[{"name":"keeper","type":"address","indexed":false,"internalType":"address"}],"anonymous":false},{"type":"event","name":"LiqThresholdUpdated","inputs":[{"name":"newThreshold","type":"uint256","indexed":false,"internalType":"uint256"}],"anonymous":false},{"type":"event","name":"LossProtectionConfigSet","inputs":[{"name":"numTiers","type":"uint256","indexed":false,"internalType":"uint256"},{"name":"longSkewConfig","type":"uint256[]","indexed":false,"internalType":"uint256[]"},{"name":"shortSkewConfig","type":"uint256[]","indexed":false,"internalType":"uint256[]"}],"anonymous":false},{"type":"event","name":"ManagerUpdated","inputs":[{"name":"value","type":"address","indexed":false,"internalType":"address"}],"anonymous":false},{"type":"event","name":"MaxNegativePnlOnOpenPUpdated","inputs":[{"name":"value","type":"uint256","indexed":false,"internalType":"uint256"}],"anonymous":false},{"type":"event","name":"MultiplierUpdated","inputs":[{"name":"minMultiplierRate","type":"uint256","indexed":false,"internalType":"uint256"},{"name":"maxMultiplierRate","type":"uint256","indexed":false,"internalType":"uint256"},{"name":"groupId","type":"uint256","indexed":false,"internalType":"uint256"}],"anonymous":false},{"type":"event","name":"OnePercentDepthUpdated","inputs":[{"name":"pairIndex","type":"uint256","indexed":false,"internalType":"uint256"},{"name":"valueAbove","type":"uint256","indexed":false,"internalType":"uint256"},{"name":"valueBelow","type":"uint256","indexed":false,"internalType":"uint256"}],"anonymous":false},{"type":"event","name":"PairParamsUpdated","inputs":[{"name":"pairIndex","type":"uint256","indexed":false,"internalType":"uint256"},{"name":"value","type":"tuple","indexed":false,"internalType":"struct IPairInfos.PairParams","components":[{"name":"onePercentDepthAbove","type":"uint256","internalType":"uint256"},{"name":"onePercentDepthBelow","type":"uint256","internalType":"uint256"},{"name":"rolloverFeePerBlockP","type":"uint256","internalType":"uint256"}]}],"anonymous":false},{"type":"event","name":"RolloverFeePerBlockPUpdated","inputs":[{"name":"pairIndex","type":"uint256","indexed":false,"internalType":"uint256"},{"name":"fee","type":"uint256","indexed":false,"internalType":"uint256"}],"anonymous":false},{"type":"event","name":"TradeInitialAccFeesStored","inputs":[{"name":"trader","type":"address","indexed":false,"internalType":"address"},{"name":"pairIndex","type":"uint256","indexed":false,"internalType":"uint256"},{"name":"index","type":"uint256","indexed":false,"internalType":"uint256"},{"name":"rollover","type":"uint256","indexed":false,"internalType":"uint256"}],"anonymous":false}],"bytecode":{"object":"0x60806040523480156200001157600080fd5b506200001c62000022565b620000e3565b600054610100900460ff16156200008f5760405162461bcd60e51b815260206004820152602760248201527f496e697469616c697a61626c653a20636f6e747261637420697320696e697469604482015266616c697a696e6760c81b606482015260840160405180910390fd5b60005460ff90811614620000e1576000805460ff191660ff9081179091556040519081527f7f26b83ff96e1f2b6a682f133852f6798a09c465da95921460cefb38474024989060200160405180910390a15b565b61502a80620000f36000396000f3fe608060405234801561001057600080fd5b50600436106102695760003560e01c806375923b9d11610151578063bf1db1f6116100c3578063d0ebdbe711610087578063d0ebdbe714610670578063eb95e10c14610683578063f696065414610696578063fcfe7378146106a9578063fdd3265f146106bc578063fe3cfd8c146106cf57600080fd5b8063bf1db1f6146105e8578063c21fbef814610617578063c9533ebc1461062a578063cf2befd21461063d578063cfc23e9e1461065057600080fd5b8063867a60c211610115578063867a60c21461056b578063890801de1461057e578063ab21a05c14610591578063aced1661146105b9578063ae2293d7146105cc578063b74243ba146105d557600080fd5b806375923b9d146104ff5780637d36dda8146105125780637d827137146105255780637ea95f321461054557806382d317b21461055857600080fd5b8063351533e7116101ea5780635ed5804e116101ae5780635ed5804e146104405780636676d850146104905780636a3ca5fd146104a35780636bc84d59146104b6578063726219f3146104c9578063748747e6146104ec57600080fd5b8063351533e7146103c557806335b03c17146103d857806342dee1ad146103eb578063481c6a751461041a578063485cc9551461042d57600080fd5b806316fff0741161023157806316fff0741461031b578063183566d41461034c5780631f4934a11461035f5780632b180a7d1461037f578063338139ad146103a257600080fd5b8063050982721461026e5780630b224e87146102945780630e0052fc146102c25780630e6bc39a146102e55780630ea77770146102fa575b600080fd5b61028161027c366004614647565b610710565b6040519081526020015b60405180910390f35b6102a76102a236600461495c565b6107a1565b6040805193845260208401929092529082015260600161028b565b6102816102d03660046149a4565b60009081526006602052604090206002015490565b6102f86102f33660046145fd565b6109e1565b005b61030d610308366004614793565b610b84565b60405161028b929190614c5c565b600054610334906201000090046001600160a01b031681565b6040516001600160a01b03909116815260200161028b565b61028161035a366004614b67565b610d5e565b61028161036d3660046149a4565b60086020526000908152604090205481565b61028161038d3660046149a4565b60009081526005602052604090206001015490565b6102816103b03660046149a4565b60009081526005602052604090206002015490565b6102f86103d336600461486f565b610d8f565b600154610334906001600160a01b031681565b6102a76103f93660046149a4565b60056020526000908152604090208054600182015460029092015490919083565b600254610334906001600160a01b031681565b6102f861043b36600461458f565b610e71565b61047b61044e3660046145c8565b60076020908152600093845260408085208252928452828420905282529020805460019091015460ff1682565b6040805192835290151560208301520161028b565b61028161049e366004614a6f565b610fc2565b6102816104b1366004614b67565b61135a565b6102816104c43660046146a3565b611376565b6102816104d73660046149a4565b60009081526006602052604090206001015490565b6102f86104fa366004614555565b611399565b6102a761050d366004614af4565b6114e6565b610281610520366004614aac565b6115ba565b6102816105333660046149a4565b60009081526006602052604090205490565b610281610553366004614b89565b61163e565b61028161056636600461493f565b61178f565b6102f86105793660046147d5565b611a33565b61028161058c366004614a37565b611aee565b6105a461059f3660046149a4565b611e19565b6040805192835260208301919091520161028b565b600354610334906001600160a01b031681565b61028160045481565b6102f86105e3366004614b67565b612118565b6102a76105f63660046149a4565b60066020526000908152604090208054600182015460029092015490919083565b6102f86106253660046149a4565b6121dd565b610281610638366004614bc8565b6122c8565b6102f861064b3660046149bd565b612441565b61028161065e3660046149a4565b60009081526005602052604090205490565b6102f861067e366004614555565b6124fe565b6102f8610691366004614b2f565b612644565b6102f86106a4366004614bc8565b61267c565b6102816106b7366004614a37565b6126cf565b6102816106ca366004614bf4565b6127b6565b6102816106dd3660046145c8565b6001600160a01b038316600090815260076020908152604080832085845282528083208484529091529020549392505050565b6001600160a01b0386166000908152600760209081526040808320888452825280832087845282528083208151808301909252805482526001015460ff16151591810182905290610765576000915050610797565b60008061077189611e19565b91509150610791836000015188610788578261078a565b835b88886127b6565b93505050505b9695505050505050565b60008060008060029054906101000a90046001600160a01b03166001600160a01b031662b127836040518163ffffffff1660e01b815260040160206040518083038186803b1580156107f257600080fd5b505afa158015610806573d6000803e3d6000fd5b505050506040513d601f19601f8201168201806040525081019061082a9190614572565b6001600160a01b0316336001600160a01b0316146108805760405162461bcd60e51b815260206004820152600e60248201526d43414c4c4241434b535f4f4e4c5960901b60448201526064015b60405180910390fd5b61088d88602001516127ef565b60006108b189600001518a602001518b604001518c60c001518c8e60e00151610710565b60015460208b0151604051632b1cbe9d60e01b81529293506000926001600160a01b0390921691632b1cbe9d916108f5918a90600401918252602082015260400190565b60206040518083038186803b15801561090d57600080fd5b505afa158015610921573d6000803e3d6000fd5b505050506040513d601f19601f820116820180604052508101906109459190614926565b90506109548989848a856114e6565b60c08d015160e08e01516040519499509297509095507fb70bf101b761b8a0fe59428f8a894321d6639ef13ab81b9bf16d19764a7dba66926109cc928d918d9088908e9089909615158752602087019590955260408601939093526060850191909152608084015260a083015260c082015260e00190565b60405180910390a15050955095509592505050565b600060029054906101000a90046001600160a01b03166001600160a01b031662b127836040518163ffffffff1660e01b815260040160206040518083038186803b158015610a2e57600080fd5b505afa158015610a42573d6000803e3d6000fd5b505050506040513d601f19601f82011682018060405250810190610a669190614572565b6001600160a01b0316336001600160a01b031614610ab75760405162461bcd60e51b815260206004820152600e60248201526d43414c4c4241434b535f4f4e4c5960901b6044820152606401610877565b610ac0836127ef565b6001600160a01b03841660009081526007602090815260408083208684528252808320858452909152902081610b0757600084815260066020526040902060010154610b17565b6000848152600660205260409020545b8082556001808301805460ff19169091179055604080516001600160a01b03881681526020810187905290810185905260608101919091527f835af8708eb91d2079c09e00124475ffca3f81cbef1e074867d53e5c9ec0ed98906080015b60405180910390a15050505050565b60608060008367ffffffffffffffff811115610ba257610ba2614fb8565b604051908082528060200260200182016040528015610bf757816020015b610be460405180606001604052806000815260200160008152602001600081525090565b815260200190600190039081610bc05790505b50905060008467ffffffffffffffff811115610c1557610c15614fb8565b604051908082528060200260200182016040528015610c6a57816020015b610c5760405180606001604052806000815260200160008152602001600081525090565b815260200190600190039081610c335790505b50905060005b85811015610d50576000878783818110610c8c57610c8c614fa2565b905060200201359050600560008281526020019081526020016000206040518060600160405290816000820154815260200160018201548152602001600282015481525050848381518110610ce357610ce3614fa2565b6020026020010181905250600660008281526020019081526020016000206040518060600160405290816000820154815260200160018201548152602001600282015481525050838381518110610d3c57610d3c614fa2565b602090810291909101015250600101610c70565b5090925090505b9250929050565b600a6020528160005260406000208181548110610d7a57600080fd5b90600052602060002001600091509150505481565b6002546001600160a01b03163314610db95760405162461bcd60e51b815260040161087790614d0f565b8483148015610dc757508481145b610e025760405162461bcd60e51b815260206004820152600c60248201526b0aea49e9c8ebe988a9c8ea8960a31b6044820152606401610877565b60005b85811015610e6857610e60878783818110610e2257610e22614fa2565b90506020020135868684818110610e3b57610e3b614fa2565b90506020020135858585818110610e5457610e54614fa2565b90506020020135612852565b600101610e05565b50505050505050565b600054610100900460ff1615808015610e915750600054600160ff909116105b80610eab5750303b158015610eab575060005460ff166001145b610f0e5760405162461bcd60e51b815260206004820152602e60248201527f496e697469616c697a61626c653a20636f6e747261637420697320616c72656160448201526d191e481a5b9a5d1a585b1a5e995960921b6064820152608401610877565b6000805460ff191660011790558015610f31576000805461ff0019166101001790555b6000805462010000600160b01b031916620100006001600160a01b038681169190910291909117909155600180546001600160a01b03191691841691909117905560556004558015610fbd576000805461ff0019169055604051600181527f7f26b83ff96e1f2b6a682f133852f6798a09c465da95921460cefb38474024989060200160405180910390a15b505050565b6000610fce8284614def565b610fda57506000611352565b600154604051633c44d0a360e01b8152600481018790526001600160a01b0390911690633c44d0a39060240160206040518083038186803b15801561101e57600080fd5b505afa158015611032573d6000803e3d6000fd5b505050506040513d601f19601f820116820180604052508101906110569190614926565b600214156112ff5760008060029054906101000a90046001600160a01b03166001600160a01b0316638ecf3f5a6040518163ffffffff1660e01b8152600401604080518083038186803b1580156110ac57600080fd5b505afa1580156110c0573d6000803e3d6000fd5b505050506040513d601f19601f820116820180604052508101906110e4919061470b565b90506000856110f45760016110f7565b60005b600154604051636dc37de360e01b8152600481018a905260ff92909216925060009184916001600160a01b031690636dc37de39060240160206040518083038186803b15801561114657600080fd5b505afa15801561115a573d6000803e3d6000fd5b505050506040513d601f19601f8201168201806040525081019061117e9190614909565b6111925761118d836001614f2c565b611194565b825b600281106111a4576111a4614fa2565b6020020151600154604051636dc37de360e01b8152600481018b905291925060009185916001600160a01b031690636dc37de39060240160206040518083038186803b1580156111f357600080fd5b505afa158015611207573d6000803e3d6000fd5b505050506040513d601f19601f8201168201806040525081019061122b9190614909565b6112355783611240565b611240846001614f2c565b6002811061125057611250614fa2565b6020020151905060006112638383614def565b61126e846064614ece565b6112789190614e35565b90506000896112a55761128b888a614def565b611296896064614ece565b6112a09190614e35565b6112c4565b6112af888a614def565b6112ba8a6064614ece565b6112c49190614e35565b905060646112d3826019614ece565b6112de84604b614ece565b6112e89190614def565b6112f29190614e35565b9650505050505050611352565b60008461132a576113108385614def565b61131b846064614ece565b6113259190614e35565b611349565b6113348385614def565b61133f856064614ece565b6113499190614e35565b91506113529050565b949350505050565b60096020528160005260406000208181548110610d7a57600080fd5b600061138d858585856105208d8d8d8c8c8c610710565b98975050505050505050565b600060029054906101000a90046001600160a01b03166001600160a01b03166312d43a516040518163ffffffff1660e01b815260040160206040518083038186803b1580156113e757600080fd5b505afa1580156113fb573d6000803e3d6000fd5b505050506040513d601f19601f8201168201806040525081019061141f9190614572565b6001600160a01b0316336001600160a01b03161461144f5760405162461bcd60e51b815260040161087790614d35565b6001600160a01b0381166114915760405162461bcd60e51b81526020600482015260096024820152682d22a927afa0a2222960b91b6044820152606401610877565b600380546001600160a01b0319166001600160a01b0383169081179091556040519081527f0425bcd291db1d48816f2a98edc7ecaf6dd5c64b973d9e4b3b6b750763dc6c2e906020015b60405180910390a150565b600080808060646402540be4006114fd8a8c614e49565b6115079190614e07565b6115119190614e07565b905060008112156115355760646115288683614e49565b6115329190614e07565b90505b60006115418789614dae565b9050600081611550848d614dae565b61155a9190614eed565b90506064600454606461156d9190614f2c565b611577908d614e49565b6115819190614e07565b8113611597575060006115948b83614eed565b92505b600081136115a65760006115a8565b805b9b929a50909850909650505050505050565b6000806115c785856128b2565b836064600454886115d89190614ece565b6115e29190614e35565b6115ec9190614eed565b6115f69089614e49565b6116009190614e07565b9050600086611618576116138289614dae565b611622565b6116228289614eed565b90506000811361163357600061138d565b979650505050505050565b60008061164c8585856126cf565b9050600061165b868686611aee565b60015460405163a1d54e9b60e01b815260048101899052919250600091839185916001600160a01b039091169063a1d54e9b9060240160206040518083038186803b1580156116a957600080fd5b505afa1580156116bd573d6000803e3d6000fd5b505050506040513d601f19601f820116820180604052508101906116e19190614926565b6116eb9190614dae565b6116f59190614dae565b9050611707600a6402540be400614e35565b61171090614f43565b811261171c5780611735565b61172c600a6402540be400614e35565b61173590614f43565b9050600060646402540be40061174b8b85614e49565b6117559190614e07565b61175f9190614e07565b905060008761177757611772828b614eed565b611781565b611781828b614dae565b9a9950505050505050505050565b600080546020830151604051639cb87f2360e01b815260048101919091526024810183905282916201000090046001600160a01b031690639cb87f239060440160206040518083038186803b1580156117e757600080fd5b505afa1580156117fb573d6000803e3d6000fd5b505050506040513d601f19601f8201168201806040525081019061181f9190614926565b600080546020860151604051639cb87f2360e01b81526004810191909152600160248201529293509091620100009091046001600160a01b031690639cb87f239060440160206040518083038186803b15801561187b57600080fd5b505afa15801561188f573d6000803e3d6000fd5b505050506040513d601f19601f820116820180604052508101906118b39190614926565b905060006118d28560e0015186606001516128b290919063ffffffff16565b90508460c0015115611985576118e88184614def565b925060006118f68385614def565b611901846064614ece565b61190b9190614e35565b6020808801516000908152600a90915260409020549091505b801561197e576020808801516000908152600a90915260409020611949600183614f2c565b8154811061195957611959614fa2565b9060005260206000200154821061197557611633600182614f2c565b60001901611924565b5050611a28565b61198f8183614def565b9150600061199d8385614def565b6119a8856064614ece565b6119b29190614e35565b6020808801516000908152600990915260409020549091505b8015611a255760208088015160009081526009909152604090206119f0600183614f2c565b81548110611a0057611a00614fa2565b90600052602060002001548210611a1c57611633600182614f2c565b600019016119cb565b50505b506000949350505050565b6002546001600160a01b03163314611a5d5760405162461bcd60e51b815260040161087790614d0f565b828114611a9b5760405162461bcd60e51b815260206004820152600c60248201526b0aea49e9c8ebe988a9c8ea8960a31b6044820152606401610877565b60005b83811015611ae757611adf858583818110611abb57611abb614fa2565b90506020020135848484818110611ad457611ad4614fa2565b9050606002016128d7565b600101611a9e565b5050505050565b600154604051633a2d43e160e21b8152600481018590526000916402540be4009183916001600160a01b03169063e8b50f849060240160206040518083038186803b158015611b3c57600080fd5b505afa158015611b50573d6000803e3d6000fd5b505050506040513d601f19601f82011682018060405250810190611b749190614926565b60008054604051639cb87f2360e01b8152600481018a9052602481018390529293509091620100009091046001600160a01b031690639cb87f239060440160206040518083038186803b158015611bca57600080fd5b505afa158015611bde573d6000803e3d6000fd5b505050506040513d601f19601f82011682018060405250810190611c029190614926565b60008054604051639cb87f2360e01b8152600481018b9052600160248201529293509091620100009091046001600160a01b031690639cb87f239060440160206040518083038186803b158015611c5857600080fd5b505afa158015611c6c573d6000803e3d6000fd5b505050506040513d601f19601f82011682018060405250810190611c909190614926565b905081611ca4576000945050505050611e12565b600087611cd057611cb58284614def565b611cc183612710614ece565b611ccb9190614e35565b611cf0565b611cda8284614def565b611ce684612710614ece565b611cf09190614e35565b9050600088611d335787611d048486614def565b611d0e9190614def565b611d188985614def565b611d2490612710614ece565b611d2e9190614e35565b611d68565b87611d3e8486614def565b611d489190614def565b611d528986614def565b611d5e90612710614ece565b611d689190614e35565b90506000611d89611d7b84612710614f2c565b6127106402540be40061295f565b611d98611d7b84612710614f2c565b611daa856127106402540be40061295f565b611dbc856127106402540be40061295f565b611dc69190614eed565b611dd09190614dae565b611dda9190614eed565b905086611de78288614e49565b611df19190614e07565b975086611dfe8288614e49565b611e089190614e07565b9750505050505050505b9392505050565b6000818152600660205260408082208054600182015484549351639cb87f2360e01b8152600481018790526024810186905291949093909182916201000090046001600160a01b031690639cb87f239060440160206040518083038186803b158015611e8457600080fd5b505afa158015611e98573d6000803e3d6000fd5b505050506040513d601f19601f82011682018060405250810190611ebc9190614926565b60008054604051639cb87f2360e01b8152600481018a9052600160248201529293509091620100009091046001600160a01b031690639cb87f239060440160206040518083038186803b158015611f1257600080fd5b505afa158015611f26573d6000803e3d6000fd5b505050506040513d601f19601f82011682018060405250810190611f4a9190614926565b9050811561203457611f5d8783836122c8565b92506000611f6e8860018585610fc2565b90506000611f7c8286614ece565b611f8c6402540be4006064614ece565b611f969190614f2c565b611fa08387614ece565b611faf906402540be400614ece565b611fb99190614e35565b905060006402540be40080600560008d815260200190815260200160002060020154896002015443611feb9190614f2c565b611ffa6402540be40087614ece565b6120049190614ece565b61200e9190614ece565b6120189190614e35565b6120229190614e35565b905061202e818a614def565b98505050505b801561210f5760006120498860008585610fc2565b905060006120578286614ece565b6120676402540be4006064614ece565b6120719190614f2c565b61207b8387614ece565b61208a906402540be400614ece565b6120949190614e35565b905060006402540be40080600560008d8152602001908152602001600020600201548960020154436120c69190614f2c565b6120d56402540be40087614ece565b6120df9190614ece565b6120e99190614ece565b6120f39190614e35565b6120fd9190614e35565b90506121098189614def565b97505050505b50505050915091565b6002546001600160a01b031633146121425760405162461bcd60e51b815260040161087790614d0f565b63017d78408111156121815760405162461bcd60e51b81526020600482015260086024820152670a89e9ebe90928e960c31b6044820152606401610877565b61218a826127ef565b60008281526005602090815260409182902060020183905581518481529081018390527f048ce436ab4f2632f2aac62af26be3383ebdf5efc9a63f0bbeb6d6c9762d708991015b60405180910390a15050565b600060029054906101000a90046001600160a01b03166001600160a01b03166312d43a516040518163ffffffff1660e01b815260040160206040518083038186803b15801561222b57600080fd5b505afa15801561223f573d6000803e3d6000fd5b505050506040513d601f19601f820116820180604052508101906122639190614572565b6001600160a01b0316336001600160a01b0316146122935760405162461bcd60e51b815260040161087790614d35565b60048190556040518181527fb7e4406c7dbd1b93965e7b215a33b02672c462728044a364e16b2b47d321aee0906020016114db565b60015460405163232683a960e21b81526004810185905260009182916001600160a01b0390911690638c9a0ea49060240160206040518083038186803b15801561231157600080fd5b505afa158015612325573d6000803e3d6000fd5b505050506040513d601f19601f820116820180604052508101906123499190614926565b6402540be4006123598587614def565b6123639190614ece565b61236d9190614e35565b600154604051635970d96b60e11b8152600481018890529192506000916001600160a01b039091169063b2e1b2d69060240160206040518083038186803b1580156123b757600080fd5b505afa1580156123cb573d6000803e3d6000fd5b505050506040513d601f19601f820116820180604052508101906123ef9190614926565b6402540be4006123ff8688614def565b6124099190614ece565b6124139190614e35565b90506064612422826019614ece565b61242d84604b614ece565b6124379190614def565b6107979190614e35565b6002546001600160a01b0316331461246b5760405162461bcd60e51b815260040161087790614d0f565b82811461247757600080fd5b60008581526008602090815260408083208690556009909152902061249d9085856143fb565b506000858152600a602052604090206124b79083836143fb565b50600085815260086020526040908190205490517f7441144ceb286becc54eb23d4ba7d881ec8f99733a2ef397bcefc8a89bb5bd7891610b75918790879087908790614d57565b600060029054906101000a90046001600160a01b03166001600160a01b03166312d43a516040518163ffffffff1660e01b815260040160206040518083038186803b15801561254c57600080fd5b505afa158015612560573d6000803e3d6000fd5b505050506040513d601f19601f820116820180604052508101906125849190614572565b6001600160a01b0316336001600160a01b0316146125b45760405162461bcd60e51b815260040161087790614d35565b6001600160a01b0381166125f65760405162461bcd60e51b81526020600482015260096024820152682d22a927afa0a2222960b91b6044820152606401610877565b600280546001600160a01b0319166001600160a01b0383169081179091556040519081527f2c1c11af44aa5608f1dca38c00275c30ea091e02417d36e70e9a1538689c433d906020016114db565b6002546001600160a01b0316331461266e5760405162461bcd60e51b815260040161087790614d0f565b61267882826128d7565b5050565b6003546001600160a01b031633146126c45760405162461bcd60e51b815260206004820152600b60248201526a4b45455045525f4f4e4c5960a81b6044820152606401610877565b610fbd838383612852565b600154604051630bf919a560e31b81526004810185905260009182916001600160a01b0390911690635fc8cd289060240160206040518083038186803b15801561271857600080fd5b505afa15801561272c573d6000803e3d6000fd5b505050506040513d601f19601f820116820180604052508101906127509190614926565b905060008461277057600086815260056020526040902060010154612780565b6000868152600560205260409020545b90506402540be4006127ac816127968786614ece565b6127a09190614e35565b836402540be40061295f565b6107979190614eed565b60006402540be4006127c884846128b2565b6127d28787614f2c565b6127dc9190614ece565b6127e69190614e35565b95945050505050565b600081815260066020526040902061280682611e19565b600183018190558183554360028401556040805185815260208101939093528201527fda1d5f1f1aab631c047218e2f5f973b6c12729f4181103a91459dda3d1603c38906060016121d1565b6000838152600560209081526040918290208481556001810184905582518681529182018590529181018390527f1daeaff85d4d7cfda495ef83720a04b81df77e38711ca570061e16efa6ffa2759060600160405180910390a150505050565b60006402540be4006128c48385614ece565b6128ce9190614e35565b90505b92915050565b6128e0826127ef565b6000828152600560205260409020819061291182828135815560208201356001820155604082013560028201555050565b5050604080518381528235602080830191909152830135818301529082013560608201527fa25aa2e7710f36dc1fc81eae36e26c3554faca8ba5af724112efee783e2f75ee906080016121d1565b60008061296b856129c1565b90506000612978856129c1565b905060006129868383612a2a565b9050600061299382612ce2565b905060006129a9826129a4896129c1565b612d09565b90506129b481612f64565b9998505050505050505050565b6000816129d057506000919050565b8160006129dc8261300b565b905060708110156129f5578060700382901b9150612a08565b6070811115612a08576070810382901c91505b613fff0160701b6001600160701b03919091161760801b92915050565b919050565b6000617fff60f084811c8216919084901c811690821415612a705780617fff1415612a5f575061ffff60ef1b91506128d19050565b505050600160ff1b811682186128d1565b80617fff1415612ab4576dffffffffffffffffffffffffffff60801b841615612aa3575061ffff60ef1b91506128d19050565b505050808218600160ff1b166128d1565b600160801b600160ff1b038416612afe57600160801b600160ff1b038516612ae6575061ffff60ef1b91506128d19050565b505050808218600160ff1b16617fff60f01b176128d1565b6001600160701b03608085901c1681612b1a5760019150612b21565b600160701b175b6001600160701b03608087901c1683612b60578015612b5b576000612b458261300b565b6001955060e20393840160711901939190911b90505b612b6a565b600160701b1760721b5b818181612b7957612b79614f8c565b04905080612ba657600160ff1b87871816612b95576000612b9b565b600160ff1b5b9450505050506128d1565b6001606c1b811015612bba57612bba614f60565b6000600160731b821015612bf957600160721b821015612bee57600160711b821015612be7576070612bf1565b6071612bf1565b60725b60ff16612c02565b612c028261300b565b905083614071018186011115612c2057617fff945060009150612cb3565b83818601613ffc011015612c3b576000945060009150612cb3565b83818601613f8c011015612c88578385613ffc011115612c66578385613ffc010382901b9150612c7f565b8385613ffc011015612c7f57613ffc8585030382901c91505b60009450612cb3565b6070811115612c9b576070810382901c91505b6001600160701b038216915083818601613f8d010394505b81607086901b888a186001607f1b60801b1660801c6001600160801b0316171760801b955050505050506128d1565b60006128d1612d04836f1fffb8aa3b295c17f0bbbe87fed0691d60811b612d09565b6130a9565b6000617fff60f084811c8216919084901c811690821415612da85780617fff1415612d87576001600160801b03198581169085161415612d5457505050600160ff1b811682186128d1565b600160ff1b6001600160801b0319868618161415612d77575050508181176128d1565b5061ffff60ef1b91506128d19050565b600160801b600160ff1b038416612a5f575061ffff60ef1b91506128d19050565b80617fff1415612de457600160801b600160ff1b038516612dd3575061ffff60ef1b91506128d19050565b505050600160ff1b821681186128d1565b6001600160701b03608086901c1682612e005760019250612e07565b600160701b175b6001600160701b03608086901c1682612e235760019250612e2a565b600160701b175b9081029081612e4757600160ff1b87871816612b95576000612b9b565b928201926000600160e11b831015612e7a57600160e01b831015612e7357612e6e8361300b565b612e7d565b60e0612e7d565b60e15b90506140708186011015612e98576000945060009250612f35565b6140e08186011015612edb57614070851015612ebd57846140700383901c9250612ed2565b614070851115612ed257614070850383901b92505b60009450612f35565b61c0dd8186011115612ef557617fff945060009250612f35565b6070811115612f0c576070810383901c9250612f1f565b6070811015612f1f578060700383901b92505b6001600160701b03831692506140df8186010394505b82607086901b888a186001607f1b60801b1660801c6001600160801b0316171760801b955050505050506128d1565b6000617fff60f083901c166140fe811115612f7e57600080fd5b613fff811015612f915750600092915050565b600160701b6001600160701b03608085901c161761406f821015612fbb5761406f8290031c612fcd565b61406f821115612fcd5761406e1982011b5b6001607f1b608085901c10612ff757600160ff1b811115612fed57600080fd5b6000039392505050565b6001600160ff1b03811115611e1257600080fd5b600080821161301957600080fd5b6000600160801b831061302e57608092831c92015b600160401b831061304157604092831c92015b640100000000831061305557602092831c92015b62010000831061306757601092831c92015b610100831061307857600892831c92015b6010831061308857600492831c92015b6004831061309857600292831c92015b600283106128d15760010192915050565b60006001607f1b608083901c90811190617fff60f085901c8116916001600160701b031690821480156130db57508015155b156130ef575061ffff60ef1b949350505050565b61400d821115613114578261310957617fff60f01b6127e6565b600095945050505050565b613f7f82101561312d5750613fff60f01b949350505050565b8161313b5760019150613142565b600160701b175b613fef82111561315857613fee1982011b61316a565b613fef82101561316a57613fef8290031c5b82801561317b575061203760811b81115b1561318b57506000949350505050565b821580156131aa5750713fffffffffffffffffffffffffffffffffff81115b156131be5750617fff60f01b949350505050565b6001600160801b0381169060801c8380156131d857508115155b156131e4579019906001015b6001607f1b828116156132085770016a09e667f3bcc908b2fb1366ea957d3e0260801c5b6001607e1b83161561322b577001306fe0a31b7152de8d5a46305c85edec0260801c5b6001607d1b83161561324e577001172b83c7d517adcdf7c8c50eb14a791f0260801c5b6001607c1b8316156132715770010b5586cf9890f6298b92b71842a983630260801c5b6001607b1b831615613294577001059b0d31585743ae7c548eb68ca417fd0260801c5b6001607a1b8316156132b757700102c9a3e778060ee6f7caca4f7a29bde80260801c5b600160791b8316156132da5770010163da9fb33356d84a66ae336dcdfa3f0260801c5b600160781b8316156132fd57700100b1afa5abcbed6129ab13ec11dc95430260801c5b600160771b8316156133205770010058c86da1c09ea1ff19d294cf2f679b0260801c5b600160761b831615613343577001002c605e2e8cec506d21bfc89a23a00f0260801c5b600160751b83161561336657700100162f3904051fa128bca9c55c31e5df0260801c5b600160741b831615613389577001000b175effdc76ba38e31671ca9397250260801c5b600160731b8316156133ac57700100058ba01fb9f96d6cacd4b180917c3d0260801c5b600160721b8316156133cf5770010002c5cc37da9491d0985c348c68e7b30260801c5b600160711b8316156133f2577001000162e525ee054754457d59952920260260801c5b600160701b8316156134155770010000b17255775c040618bf4a4ade83fc0260801c5b6001606f1b831615613438577001000058b91b5bc9ae2eed81e9b7d4cfab0260801c5b6001606e1b83161561345b57700100002c5c89d5ec6ca4d7c8acc017b7c90260801c5b6001606d1b83161561347e5770010000162e43f4f831060e02d839a9d16d0260801c5b6001606c1b8316156134a157700100000b1721bcfc99d9f890ea069117630260801c5b6001606b1b8316156134c45770010000058b90cf1e6d97f9ca14dbcc16280260801c5b6001606a1b8316156134e7577001000002c5c863b73f016468f6bac5ca2b0260801c5b600160691b83161561350a57700100000162e430e5a18f6119e3c02282a50260801c5b600160681b83161561352d577001000000b1721835514b86e6d96efd1bfe0260801c5b600160671b83161561355057700100000058b90c0b48c6be5df846c5b2ef0260801c5b600160661b8316156135735770010000002c5c8601cc6b9e94213c72737a0260801c5b600160651b831615613596577001000000162e42fff037df38aa2b219f060260801c5b600160641b8316156135b95770010000000b17217fba9c739aa5819f44f90260801c5b600160631b8316156135dc577001000000058b90bfcdee5acd3c1cedc8230260801c5b600160621b8316156135ff57700100000002c5c85fe31f35a6a30da1be500260801c5b600160611b8316156136225770010000000162e42ff0999ce3541b9fffcf0260801c5b600160601b83161561364557700100000000b17217f80f4ef5aadda455540260801c5b6001605f1b8316156136685770010000000058b90bfbf8479bd5a81b51ad0260801c5b6001605e1b83161561368b577001000000002c5c85fdf84bd62ae30a74cc0260801c5b6001605d1b8316156136ae57700100000000162e42fefb2fed257559bdaa0260801c5b6001605c1b8316156136d1577001000000000b17217f7d5a7716bba4a9ae0260801c5b6001605b1b8316156136f457700100000000058b90bfbe9ddbac5e109cce0260801c5b6001605a1b8316156137175770010000000002c5c85fdf4b15de6f17eb0d0260801c5b600160591b83161561373a577001000000000162e42fefa494f1478fde050260801c5b600160581b83161561375d5770010000000000b17217f7d20cf927c8e94c0260801c5b600160571b831615613780577001000000000058b90bfbe8f71cb4e4b33d0260801c5b600160561b8316156137a357700100000000002c5c85fdf477b662b269450260801c5b600160551b8316156137c65770010000000000162e42fefa3ae53369388c0260801c5b600160541b8316156137e957700100000000000b17217f7d1d351a389d400260801c5b600160531b83161561380c5770010000000000058b90bfbe8e8b2d3d4ede0260801c5b600160521b83161561382f577001000000000002c5c85fdf4741bea6e77e0260801c5b600160511b83161561385257700100000000000162e42fefa39fe95583c20260801c5b600160501b831615613875577001000000000000b17217f7d1cfb72b45e10260801c5b698000000000000000000083161561389e57700100000000000058b90bfbe8e7cc35c3f00260801c5b69400000000000000000008316156138c75770010000000000002c5c85fdf473e242ea380260801c5b69200000000000000000008316156138f0577001000000000000162e42fefa39f02b772c0260801c5b69100000000000000000008316156139195770010000000000000b17217f7d1cf7d83c1a0260801c5b6908000000000000000000831615613942577001000000000000058b90bfbe8e7bdcbe2e0260801c5b690400000000000000000083161561396b57700100000000000002c5c85fdf473dea871f0260801c5b69020000000000000000008316156139945770010000000000000162e42fefa39ef44d910260801c5b69010000000000000000008316156139bd57700100000000000000b17217f7d1cf79e9490260801c5b688000000000000000008316156139e55770010000000000000058b90bfbe8e7bce5440260801c5b68400000000000000000831615613a0d577001000000000000002c5c85fdf473de6eca0260801c5b68200000000000000000831615613a3557700100000000000000162e42fefa39ef366f0260801c5b68100000000000000000831615613a5d577001000000000000000b17217f7d1cf79afa0260801c5b68080000000000000000831615613a8557700100000000000000058b90bfbe8e7bcd6d0260801c5b68040000000000000000831615613aad5770010000000000000002c5c85fdf473de6b20260801c5b68020000000000000000831615613ad5577001000000000000000162e42fefa39ef3580260801c5b600160401b831615613af85770010000000000000000b17217f7d1cf79ab0260801c5b678000000000000000831615613b1f577001000000000000000058b90bfbe8e7bcd50260801c5b674000000000000000831615613b4657700100000000000000002c5c85fdf473de6a0260801c5b672000000000000000831615613b6d5770010000000000000000162e42fefa39ef340260801c5b671000000000000000831615613b9457700100000000000000000b17217f7d1cf7990260801c5b670800000000000000831615613bbb5770010000000000000000058b90bfbe8e7bcc0260801c5b670400000000000000831615613be2577001000000000000000002c5c85fdf473de50260801c5b670200000000000000831615613c0957700100000000000000000162e42fefa39ef20260801c5b670100000000000000831615613c30577001000000000000000000b17217f7d1cf780260801c5b6680000000000000831615613c5657700100000000000000000058b90bfbe8e7bb0260801c5b6640000000000000831615613c7c5770010000000000000000002c5c85fdf473dd0260801c5b6620000000000000831615613ca2577001000000000000000000162e42fefa39ee0260801c5b6610000000000000831615613cc85770010000000000000000000b17217f7d1cf60260801c5b6608000000000000831615613cee577001000000000000000000058b90bfbe8e7a0260801c5b6604000000000000831615613d1457700100000000000000000002c5c85fdf473c0260801c5b6602000000000000831615613d3a5770010000000000000000000162e42fefa39d0260801c5b6601000000000000831615613d6057700100000000000000000000b17217f7d1ce0260801c5b65800000000000831615613d855770010000000000000000000058b90bfbe8e60260801c5b65400000000000831615613daa577001000000000000000000002c5c85fdf4720260801c5b65200000000000831615613dcf57700100000000000000000000162e42fefa380260801c5b65100000000000831615613df4577001000000000000000000000b17217f7d1b0260801c5b65080000000000831615613e1957700100000000000000000000058b90bfbe8d0260801c5b65040000000000831615613e3e5770010000000000000000000002c5c85fdf460260801c5b65020000000000831615613e63577001000000000000000000000162e42fefa20260801c5b65010000000000831615613e885770010000000000000000000000b17217f7d00260801c5b648000000000831615613eac577001000000000000000000000058b90bfbe70260801c5b644000000000831615613ed057700100000000000000000000002c5c85fdf30260801c5b642000000000831615613ef45770010000000000000000000000162e42fef90260801c5b641000000000831615613f1857700100000000000000000000000b17217f7c0260801c5b640800000000831615613f3c5770010000000000000000000000058b90bfbd0260801c5b640400000000831615613f60577001000000000000000000000002c5c85fde0260801c5b640200000000831615613f8457700100000000000000000000000162e42fee0260801c5b640100000000831615613fa8577001000000000000000000000000b17217f60260801c5b6380000000831615613fcb57700100000000000000000000000058b90bfa0260801c5b6340000000831615613fee5770010000000000000000000000002c5c85fc0260801c5b6320000000831615614011577001000000000000000000000000162e42fd0260801c5b63100000008316156140345770010000000000000000000000000b17217e0260801c5b6308000000831615614057577001000000000000000000000000058b90be0260801c5b630400000083161561407a57700100000000000000000000000002c5c85e0260801c5b630200000083161561409d5770010000000000000000000000000162e42e0260801c5b63010000008316156140c057700100000000000000000000000000b172160260801c5b628000008316156140e25770010000000000000000000000000058b90a0260801c5b62400000831615614104577001000000000000000000000000002c5c840260801c5b6220000083161561412657700100000000000000000000000000162e410260801c5b62100000831615614148577001000000000000000000000000000b17200260801c5b6208000083161561416a57700100000000000000000000000000058b8f0260801c5b6204000083161561418c5770010000000000000000000000000002c5c70260801c5b620200008316156141ae577001000000000000000000000000000162e30260801c5b620100008316156141d05770010000000000000000000000000000b1710260801c5b6180008316156141f1577001000000000000000000000000000058b80260801c5b61400083161561421257700100000000000000000000000000002c5b0260801c5b6120008316156142335770010000000000000000000000000000162d0260801c5b61100083161561425457700100000000000000000000000000000b160260801c5b6108008316156142755770010000000000000000000000000000058a0260801c5b610400831615614296577001000000000000000000000000000002c40260801c5b6102008316156142b7577001000000000000000000000000000001610260801c5b6101008316156142d8577001000000000000000000000000000000b00260801c5b60808316156142f8577001000000000000000000000000000000570260801c5b60408316156143185770010000000000000000000000000000002b0260801c5b6020831615614338577001000000000000000000000000000000150260801c5b60108316156143585770010000000000000000000000000000000a0260801c5b6008831615614378577001000000000000000000000000000000040260801c5b6004831615614398577001000000000000000000000000000000010260801c5b846143b957600f81901c6001600160701b03169050613fff820191506143e8565b613ffe82116143de57600f81901c6001600160701b0316905081613fff0391506143e8565b600091613fee19011c5b60709190911b1760801b95945050505050565b828054828255906000526020600020908101928215614436579160200282015b8281111561443657823582559160200191906001019061441b565b50614442929150614446565b5090565b5b808211156144425760008155600101614447565b8035612a2581614fce565b60008083601f84011261447857600080fd5b50813567ffffffffffffffff81111561449057600080fd5b6020830191508360208260051b8501011115610d5757600080fd5b8035612a2581614fe6565b600061016082840312156144c957600080fd5b6144d1614d84565b90506144dc8261445b565b81526020820135602082015260408201356040820152606082013560608201526080820135608082015260a082013560a082015261451c60c083016144ab565b60c082015260e082013560e082015261010080830135818301525061012080830135818301525061014080830135818301525092915050565b60006020828403121561456757600080fd5b8135611e1281614fce565b60006020828403121561458457600080fd5b8151611e1281614fce565b600080604083850312156145a257600080fd5b82356145ad81614fce565b915060208301356145bd81614fce565b809150509250929050565b6000806000606084860312156145dd57600080fd5b83356145e881614fce565b95602085013595506040909401359392505050565b6000806000806080858703121561461357600080fd5b843561461e81614fce565b93506020850135925060408501359150606085013561463c81614fe6565b939692955090935050565b60008060008060008060c0878903121561466057600080fd5b863561466b81614fce565b95506020870135945060408701359350606087013561468981614fe6565b9598949750929560808101359460a0909101359350915050565b600080600080600080600060e0888a0312156146be57600080fd5b87356146c981614fce565b965060208801359550604088013594506060880135935060808801356146ee81614fe6565b9699959850939692959460a0840135945060c09093013592915050565b60006040828403121561471d57600080fd5b82601f83011261472c57600080fd5b6040516040810181811067ffffffffffffffff8211171561474f5761474f614fb8565b806040525080838560408601111561476657600080fd5b60005b6002811015614788578151835260209283019290910190600101614769565b509195945050505050565b600080602083850312156147a657600080fd5b823567ffffffffffffffff8111156147bd57600080fd5b6147c985828601614466565b90969095509350505050565b600080600080604085870312156147eb57600080fd5b843567ffffffffffffffff8082111561480357600080fd5b61480f88838901614466565b9096509450602087013591508082111561482857600080fd5b818701915087601f83011261483c57600080fd5b81358181111561484b57600080fd5b88602060608302850101111561486057600080fd5b95989497505060200194505050565b6000806000806000806060878903121561488857600080fd5b863567ffffffffffffffff808211156148a057600080fd5b6148ac8a838b01614466565b909850965060208901359150808211156148c557600080fd5b6148d18a838b01614466565b909650945060408901359150808211156148ea57600080fd5b506148f789828a01614466565b979a9699509497509295939492505050565b60006020828403121561491b57600080fd5b8151611e1281614fe6565b60006020828403121561493857600080fd5b5051919050565b6000610160828403121561495257600080fd5b6128ce83836144b6565b60008060008060006101e0868803121561497557600080fd5b61497f87876144b6565b976101608701359750610180870135966101a081013596506101c00135945092505050565b6000602082840312156149b657600080fd5b5035919050565b6000806000806000606086880312156149d557600080fd5b85359450602086013567ffffffffffffffff808211156149f457600080fd5b614a0089838a01614466565b90965094506040880135915080821115614a1957600080fd5b50614a2688828901614466565b969995985093965092949392505050565b600080600060608486031215614a4c57600080fd5b833592506020840135614a5e81614fe6565b929592945050506040919091013590565b60008060008060808587031215614a8557600080fd5b843593506020850135614a9781614fe6565b93969395505050506040820135916060013590565b600080600080600060a08688031215614ac457600080fd5b853594506020860135614ad681614fe6565b94979496505050506040830135926060810135926080909101359150565b600080600080600060a08688031215614b0c57600080fd5b505083359560208501359550604085013594606081013594506080013592509050565b6000808284036080811215614b4357600080fd5b833592506060601f1982011215614b5957600080fd5b506020830190509250929050565b60008060408385031215614b7a57600080fd5b50508035926020909101359150565b60008060008060808587031215614b9f57600080fd5b84359350602085013592506040850135614bb881614fe6565b9396929550929360600135925050565b600080600060608486031215614bdd57600080fd5b505081359360208301359350604090920135919050565b60008060008060808587031215614c0a57600080fd5b5050823594602084013594506040840135936060013592509050565b81835260006001600160fb1b03831115614c3f57600080fd5b8260051b8083602087013760009401602001938452509192915050565b60408082528351908201819052600090606090818401906020808801855b83811015614cb157614ca18583518051825260208082015190830152604090810151910152565b9385019390820190600101614c7a565b5050858303818701528651808452878201938201925060005b81811015614d0157614cf18486518051825260208082015190830152604090810151910152565b9382019392850192600101614cca565b509198975050505050505050565b6020808252600c908201526b4d414e414745525f4f4e4c5960a01b604082015260600190565b602080825260089082015267474f565f4f4e4c5960c01b604082015260600190565b858152606060208201526000614d71606083018688614c26565b828103604084015261138d818587614c26565b604051610160810167ffffffffffffffff81118282101715614da857614da8614fb8565b60405290565b600080821280156001600160ff1b0384900385131615614dd057614dd0614f76565b600160ff1b8390038412811615614de957614de9614f76565b50500190565b60008219821115614e0257614e02614f76565b500190565b600082614e1657614e16614f8c565b600160ff1b821460001984141615614e3057614e30614f76565b500590565b600082614e4457614e44614f8c565b500490565b60006001600160ff1b0381841382841380821686840486111615614e6f57614e6f614f76565b600160ff1b6000871282811687830589121615614e8e57614e8e614f76565b60008712925087820587128484161615614eaa57614eaa614f76565b87850587128184161615614ec057614ec0614f76565b505050929093029392505050565b6000816000190483118215151615614ee857614ee8614f76565b500290565b60008083128015600160ff1b850184121615614f0b57614f0b614f76565b6001600160ff1b0384018313811615614f2657614f26614f76565b50500390565b600082821015614f3e57614f3e614f76565b500390565b6000600160ff1b821415614f5957614f59614f76565b5060000390565b634e487b7160e01b600052600160045260246000fd5b634e487b7160e01b600052601160045260246000fd5b634e487b7160e01b600052601260045260246000fd5b634e487b7160e01b600052603260045260246000fd5b634e487b7160e01b600052604160045260246000fd5b6001600160a01b0381168114614fe357600080fd5b50565b8015158114614fe357600080fdfea26469706673582212207f565e1f2227e95475736106d6de7020790f76a538a7d0a525641aa58b5d694f64736f6c63430008070033","linkReferences":{}},"methodIdentifiers":{"getAccRolloverFeesLong(uint256)":"7d827137","getAccRolloverFeesShort(uint256)":"726219f3","getAccRolloverFeesUpdateBlock(uint256)":"0e0052fc","getBlendedSkew(uint256,bool,uint256,uint256)":"6676d850","getBlendedUtilizationRatio(uint256,uint256,uint256)":"c9533ebc","getOnePercentDepthAbove(uint256)":"cfc23e9e","getOnePercentDepthBelow(uint256)":"2b180a7d","getPairInfos(uint256[])":"0ea77770","getPendingAccRolloverFees(uint256)":"ab21a05c","getPriceImpactSpread(uint256,bool,uint256)":"fcfe7378","getRolloverFeePerBlockP(uint256)":"338139ad","getSkewImpactSpread(uint256,bool,uint256)":"890801de","getTradeInitialAccRolloverFeesPerCollateral(address,uint256,uint256)":"fe3cfd8c","getTradeLiquidationPrice(address,uint256,uint256,uint256,bool,uint256,uint256)":"6bc84d59","getTradeLiquidationPricePure(uint256,bool,uint256,uint256,uint256)":"7d36dda8","getTradePriceImpact(uint256,uint256,bool,uint256)":"7ea95f32","getTradeRolloverFee(address,uint256,uint256,bool,uint256,uint256)":"05098272","getTradeRolloverFeePure(uint256,uint256,uint256,uint256)":"fdd3265f","getTradeValue((address,uint256,uint256,uint256,uint256,uint256,bool,uint256,uint256,uint256,uint256),uint256,int256,uint256,uint256)":"0b224e87","getTradeValuePure(uint256,int256,uint256,uint256,uint256)":"75923b9d","initialize(address,address)":"485cc955","keeper()":"aced1661","liqThreshold()":"ae2293d7","longSkewConfig(uint256,uint256)":"6a3ca5fd","lossProtectionNumTiers(uint256)":"1f4934a1","lossProtectionTier((address,uint256,uint256,uint256,uint256,uint256,bool,uint256,uint256,uint256,uint256))":"82d317b2","manager()":"481c6a75","pairParams(uint256)":"42dee1ad","pairRolloverFees(uint256)":"bf1db1f6","pairsStorage()":"35b03c17","setKeeper(address)":"748747e6","setLossProtectionConfig(uint256,uint256[],uint256[])":"cf2befd2","setManager(address)":"d0ebdbe7","setOnePercentDepth(uint256,uint256,uint256)":"f6960654","setOnePercentDepthArray(uint256[],uint256[],uint256[])":"351533e7","setPairParams(uint256,(uint256,uint256,uint256))":"eb95e10c","setPairParamsArray(uint256[],(uint256,uint256,uint256)[])":"867a60c2","setRolloverFeePerBlockP(uint256,uint256)":"b74243ba","shortSkewConfig(uint256,uint256)":"183566d4","storageT()":"16fff074","storeTradeInitialAccFees(address,uint256,uint256,bool)":"0e6bc39a","tradeInitialAccFees(address,uint256,uint256)":"5ed5804e","udpateLiquidationThreshold(uint256)":"c21fbef8"},"id":103}