{"abi":[{"type":"constructor","inputs":[{"name":"_storage","type":"address","internalType":"address"},{"name":"_pairInfos","type":"address","internalType":"address"},{"name":"_pairsStorage","type":"address","internalType":"address"},{"name":"_trading","type":"address","internalType":"address"}],"stateMutability":"nonpayable"},{"type":"function","name":"aggregate","inputs":[{"name":"calls","type":"tuple[]","internalType":"struct Multicall3.Call[]","components":[{"name":"target","type":"address","internalType":"address"},{"name":"callData","type":"bytes","internalType":"bytes"}]}],"outputs":[{"name":"blockNumber","type":"uint256","internalType":"uint256"},{"name":"returnData","type":"bytes[]","internalType":"bytes[]"}],"stateMutability":"payable"},{"type":"function","name":"aggregate3","inputs":[{"name":"calls","type":"tuple[]","internalType":"struct Multicall3.Call3[]","components":[{"name":"target","type":"address","internalType":"address"},{"name":"allowFailure","type":"bool","internalType":"bool"},{"name":"callData","type":"bytes","internalType":"bytes"}]}],"outputs":[{"name":"returnData","type":"tuple[]","internalType":"struct Multicall3.Result[]","components":[{"name":"success","type":"bool","internalType":"bool"},{"name":"returnData","type":"bytes","internalType":"bytes"}]}],"stateMutability":"payable"},{"type":"function","name":"aggregate3Value","inputs":[{"name":"calls","type":"tuple[]","internalType":"struct Multicall3.Call3Value[]","components":[{"name":"target","type":"address","internalType":"address"},{"name":"allowFailure","type":"bool","internalType":"bool"},{"name":"value","type":"uint256","internalType":"uint256"},{"name":"callData","type":"bytes","internalType":"bytes"}]}],"outputs":[{"name":"returnData","type":"tuple[]","internalType":"struct Multicall3.Result[]","components":[{"name":"success","type":"bool","internalType":"bool"},{"name":"returnData","type":"bytes","internalType":"bytes"}]}],"stateMutability":"payable"},{"type":"function","name":"blockAndAggregate","inputs":[{"name":"calls","type":"tuple[]","internalType":"struct Multicall3.Call[]","components":[{"name":"target","type":"address","internalType":"address"},{"name":"callData","type":"bytes","internalType":"bytes"}]}],"outputs":[{"name":"blockNumber","type":"uint256","internalType":"uint256"},{"name":"blockHash","type":"bytes32","internalType":"bytes32"},{"name":"returnData","type":"tuple[]","internalType":"struct Multicall3.Result[]","components":[{"name":"success","type":"bool","internalType":"bool"},{"name":"returnData","type":"bytes","internalType":"bytes"}]}],"stateMutability":"payable"},{"type":"function","name":"getBasefee","inputs":[],"outputs":[{"name":"basefee","type":"uint256","internalType":"uint256"}],"stateMutability":"view"},{"type":"function","name":"getBlockHash","inputs":[{"name":"blockNumber","type":"uint256","internalType":"uint256"}],"outputs":[{"name":"blockHash","type":"bytes32","internalType":"bytes32"}],"stateMutability":"view"},{"type":"function","name":"getBlockNumber","inputs":[],"outputs":[{"name":"blockNumber","type":"uint256","internalType":"uint256"}],"stateMutability":"view"},{"type":"function","name":"getChainId","inputs":[],"outputs":[{"name":"chainid","type":"uint256","internalType":"uint256"}],"stateMutability":"view"},{"type":"function","name":"getCurrentBlockCoinbase","inputs":[],"outputs":[{"name":"coinbase","type":"address","internalType":"address"}],"stateMutability":"view"},{"type":"function","name":"getCurrentBlockDifficulty","inputs":[],"outputs":[{"name":"difficulty","type":"uint256","internalType":"uint256"}],"stateMutability":"view"},{"type":"function","name":"getCurrentBlockGasLimit","inputs":[],"outputs":[{"name":"gaslimit","type":"uint256","internalType":"uint256"}],"stateMutability":"view"},{"type":"function","name":"getCurrentBlockTimestamp","inputs":[],"outputs":[{"name":"timestamp","type":"uint256","internalType":"uint256"}],"stateMutability":"view"},{"type":"function","name":"getEthBalance","inputs":[{"name":"addr","type":"address","internalType":"address"}],"outputs":[{"name":"balance","type":"uint256","internalType":"uint256"}],"stateMutability":"view"},{"type":"function","name":"getFirstEmptyTradeIndexes","inputs":[{"name":"userAddress","type":"address","internalType":"address"}],"outputs":[{"name":"firstEmptyTradeIndexes","type":"uint256[]","internalType":"uint256[]"}],"stateMutability":"view"},{"type":"function","name":"getLastBlockHash","inputs":[],"outputs":[{"name":"blockHash","type":"bytes32","internalType":"bytes32"}],"stateMutability":"view"},{"type":"function","name":"getLongShortRatios","inputs":[],"outputs":[{"name":"longRatio","type":"uint256[]","internalType":"uint256[]"},{"name":"shortRatio","type":"uint256[]","internalType":"uint256[]"}],"stateMutability":"view"},{"type":"function","name":"getMargins","inputs":[],"outputs":[{"name":"rolloverFeePerBlockP","type":"uint256[]","internalType":"uint256[]"},{"name":"rolloverFeePerBlockLong","type":"uint256[]","internalType":"uint256[]"},{"name":"rolloverFeePerBlockShort","type":"uint256[]","internalType":"uint256[]"}],"stateMutability":"view"},{"type":"function","name":"getOpenLimitOrdersCounts","inputs":[{"name":"userAddress","type":"address","internalType":"address"}],"outputs":[{"name":"openLimitOrdersCounts","type":"uint256[]","internalType":"uint256[]"}],"stateMutability":"view"},{"type":"function","name":"getPositions","inputs":[{"name":"userAddress","type":"address","internalType":"address"}],"outputs":[{"name":"","type":"tuple[]","internalType":"struct IMulticall.AggregatedTrade[]","components":[{"name":"trade","type":"tuple","internalType":"struct ITradingStorage.Trade","components":[{"name":"trader","type":"address","internalType":"address"},{"name":"pairIndex","type":"uint256","internalType":"uint256"},{"name":"index","type":"uint256","internalType":"uint256"},{"name":"initialPosToken","type":"uint256","internalType":"uint256"},{"name":"positionSizeUSDC","type":"uint256","internalType":"uint256"},{"name":"openPrice","type":"uint256","internalType":"uint256"},{"name":"buy","type":"bool","internalType":"bool"},{"name":"leverage","type":"uint256","internalType":"uint256"},{"name":"tp","type":"uint256","internalType":"uint256"},{"name":"sl","type":"uint256","internalType":"uint256"},{"name":"timestamp","type":"uint256","internalType":"uint256"}]},{"name":"tradeInfo","type":"tuple","internalType":"struct ITradingStorage.TradeInfo","components":[{"name":"openInterestUSDC","type":"uint256","internalType":"uint256"},{"name":"tpLastUpdated","type":"uint256","internalType":"uint256"},{"name":"slLastUpdated","type":"uint256","internalType":"uint256"},{"name":"beingMarketClosed","type":"bool","internalType":"bool"},{"name":"lossProtection","type":"uint256","internalType":"uint256"}]},{"name":"rolloverFee","type":"uint256","internalType":"uint256"},{"name":"liquidationPrice","type":"uint256","internalType":"uint256"}]},{"name":"","type":"tuple[]","internalType":"struct IMulticall.AggregatedOrder[]","components":[{"name":"order","type":"tuple","internalType":"struct ITradingStorage.OpenLimitOrder","components":[{"name":"trader","type":"address","internalType":"address"},{"name":"pairIndex","type":"uint256","internalType":"uint256"},{"name":"index","type":"uint256","internalType":"uint256"},{"name":"positionSize","type":"uint256","internalType":"uint256"},{"name":"buy","type":"bool","internalType":"bool"},{"name":"leverage","type":"uint256","internalType":"uint256"},{"name":"tp","type":"uint256","internalType":"uint256"},{"name":"sl","type":"uint256","internalType":"uint256"},{"name":"price","type":"uint256","internalType":"uint256"},{"name":"slippageP","type":"uint256","internalType":"uint256"},{"name":"block","type":"uint256","internalType":"uint256"},{"name":"executionFee","type":"uint256","internalType":"uint256"}]},{"name":"liquidationPrice","type":"uint256","internalType":"uint256"}]}],"stateMutability":"view"},{"type":"function","name":"tryAggregate","inputs":[{"name":"requireSuccess","type":"bool","internalType":"bool"},{"name":"calls","type":"tuple[]","internalType":"struct Multicall3.Call[]","components":[{"name":"target","type":"address","internalType":"address"},{"name":"callData","type":"bytes","internalType":"bytes"}]}],"outputs":[{"name":"returnData","type":"tuple[]","internalType":"struct Multicall3.Result[]","components":[{"name":"success","type":"bool","internalType":"bool"},{"name":"returnData","type":"bytes","internalType":"bytes"}]}],"stateMutability":"payable"},{"type":"function","name":"tryBlockAndAggregate","inputs":[{"name":"requireSuccess","type":"bool","internalType":"bool"},{"name":"calls","type":"tuple[]","internalType":"struct Multicall3.Call[]","components":[{"name":"target","type":"address","internalType":"address"},{"name":"callData","type":"bytes","internalType":"bytes"}]}],"outputs":[{"name":"blockNumber","type":"uint256","internalType":"uint256"},{"name":"blockHash","type":"bytes32","internalType":"bytes32"},{"name":"returnData","type":"tuple[]","internalType":"struct Multicall3.Result[]","components":[{"name":"success","type":"bool","internalType":"bool"},{"name":"returnData","type":"bytes","internalType":"bytes"}]}],"stateMutability":"payable"},{"type":"function","name":"updateContracts","inputs":[{"name":"_storage","type":"address","internalType":"address"},{"name":"_pairInfos","type":"address","internalType":"address"},{"name":"_pairsStorage","type":"address","internalType":"address"},{"name":"_trading","type":"address","internalType":"address"}],"outputs":[],"stateMutability":"nonpayable"}],"bytecode":{"object":"0x60806040523480156200001157600080fd5b5060405162002abb38038062002abb8339810160408190526200003491620000a5565b600080546001600160a01b039586166001600160a01b031991821617909155600180549486169482169490941790935560028054928516928416929092179091556003805491909316911617905562000102565b80516001600160a01b0381168114620000a057600080fd5b919050565b60008060008060808587031215620000bc57600080fd5b620000c78562000088565b9350620000d76020860162000088565b9250620000e76040860162000088565b9150620000f76060860162000088565b905092959194509250565b6129a980620001126000396000f3fe6080604052600436106101355760003560e01c8063582b175f116100ab578063977ca6041161006f578063977ca60414610308578063a8b0574e14610335578063bce38bd714610350578063c3077fa914610363578063ed4a96a914610376578063ee82ac5e1461039657600080fd5b8063582b175f1461028857806372425d9d146102ab57806382ad56cb146102be5780638693da43146102d157806386d516e8146102f557600080fd5b80633408e470116100fd5780633408e470146101d7578063399542e9146101ea5780633e64a6961461020c5780633eeb530e1461021f57806342cbb15c1461024d5780634d2301cc1461026057600080fd5b80630b7512791461013a5780630f28c97d1461015c578063174dea711461017e578063252dba421461019e57806327e86d6e146101bf575b600080fd5b34801561014657600080fd5b5061015a61015536600461207c565b6103b5565b005b34801561016857600080fd5b50425b6040519081526020015b60405180910390f35b61019161018c3660046120d8565b6104d9565b604051610175919061267e565b6101b16101ac3660046120d8565b6106c1565b604051610175929190612715565b3480156101cb57600080fd5b5043600019014061016b565b3480156101e357600080fd5b504661016b565b6101fd6101f8366004612119565b610834565b6040516101759392919061277f565b34801561021857600080fd5b504861016b565b34801561022b57600080fd5b5061023f61023a36600461203b565b61084f565b604051610175929190612564565b34801561025957600080fd5b504361016b565b34801561026c57600080fd5b5061016b61027b36600461203b565b6001600160a01b03163190565b34801561029457600080fd5b5061029d610a48565b6040516101759291906126a4565b3480156102b757600080fd5b504461016b565b6101916102cc3660046120d8565b610cc0565b3480156102dd57600080fd5b506102e6610e41565b604051610175939291906126d2565b34801561030157600080fd5b504561016b565b34801561031457600080fd5b5061032861032336600461203b565b61147b565b6040516101759190612691565b34801561034157600080fd5b50604051418152602001610175565b61019161035e366004612119565b611610565b6101fd6103713660046120d8565b6117a2565b34801561038257600080fd5b5061032861039136600461203b565b6117c1565b3480156103a257600080fd5b5061016b6103b1366004612337565b4090565b60008054906101000a90046001600160a01b03166001600160a01b03166312d43a516040518163ffffffff1660e01b815260040160206040518083038186803b15801561040157600080fd5b505afa158015610415573d6000803e3d6000fd5b505050506040513d601f19601f82011682018060405250810190610439919061205f565b6001600160a01b0316336001600160a01b0316146104895760405162461bcd60e51b8152602060048201526008602482015267474f565f4f4e4c5960c01b60448201526064015b60405180910390fd5b600080546001600160a01b039586166001600160a01b0319918216179091556001805494861694821694909417909355600280549285169284169290921790915560038054919093169116179055565b6060600082806001600160401b038111156104f6576104f6612937565b60405190808252806020026020018201604052801561053c57816020015b6040805180820190915260008152606060208201528152602001906001900390816105145790505b5092503660005b8281101561066857600085828151811061055f5761055f612921565b6020026020010151905087878381811061057b5761057b612921565b905060200281019061058d91906127e4565b6040810135958601959093506105a6602085018561203b565b6001600160a01b0316816105bd606087018761279e565b6040516105cb929190612517565b60006040518083038185875af1925050503d8060008114610608576040519150601f19603f3d011682016040523d82523d6000602084013e61060d565b606091505b50602080850191909152901515808452908501351761065e5762461bcd60e51b6000526020600452601760245276135d5b1d1a58d85b1b0cce8818d85b1b0819985a5b1959604a1b60445260846000fd5b5050600101610543565b508234146106b85760405162461bcd60e51b815260206004820152601a60248201527f4d756c746963616c6c333a2076616c7565206d69736d617463680000000000006044820152606401610480565b50505092915050565b43606082806001600160401b038111156106dd576106dd612937565b60405190808252806020026020018201604052801561071057816020015b60608152602001906001900390816106fb5790505b5091503660005b8281101561082a57600087878381811061073357610733612921565b9050602002810190610745919061281a565b9250610754602084018461203b565b6001600160a01b031661076a602085018561279e565b604051610778929190612517565b6000604051808303816000865af19150503d80600081146107b5576040519150601f19603f3d011682016040523d82523d6000602084013e6107ba565b606091505b508684815181106107cd576107cd612921565b60209081029190910101529050806108215760405162461bcd60e51b8152602060048201526017602482015276135d5b1d1a58d85b1b0cce8818d85b1b0819985a5b1959604a1b6044820152606401610480565b50600101610717565b5050509250929050565b4380406060610844868686611610565b905093509350939050565b6060806000600260009054906101000a90046001600160a01b03166001600160a01b031663b81b2b716040518163ffffffff1660e01b815260040160206040518083038186803b1580156108a257600080fd5b505afa1580156108b6573d6000803e3d6000fd5b505050506040513d601f19601f820116820180604052508101906108da9190612350565b905060008060009054906101000a90046001600160a01b03166001600160a01b031663f65d9dbe6040518163ffffffff1660e01b815260040160206040518083038186803b15801561092b57600080fd5b505afa15801561093f573d6000803e3d6000fd5b505050506040513d601f19601f820116820180604052508101906109639190612350565b9050600061097183836128ba565b90506000816001600160401b0381111561098d5761098d612937565b6040519080825280602002602001820160405280156109c657816020015b6109b3611e8e565b8152602001906001900390816109ab5790505b5090506000826001600160401b038111156109e3576109e3612937565b604051908082528060200260200182016040528015610a1c57816020015b610a09611f4e565b815260200190600190039081610a015790505b509050610a2b8886868561194f565b9150610a3988868684611c9f565b91989197509095505050505050565b6060806000600260009054906101000a90046001600160a01b03166001600160a01b031663b81b2b716040518163ffffffff1660e01b815260040160206040518083038186803b158015610a9b57600080fd5b505afa158015610aaf573d6000803e3d6000fd5b505050506040513d601f19601f82011682018060405250810190610ad39190612350565b9050806001600160401b03811115610aed57610aed612937565b604051908082528060200260200182016040528015610b16578160200160208202803683370190505b509250806001600160401b03811115610b3157610b31612937565b604051908082528060200260200182016040528015610b5a578160200160208202803683370190505b50915060005b81811015610cba5760008054604051639cb87f2360e01b81526004810184905260248101929092526001600160a01b031690639cb87f239060440160206040518083038186803b158015610bb357600080fd5b505afa158015610bc7573d6000803e3d6000fd5b505050506040513d601f19601f82011682018060405250810190610beb9190612350565b848281518110610bfd57610bfd612921565b6020908102919091010152600054604051639cb87f2360e01b815260048101839052600160248201526001600160a01b0390911690639cb87f239060440160206040518083038186803b158015610c5357600080fd5b505afa158015610c67573d6000803e3d6000fd5b505050506040513d601f19601f82011682018060405250810190610c8b9190612350565b838281518110610c9d57610c9d612921565b602090810291909101015280610cb2816128f0565b915050610b60565b50509091565b606081806001600160401b03811115610cdb57610cdb612937565b604051908082528060200260200182016040528015610d2157816020015b604080518082019091526000815260606020820152815260200190600190039081610cf95790505b5091503660005b828110156106b8576000848281518110610d4457610d44612921565b60200260200101519050868683818110610d6057610d60612921565b9050602002810190610d729190612804565b9250610d81602084018461203b565b6001600160a01b0316610d97604085018561279e565b604051610da5929190612517565b6000604051808303816000865af19150503d8060008114610de2576040519150601f19603f3d011682016040523d82523d6000602084013e610de7565b606091505b506020808401919091529015158083529084013517610e385762461bcd60e51b6000526020600452601760245276135d5b1d1a58d85b1b0cce8818d85b1b0819985a5b1959604a1b60445260646000fd5b50600101610d28565b60608060606000600260009054906101000a90046001600160a01b03166001600160a01b031663b81b2b716040518163ffffffff1660e01b815260040160206040518083038186803b158015610e9657600080fd5b505afa158015610eaa573d6000803e3d6000fd5b505050506040513d601f19601f82011682018060405250810190610ece9190612350565b90506402540be400816001600160401b03811115610eee57610eee612937565b604051908082528060200260200182016040528015610f17578160200160208202803683370190505b509450816001600160401b03811115610f3257610f32612937565b604051908082528060200260200182016040528015610f5b578160200160208202803683370190505b509350816001600160401b03811115610f7657610f76612937565b604051908082528060200260200182016040528015610f9f578160200160208202803683370190505b50925060005b828110156114735760015460405163338139ad60e01b8152600481018390526001600160a01b039091169063338139ad9060240160206040518083038186803b158015610ff157600080fd5b505afa158015611005573d6000803e3d6000fd5b505050506040513d601f19601f820116820180604052508101906110299190612350565b86828151811061103b5761103b612921565b602090810291909101015260008054604051639cb87f2360e01b815260048101849052602481018390526001600160a01b0390911690639cb87f239060440160206040518083038186803b15801561109257600080fd5b505afa1580156110a6573d6000803e3d6000fd5b505050506040513d601f19601f820116820180604052508101906110ca9190612350565b60008054604051639cb87f2360e01b8152600481018690526001602482015292935090916001600160a01b0390911690639cb87f239060440160206040518083038186803b15801561111b57600080fd5b505afa15801561112f573d6000803e3d6000fd5b505050506040513d601f19601f820116820180604052508101906111539190612350565b600154604051633254cfaf60e21b81526004810186905260248101859052604481018390529192506000916001600160a01b039091169063c9533ebc9060640160206040518083038186803b1580156111ab57600080fd5b505afa1580156111bf573d6000803e3d6000fd5b505050506040513d601f19601f820116820180604052508101906111e39190612350565b600180546040516306676d8560e41b815260048101889052602481019290925260448201869052606482018590529192506000916001600160a01b031690636676d8509060840160206040518083038186803b15801561124257600080fd5b505afa158015611256573d6000803e3d6000fd5b505050506040513d601f19601f8201168201806040525081019061127a9190612350565b9050600061128882846128ba565b6112938860646128ba565b61129d91906128d9565b6112a783856128ba565b6112b190896128ba565b6112bb9190612898565b905086878c88815181106112d1576112d1612921565b602002602001015189846112e591906128ba565b6112ef91906128ba565b6112f99190612898565b6113039190612898565b8a878151811061131557611315612921565b60209081029190910101526001546040516306676d8560e41b8152600481018890526000602482018190526044820188905260648201879052916001600160a01b031690636676d8509060840160206040518083038186803b15801561137a57600080fd5b505afa15801561138e573d6000803e3d6000fd5b505050506040513d601f19601f820116820180604052508101906113b29190612350565b905060006113c082866128ba565b6113cb8a60646128ba565b6113d591906128d9565b6113df83876128ba565b6113e9908b6128ba565b6113f39190612898565b905088898e8a8151811061140957611409612921565b60200260200101518b8461141d91906128ba565b61142791906128ba565b6114319190612898565b61143b9190612898565b8b898151811061144d5761144d612921565b60200260200101818152505050505050505050808061146b906128f0565b915050610fa5565b505050909192565b60606000600260009054906101000a90046001600160a01b03166001600160a01b031663b81b2b716040518163ffffffff1660e01b815260040160206040518083038186803b1580156114cd57600080fd5b505afa1580156114e1573d6000803e3d6000fd5b505050506040513d601f19601f820116820180604052508101906115059190612350565b9050806001600160401b0381111561151f5761151f612937565b604051908082528060200260200182016040528015611548578160200160208202803683370190505b50915060005b818110156116095760005460405163292c161760e01b81526001600160a01b038681166004830152602482018490529091169063292c16179060440160206040518083038186803b1580156115a257600080fd5b505afa1580156115b6573d6000803e3d6000fd5b505050506040513d601f19601f820116820180604052508101906115da9190612350565b8382815181106115ec576115ec612921565b602090810291909101015280611601816128f0565b91505061154e565b5050919050565b606081806001600160401b0381111561162b5761162b612937565b60405190808252806020026020018201604052801561167157816020015b6040805180820190915260008152606060208201528152602001906001900390816116495790505b5091503660005b8281101561179857600084828151811061169457611694612921565b602002602001015190508686838181106116b0576116b0612921565b90506020028101906116c2919061281a565b92506116d1602084018461203b565b6001600160a01b03166116e7602085018561279e565b6040516116f5929190612517565b6000604051808303816000865af19150503d8060008114611732576040519150601f19603f3d011682016040523d82523d6000602084013e611737565b606091505b50602083015215158152871561178f57805161178f5760405162461bcd60e51b8152602060048201526017602482015276135d5b1d1a58d85b1b0cce8818d85b1b0819985a5b1959604a1b6044820152606401610480565b50600101611678565b5050509392505050565b60008060606117b360018686610834565b919790965090945092505050565b60606000600260009054906101000a90046001600160a01b03166001600160a01b031663b81b2b716040518163ffffffff1660e01b815260040160206040518083038186803b15801561181357600080fd5b505afa158015611827573d6000803e3d6000fd5b505050506040513d601f19601f8201168201806040525081019061184b9190612350565b9050806001600160401b0381111561186557611865612937565b60405190808252806020026020018201604052801561188e578160200160208202803683370190505b50915060005b8181101561160957600054604051634bf3ccad60e11b81526001600160a01b03868116600483015260248201849052909116906397e7995a9060440160206040518083038186803b1580156118e857600080fd5b505afa1580156118fc573d6000803e3d6000fd5b505050506040513d601f19601f820116820180604052508101906119209190612350565b83828151811061193257611932612921565b602090810291909101015280611947816128f0565b915050611894565b60606000805b85811015611c945760005b85811015611c81576000546040516351d407ff60e11b81526001600160a01b038a8116600483015260248201859052604482018490529091169063a3a80ffe906064016101606040518083038186803b1580156119bc57600080fd5b505afa9250505080156119ec575060408051601f3d908101601f191682019092526119e99181019061229a565b60015b611a0257826119fa816128f0565b935050611c6f565b60e0810151611a1e5783611a15816128f0565b94505050611c6f565b60015460c0820151606083015160e0840151604051630284c13960e11b81526001600160a01b038e8116600483015260248201899052604482018890529315156064820152608481019290925260a4820152600092919091169063050982729060c40160206040518083038186803b158015611a9957600080fd5b505afa158015611aad573d6000803e3d6000fd5b505050506040513d601f19601f82011682018060405250810190611ad19190612350565b9050600160009054906101000a90046001600160a01b03166001600160a01b0316636bc84d598b86868660a001518760c0015188606001518960e001516040518863ffffffff1660e01b8152600401611b309796959493929190612527565b60206040518083038186803b158015611b4857600080fd5b505afa925050508015611b78575060408051601f3d908101601f19168201909252611b7591810190612350565b60015b611b905784611b86816128f0565b9550505050611c6f565b60008054604051638c8ff1d560e01b81526001600160a01b038e81166004830152602482018990526044820188905290911690638c8ff1d59060640160a06040518083038186803b158015611be457600080fd5b505afa158015611bf8573d6000803e3d6000fd5b505050506040513d601f19601f82011682018060405250810190611c1c9190612215565b9050604051806080016040528085815260200182815260200184815260200183815250898881518110611c5157611c51612921565b60200260200101819052508680611c67906128f0565b975050505050505b80611c79816128f0565b915050611960565b5080611c8c816128f0565b915050611955565b509195945050505050565b60606000805b85811015611c945760005b85811015611e7b57600054604051632e21e28b60e21b81526001600160a01b038a8116600483015260248201859052604482018490529091169063b8878a2c906064016101806040518083038186803b158015611d0c57600080fd5b505afa925050508015611d3c575060408051601f3d908101601f19168201909252611d399181019061216d565b60015b611d525782611d4a816128f0565b935050611e69565b60a0810151611d6e5783611d65816128f0565b94505050611e69565b600160009054906101000a90046001600160a01b03166001600160a01b0316636bc84d598a858460400151856101000151866080015187606001518860a001516040518863ffffffff1660e01b8152600401611dd09796959493929190612527565b60206040518083038186803b158015611de857600080fd5b505afa925050508015611e18575060408051601f3d908101601f19168201909252611e1591810190612350565b60015b611e265783611d65816128f0565b604051806040016040528083815260200182815250878681518110611e4d57611e4d612921565b60200260200101819052508480611e63906128f0565b95505050505b80611e73816128f0565b915050611cb0565b5080611e86816128f0565b915050611ca5565b6040518060800160405280611f0160405180610160016040528060006001600160a01b031681526020016000815260200160008152602001600081526020016000815260200160008152602001600015158152602001600081526020016000815260200160008152602001600081525090565b8152602001611f3a6040518060a00160405280600081526020016000815260200160008152602001600015158152602001600081525090565b815260200160008152602001600081525090565b6040518060400160405280611fc860405180610180016040528060006001600160a01b03168152602001600081526020016000815260200160008152602001600015158152602001600081526020016000815260200160008152602001600081526020016000815260200160008152602001600081525090565b8152602001600081525090565b8051611fe08161294d565b919050565b60008083601f840112611ff757600080fd5b5081356001600160401b0381111561200e57600080fd5b6020830191508360208260051b850101111561202957600080fd5b9250929050565b8051611fe081612965565b60006020828403121561204d57600080fd5b81356120588161294d565b9392505050565b60006020828403121561207157600080fd5b81516120588161294d565b6000806000806080858703121561209257600080fd5b843561209d8161294d565b935060208501356120ad8161294d565b925060408501356120bd8161294d565b915060608501356120cd8161294d565b939692955090935050565b600080602083850312156120eb57600080fd5b82356001600160401b0381111561210157600080fd5b61210d85828601611fe5565b90969095509350505050565b60008060006040848603121561212e57600080fd5b833561213981612965565b925060208401356001600160401b0381111561215457600080fd5b61216086828701611fe5565b9497909650939450505050565b6000610180828403121561218057600080fd5b612188612830565b61219183611fd5565b81526020830151602082015260408301516040820152606083015160608201526121bd60808401612030565b608082015260a0838101519082015260c0808401519082015260e08084015190820152610100808401519082015261012080840151908201526101408084015190820152610160928301519281019290925250919050565b600060a0828403121561222757600080fd5b60405160a081018181106001600160401b038211171561225757634e487b7160e01b600052604160045260246000fd5b8060405250825181526020830151602082015260408301516040820152606083015161228281612965565b60608201526080928301519281019290925250919050565b600061016082840312156122ad57600080fd5b6122b5612867565b6122be83611fd5565b81526020830151602082015260408301516040820152606083015160608201526080830151608082015260a083015160a08201526122fe60c08401612030565b60c082015260e0838101519082015261010080840151908201526101208084015190820152610140928301519281019290925250919050565b60006020828403121561234957600080fd5b5035919050565b60006020828403121561236257600080fd5b5051919050565b600081518084526020808501945080840160005b83811015612424578151805180516001600160a01b0316895284810151858a0152604080820151908a0152606080820151908a01526080808201511515908a015260a080820151908a015260c080820151908a015260e080820151908a015261010080820151908a015261012080820151908a015261014080820151908a015261016090810151908901528301516101808801526101a0909601959082019060010161237d565b509495945050505050565b600081518084526020808501808196508360051b8101915082860160005b8581101561248d57828403895281518051151585528501516040868601819052612479818701836124ca565b9a87019a955050509084019060010161244d565b5091979650505050505050565b600081518084526020808501945080840160005b83811015612424578151875295820195908201906001016124ae565b6000815180845260005b818110156124f0576020818501810151868301820152016124d4565b81811115612502576000602083870101525b50601f01601f19169290920160200192915050565b8183823760009101908152919050565b6001600160a01b039790971687526020870195909552604086019390935260608501919091521515608084015260a083015260c082015260e00190565b6040808252835182820181905260009190606090818501906020808901865b8381101561265f578151805180516001600160a01b031687528481015185880152888101518988015287810151888801526080808201518189015260a0808301519089015260c08083015115159089015260e08083015190890152610100808301519089015261012080830151908901526101409182015191880191909152848201518051610160890152602081015161018089015260408101516101a0890152606081015115156101c089015201516101e0870152878101516102008701528601516102208601526102409094019390820190600101612583565b505086830390870152506126738187612369565b979650505050505050565b602081526000612058602083018461242f565b602081526000612058602083018461249a565b6040815260006126b7604083018561249a565b82810360208401526126c9818561249a565b95945050505050565b6060815260006126e5606083018661249a565b82810360208401526126f7818661249a565b9050828103604084015261270b818561249a565b9695505050505050565b600060408201848352602060408185015281855180845260608601915060608160051b870101935082870160005b8281101561277157605f1988870301845261275f8683516124ca565b95509284019290840190600101612743565b509398975050505050505050565b8381528260208201526060604082015260006126c9606083018461242f565b6000808335601e198436030181126127b557600080fd5b8301803591506001600160401b038211156127cf57600080fd5b60200191503681900382131561202957600080fd5b60008235607e198336030181126127fa57600080fd5b9190910192915050565b60008235605e198336030181126127fa57600080fd5b60008235603e198336030181126127fa57600080fd5b60405161018081016001600160401b038111828210171561286157634e487b7160e01b600052604160045260246000fd5b60405290565b60405161016081016001600160401b038111828210171561286157634e487b7160e01b600052604160045260246000fd5b6000826128b557634e487b7160e01b600052601260045260246000fd5b500490565b60008160001904831182151516156128d4576128d461290b565b500290565b6000828210156128eb576128eb61290b565b500390565b60006000198214156129045761290461290b565b5060010190565b634e487b7160e01b600052601160045260246000fd5b634e487b7160e01b600052603260045260246000fd5b634e487b7160e01b600052604160045260246000fd5b6001600160a01b038116811461296257600080fd5b50565b801515811461296257600080fdfea2646970667358221220baf5ae0918b5cc9cf8193cfb27a50b86409be9643a75464086ceaadd570ff05d64736f6c63430008070033","linkReferences":{}},"methodIdentifiers":{"aggregate((address,bytes)[])":"252dba42","aggregate3((address,bool,bytes)[])":"82ad56cb","aggregate3Value((address,bool,uint256,bytes)[])":"174dea71","blockAndAggregate((address,bytes)[])":"c3077fa9","getBasefee()":"3e64a696","getBlockHash(uint256)":"ee82ac5e","getBlockNumber()":"42cbb15c","getChainId()":"3408e470","getCurrentBlockCoinbase()":"a8b0574e","getCurrentBlockDifficulty()":"72425d9d","getCurrentBlockGasLimit()":"86d516e8","getCurrentBlockTimestamp()":"0f28c97d","getEthBalance(address)":"4d2301cc","getFirstEmptyTradeIndexes(address)":"977ca604","getLastBlockHash()":"27e86d6e","getLongShortRatios()":"582b175f","getMargins()":"8693da43","getOpenLimitOrdersCounts(address)":"ed4a96a9","getPositions(address)":"3eeb530e","tryAggregate(bool,(address,bytes)[])":"bce38bd7","tryBlockAndAggregate(bool,(address,bytes)[])":"399542e9","updateContracts(address,address,address,address)":"0b751279"},"id":102}