{"abi":[{"type":"constructor","inputs":[],"stateMutability":"nonpayable"},{"type":"function","name":"allowance","inputs":[{"name":"owner","type":"address","internalType":"address"},{"name":"spender","type":"address","internalType":"address"}],"outputs":[{"name":"","type":"uint256","internalType":"uint256"}],"stateMutability":"view"},{"type":"function","name":"approve","inputs":[{"name":"spender","type":"address","internalType":"address"},{"name":"amount","type":"uint256","internalType":"uint256"}],"outputs":[{"name":"","type":"bool","internalType":"bool"}],"stateMutability":"nonpayable"},{"type":"function","name":"asset","inputs":[],"outputs":[{"name":"","type":"address","internalType":"address"}],"stateMutability":"view"},{"type":"function","name":"balanceOf","inputs":[{"name":"account","type":"address","internalType":"address"}],"outputs":[{"name":"","type":"uint256","internalType":"uint256"}],"stateMutability":"view"},{"type":"function","name":"balancingFee","inputs":[{"name":"assets","type":"uint256","internalType":"uint256"},{"name":"isDeposit","type":"bool","internalType":"bool"}],"outputs":[{"name":"","type":"uint256","internalType":"uint256"}],"stateMutability":"view"},{"type":"function","name":"collateralHealthFee","inputs":[],"outputs":[{"name":"","type":"uint256","internalType":"uint256"}],"stateMutability":"view"},{"type":"function","name":"convertToAssets","inputs":[{"name":"shares","type":"uint256","internalType":"uint256"}],"outputs":[{"name":"","type":"uint256","internalType":"uint256"}],"stateMutability":"view"},{"type":"function","name":"convertToShares","inputs":[{"name":"assets","type":"uint256","internalType":"uint256"}],"outputs":[{"name":"","type":"uint256","internalType":"uint256"}],"stateMutability":"view"},{"type":"function","name":"decimals","inputs":[],"outputs":[{"name":"","type":"uint8","internalType":"uint8"}],"stateMutability":"view"},{"type":"function","name":"decreaseAllowance","inputs":[{"name":"spender","type":"address","internalType":"address"},{"name":"subtractedValue","type":"uint256","internalType":"uint256"}],"outputs":[{"name":"","type":"bool","internalType":"bool"}],"stateMutability":"nonpayable"},{"type":"function","name":"deposit","inputs":[{"name":"assets","type":"uint256","internalType":"uint256"},{"name":"receiver","type":"address","internalType":"address"}],"outputs":[{"name":"","type":"uint256","internalType":"uint256"}],"stateMutability":"nonpayable"},{"type":"function","name":"depositCap","inputs":[],"outputs":[{"name":"","type":"uint256","internalType":"uint256"}],"stateMutability":"view"},{"type":"function","name":"feesOn","inputs":[],"outputs":[{"name":"","type":"bool","internalType":"bool"}],"stateMutability":"view"},{"type":"function","name":"getDepositFeesRaw","inputs":[{"name":"assets","type":"uint256","internalType":"uint256"}],"outputs":[{"name":"","type":"uint256","internalType":"uint256"}],"stateMutability":"view"},{"type":"function","name":"getDepositFeesTotal","inputs":[{"name":"assets","type":"uint256","internalType":"uint256"}],"outputs":[{"name":"","type":"uint256","internalType":"uint256"}],"stateMutability":"view"},{"type":"function","name":"getWithdrawalFeesRaw","inputs":[{"name":"assets","type":"uint256","internalType":"uint256"}],"outputs":[{"name":"","type":"uint256","internalType":"uint256"}],"stateMutability":"view"},{"type":"function","name":"getWithdrawalFeesTotal","inputs":[{"name":"assets","type":"uint256","internalType":"uint256"}],"outputs":[{"name":"","type":"uint256","internalType":"uint256"}],"stateMutability":"view"},{"type":"function","name":"hasLiquidity","inputs":[{"name":"_reserveAmount","type":"uint256","internalType":"uint256"}],"outputs":[{"name":"","type":"bool","internalType":"bool"}],"stateMutability":"view"},{"type":"function","name":"increaseAllowance","inputs":[{"name":"spender","type":"address","internalType":"address"},{"name":"addedValue","type":"uint256","internalType":"uint256"}],"outputs":[{"name":"","type":"bool","internalType":"bool"}],"stateMutability":"nonpayable"},{"type":"function","name":"initialize","inputs":[{"name":"__asset","type":"address","internalType":"address"},{"name":"_vaultManager","type":"address","internalType":"address"},{"name":"trancheName","type":"string","internalType":"string"},{"name":"tranchSymbol","type":"string","internalType":"string"}],"outputs":[],"stateMutability":"nonpayable"},{"type":"function","name":"maxDeposit","inputs":[{"name":"","type":"address","internalType":"address"}],"outputs":[{"name":"","type":"uint256","internalType":"uint256"}],"stateMutability":"view"},{"type":"function","name":"maxMint","inputs":[{"name":"","type":"address","internalType":"address"}],"outputs":[{"name":"","type":"uint256","internalType":"uint256"}],"stateMutability":"view"},{"type":"function","name":"maxRedeem","inputs":[{"name":"owner","type":"address","internalType":"address"}],"outputs":[{"name":"","type":"uint256","internalType":"uint256"}],"stateMutability":"view"},{"type":"function","name":"maxWithdraw","inputs":[{"name":"owner","type":"address","internalType":"address"}],"outputs":[{"name":"","type":"uint256","internalType":"uint256"}],"stateMutability":"view"},{"type":"function","name":"mint","inputs":[{"name":"shares","type":"uint256","internalType":"uint256"},{"name":"receiver","type":"address","internalType":"address"}],"outputs":[{"name":"","type":"uint256","internalType":"uint256"}],"stateMutability":"nonpayable"},{"type":"function","name":"name","inputs":[],"outputs":[{"name":"","type":"string","internalType":"string"}],"stateMutability":"view"},{"type":"function","name":"previewDeposit","inputs":[{"name":"assets","type":"uint256","internalType":"uint256"}],"outputs":[{"name":"","type":"uint256","internalType":"uint256"}],"stateMutability":"view"},{"type":"function","name":"previewMint","inputs":[{"name":"shares","type":"uint256","internalType":"uint256"}],"outputs":[{"name":"","type":"uint256","internalType":"uint256"}],"stateMutability":"view"},{"type":"function","name":"previewRedeem","inputs":[{"name":"shares","type":"uint256","internalType":"uint256"}],"outputs":[{"name":"","type":"uint256","internalType":"uint256"}],"stateMutability":"view"},{"type":"function","name":"previewWithdraw","inputs":[{"name":"assets","type":"uint256","internalType":"uint256"}],"outputs":[{"name":"","type":"uint256","internalType":"uint256"}],"stateMutability":"view"},{"type":"function","name":"principalAssetsDeposited","inputs":[{"name":"","type":"address","internalType":"address"}],"outputs":[{"name":"","type":"uint256","internalType":"uint256"}],"stateMutability":"view"},{"type":"function","name":"principalSharesDeposited","inputs":[{"name":"","type":"address","internalType":"address"}],"outputs":[{"name":"","type":"uint256","internalType":"uint256"}],"stateMutability":"view"},{"type":"function","name":"redeem","inputs":[{"name":"shares","type":"uint256","internalType":"uint256"},{"name":"receiver","type":"address","internalType":"address"},{"name":"owner","type":"address","internalType":"address"}],"outputs":[{"name":"","type":"uint256","internalType":"uint256"}],"stateMutability":"nonpayable"},{"type":"function","name":"releaseBalance","inputs":[{"name":"amount","type":"uint256","internalType":"uint256"}],"outputs":[],"stateMutability":"nonpayable"},{"type":"function","name":"reserveBalance","inputs":[{"name":"amount","type":"uint256","internalType":"uint256"}],"outputs":[],"stateMutability":"nonpayable"},{"type":"function","name":"setCap","inputs":[{"name":"_newCap","type":"uint256","internalType":"uint256"}],"outputs":[],"stateMutability":"nonpayable"},{"type":"function","name":"setFeesOn","inputs":[{"name":"_feesOn","type":"bool","internalType":"bool"}],"outputs":[],"stateMutability":"nonpayable"},{"type":"function","name":"setVaultManager","inputs":[{"name":"_vaultManager","type":"address","internalType":"address"}],"outputs":[],"stateMutability":"nonpayable"},{"type":"function","name":"setVeTranche","inputs":[{"name":"_veTranche","type":"address","internalType":"address"}],"outputs":[],"stateMutability":"nonpayable"},{"type":"function","name":"setWithdrawThreshold","inputs":[{"name":"_withdrawThreshold","type":"uint256","internalType":"uint256"}],"outputs":[],"stateMutability":"nonpayable"},{"type":"function","name":"symbol","inputs":[],"outputs":[{"name":"","type":"string","internalType":"string"}],"stateMutability":"view"},{"type":"function","name":"totalAssets","inputs":[],"outputs":[{"name":"","type":"uint256","internalType":"uint256"}],"stateMutability":"view"},{"type":"function","name":"totalPrincipalDeposited","inputs":[],"outputs":[{"name":"","type":"uint256","internalType":"uint256"}],"stateMutability":"view"},{"type":"function","name":"totalReserved","inputs":[],"outputs":[{"name":"","type":"uint256","internalType":"uint256"}],"stateMutability":"view"},{"type":"function","name":"totalSupply","inputs":[],"outputs":[{"name":"","type":"uint256","internalType":"uint256"}],"stateMutability":"view"},{"type":"function","name":"transfer","inputs":[{"name":"to","type":"address","internalType":"address"},{"name":"amount","type":"uint256","internalType":"uint256"}],"outputs":[{"name":"","type":"bool","internalType":"bool"}],"stateMutability":"nonpayable"},{"type":"function","name":"transferFrom","inputs":[{"name":"from","type":"address","internalType":"address"},{"name":"to","type":"address","internalType":"address"},{"name":"amount","type":"uint256","internalType":"uint256"}],"outputs":[{"name":"","type":"bool","internalType":"bool"}],"stateMutability":"nonpayable"},{"type":"function","name":"utilizationRatio","inputs":[],"outputs":[{"name":"","type":"uint256","internalType":"uint256"}],"stateMutability":"view"},{"type":"function","name":"vaultManager","inputs":[],"outputs":[{"name":"","type":"address","internalType":"contract IVaultManager"}],"stateMutability":"view"},{"type":"function","name":"veTranche","inputs":[],"outputs":[{"name":"","type":"address","internalType":"address"}],"stateMutability":"view"},{"type":"function","name":"withdraw","inputs":[{"name":"assets","type":"uint256","internalType":"uint256"},{"name":"receiver","type":"address","internalType":"address"},{"name":"owner","type":"address","internalType":"address"}],"outputs":[{"name":"","type":"uint256","internalType":"uint256"}],"stateMutability":"nonpayable"},{"type":"function","name":"withdrawAsVaultManager","inputs":[{"name":"amount","type":"uint256","internalType":"uint256"}],"outputs":[],"stateMutability":"nonpayable"},{"type":"function","name":"withdrawThreshold","inputs":[],"outputs":[{"name":"","type":"uint256","internalType":"uint256"}],"stateMutability":"view"},{"type":"event","name":"Approval","inputs":[{"name":"owner","type":"address","indexed":true,"internalType":"address"},{"name":"spender","type":"address","indexed":true,"internalType":"address"},{"name":"value","type":"uint256","indexed":false,"internalType":"uint256"}],"anonymous":false},{"type":"event","name":"BalanceReleased","inputs":[{"name":"amount","type":"uint256","indexed":false,"internalType":"uint256"}],"anonymous":false},{"type":"event","name":"BalanceReserved","inputs":[{"name":"amount","type":"uint256","indexed":false,"internalType":"uint256"}],"anonymous":false},{"type":"event","name":"Deposit","inputs":[{"name":"sender","type":"address","indexed":true,"internalType":"address"},{"name":"owner","type":"address","indexed":true,"internalType":"address"},{"name":"assets","type":"uint256","indexed":false,"internalType":"uint256"},{"name":"shares","type":"uint256","indexed":false,"internalType":"uint256"}],"anonymous":false},{"type":"event","name":"FeesStatusUpdated","inputs":[{"name":"feesOn","type":"bool","indexed":false,"internalType":"bool"}],"anonymous":false},{"type":"event","name":"Initialized","inputs":[{"name":"version","type":"uint8","indexed":false,"internalType":"uint8"}],"anonymous":false},{"type":"event","name":"ReserveCapUpdated","inputs":[{"name":"newCap","type":"uint256","indexed":false,"internalType":"uint256"}],"anonymous":false},{"type":"event","name":"TokenTransferred","inputs":[{"name":"from","type":"address","indexed":true,"internalType":"address"},{"name":"to","type":"address","indexed":true,"internalType":"address"},{"name":"shares","type":"uint256","indexed":false,"internalType":"uint256"},{"name":"assets","type":"uint256","indexed":false,"internalType":"uint256"}],"anonymous":false},{"type":"event","name":"Transfer","inputs":[{"name":"from","type":"address","indexed":true,"internalType":"address"},{"name":"to","type":"address","indexed":true,"internalType":"address"},{"name":"value","type":"uint256","indexed":false,"internalType":"uint256"}],"anonymous":false},{"type":"event","name":"VaultManagerUpdated","inputs":[{"name":"vaultManager","type":"address","indexed":true,"internalType":"address"}],"anonymous":false},{"type":"event","name":"VeTrancheUpdated","inputs":[{"name":"veTranche","type":"address","indexed":true,"internalType":"address"}],"anonymous":false},{"type":"event","name":"Withdraw","inputs":[{"name":"sender","type":"address","indexed":true,"internalType":"address"},{"name":"receiver","type":"address","indexed":true,"internalType":"address"},{"name":"owner","type":"address","indexed":true,"internalType":"address"},{"name":"assets","type":"uint256","indexed":false,"internalType":"uint256"},{"name":"shares","type":"uint256","indexed":false,"internalType":"uint256"}],"anonymous":false},{"type":"event","name":"WithdrawThresholdUpdated","inputs":[{"name":"newThreshold","type":"uint256","indexed":false,"internalType":"uint256"}],"anonymous":false}],"bytecode":{"object":"0x60806040523480156200001157600080fd5b506200001c62000022565b620000e3565b600054610100900460ff16156200008f5760405162461bcd60e51b815260206004820152602760248201527f496e697469616c697a61626c653a20636f6e747261637420697320696e697469604482015266616c697a696e6760c81b606482015260840160405180910390fd5b60005460ff90811614620000e1576000805460ff191660ff9081179091556040519081527f7f26b83ff96e1f2b6a682f133852f6798a09c465da95921460cefb38474024989060200160405180910390a15b565b61303380620000f36000396000f3fe608060405234801561001057600080fd5b50600436106103275760003560e01c806383000097116101b8578063ba08765211610104578063d905777e116100a2578063e53a788a1161007c578063e53a788a146106d4578063ede5bed1146106e7578063ef8b30f7146106ef578063feefd7dd1461070257600080fd5b8063d905777e146106a5578063dbd5edc7146106b8578063dd62ed3e146106c157600080fd5b8063c6e6f592116100de578063c6e6f59214610669578063c71b0e1c1461067c578063cd653ee614610685578063ce96cb771461069257600080fd5b8063ba08765214610636578063ba12114014610649578063c63d75b61461046857600080fd5b8063a5b5ff7c11610171578063af17788c1161014b578063af17788c146105dd578063b3d7f6b9146105fd578063b460af9414610610578063b543503e1461062357600080fd5b8063a5b5ff7c146105a4578063a9059cbb146105b7578063aecb019c146105ca57600080fd5b8063830000971461053d5780638a4adf24146105505780638c9fcc691461056357806394bf804d1461057657806395d89b4114610589578063a457c2d71461059157600080fd5b806339509351116102775780634cdad5061161023057806370a082311161020a57806370a08231146104ef57806376079be314610518578063760ee4c61461052b5780638070bb281461053457600080fd5b80634cdad506146104b6578063675ef65c146104c95780636e553f65146104dc57600080fd5b806339509351146104425780633dcbdf4014610455578063402d267d14610468578063424ea9fe1461047d57806344907a401461049057806347786d37146104a357600080fd5b806314269687116102e4578063207a9855116102be578063207a9855146103dd57806323b872dd146103f0578063313ce5671461040357806338d52e0f1461041d57600080fd5b806314269687146103ad57806318160ddd146103c25780632016a0d2146103ca57600080fd5b806301e1d1141461032c57806306fdde031461034757806307a2d13a1461035c578063095ea7b31461036f5780630a28a477146103925780630b231cbe146103a5575b600080fd5b610334610715565b6040519081526020015b60405180910390f35b61034f610796565b60405161033e9190612c3a565b61033461036a366004612b00565b610828565b61038261037d366004612a2c565b61083b565b604051901515815260200161033e565b6103346103a0366004612b00565b610853565b610334610870565b6103c06103bb366004612b00565b6108a2565b005b603554610334565b6103c06103d8366004612962565b6108e1565b6103346103eb366004612b99565b610b82565b6103826103fe3660046129eb565b610c14565b61040b610c38565b60405160ff909116815260200161033e565b6065546001600160a01b03165b6040516001600160a01b03909116815260200161033e565b610382610450366004612a2c565b610c52565b610382610463366004612b00565b610c74565b6103346104763660046128ef565b5060001990565b61033461048b366004612b00565b610c93565b61033461049e366004612b00565b610cd2565b6103c06104b1366004612b00565b610cfb565b6103346104c4366004612b00565b610ded565b6103c06104d7366004612a58565b610e0e565b6103346104ea366004612b32565b610f05565b6103346104fd3660046128ef565b6001600160a01b031660009081526033602052604090205490565b6103c0610526366004612b00565b610f1f565b610334609a5481565b610334609b5481565b61033461054b366004612b00565b610f52565b60975461042a906001600160a01b031681565b6103c06105713660046128ef565b610f76565b610334610584366004612b32565b6110be565b61034f6110d8565b61038261059f366004612a2c565b6110e7565b6103c06105b2366004612b00565b611162565b6103826105c5366004612a2c565b6111b3565b6103346105d8366004612b00565b6111c1565b6103346105eb3660046128ef565b609e6020526000908152604090205481565b61033461060b366004612b00565b6111f1565b61033461061e366004612b57565b611212565b6103c06106313660046128ef565b61128e565b610334610644366004612b57565b6113d6565b6103346106573660046128ef565b609f6020526000908152604090205481565b610334610677366004612b00565b61144a565b61033460995481565b609d546103829060ff1681565b6103346106a03660046128ef565b611457565b6103346106b33660046128ef565b6114ef565b610334609c5481565b6103346106cf366004612929565b611599565b60985461042a906001600160a01b031681565b6103346115c4565b6103346106fd366004612b00565b611609565b6103c0610710366004612b00565b611621565b6065546040516370a0823160e01b81523060048201526000916001600160a01b0316906370a082319060240160206040518083038186803b15801561075957600080fd5b505afa15801561076d573d6000803e3d6000fd5b505050506040513d601f19601f820116820180604052508101906107919190612b19565b905090565b6060603680546107a590612f47565b80601f01602080910402602001604051908101604052809291908181526020018280546107d190612f47565b801561081e5780601f106107f35761010080835404028352916020019161081e565b820191906000526020600020905b81548152906001019060200180831161080157829003601f168201915b5050505050905090565b6000610835826000611762565b92915050565b60003361084981858561179c565b5060019392505050565b600061083561086183610c93565b61086b9084612d59565b6118c0565b600061087a610715565b6402540be40060995461088d9190612ea6565b610898906064612ea6565b6107919190612d96565b6097546001600160a01b031633146108d55760405162461bcd60e51b81526004016108cc90612c6d565b60405180910390fd5b6108de816118cd565b50565b600054610100900460ff16158080156109015750600054600160ff909116105b8061091b5750303b15801561091b575060005460ff166001145b61097e5760405162461bcd60e51b815260206004820152602e60248201527f496e697469616c697a61626c653a20636f6e747261637420697320616c72656160448201526d191e481a5b9a5d1a585b1a5e995960921b60648201526084016108cc565b6000805460ff1916600117905580156109a1576000805461ff0019166101001790555b609780546001600160a01b0319166001600160a01b0386161790556109cc6402540be400605a612ea6565b609a55670de0b6b3a7640000609c556109e485611977565b610b3583866001600160a01b03166306fdde036040518163ffffffff1660e01b815260040160006040518083038186803b158015610a2157600080fd5b505afa158015610a35573d6000803e3d6000fd5b505050506040513d6000823e601f3d908101601f19168201604052610a5d9190810190612a92565b604051602001610a6d9190612c09565b60408051601f1981840301815290829052610a8b9291602001612bda565b60405160208183030381529060405283876001600160a01b03166395d89b416040518163ffffffff1660e01b815260040160006040518083038186803b158015610ad457600080fd5b505afa158015610ae8573d6000803e3d6000fd5b505050506040513d6000823e601f3d908101601f19168201604052610b109190810190612a92565b604051602001610b21929190612bda565b6040516020818303038152906040526119fc565b8015610b7b576000805461ff0019169055604051600181527f7f26b83ff96e1f2b6a682f133852f6798a09c465da95921460cefb38474024989060200160405180910390a15b5050505050565b609754604051637c2fd67560e11b81523060048201528215156024820152604481018490526000916001600160a01b03169063f85facea9060640160206040518083038186803b158015610bd557600080fd5b505afa158015610be9573d6000803e3d6000fd5b505050506040513d601f19601f82011682018060405250810190610c0d9190612b19565b9392505050565b600033610c22858285611a4f565b610c2d858585611ac9565b506001949350505050565b6000806065546107919190600160a01b900460ff16612d71565b600033610849818585610c658383611599565b610c6f9190612d59565b61179c565b600060995482610c849190612d59565b610c8c610715565b1192915050565b609d5460009060ff16610ca857506000919050565b610cb982610cb46115c4565b611b2b565b610cc883610cb4856000610b82565b6108359190612d59565b609d5460009060ff16610ce757506000919050565b61083582610cf6846001610b82565b611b3d565b609760009054906101000a90046001600160a01b03166001600160a01b03166312d43a516040518163ffffffff1660e01b815260040160206040518083038186803b158015610d4957600080fd5b505afa158015610d5d573d6000803e3d6000fd5b505050506040513d601f19601f82011682018060405250810190610d81919061290c565b6001600160a01b0316336001600160a01b031614610db15760405162461bcd60e51b81526004016108cc90612cde565b609c8190556040518181527f65734b3a997a8977b23500ac4241971bc574d4a6cc04d3aad452dbeec1704f4e906020015b60405180910390a150565b600080610df983610828565b9050610e04816111c1565b610c0d9082612f04565b609760009054906101000a90046001600160a01b03166001600160a01b03166312d43a516040518163ffffffff1660e01b815260040160206040518083038186803b158015610e5c57600080fd5b505afa158015610e70573d6000803e3d6000fd5b505050506040513d601f19601f82011682018060405250810190610e94919061290c565b6001600160a01b0316336001600160a01b031614610ec45760405162461bcd60e51b81526004016108cc90612cde565b609d805460ff19168215159081179091556040519081527f2cfb0d9143d0d1ab82bf5dd363404445eefad3e5811ae2b96c011ea3028514b790602001610de2565b600080610f1184611609565b9050610c0d33848684611b5a565b6097546001600160a01b03163314610f495760405162461bcd60e51b81526004016108cc90612c6d565b6108de81611c54565b609d5460009060ff16610f6757506000919050565b61083582610cb4846001610b82565b609760009054906101000a90046001600160a01b03166001600160a01b03166312d43a516040518163ffffffff1660e01b815260040160206040518083038186803b158015610fc457600080fd5b505afa158015610fd8573d6000803e3d6000fd5b505050506040513d601f19601f82011682018060405250810190610ffc919061290c565b6001600160a01b0316336001600160a01b03161461102c5760405162461bcd60e51b81526004016108cc90612cde565b6001600160a01b0381166110745760405162461bcd60e51b815260206004820152600f60248201526e105111149154d4d7d2539590531251608a1b60448201526064016108cc565b609880546001600160a01b0319166001600160a01b0383169081179091556040517f249069287af94b8b3a281fa5920b6678be953a1200f42319ebf2308bf91e647890600090a250565b6000806110ca846111f1565b9050610c0d33848387611b5a565b6060603780546107a590612f47565b600033816110f58286611599565b9050838110156111555760405162461bcd60e51b815260206004820152602560248201527f45524332303a2064656372656173656420616c6c6f77616e63652062656c6f77604482015264207a65726f60d81b60648201526084016108cc565b610c2d828686840361179c565b6097546001600160a01b0316331461118c5760405162461bcd60e51b81526004016108cc90612c6d565b6108de6111a16065546001600160a01b031690565b6097546001600160a01b031683611ced565b600033610849818585611ac9565b609d5460009060ff166111d657506000919050565b6111e282610cf66115c4565b610cc883610cf6856000610b82565b6000806111fd83611d50565b905061120881610f52565b610c0d9082612d59565b600061121d82611457565b84111561126c5760405162461bcd60e51b815260206004820152601f60248201527f455243343632363a207769746864726177206d6f7265207468616e206d61780060448201526064016108cc565b600061127785610853565b90506112863385858885611d5d565b949350505050565b609760009054906101000a90046001600160a01b03166001600160a01b03166312d43a516040518163ffffffff1660e01b815260040160206040518083038186803b1580156112dc57600080fd5b505afa1580156112f0573d6000803e3d6000fd5b505050506040513d601f19601f82011682018060405250810190611314919061290c565b6001600160a01b0316336001600160a01b0316146113445760405162461bcd60e51b81526004016108cc90612cde565b6001600160a01b03811661138c5760405162461bcd60e51b815260206004820152600f60248201526e105111149154d4d7d2539590531251608a1b60448201526064016108cc565b609780546001600160a01b0319166001600160a01b0383169081179091556040517fcdba42b90a1db6ef05bf5758b36301b44ac50226364e050628807a6ceef24bc290600090a250565b60006113e1826114ef565b8411156114305760405162461bcd60e51b815260206004820152601d60248201527f455243343632363a2072656465656d206d6f7265207468616e206d617800000060448201526064016108cc565b600061143b85610ded565b90506112863385858489611d5d565b6000610835826000611e50565b600080609a546402540be4006099546114709190612ea6565b61147b906064612ea6565b6114859190612d96565b61148d610715565b6114979190612ec5565b9050600081126114a757806114aa565b60005b905060006114d76114d0856001600160a01b031660009081526033602052604090205490565b6000611762565b9050818110156114e8579392505050565b5092915050565b600080609a546402540be4006099546115089190612ea6565b611513906064612ea6565b61151d9190612d96565b611525610715565b61152f9190612ec5565b90506000811261153f5780611542565b60005b9050600061156861036a856001600160a01b031660009081526033602052604090205490565b905081811015611590575050506001600160a01b031660009081526033602052604090205490565b6112868261144a565b6001600160a01b03918216600090815260346020908152604080832093909416825291909152205490565b60975460408051631530c68960e31b815290516000926001600160a01b03169163a9863448916004808301926020929190829003018186803b15801561075957600080fd5b600061083561161783610cd2565b6106779084612f04565b609760009054906101000a90046001600160a01b03166001600160a01b03166312d43a516040518163ffffffff1660e01b815260040160206040518083038186803b15801561166f57600080fd5b505afa158015611683573d6000803e3d6000fd5b505050506040513d601f19601f820116820180604052508101906116a7919061290c565b6001600160a01b0316336001600160a01b0316146116d75760405162461bcd60e51b81526004016108cc90612cde565b6116e76402540be4006064612ea6565b811061172d5760405162461bcd60e51b81526020600482015260156024820152740a890a48aa6909e9888be8ab0868a8a88a6be9a82b605b1b60448201526064016108cc565b609a8190556040518181527fdf3c43b92e9d230f33e561c35b51e37fe0e7a9e14a51670de61c5527c674122090602001610de2565b6000610c0d61176f610715565b61177a906001612d59565b6117866000600a612dfb565b6035546117939190612d59565b85919085611e80565b6001600160a01b0383166117fe5760405162461bcd60e51b8152602060048201526024808201527f45524332303a20617070726f76652066726f6d20746865207a65726f206164646044820152637265737360e01b60648201526084016108cc565b6001600160a01b03821661185f5760405162461bcd60e51b815260206004820152602260248201527f45524332303a20617070726f766520746f20746865207a65726f206164647265604482015261737360f01b60648201526084016108cc565b6001600160a01b0383811660008181526034602090815260408083209487168084529482529182902085905590518481527f8c5be1e5ebec7d5bd14f71427d1e84f3dd0314c0f7b2291e5b200ac8c7c3b925910160405180910390a3505050565b6000610835826001611e50565b6099546118da9082612d59565b6118e2610715565b10156119305760405162461bcd60e51b815260206004820181905260248201527f524553455256455f414d4f554e545f455843454544535f415641494c41424c4560448201526064016108cc565b80609960008282546119429190612d59565b90915550506040518181527f2c4de6f597c09e3008257b74d3d91bc3d00fa80febbb17b07a352d01b832cc5890602001610de2565b600054610100900460ff1661199e5760405162461bcd60e51b81526004016108cc90612c93565b6000806119aa83611edd565b91509150816119ba5760126119bc565b805b606580546001600160a01b039095166001600160a01b031960ff93909316600160a01b02929092166001600160a81b031990951694909417179092555050565b600054610100900460ff16611a235760405162461bcd60e51b81526004016108cc90612c93565b8151611a36906036906020850190612800565b508051611a4a906037906020840190612800565b505050565b6000611a5b8484611599565b90506000198114611ac35781811015611ab65760405162461bcd60e51b815260206004820152601d60248201527f45524332303a20696e73756666696369656e7420616c6c6f77616e636500000060448201526064016108cc565b611ac3848484840361179c565b50505050565b816001600160a01b0316836001600160a01b03167fb4b510017fa3548bf934bbeafb570ebc4f19982ace19ae88d2de59a13addebf183611b0885610828565b6040805192835260208301919091520160405180910390a3611a4a838383611fb9565b6000610c0d8383620186a06001611e80565b6000610c0d82611b5081620186a0612d59565b8591906001611e80565b609c5482611b66610715565b611b709190612d59565b10611bb45760405162461bcd60e51b815260206004820152601460248201527311115413d4d25517d0d05417d094915050d2115160621b60448201526064016108cc565b6000611bbf83610cd2565b9050611bcd85858585612164565b8015610b7b57611be86111a16065546001600160a01b031690565b609754604051635b898b7560e01b815260048101839052600060248201526001600160a01b0390911690635b898b7590604401600060405180830381600087803b158015611c3557600080fd5b505af1158015611c49573d6000803e3d6000fd5b505050505050505050565b806099541015611ca65760405162461bcd60e51b815260206004820181905260248201527f52454c454153455f414d4f554e545f455843454544535f415641494c41424c4560448201526064016108cc565b8060996000828254611cb89190612f04565b90915550506040518181527f774dd8563c62b955681af671bbf01ac0b50b41f089a9830a89586451cd5630da90602001610de2565b6040516001600160a01b038316602482015260448101829052611a4a90849063a9059cbb60e01b906064015b60408051601f198184030181529190526020810180516001600160e01b03166001600160e01b0319909316929092179091526121e2565b6000610835826001611762565b6000611d6883610c93565b9050611d7786868686866122b7565b8015611df857611d926111a16065546001600160a01b031690565b609754604051635b898b7560e01b815260048101839052600060248201526001600160a01b0390911690635b898b7590604401600060405180830381600087803b158015611ddf57600080fd5b505af1158015611df3573d6000803e3d6000fd5b505050505b609a54611e03610870565b10611e485760405162461bcd60e51b81526020600482015260156024820152740aaa8929892b482a8929e9cbea482a8929ebe9a82b605b1b60448201526064016108cc565b505050505050565b6000610c0d611e6082600a612dfb565b603554611e6d9190612d59565b611e75610715565b611793906001612d59565b600080611e8e868686612363565b90506001836002811115611ea457611ea4612fae565b148015611ec1575060008480611ebc57611ebc612f98565b868809115b15611ed457611ed1600182612d59565b90505b95945050505050565b60408051600481526024810182526020810180516001600160e01b031663313ce56760e01b17905290516000918291829182916001600160a01b03871691611f2491612bbe565b600060405180830381855afa9150503d8060008114611f5f576040519150601f19603f3d011682016040523d82523d6000602084013e611f64565b606091505b5091509150818015611f7857506020815110155b15611fac57600081806020019051810190611f939190612b19565b905060ff8111611faa576001969095509350505050565b505b5060009485945092505050565b6001600160a01b03831661201d5760405162461bcd60e51b815260206004820152602560248201527f45524332303a207472616e736665722066726f6d20746865207a65726f206164604482015264647265737360d81b60648201526084016108cc565b6001600160a01b03821661207f5760405162461bcd60e51b815260206004820152602360248201527f45524332303a207472616e7366657220746f20746865207a65726f206164647260448201526265737360e81b60648201526084016108cc565b6001600160a01b038316600090815260336020526040902054818110156120f75760405162461bcd60e51b815260206004820152602660248201527f45524332303a207472616e7366657220616d6f756e7420657863656564732062604482015265616c616e636560d01b60648201526084016108cc565b6001600160a01b0380851660008181526033602052604080822086860390559286168082529083902080548601905591517fddf252ad1be2c89b69c2b068fc378daa952ba7f163c4a11628f55a4df523b3ef906121579086815260200190565b60405180910390a3611ac3565b60655461217c906001600160a01b031685308561244e565b6121868382612486565b826001600160a01b0316846001600160a01b03167fdcbc1c05240f31ff3ad067ef1ee35ce4997762752e3a095284754544f4c709d784846040516121d4929190918252602082015260400190565b60405180910390a350505050565b6000612237826040518060400160405280602081526020017f5361666545524332303a206c6f772d6c6576656c2063616c6c206661696c6564815250856001600160a01b03166125479092919063ffffffff16565b90508051600014806122585750808060200190518101906122589190612a75565b611a4a5760405162461bcd60e51b815260206004820152602a60248201527f5361666545524332303a204552433230206f7065726174696f6e20646964206e6044820152691bdd081cdd58d8d9595960b21b60648201526084016108cc565b826001600160a01b0316856001600160a01b0316146122db576122db838683611a4f565b6122e58382612556565b6065546122fc906001600160a01b03168584611ced565b826001600160a01b0316846001600160a01b0316866001600160a01b03167ffbde797d201c681b91056529119e0b02407c7bb96a4a2c75c01fc9667232c8db8585604051612354929190918252602082015260400190565b60405180910390a45050505050565b60008080600019858709858702925082811083820303915050806000141561239e5783828161239457612394612f98565b0492505050610c0d565b8084116123e55760405162461bcd60e51b81526020600482015260156024820152744d6174683a206d756c446976206f766572666c6f7760581b60448201526064016108cc565b60008486880960026001871981018816978890046003810283188082028403028082028403028082028403028082028403028082028403029081029092039091026000889003889004909101858311909403939093029303949094049190911702949350505050565b6040516001600160a01b0380851660248301528316604482015260648101829052611ac39085906323b872dd60e01b90608401611d19565b6001600160a01b0382166124dc5760405162461bcd60e51b815260206004820152601f60248201527f45524332303a206d696e7420746f20746865207a65726f20616464726573730060448201526064016108cc565b80603560008282546124ee9190612d59565b90915550506001600160a01b0382166000818152603360209081526040808320805486019055518481527fddf252ad1be2c89b69c2b068fc378daa952ba7f163c4a11628f55a4df523b3ef910160405180910390a35050565b6060611286848460008561268a565b6001600160a01b0382166125b65760405162461bcd60e51b815260206004820152602160248201527f45524332303a206275726e2066726f6d20746865207a65726f206164647265736044820152607360f81b60648201526084016108cc565b6001600160a01b0382166000908152603360205260409020548181101561262a5760405162461bcd60e51b815260206004820152602260248201527f45524332303a206275726e20616d6f756e7420657863656564732062616c616e604482015261636560f01b60648201526084016108cc565b6001600160a01b03831660008181526033602090815260408083208686039055603580548790039055518581529192917fddf252ad1be2c89b69c2b068fc378daa952ba7f163c4a11628f55a4df523b3ef910160405180910390a3505050565b6060824710156126eb5760405162461bcd60e51b815260206004820152602660248201527f416464726573733a20696e73756666696369656e742062616c616e636520666f6044820152651c8818d85b1b60d21b60648201526084016108cc565b600080866001600160a01b031685876040516127079190612bbe565b60006040518083038185875af1925050503d8060008114612744576040519150601f19603f3d011682016040523d82523d6000602084013e612749565b606091505b509150915061275a87838387612765565b979650505050505050565b606083156127d15782516127ca576001600160a01b0385163b6127ca5760405162461bcd60e51b815260206004820152601d60248201527f416464726573733a2063616c6c20746f206e6f6e2d636f6e747261637400000060448201526064016108cc565b5081611286565b61128683838151156127e65781518083602001fd5b8060405162461bcd60e51b81526004016108cc9190612c3a565b82805461280c90612f47565b90600052602060002090601f01602090048101928261282e5760008555612874565b82601f1061284757805160ff1916838001178555612874565b82800160010185558215612874579182015b82811115612874578251825591602001919060010190612859565b50612880929150612884565b5090565b5b808211156128805760008155600101612885565b600082601f8301126128aa57600080fd5b81356128bd6128b882612d31565b612d00565b8181528460208386010111156128d257600080fd5b816020850160208301376000918101602001919091529392505050565b60006020828403121561290157600080fd5b8135610c0d81612fda565b60006020828403121561291e57600080fd5b8151610c0d81612fda565b6000806040838503121561293c57600080fd5b823561294781612fda565b9150602083013561295781612fda565b809150509250929050565b6000806000806080858703121561297857600080fd5b843561298381612fda565b9350602085013561299381612fda565b9250604085013567ffffffffffffffff808211156129b057600080fd5b6129bc88838901612899565b935060608701359150808211156129d257600080fd5b506129df87828801612899565b91505092959194509250565b600080600060608486031215612a0057600080fd5b8335612a0b81612fda565b92506020840135612a1b81612fda565b929592945050506040919091013590565b60008060408385031215612a3f57600080fd5b8235612a4a81612fda565b946020939093013593505050565b600060208284031215612a6a57600080fd5b8135610c0d81612fef565b600060208284031215612a8757600080fd5b8151610c0d81612fef565b600060208284031215612aa457600080fd5b815167ffffffffffffffff811115612abb57600080fd5b8201601f81018413612acc57600080fd5b8051612ada6128b882612d31565b818152856020838501011115612aef57600080fd5b611ed4826020830160208601612f1b565b600060208284031215612b1257600080fd5b5035919050565b600060208284031215612b2b57600080fd5b5051919050565b60008060408385031215612b4557600080fd5b82359150602083013561295781612fda565b600080600060608486031215612b6c57600080fd5b833592506020840135612b7e81612fda565b91506040840135612b8e81612fda565b809150509250925092565b60008060408385031215612bac57600080fd5b82359150602083013561295781612fef565b60008251612bd0818460208701612f1b565b9190910192915050565b60008351612bec818460208801612f1b565b835190830190612c00818360208801612f1b565b01949350505050565b680102a3930b731b432960bd1b815260008251612c2d816009850160208701612f1b565b9190910160090192915050565b6020815260008251806020840152612c59816040850160208701612f1b565b601f01601f19169190910160400192915050565b6020808252600c908201526b4d414e414745525f4f4e4c5960a01b604082015260600190565b6020808252602b908201527f496e697469616c697a61626c653a20636f6e7472616374206973206e6f74206960408201526a6e697469616c697a696e6760a81b606082015260800190565b602080825260089082015267474f565f4f4e4c5960c01b604082015260600190565b604051601f8201601f1916810167ffffffffffffffff81118282101715612d2957612d29612fc4565b604052919050565b600067ffffffffffffffff821115612d4b57612d4b612fc4565b50601f01601f191660200190565b60008219821115612d6c57612d6c612f82565b500190565b600060ff821660ff84168060ff03821115612d8e57612d8e612f82565b019392505050565b600082612db357634e487b7160e01b600052601260045260246000fd5b500490565b600181815b80851115612df3578160001904821115612dd957612dd9612f82565b80851615612de657918102915b93841c9390800290612dbd565b509250929050565b6000610c0d60ff841683600082612e1457506001610835565b81612e2157506000610835565b8160018114612e375760028114612e4157612e5d565b6001915050610835565b60ff841115612e5257612e52612f82565b50506001821b610835565b5060208310610133831016604e8410600b8410161715612e80575081810a610835565b612e8a8383612db8565b8060001904821115612e9e57612e9e612f82565b029392505050565b6000816000190483118215151615612ec057612ec0612f82565b500290565b60008083128015600160ff1b850184121615612ee357612ee3612f82565b6001600160ff1b0384018313811615612efe57612efe612f82565b50500390565b600082821015612f1657612f16612f82565b500390565b60005b83811015612f36578181015183820152602001612f1e565b83811115611ac35750506000910152565b600181811c90821680612f5b57607f821691505b60208210811415612f7c57634e487b7160e01b600052602260045260246000fd5b50919050565b634e487b7160e01b600052601160045260246000fd5b634e487b7160e01b600052601260045260246000fd5b634e487b7160e01b600052602160045260246000fd5b634e487b7160e01b600052604160045260246000fd5b6001600160a01b03811681146108de57600080fd5b80151581146108de57600080fdfea2646970667358221220c8e8b2e71c423736003cd1b2351499f9497152a58d7207700578900d8c76381b64736f6c63430008070033","linkReferences":{}},"methodIdentifiers":{"allowance(address,address)":"dd62ed3e","approve(address,uint256)":"095ea7b3","asset()":"38d52e0f","balanceOf(address)":"70a08231","balancingFee(uint256,bool)":"207a9855","collateralHealthFee()":"ede5bed1","convertToAssets(uint256)":"07a2d13a","convertToShares(uint256)":"c6e6f592","decimals()":"313ce567","decreaseAllowance(address,uint256)":"a457c2d7","deposit(uint256,address)":"6e553f65","depositCap()":"dbd5edc7","feesOn()":"cd653ee6","getDepositFeesRaw(uint256)":"83000097","getDepositFeesTotal(uint256)":"44907a40","getWithdrawalFeesRaw(uint256)":"424ea9fe","getWithdrawalFeesTotal(uint256)":"aecb019c","hasLiquidity(uint256)":"3dcbdf40","increaseAllowance(address,uint256)":"39509351","initialize(address,address,string,string)":"2016a0d2","maxDeposit(address)":"402d267d","maxMint(address)":"c63d75b6","maxRedeem(address)":"d905777e","maxWithdraw(address)":"ce96cb77","mint(uint256,address)":"94bf804d","name()":"06fdde03","previewDeposit(uint256)":"ef8b30f7","previewMint(uint256)":"b3d7f6b9","previewRedeem(uint256)":"4cdad506","previewWithdraw(uint256)":"0a28a477","principalAssetsDeposited(address)":"ba121140","principalSharesDeposited(address)":"af17788c","redeem(uint256,address,address)":"ba087652","releaseBalance(uint256)":"76079be3","reserveBalance(uint256)":"14269687","setCap(uint256)":"47786d37","setFeesOn(bool)":"675ef65c","setVaultManager(address)":"b543503e","setVeTranche(address)":"8c9fcc69","setWithdrawThreshold(uint256)":"feefd7dd","symbol()":"95d89b41","totalAssets()":"01e1d114","totalPrincipalDeposited()":"8070bb28","totalReserved()":"c71b0e1c","totalSupply()":"18160ddd","transfer(address,uint256)":"a9059cbb","transferFrom(address,address,uint256)":"23b872dd","utilizationRatio()":"0b231cbe","vaultManager()":"8a4adf24","veTranche()":"e53a788a","withdraw(uint256,address,address)":"b460af94","withdrawAsVaultManager(uint256)":"a5b5ff7c","withdrawThreshold()":"760ee4c6"},"id":111}