{"abi":[{"type":"constructor","inputs":[],"stateMutability":"nonpayable"},{"type":"function","name":"approve","inputs":[{"name":"to","type":"address","internalType":"address"},{"name":"tokenId","type":"uint256","internalType":"uint256"}],"outputs":[],"stateMutability":"nonpayable"},{"type":"function","name":"balanceOf","inputs":[{"name":"owner","type":"address","internalType":"address"}],"outputs":[{"name":"","type":"uint256","internalType":"uint256"}],"stateMutability":"view"},{"type":"function","name":"checkUnlockFee","inputs":[{"name":"tokenId","type":"uint256","internalType":"uint256"}],"outputs":[{"name":"","type":"uint256","internalType":"uint256"}],"stateMutability":"view"},{"type":"function","name":"claimRewards","inputs":[{"name":"tokenId","type":"uint256","internalType":"uint256"}],"outputs":[],"stateMutability":"nonpayable"},{"type":"function","name":"distributeReward","inputs":[{"name":"reward","type":"uint256","internalType":"uint256"},{"name":"tokenId","type":"uint256","internalType":"uint256"}],"outputs":[],"stateMutability":"nonpayable"},{"type":"function","name":"distributeRewards","inputs":[{"name":"rewards","type":"uint256","internalType":"uint256"}],"outputs":[{"name":"","type":"uint256","internalType":"uint256"}],"stateMutability":"nonpayable"},{"type":"function","name":"forceUnlock","inputs":[{"name":"_tokenId","type":"uint256","internalType":"uint256"}],"outputs":[],"stateMutability":"nonpayable"},{"type":"function","name":"getApproved","inputs":[{"name":"tokenId","type":"uint256","internalType":"uint256"}],"outputs":[{"name":"","type":"address","internalType":"address"}],"stateMutability":"view"},{"type":"function","name":"getEarlyWithdrawFee","inputs":[{"name":"assets","type":"uint256","internalType":"uint256"}],"outputs":[{"name":"","type":"uint256","internalType":"uint256"}],"stateMutability":"view"},{"type":"function","name":"getLockPoints","inputs":[{"name":"timeLocked","type":"uint256","internalType":"uint256"}],"outputs":[{"name":"","type":"uint256","internalType":"uint256"}],"stateMutability":"view"},{"type":"function","name":"getMaxLockTime","inputs":[],"outputs":[{"name":"","type":"uint256","internalType":"uint256"}],"stateMutability":"view"},{"type":"function","name":"getMinLockTime","inputs":[],"outputs":[{"name":"","type":"uint256","internalType":"uint256"}],"stateMutability":"view"},{"type":"function","name":"getTotalLockPoints","inputs":[],"outputs":[{"name":"","type":"uint256","internalType":"uint256"}],"stateMutability":"view"},{"type":"function","name":"initialize","inputs":[{"name":"_tranche","type":"address","internalType":"address"},{"name":"_vaultManager","type":"address","internalType":"address"}],"outputs":[],"stateMutability":"nonpayable"},{"type":"function","name":"isApprovedForAll","inputs":[{"name":"owner","type":"address","internalType":"address"},{"name":"operator","type":"address","internalType":"address"}],"outputs":[{"name":"","type":"bool","internalType":"bool"}],"stateMutability":"view"},{"type":"function","name":"lastSharePoint","inputs":[{"name":"","type":"uint256","internalType":"uint256"}],"outputs":[{"name":"","type":"uint256","internalType":"uint256"}],"stateMutability":"view"},{"type":"function","name":"lock","inputs":[{"name":"shares","type":"uint256","internalType":"uint256"},{"name":"duration","type":"uint256","internalType":"uint256"}],"outputs":[{"name":"","type":"uint256","internalType":"uint256"}],"stateMutability":"nonpayable"},{"type":"function","name":"lockMultiplierByTokenId","inputs":[{"name":"","type":"uint256","internalType":"uint256"}],"outputs":[{"name":"","type":"uint256","internalType":"uint256"}],"stateMutability":"view"},{"type":"function","name":"lockStartTimeByTokenId","inputs":[{"name":"","type":"uint256","internalType":"uint256"}],"outputs":[{"name":"","type":"uint256","internalType":"uint256"}],"stateMutability":"view"},{"type":"function","name":"lockTimeByTokenId","inputs":[{"name":"","type":"uint256","internalType":"uint256"}],"outputs":[{"name":"","type":"uint256","internalType":"uint256"}],"stateMutability":"view"},{"type":"function","name":"multiplierCoeff","inputs":[],"outputs":[{"name":"","type":"uint256","internalType":"uint256"}],"stateMutability":"view"},{"type":"function","name":"multiplierDenom","inputs":[],"outputs":[{"name":"","type":"uint256","internalType":"uint256"}],"stateMutability":"view"},{"type":"function","name":"name","inputs":[],"outputs":[{"name":"","type":"string","internalType":"string"}],"stateMutability":"view"},{"type":"function","name":"ownerOf","inputs":[{"name":"tokenId","type":"uint256","internalType":"uint256"}],"outputs":[{"name":"","type":"address","internalType":"address"}],"stateMutability":"view"},{"type":"function","name":"rewardsByTokenId","inputs":[{"name":"","type":"uint256","internalType":"uint256"}],"outputs":[{"name":"","type":"uint256","internalType":"uint256"}],"stateMutability":"view"},{"type":"function","name":"rewardsDistributedPerSharePerLockPoint","inputs":[],"outputs":[{"name":"","type":"uint256","internalType":"uint256"}],"stateMutability":"view"},{"type":"function","name":"safeTransferFrom","inputs":[{"name":"from","type":"address","internalType":"address"},{"name":"to","type":"address","internalType":"address"},{"name":"tokenId","type":"uint256","internalType":"uint256"}],"outputs":[],"stateMutability":"nonpayable"},{"type":"function","name":"safeTransferFrom","inputs":[{"name":"from","type":"address","internalType":"address"},{"name":"to","type":"address","internalType":"address"},{"name":"tokenId","type":"uint256","internalType":"uint256"},{"name":"data","type":"bytes","internalType":"bytes"}],"outputs":[],"stateMutability":"nonpayable"},{"type":"function","name":"setApprovalForAll","inputs":[{"name":"operator","type":"address","internalType":"address"},{"name":"approved","type":"bool","internalType":"bool"}],"outputs":[],"stateMutability":"nonpayable"},{"type":"function","name":"setMultiplierCoeff","inputs":[{"name":"_multiplierCoeff","type":"uint256","internalType":"uint256"}],"outputs":[],"stateMutability":"nonpayable"},{"type":"function","name":"setMultiplierDenom","inputs":[{"name":"_multiplierDenom","type":"uint256","internalType":"uint256"}],"outputs":[],"stateMutability":"nonpayable"},{"type":"function","name":"setVaultManager","inputs":[{"name":"_vaultManager","type":"address","internalType":"address"}],"outputs":[],"stateMutability":"nonpayable"},{"type":"function","name":"supportsInterface","inputs":[{"name":"interfaceId","type":"bytes4","internalType":"bytes4"}],"outputs":[{"name":"","type":"bool","internalType":"bool"}],"stateMutability":"view"},{"type":"function","name":"symbol","inputs":[],"outputs":[{"name":"","type":"string","internalType":"string"}],"stateMutability":"view"},{"type":"function","name":"tokenIds","inputs":[],"outputs":[{"name":"_value","type":"uint256","internalType":"uint256"}],"stateMutability":"view"},{"type":"function","name":"tokenURI","inputs":[{"name":"tokenId","type":"uint256","internalType":"uint256"}],"outputs":[{"name":"","type":"string","internalType":"string"}],"stateMutability":"view"},{"type":"function","name":"tokensByTokenId","inputs":[{"name":"","type":"uint256","internalType":"uint256"}],"outputs":[{"name":"","type":"uint256","internalType":"uint256"}],"stateMutability":"view"},{"type":"function","name":"totalLockPoints","inputs":[],"outputs":[{"name":"","type":"uint256","internalType":"uint256"}],"stateMutability":"view"},{"type":"function","name":"tranche","inputs":[],"outputs":[{"name":"","type":"address","internalType":"contract ITranche"}],"stateMutability":"view"},{"type":"function","name":"transferFrom","inputs":[{"name":"from","type":"address","internalType":"address"},{"name":"to","type":"address","internalType":"address"},{"name":"tokenId","type":"uint256","internalType":"uint256"}],"outputs":[],"stateMutability":"nonpayable"},{"type":"function","name":"unlock","inputs":[{"name":"tokenId","type":"uint256","internalType":"uint256"}],"outputs":[],"stateMutability":"nonpayable"},{"type":"function","name":"vaultManager","inputs":[],"outputs":[{"name":"","type":"address","internalType":"contract IVaultManager"}],"stateMutability":"view"},{"type":"event","name":"Approval","inputs":[{"name":"owner","type":"address","indexed":true,"internalType":"address"},{"name":"approved","type":"address","indexed":true,"internalType":"address"},{"name":"tokenId","type":"uint256","indexed":true,"internalType":"uint256"}],"anonymous":false},{"type":"event","name":"ApprovalForAll","inputs":[{"name":"owner","type":"address","indexed":true,"internalType":"address"},{"name":"operator","type":"address","indexed":true,"internalType":"address"},{"name":"approved","type":"bool","indexed":false,"internalType":"bool"}],"anonymous":false},{"type":"event","name":"Initialized","inputs":[{"name":"version","type":"uint8","indexed":false,"internalType":"uint8"}],"anonymous":false},{"type":"event","name":"Locked","inputs":[{"name":"tokenId","type":"uint256","indexed":true,"internalType":"uint256"},{"name":"owner","type":"address","indexed":true,"internalType":"address"},{"name":"shares","type":"uint256","indexed":false,"internalType":"uint256"},{"name":"lockTime","type":"uint256","indexed":false,"internalType":"uint256"},{"name":"lockMultiplier","type":"uint256","indexed":false,"internalType":"uint256"}],"anonymous":false},{"type":"event","name":"NumberUpdated","inputs":[{"name":"name","type":"string","indexed":false,"internalType":"string"},{"name":"value","type":"uint256","indexed":false,"internalType":"uint256"}],"anonymous":false},{"type":"event","name":"RewardClaimed","inputs":[{"name":"tokenId","type":"uint256","indexed":true,"internalType":"uint256"},{"name":"owner","type":"address","indexed":true,"internalType":"address"},{"name":"amount","type":"uint256","indexed":false,"internalType":"uint256"}],"anonymous":false},{"type":"event","name":"RewardsDistributed","inputs":[{"name":"totalRewards","type":"uint256","indexed":false,"internalType":"uint256"},{"name":"totalLockPoints","type":"uint256","indexed":false,"internalType":"uint256"}],"anonymous":false},{"type":"event","name":"Transfer","inputs":[{"name":"from","type":"address","indexed":true,"internalType":"address"},{"name":"to","type":"address","indexed":true,"internalType":"address"},{"name":"tokenId","type":"uint256","indexed":true,"internalType":"uint256"}],"anonymous":false},{"type":"event","name":"Unlocked","inputs":[{"name":"tokenId","type":"uint256","indexed":true,"internalType":"uint256"},{"name":"owner","type":"address","indexed":true,"internalType":"address"},{"name":"shares","type":"uint256","indexed":false,"internalType":"uint256"},{"name":"fee","type":"uint256","indexed":false,"internalType":"uint256"}],"anonymous":false}],"bytecode":{"object":"0x60806040523480156200001157600080fd5b506200001c62000022565b620000e3565b600054610100900460ff16156200008f5760405162461bcd60e51b815260206004820152602760248201527f496e697469616c697a61626c653a20636f6e747261637420697320696e697469604482015266616c697a696e6760c81b606482015260840160405180910390fd5b60005460ff90811614620000e1576000805460ff191660ff9081179091556040519081527f7f26b83ff96e1f2b6a682f133852f6798a09c465da95921460cefb38474024989060200160405180910390a15b565b61350280620000f36000396000f3fe608060405234801561001057600080fd5b506004361061025e5760003560e01c80636ebc0af111610146578063b543503e116100c3578063cce5fe6611610087578063cce5fe6614610525578063d5a39b8014610538578063d76c475214610558578063e3bcd27c14610578578063e985e9c51461058b578063eae85bb8146105c757600080fd5b8063b543503e146104d1578063b88d4fde146104e4578063bf968a1b146104f7578063c87b56dd1461050a578063ca8f45bd1461051d57600080fd5b80638dab49cf1161010a5780638dab49cf14610485578063915276111461048e57806395d89b41146104ae578063a22cb465146104b6578063a4ba87e3146104c957600080fd5b80636ebc0af11461042257806370a0823114610435578063714cff5614610448578063814f76f7146104525780638a4adf241461047257600080fd5b806331f758c2116101df57806342842e0e116101a357806342842e0e146103ba578063485cc955146103cd57806359974e38146103e05780636198e339146103f35780636352211e146104065780636c05a98d1461041957600080fd5b806331f758c2146103635780633279cc861461037657806333d14c4914610396578063394e5fc21461039f57806341745008146103b257600080fd5b80630e662512116102265780630e662512146102f35780631338736f1461030a578063193f31e41461031d57806323b872dd14610330578063259c5f251461034357600080fd5b806301ffc9a71461026357806306fdde031461028b578063081812fc146102a0578063095ea7b3146102cb5780630962ef79146102e0575b600080fd5b610276610271366004612eaf565b6105da565b60405190151581526020015b60405180910390f35b61029361062c565b60405161028291906130b9565b6102b36102ae366004612f57565b6106be565b6040516001600160a01b039091168152602001610282565b6102de6102d9366004612e66565b6106e5565b005b6102de6102ee366004612f57565b610800565b6102fc60cd5481565b604051908152602001610282565b6102fc610318366004612f89565b610844565b6102fc61032b366004612f57565b610b8d565b6102de61033e366004612d48565b610c26565b6102fc610351366004612f57565b60d06020526000908152604090205481565b6102de610371366004612f57565b610c57565b6102fc610384366004612f57565b60d46020526000908152604090205481565b6102fc60cc5481565b6102de6103ad366004612f57565b610dba565b6102fc610f16565b6102de6103c8366004612d48565b610f98565b6102de6103db366004612d0f565b610fb3565b6102fc6103ee366004612f57565b611254565b6102de610401366004612f57565b6112a9565b6102b3610414366004612f57565b611584565b6102fc60cf5481565b60ca546102b3906001600160a01b031681565b6102fc610443366004612cd5565b6115e3565b60c9546102fc9081565b6102fc610460366004612f57565b60d26020526000908152604090205481565b60cb546102b3906001600160a01b031681565b6102fc60ce5481565b6102fc61049c366004612f57565b60d16020526000908152604090205481565b610293611669565b6102de6104c4366004612e38565b611678565b6102fc611687565b6102de6104df366004612cd5565b61169a565b6102de6104f2366004612d89565b6117ba565b6102de610505366004612f57565b6117f2565b610293610518366004612f57565b611a3f565b6102fc611ab3565b6102fc610533366004612f57565b611af8565b6102fc610546366004612f57565b60d36020526000908152604090205481565b6102fc610566366004612f57565b60d56020526000908152604090205481565b6102de610586366004612f89565b611b88565b610276610599366004612d0f565b6001600160a01b039182166000908152606a6020908152604080832093909416825291909152205460ff1690565b6102fc6105d5366004612f57565b611bf8565b60006001600160e01b031982166380ac58cd60e01b148061060b57506001600160e01b03198216635b5e139f60e01b145b8061062657506301ffc9a760e01b6001600160e01b03198316145b92915050565b60606065805461063b90613400565b80601f016020809104026020016040519081016040528092919081815260200182805461066790613400565b80156106b45780601f10610689576101008083540402835291602001916106b4565b820191906000526020600020905b81548152906001019060200180831161069757829003601f168201915b5050505050905090565b60006106c982611d0b565b506000908152606960205260409020546001600160a01b031690565b60006106f082611584565b9050806001600160a01b0316836001600160a01b031614156107635760405162461bcd60e51b815260206004820152602160248201527f4552433732313a20617070726f76616c20746f2063757272656e74206f776e656044820152603960f91b60648201526084015b60405180910390fd5b336001600160a01b038216148061077f575061077f8133610599565b6107f15760405162461bcd60e51b815260206004820152603d60248201527f4552433732313a20617070726f76652063616c6c6572206973206e6f7420746f60448201527f6b656e206f776e6572206f7220617070726f76656420666f7220616c6c000000606482015260840161075a565b6107fb8383611d5b565b505050565b610808611dc9565b61081181611e23565b6001600160a01b0316336001600160a01b03161461082e57600080fd5b61083781611e3e565b6108416001609755565b50565b600061084e611dc9565b610856610f16565b82111561089a5760405162461bcd60e51b81526020600482015260126024820152714f5645525f4d41585f4c4f434b5f54494d4560701b604482015260640161075a565b6108a2611ab3565b8210156108e75760405162461bcd60e51b81526020600482015260136024820152721313d0d2d7d512535157d513d3d7d4d3505313606a1b604482015260640161075a565b6000831161092d5760405162461bcd60e51b81526020600482015260136024820152724c4f434b5f414d4f554e545f49535f5a45524f60681b604482015260640161075a565b60ca546040516370a0823160e01b815233600482015284916001600160a01b0316906370a082319060240160206040518083038186803b15801561097057600080fd5b505afa158015610984573d6000803e3d6000fd5b505050506040513d601f19601f820116820180604052508101906109a89190612f70565b10156109f65760405162461bcd60e51b815260206004820152601b60248201527f494e53554646494349454e545f5452414e4348455f544f4b454e530000000000604482015260640161075a565b6000610a0160c95490565b60ca546040516323b872dd60e01b8152336004820152306024820152604481018790529192506001600160a01b0316906323b872dd90606401602060405180830381600087803b158015610a5457600080fd5b505af1158015610a68573d6000803e3d6000fd5b505050506040513d601f19601f82011682018060405250810190610a8c9190612e92565b50610a973382611f6d565b600081815260d160205260409020849055610ab28342613276565b600082815260d2602090815260408083209390935560d3815282822042905560d0905290812055610ae283611af8565b600082815260d46020818152604080842094855560ce5460d58352932092909255905254610b10908561339e565b60cf6000828254610b219190613276565b909155505060c980546001019055600081815260d46020908152604091829020548251878152918201869052818301529051339183917fd5987d72b516fb12b1d31e6a7ab75f0c975e512aba9225ebbbb1b58c25cbb7a79181900360600190a390506106266001609755565b600081815260d26020526040812054421015610c1e57600082815260d16020526040812054610bbb90611bf8565b9050801561062657600083815260d26020526040812054610bdd9042906133bd565b600085815260d3602090815260408083205460d29092528220549293509091610c0691906133bd565b9050610c1583838360016120da565b95945050505050565b506000919050565b610c303382612139565b610c4c5760405162461bcd60e51b815260040161075a906130cc565b6107fb8383836121b7565b60cb60009054906101000a90046001600160a01b03166001600160a01b03166312d43a516040518163ffffffff1660e01b815260040160206040518083038186803b158015610ca557600080fd5b505afa158015610cb9573d6000803e3d6000fd5b505050506040513d601f19601f82011682018060405250810190610cdd9190612cf2565b6001600160a01b0316336001600160a01b031614610d0d5760405162461bcd60e51b815260040161075a906131fb565b60008111610d4e5760405162461bcd60e51b815260206004820152600e60248201526d13955350915497d253959053125160921b604482015260640161075a565b60cd819055604080518181526016918101919091527526bab63a34b83634b2b9102232b737b6b4b730ba37b960511b6060820152602081018290527f8cf3e35f6221b16e1670a3413180c9484bf5aa71787905909fa82a6a2662e9ab906080015b60405180910390a150565b60cb60009054906101000a90046001600160a01b03166001600160a01b03166312d43a516040518163ffffffff1660e01b815260040160206040518083038186803b158015610e0857600080fd5b505afa158015610e1c573d6000803e3d6000fd5b505050506040513d601f19601f82011682018060405250810190610e409190612cf2565b6001600160a01b0316336001600160a01b031614610e705760405162461bcd60e51b815260040161075a906131fb565b60008111610eb15760405162461bcd60e51b815260206004820152600e60248201526d13955350915497d253959053125160921b604482015260640161075a565b60cc8190556040805181815260169181019190915275135d5b1d1a5c1b1a595c8810dbd959999a58da595b9d60521b6060820152602081018290527f8cf3e35f6221b16e1670a3413180c9484bf5aa71787905909fa82a6a2662e9ab90608001610daf565b60cb5460408051636984708760e11b815290516000926001600160a01b03169163d308e10e916004808301926020929190829003018186803b158015610f5b57600080fd5b505afa158015610f6f573d6000803e3d6000fd5b505050506040513d601f19601f82011682018060405250810190610f939190612f70565b905090565b6107fb838383604051806020016040528060008152506117ba565b600054610100900460ff1615808015610fd35750600054600160ff909116105b80610fed5750303b158015610fed575060005460ff166001145b6110505760405162461bcd60e51b815260206004820152602e60248201527f496e697469616c697a61626c653a20636f6e747261637420697320616c72656160448201526d191e481a5b9a5d1a585b1a5e995960921b606482015260840161075a565b6000805460ff191660011790558015611073576000805461ff0019166101001790555b60ca80546001600160a01b038086166001600160a01b03199283161790925560cb805492851692909116919091179055630ad1786060cc556110bb620f4240621de92661339e565b60cd5560ca54604080516306fdde0360e01b81529051611202926001600160a01b0316916306fdde03916004808301926000929190829003018186803b15801561110457600080fd5b505afa158015611118573d6000803e3d6000fd5b505050506040513d6000823e601f3d908101601f191682016040526111409190810190612ee9565b6040516020016111509190613022565b60408051601f1981840301815282825260ca546395d89b4160e01b8452915190926001600160a01b03909216916395d89b41916004808301926000929190829003018186803b1580156111a257600080fd5b505afa1580156111b6573d6000803e3d6000fd5b505050506040513d6000823e601f3d908101601f191682016040526111de9190810190612ee9565b6040516020016111ee9190613051565b60405160208183030381529060405261231b565b61120a612369565b80156107fb576000805461ff0019169055604051600181527f7f26b83ff96e1f2b6a682f133852f6798a09c465da95921460cefb38474024989060200160405180910390a1505050565b60cb546000906001600160a01b031633146112a05760405162461bcd60e51b815260206004820152600c60248201526b4d414e414745525f4f4e4c5960a01b604482015260640161075a565b61062682612390565b6112b1611dc9565b600081815260d160205260409020546113005760405162461bcd60e51b81526020600482015260116024820152704e4f5448494e475f544f5f554e4c4f434b60781b604482015260640161075a565b61130981611584565b6001600160a01b0316336001600160a01b0316146113555760405162461bcd60e51b81526020600482015260096024820152682727aa2fa7aba722a960b91b604482015260640161075a565b600061136082610b8d565b905061136b82611e3e565b6113748261241d565b60ca54600083815260d160205260409020546001600160a01b039091169063a9059cbb9033906113a59085906133bd565b6040516001600160e01b031960e085901b1681526001600160a01b0390921660048301526024820152604401602060405180830381600087803b1580156113eb57600080fd5b505af11580156113ff573d6000803e3d6000fd5b505050506040513d601f19601f820116820180604052508101906114239190612e92565b5060ca5460cb5460405163a9059cbb60e01b81526001600160a01b0391821660048201526024810184905291169063a9059cbb90604401602060405180830381600087803b15801561147457600080fd5b505af1158015611488573d6000803e3d6000fd5b505050506040513d601f19601f820116820180604052508101906114ac9190612e92565b50600082815260d16020908152604091829020548251908152908101839052339184917f264527c9df24015c81d07cee6ed0aaa3cb7dae31d37f68c16c15c9f8f89fba7b910160405180910390a3600082815260d4602090815260408083205460d19092529091205461151f919061339e565b60cf600082825461153091906133bd565b909155505050600081815260d16020908152604080832083905560d0825280832083905560d2825280832083905560d3825280832083905560d4825280832083905560d59091528120556108416001609755565b60008061159083611e23565b90506001600160a01b0381166106265760405162461bcd60e51b8152602060048201526018602482015277115490cdcc8c4e881a5b9d985b1a59081d1bdad95b88125160421b604482015260640161075a565b60006001600160a01b03821661164d5760405162461bcd60e51b815260206004820152602960248201527f4552433732313a2061646472657373207a65726f206973206e6f7420612076616044820152683634b21037bbb732b960b91b606482015260840161075a565b506001600160a01b031660009081526068602052604090205490565b60606066805461063b90613400565b6116833383836124b2565b5050565b6000620f424060cf54610f93919061328e565b60cb60009054906101000a90046001600160a01b03166001600160a01b03166312d43a516040518163ffffffff1660e01b815260040160206040518083038186803b1580156116e857600080fd5b505afa1580156116fc573d6000803e3d6000fd5b505050506040513d601f19601f820116820180604052508101906117209190612cf2565b6001600160a01b0316336001600160a01b0316146117505760405162461bcd60e51b815260040161075a906131fb565b6001600160a01b0381166117985760405162461bcd60e51b815260206004820152600f60248201526e105111149154d4d7d2539590531251608a1b604482015260640161075a565b60cb80546001600160a01b0319166001600160a01b0392909216919091179055565b6117c43383612139565b6117e05760405162461bcd60e51b815260040161075a906130cc565b6117ec84848484612581565b50505050565b6117fa611dc9565b600081815260d2602052604090205442116118435760405162461bcd60e51b8152602060048201526009602482015268544f4f5f4541524c5960b81b604482015260640161075a565b600081815260d160205260409020546118925760405162461bcd60e51b81526020600482015260116024820152704e4f5448494e475f544f5f554e4c4f434b60781b604482015260640161075a565b61189b81611e3e565b60ca546001600160a01b031663a9059cbb6118b583611e23565b600084815260d160205260409081902054905160e084901b6001600160e01b03191681526001600160a01b0390921660048301526024820152604401602060405180830381600087803b15801561190b57600080fd5b505af115801561191f573d6000803e3d6000fd5b505050506040513d601f19601f820116820180604052508101906119439190612e92565b5061194d8161241d565b61195681611e23565b6001600160a01b0316817f264527c9df24015c81d07cee6ed0aaa3cb7dae31d37f68c16c15c9f8f89fba7b60d160008581526020019081526020016000205460006040516119ae929190918252602082015260400190565b60405180910390a3600081815260d4602090815260408083205460d1909252909120546119db919061339e565b60cf60008282546119ec91906133bd565b9091555050600081815260d16020908152604080832083905560d0825280832083905560d2825280832083905560d3825280832083905560d4825280832083905560d59091528120556108416001609755565b6060611a4a82611d0b565b6000611a6160408051602081019091526000815290565b90506000815111611a815760405180602001604052806000815250611aac565b80611a8b846125b4565b604051602001611a9c929190612ff3565b6040516020818303038152906040525b9392505050565b60cb5460408051635307fbb360e11b815290516000926001600160a01b03169163a60ff766916004808301926020929190829003018186803b158015610f5b57600080fd5b600080611b03611ab3565b8311611b10576000611b30565b62015180611b1c611ab3565b611b2690856133bd565b611b30919061328e565b9050600062030d409050600060cd54620f424060cc54600286611b5391906132f3565b611b5d919061339e565b611b67919061339e565b611b71919061328e565b611b7e83620f4240613276565b610c159190613276565b60cb546001600160a01b03163314611bd15760405162461bcd60e51b815260206004820152600c60248201526b4d414e414745525f4f4e4c5960a01b604482015260640161075a565b600081815260d0602052604081208054849290611bef908490613276565b90915550505050565b60ca54604080516366b29f7360e11b815290516000926001600160a01b03169163cd653ee6916004808301926020929190829003018186803b158015611c3d57600080fd5b505afa158015611c51573d6000803e3d6000fd5b505050506040513d601f19601f82011682018060405250810190611c759190612e92565b611c80576000610626565b60cb54604080516354053c4160e11b81529051610626926001600160a01b03169163a80a7882916004808301926020929190829003018186803b158015611cc657600080fd5b505afa158015611cda573d6000803e3d6000fd5b505050506040513d601f19601f82011682018060405250810190611cfe9190612f70565b8390620186a060016120da565b611d1481612651565b6108415760405162461bcd60e51b8152602060048201526018602482015277115490cdcc8c4e881a5b9d985b1a59081d1bdad95b88125160421b604482015260640161075a565b600081815260696020526040902080546001600160a01b0319166001600160a01b0384169081179091558190611d9082611584565b6001600160a01b03167f8c5be1e5ebec7d5bd14f71427d1e84f3dd0314c0f7b2291e5b200ac8c7c3b92560405160405180910390a45050565b60026097541415611e1c5760405162461bcd60e51b815260206004820152601f60248201527f5265656e7472616e637947756172643a207265656e7472616e742063616c6c00604482015260640161075a565b6002609755565b6000908152606760205260409020546001600160a01b031690565b611e478161266e565b600081815260d06020526040902054156108415760ca54604080516338d52e0f60e01b81529051611ef6926001600160a01b0316916338d52e0f916004808301926020929190829003018186803b158015611ea157600080fd5b505afa158015611eb5573d6000803e3d6000fd5b505050506040513d601f19601f82011682018060405250810190611ed99190612cf2565b611ee283611e23565b600084815260d06020526040902054612729565b611eff81611e23565b6001600160a01b0316817f24b5efa61dd1cfc659205a97fb8ed868f3cb8c81922bab2b96423e5de1de2cb760d0600085815260200190815260200160002054604051611f4d91815260200190565b60405180910390a3600090815260d06020526040812055565b6001609755565b6001600160a01b038216611fc35760405162461bcd60e51b815260206004820181905260248201527f4552433732313a206d696e7420746f20746865207a65726f2061646472657373604482015260640161075a565b611fcc81612651565b156120195760405162461bcd60e51b815260206004820152601c60248201527f4552433732313a20746f6b656e20616c7265616479206d696e74656400000000604482015260640161075a565b61202281612651565b1561206f5760405162461bcd60e51b815260206004820152601c60248201527f4552433732313a20746f6b656e20616c7265616479206d696e74656400000000604482015260640161075a565b6001600160a01b038216600081815260686020908152604080832080546001019055848352606790915280822080546001600160a01b0319168417905551839291907fddf252ad1be2c89b69c2b068fc378daa952ba7f163c4a11628f55a4df523b3ef908290a45050565b6000806120e886868661277b565b905060018360028111156120fe576120fe613467565b14801561211b57506000848061211657612116613451565b868809115b1561212e5761212b600182613276565b90505b90505b949350505050565b60008061214583611584565b9050806001600160a01b0316846001600160a01b0316148061218c57506001600160a01b038082166000908152606a602090815260408083209388168352929052205460ff165b806121315750836001600160a01b03166121a5846106be565b6001600160a01b031614949350505050565b826001600160a01b03166121ca82611584565b6001600160a01b0316146121f05760405162461bcd60e51b815260040161075a9061316b565b6001600160a01b0382166122525760405162461bcd60e51b8152602060048201526024808201527f4552433732313a207472616e7366657220746f20746865207a65726f206164646044820152637265737360e01b606482015260840161075a565b826001600160a01b031661226582611584565b6001600160a01b03161461228b5760405162461bcd60e51b815260040161075a9061316b565b600081815260696020908152604080832080546001600160a01b03199081169091556001600160a01b0387811680865260688552838620805460001901905590871680865283862080546001019055868652606790945282852080549092168417909155905184937fddf252ad1be2c89b69c2b068fc378daa952ba7f163c4a11628f55a4df523b3ef91a4505050565b600054610100900460ff166123425760405162461bcd60e51b815260040161075a906131b0565b8151612355906065906020850190612c3c565b5080516107fb906066906020840190612c3c565b600054610100900460ff16611f665760405162461bcd60e51b815260040161075a906131b0565b600061239a611687565b6123a86003620f42406132f3565b6123b2908461339e565b6123bc919061328e565b60ce60008282546123cd9190613276565b909155507f29e98ba00d07f171959c4ddcd2f3020debc7c52cf537a034d7e664340d098c6c9050826123fd611687565b6040805192835260208301919091520160405180910390a1610626611687565b600061242882611584565b905061243382611584565b600083815260696020908152604080832080546001600160a01b03199081169091556001600160a01b0385168085526068845282852080546000190190558785526067909352818420805490911690555192935084927fddf252ad1be2c89b69c2b068fc378daa952ba7f163c4a11628f55a4df523b3ef908390a45050565b816001600160a01b0316836001600160a01b031614156125145760405162461bcd60e51b815260206004820152601960248201527f4552433732313a20617070726f766520746f2063616c6c657200000000000000604482015260640161075a565b6001600160a01b038381166000818152606a6020908152604080832094871680845294825291829020805460ff191686151590811790915591519182527f17307eab39ab6107e8899845ad3d59bd9653f200f220920489ca2b5937696c31910160405180910390a3505050565b61258c8484846121b7565b61259884848484612865565b6117ec5760405162461bcd60e51b815260040161075a90613119565b606060006125c18361296f565b600101905060008167ffffffffffffffff8111156125e1576125e161347d565b6040519080825280601f01601f19166020018201604052801561260b576020820181803683370190505b5090508181016020015b600019016f181899199a1a9b1b9c1cb0b131b232b360811b600a86061a8153600a850494508461264457612649565b612615565b509392505050565b60008061265d83611e23565b6001600160a01b0316141592915050565b60ce54600082815260d5602052604090205414156126895750565b60006126996004620f42406132f3565b600083815260d4602090815260408083205460d183528184205460d590935292205460ce546126c891906133bd565b6126d2919061339e565b6126dc919061339e565b6126e6919061328e565b90508060d06000848152602001908152602001600020600082825461270b9190613276565b909155505060ce54600092835260d560205260409092209190915550565b604080516001600160a01b038416602482015260448082018490528251808303909101815260649091019091526020810180516001600160e01b031663a9059cbb60e01b1790526107fb908490612a47565b6000808060001985870985870292508281108382030391505080600014156127b6578382816127ac576127ac613451565b0492505050611aac565b8084116127fd5760405162461bcd60e51b81526020600482015260156024820152744d6174683a206d756c446976206f766572666c6f7760581b604482015260640161075a565b600084868809600260036001881981018916988990049182028318808302840302808302840302808302840302808302840302808302840302918202909203026000889003889004909101858311909403939093029303949094049190911702949350505050565b60006001600160a01b0384163b1561296757604051630a85bd0160e11b81526001600160a01b0385169063150b7a02906128a990339089908890889060040161307c565b602060405180830381600087803b1580156128c357600080fd5b505af19250505080156128f3575060408051601f3d908101601f191682019092526128f091810190612ecc565b60015b61294d573d808015612921576040519150601f19603f3d011682016040523d82523d6000602084013e612926565b606091505b5080516129455760405162461bcd60e51b815260040161075a90613119565b805181602001fd5b6001600160e01b031916630a85bd0160e11b149050612131565b506001612131565b60008072184f03e93ff9f4daa797ed6e38ed64bf6a1f0160401b83106129ae5772184f03e93ff9f4daa797ed6e38ed64bf6a1f0160401b830492506040015b6d04ee2d6d415b85acef810000000083106129da576d04ee2d6d415b85acef8100000000830492506020015b662386f26fc1000083106129f857662386f26fc10000830492506010015b6305f5e1008310612a10576305f5e100830492506008015b6127108310612a2457612710830492506004015b60648310612a36576064830492506002015b600a83106106265760010192915050565b6000612a9c826040518060400160405280602081526020017f5361666545524332303a206c6f772d6c6576656c2063616c6c206661696c6564815250856001600160a01b0316612b1c9092919063ffffffff16565b9050805160001480612abd575080806020019051810190612abd9190612e92565b6107fb5760405162461bcd60e51b815260206004820152602a60248201527f5361666545524332303a204552433230206f7065726174696f6e20646964206e6044820152691bdd081cdd58d8d9595960b21b606482015260840161075a565b6060612131848460008585600080866001600160a01b03168587604051612b439190612fd7565b60006040518083038185875af1925050503d8060008114612b80576040519150601f19603f3d011682016040523d82523d6000602084013e612b85565b606091505b5091509150612b9687838387612ba1565b979650505050505050565b60608315612c0d578251612c06576001600160a01b0385163b612c065760405162461bcd60e51b815260206004820152601d60248201527f416464726573733a2063616c6c20746f206e6f6e2d636f6e7472616374000000604482015260640161075a565b5081612131565b6121318383815115612c225781518083602001fd5b8060405162461bcd60e51b815260040161075a91906130b9565b828054612c4890613400565b90600052602060002090601f016020900481019282612c6a5760008555612cb0565b82601f10612c8357805160ff1916838001178555612cb0565b82800160010185558215612cb0579182015b82811115612cb0578251825591602001919060010190612c95565b50612cbc929150612cc0565b5090565b5b80821115612cbc5760008155600101612cc1565b600060208284031215612ce757600080fd5b8135611aac81613493565b600060208284031215612d0457600080fd5b8151611aac81613493565b60008060408385031215612d2257600080fd5b8235612d2d81613493565b91506020830135612d3d81613493565b809150509250929050565b600080600060608486031215612d5d57600080fd5b8335612d6881613493565b92506020840135612d7881613493565b929592945050506040919091013590565b60008060008060808587031215612d9f57600080fd5b8435612daa81613493565b93506020850135612dba81613493565b925060408501359150606085013567ffffffffffffffff811115612ddd57600080fd5b8501601f81018713612dee57600080fd5b8035612e01612dfc8261324e565b61321d565b818152886020838501011115612e1657600080fd5b8160208401602083013760006020838301015280935050505092959194509250565b60008060408385031215612e4b57600080fd5b8235612e5681613493565b91506020830135612d3d816134a8565b60008060408385031215612e7957600080fd5b8235612e8481613493565b946020939093013593505050565b600060208284031215612ea457600080fd5b8151611aac816134a8565b600060208284031215612ec157600080fd5b8135611aac816134b6565b600060208284031215612ede57600080fd5b8151611aac816134b6565b600060208284031215612efb57600080fd5b815167ffffffffffffffff811115612f1257600080fd5b8201601f81018413612f2357600080fd5b8051612f31612dfc8261324e565b818152856020838501011115612f4657600080fd5b610c158260208301602086016133d4565b600060208284031215612f6957600080fd5b5035919050565b600060208284031215612f8257600080fd5b5051919050565b60008060408385031215612f9c57600080fd5b50508035926020909101359150565b60008151808452612fc38160208601602086016133d4565b601f01601f19169290920160200192915050565b60008251612fe98184602087016133d4565b9190910192915050565b600083516130058184602088016133d4565b8351908301906130198183602088016133d4565b01949350505050565b6602637b1b5b2b2160cd1b8152600082516130448160078501602087016133d4565b9190910160070192915050565b6276652d60e81b81526000825161306f8160038501602087016133d4565b9190910160030192915050565b6001600160a01b03858116825284166020820152604081018390526080606082018190526000906130af90830184612fab565b9695505050505050565b602081526000611aac6020830184612fab565b6020808252602d908201527f4552433732313a2063616c6c6572206973206e6f7420746f6b656e206f776e6560408201526c1c881bdc88185c1c1c9bdd9959609a1b606082015260800190565b60208082526032908201527f4552433732313a207472616e7366657220746f206e6f6e20455243373231526560408201527131b2b4bb32b91034b6b83632b6b2b73a32b960711b606082015260800190565b60208082526025908201527f4552433732313a207472616e736665722066726f6d20696e636f72726563742060408201526437bbb732b960d91b606082015260800190565b6020808252602b908201527f496e697469616c697a61626c653a20636f6e7472616374206973206e6f74206960408201526a6e697469616c697a696e6760a81b606082015260800190565b602080825260089082015267474f565f4f4e4c5960c01b604082015260600190565b604051601f8201601f1916810167ffffffffffffffff811182821017156132465761324661347d565b604052919050565b600067ffffffffffffffff8211156132685761326861347d565b50601f01601f191660200190565b600082198211156132895761328961343b565b500190565b6000826132ab57634e487b7160e01b600052601260045260246000fd5b500490565b600181815b808511156132eb5781600019048211156132d1576132d161343b565b808516156132de57918102915b93841c93908002906132b5565b509250929050565b6000611aac60ff84168360008261330c57506001610626565b8161331957506000610626565b816001811461332f576002811461333957613355565b6001915050610626565b60ff84111561334a5761334a61343b565b50506001821b610626565b5060208310610133831016604e8410600b8410161715613378575081810a610626565b61338283836132b0565b80600019048211156133965761339661343b565b029392505050565b60008160001904831182151516156133b8576133b861343b565b500290565b6000828210156133cf576133cf61343b565b500390565b60005b838110156133ef5781810151838201526020016133d7565b838111156117ec5750506000910152565b600181811c9082168061341457607f821691505b6020821081141561343557634e487b7160e01b600052602260045260246000fd5b50919050565b634e487b7160e01b600052601160045260246000fd5b634e487b7160e01b600052601260045260246000fd5b634e487b7160e01b600052602160045260246000fd5b634e487b7160e01b600052604160045260246000fd5b6001600160a01b038116811461084157600080fd5b801515811461084157600080fd5b6001600160e01b03198116811461084157600080fdfea26469706673582212208dbb50872aae908aa811f6c25e796420e674ac08c40902205a46cab6e5838d9564736f6c63430008070033","linkReferences":{}},"methodIdentifiers":{"approve(address,uint256)":"095ea7b3","balanceOf(address)":"70a08231","checkUnlockFee(uint256)":"193f31e4","claimRewards(uint256)":"0962ef79","distributeReward(uint256,uint256)":"e3bcd27c","distributeRewards(uint256)":"59974e38","forceUnlock(uint256)":"bf968a1b","getApproved(uint256)":"081812fc","getEarlyWithdrawFee(uint256)":"eae85bb8","getLockPoints(uint256)":"cce5fe66","getMaxLockTime()":"41745008","getMinLockTime()":"ca8f45bd","getTotalLockPoints()":"a4ba87e3","initialize(address,address)":"485cc955","isApprovedForAll(address,address)":"e985e9c5","lastSharePoint(uint256)":"d76c4752","lock(uint256,uint256)":"1338736f","lockMultiplierByTokenId(uint256)":"3279cc86","lockStartTimeByTokenId(uint256)":"d5a39b80","lockTimeByTokenId(uint256)":"814f76f7","multiplierCoeff()":"33d14c49","multiplierDenom()":"0e662512","name()":"06fdde03","ownerOf(uint256)":"6352211e","rewardsByTokenId(uint256)":"259c5f25","rewardsDistributedPerSharePerLockPoint()":"8dab49cf","safeTransferFrom(address,address,uint256)":"42842e0e","safeTransferFrom(address,address,uint256,bytes)":"b88d4fde","setApprovalForAll(address,bool)":"a22cb465","setMultiplierCoeff(uint256)":"394e5fc2","setMultiplierDenom(uint256)":"31f758c2","setVaultManager(address)":"b543503e","supportsInterface(bytes4)":"01ffc9a7","symbol()":"95d89b41","tokenIds()":"714cff56","tokenURI(uint256)":"c87b56dd","tokensByTokenId(uint256)":"91527611","totalLockPoints()":"6c05a98d","tranche()":"6ebc0af1","transferFrom(address,address,uint256)":"23b872dd","unlock(uint256)":"6198e339","vaultManager()":"8a4adf24"},"id":113}