{"abi":[{"type":"constructor","inputs":[],"stateMutability":"nonpayable"},{"type":"function","name":"chainlinkValidityPeriod","inputs":[],"outputs":[{"name":"","type":"uint256","internalType":"uint256"}],"stateMutability":"view"},{"type":"function","name":"executions","inputs":[],"outputs":[{"name":"","type":"address","internalType":"contract IExecute"}],"stateMutability":"view"},{"type":"function","name":"forceCloseTradeMarket","inputs":[{"name":"_trader","type":"address","internalType":"address"},{"name":"_pairIndex","type":"uint256","internalType":"uint256"},{"name":"_index","type":"uint256","internalType":"uint256"},{"name":"_amount","type":"uint256","internalType":"uint256"},{"name":"_price","type":"uint256","internalType":"uint256"}],"outputs":[],"stateMutability":"nonpayable"},{"type":"function","name":"fulfill","inputs":[{"name":"orderId","type":"uint256","internalType":"uint256"},{"name":"priceUpdateData","type":"bytes[]","internalType":"bytes[]"}],"outputs":[],"stateMutability":"payable"},{"type":"function","name":"getOrder","inputs":[{"name":"_id","type":"uint256","internalType":"uint256"}],"outputs":[{"name":"","type":"tuple","internalType":"struct IPriceAggregator.Order","components":[{"name":"pairIndex","type":"uint256","internalType":"uint256"},{"name":"orderType","type":"uint8","internalType":"enum IPriceAggregator.OrderType"},{"name":"job","type":"bytes32","internalType":"bytes32"},{"name":"initiated","type":"bool","internalType":"bool"}]}],"stateMutability":"view"},{"type":"function","name":"getPrice","inputs":[{"name":"_pairIndex","type":"uint256","internalType":"uint256"},{"name":"_orderType","type":"uint8","internalType":"enum IPriceAggregator.OrderType"}],"outputs":[{"name":"","type":"uint256","internalType":"uint256"}],"stateMutability":"nonpayable"},{"type":"function","name":"initialize","inputs":[{"name":"_storageT","type":"address","internalType":"address"},{"name":"_pairsStorage","type":"address","internalType":"address"},{"name":"_executions","type":"address","internalType":"address"}],"outputs":[],"stateMutability":"nonpayable"},{"type":"function","name":"maxDeviationP","inputs":[{"name":"_pairIndex","type":"uint256","internalType":"uint256"},{"name":"_type","type":"uint8","internalType":"enum IPriceAggregator.OrderType"}],"outputs":[{"name":"","type":"uint256","internalType":"uint256"}],"stateMutability":"view"},{"type":"function","name":"openFeeP","inputs":[{"name":"_pairIndex","type":"uint256","internalType":"uint256"},{"name":"_leveragedPositionSize","type":"uint256","internalType":"uint256"},{"name":"_buy","type":"bool","internalType":"bool"}],"outputs":[{"name":"","type":"uint256","internalType":"uint256"}],"stateMutability":"view"},{"type":"function","name":"orders","inputs":[{"name":"","type":"uint256","internalType":"uint256"}],"outputs":[{"name":"pairIndex","type":"uint256","internalType":"uint256"},{"name":"orderType","type":"uint8","internalType":"enum IPriceAggregator.OrderType"},{"name":"job","type":"bytes32","internalType":"bytes32"},{"name":"initiated","type":"bool","internalType":"bool"}],"stateMutability":"view"},{"type":"function","name":"ordersAnswers","inputs":[{"name":"","type":"uint256","internalType":"uint256"},{"name":"","type":"uint256","internalType":"uint256"}],"outputs":[{"name":"","type":"uint256","internalType":"uint256"}],"stateMutability":"view"},{"type":"function","name":"pairsStorage","inputs":[],"outputs":[{"name":"","type":"address","internalType":"contract IPairStorage"}],"stateMutability":"view"},{"type":"function","name":"pendingMarginUpdateOrders","inputs":[{"name":"index","type":"uint256","internalType":"uint256"}],"outputs":[{"name":"","type":"tuple","internalType":"struct IPriceAggregator.PendingMarginUpdate","components":[{"name":"trader","type":"address","internalType":"address"},{"name":"pairIndex","type":"uint256","internalType":"uint256"},{"name":"index","type":"uint256","internalType":"uint256"},{"name":"_type","type":"uint8","internalType":"enum ITradingStorage.updateType"},{"name":"amount","type":"uint256","internalType":"uint256"},{"name":"tier","type":"uint256","internalType":"uint256"},{"name":"marginFees","type":"uint256","internalType":"uint256"},{"name":"oldLeverage","type":"uint256","internalType":"uint256"}]}],"stateMutability":"view"},{"type":"function","name":"pendingSlOrders","inputs":[{"name":"index","type":"uint256","internalType":"uint256"}],"outputs":[{"name":"","type":"tuple","internalType":"struct IPriceAggregator.PendingSl","components":[{"name":"trader","type":"address","internalType":"address"},{"name":"pairIndex","type":"uint256","internalType":"uint256"},{"name":"index","type":"uint256","internalType":"uint256"},{"name":"openPrice","type":"uint256","internalType":"uint256"},{"name":"buy","type":"bool","internalType":"bool"},{"name":"newSl","type":"uint256","internalType":"uint256"}]}],"stateMutability":"view"},{"type":"function","name":"pyth","inputs":[],"outputs":[{"name":"","type":"address","internalType":"contract IPyth"}],"stateMutability":"view"},{"type":"function","name":"setChainlinkValidityPeriod","inputs":[{"name":"_newPeriod","type":"uint256","internalType":"uint256"}],"outputs":[],"stateMutability":"nonpayable"},{"type":"function","name":"setPyth","inputs":[{"name":"pythContract","type":"address","internalType":"address"}],"outputs":[],"stateMutability":"nonpayable"},{"type":"function","name":"storageT","inputs":[],"outputs":[{"name":"","type":"address","internalType":"contract ITradingStorage"}],"stateMutability":"view"},{"type":"function","name":"storePendingMarginUpdateOrder","inputs":[{"name":"orderId","type":"uint256","internalType":"uint256"},{"name":"p","type":"tuple","internalType":"struct IPriceAggregator.PendingMarginUpdate","components":[{"name":"trader","type":"address","internalType":"address"},{"name":"pairIndex","type":"uint256","internalType":"uint256"},{"name":"index","type":"uint256","internalType":"uint256"},{"name":"_type","type":"uint8","internalType":"enum ITradingStorage.updateType"},{"name":"amount","type":"uint256","internalType":"uint256"},{"name":"tier","type":"uint256","internalType":"uint256"},{"name":"marginFees","type":"uint256","internalType":"uint256"},{"name":"oldLeverage","type":"uint256","internalType":"uint256"}]}],"outputs":[],"stateMutability":"nonpayable"},{"type":"function","name":"storePendingSlOrder","inputs":[{"name":"orderId","type":"uint256","internalType":"uint256"},{"name":"p","type":"tuple","internalType":"struct IPriceAggregator.PendingSl","components":[{"name":"trader","type":"address","internalType":"address"},{"name":"pairIndex","type":"uint256","internalType":"uint256"},{"name":"index","type":"uint256","internalType":"uint256"},{"name":"openPrice","type":"uint256","internalType":"uint256"},{"name":"buy","type":"bool","internalType":"bool"},{"name":"newSl","type":"uint256","internalType":"uint256"}]}],"outputs":[],"stateMutability":"nonpayable"},{"type":"function","name":"unregisterPendingMarginUpdateOrder","inputs":[{"name":"orderId","type":"uint256","internalType":"uint256"}],"outputs":[],"stateMutability":"nonpayable"},{"type":"function","name":"unregisterPendingSlOrder","inputs":[{"name":"orderId","type":"uint256","internalType":"uint256"}],"outputs":[],"stateMutability":"nonpayable"},{"type":"function","name":"updatePairsStorage","inputs":[{"name":"_pairsStorage","type":"address","internalType":"address"}],"outputs":[],"stateMutability":"nonpayable"},{"type":"function","name":"useBackUpOracleOnly","inputs":[{"name":"_start","type":"bool","internalType":"bool"}],"outputs":[],"stateMutability":"nonpayable"},{"type":"function","name":"useBackupOnly","inputs":[],"outputs":[{"name":"","type":"bool","internalType":"bool"}],"stateMutability":"view"},{"type":"event","name":"AddressUpdated","inputs":[{"name":"name","type":"string","indexed":false,"internalType":"string"},{"name":"a","type":"address","indexed":false,"internalType":"address"}],"anonymous":false},{"type":"event","name":"BackUpTriggered","inputs":[{"name":"_start","type":"bool","indexed":false,"internalType":"bool"}],"anonymous":false},{"type":"event","name":"BackupPriceReceived","inputs":[{"name":"orderId","type":"uint256","indexed":false,"internalType":"uint256"},{"name":"pairIndex","type":"uint256","indexed":false,"internalType":"uint256"},{"name":"price","type":"uint256","indexed":false,"internalType":"uint256"}],"anonymous":false},{"type":"event","name":"Initialized","inputs":[{"name":"version","type":"uint8","indexed":false,"internalType":"uint8"}],"anonymous":false},{"type":"event","name":"NumberUpdated","inputs":[{"name":"name","type":"string","indexed":false,"internalType":"string"},{"name":"value","type":"uint256","indexed":false,"internalType":"uint256"}],"anonymous":false},{"type":"event","name":"PriceReceived","inputs":[{"name":"orderId","type":"uint256","indexed":false,"internalType":"uint256"},{"name":"pairIndex","type":"uint256","indexed":false,"internalType":"uint256"},{"name":"price","type":"uint256","indexed":false,"internalType":"uint256"}],"anonymous":false},{"type":"event","name":"PythUpdated","inputs":[{"name":"a","type":"address","indexed":false,"internalType":"address"}],"anonymous":false},{"type":"event","name":"chainlinkValidityPeriodSet","inputs":[{"name":"_newPeriod","type":"uint256","indexed":false,"internalType":"uint256"}],"anonymous":false}],"bytecode":{"object":"0x60806040523480156200001157600080fd5b506200001c62000022565b620000e3565b600054610100900460ff16156200008f5760405162461bcd60e51b815260206004820152602760248201527f496e697469616c697a61626c653a20636f6e747261637420697320696e697469604482015266616c697a696e6760c81b606482015260840160405180910390fd5b60005460ff90811614620000e1576000805460ff191660ff9081179091556040519081527f7f26b83ff96e1f2b6a682f133852f6798a09c465da95921460cefb38474024989060200160405180910390a15b565b613f3080620000f36000396000f3fe6080604052600436106101665760003560e01c8063a85c38ef116100d1578063cbe91bd91161008a578063da74d14a11610064578063da74d14a146104e4578063dd2f3c0514610504578063ee22fd6f14610517578063f98d06f01461053757600080fd5b8063cbe91bd91461046a578063d09ef2411461048a578063d1f6652e146104b757600080fd5b8063a85c38ef14610371578063b21f4517146103ca578063b8213bfa146103ea578063c0a027f41461040a578063c0c53b8b1461042a578063c61904a11461044a57600080fd5b80633a100f4d116101235780633a100f4d146102a057806340e9eda2146102c057806361417a43146102e057806367288428146103005780637251b3e61461033157806393d7fe2c1461035157600080fd5b8063166a073b1461016b57806316fff0741461018d5780631e8ff50d146101ca5780632b35de75146101ee57806335b03c171461020e57806337a3dba31461022e575b600080fd5b34801561017757600080fd5b5061018b610186366004613610565b61055d565b005b34801561019957600080fd5b506001546101ad906001600160a01b031681565b6040516001600160a01b0390911681526020015b60405180910390f35b3480156101d657600080fd5b506101e060045481565b6040519081526020016101c1565b3480156101fa57600080fd5b506101e06102093660046136c0565b610658565b34801561021a57600080fd5b506002546101ad906001600160a01b031681565b34801561023a57600080fd5b5061024e610249366004613610565b6107ee565b6040516101c1919081516001600160a01b0316815260208083015190820152604080830151908201526060808301519082015260808083015115159082015260a0918201519181019190915260c00190565b3480156102ac57600080fd5b506101e06102bb36600461377a565b610899565b3480156102cc57600080fd5b5061018b6102db36600461325a565b61092d565b3480156102ec57600080fd5b5061018b6102fb366004613610565b610a98565b34801561030c57600080fd5b5060005461032190600160b01b900460ff1681565b60405190151581526020016101c1565b34801561033d57600080fd5b5061018b61034c3660046132e6565b610bb1565b34801561035d57600080fd5b506101e061036c366004613758565b610faf565b34801561037d57600080fd5b506103ba61038c366004613610565b6005602052600090815260409020805460018201546002830154600390930154919260ff9182169290911684565b6040516101c19493929190613aa0565b3480156103d657600080fd5b506003546101ad906001600160a01b031681565b3480156103f657600080fd5b5061018b61040536600461372e565b610fe0565b34801561041657600080fd5b506101e06104253660046136c0565b6110b6565b34801561043657600080fd5b5061018b61044536600461329b565b611293565b34801561045657600080fd5b5061018b610465366004613610565b611425565b34801561047657600080fd5b5061018b6104853660046136f4565b61154c565b34801561049657600080fd5b506104aa6104a5366004613610565b61161c565b6040516101c1919061393a565b3480156104c357600080fd5b506104d76104d2366004613610565b6116b1565b6040516101c19190613972565b3480156104f057600080fd5b5061018b6104ff36600461332a565b61179c565b61018b610512366004613642565b61189f565b34801561052357600080fd5b5061018b61053236600461325a565b612ad8565b34801561054357600080fd5b506000546101ad906201000090046001600160a01b031681565b600160009054906101000a90046001600160a01b03166001600160a01b03166312d43a516040518163ffffffff1660e01b815260040160206040518083038186803b1580156105ab57600080fd5b505afa1580156105bf573d6000803e3d6000fd5b505050506040513d601f19601f820116820180604052508101906105e3919061327e565b6001600160a01b0316336001600160a01b03161461061c5760405162461bcd60e51b815260040161061390613918565b60405180910390fd5b60048190556040518181527fb7116a6d2338b4af7895e72c37e89f941362a610ee8e3787ee4b3113aa51a747906020015b60405180910390a150565b6002546040516307aa801760e21b81526004810184905260009182916001600160a01b0390911690631eaa005c9060240160606040518083038186803b1580156106a157600080fd5b505afa1580156106b5573d6000803e3d6000fd5b505050506040513d601f19601f820116820180604052508101906106d99190613444565b905060008360088111156106ef576106ef613d75565b148061070c5750600683600881111561070a5761070a613d75565b145b806107285750600283600881111561072657610726613d75565b145b15610735575190506107e8565b600183600881111561074957610749613d75565b14806107665750600783600881111561076457610764613d75565b145b806107825750600383600881111561078057610780613d75565b145b8061079e5750600883600881111561079c5761079c613d75565b145b806107ba575060048360088111156107b8576107b8613d75565b145b806107d6575060058360088111156107d4576107d4613d75565b145b156107e6576020015190506107e8565b505b92915050565b6108326040518060c0016040528060006001600160a01b03168152602001600081526020016000815260200160008152602001600015158152602001600081525090565b50600090815260076020908152604091829020825160c08101845281546001600160a01b0316815260018201549281019290925260028101549282019290925260038201546060820152600482015460ff161515608082015260059091015460a082015290565b60025460405163fb3e519d60e01b8152600481018590526024810184905282151560448201526000916001600160a01b03169063fb3e519d9060640160206040518083038186803b1580156108ed57600080fd5b505afa158015610901573d6000803e3d6000fd5b505050506040513d601f19601f820116820180604052508101906109259190613629565b949350505050565b600160009054906101000a90046001600160a01b03166001600160a01b03166312d43a516040518163ffffffff1660e01b815260040160206040518083038186803b15801561097b57600080fd5b505afa15801561098f573d6000803e3d6000fd5b505050506040513d601f19601f820116820180604052508101906109b3919061327e565b6001600160a01b0316336001600160a01b0316146109e35760405162461bcd60e51b815260040161061390613918565b6001600160a01b038116610a235760405162461bcd60e51b8152602060048201526007602482015266056414c55455f360cc1b6044820152606401610613565b600280546001600160a01b0319166001600160a01b03831690811790915560408051818152600c918101919091526b706169727353746f7261676560a01b606082015260208101919091527f943e9d45a11aaae5d87503e3bc248665d9807856e5cf2bdb4a988bee444227819060800161064d565b600160009054906101000a90046001600160a01b03166001600160a01b031662b127836040518163ffffffff1660e01b815260040160206040518083038186803b158015610ae557600080fd5b505afa158015610af9573d6000803e3d6000fd5b505050506040513d601f19601f82011682018060405250810190610b1d919061327e565b6001600160a01b0316336001600160a01b031614610b6e5760405162461bcd60e51b815260206004820152600e60248201526d43414c4c4241434b535f4f4e4c5960901b6044820152606401610613565b600090815260076020526040812080546001600160a01b031916815560018101829055600281018290556003810182905560048101805460ff1916905560050155565b600160009054906101000a90046001600160a01b03166001600160a01b03166312d43a516040518163ffffffff1660e01b815260040160206040518083038186803b158015610bff57600080fd5b505afa158015610c13573d6000803e3d6000fd5b505050506040513d601f19601f82011682018060405250810190610c37919061327e565b6001600160a01b0316336001600160a01b031614610c675760405162461bcd60e51b815260040161061390613918565b6001546040516351d407ff60e11b81526001600160a01b0387811660048301526024820187905260448201869052600092169063a3a80ffe906064016101606040518083038186803b158015610cbc57600080fd5b505afa158015610cd0573d6000803e3d6000fd5b505050506040513d601f19601f82011682018060405250810190610cf49190613573565b60e001516001546040516351d407ff60e11b81526001600160a01b03898116600483015260248201899052604482018890529293506000929091169063a3a80ffe906064016101606040518083038186803b158015610d5257600080fd5b505afa158015610d66573d6000803e3d6000fd5b505050506040513d601f19601f82011682018060405250810190610d8a9190613573565b60600151905080841115610dcd5760405162461bcd60e51b815260206004820152600a60248201526912539597d05353d5539560b21b6044820152606401610613565b60008211610e085760405162461bcd60e51b81526020600482015260086024820152674e4f5f545241444560c01b6044820152606401610613565b6002546040516362faca8d60e11b81526001600160a01b0389811660048301526024820189905260448201889052600092169063c5f5951a9060640160206040518083038186803b158015610e5c57600080fd5b505afa158015610e70573d6000803e3d6000fd5b505050506040513d601f19601f82011682018060405250810190610e949190613347565b9050600081610ead57610ea8886001612be6565b610eb8565b610eb8886007612be6565b600154604080516101e0810182526001600160a01b038d81166080830190815260a083018e905260c083018d905260e083018c90526000610100840181905261012084018190526101408401819052610160840181905261018084018190526101a084018190526101c0840181905290835260208301819052828401819052606083018190529251631b026ffd60e31b81529495509092169263d8137fe892610f689290918691906004016139e3565b600060405180830381600087803b158015610f8257600080fd5b505af1158015610f96573d6000803e3d6000fd5b50505050610fa48186612c1c565b505050505050505050565b60066020528160005260406000208181548110610fcb57600080fd5b90600052602060002001600091509150505481565b600160009054906101000a90046001600160a01b03166001600160a01b031663ec44acf26040518163ffffffff1660e01b815260040160206040518083038186803b15801561102e57600080fd5b505afa158015611042573d6000803e3d6000fd5b505050506040513d601f19601f82011682018060405250810190611066919061327e565b6001600160a01b0316336001600160a01b0316146110965760405162461bcd60e51b8152600401610613906138f2565b600082815260076020526040902081906110b08282613e70565b50505050565b60015460408051637622567960e11b815290516000926001600160a01b03169163ec44acf2916004808301926020929190829003018186803b1580156110fb57600080fd5b505afa15801561110f573d6000803e3d6000fd5b505050506040513d601f19601f82011682018060405250810190611133919061327e565b6001600160a01b0316336001600160a01b0316146111635760405162461bcd60e51b8152600401610613906138f2565b600254604051630c0be07f60e21b81526004810185905260009182916001600160a01b039091169063302f81fc906024015b600060405180830381600087803b1580156111af57600080fd5b505af11580156111c3573d6000803e3d6000fd5b505050506040513d6000823e601f3d908101601f191682016040526111eb9190810190613364565b94505093505050604051806080016040528086815260200185600881111561121557611215613d75565b8152602080820185905260016040928301819052600085815260058352929092208351815590830151818301805492939192909160ff199091169083600881111561126257611262613d75565b0217905550604082015160028201556060909101516003909101805460ff1916911515919091179055949350505050565b600054610100900460ff16158080156112b35750600054600160ff909116105b806112cd5750303b1580156112cd575060005460ff166001145b6113305760405162461bcd60e51b815260206004820152602e60248201527f496e697469616c697a61626c653a20636f6e747261637420697320616c72656160448201526d191e481a5b9a5d1a585b1a5e995960921b6064820152608401610613565b6000805460ff191660011790558015611353576000805461ff0019166101001790555b6001600160a01b0383166113985760405162461bcd60e51b815260206004820152600c60248201526b57524f4e475f504152414d5360a01b6044820152606401610613565b600280546001600160a01b038086166001600160a01b031992831617909255600380548584169083161790556001805492871692909116919091179055607860045580156110b0576000805461ff0019169055604051600181527f7f26b83ff96e1f2b6a682f133852f6798a09c465da95921460cefb38474024989060200160405180910390a150505050565b600160009054906101000a90046001600160a01b03166001600160a01b031662b127836040518163ffffffff1660e01b815260040160206040518083038186803b15801561147257600080fd5b505afa158015611486573d6000803e3d6000fd5b505050506040513d601f19601f820116820180604052508101906114aa919061327e565b6001600160a01b0316336001600160a01b0316146114fb5760405162461bcd60e51b815260206004820152600e60248201526d43414c4c4241434b535f4f4e4c5960901b6044820152606401610613565b600090815260086020526040812080546001600160a01b0319168155600181018290556002810182905560038101805460ff1916905560048101829055600581018290556006810182905560070155565b600160009054906101000a90046001600160a01b03166001600160a01b031663ec44acf26040518163ffffffff1660e01b815260040160206040518083038186803b15801561159a57600080fd5b505afa1580156115ae573d6000803e3d6000fd5b505050506040513d601f19601f820116820180604052508101906115d2919061327e565b6001600160a01b0316336001600160a01b0316146116025760405162461bcd60e51b8152600401610613906138f2565b600082815260086020526040902081906110b08282613dfa565b604080516080810182526000808252602082018190529181018290526060810191909152600082815260056020908152604091829020825160808101909352805483526001810154909183019060ff16600881111561167d5761167d613d75565b600881111561168e5761168e613d75565b81526002820154602082015260039091015460ff16151560409091015292915050565b6116f960408051610100810182526000808252602082018190529181018290529060608201908152602001600081526020016000815260200160008152602001600081525090565b60008281526008602090815260409182902082516101008101845281546001600160a01b031681526001808301549382019390935260028201549381019390935260038101549091606084019160ff169081111561175957611759613d75565b600181111561176a5761176a613d75565b815260048201546020820152600582015460408201526006820154606082015260079091015460809091015292915050565b600160009054906101000a90046001600160a01b03166001600160a01b03166312d43a516040518163ffffffff1660e01b815260040160206040518083038186803b1580156117ea57600080fd5b505afa1580156117fe573d6000803e3d6000fd5b505050506040513d601f19601f82011682018060405250810190611822919061327e565b6001600160a01b0316336001600160a01b0316146118525760405162461bcd60e51b815260040161061390613918565b60008054821515600160b01b0260ff60b01b199091161790556040517f5a3be68c2e82796ccb7eaec7f9aecf7cd941e6fc2d4298f6c4f101e924c15a479061064d90831515815260200190565b600160009054906101000a90046001600160a01b03166001600160a01b031663ec44acf26040518163ffffffff1660e01b815260040160206040518083038186803b1580156118ed57600080fd5b505afa158015611901573d6000803e3d6000fd5b505050506040513d601f19601f82011682018060405250810190611925919061327e565b6001600160a01b0316336001600160a01b0316146119555760405162461bcd60e51b8152600401610613906138f2565b6000838152600560205260409020600381015460ff16156110b05760008383600081811061198557611985613d8b565b90506020028101906119979190613acb565b8101906119a49190613610565b600254835460405163685e905b60e01b81529293506000926001600160a01b039092169163685e905b916119de9160040190815260200190565b604080518083038186803b1580156119f557600080fd5b505afa158015611a09573d6000803e3d6000fd5b505050506040513d601f19601f82011682018060405250810190611a2d91906133ef565b6000878152600660205260408120905491925090600160b01b900460ff168015611a6f57506003600185015460ff166008811115611a6d57611a6d613d75565b145b8015611a87575060208201516001600160a01b031615155b15611cad5760015460405163363df41d60e11b8152600481018990526000916001600160a01b031690636c7be83a9060240160806040518083038186803b158015611ad157600080fd5b505afa158015611ae5573d6000803e3d6000fd5b505050506040513d601f19601f82011682018060405250810190611b09919061349f565b9050600281606001516003811115611b2357611b23613d75565b1415611ca757600083602001519050600080826001600160a01b031663feaf968c6040518163ffffffff1660e01b815260040160a06040518083038186803b158015611b6e57600080fd5b505afa158015611b82573d6000803e3d6000fd5b505050506040513d601f19601f82011682018060405250810190611ba691906137a8565b509350509250504260045482611bbc9190613b93565b10611ca3576000836001600160a01b031663313ce5676040518163ffffffff1660e01b815260040160206040518083038186803b158015611bfc57600080fd5b505afa158015611c10573d6000803e3d6000fd5b505050506040513d601f19601f82011682018060405250810190611c3491906137f8565b611c3f90600a613c14565b611c4e6402540be40085613cc0565b611c589190613bab565b8954604080518f8152602081019290925281018290529098508891507f482b3c0103a0a457f4564b7b9d39dfe5be10c809b29f2b102ee9f7e8e8eebc2c9060600160405180910390a1505b5050505b506123a7565b600054600160b01b900460ff16158015611cc5575060005b156123a7576000805460405163d47eed4560e01b8152620100009091046001600160a01b03169063d47eed4590611d02908a908a90600401613858565b60206040518083038186803b158015611d1a57600080fd5b505afa158015611d2e573d6000803e3d6000fd5b505050506040513d601f19601f82011682018060405250810190611d529190613629565b600054604051631df3cbc560e31b81529192506201000090046001600160a01b03169063ef9e5e28908390611d8d908b908b90600401613858565b6000604051808303818588803b158015611da657600080fd5b505af1158015611dba573d6000803e3d6000fd5b50506040805160808101825260008082526020820181905291810182905260608101919091529250611dea915050565b6004600187015460ff166008811115611e0557611e05613d75565b1480611e2957506005600187015460ff166008811115611e2757611e27613d75565b145b15611ec357600054600287015460405163052571af60e51b81526004810191909152601e6024820152620100009091046001600160a01b03169063a4ae35e09060440160806040518083038186803b158015611e8457600080fd5b505afa158015611e98573d6000803e3d6000fd5b505050506040513d601f19601f82011682018060405250810190611ebc91906134fa565b9050611f54565b600054600287015460405163052571af60e51b81526004810191909152600a6024820152620100009091046001600160a01b03169063a4ae35e09060440160806040518083038186803b158015611f1957600080fd5b505afa158015611f2d573d6000803e3d6000fd5b505050506040513d601f19601f82011682018060405250810190611f5191906134fa565b90505b600080826040015160030b1315611fdc576040820151611f7590600a613c02565b8251611f90906402540be400906001600160401b0316613cc0565b611f9a9190613cc0565b95508160400151600a611fad9190613c02565b6402540be40083602001516001600160401b0316611fcb9190613cc0565b611fd59190613cc0565b9050612060565b8160400151611fea90613d25565b611ff590600a613c02565b8251612010906402540be400906001600160401b0316613cc0565b61201a9190613bab565b9550816040015161202a90613d25565b61203590600a613c02565b6402540be40083602001516001600160401b03166120539190613cc0565b61205d9190613bab565b90505b6000861180156120a757508654600188015461207f919060ff16610658565b8661208f6402540be40084613cc0565b61209a906064613cc0565b6120a49190613bab565b11155b6120f35760405162461bcd60e51b815260206004820152601860248201527f50524943455f444556494154494f4e5f544f4f5f4849474800000000000000006044820152606401610613565b84511580159061210f575060208501516001600160a01b031615155b156123a357600085602001519050600080826001600160a01b031663feaf968c6040518163ffffffff1660e01b815260040160a06040518083038186803b15801561215957600080fd5b505afa15801561216d573d6000803e3d6000fd5b505050506040513d601f19601f8201168201806040525081019061219191906137a8565b5093505092505042600454826121a79190613b93565b1061239f576000836001600160a01b031663313ce5676040518163ffffffff1660e01b815260040160206040518083038186803b1580156121e757600080fd5b505afa1580156121fb573d6000803e3d6000fd5b505050506040513d601f19601f8201168201806040525081019061221f91906137f8565b61222a90600a613c14565b6122396402540be40085613cc0565b6122439190613bab565b90507f482b3c0103a0a457f4564b7b9d39dfe5be10c809b29f2b102ee9f7e8e8eebc2c8e8c600001548360405161228d939291909283526020830191909152604082015260600190565b60405180910390a1898111156123195788518a6402540be4006122b08285613cdf565b6122bb906064613cc0565b6122c59190613cc0565b6122cf9190613bab565b11156123195760405162461bcd60e51b8152602060048201526019602482015278084828696aaa0be888aac9282a8929e9cbea89e9ebe90928e9603b1b6044820152606401610613565b8981101561239d578851816402540be400612334828e613cdf565b61233f906064613cc0565b6123499190613cc0565b6123539190613bab565b111561239d5760405162461bcd60e51b8152602060048201526019602482015278084828696aaa0be888aac9282a8929e9cbea89e9ebe90928e9603b1b6044820152606401610613565b505b5050505b5050505b805460018101825560008281526020908190209091018490558454604080518a81529283019190915281018490527f153ed01a0a6e506afbb501e4c353ea1c06dd65f8e1e9cb7afe44416e1dd775169060600160405180910390a1805415612acf57600060405180606001604052808981526020016124748480548060200260200160405190810160405280929190818152602001828054801561246a57602002820191906000526020600020905b815481526020019060010190808311612456575b5050505050612f9a565b815260025487546040516312f070cd60e01b81526004810191909152600060248201526020909201916001600160a01b03909116906312f070cd9060440160206040518083038186803b1580156124ca57600080fd5b505afa1580156124de573d6000803e3d6000fd5b505050506040513d601f19601f820116820180604052508101906125029190613629565b8152509050600060405180606001604052808a81526020016125708580548060200260200160405190810160405280929190818152602001828054801561246a5760200282019190600052602060002090815481526020019060010190808311612456575050505050612f9a565b815260025488546040516312f070cd60e01b81526004810191909152600160248201526020909201916001600160a01b03909116906312f070cd9060440160206040518083038186803b1580156125c657600080fd5b505afa1580156125da573d6000803e3d6000fd5b505050506040513d601f19601f820116820180604052508101906125fe9190613629565b81525090506000600160009054906101000a90046001600160a01b03166001600160a01b031662b127836040518163ffffffff1660e01b815260040160206040518083038186803b15801561265257600080fd5b505afa158015612666573d6000803e3d6000fd5b505050506040513d601f19601f8201168201806040525081019061268a919061327e565b90506000600188015460ff1660088111156126a7576126a7613d75565b141561272e57825160208401516040808601519051631410f75b60e01b8152600481019390935260248301919091526044820152600060648201526001600160a01b03821690631410f75b906084015b600060405180830381600087803b15801561271157600080fd5b505af1158015612725573d6000803e3d6000fd5b50505050612a85565b60018088015460ff16600881111561274857612748613d75565b141561278f578251602084015160405163962e1f0960e01b815260048101929092526024820152600060448201526001600160a01b0382169063962e1f09906064016126f7565b6002600188015460ff1660088111156127aa576127aa613d75565b14156127fe5782516020840151604080860151905163a875fc6b60e01b8152600481019390935260248301919091526044820152600060648201526001600160a01b0382169063a875fc6b906084016126f7565b6003600188015460ff16600881111561281957612819613d75565b1415612860578251602084015160405163484aabb160e01b815260048101929092526024820152600060448201526001600160a01b0382169063484aabb1906064016126f7565b6004600188015460ff16600881111561287b5761287b613d75565b14156128c25782516020840151604051634ec0e88960e01b815260048101929092526024820152600060448201526001600160a01b03821690634ec0e889906064016126f7565b6005600188015460ff1660088111156128dd576128dd613d75565b14156129245782516020840151604051638246cd1960e01b815260048101929092526024820152600060448201526001600160a01b03821690638246cd19906064016126f7565b6007600188015460ff16600881111561293f5761293f613d75565b1415612986578151602083015160405163962e1f0960e01b815260048101929092526024820152600160448201526001600160a01b0382169063962e1f09906064016126f7565b6006600188015460ff1660088111156129a1576129a1613d75565b14156129f557815160208301516040808501519051631410f75b60e01b8152600481019390935260248301919091526044820152600160648201526001600160a01b03821690631410f75b906084016126f7565b6008600188015460ff166008811115612a1057612a10613d75565b1415612a85578151602083015160405163484aabb160e01b815260048101929092526024820152600160448201526001600160a01b0382169063484aabb190606401600060405180830381600087803b158015612a6c57600080fd5b505af1158015612a80573d6000803e3d6000fd5b505050505b60008a815260056020908152604080832083815560018101805460ff199081169091556002820185905560039091018054909116905560069091528120612acb91613160565b5050505b50505050505050565b600160009054906101000a90046001600160a01b03166001600160a01b03166312d43a516040518163ffffffff1660e01b815260040160206040518083038186803b158015612b2657600080fd5b505afa158015612b3a573d6000803e3d6000fd5b505050506040513d601f19601f82011682018060405250810190612b5e919061327e565b6001600160a01b0316336001600160a01b031614612b8e5760405162461bcd60e51b815260040161061390613918565b6000805462010000600160b01b031916620100006001600160a01b038416908102919091179091556040519081527fc0377667bd059a05c5d852537639c6099198490d6e89d187764aff179ffec7489060200161064d565b600254604051630c0be07f60e21b815260048101849052600091829182916001600160a01b03169063302f81fc90602401611195565b60008281526005602090815260408083206006909252909120600382015460ff16156110b057805460018101825560008281526020908190209091018490558254604080518781529283019190915281018490527f153ed01a0a6e506afbb501e4c353ea1c06dd65f8e1e9cb7afe44416e1dd775169060600160405180910390a18054156110b05760006040518060600160405280868152602001612d0d8480548060200260200160405190810160405280929190818152602001828054801561246a5760200282019190600052602060002090815481526020019060010190808311612456575050505050612f9a565b815260025485546040516312f070cd60e01b81526004810191909152600060248201526020909201916001600160a01b03909116906312f070cd9060440160206040518083038186803b158015612d6357600080fd5b505afa158015612d77573d6000803e3d6000fd5b505050506040513d601f19601f82011682018060405250810190612d9b9190613629565b81525090506000600160009054906101000a90046001600160a01b03166001600160a01b031662b127836040518163ffffffff1660e01b815260040160206040518083038186803b158015612def57600080fd5b505afa158015612e03573d6000803e3d6000fd5b505050506040513d601f19601f82011682018060405250810190612e27919061327e565b905060018085015460ff166008811115612e4357612e43613d75565b1415612ebc578151602083015160405163962e1f0960e01b815260048101929092526024820152600060448201526001600160a01b0382169063962e1f0990606401600060405180830381600087803b158015612e9f57600080fd5b505af1158015612eb3573d6000803e3d6000fd5b50505050612f4c565b6007600185015460ff166008811115612ed757612ed7613d75565b1415612f4c578151602083015160405163962e1f0960e01b815260048101929092526024820152600160448201526001600160a01b0382169063962e1f0990606401600060405180830381600087803b158015612f3357600080fd5b505af1158015612f47573d6000803e3d6000fd5b505050505b600086815260056020908152604080832083815560018101805460ff199081169091556002820185905560039091018054909116905560069091528120612f9291613160565b505050505050565b6000612fa9826000845161302a565b60028251612fb79190613d11565b15612fe0578160018351901c81518110612fd357612fd3613d8b565b60200260200101516107e8565b60018260018451901c81518110612ff957612ff9613d8b565b602090810291909101015183518490613010613d8b565b60200260200101516130229190613b93565b901c92915050565b80821061303657505050565b6000829050600084828151811061304f5761304f613d8b565b6020026020010151905060008460016130689190613b93565b90505b838110156130ba578186828151811061308657613086613d8b565b602002602001015110156130aa576130aa86826130a286613cf6565b9550856130ed565b6130b381613cf6565b905061306b565b506130c68585846130ed565b6130d185858461302a565b6130e6856130e0846001613b93565b8561302a565b5050505050565b8281815181106130ff576130ff613d8b565b602002602001015183838151811061311957613119613d8b565b602002602001015184848151811061313357613133613d8b565b6020026020010185848151811061314c5761314c613d8b565b602090810291909101019190915252505050565b508054600082559060005260206000209081019061317e9190613181565b50565b5b808211156131965760008155600101613182565b5090565b80516131a581613ed7565b919050565b80516131a581613eec565b600082601f8301126131c657600080fd5b81516001600160401b038111156131df576131df613da1565b60206131f3601f8301601f19168201613b63565b828152858284870101111561320757600080fd5b60005b8381101561322557858101830151828201840152820161320a565b838111156132365760008385840101525b5095945050505050565b805169ffffffffffffffffffff811681146131a557600080fd5b60006020828403121561326c57600080fd5b813561327781613ed7565b9392505050565b60006020828403121561329057600080fd5b815161327781613ed7565b6000806000606084860312156132b057600080fd5b83356132bb81613ed7565b925060208401356132cb81613ed7565b915060408401356132db81613ed7565b809150509250925092565b600080600080600060a086880312156132fe57600080fd5b853561330981613ed7565b97602087013597506040870135966060810135965060800135945092505050565b60006020828403121561333c57600080fd5b813561327781613eec565b60006020828403121561335957600080fd5b815161327781613eec565b600080600080600060a0868803121561337c57600080fd5b85516001600160401b038082111561339357600080fd5b61339f89838a016131b5565b965060208801519150808211156133b557600080fd5b506133c2888289016131b5565b9450506040860151925060608601516133da81613ed7565b80925050608086015190509295509295909350565b60006040828403121561340157600080fd5b604051604081018181106001600160401b038211171561342357613423613da1565b60405282518152602083015161343881613ed7565b60208201529392505050565b60006060828403121561345657600080fd5b604051606081018181106001600160401b038211171561347857613478613da1565b80604052508251815260208301516020820152604083015160408201528091505092915050565b6000608082840312156134b157600080fd5b6134b9613b18565b82516134c481613ed7565b8082525060208301516020820152604083015160408201526060830151600481106134ee57600080fd5b60608201529392505050565b60006080828403121561350c57600080fd5b613514613b18565b82518060070b811461352557600080fd5b815260208301516001600160401b038116811461354157600080fd5b60208201526040830151600381900b811461355b57600080fd5b60408201526060928301519281019290925250919050565b6000610160828403121561358657600080fd5b61358e613b40565b6135978361319a565b81526020830151602082015260408301516040820152606083015160608201526080830151608082015260a083015160a08201526135d760c084016131aa565b60c082015260e0838101519082015261010080840151908201526101208084015190820152610140928301519281019290925250919050565b60006020828403121561362257600080fd5b5035919050565b60006020828403121561363b57600080fd5b5051919050565b60008060006040848603121561365757600080fd5b8335925060208401356001600160401b038082111561367557600080fd5b818601915086601f83011261368957600080fd5b81358181111561369857600080fd5b8760208260051b85010111156136ad57600080fd5b6020830194508093505050509250925092565b600080604083850312156136d357600080fd5b823591506020830135600981106136e957600080fd5b809150509250929050565b60008082840361012081121561370957600080fd5b83359250610100601f198201121561372057600080fd5b506020830190509250929050565b60008082840360e081121561374257600080fd5b8335925060c0601f198201121561372057600080fd5b6000806040838503121561376b57600080fd5b50508035926020909101359150565b60008060006060848603121561378f57600080fd5b833592506020840135915060408401356132db81613eec565b600080600080600060a086880312156137c057600080fd5b6137c986613240565b94506020860151935060408601519250606086015191506137ec60808701613240565b90509295509295909350565b60006020828403121561380a57600080fd5b815160ff8116811461327757600080fd5b81835281816020850137506000828201602090810191909152601f909101601f19169091010190565b6009811061385457613854613d75565b9052565b60208082528181018390526000906040600585901b8401810190840186845b878110156138e557868403603f190183528135368a9003601e1901811261389d57600080fd5b890180356001600160401b038111156138b557600080fd5b8036038b13156138c457600080fd5b6138d1868289850161381b565b955050509184019190840190600101613877565b5091979650505050505050565b6020808252600c908201526b54524144494e475f4f4e4c5960a01b604082015260600190565b602080825260089082015267474f565f4f4e4c5960c01b604082015260600190565b81518152602080830151608083019161395590840182613844565b506040830151604083015260608301511515606083015292915050565b81516001600160a01b0316815260208083015190820152604080830151908201526060820151610100820190600281106139ae576139ae613d75565b806060840152506080830151608083015260a083015160a083015260c083015160c083015260e083015160e083015292915050565b835180516001600160a01b031682526102008201906020810151602084015260408101516040840152606081015160608401526080810151608084015260a081015160a084015260c0810151613a3d60c085018215159052565b5060e08181015190840152610100808201519084015261012080820151908401526101409081015190830152602085015161016083015260408501516101808301526060909401516101a08201526101c081019290925215156101e09091015290565b84815260808101613ab46020830186613844565b836040830152821515606083015295945050505050565b6000808335601e19843603018112613ae257600080fd5b8301803591506001600160401b03821115613afc57600080fd5b602001915036819003821315613b1157600080fd5b9250929050565b604051608081016001600160401b0381118282101715613b3a57613b3a613da1565b60405290565b60405161016081016001600160401b0381118282101715613b3a57613b3a613da1565b604051601f8201601f191681016001600160401b0381118282101715613b8b57613b8b613da1565b604052919050565b60008219821115613ba657613ba6613d49565b500190565b600082613bba57613bba613d5f565b500490565b600181815b80851115613bfa578160001904821115613be057613be0613d49565b80851615613bed57918102915b93841c9390800290613bc4565b509250929050565b600061327763ffffffff841683613c1f565b600061327760ff8416835b600082613c2e575060016107e8565b81613c3b575060006107e8565b8160018114613c515760028114613c5b57613c77565b60019150506107e8565b60ff841115613c6c57613c6c613d49565b50506001821b6107e8565b5060208310610133831016604e8410600b8410161715613c9a575081810a6107e8565b613ca48383613bbf565b8060001904821115613cb857613cb8613d49565b029392505050565b6000816000190483118215151615613cda57613cda613d49565b500290565b600082821015613cf157613cf1613d49565b500390565b6000600019821415613d0a57613d0a613d49565b5060010190565b600082613d2057613d20613d5f565b500690565b60008160030b637fffffff19811415613d4057613d40613d49565b60000392915050565b634e487b7160e01b600052601160045260246000fd5b634e487b7160e01b600052601260045260246000fd5b634e487b7160e01b600052602160045260246000fd5b634e487b7160e01b600052603260045260246000fd5b634e487b7160e01b600052604160045260246000fd5b80546001600160a01b0319166001600160a01b0392909216919091179055565b60028210613de757613de7613d75565b60ff1981541660ff831681178255505050565b8135613e0581613ed7565b613e0f8183613db7565b506020820135600182015560408201356002820155606082013560028110613e3657600080fd5b613e438160038401613dd7565b506080820135600482015560a0820135600582015560c0820135600682015560e082013560078201555050565b8135613e7b81613ed7565b613e858183613db7565b50602082013560018201556040820135600282015560608201356003820155600481016080830135613eb681613eec565b60ff1982541660ff821515168117835550505060a082013560058201555050565b6001600160a01b038116811461317e57600080fd5b801515811461317e57600080fdfea2646970667358221220d7ac3bb4fa400766eae44edb10bfcab1d50477e46eec5c8686176c76fab6e75664736f6c63430008070033","linkReferences":{}},"methodIdentifiers":{"chainlinkValidityPeriod()":"1e8ff50d","executions()":"b21f4517","forceCloseTradeMarket(address,uint256,uint256,uint256,uint256)":"7251b3e6","fulfill(uint256,bytes[])":"dd2f3c05","getOrder(uint256)":"d09ef241","getPrice(uint256,uint8)":"c0a027f4","initialize(address,address,address)":"c0c53b8b","maxDeviationP(uint256,uint8)":"2b35de75","openFeeP(uint256,uint256,bool)":"3a100f4d","orders(uint256)":"a85c38ef","ordersAnswers(uint256,uint256)":"93d7fe2c","pairsStorage()":"35b03c17","pendingMarginUpdateOrders(uint256)":"d1f6652e","pendingSlOrders(uint256)":"37a3dba3","pyth()":"f98d06f0","setChainlinkValidityPeriod(uint256)":"166a073b","setPyth(address)":"ee22fd6f","storageT()":"16fff074","storePendingMarginUpdateOrder(uint256,(address,uint256,uint256,uint8,uint256,uint256,uint256,uint256))":"cbe91bd9","storePendingSlOrder(uint256,(address,uint256,uint256,uint256,bool,uint256))":"b8213bfa","unregisterPendingMarginUpdateOrder(uint256)":"c61904a1","unregisterPendingSlOrder(uint256)":"61417a43","updatePairsStorage(address)":"40e9eda2","useBackUpOracleOnly(bool)":"da74d14a","useBackupOnly()":"67288428"},"id":108}