{"abi":[{"type":"constructor","inputs":[],"stateMutability":"nonpayable"},{"type":"function","name":"chainlinkValidityPeriod","inputs":[],"outputs":[{"name":"","type":"uint256","internalType":"uint256"}],"stateMutability":"view"},{"type":"function","name":"executions","inputs":[],"outputs":[{"name":"","type":"address","internalType":"contract IExecute"}],"stateMutability":"view"},{"type":"function","name":"fulfill","inputs":[{"name":"orderId","type":"uint256","internalType":"uint256"},{"name":"priceUpdateData","type":"bytes[]","internalType":"bytes[]"}],"outputs":[],"stateMutability":"payable"},{"type":"function","name":"getOrder","inputs":[{"name":"_id","type":"uint256","internalType":"uint256"}],"outputs":[{"name":"","type":"tuple","internalType":"struct IPriceAggregator.Order","components":[{"name":"pairIndex","type":"uint256","internalType":"uint256"},{"name":"orderType","type":"uint8","internalType":"enum IPriceAggregator.OrderType"},{"name":"job","type":"bytes32","internalType":"bytes32"},{"name":"initiated","type":"bool","internalType":"bool"}]}],"stateMutability":"view"},{"type":"function","name":"getPrice","inputs":[{"name":"_pairIndex","type":"uint256","internalType":"uint256"},{"name":"_orderType","type":"uint8","internalType":"enum IPriceAggregator.OrderType"}],"outputs":[{"name":"","type":"uint256","internalType":"uint256"}],"stateMutability":"nonpayable"},{"type":"function","name":"initialize","inputs":[{"name":"_storageT","type":"address","internalType":"address"},{"name":"_pairsStorage","type":"address","internalType":"address"},{"name":"_executions","type":"address","internalType":"address"}],"outputs":[],"stateMutability":"nonpayable"},{"type":"function","name":"openFeeP","inputs":[{"name":"_pairIndex","type":"uint256","internalType":"uint256"},{"name":"_leveragedPositionSize","type":"uint256","internalType":"uint256"},{"name":"_buy","type":"bool","internalType":"bool"}],"outputs":[{"name":"","type":"uint256","internalType":"uint256"}],"stateMutability":"view"},{"type":"function","name":"orders","inputs":[{"name":"","type":"uint256","internalType":"uint256"}],"outputs":[{"name":"pairIndex","type":"uint256","internalType":"uint256"},{"name":"orderType","type":"uint8","internalType":"enum IPriceAggregator.OrderType"},{"name":"job","type":"bytes32","internalType":"bytes32"},{"name":"initiated","type":"bool","internalType":"bool"}],"stateMutability":"view"},{"type":"function","name":"ordersAnswers","inputs":[{"name":"","type":"uint256","internalType":"uint256"},{"name":"","type":"uint256","internalType":"uint256"}],"outputs":[{"name":"","type":"uint256","internalType":"uint256"}],"stateMutability":"view"},{"type":"function","name":"pairsStorage","inputs":[],"outputs":[{"name":"","type":"address","internalType":"contract IPairStorage"}],"stateMutability":"view"},{"type":"function","name":"pendingMarginUpdateOrders","inputs":[{"name":"index","type":"uint256","internalType":"uint256"}],"outputs":[{"name":"","type":"tuple","internalType":"struct IPriceAggregator.PendingMarginUpdate","components":[{"name":"trader","type":"address","internalType":"address"},{"name":"pairIndex","type":"uint256","internalType":"uint256"},{"name":"index","type":"uint256","internalType":"uint256"},{"name":"_type","type":"uint8","internalType":"enum ITradingStorage.updateType"},{"name":"amount","type":"uint256","internalType":"uint256"},{"name":"tier","type":"uint256","internalType":"uint256"},{"name":"marginFees","type":"uint256","internalType":"uint256"},{"name":"oldLeverage","type":"uint256","internalType":"uint256"}]}],"stateMutability":"view"},{"type":"function","name":"pendingSlOrders","inputs":[{"name":"index","type":"uint256","internalType":"uint256"}],"outputs":[{"name":"","type":"tuple","internalType":"struct IPriceAggregator.PendingSl","components":[{"name":"trader","type":"address","internalType":"address"},{"name":"pairIndex","type":"uint256","internalType":"uint256"},{"name":"index","type":"uint256","internalType":"uint256"},{"name":"openPrice","type":"uint256","internalType":"uint256"},{"name":"buy","type":"bool","internalType":"bool"},{"name":"newSl","type":"uint256","internalType":"uint256"}]}],"stateMutability":"view"},{"type":"function","name":"pyth","inputs":[],"outputs":[{"name":"","type":"address","internalType":"contract IPyth"}],"stateMutability":"view"},{"type":"function","name":"setChainlinkValidityPeriod","inputs":[{"name":"_newPeriod","type":"uint256","internalType":"uint256"}],"outputs":[],"stateMutability":"nonpayable"},{"type":"function","name":"setPyth","inputs":[{"name":"pythContract","type":"address","internalType":"address"}],"outputs":[],"stateMutability":"nonpayable"},{"type":"function","name":"storageT","inputs":[],"outputs":[{"name":"","type":"address","internalType":"contract ITradingStorage"}],"stateMutability":"view"},{"type":"function","name":"storePendingMarginUpdateOrder","inputs":[{"name":"orderId","type":"uint256","internalType":"uint256"},{"name":"p","type":"tuple","internalType":"struct IPriceAggregator.PendingMarginUpdate","components":[{"name":"trader","type":"address","internalType":"address"},{"name":"pairIndex","type":"uint256","internalType":"uint256"},{"name":"index","type":"uint256","internalType":"uint256"},{"name":"_type","type":"uint8","internalType":"enum ITradingStorage.updateType"},{"name":"amount","type":"uint256","internalType":"uint256"},{"name":"tier","type":"uint256","internalType":"uint256"},{"name":"marginFees","type":"uint256","internalType":"uint256"},{"name":"oldLeverage","type":"uint256","internalType":"uint256"}]}],"outputs":[],"stateMutability":"nonpayable"},{"type":"function","name":"storePendingSlOrder","inputs":[{"name":"orderId","type":"uint256","internalType":"uint256"},{"name":"p","type":"tuple","internalType":"struct IPriceAggregator.PendingSl","components":[{"name":"trader","type":"address","internalType":"address"},{"name":"pairIndex","type":"uint256","internalType":"uint256"},{"name":"index","type":"uint256","internalType":"uint256"},{"name":"openPrice","type":"uint256","internalType":"uint256"},{"name":"buy","type":"bool","internalType":"bool"},{"name":"newSl","type":"uint256","internalType":"uint256"}]}],"outputs":[],"stateMutability":"nonpayable"},{"type":"function","name":"unregisterPendingMarginUpdateOrder","inputs":[{"name":"orderId","type":"uint256","internalType":"uint256"}],"outputs":[],"stateMutability":"nonpayable"},{"type":"function","name":"unregisterPendingSlOrder","inputs":[{"name":"orderId","type":"uint256","internalType":"uint256"}],"outputs":[],"stateMutability":"nonpayable"},{"type":"function","name":"updatePairsStorage","inputs":[{"name":"_pairsStorage","type":"address","internalType":"address"}],"outputs":[],"stateMutability":"nonpayable"},{"type":"function","name":"useBackUpOracleOnly","inputs":[{"name":"_start","type":"bool","internalType":"bool"}],"outputs":[],"stateMutability":"nonpayable"},{"type":"function","name":"useBackupOnly","inputs":[],"outputs":[{"name":"","type":"bool","internalType":"bool"}],"stateMutability":"view"},{"type":"event","name":"AddressUpdated","inputs":[{"name":"name","type":"string","indexed":false,"internalType":"string"},{"name":"a","type":"address","indexed":false,"internalType":"address"}],"anonymous":false},{"type":"event","name":"BackUpTriggered","inputs":[{"name":"_start","type":"bool","indexed":false,"internalType":"bool"}],"anonymous":false},{"type":"event","name":"BackupPriceReceived","inputs":[{"name":"orderId","type":"uint256","indexed":false,"internalType":"uint256"},{"name":"pairIndex","type":"uint256","indexed":false,"internalType":"uint256"},{"name":"price","type":"uint256","indexed":false,"internalType":"uint256"}],"anonymous":false},{"type":"event","name":"Initialized","inputs":[{"name":"version","type":"uint8","indexed":false,"internalType":"uint8"}],"anonymous":false},{"type":"event","name":"NumberUpdated","inputs":[{"name":"name","type":"string","indexed":false,"internalType":"string"},{"name":"value","type":"uint256","indexed":false,"internalType":"uint256"}],"anonymous":false},{"type":"event","name":"PriceReceived","inputs":[{"name":"orderId","type":"uint256","indexed":false,"internalType":"uint256"},{"name":"pairIndex","type":"uint256","indexed":false,"internalType":"uint256"},{"name":"price","type":"uint256","indexed":false,"internalType":"uint256"}],"anonymous":false},{"type":"event","name":"PythUpdated","inputs":[{"name":"a","type":"address","indexed":false,"internalType":"address"}],"anonymous":false},{"type":"event","name":"chainlinkValidityPeriodSet","inputs":[{"name":"_newPeriod","type":"uint256","indexed":false,"internalType":"uint256"}],"anonymous":false}],"bytecode":{"object":"0x60806040523480156200001157600080fd5b506200001c62000022565b620000e3565b600054610100900460ff16156200008f5760405162461bcd60e51b815260206004820152602760248201527f496e697469616c697a61626c653a20636f6e747261637420697320696e697469604482015266616c697a696e6760c81b606482015260840160405180910390fd5b60005460ff90811614620000e1576000805460ff191660ff9081179091556040519081527f7f26b83ff96e1f2b6a682f133852f6798a09c465da95921460cefb38474024989060200160405180910390a15b565b61300780620000f36000396000f3fe6080604052600436106101405760003560e01c8063b21f4517116100b6578063d09ef2411161006f578063d09ef24114610424578063d1f6652e14610451578063da74d14a1461047e578063dd2f3c051461049e578063ee22fd6f146104b1578063f98d06f0146104d157600080fd5b8063b21f451714610364578063b8213bfa14610384578063c0a027f4146103a4578063c0c53b8b146103c4578063c61904a1146103e4578063cbe91bd91461040457600080fd5b80633a100f4d116101085780633a100f4d1461025a57806340e9eda21461027a57806361417a431461029a57806367288428146102ba57806393d7fe2c146102eb578063a85c38ef1461030b57600080fd5b8063166a073b1461014557806316fff074146101675780631e8ff50d146101a457806335b03c17146101c857806337a3dba3146101e8575b600080fd5b34801561015157600080fd5b506101656101603660046127ed565b6104f7565b005b34801561017357600080fd5b50600154610187906001600160a01b031681565b6040516001600160a01b0390911681526020015b60405180910390f35b3480156101b057600080fd5b506101ba60045481565b60405190815260200161019b565b3480156101d457600080fd5b50600254610187906001600160a01b031681565b3480156101f457600080fd5b506102086102033660046127ed565b6105f2565b60405161019b919081516001600160a01b0316815260208083015190820152604080830151908201526060808301519082015260808083015115159082015260a0918201519181019190915260c00190565b34801561026657600080fd5b506101ba610275366004612958565b61069d565b34801561028657600080fd5b50610165610295366004612579565b610731565b3480156102a657600080fd5b506101656102b53660046127ed565b61089c565b3480156102c657600080fd5b506000546102db90600160b01b900460ff1681565b604051901515815260200161019b565b3480156102f757600080fd5b506101ba610306366004612936565b6109b5565b34801561031757600080fd5b506103546103263660046127ed565b6005602052600090815260409020805460018201546002830154600390930154919260ff9182169290911684565b60405161019b9493929190612bc2565b34801561037057600080fd5b50600354610187906001600160a01b031681565b34801561039057600080fd5b5061016561039f36600461290c565b6109e6565b3480156103b057600080fd5b506101ba6103bf36600461289e565b610abc565b3480156103d057600080fd5b506101656103df3660046125ba565b610c99565b3480156103f057600080fd5b506101656103ff3660046127ed565b610e2b565b34801561041057600080fd5b5061016561041f3660046128d2565b610f52565b34801561043057600080fd5b5061044461043f3660046127ed565b611022565b60405161019b9190612b19565b34801561045d57600080fd5b5061047161046c3660046127ed565b6110b9565b60405161019b9190612b51565b34801561048a57600080fd5b50610165610499366004612605565b6111a4565b6101656104ac36600461281f565b6112a7565b3480156104bd57600080fd5b506101656104cc366004612579565b6121c0565b3480156104dd57600080fd5b50600054610187906201000090046001600160a01b031681565b600160009054906101000a90046001600160a01b03166001600160a01b03166312d43a516040518163ffffffff1660e01b815260040160206040518083038186803b15801561054557600080fd5b505afa158015610559573d6000803e3d6000fd5b505050506040513d601f19601f8201168201806040525081019061057d919061259d565b6001600160a01b0316336001600160a01b0316146105b65760405162461bcd60e51b81526004016105ad90612af7565b60405180910390fd5b60048190556040518181527fb7116a6d2338b4af7895e72c37e89f941362a610ee8e3787ee4b3113aa51a747906020015b60405180910390a150565b6106366040518060c0016040528060006001600160a01b03168152602001600081526020016000815260200160008152602001600015158152602001600081525090565b50600090815260076020908152604091829020825160c08101845281546001600160a01b0316815260018201549281019290925260028101549282019290925260038201546060820152600482015460ff161515608082015260059091015460a082015290565b60025460405163fb3e519d60e01b8152600481018590526024810184905282151560448201526000916001600160a01b03169063fb3e519d9060640160206040518083038186803b1580156106f157600080fd5b505afa158015610705573d6000803e3d6000fd5b505050506040513d601f19601f820116820180604052508101906107299190612806565b949350505050565b600160009054906101000a90046001600160a01b03166001600160a01b03166312d43a516040518163ffffffff1660e01b815260040160206040518083038186803b15801561077f57600080fd5b505afa158015610793573d6000803e3d6000fd5b505050506040513d601f19601f820116820180604052508101906107b7919061259d565b6001600160a01b0316336001600160a01b0316146107e75760405162461bcd60e51b81526004016105ad90612af7565b6001600160a01b0381166108275760405162461bcd60e51b8152602060048201526007602482015266056414c55455f360cc1b60448201526064016105ad565b600280546001600160a01b0319166001600160a01b03831690811790915560408051818152600c918101919091526b706169727353746f7261676560a01b606082015260208101919091527f943e9d45a11aaae5d87503e3bc248665d9807856e5cf2bdb4a988bee44422781906080016105e7565b600160009054906101000a90046001600160a01b03166001600160a01b031662b127836040518163ffffffff1660e01b815260040160206040518083038186803b1580156108e957600080fd5b505afa1580156108fd573d6000803e3d6000fd5b505050506040513d601f19601f82011682018060405250810190610921919061259d565b6001600160a01b0316336001600160a01b0316146109725760405162461bcd60e51b815260206004820152600e60248201526d43414c4c4241434b535f4f4e4c5960901b60448201526064016105ad565b600090815260076020526040812080546001600160a01b031916815560018101829055600281018290556003810182905560048101805460ff1916905560050155565b600660205281600052604060002081815481106109d157600080fd5b90600052602060002001600091509150505481565b600160009054906101000a90046001600160a01b03166001600160a01b031663ec44acf26040518163ffffffff1660e01b815260040160206040518083038186803b158015610a3457600080fd5b505afa158015610a48573d6000803e3d6000fd5b505050506040513d601f19601f82011682018060405250810190610a6c919061259d565b6001600160a01b0316336001600160a01b031614610a9c5760405162461bcd60e51b81526004016105ad90612ad1565b60008281526007602052604090208190610ab68282612f47565b50505050565b60015460408051637622567960e11b815290516000926001600160a01b03169163ec44acf2916004808301926020929190829003018186803b158015610b0157600080fd5b505afa158015610b15573d6000803e3d6000fd5b505050506040513d601f19601f82011682018060405250810190610b39919061259d565b6001600160a01b0316336001600160a01b031614610b695760405162461bcd60e51b81526004016105ad90612ad1565b600254604051630c0be07f60e21b81526004810185905260009182916001600160a01b039091169063302f81fc90602401600060405180830381600087803b158015610bb457600080fd5b505af1158015610bc8573d6000803e3d6000fd5b505050506040513d6000823e601f3d908101601f19168201604052610bf09190810190612622565b945050935050506040518060800160405280868152602001856005811115610c1a57610c1a612e4c565b8152602080820185905260016040928301819052600085815260058084529390208451815591840151828201805493949193909260ff19909116918490811115610c6657610c66612e4c565b0217905550604082015160028201556060909101516003909101805460ff19169115159190911790559150505b92915050565b600054610100900460ff1615808015610cb95750600054600160ff909116105b80610cd35750303b158015610cd3575060005460ff166001145b610d365760405162461bcd60e51b815260206004820152602e60248201527f496e697469616c697a61626c653a20636f6e747261637420697320616c72656160448201526d191e481a5b9a5d1a585b1a5e995960921b60648201526084016105ad565b6000805460ff191660011790558015610d59576000805461ff0019166101001790555b6001600160a01b038316610d9e5760405162461bcd60e51b815260206004820152600c60248201526b57524f4e475f504152414d5360a01b60448201526064016105ad565b600280546001600160a01b038086166001600160a01b03199283161790925560038054858416908316179055600180549287169290911691909117905560786004558015610ab6576000805461ff0019169055604051600181527f7f26b83ff96e1f2b6a682f133852f6798a09c465da95921460cefb38474024989060200160405180910390a150505050565b600160009054906101000a90046001600160a01b03166001600160a01b031662b127836040518163ffffffff1660e01b815260040160206040518083038186803b158015610e7857600080fd5b505afa158015610e8c573d6000803e3d6000fd5b505050506040513d601f19601f82011682018060405250810190610eb0919061259d565b6001600160a01b0316336001600160a01b031614610f015760405162461bcd60e51b815260206004820152600e60248201526d43414c4c4241434b535f4f4e4c5960901b60448201526064016105ad565b600090815260086020526040812080546001600160a01b0319168155600181018290556002810182905560038101805460ff1916905560048101829055600581018290556006810182905560070155565b600160009054906101000a90046001600160a01b03166001600160a01b031663ec44acf26040518163ffffffff1660e01b815260040160206040518083038186803b158015610fa057600080fd5b505afa158015610fb4573d6000803e3d6000fd5b505050506040513d601f19601f82011682018060405250810190610fd8919061259d565b6001600160a01b0316336001600160a01b0316146110085760405162461bcd60e51b81526004016105ad90612ad1565b60008281526008602052604090208190610ab68282612ed1565b60408051608081018252600080825260208201819052918101829052606081019190915260008281526005602081815260409283902083516080810190945280548452600181015490929184019160ff9091169081111561108557611085612e4c565b600581111561109657611096612e4c565b81526002820154602082015260039091015460ff16151560409091015292915050565b61110160408051610100810182526000808252602082018190529181018290529060608201908152602001600081526020016000815260200160008152602001600081525090565b60008281526008602090815260409182902082516101008101845281546001600160a01b031681526001808301549382019390935260028201549381019390935260038101549091606084019160ff169081111561116157611161612e4c565b600181111561117257611172612e4c565b815260048201546020820152600582015460408201526006820154606082015260079091015460809091015292915050565b600160009054906101000a90046001600160a01b03166001600160a01b03166312d43a516040518163ffffffff1660e01b815260040160206040518083038186803b1580156111f257600080fd5b505afa158015611206573d6000803e3d6000fd5b505050506040513d601f19601f8201168201806040525081019061122a919061259d565b6001600160a01b0316336001600160a01b03161461125a5760405162461bcd60e51b81526004016105ad90612af7565b60008054821515600160b01b0260ff60b01b199091161790556040517f5a3be68c2e82796ccb7eaec7f9aecf7cd941e6fc2d4298f6c4f101e924c15a47906105e790831515815260200190565b600160009054906101000a90046001600160a01b03166001600160a01b031663ec44acf26040518163ffffffff1660e01b815260040160206040518083038186803b1580156112f557600080fd5b505afa158015611309573d6000803e3d6000fd5b505050506040513d601f19601f8201168201806040525081019061132d919061259d565b6001600160a01b0316336001600160a01b03161461135d5760405162461bcd60e51b81526004016105ad90612ad1565b6000838152600560205260409020600381015460ff1615610ab657600254815460405163685e905b60e01b815260009283926001600160a01b039091169163685e905b916113b19160040190815260200190565b604080518083038186803b1580156113c857600080fd5b505afa1580156113dc573d6000803e3d6000fd5b505050506040513d601f19601f8201168201806040525081019061140091906126ae565b6000878152600660205260408120905491925090600160b01b900460ff16801561144257506003600185015460ff16600581111561144057611440612e4c565b145b801561145a575060208201516001600160a01b031615155b156116805760015460405163363df41d60e11b8152600481018990526000916001600160a01b031690636c7be83a9060240160806040518083038186803b1580156114a457600080fd5b505afa1580156114b8573d6000803e3d6000fd5b505050506040513d601f19601f820116820180604052508101906114dc9190612718565b90506002816060015160038111156114f6576114f6612e4c565b141561167a57600083602001519050600080826001600160a01b031663feaf968c6040518163ffffffff1660e01b815260040160a06040518083038186803b15801561154157600080fd5b505afa158015611555573d6000803e3d6000fd5b505050506040513d601f19601f820116820180604052508101906115799190612986565b50935050925050426004548261158f9190612c6a565b10611676576000836001600160a01b031663313ce5676040518163ffffffff1660e01b815260040160206040518083038186803b1580156115cf57600080fd5b505afa1580156115e3573d6000803e3d6000fd5b505050506040513d601f19601f8201168201806040525081019061160791906129d6565b61161290600a612ceb565b6116216402540be40085612d97565b61162b9190612c82565b8954604080518f8152602081019290925281018290529098508891507f482b3c0103a0a457f4564b7b9d39dfe5be10c809b29f2b102ee9f7e8e8eebc2c9060600160405180910390a1505b5050505b50611cd8565b600054600160b01b900460ff16611cd8576000805460405163d47eed4560e01b8152620100009091046001600160a01b03169063d47eed45906116c9908a908a90600401612a36565b60206040518083038186803b1580156116e157600080fd5b505afa1580156116f5573d6000803e3d6000fd5b505050506040513d601f19601f820116820180604052508101906117199190612806565b600054604051631df3cbc560e31b81529192506201000090046001600160a01b03169063ef9e5e28908390611754908b908b90600401612a36565b6000604051808303818588803b15801561176d57600080fd5b505af1158015611781573d6000803e3d6000fd5b50506000805460028a01546040516331d98b3f60e01b815260048101919091529194506201000090046001600160a01b031692506331d98b3f915060240160806040518083038186803b1580156117d757600080fd5b505afa1580156117eb573d6000803e3d6000fd5b505050506040513d601f19601f8201168201806040525081019061180f9190612773565b9050600080826040015160030b131561189b57604082015161183290600a612cd9565b825161184e906402540be4009067ffffffffffffffff16612d97565b6118589190612d97565b95508160400151600a61186b9190612cd9565b6402540be400836020015167ffffffffffffffff1661188a9190612d97565b6118949190612d97565b9050611921565b81604001516118a990612dfc565b6118b490600a612cd9565b82516118d0906402540be4009067ffffffffffffffff16612d97565b6118da9190612c82565b955081604001516118ea90612dfc565b6118f590600a612cd9565b6402540be400836020015167ffffffffffffffff166119149190612d97565b61191e9190612c82565b90505b60025487546040516307aa801760e21b815260048101919091526000916001600160a01b031690631eaa005c90602401604080518083038186803b15801561196857600080fd5b505afa15801561197c573d6000803e3d6000fd5b505050506040513d601f19601f820116820180604052508101906119a091906126e6565b90506000871180156119d757508051876119bf6402540be40085612d97565b6119ca906064612d97565b6119d49190612c82565b11155b611a235760405162461bcd60e51b815260206004820152601860248201527f50524943455f444556494154494f4e5f544f4f5f48494748000000000000000060448201526064016105ad565b855115801590611a3f575060208601516001600160a01b031615155b15611cd357600086602001519050600080826001600160a01b031663feaf968c6040518163ffffffff1660e01b815260040160a06040518083038186803b158015611a8957600080fd5b505afa158015611a9d573d6000803e3d6000fd5b505050506040513d601f19601f82011682018060405250810190611ac19190612986565b509350509250504260045482611ad79190612c6a565b10611ccf576000836001600160a01b031663313ce5676040518163ffffffff1660e01b815260040160206040518083038186803b158015611b1757600080fd5b505afa158015611b2b573d6000803e3d6000fd5b505050506040513d601f19601f82011682018060405250810190611b4f91906129d6565b611b5a90600a612ceb565b611b696402540be40085612d97565b611b739190612c82565b90507f482b3c0103a0a457f4564b7b9d39dfe5be10c809b29f2b102ee9f7e8e8eebc2c8f8d6000015483604051611bbd939291909283526020830191909152604082015260600190565b60405180910390a18a811115611c495789518b6402540be400611be08285612db6565b611beb906064612d97565b611bf59190612d97565b611bff9190612c82565b1115611c495760405162461bcd60e51b8152602060048201526019602482015278084828696aaa0be888aac9282a8929e9cbea89e9ebe90928e9603b1b60448201526064016105ad565b8a811015611ccd578951816402540be400611c64828f612db6565b611c6f906064612d97565b611c799190612d97565b611c839190612c82565b1115611ccd5760405162461bcd60e51b8152602060048201526019602482015278084828696aaa0be888aac9282a8929e9cbea89e9ebe90928e9603b1b60448201526064016105ad565b505b5050505b505050505b805460018101825560008281526020908190209091018490558454604080518a81529283019190915281018490527f153ed01a0a6e506afbb501e4c353ea1c06dd65f8e1e9cb7afe44416e1dd775169060600160405180910390a18054156121b75760006040518060600160405280898152602001611da584805480602002602001604051908101604052809291908181526020018280548015611d9b57602002820191906000526020600020905b815481526020019060010190808311611d87575b50505050506122ce565b8152600254875460405163a1d54e9b60e01b81526020909301926001600160a01b039092169163a1d54e9b91611de19160040190815260200190565b60206040518083038186803b158015611df957600080fd5b505afa158015611e0d573d6000803e3d6000fd5b505050506040513d601f19601f82011682018060405250810190611e319190612806565b81525090506000600160009054906101000a90046001600160a01b03166001600160a01b031662b127836040518163ffffffff1660e01b815260040160206040518083038186803b158015611e8557600080fd5b505afa158015611e99573d6000803e3d6000fd5b505050506040513d601f19601f82011682018060405250810190611ebd919061259d565b90506000600187015460ff166005811115611eda57611eda612e4c565b1415611f5a578151602083015160408085015190516376eb3fdf60e11b81526004810193909352602483019190915260448201526001600160a01b0382169063edd67fbe906064015b600060405180830381600087803b158015611f3d57600080fd5b505af1158015611f51573d6000803e3d6000fd5b5050505061216e565b60018087015460ff166005811115611f7457611f74612e4c565b1415611fc15781516020830151604080850151905163fa7227e960e01b81526004810193909352602483019190915260448201526001600160a01b0382169063fa7227e990606401611f23565b6002600187015460ff166005811115611fdc57611fdc612e4c565b1415612029578151602083015160408085015190516342be1f8f60e11b81526004810193909352602483019190915260448201526001600160a01b0382169063857c3f1e90606401611f23565b6003600187015460ff16600581111561204457612044612e4c565b14156120915781516020830151604080850151905163b225047160e01b81526004810193909352602483019190915260448201526001600160a01b0382169063b225047190606401611f23565b6004600187015460ff1660058111156120ac576120ac612e4c565b14156120f957815160208301516040808501519051630407df4b60e31b81526004810193909352602483019190915260448201526001600160a01b0382169063203efa5890606401611f23565b81516020830151604080850151905163da0870e760e01b81526004810193909352602483019190915260448201526001600160a01b0382169063da0870e790606401600060405180830381600087803b15801561215557600080fd5b505af1158015612169573d6000803e3d6000fd5b505050505b600089815260056020908152604080832083815560018101805460ff1990811690915560028201859055600390910180549091169055600690915281206121b491612494565b50505b50505050505050565b600160009054906101000a90046001600160a01b03166001600160a01b03166312d43a516040518163ffffffff1660e01b815260040160206040518083038186803b15801561220e57600080fd5b505afa158015612222573d6000803e3d6000fd5b505050506040513d601f19601f82011682018060405250810190612246919061259d565b6001600160a01b0316336001600160a01b0316146122765760405162461bcd60e51b81526004016105ad90612af7565b6000805462010000600160b01b031916620100006001600160a01b038416908102919091179091556040519081527fc0377667bd059a05c5d852537639c6099198490d6e89d187764aff179ffec748906020016105e7565b60006122dd826000845161235e565b600282516122eb9190612de8565b15612314578160018351901c8151811061230757612307612e62565b6020026020010151610c93565b60018260018451901c8151811061232d5761232d612e62565b602090810291909101015183518490612344612e62565b60200260200101516123569190612c6a565b901c92915050565b80821061236a57505050565b6000829050600084828151811061238357612383612e62565b60200260200101519050600084600161239c9190612c6a565b90505b838110156123ee57818682815181106123ba576123ba612e62565b602002602001015110156123de576123de86826123d686612dcd565b955085612421565b6123e781612dcd565b905061239f565b506123fa858584612421565b61240585858461235e565b61241a85612414846001612c6a565b8561235e565b5050505050565b82818151811061243357612433612e62565b602002602001015183838151811061244d5761244d612e62565b602002602001015184848151811061246757612467612e62565b6020026020010185848151811061248057612480612e62565b602090810291909101019190915252505050565b50805460008255906000526020600020908101906124b291906124b5565b50565b5b808211156124ca57600081556001016124b6565b5090565b600082601f8301126124df57600080fd5b815167ffffffffffffffff8111156124f9576124f9612e78565b602061250d601f8301601f19168201612c39565b828152858284870101111561252157600080fd5b60005b8381101561253f578581018301518282018401528201612524565b838111156125505760008385840101525b5095945050505050565b805169ffffffffffffffffffff8116811461257457600080fd5b919050565b60006020828403121561258b57600080fd5b813561259681612fae565b9392505050565b6000602082840312156125af57600080fd5b815161259681612fae565b6000806000606084860312156125cf57600080fd5b83356125da81612fae565b925060208401356125ea81612fae565b915060408401356125fa81612fae565b809150509250925092565b60006020828403121561261757600080fd5b813561259681612fc3565b600080600080600060a0868803121561263a57600080fd5b855167ffffffffffffffff8082111561265257600080fd5b61265e89838a016124ce565b9650602088015191508082111561267457600080fd5b50612681888289016124ce565b94505060408601519250606086015161269981612fae565b80925050608086015190509295509295909350565b6000604082840312156126c057600080fd5b6126c8612bed565b8251815260208301516126da81612fae565b60208201529392505050565b6000604082840312156126f857600080fd5b612700612bed565b82518152602083015160208201528091505092915050565b60006080828403121561272a57600080fd5b612732612c16565b825161273d81612fae565b80825250602083015160208201526040830151604082015260608301516004811061276757600080fd5b60608201529392505050565b60006080828403121561278557600080fd5b61278d612c16565b82518060070b811461279e57600080fd5b8152602083015167ffffffffffffffff811681146127bb57600080fd5b60208201526040830151600381900b81146127d557600080fd5b60408201526060928301519281019290925250919050565b6000602082840312156127ff57600080fd5b5035919050565b60006020828403121561281857600080fd5b5051919050565b60008060006040848603121561283457600080fd5b83359250602084013567ffffffffffffffff8082111561285357600080fd5b818601915086601f83011261286757600080fd5b81358181111561287657600080fd5b8760208260051b850101111561288b57600080fd5b6020830194508093505050509250925092565b600080604083850312156128b157600080fd5b823591506020830135600681106128c757600080fd5b809150509250929050565b6000808284036101208112156128e757600080fd5b83359250610100601f19820112156128fe57600080fd5b506020830190509250929050565b60008082840360e081121561292057600080fd5b8335925060c0601f19820112156128fe57600080fd5b6000806040838503121561294957600080fd5b50508035926020909101359150565b60008060006060848603121561296d57600080fd5b833592506020840135915060408401356125fa81612fc3565b600080600080600060a0868803121561299e57600080fd5b6129a78661255a565b94506020860151935060408601519250606086015191506129ca6080870161255a565b90509295509295909350565b6000602082840312156129e857600080fd5b815160ff8116811461259657600080fd5b81835281816020850137506000828201602090810191909152601f909101601f19169091010190565b60068110612a3257612a32612e4c565b9052565b60208082528181018390526000906040600585901b8401810190840186845b87811015612ac457868403603f190183528135368a9003601e19018112612a7b57600080fd5b8901803567ffffffffffffffff811115612a9457600080fd5b8036038b1315612aa357600080fd5b612ab086828985016129f9565b955050509184019190840190600101612a55565b5091979650505050505050565b6020808252600c908201526b54524144494e475f4f4e4c5960a01b604082015260600190565b602080825260089082015267474f565f4f4e4c5960c01b604082015260600190565b815181526020808301516080830191612b3490840182612a22565b506040830151604083015260608301511515606083015292915050565b81516001600160a01b031681526020808301519082015260408083015190820152606082015161010082019060028110612b8d57612b8d612e4c565b806060840152506080830151608083015260a083015160a083015260c083015160c083015260e083015160e083015292915050565b84815260808101612bd66020830186612a22565b836040830152821515606083015295945050505050565b6040805190810167ffffffffffffffff81118282101715612c1057612c10612e78565b60405290565b6040516080810167ffffffffffffffff81118282101715612c1057612c10612e78565b604051601f8201601f1916810167ffffffffffffffff81118282101715612c6257612c62612e78565b604052919050565b60008219821115612c7d57612c7d612e20565b500190565b600082612c9157612c91612e36565b500490565b600181815b80851115612cd1578160001904821115612cb757612cb7612e20565b80851615612cc457918102915b93841c9390800290612c9b565b509250929050565b600061259663ffffffff841683612cf6565b600061259660ff8416835b600082612d0557506001610c93565b81612d1257506000610c93565b8160018114612d285760028114612d3257612d4e565b6001915050610c93565b60ff841115612d4357612d43612e20565b50506001821b610c93565b5060208310610133831016604e8410600b8410161715612d71575081810a610c93565b612d7b8383612c96565b8060001904821115612d8f57612d8f612e20565b029392505050565b6000816000190483118215151615612db157612db1612e20565b500290565b600082821015612dc857612dc8612e20565b500390565b6000600019821415612de157612de1612e20565b5060010190565b600082612df757612df7612e36565b500690565b60008160030b637fffffff19811415612e1757612e17612e20565b60000392915050565b634e487b7160e01b600052601160045260246000fd5b634e487b7160e01b600052601260045260246000fd5b634e487b7160e01b600052602160045260246000fd5b634e487b7160e01b600052603260045260246000fd5b634e487b7160e01b600052604160045260246000fd5b80546001600160a01b0319166001600160a01b0392909216919091179055565b60028210612ebe57612ebe612e4c565b60ff1981541660ff831681178255505050565b8135612edc81612fae565b612ee68183612e8e565b506020820135600182015560408201356002820155606082013560028110612f0d57600080fd5b612f1a8160038401612eae565b506080820135600482015560a0820135600582015560c0820135600682015560e082013560078201555050565b8135612f5281612fae565b612f5c8183612e8e565b50602082013560018201556040820135600282015560608201356003820155600481016080830135612f8d81612fc3565b60ff1982541660ff821515168117835550505060a082013560058201555050565b6001600160a01b03811681146124b257600080fd5b80151581146124b257600080fdfea26469706673582212202877d8a21ab0275c6cb8638d49dab81cc1e2badae44f3a97f854052cdf24681264736f6c63430008070033","linkReferences":{}},"methodIdentifiers":{"chainlinkValidityPeriod()":"1e8ff50d","executions()":"b21f4517","fulfill(uint256,bytes[])":"dd2f3c05","getOrder(uint256)":"d09ef241","getPrice(uint256,uint8)":"c0a027f4","initialize(address,address,address)":"c0c53b8b","openFeeP(uint256,uint256,bool)":"3a100f4d","orders(uint256)":"a85c38ef","ordersAnswers(uint256,uint256)":"93d7fe2c","pairsStorage()":"35b03c17","pendingMarginUpdateOrders(uint256)":"d1f6652e","pendingSlOrders(uint256)":"37a3dba3","pyth()":"f98d06f0","setChainlinkValidityPeriod(uint256)":"166a073b","setPyth(address)":"ee22fd6f","storageT()":"16fff074","storePendingMarginUpdateOrder(uint256,(address,uint256,uint256,uint8,uint256,uint256,uint256,uint256))":"cbe91bd9","storePendingSlOrder(uint256,(address,uint256,uint256,uint256,bool,uint256))":"b8213bfa","unregisterPendingMarginUpdateOrder(uint256)":"c61904a1","unregisterPendingSlOrder(uint256)":"61417a43","updatePairsStorage(address)":"40e9eda2","useBackUpOracleOnly(bool)":"da74d14a","useBackupOnly()":"67288428"},"id":105}