{"abi":[{"type":"function","name":"BASE_MAINNET_AVANTIS_MULTISIG","inputs":[],"outputs":[{"name":"","type":"address","internalType":"address"}],"stateMutability":"view"},{"type":"function","name":"BASE_MAINNET_EXECUTE","inputs":[],"outputs":[{"name":"","type":"address","internalType":"address"}],"stateMutability":"view"},{"type":"function","name":"BASE_MAINNET_JUNIOR_TRANCHE","inputs":[],"outputs":[{"name":"","type":"address","internalType":"address"}],"stateMutability":"view"},{"type":"function","name":"BASE_MAINNET_JUNIOR_VE_TRANCHE","inputs":[],"outputs":[{"name":"","type":"address","internalType":"address"}],"stateMutability":"view"},{"type":"function","name":"BASE_MAINNET_PAIRINFOS","inputs":[],"outputs":[{"name":"","type":"address","internalType":"address"}],"stateMutability":"view"},{"type":"function","name":"BASE_MAINNET_PAIRSTORAGE","inputs":[],"outputs":[{"name":"","type":"address","internalType":"address"}],"stateMutability":"view"},{"type":"function","name":"BASE_MAINNET_PRICE_AGGREGATOR","inputs":[],"outputs":[{"name":"","type":"address","internalType":"address"}],"stateMutability":"view"},{"type":"function","name":"BASE_MAINNET_PROXY_ADMIN","inputs":[],"outputs":[{"name":"","type":"address","internalType":"address"}],"stateMutability":"view"},{"type":"function","name":"BASE_MAINNET_REFERRAL","inputs":[],"outputs":[{"name":"","type":"address","internalType":"address"}],"stateMutability":"view"},{"type":"function","name":"BASE_MAINNET_SENIOR_TRANCHE","inputs":[],"outputs":[{"name":"","type":"address","internalType":"address"}],"stateMutability":"view"},{"type":"function","name":"BASE_MAINNET_SENIOR_VE_TRANCHE","inputs":[],"outputs":[{"name":"","type":"address","internalType":"address"}],"stateMutability":"view"},{"type":"function","name":"BASE_MAINNET_TRADING","inputs":[],"outputs":[{"name":"","type":"address","internalType":"address"}],"stateMutability":"view"},{"type":"function","name":"BASE_MAINNET_TRADING_CALLBACKS","inputs":[],"outputs":[{"name":"","type":"address","internalType":"address"}],"stateMutability":"view"},{"type":"function","name":"BASE_MAINNET_TRADING_STORAGE","inputs":[],"outputs":[{"name":"","type":"address","internalType":"address"}],"stateMutability":"view"},{"type":"function","name":"BASE_MAINNET_USDC","inputs":[],"outputs":[{"name":"","type":"address","internalType":"address"}],"stateMutability":"view"},{"type":"function","name":"BASE_MAINNET_VAULT_MANAGER","inputs":[],"outputs":[{"name":"","type":"address","internalType":"address"}],"stateMutability":"view"},{"type":"function","name":"BASE_TESTNET_AVANTIS_MULTISIG","inputs":[],"outputs":[{"name":"","type":"address","internalType":"address"}],"stateMutability":"view"},{"type":"function","name":"BASE_TESTNET_EXECUTE","inputs":[],"outputs":[{"name":"","type":"address","internalType":"address"}],"stateMutability":"view"},{"type":"function","name":"BASE_TESTNET_JUNIOR_TRANCHE","inputs":[],"outputs":[{"name":"","type":"address","internalType":"address"}],"stateMutability":"view"},{"type":"function","name":"BASE_TESTNET_JUNIOR_VE_TRANCHE","inputs":[],"outputs":[{"name":"","type":"address","internalType":"address"}],"stateMutability":"view"},{"type":"function","name":"BASE_TESTNET_PAIRINFOS","inputs":[],"outputs":[{"name":"","type":"address","internalType":"address"}],"stateMutability":"view"},{"type":"function","name":"BASE_TESTNET_PAIRSTORAGE","inputs":[],"outputs":[{"name":"","type":"address","internalType":"address"}],"stateMutability":"view"},{"type":"function","name":"BASE_TESTNET_PRICE_AGGREGATOR","inputs":[],"outputs":[{"name":"","type":"address","internalType":"address"}],"stateMutability":"view"},{"type":"function","name":"BASE_TESTNET_PROXY_ADMIN","inputs":[],"outputs":[{"name":"","type":"address","internalType":"address"}],"stateMutability":"view"},{"type":"function","name":"BASE_TESTNET_REFERRAL","inputs":[],"outputs":[{"name":"","type":"address","internalType":"address"}],"stateMutability":"view"},{"type":"function","name":"BASE_TESTNET_SENIOR_TRANCHE","inputs":[],"outputs":[{"name":"","type":"address","internalType":"address"}],"stateMutability":"view"},{"type":"function","name":"BASE_TESTNET_SENIOR_VE_TRANCHE","inputs":[],"outputs":[{"name":"","type":"address","internalType":"address"}],"stateMutability":"view"},{"type":"function","name":"BASE_TESTNET_TRADING","inputs":[],"outputs":[{"name":"","type":"address","internalType":"address"}],"stateMutability":"view"},{"type":"function","name":"BASE_TESTNET_TRADING_CALLBACKS","inputs":[],"outputs":[{"name":"","type":"address","internalType":"address"}],"stateMutability":"view"},{"type":"function","name":"BASE_TESTNET_TRADING_STORAGE","inputs":[],"outputs":[{"name":"","type":"address","internalType":"address"}],"stateMutability":"view"},{"type":"function","name":"BASE_TESTNET_USDC","inputs":[],"outputs":[{"name":"","type":"address","internalType":"address"}],"stateMutability":"view"},{"type":"function","name":"BASE_TESTNET_VAULT_MANAGER","inputs":[],"outputs":[{"name":"","type":"address","internalType":"address"}],"stateMutability":"view"}],"bytecode":{"object":"0x61059661003a600b82828239805160001a60731461002d57634e487b7160e01b600052600060045260246000fd5b30600052607381538281f3fe73000000000000000000000000000000000000000030146080604052600436106101fa5760003560e01c80636408288311610119578063a4bc876a116100ac578063ba7571d51161007b578063ba7571d51461050f578063cbbb6f7f1461052a578063cd057efe1461050f578063f75057721461054557600080fd5b8063a4bc876a146104a3578063a5a9330d146104be578063acb8f169146104d9578063b4364715146104f457600080fd5b80637c6902de116100e85780637c6902de146104375780639b9dfa5b146104525780639bdc45971461046d5780639c8999f91461048857600080fd5b806364082883146103cb57806365ee0582146103e657806371617af4146104015780637a9e11081461041c57600080fd5b806334cfe0a5116101915780635065e4d0116101605780635065e4d01461035f57806356b859791461037a5780635a32b36e146103955780635df9c970146103b057600080fd5b806334cfe0a5146102f357806343e616bb1461030e57806346ad5793146103295780634f823dcc1461034457600080fd5b80631918b655116101cd5780631918b655146102875780631a2551c1146102a25780631cbe9e01146102bd57806325889a57146102d857600080fd5b806302bd436f146101ff5780630f597e891461023657806313e44b841461025157806316d27b9f1461026c575b600080fd5b61021a732d898e46a20ebfc1424d4bbf69bacd92dc1ae8bb81565b6040516001600160a01b03909116815260200160405180910390f35b61021a73833589fcd6edb6e08f4c7c32d4f71b54bda0291381565b61021a735ff292d70ba9cd9e7ccb313782811b3d7120535f81565b61021a73b5257143e54a8dc36d61455e76ca7b23288a451e81565b61021a7392ed158d5e423cfdc9eed5bd7328fff7ced6ff9481565b61021a73b12ec29f00fb2ec2ea52a513f74924738707b52181565b61021a7364e2625621970f8cfa17b294670d61cb883da51181565b61021a73d024cbaa3285e2ef745e9913349d6a436c71514781565b61021a736914110efe4e61cfa0f28de5f6606baa33d2169381565b61021a73a43f9bcea9c53a4b33963d2dc9ba3293a15ef97b81565b61021a730c16ff40065cc3ab4bc55b60e447504afb9c797081565b61021a73e9fb8c70af1b99f2baaa07aa926fcf3d237348dd81565b61021a7312168d4fa2c2b552e9a1c8908af2b36b40c8365481565b61021a737bf094c44b3cff8c95e06a76557443f5408efb0581565b61021a73dac9adaeb61a3da71a789f4ae8d2c877ce823c1581565b61021a73d3592342af7c2b377c6a0bb48257d4218d3b125981565b61021a7381f22d0cc22977c91befe648c9fddf1f2bd977e581565b61021a73a1a1422aa49af1639a99a3174aa004970f79224c81565b61021a73944766f715b51967e56afde5f0aa76ceacc9e7f981565b61021a7383084cb182162473d6feffcd3aa48ba55a7b66f781565b61021a73dc9dacec5cc3aafd43215e3b21f73f48e28bb6bc81565b61021a733508c8a3888a534c4ea8a47ff37aac7954a7256581565b61021a731f99bfcf008b630d1baf7123707141f0179706da81565b61021a738a311d7048c35985aa31c131b9a13e03a5f7422d81565b61021a7379325ccf0242a03d97d34d00620510ad7de7b9df81565b61021a73dbdd7b8a8747904f53eb7aef655a6ff81e2c306a81565b61021a73f38a91ce681542a3fb18d567f5e0304a5c732bfd81565b61021a73a96f577821933d127b491d0f91202405b0dbb1bd81565b61021a735955c1478f0dad753c7e2b4dd1b4bc530c64749f81565b61021a7331cad753fb2529742d4934acb5bf25e29184587a81565b61021a73655b92c8e1196dd5233ff3be19f900257780038e8156fea2646970667358221220b7d98fa1fed95e69a80fa385822164bf461a38a1dad731d6b07199f9057d2d5c64736f6c63430008070033","linkReferences":{}},"methodIdentifiers":{"BASE_MAINNET_AVANTIS_MULTISIG()":"ba7571d5","BASE_MAINNET_EXECUTE()":"a5a9330d","BASE_MAINNET_JUNIOR_TRANCHE()":"71617af4","BASE_MAINNET_JUNIOR_VE_TRANCHE()":"56b85979","BASE_MAINNET_PAIRINFOS()":"64082883","BASE_MAINNET_PAIRSTORAGE()":"1918b655","BASE_MAINNET_PRICE_AGGREGATOR()":"1cbe9e01","BASE_MAINNET_PROXY_ADMIN()":"02bd436f","BASE_MAINNET_REFERRAL()":"b4364715","BASE_MAINNET_SENIOR_TRANCHE()":"7a9e1108","BASE_MAINNET_SENIOR_VE_TRANCHE()":"34cfe0a5","BASE_MAINNET_TRADING()":"13e44b84","BASE_MAINNET_TRADING_CALLBACKS()":"46ad5793","BASE_MAINNET_TRADING_STORAGE()":"9c8999f9","BASE_MAINNET_USDC()":"0f597e89","BASE_MAINNET_VAULT_MANAGER()":"4f823dcc","BASE_TESTNET_AVANTIS_MULTISIG()":"cd057efe","BASE_TESTNET_EXECUTE()":"cbbb6f7f","BASE_TESTNET_JUNIOR_TRANCHE()":"5065e4d0","BASE_TESTNET_JUNIOR_VE_TRANCHE()":"43e616bb","BASE_TESTNET_PAIRINFOS()":"5df9c970","BASE_TESTNET_PAIRSTORAGE()":"1a2551c1","BASE_TESTNET_PRICE_AGGREGATOR()":"16d27b9f","BASE_TESTNET_PROXY_ADMIN()":"9bdc4597","BASE_TESTNET_REFERRAL()":"f7505772","BASE_TESTNET_SENIOR_TRANCHE()":"a4bc876a","BASE_TESTNET_SENIOR_VE_TRANCHE()":"9b9dfa5b","BASE_TESTNET_TRADING()":"25889a57","BASE_TESTNET_TRADING_CALLBACKS()":"7c6902de","BASE_TESTNET_TRADING_STORAGE()":"5a32b36e","BASE_TESTNET_USDC()":"65ee0582","BASE_TESTNET_VAULT_MANAGER()":"acb8f169"},"id":85}