{"abi":[{"type":"constructor","inputs":[],"stateMutability":"nonpayable"},{"type":"function","name":"acceptCodeOwnership","inputs":[{"name":"_code","type":"bytes32","internalType":"bytes32"}],"outputs":[],"stateMutability":"nonpayable"},{"type":"function","name":"codeOwners","inputs":[{"name":"","type":"bytes32","internalType":"bytes32"}],"outputs":[{"name":"","type":"address","internalType":"address"}],"stateMutability":"view"},{"type":"function","name":"codes","inputs":[{"name":"","type":"address","internalType":"address"}],"outputs":[{"name":"","type":"bytes32","internalType":"bytes32"}],"stateMutability":"view"},{"type":"function","name":"getTraderReferralInfo","inputs":[{"name":"_account","type":"address","internalType":"address"}],"outputs":[{"name":"","type":"bytes32","internalType":"bytes32"},{"name":"","type":"address","internalType":"address"}],"stateMutability":"view"},{"type":"function","name":"gov","inputs":[],"outputs":[{"name":"","type":"address","internalType":"address"}],"stateMutability":"view"},{"type":"function","name":"govSetCodeOwner","inputs":[{"name":"_code","type":"bytes32","internalType":"bytes32"},{"name":"_newAccount","type":"address","internalType":"address"}],"outputs":[],"stateMutability":"nonpayable"},{"type":"function","name":"isHandler","inputs":[{"name":"","type":"address","internalType":"address"}],"outputs":[{"name":"","type":"bool","internalType":"bool"}],"stateMutability":"view"},{"type":"function","name":"pendingCodeOwners","inputs":[{"name":"","type":"bytes32","internalType":"bytes32"}],"outputs":[{"name":"","type":"address","internalType":"address"}],"stateMutability":"view"},{"type":"function","name":"referrerTiers","inputs":[{"name":"","type":"address","internalType":"address"}],"outputs":[{"name":"","type":"uint256","internalType":"uint256"}],"stateMutability":"view"},{"type":"function","name":"registerCode","inputs":[{"name":"_code","type":"bytes32","internalType":"bytes32"}],"outputs":[],"stateMutability":"nonpayable"},{"type":"function","name":"requestGov","inputs":[{"name":"_gov","type":"address","internalType":"address"}],"outputs":[],"stateMutability":"nonpayable"},{"type":"function","name":"requestedGov","inputs":[],"outputs":[{"name":"","type":"address","internalType":"address"}],"stateMutability":"view"},{"type":"function","name":"setGov","inputs":[{"name":"_gov","type":"address","internalType":"address"}],"outputs":[],"stateMutability":"nonpayable"},{"type":"function","name":"setHandler","inputs":[{"name":"_handler","type":"address","internalType":"address"},{"name":"_isActive","type":"bool","internalType":"bool"}],"outputs":[],"stateMutability":"nonpayable"},{"type":"function","name":"setPendingCodeOwnershipTransfer","inputs":[{"name":"_code","type":"bytes32","internalType":"bytes32"},{"name":"_newAccount","type":"address","internalType":"address"}],"outputs":[],"stateMutability":"nonpayable"},{"type":"function","name":"setReferrerTier","inputs":[{"name":"_referrer","type":"address","internalType":"address"},{"name":"_tierId","type":"uint256","internalType":"uint256"}],"outputs":[],"stateMutability":"nonpayable"},{"type":"function","name":"setTier","inputs":[{"name":"_tierId","type":"uint256","internalType":"uint256"},{"name":"_feeDiscountPct","type":"uint256","internalType":"uint256"},{"name":"_refRebatePct","type":"uint256","internalType":"uint256"}],"outputs":[],"stateMutability":"nonpayable"},{"type":"function","name":"setTraderReferralCode","inputs":[{"name":"_account","type":"address","internalType":"address"},{"name":"_code","type":"bytes32","internalType":"bytes32"}],"outputs":[],"stateMutability":"nonpayable"},{"type":"function","name":"setTraderReferralCodeByUser","inputs":[{"name":"_code","type":"bytes32","internalType":"bytes32"}],"outputs":[],"stateMutability":"nonpayable"},{"type":"function","name":"tiers","inputs":[{"name":"","type":"uint256","internalType":"uint256"}],"outputs":[{"name":"feeDiscountPct","type":"uint256","internalType":"uint256"},{"name":"refRebatePct","type":"uint256","internalType":"uint256"}],"stateMutability":"view"},{"type":"function","name":"traderReferralCodes","inputs":[{"name":"","type":"address","internalType":"address"}],"outputs":[{"name":"","type":"bytes32","internalType":"bytes32"}],"stateMutability":"view"},{"type":"function","name":"traderReferralDiscount","inputs":[{"name":"_account","type":"address","internalType":"address"},{"name":"_fee","type":"uint256","internalType":"uint256"}],"outputs":[{"name":"traderFeesPostDiscount","type":"uint256","internalType":"uint256"},{"name":"referrer","type":"address","internalType":"address"},{"name":"rebateShare","type":"uint256","internalType":"uint256"}],"stateMutability":"view"},{"type":"event","name":"GovSetCodeOwner","inputs":[{"name":"code","type":"bytes32","indexed":false,"internalType":"bytes32"},{"name":"newAccount","type":"address","indexed":false,"internalType":"address"}],"anonymous":false},{"type":"event","name":"RegisterCode","inputs":[{"name":"account","type":"address","indexed":false,"internalType":"address"},{"name":"code","type":"bytes32","indexed":false,"internalType":"bytes32"}],"anonymous":false},{"type":"event","name":"SetCodeOwner","inputs":[{"name":"oldOwner","type":"address","indexed":false,"internalType":"address"},{"name":"newOwner","type":"address","indexed":false,"internalType":"address"},{"name":"code","type":"bytes32","indexed":false,"internalType":"bytes32"}],"anonymous":false},{"type":"event","name":"SetGov","inputs":[{"name":"gov","type":"address","indexed":false,"internalType":"address"}],"anonymous":false},{"type":"event","name":"SetHandler","inputs":[{"name":"handler","type":"address","indexed":false,"internalType":"address"},{"name":"isActive","type":"bool","indexed":false,"internalType":"bool"}],"anonymous":false},{"type":"event","name":"SetPendingCodeOwner","inputs":[{"name":"account","type":"address","indexed":false,"internalType":"address"},{"name":"newAccount","type":"address","indexed":false,"internalType":"address"},{"name":"code","type":"bytes32","indexed":false,"internalType":"bytes32"}],"anonymous":false},{"type":"event","name":"SetReferrerDiscountShare","inputs":[{"name":"referrer","type":"address","indexed":false,"internalType":"address"},{"name":"discountShare","type":"uint256","indexed":false,"internalType":"uint256"}],"anonymous":false},{"type":"event","name":"SetReferrerTier","inputs":[{"name":"referrer","type":"address","indexed":false,"internalType":"address"},{"name":"tierId","type":"uint256","indexed":false,"internalType":"uint256"}],"anonymous":false},{"type":"event","name":"SetTier","inputs":[{"name":"tierId","type":"uint256","indexed":false,"internalType":"uint256"},{"name":"feeDiscountPct","type":"uint256","indexed":false,"internalType":"uint256"},{"name":"refRebatePct","type":"uint256","indexed":false,"internalType":"uint256"}],"anonymous":false},{"type":"event","name":"SetTraderReferralCode","inputs":[{"name":"account","type":"address","indexed":false,"internalType":"address"},{"name":"code","type":"bytes32","indexed":false,"internalType":"bytes32"}],"anonymous":false}],"bytecode":{"object":"0x608060405234801561001057600080fd5b50600080546001600160a01b03191633179055610fa2806100326000396000f3fe608060405234801561001057600080fd5b50600436106101425760003560e01c8063836a0187116100b8578063ce18b98d1161007c578063ce18b98d14610347578063cfad57a21461037d578063dfcfa25014610390578063e1e01bf3146103a3578063fcccd11d146103b6578063fdb41ed3146103df57600080fd5b8063836a0187146102b857806385725b58146102cb5780639cb7de4b146102eb578063b35569dd146102fe578063c8b3c4601461031e57600080fd5b806346ea87af1161010a57806346ea87af1461020957806350bb25781461023c578063534ef8831461024f57806356b4b2ad1461027f57806366ac654d146102925780636b364489146102a557600080fd5b8063039af9eb1461014757806312d43a51146101885780631582a018146101b357806336def2c8146101e15780633fb8b323146101f6575b600080fd5b61016e610155366004610df0565b6003602052600090815260409020805460019091015482565b604080519283526020830191909152015b60405180910390f35b60005461019b906001600160a01b031681565b6040516001600160a01b03909116815260200161017f565b6101d36101c1366004610d68565b60026020526000908152604090205481565b60405190815260200161017f565b6101f46101ef366004610df0565b6103f2565b005b6101f4610204366004610dc6565b610572565b61022c610217366004610d68565b60046020526000908152604090205460ff1681565b604051901515815260200161017f565b6101f461024a366004610d68565b6105f5565b61026261025d366004610d68565b610654565b604080519283526001600160a01b0390911660208301520161017f565b6101f461028d366004610dc6565b61069a565b60015461019b906001600160a01b031681565b6101f46102b3366004610df0565b6106d7565b6101f46102c6366004610e35565b610814565b6101d36102d9366004610d68565b60086020526000908152604090205481565b6101f46102f9366004610d8a565b610979565b6101d361030c366004610d68565b60076020526000908152604090205481565b61019b61032c366004610df0565b6005602052600090815260409020546001600160a01b031681565b61035a610355366004610dc6565b6109ff565b604080519384526001600160a01b0390921660208401529082015260600161017f565b6101f461038b366004610d68565b610a93565b6101f461039e366004610e09565b610b38565b6101f46103b1366004610df0565b610c33565b61019b6103c4366004610df0565b6006602052600090815260409020546001600160a01b031681565b6101f46103ed366004610e09565b610c40565b806104185760405162461bcd60e51b815260040161040f90610e98565b60405180910390fd5b6000818152600560205260409020546001600160a01b0316156104895760405162461bcd60e51b8152602060048201526024808201527f526566657272616c53746f726167653a20636f646520616c72656164792065786044820152636973747360e01b606482015260840161040f565b33600090815260076020526040902054156104fb5760405162461bcd60e51b815260206004820152602c60248201527f526566657272616c53746f726167653a20726566657272657220616c7265616460448201526b1e481c9959da5cdd195c995960a21b606482015260840161040f565b600081815260056020908152604080832080546001600160a01b031916339081179091558084526007835281842085905560028352928190206001905580519283529082018390527f04f82286a2a3b2ee5c8555de8304dfe2ea70991613213184b73a9e408d2d802991015b60405180910390a150565b6000546001600160a01b0316331461059c5760405162461bcd60e51b815260040161040f90610ecf565b6001600160a01b038216600081815260026020908152604091829020849055815192835282018390527f7696855cdbb94bb5a44cb0a95caff6f29173aa1cbfba193834b12b90827ce2bc91015b60405180910390a15050565b6000546001600160a01b0316331461061f5760405162461bcd60e51b815260040161040f90610ecf565b6001600160a01b03811661063257600080fd5b600180546001600160a01b0319166001600160a01b0392909216919091179055565b6001600160a01b038116600090815260086020526040812054819081811561069057506000818152600560205260409020546001600160a01b03165b9094909350915050565b3360009081526004602052604090205460ff166106c95760405162461bcd60e51b815260040161040f90610e61565b6106d38282610cfb565b5050565b6000818152600560209081526040808320546006909252909120546001600160a01b039182169116331461071d5760405162461bcd60e51b815260040161040f90610e61565b33600081815260076020908152604080832080548452600580845282852080546001600160a01b031990811690915582548652600685528386208054821690558886529084528285208054909116861790558690556001600160a01b038516808452600283528184205485855293829020939093558051928352908201929092529081018390527f5640856798d41ce9ca0a109b54c20a06eb99ba9c36ab4547115dafb8473cf3979060600160405180910390a16001600160a01b031660008181526007602090815260408083208390559382526006815283822080546001600160a01b0319169055918152600290915290812055565b6000546001600160a01b0316331461083e5760405162461bcd60e51b815260040161040f90610ecf565b61271082111561089c5760405162461bcd60e51b8152602060048201526024808201527f526566657272616c53746f726167653a20696e76616c696420746f74616c52656044820152636261746560e01b606482015260840161040f565b6127108111156108fd5760405162461bcd60e51b815260206004820152602660248201527f526566657272616c53746f726167653a20696e76616c696420646973636f756e60448201526574536861726560d01b606482015260840161040f565b600083815260036020818152604080842081518083018352878152808401878152958990529383528351815593516001909401939093558251868152908101859052918201839052907f4ebd23a492b2bd79586cb57cae40d7793408265f20320f68b478b971e696f4c79060600160405180910390a150505050565b6000546001600160a01b031633146109a35760405162461bcd60e51b815260040161040f90610ecf565b6001600160a01b038216600081815260046020908152604091829020805460ff19168515159081179091558251938452908301527fd373464a39404e5f98fdb4b152b8ba9a094561e97e5c4b4ea11eb18cd9e6695e91016105e9565b6000806000610a0d85610654565b6001600160a01b038116600090815260026020908152604080832054808452600390925290912054919450915061271090610a489087610f20565b610a529190610efe565b610a5c9086610f3f565b60008281526003602052604090206001015490945061271090610a7f9086610f20565b610a899190610efe565b9150509250925092565b6000546001600160a01b03163314610abd5760405162461bcd60e51b815260040161040f90610ecf565b6001600160a01b038116610ad057600080fd5b6001546001600160a01b03828116911614610aea57600080fd5b600080546001600160a01b0319166001600160a01b0383169081179091556040519081527f91a8c1cc2d4a3bb60738481947a00cbb9899c822916694cf8bb1d68172fdcd5490602001610567565b6000546001600160a01b03163314610b625760405162461bcd60e51b815260040161040f90610ecf565b81610b7f5760405162461bcd60e51b815260040161040f90610e98565b600082815260056020818152604080842080546001600160a01b03908116808752600785528387208790559087168087528387208054885295855283872080546001600160a01b0319908116909155835416811790925593879055838552600283528185208054828752838720558486529490945580518681529182019390935290917f6431f88c655dd0e2b8d09b6405c007c515c66d67f2998e69c902873a8c8f3e9791015b60405180910390a1505050565b610c3d3382610cfb565b50565b81610c5d5760405162461bcd60e51b815260040161040f90610e98565b6000828152600560205260409020546001600160a01b0316338114610c945760405162461bcd60e51b815260040161040f90610e61565b60008381526006602090815260409182902080546001600160a01b0319166001600160a01b0386169081179091558251338152918201529081018490527fb48e9dd1d295e82e90cbbe8e05f2249fcdfab0bf75504df039330004b280784090606001610c26565b6001600160a01b038216600081815260086020908152604091829020849055815192835282018390527f43825f14567dda057e821be2e51a5aa79aa51f3907a647e3ed2bd486a01050f191016105e9565b80356001600160a01b0381168114610d6357600080fd5b919050565b600060208284031215610d7a57600080fd5b610d8382610d4c565b9392505050565b60008060408385031215610d9d57600080fd5b610da683610d4c565b915060208301358015158114610dbb57600080fd5b809150509250929050565b60008060408385031215610dd957600080fd5b610de283610d4c565b946020939093013593505050565b600060208284031215610e0257600080fd5b5035919050565b60008060408385031215610e1c57600080fd5b82359150610e2c60208401610d4c565b90509250929050565b600080600060608486031215610e4a57600080fd5b505081359360208301359350604090920135919050565b6020808252601a908201527f526566657272616c53746f726167653a20666f7262696464656e000000000000604082015260600190565b6020808252601e908201527f526566657272616c53746f726167653a20696e76616c6964205f636f64650000604082015260600190565b60208082526015908201527423b7bb32b93730b136329d103337b93134b23232b760591b604082015260600190565b600082610f1b57634e487b7160e01b600052601260045260246000fd5b500490565b6000816000190483118215151615610f3a57610f3a610f56565b500290565b600082821015610f5157610f51610f56565b500390565b634e487b7160e01b600052601160045260246000fdfea2646970667358221220cf1e8584aa2fb5e3eeecef6d10942fb1392108098e7774ef5155346a5df7ffaa64736f6c63430008070033","linkReferences":{}},"methodIdentifiers":{"acceptCodeOwnership(bytes32)":"6b364489","codeOwners(bytes32)":"c8b3c460","codes(address)":"b35569dd","getTraderReferralInfo(address)":"534ef883","gov()":"12d43a51","govSetCodeOwner(bytes32,address)":"dfcfa250","isHandler(address)":"46ea87af","pendingCodeOwners(bytes32)":"fcccd11d","referrerTiers(address)":"1582a018","registerCode(bytes32)":"36def2c8","requestGov(address)":"50bb2578","requestedGov()":"66ac654d","setGov(address)":"cfad57a2","setHandler(address,bool)":"9cb7de4b","setPendingCodeOwnershipTransfer(bytes32,address)":"fdb41ed3","setReferrerTier(address,uint256)":"3fb8b323","setTier(uint256,uint256,uint256)":"836a0187","setTraderReferralCode(address,bytes32)":"56b4b2ad","setTraderReferralCodeByUser(bytes32)":"e1e01bf3","tiers(uint256)":"039af9eb","traderReferralCodes(address)":"85725b58","traderReferralDiscount(address,uint256)":"ce18b98d"},"id":106}