{
  "abi": [
    {
      "inputs": [],
      "stateMutability": "nonpayable",
      "type": "constructor"
    },
    {
      "anonymous": false,
      "inputs": [
        {
          "indexed": false,
          "internalType": "bytes32",
          "name": "code",
          "type": "bytes32"
        },
        {
          "indexed": false,
          "internalType": "address",
          "name": "newAccount",
          "type": "address"
        }
      ],
      "name": "GovSetCodeOwner",
      "type": "event"
    },
    {
      "anonymous": false,
      "inputs": [
        {
          "indexed": false,
          "internalType": "address",
          "name": "account",
          "type": "address"
        },
        {
          "indexed": false,
          "internalType": "bytes32",
          "name": "code",
          "type": "bytes32"
        }
      ],
      "name": "RegisterCode",
      "type": "event"
    },
    {
      "anonymous": false,
      "inputs": [
        {
          "indexed": false,
          "internalType": "address",
          "name": "account",
          "type": "address"
        },
        {
          "indexed": false,
          "internalType": "address",
          "name": "newAccount",
          "type": "address"
        },
        {
          "indexed": false,
          "internalType": "bytes32",
          "name": "code",
          "type": "bytes32"
        }
      ],
      "name": "SetCodeOwner",
      "type": "event"
    },
    {
      "anonymous": false,
      "inputs": [
        {
          "indexed": false,
          "internalType": "address",
          "name": "handler",
          "type": "address"
        },
        {
          "indexed": false,
          "internalType": "bool",
          "name": "isActive",
          "type": "bool"
        }
      ],
      "name": "SetHandler",
      "type": "event"
    },
    {
      "anonymous": false,
      "inputs": [
        {
          "indexed": false,
          "internalType": "address",
          "name": "referrer",
          "type": "address"
        },
        {
          "indexed": false,
          "internalType": "uint256",
          "name": "discountShare",
          "type": "uint256"
        }
      ],
      "name": "SetReferrerDiscountShare",
      "type": "event"
    },
    {
      "anonymous": false,
      "inputs": [
        {
          "indexed": false,
          "internalType": "address",
          "name": "referrer",
          "type": "address"
        },
        {
          "indexed": false,
          "internalType": "uint256",
          "name": "tierId",
          "type": "uint256"
        }
      ],
      "name": "SetReferrerTier",
      "type": "event"
    },
    {
      "anonymous": false,
      "inputs": [
        {
          "indexed": false,
          "internalType": "uint256",
          "name": "tierId",
          "type": "uint256"
        },
        {
          "indexed": false,
          "internalType": "uint256",
          "name": "feeDiscountPct",
          "type": "uint256"
        },
        {
          "indexed": false,
          "internalType": "uint256",
          "name": "refRebatePct",
          "type": "uint256"
        }
      ],
      "name": "SetTier",
      "type": "event"
    },
    {
      "anonymous": false,
      "inputs": [
        {
          "indexed": false,
          "internalType": "address",
          "name": "account",
          "type": "address"
        },
        {
          "indexed": false,
          "internalType": "bytes32",
          "name": "code",
          "type": "bytes32"
        }
      ],
      "name": "SetTraderReferralCode",
      "type": "event"
    },
    {
      "inputs": [],
      "name": "BASIS_POINTS",
      "outputs": [
        {
          "internalType": "uint256",
          "name": "",
          "type": "uint256"
        }
      ],
      "stateMutability": "view",
      "type": "function"
    },
    {
      "inputs": [],
      "name": "DEFAULT_TIER_ID",
      "outputs": [
        {
          "internalType": "uint256",
          "name": "",
          "type": "uint256"
        }
      ],
      "stateMutability": "view",
      "type": "function"
    },
    {
      "inputs": [
        {
          "internalType": "bytes32",
          "name": "",
          "type": "bytes32"
        }
      ],
      "name": "codeOwners",
      "outputs": [
        {
          "internalType": "address",
          "name": "",
          "type": "address"
        }
      ],
      "stateMutability": "view",
      "type": "function"
    },
    {
      "inputs": [
        {
          "internalType": "address",
          "name": "_account",
          "type": "address"
        }
      ],
      "name": "getTraderReferralInfo",
      "outputs": [
        {
          "internalType": "bytes32",
          "name": "",
          "type": "bytes32"
        },
        {
          "internalType": "address",
          "name": "",
          "type": "address"
        }
      ],
      "stateMutability": "view",
      "type": "function"
    },
    {
      "inputs": [],
      "name": "gov",
      "outputs": [
        {
          "internalType": "address",
          "name": "",
          "type": "address"
        }
      ],
      "stateMutability": "view",
      "type": "function"
    },
    {
      "inputs": [
        {
          "internalType": "bytes32",
          "name": "_code",
          "type": "bytes32"
        },
        {
          "internalType": "address",
          "name": "_newAccount",
          "type": "address"
        }
      ],
      "name": "govSetCodeOwner",
      "outputs": [],
      "stateMutability": "nonpayable",
      "type": "function"
    },
    {
      "inputs": [
        {
          "internalType": "address",
          "name": "",
          "type": "address"
        }
      ],
      "name": "isHandler",
      "outputs": [
        {
          "internalType": "bool",
          "name": "",
          "type": "bool"
        }
      ],
      "stateMutability": "view",
      "type": "function"
    },
    {
      "inputs": [
        {
          "internalType": "address",
          "name": "",
          "type": "address"
        }
      ],
      "name": "referrerDiscountShares",
      "outputs": [
        {
          "internalType": "uint256",
          "name": "",
          "type": "uint256"
        }
      ],
      "stateMutability": "view",
      "type": "function"
    },
    {
      "inputs": [
        {
          "internalType": "address",
          "name": "",
          "type": "address"
        }
      ],
      "name": "referrerTiers",
      "outputs": [
        {
          "internalType": "uint256",
          "name": "",
          "type": "uint256"
        }
      ],
      "stateMutability": "view",
      "type": "function"
    },
    {
      "inputs": [
        {
          "internalType": "bytes32",
          "name": "_code",
          "type": "bytes32"
        }
      ],
      "name": "registerCode",
      "outputs": [],
      "stateMutability": "nonpayable",
      "type": "function"
    },
    {
      "inputs": [
        {
          "internalType": "bytes32",
          "name": "_code",
          "type": "bytes32"
        },
        {
          "internalType": "address",
          "name": "_newAccount",
          "type": "address"
        }
      ],
      "name": "setCodeOwner",
      "outputs": [],
      "stateMutability": "nonpayable",
      "type": "function"
    },
    {
      "inputs": [
        {
          "internalType": "address",
          "name": "_gov",
          "type": "address"
        }
      ],
      "name": "setGov",
      "outputs": [],
      "stateMutability": "nonpayable",
      "type": "function"
    },
    {
      "inputs": [
        {
          "internalType": "address",
          "name": "_handler",
          "type": "address"
        },
        {
          "internalType": "bool",
          "name": "_isActive",
          "type": "bool"
        }
      ],
      "name": "setHandler",
      "outputs": [],
      "stateMutability": "nonpayable",
      "type": "function"
    },
    {
      "inputs": [
        {
          "internalType": "uint256",
          "name": "_discountShare",
          "type": "uint256"
        }
      ],
      "name": "setReferrerDiscountShare",
      "outputs": [],
      "stateMutability": "nonpayable",
      "type": "function"
    },
    {
      "inputs": [
        {
          "internalType": "address",
          "name": "_referrer",
          "type": "address"
        },
        {
          "internalType": "uint256",
          "name": "_tierId",
          "type": "uint256"
        }
      ],
      "name": "setReferrerTier",
      "outputs": [],
      "stateMutability": "nonpayable",
      "type": "function"
    },
    {
      "inputs": [
        {
          "internalType": "uint256",
          "name": "_tierId",
          "type": "uint256"
        },
        {
          "internalType": "uint256",
          "name": "_feeDiscountPct",
          "type": "uint256"
        },
        {
          "internalType": "uint256",
          "name": "_refRebatePct",
          "type": "uint256"
        }
      ],
      "name": "setTier",
      "outputs": [],
      "stateMutability": "nonpayable",
      "type": "function"
    },
    {
      "inputs": [
        {
          "internalType": "address",
          "name": "_account",
          "type": "address"
        },
        {
          "internalType": "bytes32",
          "name": "_code",
          "type": "bytes32"
        }
      ],
      "name": "setTraderReferralCode",
      "outputs": [],
      "stateMutability": "nonpayable",
      "type": "function"
    },
    {
      "inputs": [
        {
          "internalType": "bytes32",
          "name": "_code",
          "type": "bytes32"
        }
      ],
      "name": "setTraderReferralCodeByUser",
      "outputs": [],
      "stateMutability": "nonpayable",
      "type": "function"
    },
    {
      "inputs": [
        {
          "internalType": "uint256",
          "name": "",
          "type": "uint256"
        }
      ],
      "name": "tiers",
      "outputs": [
        {
          "internalType": "uint256",
          "name": "feeDiscountPct",
          "type": "uint256"
        },
        {
          "internalType": "uint256",
          "name": "refRebatePct",
          "type": "uint256"
        }
      ],
      "stateMutability": "view",
      "type": "function"
    },
    {
      "inputs": [
        {
          "internalType": "address",
          "name": "",
          "type": "address"
        }
      ],
      "name": "traderReferralCodes",
      "outputs": [
        {
          "internalType": "bytes32",
          "name": "",
          "type": "bytes32"
        }
      ],
      "stateMutability": "view",
      "type": "function"
    },
    {
      "inputs": [
        {
          "internalType": "address",
          "name": "_account",
          "type": "address"
        },
        {
          "internalType": "uint256",
          "name": "_fee",
          "type": "uint256"
        }
      ],
      "name": "traderReferralDiscount",
      "outputs": [
        {
          "internalType": "uint256",
          "name": "traderDiscount",
          "type": "uint256"
        },
        {
          "internalType": "address",
          "name": "referrer",
          "type": "address"
        },
        {
          "internalType": "uint256",
          "name": "rebateShare",
          "type": "uint256"
        }
      ],
      "stateMutability": "view",
      "type": "function"
    }
  ],
  "bytecode": {
    "object": "0x608060405234801561001057600080fd5b50600080546001600160a01b03191633179055610d1f806100326000396000f3fe608060405234801561001057600080fd5b50600436106101375760003560e01c806385725b58116100b8578063ce18b98d1161007c578063ce18b98d1461031e578063cfad57a214610354578063dfcfa25014610367578063e1e01bf31461037a578063e1f1c4a71461038d578063ed8431341461039657600080fd5b806385725b58146102a75780639c8e2de9146102c75780639cb7de4b146102da578063b7a22a5a146102ed578063c8b3c460146102f557600080fd5b806346ea87af116100ff57806346ea87af146101fe578063534ef8831461023157806356b4b2ad1461026157806371a6a79014610274578063836a01871461029457600080fd5b8063039af9eb1461013c57806312d43a511461017d5780631582a018146101a857806336def2c8146101d65780633fb8b323146101eb575b600080fd5b61016361014a366004610b7d565b6003602052600090815260409020805460019091015482565b604080519283526020830191909152015b60405180910390f35b600054610190906001600160a01b031681565b6040516001600160a01b039091168152602001610174565b6101c86101b6366004610af5565b60026020526000908152604090205481565b604051908152602001610174565b6101e96101e4366004610b7d565b6103a9565b005b6101e96101f9366004610b53565b6104ad565b61022161020c366004610af5565b60046020526000908152604090205460ff1681565b6040519015158152602001610174565b61024461023f366004610af5565b610530565b604080519283526001600160a01b03909116602083015201610174565b6101e961026f366004610b53565b610576565b6101c8610282366004610af5565b60016020526000908152604090205481565b6101e96102a2366004610bc2565b6105e3565b6101c86102b5366004610af5565b60066020526000908152604090205481565b6101e96102d5366004610b7d565b610709565b6101e96102e8366004610b17565b610773565b6101c8600181565b610190610303366004610b7d565b6005602052600090815260409020546001600160a01b031681565b61033161032c366004610b53565b6107f9565b604080519384526001600160a01b03909216602084015290820152606001610174565b6101e9610362366004610af5565b610896565b6101e9610375366004610b96565b6108e2565b6101e9610388366004610b7d565b610988565b6101c861271081565b6101e96103a4366004610b96565b610995565b806103cf5760405162461bcd60e51b81526004016103c690610bee565b60405180910390fd5b6000818152600560205260409020546001600160a01b0316156104405760405162461bcd60e51b8152602060048201526024808201527f526566657272616c53746f726167653a20636f646520616c72656164792065786044820152636973747360e01b60648201526084016103c6565b600081815260056020908152604080832080546001600160a01b0319163390811790915580845260028352928190206001905580519283529082018390527f04f82286a2a3b2ee5c8555de8304dfe2ea70991613213184b73a9e408d2d802991015b60405180910390a150565b6000546001600160a01b031633146104d75760405162461bcd60e51b81526004016103c690610c25565b6001600160a01b038216600081815260026020908152604091829020849055815192835282018390527f7696855cdbb94bb5a44cb0a95caff6f29173aa1cbfba193834b12b90827ce2bc91015b60405180910390a15050565b6001600160a01b038116600090815260066020526040812054819081811561056c57506000818152600560205260409020546001600160a01b03165b9094909350915050565b3360009081526004602052604090205460ff166105d55760405162461bcd60e51b815260206004820152601a60248201527f526566657272616c53746f726167653a20666f7262696464656e00000000000060448201526064016103c6565b6105df8282610a88565b5050565b6000546001600160a01b0316331461060d5760405162461bcd60e51b81526004016103c690610c25565b61271082111561066b5760405162461bcd60e51b8152602060048201526024808201527f526566657272616c53746f726167653a20696e76616c696420746f74616c52656044820152636261746560e01b60648201526084016103c6565b61271081111561068d5760405162461bcd60e51b81526004016103c690610c54565b600083815260036020818152604080842081518083018352878152808401878152958990529383528351815593516001909401939093558251868152908101859052918201839052907f4ebd23a492b2bd79586cb57cae40d7793408265f20320f68b478b971e696f4c79060600160405180910390a150505050565b61271081111561072b5760405162461bcd60e51b81526004016103c690610c54565b33600081815260016020908152604091829020849055815192835282018390527fbd224f3917462b0fa80805fe3ec29be3a37f664955aad6224e5ece036224c42991016104a2565b6000546001600160a01b0316331461079d5760405162461bcd60e51b81526004016103c690610c25565b6001600160a01b038216600081815260046020908152604091829020805460ff19168515159081179091558251938452908301527fd373464a39404e5f98fdb4b152b8ba9a094561e97e5c4b4ea11eb18cd9e6695e9101610524565b600080600061080785610530565b6001600160a01b03811660009081526002602090815260408083205480845260039092529091205491945091501561088e576000818152600360205260409020546108559061271090610c9a565b61085f9086610cbc565b6000828152600360205260409020600101549094506108819061271090610c9a565b61088b9086610cbc565b91505b509250925092565b6000546001600160a01b031633146108c05760405162461bcd60e51b81526004016103c690610c25565b600080546001600160a01b0319166001600160a01b0392909216919091179055565b6000546001600160a01b0316331461090c5760405162461bcd60e51b81526004016103c690610c25565b816109295760405162461bcd60e51b81526004016103c690610bee565b60008281526005602090815260409182902080546001600160a01b0319166001600160a01b0385169081179091558251858152918201527f6431f88c655dd0e2b8d09b6405c007c515c66d67f2998e69c902873a8c8f3e979101610524565b6109923382610a88565b50565b816109b25760405162461bcd60e51b81526004016103c690610bee565b6000828152600560205260409020546001600160a01b0316338114610a195760405162461bcd60e51b815260206004820152601a60248201527f526566657272616c53746f726167653a20666f7262696464656e00000000000060448201526064016103c6565b60008381526005602090815260409182902080546001600160a01b0319166001600160a01b0386169081179091558251338152918201529081018490527f5640856798d41ce9ca0a109b54c20a06eb99ba9c36ab4547115dafb8473cf3979060600160405180910390a1505050565b6001600160a01b038216600081815260066020908152604091829020849055815192835282018390527f43825f14567dda057e821be2e51a5aa79aa51f3907a647e3ed2bd486a01050f19101610524565b80356001600160a01b0381168114610af057600080fd5b919050565b600060208284031215610b0757600080fd5b610b1082610ad9565b9392505050565b60008060408385031215610b2a57600080fd5b610b3383610ad9565b915060208301358015158114610b4857600080fd5b809150509250929050565b60008060408385031215610b6657600080fd5b610b6f83610ad9565b946020939093013593505050565b600060208284031215610b8f57600080fd5b5035919050565b60008060408385031215610ba957600080fd5b82359150610bb960208401610ad9565b90509250929050565b600080600060608486031215610bd757600080fd5b505081359360208301359350604090920135919050565b6020808252601e908201527f526566657272616c53746f726167653a20696e76616c6964205f636f64650000604082015260600190565b60208082526015908201527423b7bb32b93730b136329d103337b93134b23232b760591b604082015260600190565b60208082526026908201527f526566657272616c53746f726167653a20696e76616c696420646973636f756e60408201526574536861726560d01b606082015260800190565b600082610cb757634e487b7160e01b600052601260045260246000fd5b500490565b6000816000190483118215151615610ce457634e487b7160e01b600052601160045260246000fd5b50029056fea2646970667358221220b7cc2e7a62b68fa1a0c75c94882474865f5bf91a9685492a85aefbdb4b0d1ad864736f6c63430008070033",
    "linkReferences": {}
  },
  "methodIdentifiers": {
    "BASIS_POINTS()": "e1f1c4a7",
    "DEFAULT_TIER_ID()": "b7a22a5a",
    "codeOwners(bytes32)": "c8b3c460",
    "getTraderReferralInfo(address)": "534ef883",
    "gov()": "12d43a51",
    "govSetCodeOwner(bytes32,address)": "dfcfa250",
    "isHandler(address)": "46ea87af",
    "referrerDiscountShares(address)": "71a6a790",
    "referrerTiers(address)": "1582a018",
    "registerCode(bytes32)": "36def2c8",
    "setCodeOwner(bytes32,address)": "ed843134",
    "setGov(address)": "cfad57a2",
    "setHandler(address,bool)": "9cb7de4b",
    "setReferrerDiscountShare(uint256)": "9c8e2de9",
    "setReferrerTier(address,uint256)": "3fb8b323",
    "setTier(uint256,uint256,uint256)": "836a0187",
    "setTraderReferralCode(address,bytes32)": "56b4b2ad",
    "setTraderReferralCodeByUser(bytes32)": "e1e01bf3",
    "tiers(uint256)": "039af9eb",
    "traderReferralCodes(address)": "85725b58",
    "traderReferralDiscount(address,uint256)": "ce18b98d"
  },
  "id": 6
}