{"abi":[{"type":"constructor","inputs":[],"stateMutability":"nonpayable"},{"type":"function","name":"acceptCodeOwnership","inputs":[{"name":"_code","type":"bytes32","internalType":"bytes32"}],"outputs":[],"stateMutability":"nonpayable"},{"type":"function","name":"acceptGovTransfer","inputs":[],"outputs":[],"stateMutability":"nonpayable"},{"type":"function","name":"cancelRequest","inputs":[],"outputs":[],"stateMutability":"nonpayable"},{"type":"function","name":"codeOwners","inputs":[{"name":"","type":"bytes32","internalType":"bytes32"}],"outputs":[{"name":"","type":"address","internalType":"address"}],"stateMutability":"view"},{"type":"function","name":"codes","inputs":[{"name":"","type":"address","internalType":"address"}],"outputs":[{"name":"","type":"bytes32","internalType":"bytes32"}],"stateMutability":"view"},{"type":"function","name":"discountTiers","inputs":[{"name":"","type":"uint256","internalType":"uint256"}],"outputs":[{"name":"feeDiscountPct","type":"uint256","internalType":"uint256"}],"stateMutability":"view"},{"type":"function","name":"getTraderReferralInfo","inputs":[{"name":"_account","type":"address","internalType":"address"}],"outputs":[{"name":"","type":"bytes32","internalType":"bytes32"},{"name":"","type":"address","internalType":"address"}],"stateMutability":"view"},{"type":"function","name":"gov","inputs":[],"outputs":[{"name":"","type":"address","internalType":"address"}],"stateMutability":"view"},{"type":"function","name":"govSetCodeOwner","inputs":[{"name":"_code","type":"bytes32","internalType":"bytes32"},{"name":"_newAccount","type":"address","internalType":"address"}],"outputs":[],"stateMutability":"nonpayable"},{"type":"function","name":"initialize","inputs":[{"name":"_gov","type":"address","internalType":"address"}],"outputs":[],"stateMutability":"nonpayable"},{"type":"function","name":"initiateGovTransfer","inputs":[{"name":"_newGov","type":"address","internalType":"address"}],"outputs":[],"stateMutability":"nonpayable"},{"type":"function","name":"isHandler","inputs":[{"name":"","type":"address","internalType":"address"}],"outputs":[{"name":"","type":"bool","internalType":"bool"}],"stateMutability":"view"},{"type":"function","name":"isPrivate","inputs":[{"name":"","type":"bytes32","internalType":"bytes32"}],"outputs":[{"name":"","type":"bool","internalType":"bool"}],"stateMutability":"view"},{"type":"function","name":"migrateCode","inputs":[{"name":"_code","type":"bytes32","internalType":"bytes32"},{"name":"_owner","type":"address","internalType":"address"},{"name":"id","type":"uint256","internalType":"uint256"}],"outputs":[],"stateMutability":"nonpayable"},{"type":"function","name":"migrateCodes","inputs":[{"name":"_codes","type":"bytes32[]","internalType":"bytes32[]"},{"name":"_owners","type":"address[]","internalType":"address[]"},{"name":"ids","type":"uint256[]","internalType":"uint256[]"}],"outputs":[],"stateMutability":"nonpayable"},{"type":"function","name":"migrateTraderReferrals","inputs":[{"name":"_traders","type":"address[]","internalType":"address[]"},{"name":"_codes","type":"bytes32[]","internalType":"bytes32[]"}],"outputs":[],"stateMutability":"nonpayable"},{"type":"function","name":"migrateTraderReferrals","inputs":[{"name":"_trader","type":"address","internalType":"address"},{"name":"_code","type":"bytes32","internalType":"bytes32"}],"outputs":[],"stateMutability":"nonpayable"},{"type":"function","name":"pause","inputs":[],"outputs":[],"stateMutability":"nonpayable"},{"type":"function","name":"paused","inputs":[],"outputs":[{"name":"","type":"bool","internalType":"bool"}],"stateMutability":"view"},{"type":"function","name":"pendingCodeOwners","inputs":[{"name":"","type":"bytes32","internalType":"bytes32"}],"outputs":[{"name":"","type":"address","internalType":"address"}],"stateMutability":"view"},{"type":"function","name":"pendingGov","inputs":[],"outputs":[{"name":"","type":"address","internalType":"address"}],"stateMutability":"view"},{"type":"function","name":"referralTiers","inputs":[{"name":"","type":"uint256","internalType":"uint256"}],"outputs":[{"name":"feeDiscountPct","type":"uint256","internalType":"uint256"},{"name":"refRebatePct","type":"uint256","internalType":"uint256"}],"stateMutability":"view"},{"type":"function","name":"referrerTiers","inputs":[{"name":"","type":"address","internalType":"address"}],"outputs":[{"name":"","type":"uint256","internalType":"uint256"}],"stateMutability":"view"},{"type":"function","name":"registerCode","inputs":[{"name":"_code","type":"bytes32","internalType":"bytes32"}],"outputs":[],"stateMutability":"nonpayable"},{"type":"function","name":"relinquishCode","inputs":[],"outputs":[],"stateMutability":"nonpayable"},{"type":"function","name":"requestCode","inputs":[{"name":"","type":"address","internalType":"address"}],"outputs":[{"name":"","type":"bytes32","internalType":"bytes32"}],"stateMutability":"view"},{"type":"function","name":"requestSpecialCode","inputs":[{"name":"_code","type":"bytes32","internalType":"bytes32"}],"outputs":[],"stateMutability":"nonpayable"},{"type":"function","name":"setDiscountTier","inputs":[{"name":"_tierId","type":"uint256","internalType":"uint256"},{"name":"_feeDiscountPct","type":"uint256","internalType":"uint256"}],"outputs":[],"stateMutability":"nonpayable"},{"type":"function","name":"setHandler","inputs":[{"name":"_handler","type":"address","internalType":"address"},{"name":"_isActive","type":"bool","internalType":"bool"}],"outputs":[],"stateMutability":"nonpayable"},{"type":"function","name":"setPendingCodeOwnershipTransfer","inputs":[{"name":"_code","type":"bytes32","internalType":"bytes32"},{"name":"_newAccount","type":"address","internalType":"address"}],"outputs":[],"stateMutability":"nonpayable"},{"type":"function","name":"setReferralTier","inputs":[{"name":"_tierId","type":"uint256","internalType":"uint256"},{"name":"_feeDiscountPct","type":"uint256","internalType":"uint256"},{"name":"_refRebatePct","type":"uint256","internalType":"uint256"}],"outputs":[],"stateMutability":"nonpayable"},{"type":"function","name":"setReferrerTier","inputs":[{"name":"_referrer","type":"address","internalType":"address"},{"name":"_tierId","type":"uint256","internalType":"uint256"}],"outputs":[],"stateMutability":"nonpayable"},{"type":"function","name":"setTraderReferralCode","inputs":[{"name":"_account","type":"address","internalType":"address"},{"name":"_code","type":"bytes32","internalType":"bytes32"}],"outputs":[],"stateMutability":"nonpayable"},{"type":"function","name":"setTraderReferralCodeByOwner","inputs":[{"name":"_code","type":"bytes32","internalType":"bytes32"},{"name":"_trader","type":"address","internalType":"address"}],"outputs":[],"stateMutability":"nonpayable"},{"type":"function","name":"setTraderReferralCodeByUser","inputs":[{"name":"_code","type":"bytes32","internalType":"bytes32"}],"outputs":[],"stateMutability":"nonpayable"},{"type":"function","name":"setTraderTier","inputs":[{"name":"_trader","type":"address","internalType":"address"},{"name":"_tier","type":"uint256","internalType":"uint256"}],"outputs":[],"stateMutability":"nonpayable"},{"type":"function","name":"traderReferralCodes","inputs":[{"name":"","type":"address","internalType":"address"}],"outputs":[{"name":"","type":"bytes32","internalType":"bytes32"}],"stateMutability":"view"},{"type":"function","name":"traderReferralDiscount","inputs":[{"name":"_account","type":"address","internalType":"address"},{"name":"_fee","type":"uint256","internalType":"uint256"}],"outputs":[{"name":"traderFeesPostDiscount","type":"uint256","internalType":"uint256"},{"name":"referrer","type":"address","internalType":"address"},{"name":"rebateShare","type":"uint256","internalType":"uint256"}],"stateMutability":"nonpayable"},{"type":"function","name":"traderTier","inputs":[{"name":"_trader","type":"address","internalType":"address"}],"outputs":[{"name":"tier","type":"uint256","internalType":"uint256"}],"stateMutability":"view"},{"type":"function","name":"traderTiers","inputs":[{"name":"","type":"address","internalType":"address"}],"outputs":[{"name":"","type":"uint256","internalType":"uint256"}],"stateMutability":"view"},{"type":"function","name":"unpause","inputs":[],"outputs":[],"stateMutability":"nonpayable"},{"type":"function","name":"updateReferral","inputs":[{"name":"_code","type":"bytes32","internalType":"bytes32"},{"name":"_isPrivate","type":"bool","internalType":"bool"}],"outputs":[],"stateMutability":"nonpayable"},{"type":"event","name":"CodeUpdated","inputs":[{"name":"code","type":"bytes32","indexed":false,"internalType":"bytes32"},{"name":"isSpecial","type":"bool","indexed":false,"internalType":"bool"}],"anonymous":false},{"type":"event","name":"DiscountTierSet","inputs":[{"name":"tierId","type":"uint256","indexed":false,"internalType":"uint256"},{"name":"feeDiscountPct","type":"uint256","indexed":false,"internalType":"uint256"}],"anonymous":false},{"type":"event","name":"Discounted","inputs":[{"name":"trader","type":"address","indexed":false,"internalType":"address"},{"name":"traderTier","type":"uint256","indexed":false,"internalType":"uint256"},{"name":"feeDiscount","type":"uint256","indexed":false,"internalType":"uint256"},{"name":"traderFeePostDiscount","type":"uint256","indexed":false,"internalType":"uint256"}],"anonymous":false},{"type":"event","name":"GovSetCodeOwner","inputs":[{"name":"code","type":"bytes32","indexed":false,"internalType":"bytes32"},{"name":"newAccount","type":"address","indexed":false,"internalType":"address"}],"anonymous":false},{"type":"event","name":"GovTransferAccepted","inputs":[{"name":"oldGov","type":"address","indexed":false,"internalType":"address"},{"name":"newGov","type":"address","indexed":false,"internalType":"address"}],"anonymous":false},{"type":"event","name":"GovTransferInitiated","inputs":[{"name":"oldGov","type":"address","indexed":false,"internalType":"address"},{"name":"newGov","type":"address","indexed":false,"internalType":"address"}],"anonymous":false},{"type":"event","name":"Initialized","inputs":[{"name":"version","type":"uint8","indexed":false,"internalType":"uint8"}],"anonymous":false},{"type":"event","name":"Paused","inputs":[{"name":"account","type":"address","indexed":false,"internalType":"address"}],"anonymous":false},{"type":"event","name":"PrivateCodeRequested","inputs":[{"name":"trader","type":"address","indexed":false,"internalType":"address"},{"name":"_code","type":"bytes32","indexed":false,"internalType":"bytes32"}],"anonymous":false},{"type":"event","name":"ReferralTierSet","inputs":[{"name":"tierId","type":"uint256","indexed":false,"internalType":"uint256"},{"name":"feeDiscountPct","type":"uint256","indexed":false,"internalType":"uint256"},{"name":"refRebatePct","type":"uint256","indexed":false,"internalType":"uint256"}],"anonymous":false},{"type":"event","name":"RegisterCode","inputs":[{"name":"account","type":"address","indexed":false,"internalType":"address"},{"name":"code","type":"bytes32","indexed":false,"internalType":"bytes32"}],"anonymous":false},{"type":"event","name":"RelinquishedCode","inputs":[{"name":"account","type":"address","indexed":false,"internalType":"address"},{"name":"code","type":"bytes32","indexed":false,"internalType":"bytes32"}],"anonymous":false},{"type":"event","name":"RequestCancelled","inputs":[{"name":"trader","type":"address","indexed":false,"internalType":"address"},{"name":"_code","type":"bytes32","indexed":false,"internalType":"bytes32"}],"anonymous":false},{"type":"event","name":"SetCodeOwner","inputs":[{"name":"oldOwner","type":"address","indexed":false,"internalType":"address"},{"name":"newOwner","type":"address","indexed":false,"internalType":"address"},{"name":"code","type":"bytes32","indexed":false,"internalType":"bytes32"}],"anonymous":false},{"type":"event","name":"SetHandler","inputs":[{"name":"handler","type":"address","indexed":false,"internalType":"address"},{"name":"isActive","type":"bool","indexed":false,"internalType":"bool"}],"anonymous":false},{"type":"event","name":"SetPendingCodeOwner","inputs":[{"name":"account","type":"address","indexed":false,"internalType":"address"},{"name":"newAccount","type":"address","indexed":false,"internalType":"address"},{"name":"code","type":"bytes32","indexed":false,"internalType":"bytes32"}],"anonymous":false},{"type":"event","name":"SetReferrerDiscountShare","inputs":[{"name":"referrer","type":"address","indexed":false,"internalType":"address"},{"name":"discountShare","type":"uint256","indexed":false,"internalType":"uint256"}],"anonymous":false},{"type":"event","name":"SetReferrerTier","inputs":[{"name":"referrer","type":"address","indexed":false,"internalType":"address"},{"name":"tierId","type":"uint256","indexed":false,"internalType":"uint256"}],"anonymous":false},{"type":"event","name":"SetTraderReferralCode","inputs":[{"name":"account","type":"address","indexed":false,"internalType":"address"},{"name":"code","type":"bytes32","indexed":false,"internalType":"bytes32"}],"anonymous":false},{"type":"event","name":"TraderTierUpdated","inputs":[{"name":"trader","type":"address","indexed":false,"internalType":"address"},{"name":"_tier","type":"uint256","indexed":false,"internalType":"uint256"}],"anonymous":false},{"type":"event","name":"Unpaused","inputs":[{"name":"account","type":"address","indexed":false,"internalType":"address"}],"anonymous":false}],"bytecode":{"object":"0x60806040523480156200001157600080fd5b506200001c62000022565b620000e3565b600054610100900460ff16156200008f5760405162461bcd60e51b815260206004820152602760248201527f496e697469616c697a61626c653a20636f6e747261637420697320696e697469604482015266616c697a696e6760c81b606482015260840160405180910390fd5b60005460ff90811614620000e1576000805460ff191660ff9081179091556040519081527f7f26b83ff96e1f2b6a682f133852f6798a09c465da95921460cefb38474024989060200160405180910390a15b565b61257380620000f36000396000f3fe608060405234801561001057600080fd5b506004361061025e5760003560e01c806385725b5811610146578063c762b03d116100c3578063dfcfa25011610087578063dfcfa25014610603578063e1e01bf314610616578063e51a927714610629578063fa84dc2f1461063c578063fcccd11d1461065c578063fdb41ed31461068557600080fd5b8063c762b03d1461055e578063c8b3c46014610571578063ce18b98d1461059a578063d54c95a5146105d0578063d80a619f146105f057600080fd5b8063a7ad780d1161010a578063a7ad780d146104ed578063b25305a814610500578063b35569dd14610523578063b7f1e9c614610543578063c4d66de81461054b57600080fd5b806385725b581461045857806393e2d3b41461047857806397132232146104b45780639a90031f146104c75780639cb7de4b146104da57600080fd5b80633fb8b323116101df57806356b4b2ad116101a357806356b4b2ad146103ee5780635c975abb146104015780636b3644891461040c5780637b1385ac1461041f5780638456cb5914610448578063851b16f51461045057600080fd5b80633fb8b3231461034557806346ea87af146103585780634c3347721461038b57806350e45ea8146103ab578063534ef883146103be57600080fd5b80632e5cf045116102265780632e5cf045146102fc578063308a1e771461030f5780633611d9391461032257806336def2c81461032a5780633f4ba83a1461033d57600080fd5b806312d43a51146102635780631582a018146102935780631d442517146102c1578063238df96b146102d657806325240810146102e9575b600080fd5b606554610276906001600160a01b031681565b6040516001600160a01b0390911681526020015b60405180910390f35b6102b36102a1366004612061565b60676020526000908152604090205481565b60405190815260200161028a565b6102d46102cf366004612061565b610698565b005b6102d46102e43660046120e0565b610741565b606654610276906001600160a01b031681565b6102d461030a366004612144565b61086f565b6102d461031d3660046120b6565b610ba7565b6102d4610c44565b6102d4610338366004612229565b610d03565b6102d4610e09565b6102d46103533660046120b6565b610e3d565b61037b610366366004612061565b606b6020526000908152604090205460ff1681565b604051901515815260200161028a565b6102b3610399366004612061565b60686020526000908152604090205481565b6102d46103b936600461229a565b610ece565b6103d16103cc366004612061565b610ff1565b604080519283526001600160a01b0390911660208301520161028a565b6102d46103fc3660046120b6565b611037565b60335460ff1661037b565b6102d461041a366004612229565b611089565b6102b361042d366004612061565b6001600160a01b031660009081526068602052604090205490565b6102d46111f4565b6102d4611226565b6102b3610466366004612061565b606f6020526000908152604090205481565b61049f610486366004612229565b6069602052600090815260409020805460019091015482565b6040805192835260208301919091520161028a565b6102d46104c2366004612242565b6112e5565b6102d46104d53660046120b6565b6113c1565b6102d46104e8366004612083565b611452565b6102d46104fb366004612265565b6114d8565b61037b61050e366004612229565b60706020526000908152604090205460ff1681565b6102b3610531366004612061565b606e6020526000908152604090205481565b6102d4611638565b6102d4610559366004612061565b611715565b6102d461056c3660046122df565b611832565b61027661057f366004612229565b606c602052600090815260409020546001600160a01b031681565b6105ad6105a83660046120b6565b61197c565b604080519384526001600160a01b0390921660208401529082015260600161028a565b6102b36105de366004612061565b60716020526000908152604090205481565b6102d46105fe3660046122bd565b611abf565b6102d4610611366004612242565b611b95565b6102d4610624366004612229565b611ca4565b6102d4610637366004612229565b611d0b565b6102b361064a366004612229565b606a6020526000908152604090205481565b61027661066a366004612229565b606d602052600090815260409020546001600160a01b031681565b6102d4610693366004612242565b611d55565b6065546001600160a01b031633146106cb5760405162461bcd60e51b81526004016106c2906123a0565b60405180910390fd5b6001600160a01b0381166106de57600080fd5b606680546001600160a01b0319166001600160a01b038381169182179092556065546040805191909316815260208101919091527f28f8f8492c19a1f85e6f560618e8278240d002f8534a77be01db9eba1ca5971891015b60405180910390a150565b336000908152606b602052604090205460ff168061076957506065546001600160a01b031633145b6107855760405162461bcd60e51b81526004016106c2906123cf565b60005b825181101561086a578181815181106107a3576107a3612511565b6020026020010151606f60008584815181106107c1576107c1612511565b60200260200101516001600160a01b03166001600160a01b03168152602001908152602001600020819055507f43825f14567dda057e821be2e51a5aa79aa51f3907a647e3ed2bd486a01050f183828151811061082057610820612511565b602002602001015183838151811061083a5761083a612511565b602002602001015160405161085092919061230b565b60405180910390a180610862816124e0565b915050610788565b505050565b336000908152606b602052604090205460ff168061089757506065546001600160a01b031633145b6108b35760405162461bcd60e51b81526004016106c2906123cf565b60005b8351811015610ba1576000801b8482815181106108d5576108d5612511565b602002602001015114156108fb5760405162461bcd60e51b81526004016106c2906123fc565b60006001600160a01b0316606c600086848151811061091c5761091c612511565b6020908102919091018101518252810191909152604001600020546001600160a01b03161461095d5760405162461bcd60e51b81526004016106c290612369565b6000801b606e600085848151811061097757610977612511565b60200260200101516001600160a01b03166001600160a01b0316815260200190815260200160002054146109bd5760405162461bcd60e51b81526004016106c290612324565b8281815181106109cf576109cf612511565b6020026020010151606c60008684815181106109ed576109ed612511565b6020026020010151815260200190815260200160002060006101000a8154816001600160a01b0302191690836001600160a01b03160217905550838181518110610a3957610a39612511565b6020026020010151606e6000858481518110610a5757610a57612511565b60200260200101516001600160a01b03166001600160a01b0316815260200190815260200160002081905550818181518110610a9557610a95612511565b602002602001015160676000858481518110610ab357610ab3612511565b60200260200101516001600160a01b03166001600160a01b0316815260200190815260200160002081905550600060706000868481518110610af757610af7612511565b6020026020010151815260200190815260200160002060006101000a81548160ff0219169083151502179055507f04f82286a2a3b2ee5c8555de8304dfe2ea70991613213184b73a9e408d2d8029838281518110610b5757610b57612511565b6020026020010151858381518110610b7157610b71612511565b6020026020010151604051610b8792919061230b565b60405180910390a180610b99816124e0565b9150506108b6565b50505050565b336000908152606b602052604090205460ff1680610bcf57506065546001600160a01b031633145b610beb5760405162461bcd60e51b81526004016106c2906123cf565b6001600160a01b03821660009081526068602052604090819020829055517f88dbf1ad95227b72fc5331dff3dfcd0e51191478034000b820b15e9eb3cdcaa190610c38908490849061230b565b60405180910390a15050565b610c4c611e3e565b336000908152606f6020526040902054610ca85760405162461bcd60e51b815260206004820152601f60248201527f526566657272616c3a204e6f20436f646520746f2072656c697175696e73680060448201526064016106c2565b336000818152606f6020526040908190205490517fc9bdf7aea80447079a5e67a0d986bc99945fa7ba424d2c06ab394d494b8770bd92610ce992909161230b565b60405180910390a1336000908152606f6020526040812055565b610d0b611e3e565b80610d285760405162461bcd60e51b81526004016106c2906123fc565b6000818152606c60205260409020546001600160a01b031615610d5d5760405162461bcd60e51b81526004016106c290612369565b336000908152606e602052604090205415610d8a5760405162461bcd60e51b81526004016106c290612324565b6000818152606c6020908152604080832080546001600160a01b03191633908117909155808452606e83528184208590556067835281842060019055848452607090925291829020805460ff1916905590517f04f82286a2a3b2ee5c8555de8304dfe2ea70991613213184b73a9e408d2d80299161073691849061230b565b6065546001600160a01b03163314610e335760405162461bcd60e51b81526004016106c2906123a0565b610e3b611e84565b565b336000908152606b602052604090205460ff1680610e6557506065546001600160a01b031633145b610e815760405162461bcd60e51b81526004016106c2906123cf565b6001600160a01b03821660009081526067602052604090819020829055517f7696855cdbb94bb5a44cb0a95caff6f29173aa1cbfba193834b12b90827ce2bc90610c38908490849061230b565b336000908152606b602052604090205460ff1680610ef657506065546001600160a01b031633145b610f125760405162461bcd60e51b81526004016106c2906123cf565b81610f2f5760405162461bcd60e51b81526004016106c2906123fc565b6000828152606c60205260409020546001600160a01b0316610f9f5760405162461bcd60e51b815260206004820152602360248201527f526566657272616c3a20436f6465204f776e657220446f6573204e6f742045786044820152621a5cdd60ea1b60648201526084016106c2565b600082815260706020908152604091829020805460ff19168415159081179091558251858152918201527f3f9c3a98ca92c073219c27626d123cd68be2f9bbf80ef0598e3630ab54e5b4399101610c38565b6001600160a01b0381166000908152606f6020526040812054819081811561102d57506000818152606c60205260409020546001600160a01b03165b9094909350915050565b336000908152606b602052604090205460ff168061105f57506065546001600160a01b031633145b61107b5760405162461bcd60e51b81526004016106c2906123cf565b6110858282611405565b5050565b611091611e3e565b6000818152606c6020908152604080832054606d909252909120546001600160a01b03918216911633146110fd5760405162461bcd60e51b81526020600482015260136024820152722932b332b93930b61d103337b93134b23232b760691b60448201526064016106c2565b336000818152606e6020908152604080832080548452606c80845282852080546001600160a01b031990811690915582548652606d85528386208054821690558886529084528285208054909116861790558690556001600160a01b038516808452606783528184205485855293829020939093558051928352908201929092529081018390527f5640856798d41ce9ca0a109b54c20a06eb99ba9c36ab4547115dafb8473cf3979060600160405180910390a16001600160a01b03166000818152606e60209081526040808320839055938252606d815283822080546001600160a01b0319169055918152606790915290812055565b6065546001600160a01b0316331461121e5760405162461bcd60e51b81526004016106c2906123a0565b610e3b611ed6565b61122e611e3e565b3360009081526071602052604090205461128a5760405162461bcd60e51b815260206004820152601b60248201527f526566657272616c3a204e6f20436f646520526571756573746564000000000060448201526064016106c2565b33600081815260716020526040908190205490517f51748af4fe9e894fd926cd621e287217d8d4cd9434159ef54f7ef22fc0e946f5926112cb92909161230b565b60405180910390a133600090815260716020526040812055565b6112ed611e3e565b6000828152606c60205260409020546001600160a01b031633146113405760405162461bcd60e51b815260206004820152600a6024820152694f574e45525f4f4e4c5960b01b60448201526064016106c2565b6001600160a01b038116600090815260716020526040902054821461139c5760405162461bcd60e51b815260206004820152601260248201527110d3d11157d393d517d49154555154d5115160721b60448201526064016106c2565b6113a68183611405565b6001600160a01b031660009081526071602052604081205550565b336000908152606b602052604090205460ff16806113e957506065546001600160a01b031633145b6114055760405162461bcd60e51b81526004016106c2906123cf565b6001600160a01b0382166000908152606f602052604090819020829055517f43825f14567dda057e821be2e51a5aa79aa51f3907a647e3ed2bd486a01050f190610c38908490849061230b565b6065546001600160a01b0316331461147c5760405162461bcd60e51b81526004016106c2906123a0565b6001600160a01b0382166000818152606b6020908152604091829020805460ff19168515159081179091558251938452908301527fd373464a39404e5f98fdb4b152b8ba9a094561e97e5c4b4ea11eb18cd9e6695e9101610c38565b336000908152606b602052604090205460ff168061150057506065546001600160a01b031633145b61151c5760405162461bcd60e51b81526004016106c2906123cf565b826115395760405162461bcd60e51b81526004016106c2906123fc565b6000838152606c60205260409020546001600160a01b03161561156e5760405162461bcd60e51b81526004016106c290612369565b6001600160a01b0382166000908152606e6020526040902054156115a45760405162461bcd60e51b81526004016106c290612324565b6000838152606c6020908152604080832080546001600160a01b0319166001600160a01b0387169081179091558352606e825280832086905560678252808320849055858352607090915290819020805460ff19169055517f04f82286a2a3b2ee5c8555de8304dfe2ea70991613213184b73a9e408d2d80299061162b908490869061230b565b60405180910390a1505050565b6066546001600160a01b031633146116a95760405162461bcd60e51b815260206004820152602e60248201527f526566657272616c3a2063616c6c6572206973206e6f74207468652070656e6460448201526d696e6720676f7665726e616e636560901b60648201526084016106c2565b606554604080516001600160a01b0390921682523360208301527f9ada8d81c1c496b87ae7ff3b8d180bb9e2277d70e35b46c471db0b16a7daed8f910160405180910390a160668054606580546001600160a01b03199081166001600160a01b03841617909155169055565b600054610100900460ff16158080156117355750600054600160ff909116105b8061174f5750303b15801561174f575060005460ff166001145b6117b25760405162461bcd60e51b815260206004820152602e60248201527f496e697469616c697a61626c653a20636f6e747261637420697320616c72656160448201526d191e481a5b9a5d1a585b1a5e995960921b60648201526084016106c2565b6000805460ff1916600117905580156117d5576000805461ff0019166101001790555b606580546001600160a01b0319166001600160a01b0384161790558015611085576000805461ff0019169055604051600181527f7f26b83ff96e1f2b6a682f133852f6798a09c465da95921460cefb384740249890602001610c38565b6065546001600160a01b0316331461185c5760405162461bcd60e51b81526004016106c2906123a0565b6127108211156118ae5760405162461bcd60e51b815260206004820152601d60248201527f526566657272616c3a20696e76616c696420746f74616c52656261746500000060448201526064016106c2565b6127108111156119005760405162461bcd60e51b815260206004820152601f60248201527f526566657272616c3a20696e76616c696420646973636f756e7453686172650060448201526064016106c2565b600083815260696020818152604080842081518083018352878152808401878152958990529383528351815593516001909401939093558251868152908101859052918201839052907f318aa6da98314a0590fcdb4f5d7c73a8113f5e6b3c709c362ac106f4d0e6e42f9060600160405180910390a150505050565b600080600061198a85610ff1565b6001600160a01b0381166000908152606760209081526040808320548084526069909252909120549194509150612710906119c590876124aa565b6119cf9190612488565b6119d990866124c9565b600082815260696020526040902060010154909450612710906119fc90866124aa565b611a069190612488565b6001600160a01b0387166000908152606860209081526040808320548352606a9091528120549193509061271090611a3e90876124aa565b611a489190612488565b9050611a5481866124c9565b6001600160a01b038816600081815260686020908152604091829020548251938452908301528101839052606081018290529095507f468833fe6386b98b40e0f39fe4cafee4f56f7ab7f47e3f7839c57cf40b6e407a9060800160405180910390a150509250925092565b6065546001600160a01b03163314611ae95760405162461bcd60e51b81526004016106c2906123a0565b612710811115611b3b5760405162461bcd60e51b815260206004820152601d60248201527f526566657272616c3a20696e76616c696420746f74616c52656261746500000060448201526064016106c2565b6000828152606a602081815260408084208151808401835286815294879052928252835190925581518581529081018490527f3badd8c132bb1c7264c8a842670580d2bdad682383a87a17638ae047444e6d20910161162b565b6065546001600160a01b03163314611bbf5760405162461bcd60e51b81526004016106c2906123a0565b81611bdc5760405162461bcd60e51b81526004016106c2906123fc565b6000828152606c6020818152604080842080546001600160a01b03908116808752606e85528387208790559087168087528387208054885295855283872080546001600160a01b0319908116909155898852606d865284882080548216905586548852848820805482169055835416811790925593879055838552606783528185208054828752838720558486529490945580518681529182019390935290917f6431f88c655dd0e2b8d09b6405c007c515c66d67f2998e69c902873a8c8f3e97910161162b565b611cac611e3e565b60008181526070602052604090205460ff1615611cfe5760405162461bcd60e51b815260206004820152601060248201526f1554d051d157d49154d5149250d5115160821b60448201526064016106c2565b611d083382611405565b50565b611d13611e3e565b3360008181526071602052604090819020839055517f43a93d2a735e850fd5bbe43f61c22705c3d4b5b60fe8c349f72f657421b728e49161073691849061230b565b611d5d611e3e565b81611d7a5760405162461bcd60e51b81526004016106c2906123fc565b6000828152606c60205260409020546001600160a01b0316338114611dd75760405162461bcd60e51b81526020600482015260136024820152722932b332b93930b61d103337b93134b23232b760691b60448201526064016106c2565b6000838152606d602090815260409182902080546001600160a01b0319166001600160a01b0386169081179091558251338152918201529081018490527fb48e9dd1d295e82e90cbbe8e05f2249fcdfab0bf75504df039330004b28078409060600161162b565b60335460ff1615610e3b5760405162461bcd60e51b815260206004820152601060248201526f14185d5cd8589b194e881c185d5cd95960821b60448201526064016106c2565b611e8c611f13565b6033805460ff191690557f5db9ee0a495bf2e6ff9c91a7834c1ba4fdd244a5e8aa4e537bd38aeae4b073aa335b6040516001600160a01b03909116815260200160405180910390a1565b611ede611e3e565b6033805460ff191660011790557f62e78cea01bee320cd4e420270b5ea74000d11b0c9f74754ebdbfc544b05a258611eb93390565b60335460ff16610e3b5760405162461bcd60e51b815260206004820152601460248201527314185d5cd8589b194e881b9bdd081c185d5cd95960621b60448201526064016106c2565b80356001600160a01b0381168114611f7357600080fd5b919050565b600082601f830112611f8957600080fd5b81356020611f9e611f9983612464565b612433565b80838252828201915082860187848660051b8901011115611fbe57600080fd5b60005b85811015611fe457611fd282611f5c565b84529284019290840190600101611fc1565b5090979650505050505050565b600082601f83011261200257600080fd5b81356020612012611f9983612464565b80838252828201915082860187848660051b890101111561203257600080fd5b60005b85811015611fe457813584529284019290840190600101612035565b80358015158114611f7357600080fd5b60006020828403121561207357600080fd5b61207c82611f5c565b9392505050565b6000806040838503121561209657600080fd5b61209f83611f5c565b91506120ad60208401612051565b90509250929050565b600080604083850312156120c957600080fd5b6120d283611f5c565b946020939093013593505050565b600080604083850312156120f357600080fd5b823567ffffffffffffffff8082111561210b57600080fd5b61211786838701611f78565b9350602085013591508082111561212d57600080fd5b5061213a85828601611ff1565b9150509250929050565b60008060006060848603121561215957600080fd5b833567ffffffffffffffff8082111561217157600080fd5b61217d87838801611ff1565b945060209150818601358181111561219457600080fd5b6121a088828901611f78565b9450506040860135818111156121b557600080fd5b86019050601f810187136121c857600080fd5b80356121d6611f9982612464565b8082825284820191508484018a868560051b87010111156121f657600080fd5b600094505b838510156122195780358352600194909401939185019185016121fb565b5080955050505050509250925092565b60006020828403121561223b57600080fd5b5035919050565b6000806040838503121561225557600080fd5b823591506120ad60208401611f5c565b60008060006060848603121561227a57600080fd5b8335925061228a60208501611f5c565b9150604084013590509250925092565b600080604083850312156122ad57600080fd5b823591506120ad60208401612051565b600080604083850312156122d057600080fd5b50508035926020909101359150565b6000806000606084860312156122f457600080fd5b505081359360208301359350604090920135919050565b6001600160a01b03929092168252602082015260400190565b60208082526025908201527f526566657272616c3a20726566657272657220616c72656164792072656769736040820152641d195c995960da1b606082015260800190565b6020808252601d908201527f526566657272616c3a20636f646520616c726561647920657869737473000000604082015260600190565b60208082526015908201527423b7bb32b93730b136329d103337b93134b23232b760591b604082015260600190565b60208082526013908201527227a7262cafa3a7ab2fa7a92fa420a7222622a960691b604082015260600190565b60208082526017908201527f526566657272616c3a20696e76616c6964205f636f6465000000000000000000604082015260600190565b604051601f8201601f1916810167ffffffffffffffff8111828210171561245c5761245c612527565b604052919050565b600067ffffffffffffffff82111561247e5761247e612527565b5060051b60200190565b6000826124a557634e487b7160e01b600052601260045260246000fd5b500490565b60008160001904831182151516156124c4576124c46124fb565b500290565b6000828210156124db576124db6124fb565b500390565b60006000198214156124f4576124f46124fb565b5060010190565b634e487b7160e01b600052601160045260246000fd5b634e487b7160e01b600052603260045260246000fd5b634e487b7160e01b600052604160045260246000fdfea2646970667358221220a4be44de58ec70437ab7b04bef9aa6b49be1acf87e585449257baa6aa3c52abd64736f6c63430008070033","linkReferences":{}},"methodIdentifiers":{"acceptCodeOwnership(bytes32)":"6b364489","acceptGovTransfer()":"b7f1e9c6","cancelRequest()":"851b16f5","codeOwners(bytes32)":"c8b3c460","codes(address)":"b35569dd","discountTiers(uint256)":"fa84dc2f","getTraderReferralInfo(address)":"534ef883","gov()":"12d43a51","govSetCodeOwner(bytes32,address)":"dfcfa250","initialize(address)":"c4d66de8","initiateGovTransfer(address)":"1d442517","isHandler(address)":"46ea87af","isPrivate(bytes32)":"b25305a8","migrateCode(bytes32,address,uint256)":"a7ad780d","migrateCodes(bytes32[],address[],uint256[])":"2e5cf045","migrateTraderReferrals(address,bytes32)":"9a90031f","migrateTraderReferrals(address[],bytes32[])":"238df96b","pause()":"8456cb59","paused()":"5c975abb","pendingCodeOwners(bytes32)":"fcccd11d","pendingGov()":"25240810","referralTiers(uint256)":"93e2d3b4","referrerTiers(address)":"1582a018","registerCode(bytes32)":"36def2c8","relinquishCode()":"3611d939","requestCode(address)":"d54c95a5","requestSpecialCode(bytes32)":"e51a9277","setDiscountTier(uint256,uint256)":"d80a619f","setHandler(address,bool)":"9cb7de4b","setPendingCodeOwnershipTransfer(bytes32,address)":"fdb41ed3","setReferralTier(uint256,uint256,uint256)":"c762b03d","setReferrerTier(address,uint256)":"3fb8b323","setTraderReferralCode(address,bytes32)":"56b4b2ad","setTraderReferralCodeByOwner(bytes32,address)":"97132232","setTraderReferralCodeByUser(bytes32)":"e1e01bf3","setTraderTier(address,uint256)":"308a1e77","traderReferralCodes(address)":"85725b58","traderReferralDiscount(address,uint256)":"ce18b98d","traderTier(address)":"7b1385ac","traderTiers(address)":"4c334772","unpause()":"3f4ba83a","updateReferral(bytes32,bool)":"50e45ea8"},"id":111}