{"abi":[{"type":"constructor","inputs":[],"stateMutability":"nonpayable"},{"type":"function","name":"addTradingContract","inputs":[{"name":"_trading","type":"address","internalType":"address"}],"outputs":[],"stateMutability":"nonpayable"},{"type":"function","name":"allocateRewards","inputs":[{"name":"rewards","type":"uint256","internalType":"uint256"},{"name":"isPnl","type":"bool","internalType":"bool"}],"outputs":[],"stateMutability":"nonpayable"},{"type":"function","name":"balancingDeltaThreshold","inputs":[],"outputs":[{"name":"","type":"uint256","internalType":"uint256"}],"stateMutability":"view"},{"type":"function","name":"balancingFee","inputs":[],"outputs":[{"name":"","type":"uint256","internalType":"uint256"}],"stateMutability":"view"},{"type":"function","name":"baseMultiplier","inputs":[],"outputs":[{"name":"","type":"uint256","internalType":"uint256"}],"stateMutability":"view"},{"type":"function","name":"bufferThresholds","inputs":[{"name":"","type":"uint256","internalType":"uint256"}],"outputs":[{"name":"","type":"uint256","internalType":"uint256"}],"stateMutability":"view"},{"type":"function","name":"collateralFees","inputs":[{"name":"","type":"uint256","internalType":"uint256"}],"outputs":[{"name":"","type":"uint256","internalType":"uint256"}],"stateMutability":"view"},{"type":"function","name":"constrainedLiquidityThreshold","inputs":[],"outputs":[{"name":"","type":"uint256","internalType":"uint256"}],"stateMutability":"view"},{"type":"function","name":"currentBalanceUSDC","inputs":[],"outputs":[{"name":"","type":"uint256","internalType":"uint256"}],"stateMutability":"view"},{"type":"function","name":"currentOpenPnl","inputs":[],"outputs":[{"name":"","type":"int256","internalType":"int256"}],"stateMutability":"view"},{"type":"function","name":"distributeCollectedFeeShares","inputs":[{"name":"_tranche","type":"address","internalType":"address"}],"outputs":[],"stateMutability":"nonpayable"},{"type":"function","name":"distributePnlRewards","inputs":[],"outputs":[],"stateMutability":"nonpayable"},{"type":"function","name":"distributeRewards","inputs":[],"outputs":[],"stateMutability":"nonpayable"},{"type":"function","name":"distributeTrancheRewards","inputs":[{"name":"_tranche","type":"address","internalType":"address"},{"name":"rewards","type":"uint256","internalType":"uint256"}],"outputs":[],"stateMutability":"nonpayable"},{"type":"function","name":"distributeVeRewards","inputs":[{"name":"_tranche","type":"address","internalType":"address"},{"name":"rewards","type":"uint256","internalType":"uint256"}],"outputs":[{"name":"","type":"uint256","internalType":"uint256"}],"stateMutability":"nonpayable"},{"type":"function","name":"earlyWithdrawFee","inputs":[],"outputs":[{"name":"","type":"uint256","internalType":"uint256"}],"stateMutability":"view"},{"type":"function","name":"getBalancingFee","inputs":[{"name":"tranche","type":"address","internalType":"address"},{"name":"isDeposit","type":"bool","internalType":"bool"},{"name":"assets","type":"uint256","internalType":"uint256"}],"outputs":[{"name":"","type":"uint256","internalType":"uint256"}],"stateMutability":"view"},{"type":"function","name":"getBufferRatio","inputs":[],"outputs":[{"name":"","type":"uint256","internalType":"uint256"}],"stateMutability":"view"},{"type":"function","name":"getCollateralFee","inputs":[],"outputs":[{"name":"","type":"uint256","internalType":"uint256"}],"stateMutability":"view"},{"type":"function","name":"getCurrentTrancheRatio","inputs":[],"outputs":[{"name":"","type":"uint256","internalType":"uint256"}],"stateMutability":"view"},{"type":"function","name":"getDynamicReserveRatio","inputs":[{"name":"tranche","type":"address","internalType":"address"},{"name":"isDeposit","type":"bool","internalType":"bool"},{"name":"assets","type":"uint256","internalType":"uint256"}],"outputs":[{"name":"","type":"uint256","internalType":"uint256"}],"stateMutability":"view"},{"type":"function","name":"getProfitMultiplier","inputs":[],"outputs":[{"name":"","type":"uint256","internalType":"uint256"}],"stateMutability":"view"},{"type":"function","name":"getReleaseRatio","inputs":[],"outputs":[{"name":"","type":"uint256","internalType":"uint256"}],"stateMutability":"view"},{"type":"function","name":"getReserveRatio","inputs":[{"name":"_reserveAmount","type":"uint256","internalType":"uint256"}],"outputs":[{"name":"","type":"uint256","internalType":"uint256"}],"stateMutability":"view"},{"type":"function","name":"getSeniorLossMultiplier","inputs":[],"outputs":[{"name":"","type":"uint256","internalType":"uint256"}],"stateMutability":"view"},{"type":"function","name":"getUnreservedTrancheRatio","inputs":[],"outputs":[{"name":"","type":"uint256","internalType":"uint256"}],"stateMutability":"view"},{"type":"function","name":"gov","inputs":[],"outputs":[{"name":"","type":"address","internalType":"address"}],"stateMutability":"view"},{"type":"function","name":"initialize","inputs":[{"name":"_gov","type":"address","internalType":"address"},{"name":"_storageT","type":"address","internalType":"address"}],"outputs":[],"stateMutability":"nonpayable"},{"type":"function","name":"isTradingContract","inputs":[{"name":"","type":"address","internalType":"address"}],"outputs":[{"name":"","type":"bool","internalType":"bool"}],"stateMutability":"view"},{"type":"function","name":"junior","inputs":[],"outputs":[{"name":"","type":"address","internalType":"contract ITranche"}],"stateMutability":"view"},{"type":"function","name":"keeper","inputs":[],"outputs":[{"name":"","type":"address","internalType":"address"}],"stateMutability":"view"},{"type":"function","name":"lastRewardTime","inputs":[],"outputs":[{"name":"","type":"uint256","internalType":"uint256"}],"stateMutability":"view"},{"type":"function","name":"maxLockTime","inputs":[],"outputs":[{"name":"","type":"uint256","internalType":"uint256"}],"stateMutability":"view"},{"type":"function","name":"maxMultiplier","inputs":[],"outputs":[{"name":"","type":"uint256","internalType":"uint256"}],"stateMutability":"view"},{"type":"function","name":"minLockTime","inputs":[],"outputs":[{"name":"","type":"uint256","internalType":"uint256"}],"stateMutability":"view"},{"type":"function","name":"minMultiplier","inputs":[],"outputs":[{"name":"","type":"uint256","internalType":"uint256"}],"stateMutability":"view"},{"type":"function","name":"multiplierCoeff","inputs":[],"outputs":[{"name":"","type":"uint256","internalType":"uint256"}],"stateMutability":"view"},{"type":"function","name":"multiplierDenom","inputs":[],"outputs":[{"name":"","type":"uint256","internalType":"uint256"}],"stateMutability":"view"},{"type":"function","name":"pnlRewards","inputs":[],"outputs":[{"name":"","type":"uint256","internalType":"uint256"}],"stateMutability":"view"},{"type":"function","name":"receiveUSDCFromTrader","inputs":[{"name":"_trader","type":"address","internalType":"address"},{"name":"_amount","type":"uint256","internalType":"uint256"}],"outputs":[],"stateMutability":"nonpayable"},{"type":"function","name":"releaseBalance","inputs":[{"name":"_amount","type":"uint256","internalType":"uint256"}],"outputs":[],"stateMutability":"nonpayable"},{"type":"function","name":"removeTradingContract","inputs":[{"name":"_trading","type":"address","internalType":"address"}],"outputs":[],"stateMutability":"nonpayable"},{"type":"function","name":"requestGov","inputs":[{"name":"_gov","type":"address","internalType":"address"}],"outputs":[],"stateMutability":"nonpayable"},{"type":"function","name":"requestedGov","inputs":[],"outputs":[{"name":"","type":"address","internalType":"address"}],"stateMutability":"view"},{"type":"function","name":"reserveBalance","inputs":[{"name":"_amount","type":"uint256","internalType":"uint256"}],"outputs":[],"stateMutability":"nonpayable"},{"type":"function","name":"rewardPeriod","inputs":[],"outputs":[{"name":"","type":"uint256","internalType":"uint256"}],"stateMutability":"view"},{"type":"function","name":"sendReferrerRebateToStorage","inputs":[{"name":"_amount","type":"uint256","internalType":"uint256"}],"outputs":[],"stateMutability":"nonpayable"},{"type":"function","name":"sendUSDCToTrader","inputs":[{"name":"_trader","type":"address","internalType":"address"},{"name":"_amount","type":"uint256","internalType":"uint256"}],"outputs":[],"stateMutability":"nonpayable"},{"type":"function","name":"senior","inputs":[],"outputs":[{"name":"","type":"address","internalType":"contract ITranche"}],"stateMutability":"view"},{"type":"function","name":"setBalancingDeltaThreshold","inputs":[{"name":"_balancingDeltaThreshold","type":"uint256","internalType":"uint256"}],"outputs":[],"stateMutability":"nonpayable"},{"type":"function","name":"setBalancingFee","inputs":[{"name":"_balancingFee","type":"uint256","internalType":"uint256"}],"outputs":[],"stateMutability":"nonpayable"},{"type":"function","name":"setBaseMultiplier","inputs":[{"name":"_baseMultiplier","type":"uint256","internalType":"uint256"}],"outputs":[],"stateMutability":"nonpayable"},{"type":"function","name":"setBufferThresholds","inputs":[{"name":"_bufferThresholds","type":"uint256[5]","internalType":"uint256[5]"}],"outputs":[],"stateMutability":"nonpayable"},{"type":"function","name":"setCollateralFees","inputs":[{"name":"_collateralFees","type":"uint256[5]","internalType":"uint256[5]"}],"outputs":[],"stateMutability":"nonpayable"},{"type":"function","name":"setConstrainedLiquidityThreshold","inputs":[{"name":"_constrainedLiquidityThreshold","type":"uint256","internalType":"uint256"}],"outputs":[],"stateMutability":"nonpayable"},{"type":"function","name":"setCurrentOpenPnl","inputs":[{"name":"_currentOpenPnl","type":"int256","internalType":"int256"}],"outputs":[],"stateMutability":"nonpayable"},{"type":"function","name":"setEarlyWithdrawFee","inputs":[{"name":"_earlyWithdrawFee","type":"uint256","internalType":"uint256"}],"outputs":[],"stateMutability":"nonpayable"},{"type":"function","name":"setGov","inputs":[{"name":"_gov","type":"address","internalType":"address"}],"outputs":[],"stateMutability":"nonpayable"},{"type":"function","name":"setJuniorTranche","inputs":[{"name":"_junior","type":"address","internalType":"address"}],"outputs":[],"stateMutability":"nonpayable"},{"type":"function","name":"setKeeper","inputs":[{"name":"_keeper","type":"address","internalType":"address"}],"outputs":[],"stateMutability":"nonpayable"},{"type":"function","name":"setMaxLockTime","inputs":[{"name":"_maxLockTime","type":"uint256","internalType":"uint256"}],"outputs":[],"stateMutability":"nonpayable"},{"type":"function","name":"setMaxMultiplier","inputs":[{"name":"_maxMultiplier","type":"uint256","internalType":"uint256"}],"outputs":[],"stateMutability":"nonpayable"},{"type":"function","name":"setMinLockTime","inputs":[{"name":"_minLockTime","type":"uint256","internalType":"uint256"}],"outputs":[],"stateMutability":"nonpayable"},{"type":"function","name":"setMinMultiplier","inputs":[{"name":"_minMultiplier","type":"uint256","internalType":"uint256"}],"outputs":[],"stateMutability":"nonpayable"},{"type":"function","name":"setMultiplierCoeff","inputs":[{"name":"_multiplierCoeff","type":"uint256","internalType":"uint256"}],"outputs":[],"stateMutability":"nonpayable"},{"type":"function","name":"setMultiplierDenom","inputs":[{"name":"_multiplierDenom","type":"uint256","internalType":"uint256"}],"outputs":[],"stateMutability":"nonpayable"},{"type":"function","name":"setReserveRatio","inputs":[{"name":"_targetReserveRatio","type":"uint256","internalType":"uint256"}],"outputs":[],"stateMutability":"nonpayable"},{"type":"function","name":"setRewardPeriod","inputs":[{"name":"_rewardPeriod","type":"uint256","internalType":"uint256"}],"outputs":[],"stateMutability":"nonpayable"},{"type":"function","name":"setSeniorTranche","inputs":[{"name":"_senior","type":"address","internalType":"address"}],"outputs":[],"stateMutability":"nonpayable"},{"type":"function","name":"setStorage","inputs":[{"name":"_storageT","type":"address","internalType":"address"}],"outputs":[],"stateMutability":"nonpayable"},{"type":"function","name":"storageT","inputs":[],"outputs":[{"name":"","type":"address","internalType":"contract ITradingStorage"}],"stateMutability":"view"},{"type":"function","name":"targetReserveRatio","inputs":[],"outputs":[{"name":"","type":"uint256","internalType":"uint256"}],"stateMutability":"view"},{"type":"function","name":"totalRewards","inputs":[],"outputs":[{"name":"","type":"uint256","internalType":"uint256"}],"stateMutability":"view"},{"type":"event","name":"BalanceReleased","inputs":[{"name":"amount","type":"uint256","indexed":false,"internalType":"uint256"}],"anonymous":false},{"type":"event","name":"BalanceReserved","inputs":[{"name":"amount","type":"uint256","indexed":false,"internalType":"uint256"}],"anonymous":false},{"type":"event","name":"BalancingDeltaUpdated","inputs":[{"name":"previousDelta","type":"uint256","indexed":false,"internalType":"uint256"},{"name":"newDelta","type":"uint256","indexed":false,"internalType":"uint256"}],"anonymous":false},{"type":"event","name":"ConstrainedLiquidityThresholdUpdated","inputs":[{"name":"previousThreshold","type":"uint256","indexed":false,"internalType":"uint256"},{"name":"newThreshold","type":"uint256","indexed":false,"internalType":"uint256"}],"anonymous":false},{"type":"event","name":"CurrentOpenPnlUpdated","inputs":[{"name":"_newPnl","type":"int256","indexed":false,"internalType":"int256"}],"anonymous":false},{"type":"event","name":"EarlyWithdrawFeeUpdated","inputs":[{"name":"previousFee","type":"uint256","indexed":false,"internalType":"uint256"},{"name":"newFee","type":"uint256","indexed":false,"internalType":"uint256"}],"anonymous":false},{"type":"event","name":"GovChanged","inputs":[{"name":"previousGov","type":"address","indexed":true,"internalType":"address"},{"name":"newGov","type":"address","indexed":true,"internalType":"address"}],"anonymous":false},{"type":"event","name":"Initialized","inputs":[{"name":"version","type":"uint8","indexed":false,"internalType":"uint8"}],"anonymous":false},{"type":"event","name":"JuniorTrancheChanged","inputs":[{"name":"previousJunior","type":"address","indexed":true,"internalType":"address"},{"name":"newJunior","type":"address","indexed":true,"internalType":"address"}],"anonymous":false},{"type":"event","name":"KeeperSet","inputs":[{"name":"keeper","type":"address","indexed":false,"internalType":"address"}],"anonymous":false},{"type":"event","name":"NumberUpdated","inputs":[{"name":"name","type":"string","indexed":false,"internalType":"string"},{"name":"value","type":"uint256","indexed":false,"internalType":"uint256"}],"anonymous":false},{"type":"event","name":"PnlRewardsDistributed","inputs":[{"name":"juniorRewards","type":"uint256","indexed":false,"internalType":"uint256"},{"name":"seniorRewards","type":"uint256","indexed":false,"internalType":"uint256"}],"anonymous":false},{"type":"event","name":"ReferralRebateAwarded","inputs":[{"name":"amount","type":"uint256","indexed":false,"internalType":"uint256"}],"anonymous":false},{"type":"event","name":"ReserveRatioUpdated","inputs":[{"name":"previousRatio","type":"uint256","indexed":false,"internalType":"uint256"},{"name":"newRatio","type":"uint256","indexed":false,"internalType":"uint256"}],"anonymous":false},{"type":"event","name":"RewardsAllocated","inputs":[{"name":"amount","type":"uint256","indexed":false,"internalType":"uint256"},{"name":"isPnl","type":"bool","indexed":false,"internalType":"bool"}],"anonymous":false},{"type":"event","name":"RewardsDistributed","inputs":[{"name":"juniorRewards","type":"uint256","indexed":false,"internalType":"uint256"},{"name":"seniorRewards","type":"uint256","indexed":false,"internalType":"uint256"}],"anonymous":false},{"type":"event","name":"SeniorTrancheChanged","inputs":[{"name":"previousSenior","type":"address","indexed":true,"internalType":"address"},{"name":"newSenior","type":"address","indexed":true,"internalType":"address"}],"anonymous":false},{"type":"event","name":"StorageChanged","inputs":[{"name":"previousStorage","type":"address","indexed":true,"internalType":"address"},{"name":"newStorage","type":"address","indexed":true,"internalType":"address"}],"anonymous":false},{"type":"event","name":"TradingContractAdded","inputs":[{"name":"a","type":"address","indexed":false,"internalType":"address"}],"anonymous":false},{"type":"event","name":"TradingContractRemoved","inputs":[{"name":"a","type":"address","indexed":false,"internalType":"address"}],"anonymous":false},{"type":"event","name":"USDCReceivedFromTrader","inputs":[{"name":"trader","type":"address","indexed":true,"internalType":"address"},{"name":"amount","type":"uint256","indexed":false,"internalType":"uint256"}],"anonymous":false},{"type":"event","name":"USDCSentToTrader","inputs":[{"name":"trader","type":"address","indexed":true,"internalType":"address"},{"name":"amount","type":"uint256","indexed":false,"internalType":"uint256"}],"anonymous":false}],"bytecode":{"object":"0x60806040523480156200001157600080fd5b506200001c62000022565b620000e3565b600054610100900460ff16156200008f5760405162461bcd60e51b815260206004820152602760248201527f496e697469616c697a61626c653a20636f6e747261637420697320696e697469604482015266616c697a696e6760c81b606482015260840160405180910390fd5b60005460ff90811614620000e1576000805460ff191660ff9081179091556040519081527f7f26b83ff96e1f2b6a682f133852f6798a09c465da95921460cefb38474024989060200160405180910390a15b565b615a0280620000f36000396000f3fe608060405234801561001057600080fd5b50600436106104325760003560e01c8063748747e611610236578063ab886da71161013b578063d838abc9116100c3578063edf7015c11610087578063edf7015c14610884578063f15086e51461088d578063f486c441146108a0578063f823e2ae146108b3578063f85facea146108c657600080fd5b8063d838abc914610844578063d9fa8f5214610857578063de12a4f61461085f578063e88dc5b714610868578063eab77ac91461087157600080fd5b8063c343b8ea1161010a578063c343b8ea146107f9578063cfad57a21461080c578063d308e10e1461081f578063d465b63f14610828578063d60a09551461083b57600080fd5b8063ab886da7146107c3578063aced1661146107cb578063c1422215146107de578063c22982f4146107e657600080fd5b80639137c1a7116101be578063a24e0d871161018d578063a24e0d871461078d578063a60ff76614610796578063a80a78821461079f578063a86d01d8146107a8578063a9863448146107bb57600080fd5b80639137c1a71461074b5780639231cf741461075e5780639fd751c714610767578063a056d2bb1461077a57600080fd5b80637b78d782116102055780637b78d7821461070c57806382e5d1bc1461071457806383bd82231461072757806389b8af1d146107305780638b4f3b2c1461073857600080fd5b8063748747e6146106ca57806376079be3146106dd57806378258055146106f0578063788fe091146106f957600080fd5b806344ce2c241161033c5780635b898b75116102c45780636a562b22116102935780636a562b22146106565780636d81d981146106695780636ed37d611461069c5780636f4a2cd0146106af57806370d2e5cd146106b757600080fd5b80635b898b751461060a5780635f8ea86c1461061d578063626b52ed1461063057806366ac654d1461064357600080fd5b806350bb25781161030b57806350bb2578146105ab57806351616bab146105be57806351b11036146105d15780635a65ca91146105e45780635b621e32146105f757600080fd5b806344ce2c241461055f57806346daf2d41461057257806346fc3f4e14610585578063485cc9551461059857600080fd5b806316fff074116103bf57806331f758c21161038e57806331f758c21461051f57806333d14c49146105325780633700e9791461053b578063394e5fc2146105435780633eb80b971461055657600080fd5b806316fff074146104de5780631af46728146104f1578063220b7084146105045780632819a6301461050c57600080fd5b80630e15561a116104065780630e15561a146104755780630e6625121461047e578063117506681461048757806312d43a511461049a57806314269687146104cb57600080fd5b8062d5ad0c1461043757806301526a431461044e5780630187aea0146104635780630daa76d41461046c575b600080fd5b6017545b6040519081526020015b60405180910390f35b61046161045c36600461544d565b6108d9565b005b61043b60195481565b61043b60095481565b61043b601c5481565b61043b601b5481565b6104616104953660046152a2565b610985565b6000546104b3906201000090046001600160a01b031681565b6040516001600160a01b039091168152602001610445565b6104616104d936600461544d565b610a37565b6003546104b3906001600160a01b031681565b61043b6104ff36600461544d565b610be5565b61043b610d8f565b61046161051a36600461544d565b611058565b61046161052d36600461544d565b6110f4565b61043b601a5481565b61043b6111b8565b61046161055136600461544d565b61144d565b61043b60205481565b61043b61056d36600461544d565b611511565b61046161058036600461544d565b611528565b61046161059336600461544d565b6115ba565b6104616105a63660046152dc565b611617565b6104616105b93660046152a2565b61188c565b6104616105cc366004615356565b6118f1565b6104616105df3660046152a2565b61192f565b6104616105f2366004615356565b61196b565b6104616106053660046152a2565b611a2a565b61046161061836600461547f565b611abe565b61046161062b366004615382565b611bfe565b61046161063e3660046152a2565b611ce8565b6001546104b3906001600160a01b031681565b610461610664366004615356565b611d9a565b61068c6106773660046152a2565b60216020526000908152604090205460ff1681565b6040519015158152602001610445565b61043b6106aa366004615356565b611e59565b610461611f0b565b6104616106c536600461544d565b612713565b6104616106d83660046152a2565b6127af565b6104616106eb36600461544d565b612853565b61043b60165481565b61043b61070736600461544d565b612b87565b61043b612b97565b61046161072236600461544d565b612c9b565b61043b600a5481565b610461612d7e565b61046161074636600461544d565b612e9f565b6104616107593660046152a2565b612f30565b61043b601f5481565b61046161077536600461544d565b612fe2565b61046161078836600461544d565b61309e565b61043b60185481565b61043b60075481565b61043b60085481565b6104616107b636600461544d565b613280565b61043b613363565b61043b6133cf565b6002546104b3906001600160a01b031681565b61043b61357b565b6104616107f436600461544d565b613678565b61043b610807366004615315565b61370b565b61046161081a3660046152a2565b613f4f565b61043b60065481565b61046161083636600461544d565b614028565b61043b60175481565b61046161085236600461544d565b6140c4565b61043b614156565b61043b60155481565b61043b601e5481565b6004546104b3906001600160a01b031681565b61043b601d5481565b6005546104b3906001600160a01b031681565b6104616108ae3660046153aa565b614487565b6104616108c13660046152a2565b6145a8565b61043b6108d4366004615315565b61463f565b6000546201000090046001600160a01b031633146109125760405162461bcd60e51b815260040161090990615645565b60405180910390fd5b60175481116109335760405162461bcd60e51b8152600401610909906155b1565b601981905560408051818152600e918101919091526d26b0bc1026bab634ba383634b2b960911b6060820152602081018290526000805160206159ad833981519152906080015b60405180910390a150565b6000546201000090046001600160a01b031633146109b55760405162461bcd60e51b815260040161090990615645565b6001600160a01b0381166109db5760405162461bcd60e51b8152600401610909906154f3565b6004546040516001600160a01b038084169216907f059eee6b7fd27644897200a4e7640007fa35a54b1dc7daadfc0fbdac45764c0290600090a3600480546001600160a01b0319166001600160a01b0392909216919091179055565b600360009054906101000a90046001600160a01b03166001600160a01b031662b127836040518163ffffffff1660e01b815260040160206040518083038186803b158015610a8457600080fd5b505afa158015610a98573d6000803e3d6000fd5b505050506040513d601f19601f82011682018060405250810190610abc91906152bf565b6001600160a01b0316336001600160a01b031614610aec5760405162461bcd60e51b81526004016109099061551c565b60006064610af983610be5565b610b039084615875565b610b0d91906156ee565b90506000610b1b82846158d3565b60048054604051631426968760e01b81529293506001600160a01b031691631426968791610b4f9186910190815260200190565b600060405180830381600087803b158015610b6957600080fd5b505af1158015610b7d573d6000803e3d6000fd5b5050600554604051631426968760e01b8152600481018590526001600160a01b039091169250631426968791506024015b600060405180830381600087803b158015610bc857600080fd5b505af1158015610bdc573d6000803e3d6000fd5b50505050505050565b60008115610d64576000610bf7610d8f565b9050610c0281614727565b1580610ca857506004546015546001600160a01b0390911690633dcbdf4090606490610c2e9087615875565b610c3891906156ee565b6040518263ffffffff1660e01b8152600401610c5691815260200190565b60206040518083038186803b158015610c6e57600080fd5b505afa158015610c82573d6000803e3d6000fd5b505050506040513d601f19601f82011682018060405250810190610ca69190615430565b155b80610d5757506005546015546001600160a01b0390911690633dcbdf4090606490610cd39087615875565b610cdd91906156ee565b610ce790866158d3565b6040518263ffffffff1660e01b8152600401610d0591815260200190565b60206040518083038186803b158015610d1d57600080fd5b505afa158015610d31573d6000803e3d6000fd5b505050506040513d601f19601f82011682018060405250810190610d559190615430565b155b15610d625792915050565b505b610d74610d6f614156565b614727565b610d8557610d80614156565b610d89565b6015545b92915050565b60048054604080516338d52e0f60e01b8152905160009384936001600160a01b0316926338d52e0f9281830192602092829003018186803b158015610dd357600080fd5b505afa158015610de7573d6000803e3d6000fd5b505050506040513d601f19601f82011682018060405250810190610e0b91906152bf565b90506000600460009054906101000a90046001600160a01b03166001600160a01b031663c71b0e1c6040518163ffffffff1660e01b815260040160206040518083038186803b158015610e5d57600080fd5b505afa158015610e71573d6000803e3d6000fd5b505050506040513d601f19601f82011682018060405250810190610e959190615466565b600480546040516370a0823160e01b81526001600160a01b03918216928101929092528416906370a082319060240160206040518083038186803b158015610edc57600080fd5b505afa158015610ef0573d6000803e3d6000fd5b505050506040513d601f19601f82011682018060405250810190610f149190615466565b610f1e91906158d3565b90506000600560009054906101000a90046001600160a01b03166001600160a01b031663c71b0e1c6040518163ffffffff1660e01b815260040160206040518083038186803b158015610f7057600080fd5b505afa158015610f84573d6000803e3d6000fd5b505050506040513d601f19601f82011682018060405250810190610fa89190615466565b6005546040516370a0823160e01b81526001600160a01b039182166004820152908516906370a082319060240160206040518083038186803b158015610fed57600080fd5b505afa158015611001573d6000803e3d6000fd5b505050506040513d601f19601f820116820180604052508101906110259190615466565b61102f91906158d3565b905061103b82826156a8565b611046836064615875565b61105091906156ee565b935050505090565b6000546201000090046001600160a01b031633146110885760405162461bcd60e51b815260040161090990615645565b6201518081116110aa5760405162461bcd60e51b8152600401610909906155b1565b601e81905560408051818152600d918101919091526c14995dd85c990814195c9a5bd9609a1b6060820152602081018290526000805160206159ad8339815191529060800161097a565b6000546201000090046001600160a01b031633146111245760405162461bcd60e51b815260040161090990615645565b600081116111655760405162461bcd60e51b815260206004820152600e60248201526d13955350915497d253959053125160921b6044820152606401610909565b601b819055604080518181526016918101919091527526bab634ba383634b2b9102232b737b6b4b730ba37b960511b6060820152602081018290526000805160206159ad8339815191529060800161097a565b60048054604080516338d52e0f60e01b8152905160009384936001600160a01b0316926338d52e0f9281830192602092829003018186803b1580156111fc57600080fd5b505afa158015611210573d6000803e3d6000fd5b505050506040513d601f19601f8201168201806040525081019061123491906152bf565b6005546040516370a0823160e01b81526001600160a01b039182166004820152919250600091908316906370a082319060240160206040518083038186803b15801561127f57600080fd5b505afa158015611293573d6000803e3d6000fd5b505050506040513d601f19601f820116820180604052508101906112b79190615466565b600480546040516370a0823160e01b81526001600160a01b03918216928101929092528416906370a082319060240160206040518083038186803b1580156112fe57600080fd5b505afa158015611312573d6000803e3d6000fd5b505050506040513d601f19601f820116820180604052508101906113369190615466565b61134091906156a8565b6040516370a0823160e01b81523060048201529091506000906001600160a01b038416906370a082319060240160206040518083038186803b15801561138557600080fd5b505afa158015611399573d6000803e3d6000fd5b505050506040513d601f19601f820116820180604052508101906113bd9190615466565b9050816113ce576000935050505090565b6113d88282615667565b60205413156113eb576000935050505090565b6000601c54601d5484846113ff9190615667565b6114099190615894565b6114139190615894565b90508060205484846114259190615667565b61142f9190615894565b61143a9060646157f0565b61144491906156c0565b94505050505090565b6000546201000090046001600160a01b0316331461147d5760405162461bcd60e51b815260040161090990615645565b600081116114be5760405162461bcd60e51b815260206004820152600e60248201526d13955350915497d253959053125160921b6044820152606401610909565b601a8190556040805181815260169181019190915275135d5b1a5d1c1b1a595c8810dbd959999a58da595b9d60521b6060820152602081018290526000805160206159ad8339815191529060800161097a565b600b816005811061152157600080fd5b0154905081565b6000546201000090046001600160a01b031633146115585760405162461bcd60e51b815260040161090990615645565b61271081106115795760405162461bcd60e51b815260040161090990615544565b600a5460408051918252602082018390527fd1105ea957b9c63f08956d553c45ec7294d890bdad026bd1852fe0a9cf346d17910160405180910390a1600a55565b6002546001600160a01b031633146115e45760405162461bcd60e51b81526004016109099061558c565b60208181556040518281527f10d5ee30af9a6a129c91d7f859879c720f2ed35ed6de634c0ff2e9814ca1a983910161097a565b600054610100900460ff16158080156116375750600054600160ff909116105b806116515750303b158015611651575060005460ff166001145b6116b45760405162461bcd60e51b815260206004820152602e60248201527f496e697469616c697a61626c653a20636f6e747261637420697320616c72656160448201526d191e481a5b9a5d1a585b1a5e995960921b6064820152608401610909565b6000805460ff1916600117905580156116d7576000805461ff0019166101001790555b6001600160a01b0382166116fd5760405162461bcd60e51b815260040161090990615566565b6001600160a01b0383166117235760405162461bcd60e51b815260040161090990615566565b600080546001600160a01b0380861662010000810262010000600160b01b0319909316929092178355600280546001600160a01b0319908116909317905560038054918616919092161790556212750060075562ed4e006006556127106008556101f4600955604160155561186a600a908155611a5e60165560646017819055605060185560f06019908155610c1f601a55628eebe4601b5562093a80601e5542601f55601c84905560209384556040805160a08101825293845293830152918101919091526096606082015260fa608082015261180590600b9060056151ee565b506040805160a081018252605a8152605f602082015260649181019190915260696060820152606e60808201526118409060109060056151ee565b508015611887576000805461ff0019169055604051600181527f7f26b83ff96e1f2b6a682f133852f6798a09c465da95921460cefb38474024989060200160405180910390a15b505050565b6000546201000090046001600160a01b031633146118bc5760405162461bcd60e51b815260040161090990615645565b6001600160a01b0381166118cf57600080fd5b600180546001600160a01b0319166001600160a01b0392909216919091179055565b6000546201000090046001600160a01b031633146119215760405162461bcd60e51b815260040161090990615645565b61192b8282614771565b5050565b6000546201000090046001600160a01b0316331461195f5760405162461bcd60e51b815260040161090990615645565b611968816147f8565b50565b600360009054906101000a90046001600160a01b03166001600160a01b031662b127836040518163ffffffff1660e01b815260040160206040518083038186803b1580156119b857600080fd5b505afa1580156119cc573d6000803e3d6000fd5b505050506040513d601f19601f820116820180604052508101906119f091906152bf565b6001600160a01b0316336001600160a01b031614611a205760405162461bcd60e51b81526004016109099061551c565b61192b828261493c565b6000546201000090046001600160a01b03163314611a5a5760405162461bcd60e51b815260040161090990615645565b6001600160a01b038116611a6d57600080fd5b6001600160a01b038116600081815260216020908152604091829020805460ff1916905590519182527ff9cf924d7d98e6e0a27ec523cd7214b0bbdfaba197018b33b41a702f5238190e910161097a565b60008211611ade5760405162461bcd60e51b815260040161090990615617565b3360009081526021602052604090205460ff16611b9257611b92333084600460009054906101000a90046001600160a01b03166001600160a01b03166338d52e0f6040518163ffffffff1660e01b815260040160206040518083038186803b158015611b4957600080fd5b505afa158015611b5d573d6000803e3d6000fd5b505050506040513d601f19601f82011682018060405250810190611b8191906152bf565b6001600160a01b03169291906149ee565b6040805183815282151560208201527fd41c7609f109932ffe273d6dc435904f95abb78623e1ce52cf0344c06acb00e1910160405180910390a180611bec5781601c6000828254611be391906156a8565b90915550505050565b81601d6000828254611be391906156a8565b6000546201000090046001600160a01b03163314611c2e5760405162461bcd60e51b815260040161090990615645565b60005b6005811015611cda57611c46600160056158d3565b8114611cc85781611c588260016156a8565b60058110611c6857611c6861595d565b6020020135828260058110611c7f57611c7f61595d565b602002013510611cc85760405162461bcd60e51b81526020600482015260146024820152732727aa2fa222a9a1a2a72224a723afa7a92222a960611b6044820152606401610909565b80611cd281615916565b915050611c31565b5061192b6010826005615231565b6000546201000090046001600160a01b03163314611d185760405162461bcd60e51b815260040161090990615645565b6001600160a01b038116611d3e5760405162461bcd60e51b8152600401610909906154f3565b6005546040516001600160a01b038084169216907fda2960afee496da1c627c7eb2169a5d26c6cde6c3cb5c568036b08e7ea9217b990600090a3600580546001600160a01b0319166001600160a01b0392909216919091179055565b600360009054906101000a90046001600160a01b03166001600160a01b031662b127836040518163ffffffff1660e01b815260040160206040518083038186803b158015611de757600080fd5b505afa158015611dfb573d6000803e3d6000fd5b505050506040513d601f19601f82011682018060405250810190611e1f91906152bf565b6001600160a01b0316336001600160a01b031614611e4f5760405162461bcd60e51b81526004016109099061551c565b61192b8282614a5f565b600080546201000090046001600160a01b03163314611e8a5760405162461bcd60e51b815260040161090990615645565b611f04836001600160a01b031663e53a788a6040518163ffffffff1660e01b815260040160206040518083038186803b158015611ec657600080fd5b505afa158015611eda573d6000803e3d6000fd5b505050506040513d601f19601f82011682018060405250810190611efe91906152bf565b83614e09565b9392505050565b6002546001600160a01b03163314611f355760405162461bcd60e51b81526004016109099061558c565b6000601c5411611f575760405162461bcd60e51b815260040161090990615617565b6000601f5442611f6791906158d3565b90506000601e5482601c54611f7c9190615875565b611f8691906156ee565b905080601c541015611f975750601c545b6000606480611fa66000610be5565b84611faf61357b565b611fb99190615875565b611fc39190615875565b611fcd91906156ee565b611fd791906156ee565b9050818111611fe65780611fe8565b815b90506000611ff682846158d3565b90506000600460009054906101000a90046001600160a01b03166001600160a01b031663e53a788a6040518163ffffffff1660e01b815260040160206040518083038186803b15801561204857600080fd5b505afa15801561205c573d6000803e3d6000fd5b505050506040513d601f19601f8201168201806040525081019061208091906152bf565b6001600160a01b031663a4ba87e36040518163ffffffff1660e01b8152600401602060405180830381600087803b1580156120ba57600080fd5b505af11580156120ce573d6000803e3d6000fd5b505050506040513d601f19601f820116820180604052508101906120f29190615466565b90506000600560009054906101000a90046001600160a01b03166001600160a01b031663e53a788a6040518163ffffffff1660e01b815260040160206040518083038186803b15801561214457600080fd5b505afa158015612158573d6000803e3d6000fd5b505050506040513d601f19601f8201168201806040525081019061217c91906152bf565b6001600160a01b031663a4ba87e36040518163ffffffff1660e01b8152600401602060405180830381600087803b1580156121b657600080fd5b505af11580156121ca573d6000803e3d6000fd5b505050506040513d601f19601f820116820180604052508101906121ee9190615466565b905042601f8190555084601c600082825461220991906158d3565b909155505060048054604080516318160ddd60e01b8152905160009386936001600160a01b0316926318160ddd9281830192602092829003018186803b15801561225257600080fd5b505afa158015612266573d6000803e3d6000fd5b505050506040513d601f19601f8201168201806040525081019061228a9190615466565b61229491906156a8565b111561247c5760048054604080516318160ddd60e01b8152905160009386936001600160a01b0316926318160ddd9281830192602092829003018186803b1580156122de57600080fd5b505afa1580156122f2573d6000803e3d6000fd5b505050506040513d601f19601f820116820180604052508101906123169190615466565b61232091906156a8565b60048054604080516318160ddd60e01b815290516001600160a01b03909216926318160ddd928282019260209290829003018186803b15801561236257600080fd5b505afa158015612376573d6000803e3d6000fd5b505050506040513d601f19601f8201168201806040525081019061239a9190615466565b6123a49087615875565b6123ae91906156ee565b905060006123bc82876158d3565b905061244d600460009054906101000a90046001600160a01b03166001600160a01b031663e53a788a6040518163ffffffff1660e01b815260040160206040518083038186803b15801561240f57600080fd5b505afa158015612423573d6000803e3d6000fd5b505050506040513d601f19601f8201168201806040525081019061244791906152bf565b82614e09565b50600454612464906001600160a01b031683614771565b600454612479906001600160a01b03166147f8565b50505b600081600560009054906101000a90046001600160a01b03166001600160a01b03166318160ddd6040518163ffffffff1660e01b815260040160206040518083038186803b1580156124cd57600080fd5b505afa1580156124e1573d6000803e3d6000fd5b505050506040513d601f19601f820116820180604052508101906125059190615466565b61250f91906156a8565b11156126d257600081600560009054906101000a90046001600160a01b03166001600160a01b03166318160ddd6040518163ffffffff1660e01b815260040160206040518083038186803b15801561256657600080fd5b505afa15801561257a573d6000803e3d6000fd5b505050506040513d601f19601f8201168201806040525081019061259e9190615466565b6125a891906156a8565b600560009054906101000a90046001600160a01b03166001600160a01b03166318160ddd6040518163ffffffff1660e01b815260040160206040518083038186803b1580156125f657600080fd5b505afa15801561260a573d6000803e3d6000fd5b505050506040513d601f19601f8201168201806040525081019061262e9190615466565b6126389086615875565b61264291906156ee565b9050600061265082866158d3565b90506126a3600560009054906101000a90046001600160a01b03166001600160a01b031663e53a788a6040518163ffffffff1660e01b815260040160206040518083038186803b15801561240f57600080fd5b506005546126ba906001600160a01b031683614771565b6005546126cf906001600160a01b03166147f8565b50505b60408051858152602081018590527f29e98ba00d07f171959c4ddcd2f3020debc7c52cf537a034d7e664340d098c6c910160405180910390a1505050505050565b6000546201000090046001600160a01b031633146127435760405162461bcd60e51b815260040161090990615645565b606381116127635760405162461bcd60e51b8152600401610909906155b1565b601781905560408051818152600f918101919091526e2130b9b29026bab63a34b83634b2b960891b6060820152602081018290526000805160206159ad8339815191529060800161097a565b6000546201000090046001600160a01b031633146127df5760405162461bcd60e51b815260040161090990615645565b6001600160a01b0381166128055760405162461bcd60e51b815260040161090990615566565b600280546001600160a01b0319166001600160a01b0383169081179091556040519081527fdc3dba1d64dd67c0dc8b12621edd0c6ca4303a9073c3a8fcac38115e73d67b6b9060200161097a565b600360009054906101000a90046001600160a01b03166001600160a01b031662b127836040518163ffffffff1660e01b815260040160206040518083038186803b1580156128a057600080fd5b505afa1580156128b4573d6000803e3d6000fd5b505050506040513d601f19601f820116820180604052508101906128d891906152bf565b6001600160a01b0316336001600160a01b0316146129085760405162461bcd60e51b81526004016109099061551c565b600060646402540be40061291a6133cf565b6129249085615875565b61292e91906156ee565b61293891906156ee565b9050600061294682846158d3565b9050600560009054906101000a90046001600160a01b03166001600160a01b031663c71b0e1c6040518163ffffffff1660e01b815260040160206040518083038186803b15801561299657600080fd5b505afa1580156129aa573d6000803e3d6000fd5b505050506040513d601f19601f820116820180604052508101906129ce9190615466565b811115612afa57600560009054906101000a90046001600160a01b03166001600160a01b031663c71b0e1c6040518163ffffffff1660e01b815260040160206040518083038186803b158015612a2357600080fd5b505afa158015612a37573d6000803e3d6000fd5b505050506040513d601f19601f82011682018060405250810190612a5b9190615466565b612a6590826158d3565b612a6f90836156a8565b9150600560009054906101000a90046001600160a01b03166001600160a01b031663c71b0e1c6040518163ffffffff1660e01b815260040160206040518083038186803b158015612abf57600080fd5b505afa158015612ad3573d6000803e3d6000fd5b505050506040513d601f19601f82011682018060405250810190612af79190615466565b90505b600480546040516376079be360e01b81529182018490526001600160a01b0316906376079be390602401600060405180830381600087803b158015612b3e57600080fd5b505af1158015612b52573d6000803e3d6000fd5b50506005546040516376079be360e01b8152600481018590526001600160a01b0390911692506376079be39150602401610bae565b6010816005811061152157600080fd5b600554604080516278744560e21b815290516000926001600160a01b0316916301e1d114916004808301926020929190829003018186803b158015612bdb57600080fd5b505afa158015612bef573d6000803e3d6000fd5b505050506040513d601f19601f82011682018060405250810190612c139190615466565b60048054604080516278744560e21b815290516001600160a01b03909216926301e1d114928282019260209290829003018186803b158015612c5457600080fd5b505afa158015612c68573d6000803e3d6000fd5b505050506040513d601f19601f82011682018060405250810190612c8c9190615466565b612c9691906156a8565b905090565b6000546201000090046001600160a01b03163314612ccb5760405162461bcd60e51b815260040161090990615645565b60008111612d135760405162461bcd60e51b81526020600482015260156024820152744d494e5f4c4f434b5f54494d455f49535f5a45524f60581b6044820152606401610909565b8060065411612d345760405162461bcd60e51b8152600401610909906155d2565b600781905560408051818152600d918101919091526c4d696e204c6f636b2054696d6560981b6060820152602081018290526000805160206159ad8339815191529060800161097a565b6002546001600160a01b03163314612da85760405162461bcd60e51b81526004016109099061558c565b6000601d5411612dca5760405162461bcd60e51b815260040161090990615617565b6000606480612dd96000610be5565b601d54612de461357b565b612dee9190615875565b612df89190615875565b612e0291906156ee565b612e0c91906156ee565b9050601d548111612e1d5780612e21565b601d545b9050600081601d54612e3391906158d3565b600454909150612e4c906001600160a01b031683614771565b600554612e62906001600160a01b031682614771565b60408051838152602081018390527ffb801dc622067fd2d2013dc656fc6c7b8eef72ebc34a3adfa255dacac5613534910160405180910390a15050565b6000546201000090046001600160a01b03163314612ecf5760405162461bcd60e51b815260040161090990615645565b60648110612eef5760405162461bcd60e51b815260040161090990615544565b60155460408051918252602082018390527f5fc202872c5a7cd0b4e57b020c5f9b016b85ab3ca29cfb204fe46a9e3f391a87910160405180910390a1601555565b6000546201000090046001600160a01b03163314612f605760405162461bcd60e51b815260040161090990615645565b6001600160a01b038116612f865760405162461bcd60e51b8152600401610909906154f3565b6003546040516001600160a01b038084169216907f85a70e3ed8a3924b3769cbe4e925987bbd40e8cea31487cbe13bee7b727310a490600090a3600380546001600160a01b0319166001600160a01b0392909216919091179055565b6000546201000090046001600160a01b031633146130125760405162461bcd60e51b815260040161090990615645565b600081116130325760405162461bcd60e51b8152600401610909906155b1565b60175481106130535760405162461bcd60e51b815260040161090990615544565b601881905560408051818152600e918101919091526d26b4b71026bab634ba383634b2b960911b6060820152602081018290526000805160206159ad8339815191529060800161097a565b600360009054906101000a90046001600160a01b03166001600160a01b031662b127836040518163ffffffff1660e01b815260040160206040518083038186803b1580156130eb57600080fd5b505afa1580156130ff573d6000803e3d6000fd5b505050506040513d601f19601f8201168201806040525081019061312391906152bf565b6001600160a01b0316336001600160a01b0316146131535760405162461bcd60e51b81526004016109099061551c565b600081116131735760405162461bcd60e51b815260040161090990615617565b80601c5410156131ba5760405162461bcd60e51b81526020600482015260126024820152711553911154919313d5d7d111551150d5115160721b6044820152606401610909565b60035460048054604080516338d52e0f60e01b81529051613250946001600160a01b03908116948794909116926338d52e0f9281830192602092829003018186803b15801561320857600080fd5b505afa15801561321c573d6000803e3d6000fd5b505050506040513d601f19601f8201168201806040525081019061324091906152bf565b6001600160a01b03169190614f5c565b6040518181527f26fd0feab48f2e3a2b6f85af2854fbbca7596a631e28feaba2284a9540fea7959060200161097a565b6000546201000090046001600160a01b031633146132b05760405162461bcd60e51b815260040161090990615645565b600081116132f85760405162461bcd60e51b81526020600482015260156024820152744d41585f4c4f434b5f54494d455f49535f5a45524f60581b6044820152606401610909565b60075481116133195760405162461bcd60e51b8152600401610909906155d2565b600681905560408051818152600d918101919091526c4d6178204c6f636b2054696d6560981b6060820152602081018290526000805160206159ad8339815191529060800161097a565b60008061336e6111b8565b905060005b60058110156133c6576010816005811061338f5761338f61595d565b01548210156133b457600b81600581106133ab576133ab61595d565b01549250505090565b806133be81615916565b915050613373565b50600091505090565b600554604080516331c6c38760e21b815290516000926001600160a01b03169163c71b0e1c916004808301926020929190829003018186803b15801561341457600080fd5b505afa158015613428573d6000803e3d6000fd5b505050506040513d601f19601f8201168201806040525081019061344c9190615466565b60048054604080516331c6c38760e21b815290516001600160a01b039092169263c71b0e1c928282019260209290829003018186803b15801561348e57600080fd5b505afa1580156134a2573d6000803e3d6000fd5b505050506040513d601f19601f820116820180604052508101906134c69190615466565b6134d091906156a8565b6402540be400600460009054906101000a90046001600160a01b03166001600160a01b031663c71b0e1c6040518163ffffffff1660e01b815260040160206040518083038186803b15801561352457600080fd5b505afa158015613538573d6000803e3d6000fd5b505050506040513d601f19601f8201168201806040525081019061355c9190615466565b613567906064615875565b6135719190615875565b612c9691906156ee565b600080613586614156565b905061359181614727565b1561359e57505060175490565b60155481111561360357600060155460646135b991906158d3565b90506000601554836135cb91906158d3565b905060006018546017546135df91906158d3565b9050826135ec8284615875565b6135f691906156ee565b60175461144491906158d3565b6015546136119060646158d3565b8110156136705760008160155461362891906158d3565b9050601b54601a5460028361363d9190615745565b6136479190615875565b613652906064615875565b61365c91906156ee565b60175461366991906156a8565b9250505090565b505060175490565b6000546201000090046001600160a01b031633146136a85760405162461bcd60e51b815260040161090990615645565b6127108111156136ca5760405162461bcd60e51b815260040161090990615544565b60085460408051918252602082018390527fe1a25dbb089bc408160f1648995aaa9ccf8c6133a6737741323bae20130ff38e910160405180910390a1600855565b60048054604080516338d52e0f60e01b8152905160009384936001600160a01b0316926338d52e0f9281830192602092829003018186803b15801561374f57600080fd5b505afa158015613763573d6000803e3d6000fd5b505050506040513d601f19601f8201168201806040525081019061378791906152bf565b6005546040516370a0823160e01b81526001600160a01b0391821660048201529192508216906370a082319060240160206040518083038186803b1580156137ce57600080fd5b505afa1580156137e2573d6000803e3d6000fd5b505050506040513d601f19601f820116820180604052508101906138069190615466565b15801561388f5750600480546040516370a0823160e01b81526001600160a01b03918216928101929092528216906370a082319060240160206040518083038186803b15801561385557600080fd5b505afa158015613869573d6000803e3d6000fd5b505050506040513d601f19601f8201168201806040525081019061388d9190615466565b155b1561389e575050601554611f04565b6004546001600160a01b0386811691161415613c2a5783613a70576005546040516370a0823160e01b81526001600160a01b03918216600482015284918316906370a082319060240160206040518083038186803b1580156138ff57600080fd5b505afa158015613913573d6000803e3d6000fd5b505050506040513d601f19601f820116820180604052508101906139379190615466565b600480546040516370a0823160e01b81526001600160a01b03918216928101929092528416906370a082319060240160206040518083038186803b15801561397e57600080fd5b505afa158015613992573d6000803e3d6000fd5b505050506040513d601f19601f820116820180604052508101906139b69190615466565b6139c091906156a8565b6139ca91906158d3565b600480546040516370a0823160e01b81526001600160a01b03918216928101929092528591908416906370a082319060240160206040518083038186803b158015613a1457600080fd5b505afa158015613a28573d6000803e3d6000fd5b505050506040513d601f19601f82011682018060405250810190613a4c9190615466565b613a5691906158d3565b613a61906064615875565b613a6b91906156ee565b613c22565b6005546040516370a0823160e01b81526001600160a01b03918216600482015284918316906370a082319060240160206040518083038186803b158015613ab657600080fd5b505afa158015613aca573d6000803e3d6000fd5b505050506040513d601f19601f82011682018060405250810190613aee9190615466565b600480546040516370a0823160e01b81526001600160a01b03918216928101929092528416906370a082319060240160206040518083038186803b158015613b3557600080fd5b505afa158015613b49573d6000803e3d6000fd5b505050506040513d601f19601f82011682018060405250810190613b6d9190615466565b613b7791906156a8565b613b8191906156a8565b600480546040516370a0823160e01b81526001600160a01b03918216928101929092528591908416906370a082319060240160206040518083038186803b158015613bcb57600080fd5b505afa158015613bdf573d6000803e3d6000fd5b505050506040513d601f19601f82011682018060405250810190613c039190615466565b613c0d91906156a8565b613c18906064615875565b613c2291906156ee565b915050611f04565b83613dbf576005546040516370a0823160e01b81526001600160a01b03918216600482015284918316906370a082319060240160206040518083038186803b158015613c7557600080fd5b505afa158015613c89573d6000803e3d6000fd5b505050506040513d601f19601f82011682018060405250810190613cad9190615466565b600480546040516370a0823160e01b81526001600160a01b03918216928101929092528416906370a082319060240160206040518083038186803b158015613cf457600080fd5b505afa158015613d08573d6000803e3d6000fd5b505050506040513d601f19601f82011682018060405250810190613d2c9190615466565b613d3691906156a8565b613d4091906158d3565b600480546040516370a0823160e01b81526001600160a01b03918216928101929092528316906370a082319060240160206040518083038186803b158015613d8757600080fd5b505afa158015613d9b573d6000803e3d6000fd5b505050506040513d601f19601f82011682018060405250810190613a569190615466565b6005546040516370a0823160e01b81526001600160a01b03918216600482015284918316906370a082319060240160206040518083038186803b158015613e0557600080fd5b505afa158015613e19573d6000803e3d6000fd5b505050506040513d601f19601f82011682018060405250810190613e3d9190615466565b600480546040516370a0823160e01b81526001600160a01b03918216928101929092528416906370a082319060240160206040518083038186803b158015613e8457600080fd5b505afa158015613e98573d6000803e3d6000fd5b505050506040513d601f19601f82011682018060405250810190613ebc9190615466565b613ec691906156a8565b613ed091906156a8565b600480546040516370a0823160e01b81526001600160a01b03918216928101929092528316906370a082319060240160206040518083038186803b158015613f1757600080fd5b505afa158015613f2b573d6000803e3d6000fd5b505050506040513d601f19601f82011682018060405250810190613c0d9190615466565b6000546201000090046001600160a01b03163314613f7f5760405162461bcd60e51b815260040161090990615645565b6001600160a01b038116613fa55760405162461bcd60e51b8152600401610909906154f3565b6001546001600160a01b03828116911614613fbf57600080fd5b600080546040516001600160a01b03808516936201000090930416917f3d1e4c3a68fed9f4f8315582b7297cf8fa264bc8e6704287603ba8c72bf05ac291a3600080546001600160a01b03909216620100000262010000600160b01b0319909216919091179055565b6000546201000090046001600160a01b031633146140585760405162461bcd60e51b815260040161090990615645565b61271081111561407a5760405162461bcd60e51b815260040161090990615544565b600981905560408051818152600d918101919091526c42616c616e63696e672046656560981b6060820152602081018290526000805160206159ad8339815191529060800161097a565b6000546201000090046001600160a01b031633146140f45760405162461bcd60e51b815260040161090990615645565b61271081106141155760405162461bcd60e51b815260040161090990615544565b60165460408051918252602082018390527f2ef4086104f98e782128442fe85760869584a0efab1d25b9d6cc96caecbc3156910160405180910390a1601655565b60048054604080516338d52e0f60e01b8152905160009384936001600160a01b0316926338d52e0f9281830192602092829003018186803b15801561419a57600080fd5b505afa1580156141ae573d6000803e3d6000fd5b505050506040513d601f19601f820116820180604052508101906141d291906152bf565b6005546040516370a0823160e01b81526001600160a01b0391821660048201529192508216906370a082319060240160206040518083038186803b15801561421957600080fd5b505afa15801561422d573d6000803e3d6000fd5b505050506040513d601f19601f820116820180604052508101906142519190615466565b1580156142da5750600480546040516370a0823160e01b81526001600160a01b03918216928101929092528216906370a082319060240160206040518083038186803b1580156142a057600080fd5b505afa1580156142b4573d6000803e3d6000fd5b505050506040513d601f19601f820116820180604052508101906142d89190615466565b155b156142e757505060155490565b6005546040516370a0823160e01b81526001600160a01b039182166004820152908216906370a082319060240160206040518083038186803b15801561432c57600080fd5b505afa158015614340573d6000803e3d6000fd5b505050506040513d601f19601f820116820180604052508101906143649190615466565b600480546040516370a0823160e01b81526001600160a01b03918216928101929092528316906370a082319060240160206040518083038186803b1580156143ab57600080fd5b505afa1580156143bf573d6000803e3d6000fd5b505050506040513d601f19601f820116820180604052508101906143e39190615466565b6143ed91906156a8565b600480546040516370a0823160e01b81526001600160a01b03918216928101929092528316906370a082319060240160206040518083038186803b15801561443457600080fd5b505afa158015614448573d6000803e3d6000fd5b505050506040513d601f19601f8201168201806040525081019061446c9190615466565b614477906064615875565b61448191906156ee565b91505090565b6000546201000090046001600160a01b031633146144b75760405162461bcd60e51b815260040161090990615645565b60005b600581101561459a576127108282600581106144d8576144d861595d565b6020020151106144fa5760405162461bcd60e51b815260040161090990615544565b614506600160056158d3565b811461458857816145188260016156a8565b600581106145285761452861595d565b602002015182826005811061453f5761453f61595d565b6020020151106145885760405162461bcd60e51b81526020600482015260146024820152732727aa2fa222a9a1a2a72224a723afa7a92222a960611b6044820152606401610909565b8061459281615916565b9150506144ba565b5061192b600b82600561525f565b6000546201000090046001600160a01b031633146145d85760405162461bcd60e51b815260040161090990615645565b6001600160a01b0381166145eb57600080fd5b6001600160a01b038116600081815260216020908152604091829020805460ff1916600117905590519182527fb692fa98cbec9bd705572b4c7e0927e3f7698e9fe526dcef6f40f3d4d4980ca3910161097a565b6000600a5461464f85858561370b565b61465a906064615875565b11156146a9576004546001600160a01b03858116911614801561467a5750825b8061469b57506005546001600160a01b03858116911614801561469b575082155b156146a95750600954611f04565b600a546146b8906127106158d3565b6146c385858561370b565b6146ce906064615875565b101561471d576005546001600160a01b0385811691161480156146ee5750825b8061470f57506004546001600160a01b03858116911614801561470f575082155b1561471d5750600954611f04565b5060009392505050565b600060165461271061473991906158d3565b614744836064615875565b11801561475c575060165461475a836064615875565b105b1561476957506001919050565b506000919050565b801561192b576004546001600160a01b03838116911614806147a057506005546001600160a01b038381169116145b1561192b5761192b8282600460009054906101000a90046001600160a01b03166001600160a01b03166338d52e0f6040518163ffffffff1660e01b815260040160206040518083038186803b15801561320857600080fd5b604051636c82bbbf60e11b81523060048201526000906001600160a01b0383169063ba08765290829063d905777e9060240160206040518083038186803b15801561484257600080fd5b505afa158015614856573d6000803e3d6000fd5b505050506040513d601f19601f8201168201806040525081019061487a9190615466565b6040516001600160e01b031960e084901b168152600481019190915230602482018190526044820152606401602060405180830381600087803b1580156148c057600080fd5b505af11580156148d4573d6000803e3d6000fd5b505050506040513d601f19601f820116820180604052508101906148f89190615466565b9050801561192b57611887826001600160a01b031663e53a788a6040518163ffffffff1660e01b815260040160206040518083038186803b15801561240f57600080fd5b6003546040516345c19a8d60e11b81526001600160a01b03909116600482018190523060248301526044820183905290638b83351a90606401600060405180830381600087803b15801561498f57600080fd5b505af11580156149a3573d6000803e3d6000fd5b50505050816001600160a01b03167ff4f83b4d9e320351afdd7d2f53dfe45c765853c7e1bf1249ed190d98a8dfc704826040516149e291815260200190565b60405180910390a25050565b6040516001600160a01b0380851660248301528316604482015260648101829052614a599085906323b872dd60e01b906084015b60408051601f198184030181529190526020810180516001600160e01b03166001600160e01b031990931692909217909152614f8c565b50505050565b601c5460035460408051631f209df760e11b81529051600093926001600160a01b031691633e413bee916004808301926020929190829003018186803b158015614aa857600080fd5b505afa158015614abc573d6000803e3d6000fd5b505050506040513d601f19601f82011682018060405250810190614ae091906152bf565b6040516370a0823160e01b81523060048201526001600160a01b0391909116906370a082319060240160206040518083038186803b158015614b2157600080fd5b505afa158015614b35573d6000803e3d6000fd5b505050506040513d601f19601f82011682018060405250810190614b599190615466565b614b639190615894565b905080821315614cae576000614b798284615894565b90506000606480614b8a6000610be5565b614b959060646158d3565b84614b9f60175490565b614ba99190615875565b614bb39190615875565b614bbd91906156ee565b614bc791906156ee565b9050818111614bd65780614bd8565b815b90506000614be682846158d3565b6004805460405163296d7fdf60e21b81529293506001600160a01b03169163a5b5ff7c91614c1a9185910190815260200190565b600060405180830381600087803b158015614c3457600080fd5b505af1158015614c48573d6000803e3d6000fd5b505060055460405163296d7fdf60e21b8152600481018690526001600160a01b03909116925063a5b5ff7c9150602401600060405180830381600087803b158015614c9257600080fd5b505af1158015614ca6573d6000803e3d6000fd5b505050505050505b600360009054906101000a90046001600160a01b03166001600160a01b0316633e413bee6040518163ffffffff1660e01b815260040160206040518083038186803b158015614cfc57600080fd5b505afa158015614d10573d6000803e3d6000fd5b505050506040513d601f19601f82011682018060405250810190614d3491906152bf565b60405163a9059cbb60e01b81526001600160a01b03858116600483015260248201859052919091169063a9059cbb90604401602060405180830381600087803b158015614d8057600080fd5b505af1158015614d94573d6000803e3d6000fd5b505050506040513d601f19601f82011682018060405250810190614db89190615430565b614dc157600080fd5b826001600160a01b03167ff4449ba8b37f9e9cd2b1c19a98b2aef746c2779aa98f83d836d65c11743aaecb83604051614dfc91815260200190565b60405180910390a2505050565b600080836001600160a01b031663a4ba87e36040518163ffffffff1660e01b8152600401602060405180830381600087803b158015614e4757600080fd5b505af1158015614e5b573d6000803e3d6000fd5b505050506040513d601f19601f82011682018060405250810190614e7f9190615466565b90508015611f0457614eda8484600460009054906101000a90046001600160a01b03166001600160a01b03166338d52e0f6040518163ffffffff1660e01b815260040160206040518083038186803b15801561320857600080fd5b604051630b32e9c760e31b8152600481018490526001600160a01b038516906359974e3890602401602060405180830381600087803b158015614f1c57600080fd5b505af1158015614f30573d6000803e3d6000fd5b505050506040513d601f19601f82011682018060405250810190614f549190615466565b509392505050565b6040516001600160a01b03831660248201526044810182905261188790849063a9059cbb60e01b90606401614a22565b6000614fe1826040518060400160405280602081526020017f5361666545524332303a206c6f772d6c6576656c2063616c6c206661696c6564815250856001600160a01b03166150619092919063ffffffff16565b90508051600014806150025750808060200190518101906150029190615430565b6118875760405162461bcd60e51b815260206004820152602a60248201527f5361666545524332303a204552433230206f7065726174696f6e20646964206e6044820152691bdd081cdd58d8d9595960b21b6064820152608401610909565b60606150708484600085615078565b949350505050565b6060824710156150d95760405162461bcd60e51b815260206004820152602660248201527f416464726573733a20696e73756666696369656e742062616c616e636520666f6044820152651c8818d85b1b60d21b6064820152608401610909565b600080866001600160a01b031685876040516150f591906154a4565b60006040518083038185875af1925050503d8060008114615132576040519150601f19603f3d011682016040523d82523d6000602084013e615137565b606091505b509150915061514887838387615153565b979650505050505050565b606083156151bf5782516151b8576001600160a01b0385163b6151b85760405162461bcd60e51b815260206004820152601d60248201527f416464726573733a2063616c6c20746f206e6f6e2d636f6e74726163740000006044820152606401610909565b5081615070565b61507083838151156151d45781518083602001fd5b8060405162461bcd60e51b815260040161090991906154c0565b8260058101928215615221579160200282015b82811115615221578251829060ff16905591602001919060010190615201565b5061522d92915061528d565b5090565b8260058101928215615221579160200282015b82811115615221578235825591602001919060010190615244565b8260058101928215615221579160200282015b82811115615221578251825591602001919060010190615272565b5b8082111561522d576000815560010161528e565b6000602082840312156152b457600080fd5b8135611f0481615989565b6000602082840312156152d157600080fd5b8151611f0481615989565b600080604083850312156152ef57600080fd5b82356152fa81615989565b9150602083013561530a81615989565b809150509250929050565b60008060006060848603121561532a57600080fd5b833561533581615989565b925060208401356153458161599e565b929592945050506040919091013590565b6000806040838503121561536957600080fd5b823561537481615989565b946020939093013593505050565b600060a0828403121561539457600080fd5b8260a0830111156153a457600080fd5b50919050565b600060a082840312156153bc57600080fd5b82601f8301126153cb57600080fd5b60405160a0810181811067ffffffffffffffff821117156153ee576153ee615973565b604052808360a0810186101561540357600080fd5b60005b6005811015615425578135835260209283019290910190600101615406565b509195945050505050565b60006020828403121561544257600080fd5b8151611f048161599e565b60006020828403121561545f57600080fd5b5035919050565b60006020828403121561547857600080fd5b5051919050565b6000806040838503121561549257600080fd5b82359150602083013561530a8161599e565b600082516154b68184602087016158ea565b9190910192915050565b60208152600082518060208401526154df8160408501602087016158ea565b601f01601f19169190910160400192915050565b6020808252600f908201526e494e56414c49445f4144445245535360881b604082015260600190565b6020808252600e908201526d43414c4c4241434b535f4f4e4c5960901b604082015260600190565b6020808252600890820152670a89e9ebe90928e960c31b604082015260600190565b6020808252600c908201526b5a45524f5f4144445245535360a01b604082015260600190565b6020808252600b908201526a4b45455045525f4f4e4c5960a81b604082015260600190565b602080825260079082015266544f4f5f4c4f5760c81b604082015260600190565b60208082526025908201527f4d41585f4c4f434b5f54494d455f4c4553535f5448414e5f4d494e5f4c4f434b6040820152645f54494d4560d81b606082015260800190565b6020808252601490820152731393d7d49155d0549114d7d0531313d0d055115160621b604082015260600190565b602080825260089082015267474f565f4f4e4c5960c01b604082015260600190565b600080821280156001600160ff1b038490038513161561568957615689615931565b600160ff1b83900384128116156156a2576156a2615931565b50500190565b600082198211156156bb576156bb615931565b500190565b6000826156cf576156cf615947565b600160ff1b8214600019841416156156e9576156e9615931565b500590565b6000826156fd576156fd615947565b500490565b600181815b8085111561573d57816000190482111561572357615723615931565b8085161561573057918102915b93841c9390800290615707565b509250929050565b6000611f0460ff84168360008261575e57506001610d89565b8161576b57506000610d89565b8160018114615781576002811461578b576157a7565b6001915050610d89565b60ff84111561579c5761579c615931565b50506001821b610d89565b5060208310610133831016604e8410600b84101617156157ca575081810a610d89565b6157d48383615702565b80600019048211156157e8576157e8615931565b029392505050565b60006001600160ff1b038184138284138082168684048611161561581657615816615931565b600160ff1b600087128281168783058912161561583557615835615931565b6000871292508782058712848416161561585157615851615931565b8785058712818416161561586757615867615931565b505050929093029392505050565b600081600019048311821515161561588f5761588f615931565b500290565b60008083128015600160ff1b8501841216156158b2576158b2615931565b6001600160ff1b03840183138116156158cd576158cd615931565b50500390565b6000828210156158e5576158e5615931565b500390565b60005b838110156159055781810151838201526020016158ed565b83811115614a595750506000910152565b600060001982141561592a5761592a615931565b5060010190565b634e487b7160e01b600052601160045260246000fd5b634e487b7160e01b600052601260045260246000fd5b634e487b7160e01b600052603260045260246000fd5b634e487b7160e01b600052604160045260246000fd5b6001600160a01b038116811461196857600080fd5b801515811461196857600080fdfe8cf3e35f6221b16e1670a3413180c9484bf5aa71787905909fa82a6a2662e9aba26469706673582212202b602615df0d4212102b5b0033f6a2aabb8dcea200de0859c145ca2eb0fd705864736f6c63430008070033","linkReferences":{}},"methodIdentifiers":{"addTradingContract(address)":"f823e2ae","allocateRewards(uint256,bool)":"5b898b75","balancingDeltaThreshold()":"83bd8223","balancingFee()":"0daa76d4","baseMultiplier()":"d60a0955","bufferThresholds(uint256)":"788fe091","collateralFees(uint256)":"44ce2c24","constrainedLiquidityThreshold()":"78258055","currentBalanceUSDC()":"7b78d782","currentOpenPnl()":"3eb80b97","distributeCollectedFeeShares(address)":"51b11036","distributePnlRewards()":"89b8af1d","distributeRewards()":"6f4a2cd0","distributeTrancheRewards(address,uint256)":"51616bab","distributeVeRewards(address,uint256)":"6ed37d61","earlyWithdrawFee()":"a80a7882","getBalancingFee(address,bool,uint256)":"f85facea","getBufferRatio()":"3700e979","getCollateralFee()":"a9863448","getCurrentTrancheRatio()":"d9fa8f52","getDynamicReserveRatio(address,bool,uint256)":"c343b8ea","getProfitMultiplier()":"c1422215","getReleaseRatio()":"ab886da7","getReserveRatio(uint256)":"1af46728","getSeniorLossMultiplier()":"00d5ad0c","getUnreservedTrancheRatio()":"220b7084","gov()":"12d43a51","initialize(address,address)":"485cc955","isTradingContract(address)":"6d81d981","junior()":"eab77ac9","keeper()":"aced1661","lastRewardTime()":"9231cf74","maxLockTime()":"d308e10e","maxMultiplier()":"0187aea0","minLockTime()":"a60ff766","minMultiplier()":"a24e0d87","multiplierCoeff()":"33d14c49","multiplierDenom()":"0e662512","pnlRewards()":"edf7015c","receiveUSDCFromTrader(address,uint256)":"5a65ca91","releaseBalance(uint256)":"76079be3","removeTradingContract(address)":"5b621e32","requestGov(address)":"50bb2578","requestedGov()":"66ac654d","reserveBalance(uint256)":"14269687","rewardPeriod()":"e88dc5b7","sendReferrerRebateToStorage(uint256)":"a056d2bb","sendUSDCToTrader(address,uint256)":"6a562b22","senior()":"f15086e5","setBalancingDeltaThreshold(uint256)":"46daf2d4","setBalancingFee(uint256)":"d465b63f","setBaseMultiplier(uint256)":"70d2e5cd","setBufferThresholds(uint256[5])":"5f8ea86c","setCollateralFees(uint256[5])":"f486c441","setConstrainedLiquidityThreshold(uint256)":"d838abc9","setCurrentOpenPnl(int256)":"46fc3f4e","setEarlyWithdrawFee(uint256)":"c22982f4","setGov(address)":"cfad57a2","setJuniorTranche(address)":"11750668","setKeeper(address)":"748747e6","setMaxLockTime(uint256)":"a86d01d8","setMaxMultiplier(uint256)":"01526a43","setMinLockTime(uint256)":"82e5d1bc","setMinMultiplier(uint256)":"9fd751c7","setMultiplierCoeff(uint256)":"394e5fc2","setMultiplierDenom(uint256)":"31f758c2","setReserveRatio(uint256)":"8b4f3b2c","setRewardPeriod(uint256)":"2819a630","setSeniorTranche(address)":"626b52ed","setStorage(address)":"9137c1a7","storageT()":"16fff074","targetReserveRatio()":"de12a4f6","totalRewards()":"0e15561a"},"id":112}