{"abi":[{"type":"function","name":"ARB_USD_CHAINLINK_FEED_BASE_GOERLI","inputs":[],"outputs":[{"name":"","type":"address","internalType":"address"}],"stateMutability":"view"},{"type":"function","name":"ARB_USD_CHAINLINK_FEED_BASE_MAINNET","inputs":[],"outputs":[{"name":"","type":"address","internalType":"address"}],"stateMutability":"view"},{"type":"function","name":"ARB_USD_CHAINLINK_FEED_BASE_SEPOLIA","inputs":[],"outputs":[{"name":"","type":"address","internalType":"address"}],"stateMutability":"view"},{"type":"function","name":"AUD_USD_CHAINLINK_FEED_BASE_GOERLI","inputs":[],"outputs":[{"name":"","type":"address","internalType":"address"}],"stateMutability":"view"},{"type":"function","name":"AUD_USD_CHAINLINK_FEED_BASE_MAINNET","inputs":[],"outputs":[{"name":"","type":"address","internalType":"address"}],"stateMutability":"view"},{"type":"function","name":"AUD_USD_CHAINLINK_FEED_BASE_SEPOLIA","inputs":[],"outputs":[{"name":"","type":"address","internalType":"address"}],"stateMutability":"view"},{"type":"function","name":"AVAX_USD_CHAINLINK_FEED_BASE_GOERLI","inputs":[],"outputs":[{"name":"","type":"address","internalType":"address"}],"stateMutability":"view"},{"type":"function","name":"AVAX_USD_CHAINLINK_FEED_BASE_MAINNET","inputs":[],"outputs":[{"name":"","type":"address","internalType":"address"}],"stateMutability":"view"},{"type":"function","name":"AVAX_USD_CHAINLINK_FEED_BASE_SEPOLIA","inputs":[],"outputs":[{"name":"","type":"address","internalType":"address"}],"stateMutability":"view"},{"type":"function","name":"BASE_MAINNET_DEV_TREASURY","inputs":[],"outputs":[{"name":"","type":"address","internalType":"address"}],"stateMutability":"view"},{"type":"function","name":"BASE_MAINNET_GOV_TREASURY","inputs":[],"outputs":[{"name":"","type":"address","internalType":"address"}],"stateMutability":"view"},{"type":"function","name":"BASE_MAINNET_MARKET_OPERATOR_1","inputs":[],"outputs":[{"name":"","type":"address","internalType":"address"}],"stateMutability":"view"},{"type":"function","name":"BASE_MAINNET_MARKET_OPERATOR_2","inputs":[],"outputs":[{"name":"","type":"address","internalType":"address"}],"stateMutability":"view"},{"type":"function","name":"BASE_MAINNET_MARKET_OPERATOR_3","inputs":[],"outputs":[{"name":"","type":"address","internalType":"address"}],"stateMutability":"view"},{"type":"function","name":"BASE_MAINNET_MARKET_OPERATOR_4","inputs":[],"outputs":[{"name":"","type":"address","internalType":"address"}],"stateMutability":"view"},{"type":"function","name":"BASE_MAINNET_MARKET_OPERATOR_5","inputs":[],"outputs":[{"name":"","type":"address","internalType":"address"}],"stateMutability":"view"},{"type":"function","name":"BASE_MAINNET_MARKET_OPERATOR_6","inputs":[],"outputs":[{"name":"","type":"address","internalType":"address"}],"stateMutability":"view"},{"type":"function","name":"BASE_MAINNET_MARKET_OPERATOR_FEE_RECIEVER","inputs":[],"outputs":[{"name":"","type":"address","internalType":"address"}],"stateMutability":"view"},{"type":"function","name":"BASE_MAINNET_PAIR_INFOS_KEEPER","inputs":[],"outputs":[{"name":"","type":"address","internalType":"address"}],"stateMutability":"view"},{"type":"function","name":"BASE_MAINNET_VAULT_KEEPER","inputs":[],"outputs":[{"name":"","type":"address","internalType":"address"}],"stateMutability":"view"},{"type":"function","name":"BASE_SEPOLIA_DEV_TREASURY","inputs":[],"outputs":[{"name":"","type":"address","internalType":"address"}],"stateMutability":"view"},{"type":"function","name":"BASE_SEPOLIA_GOV_TREASURY","inputs":[],"outputs":[{"name":"","type":"address","internalType":"address"}],"stateMutability":"view"},{"type":"function","name":"BASE_SEPOLIA_MARKET_OPERATOR_1","inputs":[],"outputs":[{"name":"","type":"address","internalType":"address"}],"stateMutability":"view"},{"type":"function","name":"BASE_SEPOLIA_MARKET_OPERATOR_2","inputs":[],"outputs":[{"name":"","type":"address","internalType":"address"}],"stateMutability":"view"},{"type":"function","name":"BASE_SEPOLIA_MARKET_OPERATOR_3","inputs":[],"outputs":[{"name":"","type":"address","internalType":"address"}],"stateMutability":"view"},{"type":"function","name":"BASE_SEPOLIA_MARKET_OPERATOR_4","inputs":[],"outputs":[{"name":"","type":"address","internalType":"address"}],"stateMutability":"view"},{"type":"function","name":"BASE_SEPOLIA_MARKET_OPERATOR_5","inputs":[],"outputs":[{"name":"","type":"address","internalType":"address"}],"stateMutability":"view"},{"type":"function","name":"BASE_SEPOLIA_MARKET_OPERATOR_6","inputs":[],"outputs":[{"name":"","type":"address","internalType":"address"}],"stateMutability":"view"},{"type":"function","name":"BASE_SEPOLIA_MARKET_OPERATOR_FEE_RECIEVER","inputs":[],"outputs":[{"name":"","type":"address","internalType":"address"}],"stateMutability":"view"},{"type":"function","name":"BNB_USD_CHAINLINK_FEED_BASE_GOERLI","inputs":[],"outputs":[{"name":"","type":"address","internalType":"address"}],"stateMutability":"view"},{"type":"function","name":"BNB_USD_CHAINLINK_FEED_BASE_MAINNET","inputs":[],"outputs":[{"name":"","type":"address","internalType":"address"}],"stateMutability":"view"},{"type":"function","name":"BNB_USD_CHAINLINK_FEED_BASE_SEPOLIA","inputs":[],"outputs":[{"name":"","type":"address","internalType":"address"}],"stateMutability":"view"},{"type":"function","name":"BTC_USD_CHAINLINK_FEED_BASE_GOERLI","inputs":[],"outputs":[{"name":"","type":"address","internalType":"address"}],"stateMutability":"view"},{"type":"function","name":"BTC_USD_CHAINLINK_FEED_BASE_MAINNET","inputs":[],"outputs":[{"name":"","type":"address","internalType":"address"}],"stateMutability":"view"},{"type":"function","name":"BTC_USD_CHAINLINK_FEED_BASE_SEPOLIA","inputs":[],"outputs":[{"name":"","type":"address","internalType":"address"}],"stateMutability":"view"},{"type":"function","name":"CAD_USD_CHAINLINK_FEED_BASE_GOERLI","inputs":[],"outputs":[{"name":"","type":"address","internalType":"address"}],"stateMutability":"view"},{"type":"function","name":"CAD_USD_CHAINLINK_FEED_BASE_MAINNET","inputs":[],"outputs":[{"name":"","type":"address","internalType":"address"}],"stateMutability":"view"},{"type":"function","name":"CAD_USD_CHAINLINK_FEED_BASE_SEPOLIA","inputs":[],"outputs":[{"name":"","type":"address","internalType":"address"}],"stateMutability":"view"},{"type":"function","name":"CHF_USD_CHAINLINK_FEED_BASE_GOERLI","inputs":[],"outputs":[{"name":"","type":"address","internalType":"address"}],"stateMutability":"view"},{"type":"function","name":"CHF_USD_CHAINLINK_FEED_BASE_MAINNET","inputs":[],"outputs":[{"name":"","type":"address","internalType":"address"}],"stateMutability":"view"},{"type":"function","name":"CHF_USD_CHAINLINK_FEED_BASE_SEPOLIA","inputs":[],"outputs":[{"name":"","type":"address","internalType":"address"}],"stateMutability":"view"},{"type":"function","name":"DOGE_USD_CHAINLINK_FEED_BASE_GOERLI","inputs":[],"outputs":[{"name":"","type":"address","internalType":"address"}],"stateMutability":"view"},{"type":"function","name":"DOGE_USD_CHAINLINK_FEED_BASE_MAINNET","inputs":[],"outputs":[{"name":"","type":"address","internalType":"address"}],"stateMutability":"view"},{"type":"function","name":"DOGE_USD_CHAINLINK_FEED_BASE_SEPOLIA","inputs":[],"outputs":[{"name":"","type":"address","internalType":"address"}],"stateMutability":"view"},{"type":"function","name":"ETH_USD_CHAINLINK_FEED_BASE_GOERLI","inputs":[],"outputs":[{"name":"","type":"address","internalType":"address"}],"stateMutability":"view"},{"type":"function","name":"ETH_USD_CHAINLINK_FEED_BASE_MAINNET","inputs":[],"outputs":[{"name":"","type":"address","internalType":"address"}],"stateMutability":"view"},{"type":"function","name":"ETH_USD_CHAINLINK_FEED_BASE_SEPOLIA","inputs":[],"outputs":[{"name":"","type":"address","internalType":"address"}],"stateMutability":"view"},{"type":"function","name":"EUR_USD_CHAINLINK_FEED_BASE_GOERLI","inputs":[],"outputs":[{"name":"","type":"address","internalType":"address"}],"stateMutability":"view"},{"type":"function","name":"EUR_USD_CHAINLINK_FEED_BASE_MAINNET","inputs":[],"outputs":[{"name":"","type":"address","internalType":"address"}],"stateMutability":"view"},{"type":"function","name":"EUR_USD_CHAINLINK_FEED_BASE_SEPOLIA","inputs":[],"outputs":[{"name":"","type":"address","internalType":"address"}],"stateMutability":"view"},{"type":"function","name":"GBP_USD_CHAINLINK_FEED_BASE_GOERLI","inputs":[],"outputs":[{"name":"","type":"address","internalType":"address"}],"stateMutability":"view"},{"type":"function","name":"GBP_USD_CHAINLINK_FEED_BASE_MAINNET","inputs":[],"outputs":[{"name":"","type":"address","internalType":"address"}],"stateMutability":"view"},{"type":"function","name":"GBP_USD_CHAINLINK_FEED_BASE_SEPOLIA","inputs":[],"outputs":[{"name":"","type":"address","internalType":"address"}],"stateMutability":"view"},{"type":"function","name":"JPY_USD_CHAINLINK_FEED_BASE_GOERLI","inputs":[],"outputs":[{"name":"","type":"address","internalType":"address"}],"stateMutability":"view"},{"type":"function","name":"JPY_USD_CHAINLINK_FEED_BASE_MAINNET","inputs":[],"outputs":[{"name":"","type":"address","internalType":"address"}],"stateMutability":"view"},{"type":"function","name":"JPY_USD_CHAINLINK_FEED_BASE_SEPOLIA","inputs":[],"outputs":[{"name":"","type":"address","internalType":"address"}],"stateMutability":"view"},{"type":"function","name":"MATIC_USD_CHAINLINK_FEED_BASE_GOERLI","inputs":[],"outputs":[{"name":"","type":"address","internalType":"address"}],"stateMutability":"view"},{"type":"function","name":"MATIC_USD_CHAINLINK_FEED_BASE_MAINNET","inputs":[],"outputs":[{"name":"","type":"address","internalType":"address"}],"stateMutability":"view"},{"type":"function","name":"MATIC_USD_CHAINLINK_FEED_BASE_SEPOLIA","inputs":[],"outputs":[{"name":"","type":"address","internalType":"address"}],"stateMutability":"view"},{"type":"function","name":"NZD_USD_CHAINLINK_FEED_BASE_GOERLI","inputs":[],"outputs":[{"name":"","type":"address","internalType":"address"}],"stateMutability":"view"},{"type":"function","name":"NZD_USD_CHAINLINK_FEED_BASE_MAINNET","inputs":[],"outputs":[{"name":"","type":"address","internalType":"address"}],"stateMutability":"view"},{"type":"function","name":"NZD_USD_CHAINLINK_FEED_BASE_SEPOLIA","inputs":[],"outputs":[{"name":"","type":"address","internalType":"address"}],"stateMutability":"view"},{"type":"function","name":"OP_USD_CHAINLINK_FEED_BASE_GOERLI","inputs":[],"outputs":[{"name":"","type":"address","internalType":"address"}],"stateMutability":"view"},{"type":"function","name":"OP_USD_CHAINLINK_FEED_BASE_MAINNET","inputs":[],"outputs":[{"name":"","type":"address","internalType":"address"}],"stateMutability":"view"},{"type":"function","name":"OP_USD_CHAINLINK_FEED_BASE_SEPOLIA","inputs":[],"outputs":[{"name":"","type":"address","internalType":"address"}],"stateMutability":"view"},{"type":"function","name":"PYTH_ARB_USD_FEED_BASE_GOERLI","inputs":[],"outputs":[{"name":"","type":"bytes32","internalType":"bytes32"}],"stateMutability":"view"},{"type":"function","name":"PYTH_ARB_USD_FEED_BASE_MAINNET","inputs":[],"outputs":[{"name":"","type":"bytes32","internalType":"bytes32"}],"stateMutability":"view"},{"type":"function","name":"PYTH_ARB_USD_FEED_BASE_SEPOLIA","inputs":[],"outputs":[{"name":"","type":"bytes32","internalType":"bytes32"}],"stateMutability":"view"},{"type":"function","name":"PYTH_AUD_USD_FEED_BASE_GOERLI","inputs":[],"outputs":[{"name":"","type":"bytes32","internalType":"bytes32"}],"stateMutability":"view"},{"type":"function","name":"PYTH_AUD_USD_FEED_BASE_MAINNET","inputs":[],"outputs":[{"name":"","type":"bytes32","internalType":"bytes32"}],"stateMutability":"view"},{"type":"function","name":"PYTH_AUD_USD_FEED_BASE_SEPOLIA","inputs":[],"outputs":[{"name":"","type":"bytes32","internalType":"bytes32"}],"stateMutability":"view"},{"type":"function","name":"PYTH_AVAX_USD_FEED_BASE_GOERLI","inputs":[],"outputs":[{"name":"","type":"bytes32","internalType":"bytes32"}],"stateMutability":"view"},{"type":"function","name":"PYTH_AVAX_USD_FEED_BASE_MAINNET","inputs":[],"outputs":[{"name":"","type":"bytes32","internalType":"bytes32"}],"stateMutability":"view"},{"type":"function","name":"PYTH_AVAX_USD_FEED_BASE_SEPOLIA","inputs":[],"outputs":[{"name":"","type":"bytes32","internalType":"bytes32"}],"stateMutability":"view"},{"type":"function","name":"PYTH_BASE_GOERLI","inputs":[],"outputs":[{"name":"","type":"address","internalType":"address"}],"stateMutability":"view"},{"type":"function","name":"PYTH_BASE_MAINNET","inputs":[],"outputs":[{"name":"","type":"address","internalType":"address"}],"stateMutability":"view"},{"type":"function","name":"PYTH_BASE_SEPOLIA","inputs":[],"outputs":[{"name":"","type":"address","internalType":"address"}],"stateMutability":"view"},{"type":"function","name":"PYTH_BNB_USD_FEED_BASE_GOERLI","inputs":[],"outputs":[{"name":"","type":"bytes32","internalType":"bytes32"}],"stateMutability":"view"},{"type":"function","name":"PYTH_BNB_USD_FEED_BASE_MAINNET","inputs":[],"outputs":[{"name":"","type":"bytes32","internalType":"bytes32"}],"stateMutability":"view"},{"type":"function","name":"PYTH_BNB_USD_FEED_BASE_SEPOLIA","inputs":[],"outputs":[{"name":"","type":"bytes32","internalType":"bytes32"}],"stateMutability":"view"},{"type":"function","name":"PYTH_BTC_USD_FEED_BASE_GOERLI","inputs":[],"outputs":[{"name":"","type":"bytes32","internalType":"bytes32"}],"stateMutability":"view"},{"type":"function","name":"PYTH_BTC_USD_FEED_BASE_MAINNET","inputs":[],"outputs":[{"name":"","type":"bytes32","internalType":"bytes32"}],"stateMutability":"view"},{"type":"function","name":"PYTH_BTC_USD_FEED_BASE_SEPOLIA","inputs":[],"outputs":[{"name":"","type":"bytes32","internalType":"bytes32"}],"stateMutability":"view"},{"type":"function","name":"PYTH_CAD_USD_FEED_BASE_GOERLI","inputs":[],"outputs":[{"name":"","type":"bytes32","internalType":"bytes32"}],"stateMutability":"view"},{"type":"function","name":"PYTH_CAD_USD_FEED_BASE_MAINNET","inputs":[],"outputs":[{"name":"","type":"bytes32","internalType":"bytes32"}],"stateMutability":"view"},{"type":"function","name":"PYTH_CAD_USD_FEED_BASE_SEPOLIA","inputs":[],"outputs":[{"name":"","type":"bytes32","internalType":"bytes32"}],"stateMutability":"view"},{"type":"function","name":"PYTH_CHF_USD_FEED_BASE_GOERLI","inputs":[],"outputs":[{"name":"","type":"bytes32","internalType":"bytes32"}],"stateMutability":"view"},{"type":"function","name":"PYTH_CHF_USD_FEED_BASE_MAINNET","inputs":[],"outputs":[{"name":"","type":"bytes32","internalType":"bytes32"}],"stateMutability":"view"},{"type":"function","name":"PYTH_CHF_USD_FEED_BASE_SEPOLIA","inputs":[],"outputs":[{"name":"","type":"bytes32","internalType":"bytes32"}],"stateMutability":"view"},{"type":"function","name":"PYTH_DOGE_USD_FEED_BASE_GOERLI","inputs":[],"outputs":[{"name":"","type":"bytes32","internalType":"bytes32"}],"stateMutability":"view"},{"type":"function","name":"PYTH_DOGE_USD_FEED_BASE_MAINNET","inputs":[],"outputs":[{"name":"","type":"bytes32","internalType":"bytes32"}],"stateMutability":"view"},{"type":"function","name":"PYTH_DOGE_USD_FEED_BASE_SEPOLIA","inputs":[],"outputs":[{"name":"","type":"bytes32","internalType":"bytes32"}],"stateMutability":"view"},{"type":"function","name":"PYTH_ETH_USD_FEED_BASE_GOERLI","inputs":[],"outputs":[{"name":"","type":"bytes32","internalType":"bytes32"}],"stateMutability":"view"},{"type":"function","name":"PYTH_ETH_USD_FEED_BASE_MAINNET","inputs":[],"outputs":[{"name":"","type":"bytes32","internalType":"bytes32"}],"stateMutability":"view"},{"type":"function","name":"PYTH_ETH_USD_FEED_BASE_SEPOLIA","inputs":[],"outputs":[{"name":"","type":"bytes32","internalType":"bytes32"}],"stateMutability":"view"},{"type":"function","name":"PYTH_EUR_USD_FEED_BASE_GOERLI","inputs":[],"outputs":[{"name":"","type":"bytes32","internalType":"bytes32"}],"stateMutability":"view"},{"type":"function","name":"PYTH_EUR_USD_FEED_BASE_MAINNET","inputs":[],"outputs":[{"name":"","type":"bytes32","internalType":"bytes32"}],"stateMutability":"view"},{"type":"function","name":"PYTH_EUR_USD_FEED_BASE_SEPOLIA","inputs":[],"outputs":[{"name":"","type":"bytes32","internalType":"bytes32"}],"stateMutability":"view"},{"type":"function","name":"PYTH_GBP_USD_FEED_BASE_GOERLI","inputs":[],"outputs":[{"name":"","type":"bytes32","internalType":"bytes32"}],"stateMutability":"view"},{"type":"function","name":"PYTH_GBP_USD_FEED_BASE_MAINNET","inputs":[],"outputs":[{"name":"","type":"bytes32","internalType":"bytes32"}],"stateMutability":"view"},{"type":"function","name":"PYTH_GBP_USD_FEED_BASE_SEPOLIA","inputs":[],"outputs":[{"name":"","type":"bytes32","internalType":"bytes32"}],"stateMutability":"view"},{"type":"function","name":"PYTH_JPY_USD_FEED_BASE_GOERLI","inputs":[],"outputs":[{"name":"","type":"bytes32","internalType":"bytes32"}],"stateMutability":"view"},{"type":"function","name":"PYTH_JPY_USD_FEED_BASE_MAINNET","inputs":[],"outputs":[{"name":"","type":"bytes32","internalType":"bytes32"}],"stateMutability":"view"},{"type":"function","name":"PYTH_JPY_USD_FEED_BASE_SEPOLIA","inputs":[],"outputs":[{"name":"","type":"bytes32","internalType":"bytes32"}],"stateMutability":"view"},{"type":"function","name":"PYTH_MATIC_USD_FEED_BASE_GOERLI","inputs":[],"outputs":[{"name":"","type":"bytes32","internalType":"bytes32"}],"stateMutability":"view"},{"type":"function","name":"PYTH_MATIC_USD_FEED_BASE_MAINNET","inputs":[],"outputs":[{"name":"","type":"bytes32","internalType":"bytes32"}],"stateMutability":"view"},{"type":"function","name":"PYTH_MATIC_USD_FEED_BASE_SEPOLIA","inputs":[],"outputs":[{"name":"","type":"bytes32","internalType":"bytes32"}],"stateMutability":"view"},{"type":"function","name":"PYTH_NZD_USD_FEED_BASE_GOERLI","inputs":[],"outputs":[{"name":"","type":"bytes32","internalType":"bytes32"}],"stateMutability":"view"},{"type":"function","name":"PYTH_NZD_USD_FEED_BASE_MAINNET","inputs":[],"outputs":[{"name":"","type":"bytes32","internalType":"bytes32"}],"stateMutability":"view"},{"type":"function","name":"PYTH_NZD_USD_FEED_BASE_SEPOLIA","inputs":[],"outputs":[{"name":"","type":"bytes32","internalType":"bytes32"}],"stateMutability":"view"},{"type":"function","name":"PYTH_OP_USD_FEED_BASE_GOERLI","inputs":[],"outputs":[{"name":"","type":"bytes32","internalType":"bytes32"}],"stateMutability":"view"},{"type":"function","name":"PYTH_OP_USD_FEED_BASE_MAINNET","inputs":[],"outputs":[{"name":"","type":"bytes32","internalType":"bytes32"}],"stateMutability":"view"},{"type":"function","name":"PYTH_OP_USD_FEED_BASE_SEPOLIA","inputs":[],"outputs":[{"name":"","type":"bytes32","internalType":"bytes32"}],"stateMutability":"view"},{"type":"function","name":"PYTH_SEI_USD_FEED_BASE_GOERLI","inputs":[],"outputs":[{"name":"","type":"bytes32","internalType":"bytes32"}],"stateMutability":"view"},{"type":"function","name":"PYTH_SEI_USD_FEED_BASE_MAINNET","inputs":[],"outputs":[{"name":"","type":"bytes32","internalType":"bytes32"}],"stateMutability":"view"},{"type":"function","name":"PYTH_SEI_USD_FEED_BASE_SEPOLIA","inputs":[],"outputs":[{"name":"","type":"bytes32","internalType":"bytes32"}],"stateMutability":"view"},{"type":"function","name":"PYTH_SEK_USD_FEED_BASE_GOERLI","inputs":[],"outputs":[{"name":"","type":"bytes32","internalType":"bytes32"}],"stateMutability":"view"},{"type":"function","name":"PYTH_SEK_USD_FEED_BASE_MAINNET","inputs":[],"outputs":[{"name":"","type":"bytes32","internalType":"bytes32"}],"stateMutability":"view"},{"type":"function","name":"PYTH_SEK_USD_FEED_BASE_SEPOLIA","inputs":[],"outputs":[{"name":"","type":"bytes32","internalType":"bytes32"}],"stateMutability":"view"},{"type":"function","name":"PYTH_SGD_USD_FEED_BASE_GOERLI","inputs":[],"outputs":[{"name":"","type":"bytes32","internalType":"bytes32"}],"stateMutability":"view"},{"type":"function","name":"PYTH_SGD_USD_FEED_BASE_MAINNET","inputs":[],"outputs":[{"name":"","type":"bytes32","internalType":"bytes32"}],"stateMutability":"view"},{"type":"function","name":"PYTH_SGD_USD_FEED_BASE_SEPOLIA","inputs":[],"outputs":[{"name":"","type":"bytes32","internalType":"bytes32"}],"stateMutability":"view"},{"type":"function","name":"PYTH_SOL_USD_FEED_BASE_GOERLI","inputs":[],"outputs":[{"name":"","type":"bytes32","internalType":"bytes32"}],"stateMutability":"view"},{"type":"function","name":"PYTH_SOL_USD_FEED_BASE_MAINNET","inputs":[],"outputs":[{"name":"","type":"bytes32","internalType":"bytes32"}],"stateMutability":"view"},{"type":"function","name":"PYTH_SOL_USD_FEED_BASE_SEPOLIA","inputs":[],"outputs":[{"name":"","type":"bytes32","internalType":"bytes32"}],"stateMutability":"view"},{"type":"function","name":"PYTH_TIA_USD_FEED_BASE_GOERLI","inputs":[],"outputs":[{"name":"","type":"bytes32","internalType":"bytes32"}],"stateMutability":"view"},{"type":"function","name":"PYTH_TIA_USD_FEED_BASE_MAINNET","inputs":[],"outputs":[{"name":"","type":"bytes32","internalType":"bytes32"}],"stateMutability":"view"},{"type":"function","name":"PYTH_TIA_USD_FEED_BASE_SEPOLIA","inputs":[],"outputs":[{"name":"","type":"bytes32","internalType":"bytes32"}],"stateMutability":"view"},{"type":"function","name":"PYTH_XAG_USD_FEED_BASE_GOERLI","inputs":[],"outputs":[{"name":"","type":"bytes32","internalType":"bytes32"}],"stateMutability":"view"},{"type":"function","name":"PYTH_XAG_USD_FEED_BASE_MAINNET","inputs":[],"outputs":[{"name":"","type":"bytes32","internalType":"bytes32"}],"stateMutability":"view"},{"type":"function","name":"PYTH_XAG_USD_FEED_BASE_SEPOLIA","inputs":[],"outputs":[{"name":"","type":"bytes32","internalType":"bytes32"}],"stateMutability":"view"},{"type":"function","name":"PYTH_XAU_USD_FEED_BASE_GOERLI","inputs":[],"outputs":[{"name":"","type":"bytes32","internalType":"bytes32"}],"stateMutability":"view"},{"type":"function","name":"PYTH_XAU_USD_FEED_BASE_MAINNET","inputs":[],"outputs":[{"name":"","type":"bytes32","internalType":"bytes32"}],"stateMutability":"view"},{"type":"function","name":"PYTH_XAU_USD_FEED_BASE_SEPOLIA","inputs":[],"outputs":[{"name":"","type":"bytes32","internalType":"bytes32"}],"stateMutability":"view"},{"type":"function","name":"SEI_USD_CHAINLINK_FEED_BASE_GOERLI","inputs":[],"outputs":[{"name":"","type":"address","internalType":"address"}],"stateMutability":"view"},{"type":"function","name":"SEI_USD_CHAINLINK_FEED_BASE_MAINNET","inputs":[],"outputs":[{"name":"","type":"address","internalType":"address"}],"stateMutability":"view"},{"type":"function","name":"SEI_USD_CHAINLINK_FEED_BASE_SEPOLIA","inputs":[],"outputs":[{"name":"","type":"address","internalType":"address"}],"stateMutability":"view"},{"type":"function","name":"SEK_USD_CHAINLINK_FEED_BASE_GOERLI","inputs":[],"outputs":[{"name":"","type":"address","internalType":"address"}],"stateMutability":"view"},{"type":"function","name":"SEK_USD_CHAINLINK_FEED_BASE_MAINNET","inputs":[],"outputs":[{"name":"","type":"address","internalType":"address"}],"stateMutability":"view"},{"type":"function","name":"SEK_USD_CHAINLINK_FEED_BASE_SEPOLIA","inputs":[],"outputs":[{"name":"","type":"address","internalType":"address"}],"stateMutability":"view"},{"type":"function","name":"SGD_USD_CHAINLINK_FEED_BASE_GOERLI","inputs":[],"outputs":[{"name":"","type":"address","internalType":"address"}],"stateMutability":"view"},{"type":"function","name":"SGD_USD_CHAINLINK_FEED_BASE_MAINNET","inputs":[],"outputs":[{"name":"","type":"address","internalType":"address"}],"stateMutability":"view"},{"type":"function","name":"SGD_USD_CHAINLINK_FEED_BASE_SEPOLIA","inputs":[],"outputs":[{"name":"","type":"address","internalType":"address"}],"stateMutability":"view"},{"type":"function","name":"SOL_USD_CHAINLINK_FEED_BASE_GOERLI","inputs":[],"outputs":[{"name":"","type":"address","internalType":"address"}],"stateMutability":"view"},{"type":"function","name":"SOL_USD_CHAINLINK_FEED_BASE_MAINNET","inputs":[],"outputs":[{"name":"","type":"address","internalType":"address"}],"stateMutability":"view"},{"type":"function","name":"SOL_USD_CHAINLINK_FEED_BASE_SEPOLIA","inputs":[],"outputs":[{"name":"","type":"address","internalType":"address"}],"stateMutability":"view"},{"type":"function","name":"TIA_USD_CHAINLINK_FEED_BASE_GOERLI","inputs":[],"outputs":[{"name":"","type":"address","internalType":"address"}],"stateMutability":"view"},{"type":"function","name":"TIA_USD_CHAINLINK_FEED_BASE_MAINNET","inputs":[],"outputs":[{"name":"","type":"address","internalType":"address"}],"stateMutability":"view"},{"type":"function","name":"TIA_USD_CHAINLINK_FEED_BASE_SEPOLIA","inputs":[],"outputs":[{"name":"","type":"address","internalType":"address"}],"stateMutability":"view"},{"type":"function","name":"XAG_USD_CHAINLINK_FEED_BASE_GOERLI","inputs":[],"outputs":[{"name":"","type":"address","internalType":"address"}],"stateMutability":"view"},{"type":"function","name":"XAG_USD_CHAINLINK_FEED_BASE_MAINNET","inputs":[],"outputs":[{"name":"","type":"address","internalType":"address"}],"stateMutability":"view"},{"type":"function","name":"XAG_USD_CHAINLINK_FEED_BASE_SEPOLIA","inputs":[],"outputs":[{"name":"","type":"address","internalType":"address"}],"stateMutability":"view"},{"type":"function","name":"XAU_USD_CHAINLINK_FEED_BASE_GOERLI","inputs":[],"outputs":[{"name":"","type":"address","internalType":"address"}],"stateMutability":"view"},{"type":"function","name":"XAU_USD_CHAINLINK_FEED_BASE_MAINNET","inputs":[],"outputs":[{"name":"","type":"address","internalType":"address"}],"stateMutability":"view"},{"type":"function","name":"XAU_USD_CHAINLINK_FEED_BASE_SEPOLIA","inputs":[],"outputs":[{"name":"","type":"address","internalType":"address"}],"stateMutability":"view"}],"bytecode":{"object":"0x61109061003a600b82828239805160001a60731461002d57634e487b7160e01b600052600060045260246000fd5b30600052607381538281f3fe73000000000000000000000000000000000000000030146080604052600436106108c35760003560e01c80638781835011610483578063c7c1971711610261578063df9945881161015b578063f843e31d116100d8578063fc607b181161009c578063fc607b1814610b2f578063fe50115c14611024578063fe77dfbf1461103f578063feb0214b14610f76578063ff2e09001461090857600080fd5b8063f843e31d14610908578063f8ef970914610fd3578063fb7a2bdc14610fee578063fb7c303e14611009578063fbb8e936146108c857600080fd5b8063eb7c9ea61161011f578063eb7c9ea6146109d9578063ec452efe14610dcf578063ed3e52b614610d8d578063f40a5a5f14610f76578063f53d8f06146108c857600080fd5b8063df994588146108c8578063e47f5e38146108c8578063e50364c914610b98578063ea38367a14610f9d578063eb64fe9114610fb857600080fd5b8063cf41dda5116101e9578063d6374450116101ad578063d6374450146108c8578063d75b830a14610c01578063d957938214610b2f578063db807401146108c8578063ddd58755146108c857600080fd5b8063cf41dda5146108c8578063d07bf0e314610dcf578063d0a2d639146108c8578063d0b8c46c14610f76578063d225173c14610b0857600080fd5b8063cb9ea5bd11610230578063cb9ea5bd14610f5b578063cd9d91a314610efe578063ce69c4d7146108c8578063ce90df24146108c8578063cf14a9cc14610e8657600080fd5b8063c7c19717146108c8578063c88a2af614610efe578063c91ce1bc14610f25578063ca5a7bb814610f4057600080fd5b8063a34bf8a51161037d578063b1eb9daf116102fa578063b8399b14116102be578063b8399b14146108c8578063bd7c851514610a00578063c04a4030146108c8578063c29c7e7c146108c8578063c55b53c0146108c857600080fd5b8063b1eb9daf146108c8578063b212821814610a4e578063b4479dd814610b71578063b4d59134146108c8578063b8044ce7146108c857600080fd5b8063a92303af11610341578063a92303af146109d9578063ae4c4be6146108c8578063ae5f0388146108c8578063af435e4414610ee3578063af98f5bb146108c857600080fd5b8063a34bf8a514610e86578063a4f1ba2414610ead578063a5d20a4414610e86578063a7a2743914610ec8578063a80b50d8146108c857600080fd5b8063964e12b01161040b5780639f48c0c4116103cf5780639f48c0c4146109b2578063a11f886214610e38578063a1a9eadd14610c4f578063a1f3cb6a146108c8578063a2bb68521461093d57600080fd5b8063964e12b014610e5f57806398e7df31146108c85780639ac5dd0914610c015780639bc4ab0e146108c85780639f42e1b114610d1557600080fd5b80639298989c116104525780639298989c1461096457806393c0f62214610a2757806394c587bf14610e38578063953624f3146108c857806395c69842146108c857600080fd5b80638781835014610bbf578063895136ca146108c85780638a26790814610b085780638e6d618f14610ac657600080fd5b80633d70847d116106b05780635fabf952116105aa5780637321f82e116105275780637d7d233c116104eb5780637d7d233c14610dcf5780637dbfed4a14610c4f57806383db385c14610a2757806385cdb89a14610df65780638630da5214610e1157600080fd5b80637321f82e146108c8578063776be29914610b98578063785b37d814610d8d5780637b77102b14610db45780637b782208146108c857600080fd5b8063695bc8941161056e578063695bc894146108c85780636c0ea3ab146108c85780636d71244914610d3c5780636f9559d114610d5757806370bca5fa14610d7257600080fd5b80635fabf95214610cc457806360caa950146109b257806365eea96814610cdf57806367203ece14610cfa5780636860596a14610d1557600080fd5b8063528fda29116106385780635bcfe3a0116105fc5780635bcfe3a014610c765780635bd2e230146108c85780635c48648a146108c85780635dd649d6146108c85780635eacb52214610c9d57600080fd5b8063528fda2914610be6578063530311f514610c0157806355f1163114610c285780635666cc2814610c4f57806358b61a0f146108c857600080fd5b806346008a101161067f57806346008a10146108c85780634bd22894146108c85780634c7b9b3a146108c8578063515d681614610b9857806351f5984b14610bbf57600080fd5b80633d70847d146108c857806340f51add146108c8578063438140a314610a4e5780634438a41214610b7157600080fd5b8063209ab0b2116107c15780632c7a9bee1161074957806334bfb71a1161070d57806334bfb71a14610b2f5780633754140a146108c8578063387718cf14610ac657806339d1b79914610b565780633d112b59146108c857600080fd5b80632c7a9bee14610aed5780632fd59058146108c8578063300dcb06146109645780633177694e14610a4e57806332e75d7314610b0857600080fd5b80632473b93e116107905780632473b93e146108c8578063250e1f1f146108c857806325a2ee6c14610aab5780632929870414610ac65780632bb09f19146108c857600080fd5b8063209ab0b214610a695780632260cdc4146108c857806322851025146108c8578063233b0a9d14610a9057600080fd5b80630e75f55e1161084f5780631396a81f116108135780631396a81f14610a27578063168a76c1146108c85780631816468f146108c8578063181ed16d14610a4e5780631f19bbbb146108c857600080fd5b80630e75f55e146109645780630eb8e4761461098b5780630f6a4b45146109b25780630fcde412146109d95780631073f47714610a0057600080fd5b8063031ba9b411610896578063031ba9b4146108c857806304e5bd1d146108c85780630769bc321461093d5780630827a081146108c85780630e44cfd21461093d57600080fd5b806301590665146108c857806301d21ffc146108c85780630285f9e9146108ed57806302b2059714610908575b600080fd5b6108d0600081565b6040516001600160a01b0390911681526020015b60405180910390f35b6108d073975043adbb80fc32276cbf9bbcfd4a601a12462d81565b61092f7f5de33a9112c2b700b8d30b8a3402c103578ccfa2765696471cc672bd5cf6ac5281565b6040519081526020016108e4565b61092f7f53614f1cb0c031d4af66c04cb9c756234adad0e1cee85303795091499a4084eb81565b61092f7f92eea8ba1b00078cdc2ef6f64f091f262e8c7d0576ee4677572f314ebfafa4c781565b61092f7f20a938f54b68f1f2ef18ea0328f6dd0747f8ea11486d22b021e83a900be8977681565b61092f7f0b1e3297e69f162877b577b0d6a47a0d63b2392bc8499e6540da4187a63e28f881565b61092f7f2f95862b045670cd22bee3114c39763a4a08beeb663b145d283c31d7d1101c4f81565b61092f7fe62df6c8b4a85fe1a67db44dc12de5db330f7ac66b72dc658afedf0f4a415b4381565b61092f7f385f64d993f7b77d8182ed5003d97c60aa3361f3cecfe711544d2d59165e9bdf81565b6108d0739176e536f21474502b00e30a5dd24461f7ee6de181565b61092f7fbcbdc2755bd74a2065f9d3283c2b8acbd898e473bdb90a6764b3dbd467c56ecd81565b6108d073c505d4da24179770515edd83ddbb8abf3da8892381565b6108d07371041dddad3595f9ced3dccfbe3d1f4b0a16bb7081565b61092f7f3fa4252848f9f0a1480be62745a4629d9eb1322aebab8a791e344b3b9c1adcf581565b6108d073ccadc697c55bbb68dc5bcdf8d3cbe83cdd4e071e81565b61092f7fef0d8b6fda2ceba41da15d4095d1da392a0d2f8ed0c6c7bc0f4cfac8c280b56d81565b61092f7f09f7c1d7dfbb7df2b8fe3d3d87ee94a2259d212da4f30c1f0540d066dfa4472381565b6108d073dacf6f424e6feab7ec556fb5d8bb28242840ec6581565b61092f7fef2c98c804ba503c6a707e38be4dfbb16683775f195b091252bf24693042fd5281565b61092f7f67a6f93030420c1c9e3fe37c1ab6b77966af82f995944a9fefce357a22854a8081565b61092f7f765d2ba906dbc32ca17cc11f5310a89e9ee1f6420508c63861f2f8ba4ee34bb281565b6108d07305e88146caa54c09ee22d0844780dcee441eaa3881565b61092f7f93da3352f9f1d105fdfe4971cfa80e9dd777bfc5d0f683ebb6e1294b92137bb781565b61092f7fc1b12769f6633798d45adfd62bfc70114839232e2949b01fb3d3f927d260615481565b61092f7f8ccb376aa871517e807358d4e3cf0bc7fe4950474dbe6c9ffc21ef64e43fc67681565b61092f7ff9c0172ba10dfa4d19088d94f5bf61d3b54d5bd7483a322a982e1373ee8ea31b81565b61092f7fca80ba6dc32e08d06f1aa886011eed1d77c77be9eb761cc10d72b7d0a2fd57a681565b6108d073e051fb953ec622dd5a910eac87bbe7b9ced6a83b81565b6108d07385075e2bd393dc32a8cf70d4b32b3aa926a0ffa481565b6108d0734758844c73eda5e44abedf75ae3d2b1ab2db6a8b81565b61092f7fa995d00bb36a63cef7fd2c287dc105fc8f3d93779f062f09551b0af3e81ec30b81565b6108d07363e499f6a1fe978b3e31f9e75d52814ace9a38dd81565b6108d0732045fcb8adb688bb72bb2b31d5eb93c9f032aea181565b6108d073a2aa501b19aff244d90cc15a4cf739d2725b572981565b61092f7f84c2dde9633d93d1bcad84e7dc41c9d56578b7ec52fabedc1f335d673df0a7c181565b6108d073484afea81922aaab0e7d7d9db3b9fd83ed1c72c181565b61092f7f3112b03a41c910ed446852aacf67118cb1bec67b2cd0b9a214c58cc0eaa2ecca81565b6108d07330c5dd3e5e6a6c02a1bccd4a0cb52958522445d581565b61092f7f321ba4d608fa75ba76d6d73daa715abcbdeb9dba02257f05a1b59178b49f599b81565b61092f7fff61491a931112ddf1bd8147cd1b641375f79f5825126d665480874634fd0ace81565b61092f7f30a19158f5a54c0adf8fb7560627343f22a1bc852b89d56be1accdc5dbf96d0e81565b61092f7f396a969a9c1480fa15ed50bc59149e2c0075a72fe8f458ed941ddec48bdb491881565b6108d073619aeaaf08df3645e138c611bddcae465312ef6b81565b6108d073dffd332e0664e3397cadebcebe89901622162c3b81565b6108d073106e9637678fc9d7c673ca25df61b92b6c4d88ad81565b61092f7ff2fb02c32b055c805e7238d628e5e9dadef274376114eb1f012337cabe93871e81565b6108d073cd2a119bd1f7df95d706de6f2057fdd45a0503e281565b6108d073462d2aa3538c235e586853d21faffe04e034412081565b6108d0733e3a6bd129a63564fe7abde85fa67c395056906081565b61092f7fdcef50dd0a4cd2dcc17e45df1676dcb336a11a61c69df7a0299b0150c672d25c81565b6108d0735955c1478f0dad753c7e2b4dd1b4bc530c64749f81565b6108d0738250f4af4b972684f7b336503e2d6dfedeb1487a81565b6108d07350eca3db4deedce395f6ca0d463ee4d4971a60ba81565b6108d073cffc2c7c0151140b7446ab1804350f39dadf4d6981565b6108d073fbeb6cdd4e06d142cbbc448ef2684e98833241ab81565b6108d07385a6554b36770f6a710b25cb7d6c251f47974ac181565b6108d073ac15714c08986dacc0379193e22382736796496f8156fea26469706673582212204d2bd29c32ba866280660e37ce14d2747448f2401be7962d3bca1c402a9135f764736f6c63430008070033","linkReferences":{}},"methodIdentifiers":{"ARB_USD_CHAINLINK_FEED_BASE_GOERLI()":"7321f82e","ARB_USD_CHAINLINK_FEED_BASE_MAINNET()":"b4d59134","ARB_USD_CHAINLINK_FEED_BASE_SEPOLIA()":"7b782208","AUD_USD_CHAINLINK_FEED_BASE_GOERLI()":"98e7df31","AUD_USD_CHAINLINK_FEED_BASE_MAINNET()":"1f19bbbb","AUD_USD_CHAINLINK_FEED_BASE_SEPOLIA()":"c7c19717","AVAX_USD_CHAINLINK_FEED_BASE_GOERLI()":"250e1f1f","AVAX_USD_CHAINLINK_FEED_BASE_MAINNET()":"04e5bd1d","AVAX_USD_CHAINLINK_FEED_BASE_SEPOLIA()":"031ba9b4","BASE_MAINNET_DEV_TREASURY()":"438140a3","BASE_MAINNET_GOV_TREASURY()":"3177694e","BASE_MAINNET_MARKET_OPERATOR_1()":"39d1b799","BASE_MAINNET_MARKET_OPERATOR_2()":"85cdb89a","BASE_MAINNET_MARKET_OPERATOR_3()":"528fda29","BASE_MAINNET_MARKET_OPERATOR_4()":"a7a27439","BASE_MAINNET_MARKET_OPERATOR_5()":"233b0a9d","BASE_MAINNET_MARKET_OPERATOR_6()":"67203ece","BASE_MAINNET_MARKET_OPERATOR_FEE_RECIEVER()":"181ed16d","BASE_MAINNET_PAIR_INFOS_KEEPER()":"af435e44","BASE_MAINNET_VAULT_KEEPER()":"fb7c303e","BASE_SEPOLIA_DEV_TREASURY()":"b2128218","BASE_SEPOLIA_GOV_TREASURY()":"fe50115c","BASE_SEPOLIA_MARKET_OPERATOR_1()":"7b77102b","BASE_SEPOLIA_MARKET_OPERATOR_2()":"6d712449","BASE_SEPOLIA_MARKET_OPERATOR_3()":"5fabf952","BASE_SEPOLIA_MARKET_OPERATOR_4()":"fb7a2bdc","BASE_SEPOLIA_MARKET_OPERATOR_5()":"65eea968","BASE_SEPOLIA_MARKET_OPERATOR_6()":"6f9559d1","BASE_SEPOLIA_MARKET_OPERATOR_FEE_RECIEVER()":"ca5a7bb8","BNB_USD_CHAINLINK_FEED_BASE_GOERLI()":"01590665","BNB_USD_CHAINLINK_FEED_BASE_MAINNET()":"a1f3cb6a","BNB_USD_CHAINLINK_FEED_BASE_SEPOLIA()":"4c7b9b3a","BTC_USD_CHAINLINK_FEED_BASE_GOERLI()":"fe77dfbf","BTC_USD_CHAINLINK_FEED_BASE_MAINNET()":"2c7a9bee","BTC_USD_CHAINLINK_FEED_BASE_SEPOLIA()":"db807401","CAD_USD_CHAINLINK_FEED_BASE_GOERLI()":"2bb09f19","CAD_USD_CHAINLINK_FEED_BASE_MAINNET()":"01d21ffc","CAD_USD_CHAINLINK_FEED_BASE_SEPOLIA()":"f53d8f06","CHF_USD_CHAINLINK_FEED_BASE_GOERLI()":"5c48648a","CHF_USD_CHAINLINK_FEED_BASE_MAINNET()":"2473b93e","CHF_USD_CHAINLINK_FEED_BASE_SEPOLIA()":"c29c7e7c","DOGE_USD_CHAINLINK_FEED_BASE_GOERLI()":"fbb8e936","DOGE_USD_CHAINLINK_FEED_BASE_MAINNET()":"9bc4ab0e","DOGE_USD_CHAINLINK_FEED_BASE_SEPOLIA()":"3d70847d","ETH_USD_CHAINLINK_FEED_BASE_GOERLI()":"c91ce1bc","ETH_USD_CHAINLINK_FEED_BASE_MAINNET()":"25a2ee6c","ETH_USD_CHAINLINK_FEED_BASE_SEPOLIA()":"ae5f0388","EUR_USD_CHAINLINK_FEED_BASE_GOERLI()":"a4f1ba24","EUR_USD_CHAINLINK_FEED_BASE_MAINNET()":"3d112b59","EUR_USD_CHAINLINK_FEED_BASE_SEPOLIA()":"695bc894","GBP_USD_CHAINLINK_FEED_BASE_GOERLI()":"f8ef9709","GBP_USD_CHAINLINK_FEED_BASE_MAINNET()":"e47f5e38","GBP_USD_CHAINLINK_FEED_BASE_SEPOLIA()":"cf41dda5","JPY_USD_CHAINLINK_FEED_BASE_GOERLI()":"2fd59058","JPY_USD_CHAINLINK_FEED_BASE_MAINNET()":"2260cdc4","JPY_USD_CHAINLINK_FEED_BASE_SEPOLIA()":"46008a10","MATIC_USD_CHAINLINK_FEED_BASE_GOERLI()":"a80b50d8","MATIC_USD_CHAINLINK_FEED_BASE_MAINNET()":"40f51add","MATIC_USD_CHAINLINK_FEED_BASE_SEPOLIA()":"b8044ce7","NZD_USD_CHAINLINK_FEED_BASE_GOERLI()":"c04a4030","NZD_USD_CHAINLINK_FEED_BASE_MAINNET()":"df994588","NZD_USD_CHAINLINK_FEED_BASE_SEPOLIA()":"d0a2d639","OP_USD_CHAINLINK_FEED_BASE_GOERLI()":"d6374450","OP_USD_CHAINLINK_FEED_BASE_MAINNET()":"cb9ea5bd","OP_USD_CHAINLINK_FEED_BASE_SEPOLIA()":"22851025","PYTH_ARB_USD_FEED_BASE_GOERLI()":"8e6d618f","PYTH_ARB_USD_FEED_BASE_MAINNET()":"387718cf","PYTH_ARB_USD_FEED_BASE_SEPOLIA()":"29298704","PYTH_AUD_USD_FEED_BASE_GOERLI()":"776be299","PYTH_AUD_USD_FEED_BASE_MAINNET()":"515d6816","PYTH_AUD_USD_FEED_BASE_SEPOLIA()":"e50364c9","PYTH_AVAX_USD_FEED_BASE_GOERLI()":"530311f5","PYTH_AVAX_USD_FEED_BASE_MAINNET()":"9ac5dd09","PYTH_AVAX_USD_FEED_BASE_SEPOLIA()":"d75b830a","PYTH_BASE_GOERLI()":"ea38367a","PYTH_BASE_MAINNET()":"eb64fe91","PYTH_BASE_SEPOLIA()":"70bca5fa","PYTH_BNB_USD_FEED_BASE_GOERLI()":"0fcde412","PYTH_BNB_USD_FEED_BASE_MAINNET()":"eb7c9ea6","PYTH_BNB_USD_FEED_BASE_SEPOLIA()":"a92303af","PYTH_BTC_USD_FEED_BASE_GOERLI()":"5bcfe3a0","PYTH_BTC_USD_FEED_BASE_MAINNET()":"bd7c8515","PYTH_BTC_USD_FEED_BASE_SEPOLIA()":"1073f477","PYTH_CAD_USD_FEED_BASE_GOERLI()":"ec452efe","PYTH_CAD_USD_FEED_BASE_MAINNET()":"d07bf0e3","PYTH_CAD_USD_FEED_BASE_SEPOLIA()":"7d7d233c","PYTH_CHF_USD_FEED_BASE_GOERLI()":"60caa950","PYTH_CHF_USD_FEED_BASE_MAINNET()":"9f48c0c4","PYTH_CHF_USD_FEED_BASE_SEPOLIA()":"0f6a4b45","PYTH_DOGE_USD_FEED_BASE_GOERLI()":"f40a5a5f","PYTH_DOGE_USD_FEED_BASE_MAINNET()":"d0b8c46c","PYTH_DOGE_USD_FEED_BASE_SEPOLIA()":"feb0214b","PYTH_ETH_USD_FEED_BASE_GOERLI()":"5eacb522","PYTH_ETH_USD_FEED_BASE_MAINNET()":"a11f8862","PYTH_ETH_USD_FEED_BASE_SEPOLIA()":"94c587bf","PYTH_EUR_USD_FEED_BASE_GOERLI()":"55f11631","PYTH_EUR_USD_FEED_BASE_MAINNET()":"6860596a","PYTH_EUR_USD_FEED_BASE_SEPOLIA()":"9f42e1b1","PYTH_GBP_USD_FEED_BASE_GOERLI()":"209ab0b2","PYTH_GBP_USD_FEED_BASE_MAINNET()":"ed3e52b6","PYTH_GBP_USD_FEED_BASE_SEPOLIA()":"785b37d8","PYTH_JPY_USD_FEED_BASE_GOERLI()":"0eb8e476","PYTH_JPY_USD_FEED_BASE_MAINNET()":"b4479dd8","PYTH_JPY_USD_FEED_BASE_SEPOLIA()":"4438a412","PYTH_MATIC_USD_FEED_BASE_GOERLI()":"f843e31d","PYTH_MATIC_USD_FEED_BASE_MAINNET()":"ff2e0900","PYTH_MATIC_USD_FEED_BASE_SEPOLIA()":"02b20597","PYTH_NZD_USD_FEED_BASE_GOERLI()":"300dcb06","PYTH_NZD_USD_FEED_BASE_MAINNET()":"0e75f55e","PYTH_NZD_USD_FEED_BASE_SEPOLIA()":"9298989c","PYTH_OP_USD_FEED_BASE_GOERLI()":"93c0f622","PYTH_OP_USD_FEED_BASE_MAINNET()":"1396a81f","PYTH_OP_USD_FEED_BASE_SEPOLIA()":"83db385c","PYTH_SEI_USD_FEED_BASE_GOERLI()":"0769bc32","PYTH_SEI_USD_FEED_BASE_MAINNET()":"0e44cfd2","PYTH_SEI_USD_FEED_BASE_SEPOLIA()":"a2bb6852","PYTH_SEK_USD_FEED_BASE_GOERLI()":"7dbfed4a","PYTH_SEK_USD_FEED_BASE_MAINNET()":"5666cc28","PYTH_SEK_USD_FEED_BASE_SEPOLIA()":"a1a9eadd","PYTH_SGD_USD_FEED_BASE_GOERLI()":"a5d20a44","PYTH_SGD_USD_FEED_BASE_MAINNET()":"cf14a9cc","PYTH_SGD_USD_FEED_BASE_SEPOLIA()":"a34bf8a5","PYTH_SOL_USD_FEED_BASE_GOERLI()":"8a267908","PYTH_SOL_USD_FEED_BASE_MAINNET()":"32e75d73","PYTH_SOL_USD_FEED_BASE_SEPOLIA()":"d225173c","PYTH_TIA_USD_FEED_BASE_GOERLI()":"fc607b18","PYTH_TIA_USD_FEED_BASE_MAINNET()":"34bfb71a","PYTH_TIA_USD_FEED_BASE_SEPOLIA()":"d9579382","PYTH_XAG_USD_FEED_BASE_GOERLI()":"8630da52","PYTH_XAG_USD_FEED_BASE_MAINNET()":"cd9d91a3","PYTH_XAG_USD_FEED_BASE_SEPOLIA()":"c88a2af6","PYTH_XAU_USD_FEED_BASE_GOERLI()":"964e12b0","PYTH_XAU_USD_FEED_BASE_MAINNET()":"51f5984b","PYTH_XAU_USD_FEED_BASE_SEPOLIA()":"87818350","SEI_USD_CHAINLINK_FEED_BASE_GOERLI()":"b1eb9daf","SEI_USD_CHAINLINK_FEED_BASE_MAINNET()":"ddd58755","SEI_USD_CHAINLINK_FEED_BASE_SEPOLIA()":"b8399b14","SEK_USD_CHAINLINK_FEED_BASE_GOERLI()":"af98f5bb","SEK_USD_CHAINLINK_FEED_BASE_MAINNET()":"95c69842","SEK_USD_CHAINLINK_FEED_BASE_SEPOLIA()":"ce90df24","SGD_USD_CHAINLINK_FEED_BASE_GOERLI()":"895136ca","SGD_USD_CHAINLINK_FEED_BASE_MAINNET()":"168a76c1","SGD_USD_CHAINLINK_FEED_BASE_SEPOLIA()":"5bd2e230","SOL_USD_CHAINLINK_FEED_BASE_GOERLI()":"6c0ea3ab","SOL_USD_CHAINLINK_FEED_BASE_MAINNET()":"0285f9e9","SOL_USD_CHAINLINK_FEED_BASE_SEPOLIA()":"c55b53c0","TIA_USD_CHAINLINK_FEED_BASE_GOERLI()":"953624f3","TIA_USD_CHAINLINK_FEED_BASE_MAINNET()":"ce69c4d7","TIA_USD_CHAINLINK_FEED_BASE_SEPOLIA()":"0827a081","XAG_USD_CHAINLINK_FEED_BASE_GOERLI()":"5dd649d6","XAG_USD_CHAINLINK_FEED_BASE_MAINNET()":"58b61a0f","XAG_USD_CHAINLINK_FEED_BASE_SEPOLIA()":"1816468f","XAU_USD_CHAINLINK_FEED_BASE_GOERLI()":"4bd22894","XAU_USD_CHAINLINK_FEED_BASE_MAINNET()":"ae4c4be6","XAU_USD_CHAINLINK_FEED_BASE_SEPOLIA()":"3754140a"},"id":93}