{"abi":[{"type":"constructor","inputs":[],"stateMutability":"nonpayable"},{"type":"function","name":"addFee","inputs":[{"name":"_fee","type":"tuple","internalType":"struct IPairStorage.Fee","components":[{"name":"openFeeP","type":"uint256","internalType":"uint256"},{"name":"closeFeeP","type":"uint256","internalType":"uint256"},{"name":"limitOrderFeeP","type":"uint256","internalType":"uint256"},{"name":"minLevPosUSDC","type":"uint256","internalType":"uint256"},{"name":"pnlFees","type":"tuple","internalType":"struct IPairStorage.PnlFees","components":[{"name":"numTiers","type":"uint256","internalType":"uint256"},{"name":"tierP","type":"uint256[]","internalType":"uint256[]"},{"name":"feesP","type":"uint256[]","internalType":"uint256[]"}]}]}],"outputs":[],"stateMutability":"nonpayable"},{"type":"function","name":"addGroup","inputs":[{"name":"_group","type":"tuple","internalType":"struct IPairStorage.Group","components":[{"name":"name","type":"string","internalType":"string"},{"name":"maxOpenInterestP","type":"uint256","internalType":"uint256"},{"name":"isSpreadDynamic","type":"bool","internalType":"bool"}]}],"outputs":[],"stateMutability":"nonpayable"},{"type":"function","name":"addPair","inputs":[{"name":"_pair","type":"tuple","internalType":"struct IPairStorage.Pair","components":[{"name":"feed","type":"tuple","internalType":"struct IPairStorage.Feed","components":[{"name":"maxOpenDeviationP","type":"uint256","internalType":"uint256"},{"name":"maxCloseDeviationP","type":"uint256","internalType":"uint256"},{"name":"feedId","type":"bytes32","internalType":"bytes32"}]},{"name":"backupFeed","type":"tuple","internalType":"struct IPairStorage.BackupFeed","components":[{"name":"maxDeviationP","type":"uint256","internalType":"uint256"},{"name":"feedId","type":"address","internalType":"address"}]},{"name":"spreadP","type":"uint256","internalType":"uint256"},{"name":"pnlSpreadP","type":"uint256","internalType":"uint256"},{"name":"leverages","type":"tuple","internalType":"struct IPairStorage.Leverage","components":[{"name":"minLeverage","type":"uint256","internalType":"uint256"},{"name":"maxLeverage","type":"uint256","internalType":"uint256"},{"name":"pnlMinLeverage","type":"uint256","internalType":"uint256"},{"name":"pnlMaxLeverage","type":"uint256","internalType":"uint256"}]},{"name":"priceImpactMultiplier","type":"uint256","internalType":"uint256"},{"name":"skewImpactMultiplier","type":"int256","internalType":"int256"},{"name":"groupIndex","type":"uint256","internalType":"uint256"},{"name":"feeIndex","type":"uint256","internalType":"uint256"},{"name":"values","type":"tuple","internalType":"struct IPairStorage.Values","components":[{"name":"maxGainP","type":"int256","internalType":"int256"},{"name":"maxSlP","type":"int256","internalType":"int256"},{"name":"maxLongOiP","type":"uint256","internalType":"uint256"},{"name":"maxShortOiP","type":"uint256","internalType":"uint256"},{"name":"groupOpenInterestPecentage","type":"uint256","internalType":"uint256"},{"name":"maxWalletOI","type":"uint256","internalType":"uint256"},{"name":"isUSDCAligned","type":"bool","internalType":"bool"}]}]}],"outputs":[],"stateMutability":"nonpayable"},{"type":"function","name":"addSkewOpenFees","inputs":[{"name":"_skewFee","type":"tuple","internalType":"struct IPairStorage.SkewFee","components":[{"name":"eqParams","type":"int256[2][10]","internalType":"int256[2][10]"}]}],"outputs":[],"stateMutability":"nonpayable"},{"type":"function","name":"addtionalPairParams","inputs":[{"name":"","type":"uint256","internalType":"uint256"}],"outputs":[{"name":"param_9","type":"uint256","internalType":"uint256"},{"name":"param_10","type":"uint256","internalType":"uint256"},{"name":"param_11","type":"uint256","internalType":"uint256"},{"name":"param_12","type":"uint256","internalType":"uint256"},{"name":"param_13","type":"uint256","internalType":"uint256"},{"name":"param_14","type":"uint256","internalType":"uint256"},{"name":"param_15","type":"uint256","internalType":"uint256"},{"name":"param_16","type":"uint256","internalType":"uint256"},{"name":"param_17","type":"uint256","internalType":"uint256"},{"name":"param_18","type":"uint256","internalType":"uint256"}],"stateMutability":"view"},{"type":"function","name":"blockOILimit","inputs":[{"name":"","type":"uint256","internalType":"uint256"}],"outputs":[{"name":"","type":"uint256","internalType":"uint256"}],"stateMutability":"view"},{"type":"function","name":"correctSl","inputs":[{"name":"openPrice","type":"uint256","internalType":"uint256"},{"name":"leverage","type":"uint256","internalType":"uint256"},{"name":"sl","type":"uint256","internalType":"uint256"},{"name":"buy","type":"bool","internalType":"bool"},{"name":"pairIndex","type":"uint256","internalType":"uint256"}],"outputs":[{"name":"","type":"uint256","internalType":"uint256"}],"stateMutability":"view"},{"type":"function","name":"correctTp","inputs":[{"name":"openPrice","type":"uint256","internalType":"uint256"},{"name":"leverage","type":"uint256","internalType":"uint256"},{"name":"tp","type":"uint256","internalType":"uint256"},{"name":"buy","type":"bool","internalType":"bool"},{"name":"pairIndex","type":"uint256","internalType":"uint256"}],"outputs":[{"name":"","type":"uint256","internalType":"uint256"}],"stateMutability":"view"},{"type":"function","name":"currentOrderId","inputs":[],"outputs":[{"name":"","type":"uint256","internalType":"uint256"}],"stateMutability":"view"},{"type":"function","name":"currentPercentProfit","inputs":[{"name":"openPrice","type":"uint256","internalType":"uint256"},{"name":"currentPrice","type":"uint256","internalType":"uint256"},{"name":"buy","type":"bool","internalType":"bool"},{"name":"leverage","type":"uint256","internalType":"uint256"},{"name":"pairIndex","type":"uint256","internalType":"uint256"}],"outputs":[{"name":"p","type":"int256","internalType":"int256"}],"stateMutability":"view"},{"type":"function","name":"delistPair","inputs":[{"name":"_pairIndex","type":"uint256","internalType":"uint256"}],"outputs":[],"stateMutability":"nonpayable"},{"type":"function","name":"fees","inputs":[{"name":"","type":"uint256","internalType":"uint256"}],"outputs":[{"name":"openFeeP","type":"uint256","internalType":"uint256"},{"name":"closeFeeP","type":"uint256","internalType":"uint256"},{"name":"limitOrderFeeP","type":"uint256","internalType":"uint256"},{"name":"minLevPosUSDC","type":"uint256","internalType":"uint256"},{"name":"pnlFees","type":"tuple","internalType":"struct IPairStorage.PnlFees","components":[{"name":"numTiers","type":"uint256","internalType":"uint256"},{"name":"tierP","type":"uint256[]","internalType":"uint256[]"},{"name":"feesP","type":"uint256[]","internalType":"uint256[]"}]}],"stateMutability":"view"},{"type":"function","name":"feesCount","inputs":[],"outputs":[{"name":"","type":"uint256","internalType":"uint256"}],"stateMutability":"view"},{"type":"function","name":"getPairData","inputs":[{"name":"_pairIndex","type":"uint256","internalType":"uint256"}],"outputs":[{"name":"from","type":"string","internalType":"string"},{"name":"to","type":"string","internalType":"string"},{"name":"numTiers","type":"uint256","internalType":"uint256"},{"name":"tierThresholds","type":"uint256[]","internalType":"uint256[]"},{"name":"timer","type":"uint256[]","internalType":"uint256[]"}],"stateMutability":"view"},{"type":"function","name":"getPnlBasedFee","inputs":[{"name":"pairIndex","type":"uint256","internalType":"uint256"},{"name":"collateral","type":"uint256","internalType":"uint256"},{"name":"percentProfit","type":"int256","internalType":"int256"}],"outputs":[{"name":"","type":"uint256","internalType":"uint256"}],"stateMutability":"view"},{"type":"function","name":"getPosType","inputs":[{"name":"trader","type":"address","internalType":"address"},{"name":"pairIndex","type":"uint256","internalType":"uint256"},{"name":"index","type":"uint256","internalType":"uint256"}],"outputs":[{"name":"","type":"bool","internalType":"bool"}],"stateMutability":"view"},{"type":"function","name":"getSkewParams","inputs":[{"name":"_pairIndex","type":"uint256","internalType":"uint256"}],"outputs":[{"name":"skewFee","type":"tuple","internalType":"struct IPairStorage.SkewFee","components":[{"name":"eqParams","type":"int256[2][10]","internalType":"int256[2][10]"}]}],"stateMutability":"view"},{"type":"function","name":"groupMaxOI","inputs":[{"name":"_pairIndex","type":"uint256","internalType":"uint256"}],"outputs":[{"name":"","type":"uint256","internalType":"uint256"}],"stateMutability":"view"},{"type":"function","name":"groupOI","inputs":[{"name":"_pairIndex","type":"uint256","internalType":"uint256"}],"outputs":[{"name":"","type":"uint256","internalType":"uint256"}],"stateMutability":"view"},{"type":"function","name":"groupOIs","inputs":[{"name":"","type":"uint256","internalType":"uint256"},{"name":"","type":"uint256","internalType":"uint256"}],"outputs":[{"name":"","type":"uint256","internalType":"uint256"}],"stateMutability":"view"},{"type":"function","name":"groups","inputs":[{"name":"","type":"uint256","internalType":"uint256"}],"outputs":[{"name":"name","type":"string","internalType":"string"},{"name":"maxOpenInterestP","type":"uint256","internalType":"uint256"},{"name":"isSpreadDynamic","type":"bool","internalType":"bool"}],"stateMutability":"view"},{"type":"function","name":"groupsCount","inputs":[],"outputs":[{"name":"","type":"uint256","internalType":"uint256"}],"stateMutability":"view"},{"type":"function","name":"guaranteedSlEnabled","inputs":[{"name":"_pairIndex","type":"uint256","internalType":"uint256"}],"outputs":[{"name":"","type":"bool","internalType":"bool"}],"stateMutability":"view"},{"type":"function","name":"initialize","inputs":[{"name":"_storageT","type":"address","internalType":"address"},{"name":"_currentOrderId","type":"uint256","internalType":"uint256"}],"outputs":[],"stateMutability":"nonpayable"},{"type":"function","name":"isDynamicSpreadEnabled","inputs":[{"name":"_pairIndex","type":"uint256","internalType":"uint256"}],"outputs":[{"name":"","type":"bool","internalType":"bool"}],"stateMutability":"view"},{"type":"function","name":"isPairListed","inputs":[{"name":"","type":"bytes32","internalType":"bytes32"}],"outputs":[{"name":"","type":"bool","internalType":"bool"}],"stateMutability":"view"},{"type":"function","name":"isUSDCAligned","inputs":[{"name":"_pairIndex","type":"uint256","internalType":"uint256"}],"outputs":[{"name":"","type":"bool","internalType":"bool"}],"stateMutability":"view"},{"type":"function","name":"lossProtection","inputs":[{"name":"","type":"uint256","internalType":"uint256"},{"name":"","type":"uint256","internalType":"uint256"}],"outputs":[{"name":"","type":"uint256","internalType":"uint256"}],"stateMutability":"view"},{"type":"function","name":"lossProtectionMultiplier","inputs":[{"name":"_pairIndex","type":"uint256","internalType":"uint256"},{"name":"_tier","type":"uint256","internalType":"uint256"}],"outputs":[{"name":"","type":"uint256","internalType":"uint256"}],"stateMutability":"view"},{"type":"function","name":"maxWalletOI","inputs":[{"name":"_pairIndex","type":"uint256","internalType":"uint256"}],"outputs":[{"name":"","type":"uint256","internalType":"uint256"}],"stateMutability":"view"},{"type":"function","name":"openCloseThreshold","inputs":[{"name":"_pairIndex","type":"uint256","internalType":"uint256"},{"name":"_leveragePos","type":"uint256","internalType":"uint256"}],"outputs":[{"name":"","type":"uint256","internalType":"uint256"}],"stateMutability":"nonpayable"},{"type":"function","name":"openPosType","inputs":[{"name":"","type":"address","internalType":"address"},{"name":"","type":"uint256","internalType":"uint256"},{"name":"","type":"uint256","internalType":"uint256"}],"outputs":[{"name":"","type":"bool","internalType":"bool"}],"stateMutability":"view"},{"type":"function","name":"pairBackupFeed","inputs":[{"name":"_pairIndex","type":"uint256","internalType":"uint256"}],"outputs":[{"name":"","type":"tuple","internalType":"struct IPairStorage.BackupFeed","components":[{"name":"maxDeviationP","type":"uint256","internalType":"uint256"},{"name":"feedId","type":"address","internalType":"address"}]}],"stateMutability":"view"},{"type":"function","name":"pairCloseFeeP","inputs":[{"name":"_pairIndex","type":"uint256","internalType":"uint256"}],"outputs":[{"name":"","type":"uint256","internalType":"uint256"}],"stateMutability":"view"},{"type":"function","name":"pairData","inputs":[{"name":"","type":"uint256","internalType":"uint256"}],"outputs":[{"name":"from","type":"string","internalType":"string"},{"name":"to","type":"string","internalType":"string"},{"name":"numTiers","type":"uint256","internalType":"uint256"}],"stateMutability":"view"},{"type":"function","name":"pairFeed","inputs":[{"name":"_pairIndex","type":"uint256","internalType":"uint256"}],"outputs":[{"name":"","type":"tuple","internalType":"struct IPairStorage.Feed","components":[{"name":"maxOpenDeviationP","type":"uint256","internalType":"uint256"},{"name":"maxCloseDeviationP","type":"uint256","internalType":"uint256"},{"name":"feedId","type":"bytes32","internalType":"bytes32"}]}],"stateMutability":"view"},{"type":"function","name":"pairGroupIndex","inputs":[{"name":"_pairIndex","type":"uint256","internalType":"uint256"}],"outputs":[{"name":"","type":"uint256","internalType":"uint256"}],"stateMutability":"view"},{"type":"function","name":"pairJob","inputs":[{"name":"_pairIndex","type":"uint256","internalType":"uint256"}],"outputs":[{"name":"","type":"bytes32","internalType":"bytes32"},{"name":"","type":"address","internalType":"address"},{"name":"","type":"uint256","internalType":"uint256"}],"stateMutability":"nonpayable"},{"type":"function","name":"pairLimitOrderFeeP","inputs":[{"name":"_pairIndex","type":"uint256","internalType":"uint256"}],"outputs":[{"name":"","type":"uint256","internalType":"uint256"}],"stateMutability":"view"},{"type":"function","name":"pairMaxLeverage","inputs":[{"name":"_pairIndex","type":"uint256","internalType":"uint256"},{"name":"_isPnl","type":"bool","internalType":"bool"}],"outputs":[{"name":"","type":"uint256","internalType":"uint256"}],"stateMutability":"view"},{"type":"function","name":"pairMaxLongOI","inputs":[{"name":"_pairIndex","type":"uint256","internalType":"uint256"}],"outputs":[{"name":"","type":"uint256","internalType":"uint256"}],"stateMutability":"view"},{"type":"function","name":"pairMaxOI","inputs":[{"name":"_pairIndex","type":"uint256","internalType":"uint256"}],"outputs":[{"name":"","type":"uint256","internalType":"uint256"}],"stateMutability":"view"},{"type":"function","name":"pairMaxShortOI","inputs":[{"name":"_pairIndex","type":"uint256","internalType":"uint256"}],"outputs":[{"name":"","type":"uint256","internalType":"uint256"}],"stateMutability":"view"},{"type":"function","name":"pairMinLevPosUSDC","inputs":[{"name":"_pairIndex","type":"uint256","internalType":"uint256"}],"outputs":[{"name":"","type":"uint256","internalType":"uint256"}],"stateMutability":"view"},{"type":"function","name":"pairMinLeverage","inputs":[{"name":"_pairIndex","type":"uint256","internalType":"uint256"},{"name":"_isPnl","type":"bool","internalType":"bool"}],"outputs":[{"name":"","type":"uint256","internalType":"uint256"}],"stateMutability":"view"},{"type":"function","name":"pairOpenFeeP","inputs":[{"name":"_pairIndex","type":"uint256","internalType":"uint256"},{"name":"_leveragedPosition","type":"uint256","internalType":"uint256"},{"name":"_buy","type":"bool","internalType":"bool"}],"outputs":[{"name":"","type":"uint256","internalType":"uint256"}],"stateMutability":"view"},{"type":"function","name":"pairParams","inputs":[{"name":"","type":"uint256","internalType":"uint256"}],"outputs":[{"name":"posSpreadCap","type":"uint256","internalType":"uint256"},{"name":"negSpreadCap","type":"uint256","internalType":"uint256"},{"name":"param_1","type":"uint256","internalType":"uint256"},{"name":"param_2","type":"uint256","internalType":"uint256"},{"name":"param_3","type":"uint256","internalType":"uint256"},{"name":"param_4","type":"uint256","internalType":"uint256"},{"name":"param_5","type":"uint256","internalType":"uint256"},{"name":"param_6","type":"uint256","internalType":"uint256"},{"name":"param_7","type":"uint256","internalType":"uint256"},{"name":"param_8","type":"uint256","internalType":"uint256"}],"stateMutability":"view"},{"type":"function","name":"pairPriceImpactMultiplier","inputs":[{"name":"_pairIndex","type":"uint256","internalType":"uint256"}],"outputs":[{"name":"","type":"uint256","internalType":"uint256"}],"stateMutability":"view"},{"type":"function","name":"pairSkewImpactMultiplier","inputs":[{"name":"_pairIndex","type":"uint256","internalType":"uint256"}],"outputs":[{"name":"","type":"int256","internalType":"int256"}],"stateMutability":"view"},{"type":"function","name":"pairSpreadP","inputs":[{"name":"_pairIndex","type":"uint256","internalType":"uint256"},{"name":"_isPnl","type":"bool","internalType":"bool"}],"outputs":[{"name":"spreadP","type":"uint256","internalType":"uint256"}],"stateMutability":"view"},{"type":"function","name":"pairs","inputs":[{"name":"","type":"uint256","internalType":"uint256"}],"outputs":[{"name":"feed","type":"tuple","internalType":"struct IPairStorage.Feed","components":[{"name":"maxOpenDeviationP","type":"uint256","internalType":"uint256"},{"name":"maxCloseDeviationP","type":"uint256","internalType":"uint256"},{"name":"feedId","type":"bytes32","internalType":"bytes32"}]},{"name":"backupFeed","type":"tuple","internalType":"struct IPairStorage.BackupFeed","components":[{"name":"maxDeviationP","type":"uint256","internalType":"uint256"},{"name":"feedId","type":"address","internalType":"address"}]},{"name":"spreadP","type":"uint256","internalType":"uint256"},{"name":"pnlSpreadP","type":"uint256","internalType":"uint256"},{"name":"leverages","type":"tuple","internalType":"struct IPairStorage.Leverage","components":[{"name":"minLeverage","type":"uint256","internalType":"uint256"},{"name":"maxLeverage","type":"uint256","internalType":"uint256"},{"name":"pnlMinLeverage","type":"uint256","internalType":"uint256"},{"name":"pnlMaxLeverage","type":"uint256","internalType":"uint256"}]},{"name":"priceImpactMultiplier","type":"uint256","internalType":"uint256"},{"name":"skewImpactMultiplier","type":"int256","internalType":"int256"},{"name":"groupIndex","type":"uint256","internalType":"uint256"},{"name":"feeIndex","type":"uint256","internalType":"uint256"},{"name":"values","type":"tuple","internalType":"struct IPairStorage.Values","components":[{"name":"maxGainP","type":"int256","internalType":"int256"},{"name":"maxSlP","type":"int256","internalType":"int256"},{"name":"maxLongOiP","type":"uint256","internalType":"uint256"},{"name":"maxShortOiP","type":"uint256","internalType":"uint256"},{"name":"groupOpenInterestPecentage","type":"uint256","internalType":"uint256"},{"name":"maxWalletOI","type":"uint256","internalType":"uint256"},{"name":"isUSDCAligned","type":"bool","internalType":"bool"}]}],"stateMutability":"view"},{"type":"function","name":"pairsBackend","inputs":[{"name":"_index","type":"uint256","internalType":"uint256"}],"outputs":[{"name":"","type":"tuple","internalType":"struct IPairStorage.Pair","components":[{"name":"feed","type":"tuple","internalType":"struct IPairStorage.Feed","components":[{"name":"maxOpenDeviationP","type":"uint256","internalType":"uint256"},{"name":"maxCloseDeviationP","type":"uint256","internalType":"uint256"},{"name":"feedId","type":"bytes32","internalType":"bytes32"}]},{"name":"backupFeed","type":"tuple","internalType":"struct IPairStorage.BackupFeed","components":[{"name":"maxDeviationP","type":"uint256","internalType":"uint256"},{"name":"feedId","type":"address","internalType":"address"}]},{"name":"spreadP","type":"uint256","internalType":"uint256"},{"name":"pnlSpreadP","type":"uint256","internalType":"uint256"},{"name":"leverages","type":"tuple","internalType":"struct IPairStorage.Leverage","components":[{"name":"minLeverage","type":"uint256","internalType":"uint256"},{"name":"maxLeverage","type":"uint256","internalType":"uint256"},{"name":"pnlMinLeverage","type":"uint256","internalType":"uint256"},{"name":"pnlMaxLeverage","type":"uint256","internalType":"uint256"}]},{"name":"priceImpactMultiplier","type":"uint256","internalType":"uint256"},{"name":"skewImpactMultiplier","type":"int256","internalType":"int256"},{"name":"groupIndex","type":"uint256","internalType":"uint256"},{"name":"feeIndex","type":"uint256","internalType":"uint256"},{"name":"values","type":"tuple","internalType":"struct IPairStorage.Values","components":[{"name":"maxGainP","type":"int256","internalType":"int256"},{"name":"maxSlP","type":"int256","internalType":"int256"},{"name":"maxLongOiP","type":"uint256","internalType":"uint256"},{"name":"maxShortOiP","type":"uint256","internalType":"uint256"},{"name":"groupOpenInterestPecentage","type":"uint256","internalType":"uint256"},{"name":"maxWalletOI","type":"uint256","internalType":"uint256"},{"name":"isUSDCAligned","type":"bool","internalType":"bool"}]}]},{"name":"","type":"tuple","internalType":"struct IPairStorage.Group","components":[{"name":"name","type":"string","internalType":"string"},{"name":"maxOpenInterestP","type":"uint256","internalType":"uint256"},{"name":"isSpreadDynamic","type":"bool","internalType":"bool"}]},{"name":"","type":"tuple","internalType":"struct IPairStorage.Fee","components":[{"name":"openFeeP","type":"uint256","internalType":"uint256"},{"name":"closeFeeP","type":"uint256","internalType":"uint256"},{"name":"limitOrderFeeP","type":"uint256","internalType":"uint256"},{"name":"minLevPosUSDC","type":"uint256","internalType":"uint256"},{"name":"pnlFees","type":"tuple","internalType":"struct IPairStorage.PnlFees","components":[{"name":"numTiers","type":"uint256","internalType":"uint256"},{"name":"tierP","type":"uint256[]","internalType":"uint256[]"},{"name":"feesP","type":"uint256[]","internalType":"uint256[]"}]}]}],"stateMutability":"view"},{"type":"function","name":"pairsCount","inputs":[],"outputs":[{"name":"","type":"uint256","internalType":"uint256"}],"stateMutability":"view"},{"type":"function","name":"resetPosType","inputs":[{"name":"trader","type":"address","internalType":"address"},{"name":"pairIndex","type":"uint256","internalType":"uint256"},{"name":"index","type":"uint256","internalType":"uint256"}],"outputs":[],"stateMutability":"nonpayable"},{"type":"function","name":"setBlockOILImits","inputs":[{"name":"_pairIndex","type":"uint256[]","internalType":"uint256[]"},{"name":"_limits","type":"uint256[]","internalType":"uint256[]"}],"outputs":[],"stateMutability":"nonpayable"},{"type":"function","name":"setPairData","inputs":[{"name":"_pairIndex","type":"uint256","internalType":"uint256"},{"name":"from","type":"string","internalType":"string"},{"name":"to","type":"string","internalType":"string"},{"name":"_numTiers","type":"uint256","internalType":"uint256"},{"name":"_tierThresholds","type":"uint256[]","internalType":"uint256[]"},{"name":"_timer","type":"uint256[]","internalType":"uint256[]"}],"outputs":[],"stateMutability":"nonpayable"},{"type":"function","name":"skewedFeesCount","inputs":[],"outputs":[{"name":"","type":"uint256","internalType":"uint256"}],"stateMutability":"view"},{"type":"function","name":"spreadCaps","inputs":[{"name":"_pairIndex","type":"uint256","internalType":"uint256"}],"outputs":[{"name":"","type":"uint256","internalType":"uint256"},{"name":"","type":"uint256","internalType":"uint256"}],"stateMutability":"view"},{"type":"function","name":"storageT","inputs":[],"outputs":[{"name":"","type":"address","internalType":"contract ITradingStorage"}],"stateMutability":"view"},{"type":"function","name":"storePosType","inputs":[{"name":"trader","type":"address","internalType":"address"},{"name":"pairIndex","type":"uint256","internalType":"uint256"},{"name":"index","type":"uint256","internalType":"uint256"},{"name":"isPnl","type":"bool","internalType":"bool"}],"outputs":[],"stateMutability":"nonpayable"},{"type":"function","name":"syncGroupOI","inputs":[{"name":"_pairIndex","type":"uint256","internalType":"uint256"},{"name":"_newLongOI","type":"uint256","internalType":"uint256"},{"name":"_newShortOI","type":"uint256","internalType":"uint256"}],"outputs":[],"stateMutability":"nonpayable"},{"type":"function","name":"syncOrderId","inputs":[{"name":"_orderId","type":"uint256","internalType":"uint256"}],"outputs":[],"stateMutability":"nonpayable"},{"type":"function","name":"udpateSkewOpenFees","inputs":[{"name":"_pairIndex","type":"uint256","internalType":"uint256"},{"name":"_skewFee","type":"tuple","internalType":"struct IPairStorage.SkewFee","components":[{"name":"eqParams","type":"int256[2][10]","internalType":"int256[2][10]"}]}],"outputs":[],"stateMutability":"nonpayable"},{"type":"function","name":"updateAdditionalPairParams","inputs":[{"name":"_pairIndex","type":"uint256","internalType":"uint256"},{"name":"_params","type":"tuple","internalType":"struct IPairStorage.AdditionalPairParams","components":[{"name":"param_9","type":"uint256","internalType":"uint256"},{"name":"param_10","type":"uint256","internalType":"uint256"},{"name":"param_11","type":"uint256","internalType":"uint256"},{"name":"param_12","type":"uint256","internalType":"uint256"},{"name":"param_13","type":"uint256","internalType":"uint256"},{"name":"param_14","type":"uint256","internalType":"uint256"},{"name":"param_15","type":"uint256","internalType":"uint256"},{"name":"param_16","type":"uint256","internalType":"uint256"},{"name":"param_17","type":"uint256","internalType":"uint256"},{"name":"param_18","type":"uint256","internalType":"uint256"}]}],"outputs":[],"stateMutability":"nonpayable"},{"type":"function","name":"updateFee","inputs":[{"name":"_id","type":"uint256","internalType":"uint256"},{"name":"_fee","type":"tuple","internalType":"struct IPairStorage.Fee","components":[{"name":"openFeeP","type":"uint256","internalType":"uint256"},{"name":"closeFeeP","type":"uint256","internalType":"uint256"},{"name":"limitOrderFeeP","type":"uint256","internalType":"uint256"},{"name":"minLevPosUSDC","type":"uint256","internalType":"uint256"},{"name":"pnlFees","type":"tuple","internalType":"struct IPairStorage.PnlFees","components":[{"name":"numTiers","type":"uint256","internalType":"uint256"},{"name":"tierP","type":"uint256[]","internalType":"uint256[]"},{"name":"feesP","type":"uint256[]","internalType":"uint256[]"}]}]}],"outputs":[],"stateMutability":"nonpayable"},{"type":"function","name":"updateGroup","inputs":[{"name":"_id","type":"uint256","internalType":"uint256"},{"name":"_group","type":"tuple","internalType":"struct IPairStorage.Group","components":[{"name":"name","type":"string","internalType":"string"},{"name":"maxOpenInterestP","type":"uint256","internalType":"uint256"},{"name":"isSpreadDynamic","type":"bool","internalType":"bool"}]}],"outputs":[],"stateMutability":"nonpayable"},{"type":"function","name":"updateGroupOI","inputs":[{"name":"_pairIndex","type":"uint256","internalType":"uint256"},{"name":"_amount","type":"uint256","internalType":"uint256"},{"name":"_long","type":"bool","internalType":"bool"},{"name":"_increase","type":"bool","internalType":"bool"}],"outputs":[],"stateMutability":"nonpayable"},{"type":"function","name":"updateLossProtectionMultiplier","inputs":[{"name":"_pairIndex","type":"uint256","internalType":"uint256"},{"name":"_tier","type":"uint256[]","internalType":"uint256[]"},{"name":"_multiplierPercent","type":"uint256[]","internalType":"uint256[]"}],"outputs":[],"stateMutability":"nonpayable"},{"type":"function","name":"updatePair","inputs":[{"name":"_pairIndex","type":"uint256","internalType":"uint256"},{"name":"_pair","type":"tuple","internalType":"struct IPairStorage.Pair","components":[{"name":"feed","type":"tuple","internalType":"struct IPairStorage.Feed","components":[{"name":"maxOpenDeviationP","type":"uint256","internalType":"uint256"},{"name":"maxCloseDeviationP","type":"uint256","internalType":"uint256"},{"name":"feedId","type":"bytes32","internalType":"bytes32"}]},{"name":"backupFeed","type":"tuple","internalType":"struct IPairStorage.BackupFeed","components":[{"name":"maxDeviationP","type":"uint256","internalType":"uint256"},{"name":"feedId","type":"address","internalType":"address"}]},{"name":"spreadP","type":"uint256","internalType":"uint256"},{"name":"pnlSpreadP","type":"uint256","internalType":"uint256"},{"name":"leverages","type":"tuple","internalType":"struct IPairStorage.Leverage","components":[{"name":"minLeverage","type":"uint256","internalType":"uint256"},{"name":"maxLeverage","type":"uint256","internalType":"uint256"},{"name":"pnlMinLeverage","type":"uint256","internalType":"uint256"},{"name":"pnlMaxLeverage","type":"uint256","internalType":"uint256"}]},{"name":"priceImpactMultiplier","type":"uint256","internalType":"uint256"},{"name":"skewImpactMultiplier","type":"int256","internalType":"int256"},{"name":"groupIndex","type":"uint256","internalType":"uint256"},{"name":"feeIndex","type":"uint256","internalType":"uint256"},{"name":"values","type":"tuple","internalType":"struct IPairStorage.Values","components":[{"name":"maxGainP","type":"int256","internalType":"int256"},{"name":"maxSlP","type":"int256","internalType":"int256"},{"name":"maxLongOiP","type":"uint256","internalType":"uint256"},{"name":"maxShortOiP","type":"uint256","internalType":"uint256"},{"name":"groupOpenInterestPecentage","type":"uint256","internalType":"uint256"},{"name":"maxWalletOI","type":"uint256","internalType":"uint256"},{"name":"isUSDCAligned","type":"bool","internalType":"bool"}]}]}],"outputs":[],"stateMutability":"nonpayable"},{"type":"function","name":"updatePairParams","inputs":[{"name":"_pairIndex","type":"uint256","internalType":"uint256"},{"name":"_params","type":"tuple","internalType":"struct IPairStorage.PairParams","components":[{"name":"posSpreadCap","type":"uint256","internalType":"uint256"},{"name":"negSpreadCap","type":"uint256","internalType":"uint256"},{"name":"param_1","type":"uint256","internalType":"uint256"},{"name":"param_2","type":"uint256","internalType":"uint256"},{"name":"param_3","type":"uint256","internalType":"uint256"},{"name":"param_4","type":"uint256","internalType":"uint256"},{"name":"param_5","type":"uint256","internalType":"uint256"},{"name":"param_6","type":"uint256","internalType":"uint256"},{"name":"param_7","type":"uint256","internalType":"uint256"},{"name":"param_8","type":"uint256","internalType":"uint256"}]}],"outputs":[],"stateMutability":"nonpayable"},{"type":"event","name":"AdditionalPairParamsUpdated","inputs":[{"name":"params","type":"tuple","indexed":false,"internalType":"struct IPairStorage.AdditionalPairParams","components":[{"name":"param_9","type":"uint256","internalType":"uint256"},{"name":"param_10","type":"uint256","internalType":"uint256"},{"name":"param_11","type":"uint256","internalType":"uint256"},{"name":"param_12","type":"uint256","internalType":"uint256"},{"name":"param_13","type":"uint256","internalType":"uint256"},{"name":"param_14","type":"uint256","internalType":"uint256"},{"name":"param_15","type":"uint256","internalType":"uint256"},{"name":"param_16","type":"uint256","internalType":"uint256"},{"name":"param_17","type":"uint256","internalType":"uint256"},{"name":"param_18","type":"uint256","internalType":"uint256"}]}],"anonymous":false},{"type":"event","name":"BlockOILimitsSet","inputs":[{"name":"pairIndex","type":"uint256[]","indexed":false,"internalType":"uint256[]"},{"name":"limits","type":"uint256[]","indexed":false,"internalType":"uint256[]"}],"anonymous":false},{"type":"event","name":"FeeAdded","inputs":[{"name":"index","type":"uint256","indexed":false,"internalType":"uint256"}],"anonymous":false},{"type":"event","name":"FeeUpdated","inputs":[{"name":"index","type":"uint256","indexed":false,"internalType":"uint256"}],"anonymous":false},{"type":"event","name":"GroupAdded","inputs":[{"name":"index","type":"uint256","indexed":false,"internalType":"uint256"},{"name":"name","type":"string","indexed":false,"internalType":"string"}],"anonymous":false},{"type":"event","name":"GroupUpdated","inputs":[{"name":"index","type":"uint256","indexed":false,"internalType":"uint256"}],"anonymous":false},{"type":"event","name":"Initialized","inputs":[{"name":"version","type":"uint8","indexed":false,"internalType":"uint8"}],"anonymous":false},{"type":"event","name":"LossProtectionAdded","inputs":[{"name":"pairIndex","type":"uint256","indexed":false,"internalType":"uint256"},{"name":"tier","type":"uint256[]","indexed":false,"internalType":"uint256[]"},{"name":"multiplier","type":"uint256[]","indexed":false,"internalType":"uint256[]"}],"anonymous":false},{"type":"event","name":"OrderLimitsSet","inputs":[{"name":"pairIndex","type":"uint256[]","indexed":false,"internalType":"uint256[]"},{"name":"limits","type":"uint256[]","indexed":false,"internalType":"uint256[]"}],"anonymous":false},{"type":"event","name":"PairAdded","inputs":[{"name":"index","type":"uint256","indexed":false,"internalType":"uint256"},{"name":"feedId","type":"bytes32","indexed":false,"internalType":"bytes32"}],"anonymous":false},{"type":"event","name":"PairDataUpdated","inputs":[{"name":"pairIndex","type":"uint256","indexed":false,"internalType":"uint256"},{"name":"from","type":"string","indexed":false,"internalType":"string"},{"name":"to","type":"string","indexed":false,"internalType":"string"},{"name":"numTiers","type":"uint256","indexed":false,"internalType":"uint256"},{"name":"tierthresholds","type":"uint256[]","indexed":false,"internalType":"uint256[]"},{"name":"timers","type":"uint256[]","indexed":false,"internalType":"uint256[]"}],"anonymous":false},{"type":"event","name":"PairDelisted","inputs":[{"name":"index","type":"uint256","indexed":false,"internalType":"uint256"}],"anonymous":false},{"type":"event","name":"PairParamsUpdated","inputs":[{"name":"params","type":"tuple","indexed":false,"internalType":"struct IPairStorage.PairParams","components":[{"name":"posSpreadCap","type":"uint256","internalType":"uint256"},{"name":"negSpreadCap","type":"uint256","internalType":"uint256"},{"name":"param_1","type":"uint256","internalType":"uint256"},{"name":"param_2","type":"uint256","internalType":"uint256"},{"name":"param_3","type":"uint256","internalType":"uint256"},{"name":"param_4","type":"uint256","internalType":"uint256"},{"name":"param_5","type":"uint256","internalType":"uint256"},{"name":"param_6","type":"uint256","internalType":"uint256"},{"name":"param_7","type":"uint256","internalType":"uint256"},{"name":"param_8","type":"uint256","internalType":"uint256"}]}],"anonymous":false},{"type":"event","name":"PairUpdated","inputs":[{"name":"index","type":"uint256","indexed":false,"internalType":"uint256"}],"anonymous":false},{"type":"event","name":"SkewFeeAdded","inputs":[{"name":"index","type":"uint256","indexed":false,"internalType":"uint256"}],"anonymous":false},{"type":"event","name":"SkewFeeUpdated","inputs":[{"name":"index","type":"uint256","indexed":false,"internalType":"uint256"}],"anonymous":false}],"bytecode":{"object":"0x60806040523480156200001157600080fd5b506200001c62000022565b620000e3565b600054610100900460ff16156200008f5760405162461bcd60e51b815260206004820152602760248201527f496e697469616c697a61626c653a20636f6e747261637420697320696e697469604482015266616c697a696e6760c81b606482015260840160405180910390fd5b60005460ff90811614620000e1576000805460ff191660ff9081179091556040519081527f7f26b83ff96e1f2b6a682f133852f6798a09c465da95921460cefb38474024989060200160405180910390a15b565b615a4780620000f36000396000f3fe608060405234801561001057600080fd5b50600436106104125760003560e01c806374db8c89116102205780639ae6b9e011610130578063c9fb8b20116100b8578063e14ed99511610087578063e14ed99514610ea1578063e8b50f8414610ec5578063f11bbcc014611014578063f80aa68b14611027578063fb3e519d1461103a57600080fd5b8063c9fb8b2014610e0a578063cd6dc68714610e3e578063d703fb0814610e51578063daefa14514610e8e57600080fd5b8063b2e1b2d6116100ff578063b2e1b2d614610c6f578063b81b2b7114610c82578063b91ac78814610c8b578063befef00b14610db3578063c5f5951a14610dc657600080fd5b80639ae6b9e014610c075780639b2f6cab14610c27578063a1ead06414610c3a578063af11959f14610c4d57600080fd5b80638f6d1431116101b35780639586621f116101825780639586621f14610b9957806395fe913914610bac57806396324bd414610bbf57806397db453814610be1578063995b765614610bf457600080fd5b80638f6d143114610af9578063925931fc14610b0c57806393cf8ed314610b155780639567dccf14610b7757600080fd5b806387698869116101ef5780638769886914610aaa578063885e275014610abd5780638a549af714610ac65780638c9a0ea414610ae657600080fd5b806374db8c8914610a3e5780637719d43c14610a515780637c07e44514610a64578063836a341a14610a7757600080fd5b80634acc79ed116103265780635fc8cd28116102ae57806369d4bda31161027d57806369d4bda3146109b35780636d8b5224146109e95780636dc37de3146109f257806372282ebe14610a18578063737113b514610a2b57600080fd5b80635fc8cd28146107c0578063649a648814610912578063658de48a14610945578063685e905b1461094e57600080fd5b806354219e62116102f557806354219e621461075157806354d7dccb1461076457806356e5536c146107775780635b3f88551461078a5780635e4f8f59146107ad57600080fd5b80634acc79ed146106f45780634e1d47ea146107185780634ffe8aec1461072b578063503a202f1461073e57600080fd5b8063223673e5116103a95780632bf6ae41116103785780632bf6ae41146105c9578063302f81fc146105dc5780633c44d0a3146106125780633d7a5f1a1461063557806342dee1ad1461064857600080fd5b8063223673e51461054d578063238cd23f1461056057806324abd3fb146105935780632b1cbe9d146105b657600080fd5b806316fff074116103e557806316fff074146104905780631a67bacc146104c15780631eaa005c146104d457806321371f5e1461053a57600080fd5b8063108c35871461041757806310ed40881461043d57806312f070cd1461045257806315b40d9114610465575b600080fd5b61042a610425366004614729565b61104d565b6040519081526020015b60405180910390f35b61045061044b3660046146a1565b6110b4565b005b61042a61046036600461487e565b611262565b61042a610473366004614a81565b600d60209081526000928352604080842090915290825290205481565b6000546104a9906201000090046001600160a01b031681565b6040516001600160a01b039091168152602001610434565b6104506104cf3660046147cf565b611298565b61052d6104e2366004614729565b60408051606080820183526000808352602080840182905292840181905293845260068252928290208251938401835280548452600181015491840191909152600201549082015290565b6040516104349190614fa6565b61042a610548366004614b90565b6113b6565b61045061055b366004614742565b61146d565b61042a61056e366004614729565b6000908152600660209081526040808320600e01548352600a90915290206003015490565b6105a66105a1366004614729565b6115eb565b6040519015158152602001610434565b61042a6105c4366004614a81565b611623565b6104506105d7366004614987565b611644565b6105ef6105ea366004614729565b6117db565b604080519384526001600160a01b03909216602084015290820152606001610434565b61042a610620366004614729565b6000908152600660205260409020600d015490565b610450610643366004614a5c565b611a4f565b6106aa610656366004614729565b6007602052806000526040600020600091509050806000015490806001015490806002015490806003015490806004015490806005015490806006015490806007015490806008015490806009015490508a565b604080519a8b5260208b0199909952978901969096526060880194909452608087019290925260a086015260c085015260e084015261010083015261012082015261014001610434565b610707610702366004614729565b611b51565b60405161043495949392919061526e565b610450610726366004614729565b611c4b565b610450610739366004614adc565b611d36565b61045061074c366004614657565b611ed0565b61045061075f366004614a37565b611f5e565b61042a610772366004614b1b565b61225d565b61042a610785366004614729565b612315565b6105a6610798366004614729565b600b6020526000908152604090205460ff1681565b61042a6107bb366004614729565b6123bd565b61042a6107ce366004614729565b60009081526006602081815260409283902083516101a08101855281546101408201908152600183015461016083015260028301546101808301528152845180860186526003830154815260048301546001600160a01b031681850152818401526005820154818601529281015460608085019190915284516080818101875260078401548252600884015482860152600984015482880152600a8401548284015280860191909152600b83015460a0808701918252600c85015460c080890191909152600d86015460e0808a0191909152600e8701546101008a015289519081018a52600f870154815260108701549781019790975260118601549887019890985260128501549386019390935260138401549185019190915260148301549184019190915260159091015460ff16151593820193909352610120909101525190565b61042a610920366004614729565b6000908152600660209081526040808320600e01548352600a90915290206002015490565b61042a60045481565b6109a661095c366004614729565b604080518082019091526000808252602082015250600090815260066020908152604091829020825180840190935260038101548352600401546001600160a01b03169082015290565b6040516104349190614f86565b6105a66109c1366004614729565b6000908152600660209081526040808320600d01548352600990915290206002015460ff1690565b61042a60055481565b6105a6610a00366004614729565b60009081526006602052604090206015015460ff1690565b610450610a26366004614b64565b6123ec565b61042a610a39366004614a81565b6124ee565b610450610a4c366004614729565b612566565b61042a610a5f366004614b64565b6126a9565b610450610a723660046149fb565b6127b0565b61042a610a85366004614729565b6000908152600660209081526040808320600e01548352600a90915290206001015490565b61042a610ab8366004614729565b612906565b61042a60035481565b610ad9610ad4366004614729565b61295c565b604051610434919061515c565b61042a610af4366004614729565b6129e4565b610450610b073660046148ae565b612b0a565b61042a60015481565b6106aa610b23366004614729565b6008602052806000526040600020600091509050806000015490806001015490806002015490806003015490806004015490806005015490806006015490806007015490806008015490806009015490508a565b610b8a610b85366004614729565b612cc6565b6040516104349392919061506d565b610450610ba7366004614805565b613021565b610450610bba3660046147b2565b6131ee565b610bd2610bcd366004614729565b61345b565b60405161043493929190614e79565b610450610bef366004614987565b613509565b61042a610c0236600461487e565b6136a0565b61042a610c15366004614729565b600f6020526000908152604090205481565b61042a610c3536600461487e565b6136d5565b61042a610c48366004614a81565b61370a565b610c60610c5b366004614729565b61372f565b60405161043493929190614de4565b61042a610c7d366004614729565b613861565b61042a60025481565b610d9d610c99366004614729565b60066020818152600092835260409283902083516060808201865282548252600183015482850152600283015482870152855180870187526003840154815260048401546001600160a01b031681860152600584015495840154875160808082018a52600787015482526008870154828901526009870154828b0152600a87015482860152600b870154600c880154600d890154600e8a01548d5160e081018f52600f8c0154815260108c01549c81019c909c5260118b01549d8c019d909d5260128a0154978b01979097526013890154928a0192909252601488015460a08a015260159097015460ff16151560c08901529498929796919590949093909290918a565b6040516104349a99989796959493929190614fc7565b610450610dc136600461477e565b61388a565b6105a6610dd4366004614622565b6001600160a01b0383166000908152601060209081526040808320858452825280832084845290915290205460ff169392505050565b6105a6610e18366004614622565b601060209081526000938452604080852082529284528284209052825290205460ff1681565b610450610e4c3660046145f6565b6139ae565b610e79610e5f366004614729565b600090815260076020526040902080546001909101549091565b60408051928352602083019190915201610434565b61042a610e9c366004614b90565b613b1d565b610eb4610eaf366004614729565b613bb6565b604051610434959493929190614e1a565b61042a610ed3366004614729565b60009081526006602081815260409283902083516101a08101855281546101408201908152600183015461016083015260028301546101808301528152845180860186526003830154815260048301546001600160a01b031681850152818401526005820154818601529281015460608085019190915284516080818101875260078401548252600884015482860152600984015482880152600a8401548284015280860191909152600b83015460a080870191909152600c84015460c0808801918252600d86015460e0808a0191909152600e8701546101008a015289519081018a52600f870154815260108701549781019790975260118601549887019890985260128501549386019390935260138401549185019190915260148301549084015260159091015460ff16151593820193909352610120909101525190565b6104506110223660046149b5565b613e06565b610450611035366004614622565b613f93565b61042a611048366004614aa3565b61401a565b600080606461105b846129e4565b6000858152600660205260409020601301546110779190615448565b61108191906153af565b6000848152600660205260409020601201549091506064906110a39083615448565b6110ad91906153af565b9392505050565b600060029054906101000a90046001600160a01b03166001600160a01b03166312d43a516040518163ffffffff1660e01b815260040160206040518083038186803b15801561110257600080fd5b505afa158015611116573d6000803e3d6000fd5b505050506040513d601f19601f8201168201806040525081019061113a91906145d9565b6001600160a01b0316336001600160a01b0316146111735760405162461bcd60e51b815260040161116a90614ef4565b60405180910390fd5b8281146111b15760405162461bcd60e51b815260206004820152600c60248201526b0988a9cbe9a92a69a82a886960a31b604482015260640161116a565b60005b60ff811684111561121e5782828260ff168181106111d4576111d46156cb565b90506020020135600f600087878560ff168181106111f4576111f46156cb565b90506020020135815260200190815260200160002081905550806112179061567f565b90506111b4565b507fc5c5af5d05689513c60f635389c8449ac23f2b277af3a15f88c21c6de36fcf14848484846040516112549493929190614db2565b60405180910390a150505050565b600081611280576000838152600660205260409020600501546110ad565b50506000908152600660208190526040909120015490565b600060029054906101000a90046001600160a01b03166001600160a01b03166312d43a516040518163ffffffff1660e01b815260040160206040518083038186803b1580156112e657600080fd5b505afa1580156112fa573d6000803e3d6000fd5b505050506040513d601f19601f8201168201806040525081019061131e91906145d9565b6001600160a01b0316336001600160a01b03161461134e5760405162461bcd60e51b815260040161116a90614ef4565b6005546000908152600e60205260409020819061136b82826159a0565b5050600580547f5d7a16e490fc66ca6522d4ba0437ac1a3b97cf25666340a19e408176295826d791600061139e83615664565b9091555060405190815260200160405180910390a150565b600080841180156113ff57506000828152600660205260409020601001546113e4906402540be400906153c3565b6113f0906000196153c3565b6113fd878686898761225d565b125b156114615760008281526006602052604081206010015460649061142f908890611429908b615448565b9061427f565b61143991906153af565b90508361144f5761144a8188615369565b611459565b61145981886154a6565b915050611464565b50825b95945050505050565b600060029054906101000a90046001600160a01b03166001600160a01b03166312d43a516040518163ffffffff1660e01b815260040160206040518083038186803b1580156114bb57600080fd5b505afa1580156114cf573d6000803e3d6000fd5b505050506040513d601f19601f820116820180604052508101906114f391906145d9565b6001600160a01b0316336001600160a01b0316146115235760405162461bcd60e51b815260040161116a90614ef4565b80803515801590611538575060008160400135115b8015611548575060008160600135115b6115815760405162461bcd60e51b815260206004820152600a60248201526957524f4e475f4645455360b01b604482015260640161116a565b6004546000908152600a60205260409020829061159e8282615704565b5050600480547f59fdca5c5019c8bddf5b408b17992d0fce838508a49ac6a398c8e06e645cfdf89160006115d183615664565b909155506040519081526020015b60405180910390a15050565b6000818152600660205260408120600d0154600281148061160c5750806003145b1561161a5750600092915050565b50600192915050565b6000828152600d602090815260408083208484529091529020545b92915050565b600060029054906101000a90046001600160a01b03166001600160a01b03166312d43a516040518163ffffffff1660e01b815260040160206040518083038186803b15801561169257600080fd5b505afa1580156116a6573d6000803e3d6000fd5b505050506040513d601f19601f820116820180604052508101906116ca91906145d9565b6001600160a01b0316336001600160a01b0316146116fa5760405162461bcd60e51b815260040161116a90614ef4565b600082815260066020908152604080832060028101548452600b9092529091205460ff1661173a5760405162461bcd60e51b815260040161116a90614ea3565b60008381526008602081815260409283902085358155908501356001820155848301356002820155606085013560038201556080850135600482015560a0850135600582015560c0850135600682015560e0850135600782015561010085013591810191909155610120840135600982015590517fb065caa6c83f0960c83293dac3e2885911a34fb60f81e3571b9e4c266de93c5290611254908590614f16565b60008060008060029054906101000a90046001600160a01b03166001600160a01b0316633078fff56040518163ffffffff1660e01b815260040160206040518083038186803b15801561182d57600080fd5b505afa158015611841573d6000803e3d6000fd5b505050506040513d601f19601f8201168201806040525081019061186591906145d9565b6001600160a01b0316336001600160a01b0316146118b75760405162461bcd60e51b815260206004820152600f60248201526e41474752454741544f525f4f4e4c5960881b604482015260640161116a565b600084815260066020818152604080842081516101a08101835281546101408201908152600183015461016083015260028301546101808301528152825180840184526003830154815260048301546001600160a01b031681860152818501526005820154818401529381015460608086019190915282516080818101855260078401548252600884015482870152600984015482860152600a8401548284015280870191909152600b8084015460a080890191909152600c85015460c0808a0191909152600d86015460e0808b0191909152600e8701546101008b015287519081018852600f87015481526010870154818a015260118701548189015260128701549581019590955260138601549385019390935260148501549084015260159093015460ff90811615159183019190915261012086019190915284518301518652925290922054909116611a1f5760405162461bcd60e51b815260040161116a90614ea3565b805160400151602080830151015160018054906000611a3d83615664565b91905055935093509350509193909250565b600060029054906101000a90046001600160a01b03166001600160a01b03166312d43a516040518163ffffffff1660e01b815260040160206040518083038186803b158015611a9d57600080fd5b505afa158015611ab1573d6000803e3d6000fd5b505050506040513d601f19601f82011682018060405250810190611ad591906145d9565b6001600160a01b0316336001600160a01b031614611b055760405162461bcd60e51b815260040161116a90614ef4565b6000828152600e602052604090208190611b1f82826159a0565b50506040518281527f049d8e73ae29fd805de1f8eae372a5020742554b37118c1e33687e89ef3027ff906020016115df565b600a602052806000526040600020600091509050806000015490806001015490806002015490806003015490806004016040518060600160405290816000820154815260200160018201805480602002602001604051908101604052809291908181526020018280548015611be557602002820191906000526020600020905b815481526020019060010190808311611bd1575b5050505050815260200160028201805480602002602001604051908101604052809291908181526020018280548015611c3d57602002820191906000526020600020905b815481526020019060010190808311611c29575b505050505081525050905085565b600054604080516312d43a5160e01b815290517392ed158d5e423cfdc9eed5bd7328fff7ced6ff94926201000090046001600160a01b0316916312d43a51916004808301926020929190829003018186803b158015611ca957600080fd5b505afa158015611cbd573d6000803e3d6000fd5b505050506040513d601f19601f82011682018060405250810190611ce191906145d9565b6001600160a01b0316336001600160a01b03161480611d085750336001600160a01b038216145b611d245760405162461bcd60e51b815260040161116a90614ef4565b611d2f826001615369565b6001555050565b600060029054906101000a90046001600160a01b03166001600160a01b031662b127836040518163ffffffff1660e01b815260040160206040518083038186803b158015611d8357600080fd5b505afa158015611d97573d6000803e3d6000fd5b505050506040513d601f19601f82011682018060405250810190611dbb91906145d9565b6001600160a01b0316336001600160a01b031614611e0c5760405162461bcd60e51b815260206004820152600e60248201526d43414c4c4241434b535f4f4e4c5960901b604482015260640161116a565b6000848152600660209081526040808320600d01548352600c90915281209083611e37576001611e3a565b60005b60ff1690508215611e735784828260028110611e5857611e586156cb565b016000828254611e689190615369565b90915550611ec89050565b84828260028110611e8657611e866156cb565b015411611e94576000611eb3565b84828260028110611ea757611ea76156cb565b0154611eb391906154a6565b828260028110611ec557611ec56156cb565b01555b505050505050565b6000546201000090046001600160a01b03163314611f1f5760405162461bcd60e51b815260206004820152600c60248201526b53544f524147455f4f4e4c5960a01b604482015260640161116a565b6001600160a01b039390931660009081526010602090815260408083209483529381528382209282529190915220805460ff1916911515919091179055565b600060029054906101000a90046001600160a01b03166001600160a01b03166312d43a516040518163ffffffff1660e01b815260040160206040518083038186803b158015611fac57600080fd5b505afa158015611fc0573d6000803e3d6000fd5b505050506040513d601f19601f82011682018060405250810190611fe491906145d9565b6001600160a01b0316336001600160a01b0316146120145760405162461bcd60e51b815260040161116a90614ef4565b80803515801590612029575060008160200135115b6120625760405162461bcd60e51b815260206004820152600a60248201526915d493d391d7d191515160b21b604482015260640161116a565b6101c08201356000818152600a60205260409020546120935760405162461bcd60e51b815260040161116a90614ecc565b600084815260066020908152604080832060028101548452600b9092529091205460ff166120d35760405162461bcd60e51b815260040161116a90614ea3565b60a0840135600582015560c0840135600682015560e0840135600782015561010084013560088201556101208401356009820155610140840135600a820155610160840135600b820155610180840135600c8201556101a0840135600d8201556101c0840135600e820155833581556020840135600182015560408401356002820155610260840135601382015561028084013560148201556101e0840135600f8201556102008401356010820155610220840135601182015561024084013560128201556121aa6102c085016102a0860161470c565b60158201805460ff19169115159190911790556060840135158015906121e9575060006121dd60a08601608087016145bc565b6001600160a01b031614155b156122085760608401600382016122008282615584565b905050612222565b600060038201556004810180546001600160a01b03191690555b6040518581527f123a1b961ae93e7acda9790b318237b175b45ac09277cd3614305d8baa3f1953906020015b60405180910390a15050505050565b600080846122745761226f8688615467565b61227e565b61227e8787615467565b905060006122936402540be4006063196153c3565b6000858152600660205260408120600f0154919250906122b9906402540be400906153c3565b9050886122cb6402540be40088614291565b6122d68560646153c3565b6122e091906153c3565b6122ea9190615381565b9350818412612306578084136123005783612308565b80612308565b815b9998505050505050505050565b600081815260066020908152604080832060140154835482516337198e3d60e21b815292516064949293620100009092046001600160a01b03169263dc6638f49260048082019391829003018186803b15801561237157600080fd5b505afa158015612385573d6000803e3d6000fd5b505050506040513d601f19601f820116820180604052508101906123a991906147ec565b6123b39190615448565b61163e91906153af565b6000818152600660209081526040808320600d01548352600c90915281206001810154905461163e9190615369565b600054604080516312d43a5160e01b815290517392ed158d5e423cfdc9eed5bd7328fff7ced6ff94926201000090046001600160a01b0316916312d43a51916004808301926020929190829003018186803b15801561244a57600080fd5b505afa15801561245e573d6000803e3d6000fd5b505050506040513d601f19601f8201168201806040525081019061248291906145d9565b6001600160a01b0316336001600160a01b031614806124a95750336001600160a01b038216145b6124c55760405162461bcd60e51b815260040161116a90614ef4565b506000928352600660209081526040808520600d01548552600c90915290922090815560010155565b60008281526011602052604081206002810154829061250f906001906154a6565b90505b801561255b57600081815260038301602052604090205484111561254957600090815260049091016020526040902054905061163e565b8061255381615618565b915050612512565b506000949350505050565b600060029054906101000a90046001600160a01b03166001600160a01b03166312d43a516040518163ffffffff1660e01b815260040160206040518083038186803b1580156125b457600080fd5b505afa1580156125c8573d6000803e3d6000fd5b505050506040513d601f19601f820116820180604052508101906125ec91906145d9565b6001600160a01b0316336001600160a01b03161461261c5760405162461bcd60e51b815260040161116a90614ef4565b600081815260066020908152604080832060028101548452600b9092529091205460ff1661265c5760405162461bcd60e51b815260040161116a90614ea3565b60028101546000908152600b602052604090819020805460ff19169055517fbc60496f15270554a3788ef8ac1a84e07392d3d0d3ac1cd4235eb12e44796b80906115df9084815260200190565b6000808212156126bb575060006110ad565b60005b6000858152600a6020526040902060040154811015612723576000858152600a602052604090206005018054829081106126fa576126fa6156cb565b906000526020600020015483101561271157612723565b8061271b81615664565b9150506126be565b600060646402540be4006127378688615448565b61274191906153af565b61274b91906153af565b6000878152600a6020526040902060060180549192506064916402540be4009184918690811061277d5761277d6156cb565b90600052602060002001546127929190615448565b61279c91906153af565b6127a691906153af565b9695505050505050565b600060029054906101000a90046001600160a01b03166001600160a01b03166312d43a516040518163ffffffff1660e01b815260040160206040518083038186803b1580156127fe57600080fd5b505afa158015612812573d6000803e3d6000fd5b505050506040513d601f19601f8201168201806040525081019061283691906145d9565b6001600160a01b0316336001600160a01b0316146128665760405162461bcd60e51b815260040161116a90614ef4565b60008281526009602052604090206001015482906128b95760405162461bcd60e51b815260206004820152601060248201526f11d493d55417d393d517d31254d5115160821b604482015260640161116a565b81600084815260096020526040902083906128d482826157e1565b50506040518481527fcfde8f228364c70f12cbbac5a88fc91ceca76dd750ac93364991a333b34afb8e90602001611254565b6000806064612914846129e4565b6000858152600660205260409020601301546129309190615448565b61293a91906153af565b6000848152600660205260409020601101549091506064906110a39083615448565b6129646142a3565b6000828152600e6020908152604080832081516101608101909252909290918391908201908390600a90835b828210156129d657604080518082019182905290600284810287019182845b8154815260200190600101908083116129af57505050505081526020019060010190612990565b505050915250909392505050565b60006064600060029054906101000a90046001600160a01b03166001600160a01b0316638a4adf246040518163ffffffff1660e01b815260040160206040518083038186803b158015612a3657600080fd5b505afa158015612a4a573d6000803e3d6000fd5b505050506040513d601f19601f82011682018060405250810190612a6e91906145d9565b6001600160a01b0316637b78d7826040518163ffffffff1660e01b815260040160206040518083038186803b158015612aa657600080fd5b505afa158015612aba573d6000803e3d6000fd5b505050506040513d601f19601f82011682018060405250810190612ade91906147ec565b6000848152600660209081526040808320600d0154835260099091529020600101546123b39190615448565b600060029054906101000a90046001600160a01b03166001600160a01b03166312d43a516040518163ffffffff1660e01b815260040160206040518083038186803b158015612b5857600080fd5b505afa158015612b6c573d6000803e3d6000fd5b505050506040513d601f19601f82011682018060405250810190612b9091906145d9565b6001600160a01b0316336001600160a01b031614612bc05760405162461bcd60e51b815260040161116a90614ef4565b60008a8152601160205260409020612bd9818b8b6142bb565b50612be86001820189896142bb565b506002810186905560005b86811015612c6f57858582818110612c0d57612c0d6156cb565b9050602002013582600301600083815260200190815260200160002081905550838382818110612c3f57612c3f6156cb565b60008481526004860160209081526040909120910292909201359091555080612c6781615664565b915050612bf3565b507f101f216063e0a5d147edef5989e1844bf35b58c1c0c4a89b55f32dec90a245e48b8b8b8b8b8b8b8b8b8b604051612cb19a99989796959493929190615200565b60405180910390a15050505050505050505050565b612cce61433f565b612cf4604051806060016040528060608152602001600081526020016000151581525090565b612cfc614421565b600084815260066020818152604080842081516101a08101835281546101408201908152600183015461016083015260028301546101808301528152825180840184526003830154815260048301546001600160a01b03168186015281850152600582015481840152938101546060808601919091528251608081810185526007840154825260088401548287015260098085015483870152600a808601548486015282890193909352600b85015460a0808a0191909152600c86015460c0808b0191909152600d87015460e0808c01918252600e8901546101008d019081528a519182018b52600f8a0154825260108a0154828d015260118a0154828c015260128a0154828a015260138a01549682019690965260148901549381019390935260159097015460ff161515908201526101208901529351885292855283872092518752909352938190208151928301909152835492938493909290839082908290612e679061562f565b80601f0160208091040260200160405190810160405280929190818152602001828054612e939061562f565b8015612ee05780601f10612eb557610100808354040283529160200191612ee0565b820191906000526020600020905b815481529060010190602001808311612ec357829003601f168201915b50505050508152602001600182015481526020016002820160009054906101000a900460ff1615151515815250509150806040518060a001604052908160008201548152602001600182015481526020016002820154815260200160038201548152602001600482016040518060600160405290816000820154815260200160018201805480602002602001604051908101604052809291908181526020018280548015612fad57602002820191906000526020600020905b815481526020019060010190808311612f99575b505050505081526020016002820180548060200260200160405190810160405280929190818152602001828054801561300557602002820191906000526020600020905b815481526020019060010190808311612ff1575b5050509190925250505090525092989197509195509350505050565b600060029054906101000a90046001600160a01b03166001600160a01b03166312d43a516040518163ffffffff1660e01b815260040160206040518083038186803b15801561306f57600080fd5b505afa158015613083573d6000803e3d6000fd5b505050506040513d601f19601f820116820180604052508101906130a791906145d9565b6001600160a01b0316336001600160a01b0316146130d75760405162461bcd60e51b815260040161116a90614ef4565b8281146130e357600080fd5b60005b838110156131b6576032838383818110613102576131026156cb565b90506020020135101561314c5760405162461bcd60e51b81526020600482015260126024820152710a48a8482a88abe8ab0868a8a88a6be9a82b60731b604482015260640161116a565b82828281811061315e5761315e6156cb565b90506020020135600d6000888152602001908152602001600020600087878581811061318c5761318c6156cb565b90506020020135815260200190815260200160002081905550806131af90615664565b90506130e6565b507ff66559a3ee7945e0e49289392f86db1a3a3049abc2a1c89664a702fa04273227858585858560405161224e9594939291906151b9565b600060029054906101000a90046001600160a01b03166001600160a01b03166312d43a516040518163ffffffff1660e01b815260040160206040518083038186803b15801561323c57600080fd5b505afa158015613250573d6000803e3d6000fd5b505050506040513d601f19601f8201168201806040525081019061327491906145d9565b6001600160a01b0316336001600160a01b0316146132a45760405162461bcd60e51b815260040161116a90614ef4565b808035158015906132b9575060008160200135115b6132f25760405162461bcd60e51b815260206004820152600a60248201526915d493d391d7d191515160b21b604482015260640161116a565b6101a08201356000818152600960205260409020600101546133495760405162461bcd60e51b815260206004820152601060248201526f11d493d55417d393d517d31254d5115160821b604482015260640161116a565b6101c08301356000818152600a602052604090205461337a5760405162461bcd60e51b815260040161116a90614ecc565b6040808501356000908152600b602052205460ff16156133d25760405162461bcd60e51b81526020600482015260136024820152721410525497d053149150511657d31254d51151606a1b604482015260640161116a565b600254600090815260066020526040902084906133ef82826158fc565b50506040808501356000908152600b602052908120805460ff19166001179055600280547ff12b8f222c927a2f4e4a6e5f46768b7cf45296bf1a48d563c3e2341d4bbd56029290919061344183615664565b909155506040805191825286810135602083015201611254565b6009602052600090815260409020805481906134769061562f565b80601f01602080910402602001604051908101604052809291908181526020018280546134a29061562f565b80156134ef5780601f106134c4576101008083540402835291602001916134ef565b820191906000526020600020905b8154815290600101906020018083116134d257829003601f168201915b50505050600183015460029093015491929160ff16905083565b600060029054906101000a90046001600160a01b03166001600160a01b03166312d43a516040518163ffffffff1660e01b815260040160206040518083038186803b15801561355757600080fd5b505afa15801561356b573d6000803e3d6000fd5b505050506040513d601f19601f8201168201806040525081019061358f91906145d9565b6001600160a01b0316336001600160a01b0316146135bf5760405162461bcd60e51b815260040161116a90614ef4565b600082815260066020908152604080832060028101548452600b9092529091205460ff166135ff5760405162461bcd60e51b815260040161116a90614ea3565b60008381526007602081815260409283902085358155908501356001820155848301356002820155606085013560038201556080850135600482015560a0850135600582015560c0850135600682015560e0850135918101919091556101008401356008820155610120840135600982015590517faa40309aef879624006da7c0cefe8cb88b3ba84b79613bdcbba1dc3da2980a3890611254908590614f16565b6000816136be576000838152600660205260409020600701546110ad565b505060009081526006602052604090206009015490565b6000816136f3576000838152600660205260409020600801546110ad565b50506000908152600660205260409020600a015490565b600c602052816000526040600020816002811061372657600080fd5b01549150829050565b60116020526000908152604090208054819061374a9061562f565b80601f01602080910402602001604051908101604052809291908181526020018280546137769061562f565b80156137c35780601f10613798576101008083540402835291602001916137c3565b820191906000526020600020905b8154815290600101906020018083116137a657829003601f168201915b5050505050908060010180546137d89061562f565b80601f01602080910402602001604051908101604052809291908181526020018280546138049061562f565b80156138515780601f1061382657610100808354040283529160200191613851565b820191906000526020600020905b81548152906001019060200180831161383457829003601f168201915b5050505050908060020154905083565b6000606461386e836129e4565b6000848152600660205260409020601301546123b39190615448565b600060029054906101000a90046001600160a01b03166001600160a01b03166312d43a516040518163ffffffff1660e01b815260040160206040518083038186803b1580156138d857600080fd5b505afa1580156138ec573d6000803e3d6000fd5b505050506040513d601f19601f8201168201806040525081019061391091906145d9565b6001600160a01b0316336001600160a01b0316146139405760405162461bcd60e51b815260040161116a90614ef4565b806003546000908152600960205260409020829061395e82826157e1565b5050600380547faf17de8e82beccc440012117a600dc37e26925225d0f1ee192fc107eb3dcbca491600061399183615664565b9091555061399f84806152e2565b6040516115df939291906151e6565b600054610100900460ff16158080156139ce5750600054600160ff909116105b806139e85750303b1580156139e8575060005460ff166001145b613a4b5760405162461bcd60e51b815260206004820152602e60248201527f496e697469616c697a61626c653a20636f6e747261637420697320616c72656160448201526d191e481a5b9a5d1a585b1a5e995960921b606482015260840161116a565b6000805460ff191660011790558015613a6e576000805461ff0019166101001790555b60008211613aab5760405162461bcd60e51b815260206004820152600a60248201526904f524445525f49445f360b41b604482015260640161116a565b60018290556000805462010000600160b01b031916620100006001600160a01b038616021790558015613b18576000805461ff0019169055604051600181527f7f26b83ff96e1f2b6a682f133852f6798a09c465da95921460cefb38474024989060200160405180910390a15b505050565b6000831580613b5857506000828152600660205260409020600f0154613b49906402540be400906153c3565b613b56878686898761225d565b145b15611461576000828152600660205260408120600f0154606490613b82908890611429908b615448565b613b8c91906153af565b905083613bac5786811115613ba2576000611459565b61144a81886154a6565b6114598188615369565b6000818152601160205260408120805460609283929091839182918190613bdc9061562f565b80601f0160208091040260200160405190810160405280929190818152602001828054613c089061562f565b8015613c555780601f10613c2a57610100808354040283529160200191613c55565b820191906000526020600020905b815481529060010190602001808311613c3857829003601f168201915b50505050509550806001018054613c6b9061562f565b80601f0160208091040260200160405190810160405280929190818152602001828054613c979061562f565b8015613ce45780601f10613cb957610100808354040283529160200191613ce4565b820191906000526020600020905b815481529060010190602001808311613cc757829003601f168201915b5050505050945080600201549350836001600160401b03811115613d0a57613d0a6156e1565b604051908082528060200260200182016040528015613d33578160200160208202803683370190505b509250836001600160401b03811115613d4e57613d4e6156e1565b604051908082528060200260200182016040528015613d77578160200160208202803683370190505b50915060005b84811015613dfb5760008181526003830160205260409020548451859083908110613daa57613daa6156cb565b60200260200101818152505081600401600082815260200190815260200160002054838281518110613dde57613dde6156cb565b602090810291909101015280613df381615664565b915050613d7d565b505091939590929450565b600060029054906101000a90046001600160a01b03166001600160a01b03166312d43a516040518163ffffffff1660e01b815260040160206040518083038186803b158015613e5457600080fd5b505afa158015613e68573d6000803e3d6000fd5b505050506040513d601f19601f82011682018060405250810190613e8c91906145d9565b6001600160a01b0316336001600160a01b031614613ebc5760405162461bcd60e51b815260040161116a90614ef4565b6000828152600a60205260409020548290613ee95760405162461bcd60e51b815260040161116a90614ecc565b81803515801590613efe575060008160400135115b8015613f0e575060008160600135115b613f475760405162461bcd60e51b815260206004820152600a60248201526957524f4e475f4645455360b01b604482015260640161116a565b6000848152600a602052604090208390613f618282615704565b50506040518481527f8c4d35e54a3f2ef1134138fd8ea3daee6a3c89e10d2665996babdf70261e2c7690602001611254565b6000546201000090046001600160a01b03163314613fe25760405162461bcd60e51b815260206004820152600c60248201526b53544f524147455f4f4e4c5960a01b604482015260640161116a565b6001600160a01b039092166000908152601060209081526040808320938352928152828220938252929092529020805460ff19169055565b60008054604051639cb87f2360e01b8152600481018690526024810183905282916201000090046001600160a01b031690639cb87f239060440160206040518083038186803b15801561406c57600080fd5b505afa158015614080573d6000803e3d6000fd5b505050506040513d601f19601f820116820180604052508101906140a491906147ec565b60008054604051639cb87f2360e01b815260048101899052600160248201529293509091620100009091046001600160a01b031690639cb87f239060440160206040518083038186803b1580156140fa57600080fd5b505afa15801561410e573d6000803e3d6000fd5b505050506040513d601f19601f8201168201806040525081019061413291906147ec565b9050831561414b576141448583615369565b9150614158565b6141558582615369565b90505b60006141648284615369565b8561416f5783614171565b825b61417c906064615448565b61418691906153af565b6000888152600e60209081526040808320815161016081019092529394509192908290810182600a86835b828210156141f757604080518082019182905290600284810287019182845b8154815260200190600101908083116141d0575050505050815260200190600101906141b1565b5050509152509091506000905061420f600a846153af565b90506127106402540be400836000015183600a8110614230576142306156cb565b6020020151600160200201518451869085600a8110614251576142516156cb565b60200201515161426191906153c3565b61426b9190615328565b6142759190615448565b61230891906153af565b6000816110a36402540be40085615448565b60006402540be4006110a38385615448565b60405180602001604052806142b661446c565b905290565b8280546142c79061562f565b90600052602060002090601f0160209004810192826142e9576000855561432f565b82601f106143025782800160ff1982351617855561432f565b8280016001018555821561432f579182015b8281111561432f578235825591602001919060010190614314565b5061433b92915061449a565b5090565b604080516101a081018252600061014082018181526101608301829052610180830182905282528251808401909352808352602083810191909152909190820190815260200160008152602001600081526020016143be6040518060800160405280600081526020016000815260200160008152602001600081525090565b8152602001600081526020016000815260200160008152602001600081526020016142b66040518060e001604052806000815260200160008152602001600081526020016000815260200160008152602001600081526020016000151581525090565b6040518060a00160405280600081526020016000815260200160008152602001600081526020016142b660405180606001604052806000815260200160608152602001606081525090565b604051806101400160405280600a905b6144846144af565b81526020019060019003908161447c5790505090565b5b8082111561433b576000815560010161449b565b60405180604001604052806002906020820280368337509192915050565b60008083601f8401126144df57600080fd5b5081356001600160401b038111156144f657600080fd5b6020830191508360208260051b850101111561451157600080fd5b9250929050565b60008083601f84011261452a57600080fd5b5081356001600160401b0381111561454157600080fd5b60208301915083602082850101111561451157600080fd5b6000610140828403121561456c57600080fd5b50919050565b600060a0828403121561456c57600080fd5b60006060828403121561456c57600080fd5b60006102c0828403121561456c57600080fd5b6000610280828403121561456c57600080fd5b6000602082840312156145ce57600080fd5b81356110ad816159eb565b6000602082840312156145eb57600080fd5b81516110ad816159eb565b6000806040838503121561460957600080fd5b8235614614816159eb565b946020939093013593505050565b60008060006060848603121561463757600080fd5b8335614642816159eb565b95602085013595506040909401359392505050565b6000806000806080858703121561466d57600080fd5b8435614678816159eb565b93506020850135925060408501359150606085013561469681615a03565b939692955090935050565b600080600080604085870312156146b757600080fd5b84356001600160401b03808211156146ce57600080fd5b6146da888389016144cd565b909650945060208701359150808211156146f357600080fd5b50614700878288016144cd565b95989497509550505050565b60006020828403121561471e57600080fd5b81356110ad81615a03565b60006020828403121561473b57600080fd5b5035919050565b60006020828403121561475457600080fd5b81356001600160401b0381111561476a57600080fd5b61477684828501614572565b949350505050565b60006020828403121561479057600080fd5b81356001600160401b038111156147a657600080fd5b61477684828501614584565b60006102c082840312156147c557600080fd5b6110ad8383614596565b600061028082840312156147e257600080fd5b6110ad83836145a9565b6000602082840312156147fe57600080fd5b5051919050565b60008060008060006060868803121561481d57600080fd5b8535945060208601356001600160401b038082111561483b57600080fd5b61484789838a016144cd565b9096509450604088013591508082111561486057600080fd5b5061486d888289016144cd565b969995985093965092949392505050565b6000806040838503121561489157600080fd5b8235915060208301356148a381615a03565b809150509250929050565b60008060008060008060008060008060c08b8d0312156148cd57600080fd5b8a35995060208b01356001600160401b03808211156148eb57600080fd5b6148f78e838f01614518565b909b50995060408d013591508082111561491057600080fd5b61491c8e838f01614518565b909950975060608d0135965060808d013591508082111561493c57600080fd5b6149488e838f016144cd565b909650945060a08d013591508082111561496157600080fd5b5061496e8d828e016144cd565b915080935050809150509295989b9194979a5092959850565b600080610160838503121561499b57600080fd5b823591506149ac8460208501614559565b90509250929050565b600080604083850312156149c857600080fd5b8235915060208301356001600160401b038111156149e557600080fd5b6149f185828601614572565b9150509250929050565b60008060408385031215614a0e57600080fd5b8235915060208301356001600160401b03811115614a2b57600080fd5b6149f185828601614584565b6000806102e08385031215614a4b57600080fd5b823591506149ac8460208501614596565b6000806102a08385031215614a7057600080fd5b823591506149ac84602085016145a9565b60008060408385031215614a9457600080fd5b50508035926020909101359150565b600080600060608486031215614ab857600080fd5b83359250602084013591506040840135614ad181615a03565b809150509250925092565b60008060008060808587031215614af257600080fd5b84359350602085013592506040850135614b0b81615a03565b9150606085013561469681615a03565b600080600080600060a08688031215614b3357600080fd5b85359450602086013593506040860135614b4c81615a03565b94979396509394606081013594506080013592915050565b600080600060608486031215614b7957600080fd5b505081359360208301359350604090920135919050565b600080600080600060a08688031215614ba857600080fd5b8535945060208601359350604086013592506060860135614bc881615a03565b949793965091946080013592915050565b81835260006001600160fb1b03831115614bf257600080fd5b8260051b8083602087013760009401602001938452509192915050565b600081518084526020808501945080840160005b83811015614c3f57815187529582019590820190600101614c23565b509495945050505050565b81835281816020850137506000828201602090810191909152601f909101601f19169091010190565b6000815180845260005b81811015614c9957602081850181015186830182015201614c7d565b81811115614cab576000602083870101525b50601f01601f19169290920160200192915050565b805182526020810151602083015260408101516040830152606081015160608301526000608082015160a0608085015261477660a0850182614d34565b6000815160608452614d126060850182614c73565b9050602083015160208501526040830151151560408501528091505092915050565b805182526000602082015160606020850152614d536060850182614c0f565b9050604083015184820360408601526114648282614c0f565b805182526020810151602083015260408101516040830152606081015160608301526080810151608083015260a081015160a083015260c0810151151560c08301525050565b604081526000614dc6604083018688614bd9565b8281036020840152614dd9818587614bd9565b979650505050505050565b606081526000614df76060830186614c73565b8281036020840152614e098186614c73565b915050826040830152949350505050565b60a081526000614e2d60a0830188614c73565b8281036020840152614e3f8188614c73565b90508560408401528281036060840152614e598186614c0f565b90508281036080840152614e6d8185614c0f565b98975050505050505050565b606081526000614e8c6060830186614c73565b602083019490945250901515604090910152919050565b6020808252600f908201526e1410525497d393d517d31254d51151608a1b604082015260600190565b6020808252600e908201526d11915157d393d517d31254d5115160921b604082015260600190565b602080825260089082015267474f565f4f4e4c5960c01b604082015260600190565b610140810161163e8284803582526020810135602083015260408101356040830152606081013560608301526080810135608083015260a081013560a083015260c081013560c083015260e081013560e08301526101008082013581840152506101208082013581840152505050565b815181526020808301516001600160a01b0316908201526040810161163e565b8151815260208083015190820152604080830151908201526060810161163e565b8a5181526020808c0151908201526040808c0151908201526102c081018a51606083015260208b01516001600160a01b0316608083015260a082018a905260c08201899052875160e08301526020880151610100830152604088015161012083015260608801516101408301528661016083015285610180830152846101a0830152836101c083015261505e6101e0830184614d6c565b9b9a5050505050505050505050565b60006103006150918387518051825260208082015190830152604090810151910152565b60208681015180516060860152908101516001600160a01b031660808501525060408681015160a085015260608088015160c08601526080880151805160e08701526020810151610100870152918201516101208601528101516101408501525060a086015161016084015260c086015161018084015260e08601516101a08401526101008601516101c08401526101208601516151336101e0850182614d6c565b50806102c084015261514781840186614cfd565b90508281036102e08401526127a68185614cc0565b8151610280820190826000805b600a8110156151af57835183835b6002811015615196578251825260209283019290910190600101615177565b5050506020939093019260409290920191600101615169565b5050505092915050565b8581526060602082015260006151d3606083018688614bd9565b8281036040840152614e6d818587614bd9565b838152604060208201526000611464604083018486614c4a565b8a815260c06020820152600061521a60c083018b8d614c4a565b828103604084015261522d818a8c614c4a565b90508760608401528281036080840152615248818789614bd9565b905082810360a084015261525d818587614bd9565b9d9c50505050505050505050505050565b85815284602082015283604082015282606082015260a060808201526000614dd960a0830184614d34565b6000808335601e198436030181126152b057600080fd5b8301803591506001600160401b038211156152ca57600080fd5b6020019150600581901b360382131561451157600080fd5b6000808335601e198436030181126152f957600080fd5b8301803591506001600160401b0382111561531357600080fd5b60200191503681900382131561451157600080fd5b600080821280156001600160ff1b038490038513161561534a5761534a61569f565b600160ff1b83900384128116156153635761536361569f565b50500190565b6000821982111561537c5761537c61569f565b500190565b600082615390576153906156b5565b600160ff1b8214600019841416156153aa576153aa61569f565b500590565b6000826153be576153be6156b5565b500490565b60006001600160ff1b03818413828413808216868404861116156153e9576153e961569f565b600160ff1b60008712828116878305891216156154085761540861569f565b600087129250878205871284841616156154245761542461569f565b8785058712818416161561543a5761543a61569f565b505050929093029392505050565b60008160001904831182151516156154625761546261569f565b500290565b60008083128015600160ff1b8501841216156154855761548561569f565b6001600160ff1b03840183138116156154a0576154a061569f565b50500390565b6000828210156154b8576154b861569f565b500390565b601f821115613b1857806000526020600020601f840160051c810160208510156154e45750805b6154f6601f850160051c8301826154fd565b5050505050565b5b8181101561551257600081556001016154fe565b5050565b600160401b83111561552a5761552a6156e1565b8054838255808410156155505781600052602060002061554e8282018683016154fd565b505b50818160005260208060002060005b8681101561557b5783358255928201926001918201910161555f565b50505050505050565b8135815560018101602083013561559a816159eb565b81546001600160a01b0319166001600160a01b03919091161790555050565b813581556020820135600182015560408201356002820155606082013560038201556080820135600482015560a0820135600582015560c08201356155fd81615a03565b60068201805482151560ff1660ff1991909116179055505050565b6000816156275761562761569f565b506000190190565b600181811c9082168061564357607f821691505b6020821081141561456c57634e487b7160e01b600052602260045260246000fd5b60006000198214156156785761567861569f565b5060010190565b600060ff821660ff8114156156965761569661569f565b60010192915050565b634e487b7160e01b600052601160045260246000fd5b634e487b7160e01b600052601260045260246000fd5b634e487b7160e01b600052603260045260246000fd5b634e487b7160e01b600052604160045260246000fd5b6000813561163e81615a03565b8135815560016020808401358284015560408401356002840155606084013560038401556080840135605e1985360301811261573f57600080fd5b8401803560048501556005840161575883830183615299565b600160401b81111561576c5761576c6156e1565b82548184558082101561579157836000528560002061578f8282018483016154fd565b505b506000928352848320925b818110156157b757823584559286019291850191860161579c565b505050506157c86040820182615299565b93509150506157db828260068601615516565b50505050565b8135601e198336030181126157f557600080fd5b820180356001600160401b0381111561580d57600080fd5b6020813603818401131561582057600080fd5b6158348261582e865461562f565b866154bd565b6000601f83116001811461586a576000841561585257508482018301355b600019600386901b1c1916600185901b1786556158c7565b600086815260209020601f19851690835b8281101561589c57878501860135825593850193600190910190850161587b565b50858210156158bb5760001960f88760031b161c198585890101351681555b505060018460011b0186555b505084013560018401555061551290506158e3604084016156f7565b6002830160ff1981541660ff8315151681178255505050565b8135815560208201356001820155604082013560028201556159246060830160038301615584565b60a0820135600582015560c0820135600682015560e0820135600782015561010082013560088201556101208201356009820155610140820135600a820155610160820135600b820155610180820135600c8201556101a0820135600d8201556101c0820135600e8201556155126101e08301600f83016155b9565b81816000805b600a811015611ec8578383835b60028110156159d25782358255602090920191600191820191016159b3565b50505060409390930192600292909201916001016159a6565b6001600160a01b0381168114615a0057600080fd5b50565b8015158114615a0057600080fdfea2646970667358221220afdf1678dc368ac0a486f0920c5e48af2fe9c34ce59dd170f987b8e1bb46202d64736f6c63430008070033","linkReferences":{}},"methodIdentifiers":{"addFee((uint256,uint256,uint256,uint256,(uint256,uint256[],uint256[])))":"223673e5","addGroup((string,uint256,bool))":"befef00b","addPair(((uint256,uint256,bytes32),(uint256,address),uint256,uint256,(uint256,uint256,uint256,uint256),uint256,int256,uint256,uint256,(int256,int256,uint256,uint256,uint256,uint256,bool)))":"95fe9139","addSkewOpenFees((int256[2][10]))":"1a67bacc","addtionalPairParams(uint256)":"93cf8ed3","blockOILimit(uint256)":"9ae6b9e0","correctSl(uint256,uint256,uint256,bool,uint256)":"21371f5e","correctTp(uint256,uint256,uint256,bool,uint256)":"daefa145","currentOrderId()":"925931fc","currentPercentProfit(uint256,uint256,bool,uint256,uint256)":"54d7dccb","delistPair(uint256)":"74db8c89","fees(uint256)":"4acc79ed","feesCount()":"658de48a","getPairData(uint256)":"e14ed995","getPnlBasedFee(uint256,uint256,int256)":"7719d43c","getPosType(address,uint256,uint256)":"c5f5951a","getSkewParams(uint256)":"8a549af7","groupMaxOI(uint256)":"8c9a0ea4","groupOI(uint256)":"5e4f8f59","groupOIs(uint256,uint256)":"a1ead064","groups(uint256)":"96324bd4","groupsCount()":"885e2750","guaranteedSlEnabled(uint256)":"24abd3fb","initialize(address,uint256)":"cd6dc687","isDynamicSpreadEnabled(uint256)":"69d4bda3","isPairListed(bytes32)":"5b3f8855","isUSDCAligned(uint256)":"6dc37de3","lossProtection(uint256,uint256)":"15b40d91","lossProtectionMultiplier(uint256,uint256)":"2b1cbe9d","maxWalletOI(uint256)":"56e5536c","openCloseThreshold(uint256,uint256)":"737113b5","openPosType(address,uint256,uint256)":"c9fb8b20","pairBackupFeed(uint256)":"685e905b","pairCloseFeeP(uint256)":"836a341a","pairData(uint256)":"af11959f","pairFeed(uint256)":"1eaa005c","pairGroupIndex(uint256)":"3c44d0a3","pairJob(uint256)":"302f81fc","pairLimitOrderFeeP(uint256)":"649a6488","pairMaxLeverage(uint256,bool)":"9b2f6cab","pairMaxLongOI(uint256)":"87698869","pairMaxOI(uint256)":"b2e1b2d6","pairMaxShortOI(uint256)":"108c3587","pairMinLevPosUSDC(uint256)":"238cd23f","pairMinLeverage(uint256,bool)":"995b7656","pairOpenFeeP(uint256,uint256,bool)":"fb3e519d","pairParams(uint256)":"42dee1ad","pairPriceImpactMultiplier(uint256)":"5fc8cd28","pairSkewImpactMultiplier(uint256)":"e8b50f84","pairSpreadP(uint256,bool)":"12f070cd","pairs(uint256)":"b91ac788","pairsBackend(uint256)":"9567dccf","pairsCount()":"b81b2b71","resetPosType(address,uint256,uint256)":"f80aa68b","setBlockOILImits(uint256[],uint256[])":"10ed4088","setPairData(uint256,string,string,uint256,uint256[],uint256[])":"8f6d1431","skewedFeesCount()":"6d8b5224","spreadCaps(uint256)":"d703fb08","storageT()":"16fff074","storePosType(address,uint256,uint256,bool)":"503a202f","syncGroupOI(uint256,uint256,uint256)":"72282ebe","syncOrderId(uint256)":"4e1d47ea","udpateSkewOpenFees(uint256,(int256[2][10]))":"3d7a5f1a","updateAdditionalPairParams(uint256,(uint256,uint256,uint256,uint256,uint256,uint256,uint256,uint256,uint256,uint256))":"2bf6ae41","updateFee(uint256,(uint256,uint256,uint256,uint256,(uint256,uint256[],uint256[])))":"f11bbcc0","updateGroup(uint256,(string,uint256,bool))":"7c07e445","updateGroupOI(uint256,uint256,bool,bool)":"4ffe8aec","updateLossProtectionMultiplier(uint256,uint256[],uint256[])":"9586621f","updatePair(uint256,((uint256,uint256,bytes32),(uint256,address),uint256,uint256,(uint256,uint256,uint256,uint256),uint256,int256,uint256,uint256,(int256,int256,uint256,uint256,uint256,uint256,bool)))":"54219e62","updatePairParams(uint256,(uint256,uint256,uint256,uint256,uint256,uint256,uint256,uint256,uint256,uint256))":"97db4538"},"id":70}