{"abi":[{"type":"constructor","inputs":[],"stateMutability":"nonpayable"},{"type":"function","name":"addFee","inputs":[{"name":"_fee","type":"tuple","internalType":"struct IPairStorage.Fee","components":[{"name":"name","type":"string","internalType":"string"},{"name":"openFeeP","type":"uint256","internalType":"uint256"},{"name":"closeFeeP","type":"uint256","internalType":"uint256"},{"name":"limitOrderFeeP","type":"uint256","internalType":"uint256"},{"name":"minLevPosUSDC","type":"uint256","internalType":"uint256"}]}],"outputs":[],"stateMutability":"nonpayable"},{"type":"function","name":"addGroup","inputs":[{"name":"_group","type":"tuple","internalType":"struct IPairStorage.Group","components":[{"name":"name","type":"string","internalType":"string"},{"name":"minLeverage","type":"uint256","internalType":"uint256"},{"name":"maxLeverage","type":"uint256","internalType":"uint256"},{"name":"maxOpenInterestP","type":"uint256","internalType":"uint256"}]}],"outputs":[],"stateMutability":"nonpayable"},{"type":"function","name":"addPair","inputs":[{"name":"_pair","type":"tuple","internalType":"struct IPairStorage.Pair","components":[{"name":"from","type":"string","internalType":"string"},{"name":"to","type":"string","internalType":"string"},{"name":"feed","type":"tuple","internalType":"struct IPairStorage.Feed","components":[{"name":"maxDeviationP","type":"uint256","internalType":"uint256"},{"name":"feedId","type":"bytes32","internalType":"bytes32"}]},{"name":"backupFeed","type":"tuple","internalType":"struct IPairStorage.BackupFeed","components":[{"name":"maxDeviationP","type":"uint256","internalType":"uint256"},{"name":"feedId","type":"address","internalType":"address"}]},{"name":"spreadP","type":"uint256","internalType":"uint256"},{"name":"priceImpactMultiplier","type":"uint256","internalType":"uint256"},{"name":"skewImpactMultiplier","type":"int256","internalType":"int256"},{"name":"groupIndex","type":"uint256","internalType":"uint256"},{"name":"feeIndex","type":"uint256","internalType":"uint256"},{"name":"groupOpenInterestPecentage","type":"uint256","internalType":"uint256"},{"name":"maxWalletOI","type":"uint256","internalType":"uint256"}]}],"outputs":[],"stateMutability":"nonpayable"},{"type":"function","name":"addSkewOpenFees","inputs":[{"name":"_skewFee","type":"tuple","internalType":"struct IPairStorage.SkewFee","components":[{"name":"eqParams","type":"int256[2][10]","internalType":"int256[2][10]"}]}],"outputs":[],"stateMutability":"nonpayable"},{"type":"function","name":"blockOILimit","inputs":[{"name":"","type":"uint256","internalType":"uint256"}],"outputs":[{"name":"","type":"uint256","internalType":"uint256"}],"stateMutability":"view"},{"type":"function","name":"currentOrderId","inputs":[],"outputs":[{"name":"","type":"uint256","internalType":"uint256"}],"stateMutability":"view"},{"type":"function","name":"delistPair","inputs":[{"name":"_pairIndex","type":"uint256","internalType":"uint256"}],"outputs":[],"stateMutability":"nonpayable"},{"type":"function","name":"fees","inputs":[{"name":"","type":"uint256","internalType":"uint256"}],"outputs":[{"name":"name","type":"string","internalType":"string"},{"name":"openFeeP","type":"uint256","internalType":"uint256"},{"name":"closeFeeP","type":"uint256","internalType":"uint256"},{"name":"limitOrderFeeP","type":"uint256","internalType":"uint256"},{"name":"minLevPosUSDC","type":"uint256","internalType":"uint256"}],"stateMutability":"view"},{"type":"function","name":"feesCount","inputs":[],"outputs":[{"name":"","type":"uint256","internalType":"uint256"}],"stateMutability":"view"},{"type":"function","name":"groupMaxOI","inputs":[{"name":"_pairIndex","type":"uint256","internalType":"uint256"}],"outputs":[{"name":"","type":"uint256","internalType":"uint256"}],"stateMutability":"view"},{"type":"function","name":"groupOI","inputs":[{"name":"_pairIndex","type":"uint256","internalType":"uint256"}],"outputs":[{"name":"","type":"uint256","internalType":"uint256"}],"stateMutability":"view"},{"type":"function","name":"groupOIs","inputs":[{"name":"","type":"uint256","internalType":"uint256"},{"name":"","type":"uint256","internalType":"uint256"}],"outputs":[{"name":"","type":"uint256","internalType":"uint256"}],"stateMutability":"view"},{"type":"function","name":"groups","inputs":[{"name":"","type":"uint256","internalType":"uint256"}],"outputs":[{"name":"name","type":"string","internalType":"string"},{"name":"minLeverage","type":"uint256","internalType":"uint256"},{"name":"maxLeverage","type":"uint256","internalType":"uint256"},{"name":"maxOpenInterestP","type":"uint256","internalType":"uint256"}],"stateMutability":"view"},{"type":"function","name":"groupsCount","inputs":[],"outputs":[{"name":"","type":"uint256","internalType":"uint256"}],"stateMutability":"view"},{"type":"function","name":"guaranteedSlEnabled","inputs":[{"name":"_pairIndex","type":"uint256","internalType":"uint256"}],"outputs":[{"name":"","type":"bool","internalType":"bool"}],"stateMutability":"view"},{"type":"function","name":"initialize","inputs":[{"name":"_storageT","type":"address","internalType":"address"},{"name":"_currentOrderId","type":"uint256","internalType":"uint256"}],"outputs":[],"stateMutability":"nonpayable"},{"type":"function","name":"isPairListed","inputs":[{"name":"","type":"string","internalType":"string"},{"name":"","type":"string","internalType":"string"}],"outputs":[{"name":"","type":"bool","internalType":"bool"}],"stateMutability":"view"},{"type":"function","name":"isUSDCAligned","inputs":[{"name":"_pairIndex","type":"uint256","internalType":"uint256"}],"outputs":[{"name":"","type":"bool","internalType":"bool"}],"stateMutability":"view"},{"type":"function","name":"lossProtection","inputs":[{"name":"","type":"uint256","internalType":"uint256"},{"name":"","type":"uint256","internalType":"uint256"}],"outputs":[{"name":"","type":"uint256","internalType":"uint256"}],"stateMutability":"view"},{"type":"function","name":"lossProtectionMultiplier","inputs":[{"name":"_pairIndex","type":"uint256","internalType":"uint256"},{"name":"_tier","type":"uint256","internalType":"uint256"}],"outputs":[{"name":"","type":"uint256","internalType":"uint256"}],"stateMutability":"view"},{"type":"function","name":"maxWalletOI","inputs":[{"name":"_pairIndex","type":"uint256","internalType":"uint256"}],"outputs":[{"name":"","type":"uint256","internalType":"uint256"}],"stateMutability":"view"},{"type":"function","name":"pairBackupFeed","inputs":[{"name":"_pairIndex","type":"uint256","internalType":"uint256"}],"outputs":[{"name":"","type":"tuple","internalType":"struct IPairStorage.BackupFeed","components":[{"name":"maxDeviationP","type":"uint256","internalType":"uint256"},{"name":"feedId","type":"address","internalType":"address"}]}],"stateMutability":"view"},{"type":"function","name":"pairCloseFeeP","inputs":[{"name":"_pairIndex","type":"uint256","internalType":"uint256"}],"outputs":[{"name":"","type":"uint256","internalType":"uint256"}],"stateMutability":"view"},{"type":"function","name":"pairFeed","inputs":[{"name":"_pairIndex","type":"uint256","internalType":"uint256"}],"outputs":[{"name":"","type":"tuple","internalType":"struct IPairStorage.Feed","components":[{"name":"maxDeviationP","type":"uint256","internalType":"uint256"},{"name":"feedId","type":"bytes32","internalType":"bytes32"}]}],"stateMutability":"view"},{"type":"function","name":"pairGroupIndex","inputs":[{"name":"_pairIndex","type":"uint256","internalType":"uint256"}],"outputs":[{"name":"","type":"uint256","internalType":"uint256"}],"stateMutability":"view"},{"type":"function","name":"pairJob","inputs":[{"name":"_pairIndex","type":"uint256","internalType":"uint256"}],"outputs":[{"name":"","type":"string","internalType":"string"},{"name":"","type":"string","internalType":"string"},{"name":"","type":"bytes32","internalType":"bytes32"},{"name":"","type":"address","internalType":"address"},{"name":"","type":"uint256","internalType":"uint256"}],"stateMutability":"nonpayable"},{"type":"function","name":"pairLimitOrderFeeP","inputs":[{"name":"_pairIndex","type":"uint256","internalType":"uint256"}],"outputs":[{"name":"","type":"uint256","internalType":"uint256"}],"stateMutability":"view"},{"type":"function","name":"pairMaxLeverage","inputs":[{"name":"_pairIndex","type":"uint256","internalType":"uint256"}],"outputs":[{"name":"","type":"uint256","internalType":"uint256"}],"stateMutability":"view"},{"type":"function","name":"pairMaxOI","inputs":[{"name":"_pairIndex","type":"uint256","internalType":"uint256"}],"outputs":[{"name":"","type":"uint256","internalType":"uint256"}],"stateMutability":"view"},{"type":"function","name":"pairMinLevPosUSDC","inputs":[{"name":"_pairIndex","type":"uint256","internalType":"uint256"}],"outputs":[{"name":"","type":"uint256","internalType":"uint256"}],"stateMutability":"view"},{"type":"function","name":"pairMinLeverage","inputs":[{"name":"_pairIndex","type":"uint256","internalType":"uint256"}],"outputs":[{"name":"","type":"uint256","internalType":"uint256"}],"stateMutability":"view"},{"type":"function","name":"pairOpenFeeP","inputs":[{"name":"_pairIndex","type":"uint256","internalType":"uint256"},{"name":"_leveragedPosition","type":"uint256","internalType":"uint256"},{"name":"_buy","type":"bool","internalType":"bool"}],"outputs":[{"name":"","type":"uint256","internalType":"uint256"}],"stateMutability":"view"},{"type":"function","name":"pairPriceImpactMultiplier","inputs":[{"name":"_pairIndex","type":"uint256","internalType":"uint256"}],"outputs":[{"name":"","type":"uint256","internalType":"uint256"}],"stateMutability":"view"},{"type":"function","name":"pairSkewImpactMultiplier","inputs":[{"name":"_pairIndex","type":"uint256","internalType":"uint256"}],"outputs":[{"name":"","type":"int256","internalType":"int256"}],"stateMutability":"view"},{"type":"function","name":"pairSpreadP","inputs":[{"name":"_pairIndex","type":"uint256","internalType":"uint256"}],"outputs":[{"name":"","type":"uint256","internalType":"uint256"}],"stateMutability":"view"},{"type":"function","name":"pairs","inputs":[{"name":"","type":"uint256","internalType":"uint256"}],"outputs":[{"name":"from","type":"string","internalType":"string"},{"name":"to","type":"string","internalType":"string"},{"name":"feed","type":"tuple","internalType":"struct IPairStorage.Feed","components":[{"name":"maxDeviationP","type":"uint256","internalType":"uint256"},{"name":"feedId","type":"bytes32","internalType":"bytes32"}]},{"name":"backupFeed","type":"tuple","internalType":"struct IPairStorage.BackupFeed","components":[{"name":"maxDeviationP","type":"uint256","internalType":"uint256"},{"name":"feedId","type":"address","internalType":"address"}]},{"name":"spreadP","type":"uint256","internalType":"uint256"},{"name":"priceImpactMultiplier","type":"uint256","internalType":"uint256"},{"name":"skewImpactMultiplier","type":"int256","internalType":"int256"},{"name":"groupIndex","type":"uint256","internalType":"uint256"},{"name":"feeIndex","type":"uint256","internalType":"uint256"},{"name":"groupOpenInterestPecentage","type":"uint256","internalType":"uint256"},{"name":"maxWalletOI","type":"uint256","internalType":"uint256"}],"stateMutability":"view"},{"type":"function","name":"pairsBackend","inputs":[{"name":"_index","type":"uint256","internalType":"uint256"}],"outputs":[{"name":"","type":"tuple","internalType":"struct IPairStorage.Pair","components":[{"name":"from","type":"string","internalType":"string"},{"name":"to","type":"string","internalType":"string"},{"name":"feed","type":"tuple","internalType":"struct IPairStorage.Feed","components":[{"name":"maxDeviationP","type":"uint256","internalType":"uint256"},{"name":"feedId","type":"bytes32","internalType":"bytes32"}]},{"name":"backupFeed","type":"tuple","internalType":"struct IPairStorage.BackupFeed","components":[{"name":"maxDeviationP","type":"uint256","internalType":"uint256"},{"name":"feedId","type":"address","internalType":"address"}]},{"name":"spreadP","type":"uint256","internalType":"uint256"},{"name":"priceImpactMultiplier","type":"uint256","internalType":"uint256"},{"name":"skewImpactMultiplier","type":"int256","internalType":"int256"},{"name":"groupIndex","type":"uint256","internalType":"uint256"},{"name":"feeIndex","type":"uint256","internalType":"uint256"},{"name":"groupOpenInterestPecentage","type":"uint256","internalType":"uint256"},{"name":"maxWalletOI","type":"uint256","internalType":"uint256"}]},{"name":"","type":"tuple","internalType":"struct IPairStorage.Group","components":[{"name":"name","type":"string","internalType":"string"},{"name":"minLeverage","type":"uint256","internalType":"uint256"},{"name":"maxLeverage","type":"uint256","internalType":"uint256"},{"name":"maxOpenInterestP","type":"uint256","internalType":"uint256"}]},{"name":"","type":"tuple","internalType":"struct IPairStorage.Fee","components":[{"name":"name","type":"string","internalType":"string"},{"name":"openFeeP","type":"uint256","internalType":"uint256"},{"name":"closeFeeP","type":"uint256","internalType":"uint256"},{"name":"limitOrderFeeP","type":"uint256","internalType":"uint256"},{"name":"minLevPosUSDC","type":"uint256","internalType":"uint256"}]}],"stateMutability":"view"},{"type":"function","name":"pairsCount","inputs":[],"outputs":[{"name":"","type":"uint256","internalType":"uint256"}],"stateMutability":"view"},{"type":"function","name":"setBlockOILImits","inputs":[{"name":"_pairIndex","type":"uint256[]","internalType":"uint256[]"},{"name":"_limits","type":"uint256[]","internalType":"uint256[]"}],"outputs":[],"stateMutability":"nonpayable"},{"type":"function","name":"skewedFeesCount","inputs":[],"outputs":[{"name":"","type":"uint256","internalType":"uint256"}],"stateMutability":"view"},{"type":"function","name":"storageT","inputs":[],"outputs":[{"name":"","type":"address","internalType":"contract ITradingStorage"}],"stateMutability":"view"},{"type":"function","name":"udpateSkewOpenFees","inputs":[{"name":"_pairIndex","type":"uint256","internalType":"uint256"},{"name":"_skewFee","type":"tuple","internalType":"struct IPairStorage.SkewFee","components":[{"name":"eqParams","type":"int256[2][10]","internalType":"int256[2][10]"}]}],"outputs":[],"stateMutability":"nonpayable"},{"type":"function","name":"updateFee","inputs":[{"name":"_id","type":"uint256","internalType":"uint256"},{"name":"_fee","type":"tuple","internalType":"struct IPairStorage.Fee","components":[{"name":"name","type":"string","internalType":"string"},{"name":"openFeeP","type":"uint256","internalType":"uint256"},{"name":"closeFeeP","type":"uint256","internalType":"uint256"},{"name":"limitOrderFeeP","type":"uint256","internalType":"uint256"},{"name":"minLevPosUSDC","type":"uint256","internalType":"uint256"}]}],"outputs":[],"stateMutability":"nonpayable"},{"type":"function","name":"updateGroup","inputs":[{"name":"_id","type":"uint256","internalType":"uint256"},{"name":"_group","type":"tuple","internalType":"struct IPairStorage.Group","components":[{"name":"name","type":"string","internalType":"string"},{"name":"minLeverage","type":"uint256","internalType":"uint256"},{"name":"maxLeverage","type":"uint256","internalType":"uint256"},{"name":"maxOpenInterestP","type":"uint256","internalType":"uint256"}]}],"outputs":[],"stateMutability":"nonpayable"},{"type":"function","name":"updateGroupOI","inputs":[{"name":"_pairIndex","type":"uint256","internalType":"uint256"},{"name":"_amount","type":"uint256","internalType":"uint256"},{"name":"_long","type":"bool","internalType":"bool"},{"name":"_increase","type":"bool","internalType":"bool"}],"outputs":[],"stateMutability":"nonpayable"},{"type":"function","name":"updateLossProtectionMultiplier","inputs":[{"name":"_pairIndex","type":"uint256","internalType":"uint256"},{"name":"_tier","type":"uint256[]","internalType":"uint256[]"},{"name":"_multiplierPercent","type":"uint256[]","internalType":"uint256[]"}],"outputs":[],"stateMutability":"nonpayable"},{"type":"function","name":"updatePair","inputs":[{"name":"_pairIndex","type":"uint256","internalType":"uint256"},{"name":"_pair","type":"tuple","internalType":"struct IPairStorage.Pair","components":[{"name":"from","type":"string","internalType":"string"},{"name":"to","type":"string","internalType":"string"},{"name":"feed","type":"tuple","internalType":"struct IPairStorage.Feed","components":[{"name":"maxDeviationP","type":"uint256","internalType":"uint256"},{"name":"feedId","type":"bytes32","internalType":"bytes32"}]},{"name":"backupFeed","type":"tuple","internalType":"struct IPairStorage.BackupFeed","components":[{"name":"maxDeviationP","type":"uint256","internalType":"uint256"},{"name":"feedId","type":"address","internalType":"address"}]},{"name":"spreadP","type":"uint256","internalType":"uint256"},{"name":"priceImpactMultiplier","type":"uint256","internalType":"uint256"},{"name":"skewImpactMultiplier","type":"int256","internalType":"int256"},{"name":"groupIndex","type":"uint256","internalType":"uint256"},{"name":"feeIndex","type":"uint256","internalType":"uint256"},{"name":"groupOpenInterestPecentage","type":"uint256","internalType":"uint256"},{"name":"maxWalletOI","type":"uint256","internalType":"uint256"}]}],"outputs":[],"stateMutability":"nonpayable"},{"type":"event","name":"BlockOILimitsSet","inputs":[{"name":"pairIndex","type":"uint256[]","indexed":false,"internalType":"uint256[]"},{"name":"limits","type":"uint256[]","indexed":false,"internalType":"uint256[]"}],"anonymous":false},{"type":"event","name":"FeeAdded","inputs":[{"name":"index","type":"uint256","indexed":false,"internalType":"uint256"},{"name":"name","type":"string","indexed":false,"internalType":"string"}],"anonymous":false},{"type":"event","name":"FeeUpdated","inputs":[{"name":"index","type":"uint256","indexed":false,"internalType":"uint256"}],"anonymous":false},{"type":"event","name":"GroupAdded","inputs":[{"name":"index","type":"uint256","indexed":false,"internalType":"uint256"},{"name":"name","type":"string","indexed":false,"internalType":"string"}],"anonymous":false},{"type":"event","name":"GroupUpdated","inputs":[{"name":"index","type":"uint256","indexed":false,"internalType":"uint256"}],"anonymous":false},{"type":"event","name":"Initialized","inputs":[{"name":"version","type":"uint8","indexed":false,"internalType":"uint8"}],"anonymous":false},{"type":"event","name":"LossProtectionAdded","inputs":[{"name":"pairIndex","type":"uint256","indexed":false,"internalType":"uint256"},{"name":"tier","type":"uint256[]","indexed":false,"internalType":"uint256[]"},{"name":"multiplier","type":"uint256[]","indexed":false,"internalType":"uint256[]"}],"anonymous":false},{"type":"event","name":"OrderLimitsSet","inputs":[{"name":"pairIndex","type":"uint256[]","indexed":false,"internalType":"uint256[]"},{"name":"limits","type":"uint256[]","indexed":false,"internalType":"uint256[]"}],"anonymous":false},{"type":"event","name":"PairAdded","inputs":[{"name":"index","type":"uint256","indexed":false,"internalType":"uint256"},{"name":"from","type":"string","indexed":false,"internalType":"string"},{"name":"to","type":"string","indexed":false,"internalType":"string"}],"anonymous":false},{"type":"event","name":"PairUpdated","inputs":[{"name":"index","type":"uint256","indexed":false,"internalType":"uint256"}],"anonymous":false},{"type":"event","name":"SkewFeeAdded","inputs":[{"name":"index","type":"uint256","indexed":false,"internalType":"uint256"}],"anonymous":false},{"type":"event","name":"SkewFeeUpdated","inputs":[{"name":"index","type":"uint256","indexed":false,"internalType":"uint256"}],"anonymous":false}],"bytecode":{"object":"0x60806040523480156200001157600080fd5b506200001c62000022565b620000e3565b600054610100900460ff16156200008f5760405162461bcd60e51b815260206004820152602760248201527f496e697469616c697a61626c653a20636f6e747261637420697320696e697469604482015266616c697a696e6760c81b606482015260840160405180910390fd5b60005460ff90811614620000e1576000805460ff191660ff9081179091556040519081527f7f26b83ff96e1f2b6a682f133852f6798a09c465da95921460cefb38474024989060200160405180910390a15b565b61449e80620000f36000396000f3fe608060405234801561001057600080fd5b50600436106102955760003560e01c80636d8b5224116101675780639a7c200e116100ce578063b91ac78811610087578063b91ac788146107c1578063cd6dc687146107eb578063e70ab5cd146107fe578063e8b50f8414610811578063f645aff514610824578063fb3e519d1461083757600080fd5b80639a7c200e1461073b5780639ae6b9e01461074e578063a1d54e9b1461076e578063a1ead06414610792578063b2e1b2d6146107a5578063b81b2b71146107b857600080fd5b8063885e275011610120578063885e2750146106be5780638c9a0ea4146106c7578063925931fc146106da5780639567dccf146106e35780639586621f1461070557806396324bd41461071857600080fd5b80636d8b5224146106365780636dc37de31461063f57806372fce6f01461065257806374db8c89146106655780637f684baf14610678578063836a341a1461068b57600080fd5b80633c44d0a31161020b5780635a3e32e0116101c45780635a3e32e01461055c5780635e4f8f591461056f5780635fc8cd2814610582578063649a648814610595578063658de48a146105c8578063685e905b146105d157600080fd5b80633c44d0a3146104a95780633d7a5f1a146104cc5780634acc79ed146104df5780634ffe8aec1461050357806356e5536c1461051657806359a992d01461052957600080fd5b80631eaa005c1161025d5780631eaa005c1461038c578063238cd23f146103e857806324abd3fb1461041b578063281b693c1461043f5780632b1cbe9d14610472578063302f81fc1461048557600080fd5b806310ed40881461029a57806315b40d91146102af5780631628bfeb146102ed57806316fff074146103485780631a67bacc14610379575b600080fd5b6102ad6102a83660046134d5565b61084a565b005b6102da6102bd3660046137f1565b600b60209081526000928352604080842090915290825290205481565b6040519081526020015b60405180910390f35b6103386102fb366004613540565b8151602081840181018051600982529282019482019490942091909352815180830184018051928152908401929093019190912091525460ff1681565b60405190151581526020016102e4565b600054610361906201000090046001600160a01b031681565b6040516001600160a01b0390911681526020016102e4565b6102ad610387366004613647565b6109f8565b6103db61039a366004613664565b604080518082019091526000808252602082015250600090815260066020908152604091829020825180840190935260028101548352600301549082015290565b6040516102e49190613c4f565b6102da6103f6366004613664565b6000908152600660209081526040808320600a01548352600890915290206004015490565b610338610429366004613664565b6000908152600660205260409020600901541590565b6102da61044d366004613664565b6000908152600660209081526040808320600901548352600790915290206002015490565b6102da6104803660046137f1565b610b16565b610498610493366004613664565b610b37565b6040516102e4959493929190613a71565b6102da6104b7366004613664565b60009081526006602052604090206009015490565b6102ad6104da3660046137c3565b610e93565b6104f26104ed366004613664565b610f9d565b6040516102e4959493929190613b85565b6102ad610511366004613848565b611053565b6102da610524366004613664565b6111ed565b6102da610537366004613664565b6000908152600660209081526040808320600901548352600790915290206001015490565b6102ad61056a36600461374b565b61121f565b6102da61057d366004613664565b6113fc565b6102da610590366004613664565b61142b565b6102da6105a3366004613664565b6000908152600660209081526040808320600a01548352600890915290206003015490565b6102da60045481565b6106296105df366004613664565b604080518082019091526000808252602082015250600090815260066020908152604091829020825180840190935260048101548352600501546001600160a01b03169082015290565b6040516102e49190613c2f565b6102da60055481565b61033861064d366004613664565b61160d565b6102ad6106603660046135df565b611672565b6102ad610673366004613664565b61181d565b6102ad6106863660046135a3565b611a48565b6102da610699366004613664565b6000908152600660209081526040808320600a01548352600890915290206002015490565b6102da60035481565b6102da6106d5366004613664565b611bc0565b6102da60015481565b6106f66106f1366004613664565b611ce6565b6040516102e493929190613c66565b6102ad610713366004613696565b612108565b61072b610726366004613664565b6122e4565b6040516102e49493929190613b56565b6102ad61074936600461370f565b612394565b6102da61075c366004613664565b600d6020526000908152604090205481565b6102da61077c366004613664565b6000908152600660208190526040909120015490565b6102da6107a03660046137f1565b612538565b6102da6107b3366004613664565b61255d565b6102da60025481565b6107d46107cf366004613664565b612586565b6040516102e49b9a99989796959493929190613abd565b6102ad6107f93660046134a9565b612721565b6102ad61080c366004613613565b612890565b6102da61081f366004613664565b612b91565b6102ad610832366004613787565b612d73565b6102da610845366004613813565b612fc8565b600060029054906101000a90046001600160a01b03166001600160a01b03166312d43a516040518163ffffffff1660e01b815260040160206040518083038186803b15801561089857600080fd5b505afa1580156108ac573d6000803e3d6000fd5b505050506040513d601f19601f820116820180604052508101906108d0919061348c565b6001600160a01b0316336001600160a01b0316146109095760405162461bcd60e51b815260040161090090613c0d565b60405180910390fd5b8281146109475760405162461bcd60e51b815260206004820152600c60248201526b0988a9cbe9a92a69a82a886960a31b6044820152606401610900565b60005b60ff81168411156109b45782828260ff1681811061096a5761096a61416b565b90506020020135600d600087878560ff1681811061098a5761098a61416b565b90506020020135815260200190815260200160002081905550806109ad90614135565b905061094a565b507fc5c5af5d05689513c60f635389c8449ac23f2b277af3a15f88c21c6de36fcf14848484846040516109ea9493929190613a3f565b60405180910390a150505050565b600060029054906101000a90046001600160a01b03166001600160a01b03166312d43a516040518163ffffffff1660e01b815260040160206040518083038186803b158015610a4657600080fd5b505afa158015610a5a573d6000803e3d6000fd5b505050506040513d601f19601f82011682018060405250810190610a7e919061348c565b6001600160a01b0316336001600160a01b031614610aae5760405162461bcd60e51b815260040161090090613c0d565b6005546000908152600c602052604090208190610acb8282614408565b5050600580547f5d7a16e490fc66ca6522d4ba0437ac1a3b97cf25666340a19e408176295826d7916000610afe8361411a565b9091555060405190815260200160405180910390a150565b6000828152600b602090815260408083208484529091529020545b92915050565b60608060008060008060029054906101000a90046001600160a01b03166001600160a01b0316633078fff56040518163ffffffff1660e01b815260040160206040518083038186803b158015610b8c57600080fd5b505afa158015610ba0573d6000803e3d6000fd5b505050506040513d601f19601f82011682018060405250810190610bc4919061348c565b6001600160a01b0316336001600160a01b031614610c165760405162461bcd60e51b815260206004820152600f60248201526e41474752454741544f525f4f4e4c5960881b6044820152606401610900565b60008681526006602052604080822081516101608101909252805482908290610c3e906140d0565b80601f0160208091040260200160405190810160405280929190818152602001828054610c6a906140d0565b8015610cb75780601f10610c8c57610100808354040283529160200191610cb7565b820191906000526020600020905b815481529060010190602001808311610c9a57829003601f168201915b50505050508152602001600182018054610cd0906140d0565b80601f0160208091040260200160405190810160405280929190818152602001828054610cfc906140d0565b8015610d495780601f10610d1e57610100808354040283529160200191610d49565b820191906000526020600020905b815481529060010190602001808311610d2c57829003601f168201915b505050918352505060408051808201825260028401548152600384015460208281019190915280840191909152815180830183526004850154815260058501546001600160a01b031691810191909152818301526006830154606083015260078301546080830152600883015460a083015260098084015460c0840152600a84015460e0840152600b840154610100840152600c9093015461012090920191909152825190519293509091610dfe91906139b1565b90815260200160405180910390208160200151604051610e1e91906139b1565b9081526040519081900360200190205460ff16610e4d5760405162461bcd60e51b815260040161090090613bbc565b8060000151816020015182604001516020015183606001516020015160016000815480929190610e7c9061411a565b90915550939b929a50909850965090945092505050565b600060029054906101000a90046001600160a01b03166001600160a01b03166312d43a516040518163ffffffff1660e01b815260040160206040518083038186803b158015610ee157600080fd5b505afa158015610ef5573d6000803e3d6000fd5b505050506040513d601f19601f82011682018060405250810190610f19919061348c565b6001600160a01b0316336001600160a01b031614610f495760405162461bcd60e51b815260040161090090613c0d565b6000828152600c602052604090208190610f638282614408565b50506040518281527f049d8e73ae29fd805de1f8eae372a5020742554b37118c1e33687e89ef3027ff906020015b60405180910390a15050565b600860205260009081526040902080548190610fb8906140d0565b80601f0160208091040260200160405190810160405280929190818152602001828054610fe4906140d0565b80156110315780601f1061100657610100808354040283529160200191611031565b820191906000526020600020905b81548152906001019060200180831161101457829003601f168201915b5050505050908060010154908060020154908060030154908060040154905085565b600060029054906101000a90046001600160a01b03166001600160a01b031662b127836040518163ffffffff1660e01b815260040160206040518083038186803b1580156110a057600080fd5b505afa1580156110b4573d6000803e3d6000fd5b505050506040513d601f19601f820116820180604052508101906110d8919061348c565b6001600160a01b0316336001600160a01b0316146111295760405162461bcd60e51b815260206004820152600e60248201526d43414c4c4241434b535f4f4e4c5960901b6044820152606401610900565b6000848152600660209081526040808320600901548352600a90915281209083611154576001611157565b60005b60ff169050821561119057848282600281106111755761117561416b565b0160008282546111859190613e76565b909155506111e59050565b848282600281106111a3576111a361416b565b0154116111b15760006111d0565b848282600281106111c4576111c461416b565b01546111d09190613f54565b8282600281106111e2576111e261416b565b01555b505050505050565b6000818152600660205260408120600c015460649061120b84611bc0565b6112159190613f35565b610b319190613e8e565b600060029054906101000a90046001600160a01b03166001600160a01b03166312d43a516040518163ffffffff1660e01b815260040160206040518083038186803b15801561126d57600080fd5b505afa158015611281573d6000803e3d6000fd5b505050506040513d601f19601f820116820180604052508101906112a5919061348c565b6001600160a01b0316336001600160a01b0316146112d55760405162461bcd60e51b815260040161090090613c0d565b60008281526007602052604090206001015482906113285760405162461bcd60e51b815260206004820152601060248201526f11d493d55417d393d517d31254d5115160821b6044820152606401610900565b816113396402540be4006002613f35565b81602001351015801561135f57506113576402540be4006096613f35565b816040013511155b8015611372575080604001358160200135105b6113b05760405162461bcd60e51b815260206004820152600f60248201526e57524f4e475f4c455645524147455360881b6044820152606401610900565b600084815260076020526040902083906113ca8282614284565b50506040518481527fcfde8f228364c70f12cbbac5a88fc91ceca76dd750ac93364991a333b34afb8e906020016109ea565b6000818152600660209081526040808320600901548352600a909152812060018101549054610b319190613e76565b6000818152600660205260408082208151610160810190925280548392919082908290611457906140d0565b80601f0160208091040260200160405190810160405280929190818152602001828054611483906140d0565b80156114d05780601f106114a5576101008083540402835291602001916114d0565b820191906000526020600020905b8154815290600101906020018083116114b357829003601f168201915b505050505081526020016001820180546114e9906140d0565b80601f0160208091040260200160405190810160405280929190818152602001828054611515906140d0565b80156115625780601f1061153757610100808354040283529160200191611562565b820191906000526020600020905b81548152906001019060200180831161154557829003601f168201915b505050918352505060408051808201825260028401548152600384015460208281019190915280840191909152815180830183526004850154815260058501546001600160a01b031691810191909152908201526006820154606082015260078201546080820152600882015460a080830191909152600983015460c0830152600a83015460e0830152600b830154610100830152600c909201546101209091015201519392505050565b604051621554d160ea1b602082015260009060230160408051601f1981840301815282825280516020918201206000868152600683529290922091926116549291016139cd565b60405160208183030381529060405280519060200120149050919050565b600060029054906101000a90046001600160a01b03166001600160a01b03166312d43a516040518163ffffffff1660e01b815260040160206040518083038186803b1580156116c057600080fd5b505afa1580156116d4573d6000803e3d6000fd5b505050506040513d601f19601f820116820180604052508101906116f8919061348c565b6001600160a01b0316336001600160a01b0316146117285760405162461bcd60e51b815260040161090090613c0d565b806117396402540be4006002613f35565b81602001351015801561175f57506117576402540be4006096613f35565b816040013511155b8015611772575080604001358160200135105b6117b05760405162461bcd60e51b815260206004820152600f60248201526e57524f4e475f4c455645524147455360881b6044820152606401610900565b600354600090815260076020526040902082906117cd8282614284565b5050600380547faf17de8e82beccc440012117a600dc37e26925225d0f1ee192fc107eb3dcbca49160006118008361411a565b9091555061180e8480613def565b604051610f9193929190613d9f565b600060029054906101000a90046001600160a01b03166001600160a01b03166312d43a516040518163ffffffff1660e01b815260040160206040518083038186803b15801561186b57600080fd5b505afa15801561187f573d6000803e3d6000fd5b505050506040513d601f19601f820116820180604052508101906118a3919061348c565b6001600160a01b0316336001600160a01b0316146118d35760405162461bcd60e51b815260040161090090613c0d565b6000818152600660205260409081902090516009906118f39083906139cd565b90815260200160405180910390208160010160405161191291906139cd565b9081526040519081900360200190205460ff166119415760405162461bcd60e51b815260040161090090613bbc565b600060098260000160405161195691906139cd565b90815260200160405180910390208260010160405161197591906139cd565b90815260405160209181900382018120805460ff1916931515939093179092558382527f123a1b961ae93e7acda9790b318237b175b45ac09277cd3614305d8baa3f1953910160405180910390a16000828152600660205260408120906119dc828261323a565b6119ea60018301600061323a565b5060006002820181905560038201819055600482018190556005820180546001600160a01b031916905560068201819055600782018190556008820181905560098201819055600a8201819055600b8201819055600c909101555050565b600060029054906101000a90046001600160a01b03166001600160a01b03166312d43a516040518163ffffffff1660e01b815260040160206040518083038186803b158015611a9657600080fd5b505afa158015611aaa573d6000803e3d6000fd5b505050506040513d601f19601f82011682018060405250810190611ace919061348c565b6001600160a01b0316336001600160a01b031614611afe5760405162461bcd60e51b815260040161090090613c0d565b8060008160200135118015611b17575060008160400135115b8015611b27575060008160600135115b8015611b37575060008160800135115b611b705760405162461bcd60e51b815260206004820152600a60248201526957524f4e475f4645455360b01b6044820152606401610900565b60045460009081526008602052604090208290611b8d8282614197565b5050600480547f482049823c85e038e099fe4f2b901487c4800def71c9a3f5bae2de8381ec54f69160006118008361411a565b60006064600060029054906101000a90046001600160a01b03166001600160a01b0316638a4adf246040518163ffffffff1660e01b815260040160206040518083038186803b158015611c1257600080fd5b505afa158015611c26573d6000803e3d6000fd5b505050506040513d601f19601f82011682018060405250810190611c4a919061348c565b6001600160a01b0316637b78d7826040518163ffffffff1660e01b815260040160206040518083038186803b158015611c8257600080fd5b505afa158015611c96573d6000803e3d6000fd5b505050506040513d601f19601f82011682018060405250810190611cba919061367d565b600084815260066020908152604080832060090154835260079091529020600301546112159190613f35565b611cee613277565b611d196040518060800160405280606081526020016000815260200160008152602001600081525090565b611d4b6040518060a0016040528060608152602001600081526020016000815260200160008152602001600081525090565b60008481526006602052604080822081516101608101909252805482908290611d73906140d0565b80601f0160208091040260200160405190810160405280929190818152602001828054611d9f906140d0565b8015611dec5780601f10611dc157610100808354040283529160200191611dec565b820191906000526020600020905b815481529060010190602001808311611dcf57829003601f168201915b50505050508152602001600182018054611e05906140d0565b80601f0160208091040260200160405190810160405280929190818152602001828054611e31906140d0565b8015611e7e5780601f10611e5357610100808354040283529160200191611e7e565b820191906000526020600020905b815481529060010190602001808311611e6157829003601f168201915b505050505081526020016002820160405180604001604052908160008201548152602001600182015481525050815260200160048201604051806040016040529081600082015481526020016001820160009054906101000a90046001600160a01b03166001600160a01b03166001600160a01b031681525050815260200160068201548152602001600782015481526020016008820154815260200160098201548152602001600a8201548152602001600b8201548152602001600c82015481525050905080600760008360e00151815260200190815260200160002060086000846101000151815260200190815260200160002081604051806080016040529081600082018054611f90906140d0565b80601f0160208091040260200160405190810160405280929190818152602001828054611fbc906140d0565b80156120095780601f10611fde57610100808354040283529160200191612009565b820191906000526020600020905b815481529060010190602001808311611fec57829003601f168201915b5050505050815260200160018201548152602001600282015481526020016003820154815250509150806040518060a001604052908160008201805461204e906140d0565b80601f016020809104026020016040519081016040528092919081815260200182805461207a906140d0565b80156120c75780601f1061209c576101008083540402835291602001916120c7565b820191906000526020600020905b8154815290600101906020018083116120aa57829003601f168201915b505050505081526020016001820154815260200160028201548152602001600382015481526020016004820154815250509050935093509350509193909250565b600060029054906101000a90046001600160a01b03166001600160a01b03166312d43a516040518163ffffffff1660e01b815260040160206040518083038186803b15801561215657600080fd5b505afa15801561216a573d6000803e3d6000fd5b505050506040513d601f19601f8201168201806040525081019061218e919061348c565b6001600160a01b0316336001600160a01b0316146121be5760405162461bcd60e51b815260040161090090613c0d565b8281146121ca57600080fd5b60005b8381101561229d5760328383838181106121e9576121e961416b565b9050602002013510156122335760405162461bcd60e51b81526020600482015260126024820152710a48a8482a88abe8ab0868a8a88a6be9a82b60731b6044820152606401610900565b8282828181106122455761224561416b565b90506020020135600b600088815260200190815260200160002060008787858181106122735761227361416b565b90506020020135815260200190815260200160002081905550806122969061411a565b90506121cd565b507ff66559a3ee7945e0e49289392f86db1a3a3049abc2a1c89664a702fa0427322785858585856040516122d5959493929190613d66565b60405180910390a15050505050565b6007602052600090815260409020805481906122ff906140d0565b80601f016020809104026020016040519081016040528092919081815260200182805461232b906140d0565b80156123785780601f1061234d57610100808354040283529160200191612378565b820191906000526020600020905b81548152906001019060200180831161235b57829003601f168201915b5050505050908060010154908060020154908060030154905084565b600060029054906101000a90046001600160a01b03166001600160a01b03166312d43a516040518163ffffffff1660e01b815260040160206040518083038186803b1580156123e257600080fd5b505afa1580156123f6573d6000803e3d6000fd5b505050506040513d601f19601f8201168201806040525081019061241a919061348c565b6001600160a01b0316336001600160a01b03161461244a5760405162461bcd60e51b815260040161090090613c0d565b600082815260086020526040902060010154829061247a5760405162461bcd60e51b815260040161090090613be5565b8160008160200135118015612493575060008160400135115b80156124a3575060008160600135115b80156124b3575060008160800135115b6124ec5760405162461bcd60e51b815260206004820152600a60248201526957524f4e475f4645455360b01b6044820152606401610900565b600084815260086020526040902083906125068282614197565b50506040518481527f8c4d35e54a3f2ef1134138fd8ea3daee6a3c89e10d2665996babdf70261e2c76906020016109ea565b600a602052816000526040600020816002811061255457600080fd5b01549150829050565b6000606461256a83611bc0565b6000848152600660205260409020600b01546112159190613f35565b6006602052600090815260409020805481906125a1906140d0565b80601f01602080910402602001604051908101604052809291908181526020018280546125cd906140d0565b801561261a5780601f106125ef5761010080835404028352916020019161261a565b820191906000526020600020905b8154815290600101906020018083116125fd57829003601f168201915b50505050509080600101805461262f906140d0565b80601f016020809104026020016040519081016040528092919081815260200182805461265b906140d0565b80156126a85780601f1061267d576101008083540402835291602001916126a8565b820191906000526020600020905b81548152906001019060200180831161268b57829003601f168201915b505060408051808201825260028701548152600387015460208083019190915282518084019093526004880154835260058801546001600160a01b03169083015260068701546007880154600889015460098a0154600a8b0154600b8c0154600c909c01549a9b959a969950939750919550939092908b565b600054610100900460ff16158080156127415750600054600160ff909116105b8061275b5750303b15801561275b575060005460ff166001145b6127be5760405162461bcd60e51b815260206004820152602e60248201527f496e697469616c697a61626c653a20636f6e747261637420697320616c72656160448201526d191e481a5b9a5d1a585b1a5e995960921b6064820152608401610900565b6000805460ff1916600117905580156127e1576000805461ff0019166101001790555b6000821161281e5760405162461bcd60e51b815260206004820152600a60248201526904f524445525f49445f360b41b6044820152606401610900565b60018290556000805462010000600160b01b031916620100006001600160a01b03861602179055801561288b576000805461ff0019169055604051600181527f7f26b83ff96e1f2b6a682f133852f6798a09c465da95921460cefb38474024989060200160405180910390a15b505050565b600060029054906101000a90046001600160a01b03166001600160a01b03166312d43a516040518163ffffffff1660e01b815260040160206040518083038186803b1580156128de57600080fd5b505afa1580156128f2573d6000803e3d6000fd5b505050506040513d601f19601f82011682018060405250810190612916919061348c565b6001600160a01b0316336001600160a01b0316146129465760405162461bcd60e51b815260040161090090613c0d565b6040810180356129855760405162461bcd60e51b815260206004820152600a60248201526915d493d391d7d191515160b21b6044820152606401610900565b6101208201356000818152600760205260409020600101546129dc5760405162461bcd60e51b815260206004820152601060248201526f11d493d55417d393d517d31254d5115160821b6044820152606401610900565b610140830135600081815260086020526040902060010154612a105760405162461bcd60e51b815260040161090090613be5565b6009612a1c8580613def565b604051612a2a9291906139a1565b9081526020016040518091039020848060200190612a489190613def565b604051612a569291906139a1565b9081526040519081900360200190205460ff1615612aac5760405162461bcd60e51b81526020600482015260136024820152721410525497d053149150511657d31254d51151606a1b6044820152606401610900565b60025460009081526006602052604090208490612ac98282614361565b50600190506009612ada8680613def565b604051612ae89291906139a1565b9081526020016040518091039020858060200190612b069190613def565b604051612b149291906139a1565b908152604051908190036020019020805491151560ff19909216919091179055600280547f3adfd40f2b74073df2a84238acdb7f460565a557b3cc13bddc8833289bf38e09916000612b658361411a565b90915550612b738680613def565b612b806020890189613def565b6040516109ea959493929190613dc2565b6000818152600660205260408082208151610160810190925280548392919082908290612bbd906140d0565b80601f0160208091040260200160405190810160405280929190818152602001828054612be9906140d0565b8015612c365780601f10612c0b57610100808354040283529160200191612c36565b820191906000526020600020905b815481529060010190602001808311612c1957829003601f168201915b50505050508152602001600182018054612c4f906140d0565b80601f0160208091040260200160405190810160405280929190818152602001828054612c7b906140d0565b8015612cc85780601f10612c9d57610100808354040283529160200191612cc8565b820191906000526020600020905b815481529060010190602001808311612cab57829003601f168201915b505050918352505060408051808201825260028401548152600384015460208281019190915280840191909152815180830183526004850154815260058501546001600160a01b031691810191909152908201526006820154606082015260078201546080820152600882015460a0820152600982015460c080830191909152600a83015460e0830152600b830154610100830152600c909201546101209091015201519392505050565b600060029054906101000a90046001600160a01b03166001600160a01b03166312d43a516040518163ffffffff1660e01b815260040160206040518083038186803b158015612dc157600080fd5b505afa158015612dd5573d6000803e3d6000fd5b505050506040513d601f19601f82011682018060405250810190612df9919061348c565b6001600160a01b0316336001600160a01b031614612e295760405162461bcd60e51b815260040161090090613c0d565b604081018035612e685760405162461bcd60e51b815260206004820152600a60248201526915d493d391d7d191515160b21b6044820152606401610900565b610140820135600081815260086020526040902060010154612e9c5760405162461bcd60e51b815260040161090090613be5565b600084815260066020526040908190209051600990612ebc9083906139cd565b908152602001604051809103902081600101604051612edb91906139cd565b9081526040519081900360200190205460ff16612f0a5760405162461bcd60e51b815260040161090090613bbc565b604084013560028201556060840135600382015560c08401356006820155610140840135600a820155608084013515801590612f5f57506000612f5360c0860160a08701613468565b6001600160a01b031614155b15612f7e576080840160048201612f76828261409b565b905050612f98565b600060048201556005810180546001600160a01b03191690555b6040518581527f123a1b961ae93e7acda9790b318237b175b45ac09277cd3614305d8baa3f1953906020016122d5565b60008054604051639cb87f2360e01b8152600481018690526024810183905282916201000090046001600160a01b031690639cb87f239060440160206040518083038186803b15801561301a57600080fd5b505afa15801561302e573d6000803e3d6000fd5b505050506040513d601f19601f82011682018060405250810190613052919061367d565b60008054604051639cb87f2360e01b815260048101899052600160248201529293509091620100009091046001600160a01b031690639cb87f239060440160206040518083038186803b1580156130a857600080fd5b505afa1580156130bc573d6000803e3d6000fd5b505050506040513d601f19601f820116820180604052508101906130e0919061367d565b905083156130f9576130f28583613e76565b9150613106565b6131038582613e76565b90505b60006131128284613e76565b8561311d578361311f565b825b61312a906064613f35565b6131349190613e8e565b6000888152600c60209081526040808320815161016081019092529394509192908290810182600a86835b828210156131a557604080518082019182905290600284810287019182845b81548152602001906001019080831161317e5750505050508152602001906001019061315f565b505050915250909150600090506131bd600a84613e8e565b90506127106402540be400836000015183600a81106131de576131de61416b565b6020020151600160200201518451869085600a81106131ff576131ff61416b565b60200201515161320f9190613eb0565b6132199190613e35565b6132239190613f35565b61322d9190613e8e565b9998505050505050505050565b508054613246906140d0565b6000825580601f10613256575050565b601f0160209004906000526020600020908101906132749190613313565b50565b60405180610160016040528060608152602001606081526020016132b1604051806040016040528060008152602001600080191681525090565b81526020016132dc60405180604001604052806000815260200160006001600160a01b031681525090565b8152602001600081526020016000815260200160008152602001600081526020016000815260200160008152602001600081525090565b5b808211156133285760008155600101613314565b5090565b60008083601f84011261333e57600080fd5b5081356001600160401b0381111561335557600080fd5b6020830191508360208260051b850101111561337057600080fd5b9250929050565b8035801515811461338757600080fd5b919050565b600082601f83011261339d57600080fd5b81356001600160401b03808211156133b7576133b7614181565b604051601f8301601f19908116603f011681019082821181831017156133df576133df614181565b816040528381528660208588010111156133f857600080fd5b836020870160208301376000602085830101528094505050505092915050565b600060a0828403121561342a57600080fd5b50919050565b60006080828403121561342a57600080fd5b60006101a0828403121561342a57600080fd5b6000610280828403121561342a57600080fd5b60006020828403121561347a57600080fd5b813561348581614453565b9392505050565b60006020828403121561349e57600080fd5b815161348581614453565b600080604083850312156134bc57600080fd5b82356134c781614453565b946020939093013593505050565b600080600080604085870312156134eb57600080fd5b84356001600160401b038082111561350257600080fd5b61350e8883890161332c565b9096509450602087013591508082111561352757600080fd5b506135348782880161332c565b95989497509550505050565b6000806040838503121561355357600080fd5b82356001600160401b038082111561356a57600080fd5b6135768683870161338c565b9350602085013591508082111561358c57600080fd5b506135998582860161338c565b9150509250929050565b6000602082840312156135b557600080fd5b81356001600160401b038111156135cb57600080fd5b6135d784828501613418565b949350505050565b6000602082840312156135f157600080fd5b81356001600160401b0381111561360757600080fd5b6135d784828501613430565b60006020828403121561362557600080fd5b81356001600160401b0381111561363b57600080fd5b6135d784828501613442565b6000610280828403121561365a57600080fd5b6134858383613455565b60006020828403121561367657600080fd5b5035919050565b60006020828403121561368f57600080fd5b5051919050565b6000806000806000606086880312156136ae57600080fd5b8535945060208601356001600160401b03808211156136cc57600080fd5b6136d889838a0161332c565b909650945060408801359150808211156136f157600080fd5b506136fe8882890161332c565b969995985093965092949392505050565b6000806040838503121561372257600080fd5b8235915060208301356001600160401b0381111561373f57600080fd5b61359985828601613418565b6000806040838503121561375e57600080fd5b8235915060208301356001600160401b0381111561377b57600080fd5b61359985828601613430565b6000806040838503121561379a57600080fd5b8235915060208301356001600160401b038111156137b757600080fd5b61359985828601613442565b6000806102a083850312156137d757600080fd5b823591506137e88460208501613455565b90509250929050565b6000806040838503121561380457600080fd5b50508035926020909101359150565b60008060006060848603121561382857600080fd5b833592506020840135915061383f60408501613377565b90509250925092565b6000806000806080858703121561385e57600080fd5b843593506020850135925061387560408601613377565b915061388360608601613377565b905092959194509250565b81835260006001600160fb1b038311156138a757600080fd5b8260051b8083602087013760009401602001938452509192915050565b81835281816020850137506000828201602090810191909152601f909101601f19169091010190565b6000815180845261390581602086016020860161406b565b601f01601f19169290920160200192915050565b6000815160a0845261392e60a08501826138ed565b9050602083015160208501526040830151604085015260608301516060850152608083015160808501528091505092915050565b600081516080845261397760808501826138ed565b90506020830151602085015260408301516040850152606083015160608501528091505092915050565b8183823760009101908152919050565b600082516139c381846020870161406b565b9190910192915050565b60008083546139db816140d0565b600182811680156139f35760018114613a0457613a33565b60ff19841687528287019450613a33565b8760005260208060002060005b85811015613a2a5781548a820152908401908201613a11565b50505082870194505b50929695505050505050565b604081526000613a5360408301868861388e565b8281036020840152613a6681858761388e565b979650505050505050565b60a081526000613a8460a08301886138ed565b8281036020840152613a9681886138ed565b604084019690965250506001600160a01b0392909216606083015260809091015292915050565b60006101a0808352613ad18184018f6138ed565b90508281036020840152613ae5818e6138ed565b8c51604085015260208d015160608501529150613aff9050565b8951608083015260208a01516001600160a01b031660a083015260c082019890985260e081019690965261010086019490945261012085019290925261014084015261016083015261018090910152949350505050565b608081526000613b6960808301876138ed565b6020830195909552506040810192909252606090910152919050565b60a081526000613b9860a08301886138ed565b90508560208301528460408301528360608301528260808301529695505050505050565b6020808252600f908201526e1410525497d393d517d31254d51151608a1b604082015260600190565b6020808252600e908201526d11915157d393d517d31254d5115160921b604082015260600190565b602080825260089082015267474f565f4f4e4c5960c01b604082015260600190565b815181526020808301516001600160a01b03169082015260408101610b31565b815181526020808301519082015260408101610b31565b60608152600084516101a0806060850152613c856102008501836138ed565b91506020870151605f19858403016080860152613ca283826138ed565b9250506040870151613cc160a086018280518252602090810151910152565b506060870151805160e086015260208101516001600160a01b03166101008601525060808701516101208581019190915260a08801516101408087019190915260c089015161016087015260e0890151610180870152610100890151928601929092528701516101c08501528601516101e08401528281036020840152613d488186613962565b90508281036040840152613d5c8185613919565b9695505050505050565b858152606060208201526000613d8060608301868861388e565b8281036040840152613d9381858761388e565b98975050505050505050565b838152604060208201526000613db96040830184866138c4565b95945050505050565b858152606060208201526000613ddc6060830186886138c4565b8281036040840152613d938185876138c4565b6000808335601e19843603018112613e0657600080fd5b8301803591506001600160401b03821115613e2057600080fd5b60200191503681900382131561337057600080fd5b600080821280156001600160ff1b0384900385131615613e5757613e57614155565b600160ff1b8390038412811615613e7057613e70614155565b50500190565b60008219821115613e8957613e89614155565b500190565b600082613eab57634e487b7160e01b600052601260045260246000fd5b500490565b60006001600160ff1b0381841382841380821686840486111615613ed657613ed6614155565b600160ff1b6000871282811687830589121615613ef557613ef5614155565b60008712925087820587128484161615613f1157613f11614155565b87850587128184161615613f2757613f27614155565b505050929093029392505050565b6000816000190483118215151615613f4f57613f4f614155565b500290565b600082821015613f6657613f66614155565b500390565b601f82111561288b57600081815260208120601f850160051c81016020861015613f925750805b601f850160051c820191505b818110156111e557828155600101613f9e565b6001600160401b03831115613fc857613fc8614181565b613fdc83613fd683546140d0565b83613f6b565b6000601f84116001811461400a5760008515613ff85750838201355b6140028682614105565b845550614064565b600083815260209020601f19861690835b8281101561403b578685013582556020948501946001909201910161401b565b50868210156140585760001960f88860031b161c19848701351681555b505060018560011b0183555b5050505050565b60005b8381101561408657818101518382015260200161406e565b83811115614095576000848401525b50505050565b813581556001810160208301356140b181614453565b81546001600160a01b0319166001600160a01b03919091161790555050565b600181811c908216806140e457607f821691505b6020821081141561342a57634e487b7160e01b600052602260045260246000fd5b600019600383901b1c191660019190911b1790565b600060001982141561412e5761412e614155565b5060010190565b600060ff821660ff81141561414c5761414c614155565b60010192915050565b634e487b7160e01b600052601160045260246000fd5b634e487b7160e01b600052603260045260246000fd5b634e487b7160e01b600052604160045260246000fd5b6141a18283613def565b6001600160401b038111156141b8576141b8614181565b6141cc816141c685546140d0565b85613f6b565b6000601f8211600181146141fa57600083156141e85750838201355b6141f28482614105565b865550614254565b600085815260209020601f19841690835b8281101561422b578685013582556020948501946001909201910161420b565b50848210156142485760001960f88660031b161c19848701351681555b505060018360011b0185555b50505050602082013560018201556040820135600282015560608201356003820155608082013560048201555050565b61428e8283613def565b6001600160401b038111156142a5576142a5614181565b6142b3816141c685546140d0565b6000601f8211600181146142e157600083156142cf5750838201355b6142d98482614105565b86555061433b565b600085815260209020601f19841690835b8281101561431257868501358255602094850194600190920191016142f2565b508482101561432f5760001960f88660031b161c19848701351681555b505060018360011b0185555b505050506020820135600182015560408201356002820155606082013560038201555050565b61436b8283613def565b614376818385613fb1565b50506143856020830183613def565b614393818360018601613fb1565b505060408201356002820155606082013560038201556143b9608083016004830161409b565b60c0820135600682015560e0820135600782015561010082013560088201556101208201356009820155610140820135600a820155610160820135600b820155610180820135600c8201555050565b81816000805b600a8110156111e5578383835b600281101561443a57823582556020909201916001918201910161441b565b505050604093909301926002929092019160010161440e565b6001600160a01b038116811461327457600080fdfea2646970667358221220bc793db01af731960a0150dfe7a633cc424a7b2dba2a066b62c99a31d77181bf64736f6c63430008070033","linkReferences":{}},"methodIdentifiers":{"addFee((string,uint256,uint256,uint256,uint256))":"7f684baf","addGroup((string,uint256,uint256,uint256))":"72fce6f0","addPair((string,string,(uint256,bytes32),(uint256,address),uint256,uint256,int256,uint256,uint256,uint256,uint256))":"e70ab5cd","addSkewOpenFees((int256[2][10]))":"1a67bacc","blockOILimit(uint256)":"9ae6b9e0","currentOrderId()":"925931fc","delistPair(uint256)":"74db8c89","fees(uint256)":"4acc79ed","feesCount()":"658de48a","groupMaxOI(uint256)":"8c9a0ea4","groupOI(uint256)":"5e4f8f59","groupOIs(uint256,uint256)":"a1ead064","groups(uint256)":"96324bd4","groupsCount()":"885e2750","guaranteedSlEnabled(uint256)":"24abd3fb","initialize(address,uint256)":"cd6dc687","isPairListed(string,string)":"1628bfeb","isUSDCAligned(uint256)":"6dc37de3","lossProtection(uint256,uint256)":"15b40d91","lossProtectionMultiplier(uint256,uint256)":"2b1cbe9d","maxWalletOI(uint256)":"56e5536c","pairBackupFeed(uint256)":"685e905b","pairCloseFeeP(uint256)":"836a341a","pairFeed(uint256)":"1eaa005c","pairGroupIndex(uint256)":"3c44d0a3","pairJob(uint256)":"302f81fc","pairLimitOrderFeeP(uint256)":"649a6488","pairMaxLeverage(uint256)":"281b693c","pairMaxOI(uint256)":"b2e1b2d6","pairMinLevPosUSDC(uint256)":"238cd23f","pairMinLeverage(uint256)":"59a992d0","pairOpenFeeP(uint256,uint256,bool)":"fb3e519d","pairPriceImpactMultiplier(uint256)":"5fc8cd28","pairSkewImpactMultiplier(uint256)":"e8b50f84","pairSpreadP(uint256)":"a1d54e9b","pairs(uint256)":"b91ac788","pairsBackend(uint256)":"9567dccf","pairsCount()":"b81b2b71","setBlockOILImits(uint256[],uint256[])":"10ed4088","skewedFeesCount()":"6d8b5224","storageT()":"16fff074","udpateSkewOpenFees(uint256,(int256[2][10]))":"3d7a5f1a","updateFee(uint256,(string,uint256,uint256,uint256,uint256))":"9a7c200e","updateGroup(uint256,(string,uint256,uint256,uint256))":"5a3e32e0","updateGroupOI(uint256,uint256,bool,bool)":"4ffe8aec","updateLossProtectionMultiplier(uint256,uint256[],uint256[])":"9586621f","updatePair(uint256,(string,string,(uint256,bytes32),(uint256,address),uint256,uint256,int256,uint256,uint256,uint256,uint256))":"f645aff5"},"id":104}