{"abi":[{"type":"constructor","inputs":[],"stateMutability":"nonpayable"},{"type":"function","name":"closeTradeMarketCallback","inputs":[{"name":"orderId","type":"uint256","internalType":"uint256"},{"name":"price","type":"uint256","internalType":"uint256"},{"name":"spreadP","type":"uint256","internalType":"uint256"}],"outputs":[],"stateMutability":"nonpayable"},{"type":"function","name":"correctSl","inputs":[{"name":"openPrice","type":"uint256","internalType":"uint256"},{"name":"leverage","type":"uint256","internalType":"uint256"},{"name":"sl","type":"uint256","internalType":"uint256"},{"name":"buy","type":"bool","internalType":"bool"}],"outputs":[{"name":"","type":"uint256","internalType":"uint256"}],"stateMutability":"pure"},{"type":"function","name":"correctTp","inputs":[{"name":"openPrice","type":"uint256","internalType":"uint256"},{"name":"leverage","type":"uint256","internalType":"uint256"},{"name":"tp","type":"uint256","internalType":"uint256"},{"name":"buy","type":"bool","internalType":"bool"}],"outputs":[{"name":"","type":"uint256","internalType":"uint256"}],"stateMutability":"pure"},{"type":"function","name":"executeLimitCloseOrderCallback","inputs":[{"name":"orderId","type":"uint256","internalType":"uint256"},{"name":"price","type":"uint256","internalType":"uint256"},{"name":"spreadP","type":"uint256","internalType":"uint256"}],"outputs":[],"stateMutability":"nonpayable"},{"type":"function","name":"executeLimitOpenOrderCallback","inputs":[{"name":"orderId","type":"uint256","internalType":"uint256"},{"name":"price","type":"uint256","internalType":"uint256"},{"name":"spreadP","type":"uint256","internalType":"uint256"}],"outputs":[],"stateMutability":"nonpayable"},{"type":"function","name":"initialize","inputs":[{"name":"_storageT","type":"address","internalType":"address"},{"name":"_pairInfos","type":"address","internalType":"address"}],"outputs":[],"stateMutability":"nonpayable"},{"type":"function","name":"liqFeeP","inputs":[],"outputs":[{"name":"","type":"uint256","internalType":"uint256"}],"stateMutability":"view"},{"type":"function","name":"liqTotalFeeP","inputs":[],"outputs":[{"name":"","type":"uint256","internalType":"uint256"}],"stateMutability":"view"},{"type":"function","name":"openTradeMarketCallback","inputs":[{"name":"orderId","type":"uint256","internalType":"uint256"},{"name":"price","type":"uint256","internalType":"uint256"},{"name":"spreadP","type":"uint256","internalType":"uint256"}],"outputs":[],"stateMutability":"nonpayable"},{"type":"function","name":"pairInfos","inputs":[],"outputs":[{"name":"","type":"address","internalType":"contract IPairInfos"}],"stateMutability":"view"},{"type":"function","name":"setFeeP","inputs":[{"name":"_liqFeeP","type":"uint256","internalType":"uint256"},{"name":"_liqTotalFeeP","type":"uint256","internalType":"uint256"},{"name":"_vaultFeeP","type":"uint256","internalType":"uint256"}],"outputs":[],"stateMutability":"nonpayable"},{"type":"function","name":"storageT","inputs":[],"outputs":[{"name":"","type":"address","internalType":"contract ITradingStorage"}],"stateMutability":"view"},{"type":"function","name":"transferFromVault","inputs":[{"name":"_trader","type":"address","internalType":"address"},{"name":"_amount","type":"uint256","internalType":"uint256"}],"outputs":[],"stateMutability":"nonpayable"},{"type":"function","name":"updateMarginCallback","inputs":[{"name":"orderId","type":"uint256","internalType":"uint256"},{"name":"price","type":"uint256","internalType":"uint256"},{"name":"spreadP","type":"uint256","internalType":"uint256"}],"outputs":[],"stateMutability":"nonpayable"},{"type":"function","name":"updateSlCallback","inputs":[{"name":"orderId","type":"uint256","internalType":"uint256"},{"name":"price","type":"uint256","internalType":"uint256"},{"name":"spreadP","type":"uint256","internalType":"uint256"}],"outputs":[],"stateMutability":"nonpayable"},{"type":"function","name":"vaultFeeP","inputs":[],"outputs":[{"name":"","type":"uint256","internalType":"uint256"}],"stateMutability":"view"},{"type":"function","name":"withinExposureLimits","inputs":[{"name":"_trader","type":"address","internalType":"address"},{"name":"_pairIndex","type":"uint256","internalType":"uint256"},{"name":"_leveragedPos","type":"uint256","internalType":"uint256"}],"outputs":[{"name":"","type":"bool","internalType":"bool"}],"stateMutability":"view"},{"type":"event","name":"AddressUpdated","inputs":[{"name":"name","type":"string","indexed":false,"internalType":"string"},{"name":"a","type":"address","indexed":false,"internalType":"address"}],"anonymous":false},{"type":"event","name":"Done","inputs":[{"name":"done","type":"bool","indexed":false,"internalType":"bool"}],"anonymous":false},{"type":"event","name":"FeeUpdated","inputs":[{"name":"_vaultFeeP","type":"uint256","indexed":false,"internalType":"uint256"},{"name":"_liqFeeP","type":"uint256","indexed":false,"internalType":"uint256"},{"name":"_liqTotalFeeP","type":"uint256","indexed":false,"internalType":"uint256"}],"anonymous":false},{"type":"event","name":"Initialized","inputs":[{"name":"version","type":"uint8","indexed":false,"internalType":"uint8"}],"anonymous":false},{"type":"event","name":"LimitExecuted","inputs":[{"name":"orderId","type":"uint256","indexed":false,"internalType":"uint256"},{"name":"limitIndex","type":"uint256","indexed":false,"internalType":"uint256"},{"name":"t","type":"tuple","indexed":false,"internalType":"struct ITradingStorage.Trade","components":[{"name":"trader","type":"address","internalType":"address"},{"name":"pairIndex","type":"uint256","internalType":"uint256"},{"name":"index","type":"uint256","internalType":"uint256"},{"name":"initialPosToken","type":"uint256","internalType":"uint256"},{"name":"positionSizeUSDC","type":"uint256","internalType":"uint256"},{"name":"openPrice","type":"uint256","internalType":"uint256"},{"name":"buy","type":"bool","internalType":"bool"},{"name":"leverage","type":"uint256","internalType":"uint256"},{"name":"tp","type":"uint256","internalType":"uint256"},{"name":"sl","type":"uint256","internalType":"uint256"},{"name":"timestamp","type":"uint256","internalType":"uint256"}]},{"name":"orderType","type":"uint8","indexed":false,"internalType":"enum ITradingStorage.LimitOrder"},{"name":"price","type":"uint256","indexed":false,"internalType":"uint256"},{"name":"positionSizeUSDC","type":"uint256","indexed":false,"internalType":"uint256"},{"name":"percentProfit","type":"int256","indexed":false,"internalType":"int256"},{"name":"usdcSentToTrader","type":"uint256","indexed":false,"internalType":"uint256"}],"anonymous":false},{"type":"event","name":"MarginUpdated","inputs":[{"name":"trader","type":"address","indexed":true,"internalType":"address"},{"name":"pairIndex","type":"uint256","indexed":false,"internalType":"uint256"},{"name":"index","type":"uint256","indexed":false,"internalType":"uint256"},{"name":"newSl","type":"uint256","indexed":false,"internalType":"uint256"},{"name":"timestamp","type":"uint256","indexed":false,"internalType":"uint256"}],"anonymous":false},{"type":"event","name":"MarketExecuted","inputs":[{"name":"orderId","type":"uint256","indexed":false,"internalType":"uint256"},{"name":"t","type":"tuple","indexed":false,"internalType":"struct ITradingStorage.Trade","components":[{"name":"trader","type":"address","internalType":"address"},{"name":"pairIndex","type":"uint256","internalType":"uint256"},{"name":"index","type":"uint256","internalType":"uint256"},{"name":"initialPosToken","type":"uint256","internalType":"uint256"},{"name":"positionSizeUSDC","type":"uint256","internalType":"uint256"},{"name":"openPrice","type":"uint256","internalType":"uint256"},{"name":"buy","type":"bool","internalType":"bool"},{"name":"leverage","type":"uint256","internalType":"uint256"},{"name":"tp","type":"uint256","internalType":"uint256"},{"name":"sl","type":"uint256","internalType":"uint256"},{"name":"timestamp","type":"uint256","internalType":"uint256"}]},{"name":"open","type":"bool","indexed":false,"internalType":"bool"},{"name":"price","type":"uint256","indexed":false,"internalType":"uint256"},{"name":"positionSizeUSDC","type":"uint256","indexed":false,"internalType":"uint256"},{"name":"percentProfit","type":"int256","indexed":false,"internalType":"int256"},{"name":"usdcSentToTrader","type":"uint256","indexed":false,"internalType":"uint256"}],"anonymous":false},{"type":"event","name":"MarketOpenCanceled","inputs":[{"name":"orderId","type":"uint256","indexed":false,"internalType":"uint256"},{"name":"trader","type":"address","indexed":true,"internalType":"address"},{"name":"pairIndex","type":"uint256","indexed":false,"internalType":"uint256"}],"anonymous":false},{"type":"event","name":"Pause","inputs":[{"name":"paused","type":"bool","indexed":false,"internalType":"bool"}],"anonymous":false},{"type":"event","name":"SlUpdated","inputs":[{"name":"orderId","type":"uint256","indexed":false,"internalType":"uint256"},{"name":"trader","type":"address","indexed":true,"internalType":"address"},{"name":"pairIndex","type":"uint256","indexed":false,"internalType":"uint256"},{"name":"index","type":"uint256","indexed":false,"internalType":"uint256"},{"name":"newSl","type":"uint256","indexed":false,"internalType":"uint256"}],"anonymous":false}],"bytecode":{"object":"0x60806040523480156200001157600080fd5b506200001c62000022565b620000e3565b600054610100900460ff16156200008f5760405162461bcd60e51b815260206004820152602760248201527f496e697469616c697a61626c653a20636f6e747261637420697320696e697469604482015266616c697a696e6760c81b606482015260840160405180910390fd5b60005460ff90811614620000e1576000805460ff191660ff9081179091556040519081527f7f26b83ff96e1f2b6a682f133852f6798a09c465da95921460cefb38474024989060200160405180910390a15b565b615f0c80620000f36000396000f3fe608060405234801561001057600080fd5b506004361061010b5760003560e01c8063857c3f1e116100a2578063c4493e3711610071578063c4493e3714610223578063da0870e71461022c578063da8ddc741461023f578063edd67fbe14610252578063fa7227e91461026557600080fd5b8063857c3f1e146101d7578063aee2e443146101ea578063b2250471146101fd578063b5edf9541461021057600080fd5b8063485cc955116100de578063485cc955146101815780636819edf31461019457806369d017d5146101b757806374cbe6ee146101ce57600080fd5b80631346b0ff1461011057806316fff07414610140578063203efa581461015957806345ac0f9a1461016e575b600080fd5b600154610123906001600160a01b031681565b6040516001600160a01b0390911681526020015b60405180910390f35b600054610123906201000090046001600160a01b031681565b61016c610167366004615985565b610278565b005b61016c61017c366004615985565b610ca4565b61016c61018f3660046154ab565b610d7e565b6101a76101a2366004615510565b610ed9565b6040519015158152602001610137565b6101c060035481565b604051908152602001610137565b6101c060025481565b61016c6101e5366004615985565b611419565b6101c06101f83660046159b1565b611f91565b61016c61020b366004615985565b612025565b6101c061021e3660046159b1565b612dc4565b6101c060045481565b61016c61023a366004615985565b612e37565b61016c61024d3660046154e4565b6131fb565b61016c610260366004615985565b613431565b61016c610273366004615985565b613b04565b600060029054906101000a90046001600160a01b03166001600160a01b0316633078fff56040518163ffffffff1660e01b815260040160206040518083038186803b1580156102c657600080fd5b505afa1580156102da573d6000803e3d6000fd5b505050506040513d601f19601f820116820180604052508101906102fe9190615487565b6001600160a01b0316336001600160a01b0316146103375760405162461bcd60e51b815260040161032e90615ae6565b60405180910390fd5b60008060029054906101000a90046001600160a01b03166001600160a01b0316633078fff56040518163ffffffff1660e01b815260040160206040518083038186803b15801561038657600080fd5b505afa15801561039a573d6000803e3d6000fd5b505050506040513d601f19601f820116820180604052508101906103be9190615487565b6040516368fb329760e11b8152600481018690529091506000906001600160a01b0383169063d1f6652e906024016101006040518083038186803b15801561040557600080fd5b505afa158015610419573d6000803e3d6000fd5b505050506040513d601f19601f8201168201806040525081019061043d91906156b2565b600080548251602084015160408086015190516351d407ff60e11b81529596509394620100009093046001600160a01b03169363a3a80ffe9361048593929190600401615ac5565b6101606040518083038186803b15801561049e57600080fd5b505afa1580156104b2573d6000803e3d6000fd5b505050506040513d601f19601f820116820180604052508101906104d691906158fd565b90508415610934576000826060015160018111156104f6576104f6615e9a565b141561066d57600054815160808401516040516345c19a8d60e11b81526001600160a01b0392831660048201526201000090930490911660248301819052604483019190915290638b83351a90606401600060405180830381600087803b15801561056057600080fd5b505af1158015610574573d6000803e3d6000fd5b50505050600060029054906101000a90046001600160a01b03166001600160a01b0316638a4adf246040518163ffffffff1660e01b815260040160206040518083038186803b1580156105c657600080fd5b505afa1580156105da573d6000803e3d6000fd5b505050506040513d601f19601f820116820180604052508101906105fe9190615487565b81516080840151604051635a65ca9160e01b81526001600160a01b0392831660048201526024810191909152911690635a65ca9190604401600060405180830381600087803b15801561065057600080fd5b505af1158015610664573d6000803e3d6000fd5b50505050610934565b60006106878260a00151878460c001518560e00151614116565b9050600060646402540be4008385606001516106a39190615d57565b6106ad9190615d15565b6106b79190615d15565b905060008112156107d6576064856001600160a01b03166335b03c176040518163ffffffff1660e01b815260040160206040518083038186803b1580156106fd57600080fd5b505afa158015610711573d6000803e3d6000fd5b505050506040513d601f19601f820116820180604052508101906107359190615487565b602085015160a0870151604051632b1cbe9d60e01b8152600481019290925260248201526001600160a01b039190911690632b1cbe9d9060440160206040518083038186803b15801561078757600080fd5b505afa15801561079b573d6000803e3d6000fd5b505050506040513d601f19601f820116820180604052508101906107bf919061591a565b6107c99083615d57565b6107d39190615d15565b90505b60646107e3605082615e3a565b84606001516107f29190615d57565b6107fc9190615d15565b81846060015161080c9190615cbc565b136108415760405162461bcd60e51b81526020600482015260056024820152642bafaa2fa160d91b604482015260640161032e565b5050600060029054906101000a90046001600160a01b03166001600160a01b0316638a4adf246040518163ffffffff1660e01b815260040160206040518083038186803b15801561089157600080fd5b505afa1580156108a5573d6000803e3d6000fd5b505050506040513d601f19601f820116820180604052508101906108c99190615487565b8151608084015160405163352b159160e11b81526001600160a01b0392831660048201526024810191909152911690636a562b2290604401600060405180830381600087803b15801561091b57600080fd5b505af115801561092f573d6000803e3d6000fd5b505050505b60c082015115610bbe57600060029054906101000a90046001600160a01b03166001600160a01b0316638a4adf246040518163ffffffff1660e01b815260040160206040518083038186803b15801561098c57600080fd5b505afa1580156109a0573d6000803e3d6000fd5b505050506040513d601f19601f820116820180604052508101906109c49190615487565b60c0830151604051635b898b7560e01b81526004810191909152600060248201526001600160a01b039190911690635b898b7590604401600060405180830381600087803b158015610a1557600080fd5b505af1158015610a29573d6000803e3d6000fd5b50505050600060029054906101000a90046001600160a01b03166001600160a01b0316633078fff56040518163ffffffff1660e01b815260040160206040518083038186803b158015610a7b57600080fd5b505afa158015610a8f573d6000803e3d6000fd5b505050506040513d601f19601f82011682018060405250810190610ab39190615487565b6001600160a01b03166335b03c176040518163ffffffff1660e01b815260040160206040518083038186803b158015610aeb57600080fd5b505afa158015610aff573d6000803e3d6000fd5b505050506040513d601f19601f82011682018060405250810190610b239190615487565b6001600160a01b0316634ffe8aec8260200151610b518560e001518660c001516141bc90919063ffffffff16565b60c08501516040516001600160e01b031960e086901b168152600481019390935260248301919091521515604482015260006064820152608401600060405180830381600087803b158015610ba557600080fd5b505af1158015610bb9573d6000803e3d6000fd5b505050505b6001548151602083015160408085015160c08601519151630735e1cd60e11b81526001600160a01b0394851660048201526024810193909352604483015215156064820152911690630e6bc39a90608401600060405180830381600087803b158015610c2957600080fd5b505af1158015610c3d573d6000803e3d6000fd5b505060405163c61904a160e01b8152600481018990526001600160a01b038616925063c61904a191506024015b600060405180830381600087803b158015610c8457600080fd5b505af1158015610c98573d6000803e3d6000fd5b50505050505050505050565b600060029054906101000a90046001600160a01b03166001600160a01b03166312d43a516040518163ffffffff1660e01b815260040160206040518083038186803b158015610cf257600080fd5b505afa158015610d06573d6000803e3d6000fd5b505050506040513d601f19601f82011682018060405250810190610d2a9190615487565b6001600160a01b0316336001600160a01b031614610d705760405162461bcd60e51b8152602060048201526003602482015262475f4f60e81b604482015260640161032e565b600292909255600355600455565b600054610100900460ff1615808015610d9e5750600054600160ff909116105b80610db85750303b158015610db8575060005460ff166001145b610e1b5760405162461bcd60e51b815260206004820152602e60248201527f496e697469616c697a61626c653a20636f6e747261637420697320616c72656160448201526d191e481a5b9a5d1a585b1a5e995960921b606482015260840161032e565b6000805460ff191660011790558015610e3e576000805461ff0019166101001790555b6000805462010000600160b01b031916620100006001600160a01b038681169190910291909117909155600180546001600160a01b03191691841691909117905560146004556005600255600a6003558015610ed4576000805461ff0019169055604051600181527f7f26b83ff96e1f2b6a682f133852f6798a09c465da95921460cefb38474024989060200160405180910390a15b505050565b600080600060029054906101000a90046001600160a01b03166001600160a01b0316633078fff56040518163ffffffff1660e01b815260040160206040518083038186803b158015610f2a57600080fd5b505afa158015610f3e573d6000803e3d6000fd5b505050506040513d601f19601f82011682018060405250810190610f629190615487565b6001600160a01b03166335b03c176040518163ffffffff1660e01b815260040160206040518083038186803b158015610f9a57600080fd5b505afa158015610fae573d6000803e3d6000fd5b505050506040513d601f19601f82011682018060405250810190610fd29190615487565b9050600060029054906101000a90046001600160a01b03166001600160a01b031663dc6638f46040518163ffffffff1660e01b815260040160206040518083038186803b15801561102257600080fd5b505afa158015611036573d6000803e3d6000fd5b505050506040513d601f19601f8201168201806040525081019061105a919061591a565b83600060029054906101000a90046001600160a01b03166001600160a01b031663443295dc6040518163ffffffff1660e01b815260040160206040518083038186803b1580156110a957600080fd5b505afa1580156110bd573d6000803e3d6000fd5b505050506040513d601f19601f820116820180604052508101906110e1919061591a565b6110eb9190615cfd565b111580156111f3575060405163232683a960e21b8152600481018590526001600160a01b03821690638c9a0ea49060240160206040518083038186803b15801561113457600080fd5b505afa158015611148573d6000803e3d6000fd5b505050506040513d601f19601f8201168201806040525081019061116c919061591a565b604051635e4f8f5960e01b81526004810186905284906001600160a01b03841690635e4f8f599060240160206040518083038186803b1580156111ae57600080fd5b505afa1580156111c2573d6000803e3d6000fd5b505050506040513d601f19601f820116820180604052508101906111e6919061591a565b6111f09190615cfd565b11155b80156113015750604051635970d96b60e11b8152600481018590526001600160a01b0382169063b2e1b2d69060240160206040518083038186803b15801561123a57600080fd5b505afa15801561124e573d6000803e3d6000fd5b505050506040513d601f19601f82011682018060405250810190611272919061591a565b6000546040516378b4a14960e11b81526004810187905285916201000090046001600160a01b03169063f16942929060240160206040518083038186803b1580156112bc57600080fd5b505afa1580156112d0573d6000803e3d6000fd5b505050506040513d601f19601f820116820180604052508101906112f4919061591a565b6112fe9190615cfd565b11155b801561141057506040516315b954db60e21b8152600481018590526001600160a01b038216906356e5536c9060240160206040518083038186803b15801561134857600080fd5b505afa15801561135c573d6000803e3d6000fd5b505050506040513d601f19601f82011682018060405250810190611380919061591a565b600054604051635c3e58ed60e11b81526001600160a01b0388811660048301528692620100009004169063b87cb1da9060240160206040518083038186803b1580156113cb57600080fd5b505afa1580156113df573d6000803e3d6000fd5b505050506040513d601f19601f82011682018060405250810190611403919061591a565b61140d9190615cfd565b11155b95945050505050565b600060029054906101000a90046001600160a01b03166001600160a01b0316633078fff56040518163ffffffff1660e01b815260040160206040518083038186803b15801561146757600080fd5b505afa15801561147b573d6000803e3d6000fd5b505050506040513d601f19601f8201168201806040525081019061149f9190615487565b6001600160a01b0316336001600160a01b0316146114cf5760405162461bcd60e51b815260040161032e90615ae6565b6000805460405163363df41d60e11b815260048101869052620100009091046001600160a01b031690636c7be83a9060240160806040518083038186803b15801561151957600080fd5b505afa15801561152d573d6000803e3d6000fd5b505050506040513d601f19601f82011682018060405250810190611551919061562b565b905060008060029054906101000a90046001600160a01b03166001600160a01b0316633078fff56040518163ffffffff1660e01b815260040160206040518083038186803b1580156115a257600080fd5b505afa1580156115b6573d6000803e3d6000fd5b505050506040513d601f19601f820116820180604052508101906115da9190615487565b6001600160a01b031663b21f45176040518163ffffffff1660e01b815260040160206040518083038186803b15801561161257600080fd5b505afa158015611626573d6000803e3d6000fd5b505050506040513d601f19601f8201168201806040525081019061164a9190615487565b905083158015906116e95750600054825160208401516040808601519051636e6f99cd60e11b8152620100009094046001600160a01b03169363dcdf339a936116999390929091600401615ac5565b60206040518083038186803b1580156116b157600080fd5b505afa1580156116c5573d6000803e3d6000fd5b505050506040513d601f19601f820116820180604052508101906116e99190615545565b15611e7e5760008054835160208501516040808701519051632e21e28b60e21b8152620100009094046001600160a01b03169363b8878a2c936117329390929091600401615ac5565b6101806040518083038186803b15801561174b57600080fd5b505afa15801561175f573d6000803e3d6000fd5b505050506040513d601f19601f820116820180604052508101906117839190615583565b90506000826001600160a01b031663d4de65ea8560000151866020015187604001516040518463ffffffff1660e01b81526004016117c393929190615ac5565b60206040518083038186803b1580156117db57600080fd5b505afa1580156117ef573d6000803e3d6000fd5b505050506040513d601f19601f820116820180604052508101906118139190615562565b905060008060029054906101000a90046001600160a01b03166001600160a01b0316633078fff56040518163ffffffff1660e01b815260040160206040518083038186803b15801561186457600080fd5b505afa158015611878573d6000803e3d6000fd5b505050506040513d601f19601f8201168201806040525081019061189c9190615487565b905060018260028111156118b2576118b2615e9a565b146118dc5782608001516118ce578261010001518710156118fd565b8261010001518711156118fd565b82608001516118f3578261010001518711156118fd565b8261010001518710155b801561192c575061192c836000015184602001516101a28660a0015187606001516141bc90919063ffffffff16565b15611e7a5760008790506002826001600160a01b03166335b03c176040518163ffffffff1660e01b815260040160206040518083038186803b15801561197157600080fd5b505afa158015611985573d6000803e3d6000fd5b505050506040513d601f19601f820116820180604052508101906119a99190615487565b6001600160a01b0316633c44d0a386602001516040518263ffffffff1660e01b81526004016119da91815260200190565b60206040518083038186803b1580156119f257600080fd5b505afa158015611a06573d6000803e3d6000fd5b505050506040513d601f19601f82011682018060405250810190611a2a919061591a565b1015611af6576001546020850151608086015160a087015160608801516000946001600160a01b031693637ea95f32938e9391929091611a6a91906141bc565b6040516001600160e01b031960e087901b1681526004810194909452602484019290925215156044830152606482015260840160206040518083038186803b158015611ab557600080fd5b505afa158015611ac9573d6000803e3d6000fd5b505050506040513d601f19601f82011682018060405250810190611aed919061591a565b9850611b089050565b611b05888886608001516141e1565b97505b60006402540be4006064866101200151876101000151611b289190615ddc565b611b329190615d43565b611b3c9190615d43565b90508460800151611b5f5780856101000151611b589190615e3a565b8910611b73565b80856101000151611b709190615cfd565b89115b611e77576000611bf760405180610160016040528088600001516001600160a01b03168152602001886020015181526020016000815260200160008152602001886060015181526020018c81526020018860800151151581526020018860a0015181526020018860c0015181526020018860e001518152602001600081525061422a565b61016087015190915015611da95760005460408051632292b7c960e21b81529051620100009092046001600160a01b031691638b83351a9183918291638a4adf24916004808301926020929190829003018186803b158015611c5857600080fd5b505afa158015611c6c573d6000803e3d6000fd5b505050506040513d601f19601f82011682018060405250810190611c909190615487565b6101608a01516040516001600160e01b031960e086901b1681526001600160a01b0393841660048201529290911660248301526044820152606401600060405180830381600087803b158015611ce557600080fd5b505af1158015611cf9573d6000803e3d6000fd5b50505050866001600160a01b031663afc329ac604051806080016040528089600001516001600160a01b031681526020018960200151815260200189604001518152602001600380811115611d5057611d50615e9a565b8152508861016001516040518363ffffffff1660e01b8152600401611d76929190615ba1565b600060405180830381600087803b158015611d9057600080fd5b505af1158015611da4573d6000803e3d6000fd5b505050505b600054865160208801516040808a0151905163b4b0f56760e01b8152620100009094046001600160a01b03169363b4b0f56793611dec9390929091600401615ac5565b600060405180830381600087803b158015611e0657600080fd5b505af1158015611e1a573d6000803e3d6000fd5b505050507fa8f1c330dfd645b9efba2033f04003aa1793208fa11fa288d7cedacb5102d3128b89604001518360038560a0015186606001518c61010001518a604051611e6d989796959493929190615bff565b60405180910390a1505b50505b5050505b806001600160a01b031663bf654d2b604051806080016040528085600001516001600160a01b03168152602001856020015181526020018560400151815260200185606001516003811115611ed557611ed5615e9a565b8152506040518263ffffffff1660e01b8152600401611ef49190615b93565b600060405180830381600087803b158015611f0e57600080fd5b505af1158015611f22573d6000803e3d6000fd5b5050600054604051637ada848360e01b815260048101899052620100009091046001600160a01b03169250637ada848391506024015b600060405180830381600087803b158015611f7257600080fd5b505af1158015611f86573d6000803e3d6000fd5b505050505050505050565b6000821580611fba5750611fac6402540be4006101f4615d57565b611fb886858588614116565b145b1561201a5760006064611fd986611fd36101f48a615ddc565b906149c9565b611fe39190615d43565b9050826120085785811115611ff9576000612012565b6120038187615e3a565b612012565b6120128187615cfd565b91505061201d565b50815b949350505050565b600060029054906101000a90046001600160a01b03166001600160a01b0316633078fff56040518163ffffffff1660e01b815260040160206040518083038186803b15801561207357600080fd5b505afa158015612087573d6000803e3d6000fd5b505050506040513d601f19601f820116820180604052508101906120ab9190615487565b6001600160a01b0316336001600160a01b0316146120db5760405162461bcd60e51b815260040161032e90615ae6565b6000805460405163363df41d60e11b815260048101869052620100009091046001600160a01b031690636c7be83a9060240160806040518083038186803b15801561212557600080fd5b505afa158015612139573d6000803e3d6000fd5b505050506040513d601f19601f8201168201806040525081019061215d919061562b565b600080548251602084015160408086015190516351d407ff60e11b81529596509394620100009093046001600160a01b03169363a3a80ffe936121a593929190600401615ac5565b6101606040518083038186803b1580156121be57600080fd5b505afa1580156121d2573d6000803e3d6000fd5b505050506040513d601f19601f820116820180604052508101906121f691906158fd565b905060008060029054906101000a90046001600160a01b03166001600160a01b0316633078fff56040518163ffffffff1660e01b815260040160206040518083038186803b15801561224757600080fd5b505afa15801561225b573d6000803e3d6000fd5b505050506040513d601f19601f8201168201806040525081019061227f9190615487565b90506000816001600160a01b031663b21f45176040518163ffffffff1660e01b815260040160206040518083038186803b1580156122bc57600080fd5b505afa1580156122d0573d6000803e3d6000fd5b505050506040513d601f19601f820116820180604052508101906122f49190615487565b90508515801590612309575060008360e00151115b15612cb05760008054845160208601516040808801519051638c8ff1d560e01b8152620100009094046001600160a01b031693638c8ff1d5936123529390929091600401615ac5565b60a06040518083038186803b15801561236a57600080fd5b505afa15801561237e573d6000803e3d6000fd5b505050506040513d601f19601f820116820180604052508101906123a29190615877565b90506000836001600160a01b03166335b03c176040518163ffffffff1660e01b815260040160206040518083038186803b1580156123df57600080fd5b505afa1580156123f3573d6000803e3d6000fd5b505050506040513d601f19601f820116820180604052508101906124179190615487565b6001600160a01b03166324abd3fb86602001516040518263ffffffff1660e01b815260040161244891815260200190565b60206040518083038186803b15801561246057600080fd5b505afa158015612474573d6000803e3d6000fd5b505050506040513d601f19601f820116820180604052508101906124989190615545565b6124a25787612537565b6000866060015160038111156124ba576124ba615e9a565b14612530576001866060015160038111156124d7576124d7615e9a565b146124e25787612537565b8460c0015180156124fb57508460a00151856101200151115b8061251b57508460c0015115801561251b57508460a00151856101200151105b61252a57846101200151612537565b87612537565b8461010001515b905060006125538660a00151838860c001518960e00151614116565b9050600060028860600151600381111561256f5761256f615e9a565b141561268957600154875160208901516040808b015160a08c015160c08d015160608e015160e08f01519451636bc84d5960e01b81526001600160a01b0397881660048201526024810196909652604486019390935260648501919091521515608484015260a483015260c48201526000929190911690636bc84d599060e40160206040518083038186803b15801561260757600080fd5b505afa15801561261b573d6000803e3d6000fd5b505050506040513d601f19601f8201168201806040525081019061263f919061591a565b90508760c0015161265357808b1015612658565b808b11155b612663576000612681565b606460025489606001516126779190615ddc565b6126819190615d43565b91505061285e565b6000886060015160038111156126a1576126a1615e9a565b1480156126b357506000876101000151115b80156126db57508660c001516126d1578661010001518a11156126db565b8661010001518a10155b8061273357506001886060015160038111156126f9576126f9615e9a565b14801561270b57506000876101200151115b801561273357508660c00151612729578661012001518a1015612733565b8661012001518a11155b61273e57600061285b565b6402540be4006064876001600160a01b03166335b03c176040518163ffffffff1660e01b815260040160206040518083038186803b15801561277f57600080fd5b505afa158015612793573d6000803e3d6000fd5b505050506040513d601f19601f820116820180604052508101906127b79190615487565b6001600160a01b031663649a64888a602001516040518263ffffffff1660e01b81526004016127e891815260200190565b60206040518083038186803b15801561280057600080fd5b505afa158015612814573d6000803e3d6000fd5b505050506040513d601f19601f82011682018060405250810190612838919061591a565b89606001516128479190615ddc565b6128519190615d43565b61285b9190615d43565b90505b60028860600151600381111561287657612876615e9a565b1480156128835750600081115b156129c15760006128c688848a60600151856002546002546003546128a89190615e3a565b6128b29089615ddc565b6128bc9190615d43565b8a608001516149db565b9050856001600160a01b031663afc329ac60405180608001604052808c600001516001600160a01b031681526020018c6020015181526020018c6040015181526020018c60600151600381111561291f5761291f615e9a565b815250846040518363ffffffff1660e01b8152600401612940929190615ba1565b600060405180830381600087803b15801561295a57600080fd5b505af115801561296e573d6000803e3d6000fd5b505050507fa8f1c330dfd645b9efba2033f04003aa1793208fa11fa288d7cedacb5102d3128c8c8a8c60600151888d6060015189886040516129b7989796959493929190615bff565b60405180910390a1505b6002886060015160038111156129d9576129d9615e9a565b141580156129e75750600081115b15612cab576298968081116129fc5780612a01565b629896805b9050600060646402540be400848a60600151612a1d9190615d57565b612a279190615d15565b612a319190615d15565b905060008082128015612a5257506060890151612a5083600019615d57565b135b612b7557876001600160a01b03166335b03c176040518163ffffffff1660e01b815260040160206040518083038186803b158015612a8f57600080fd5b505afa158015612aa3573d6000803e3d6000fd5b505050506040513d601f19601f82011682018060405250810190612ac79190615487565b6001600160a01b031663836a341a8a602001516040518263ffffffff1660e01b8152600401612af891815260200190565b60206040518083038186803b158015612b1057600080fd5b505afa158015612b24573d6000803e3d6000fd5b505050506040513d601f19601f82011682018060405250810190612b48919061591a565b612b668a60e00151848c60600151612b609190615cbc565b906141bc565b612b709190615ddc565b612b78565b60005b90506000612bae8a868c60600151876402540be400606488612b9a9190615d43565b612ba49190615d43565b8c608001516149db565b9050876001600160a01b031663afc329ac60405180608001604052808e600001516001600160a01b031681526020018e6020015181526020018e6040015181526020018e606001516003811115612c0757612c07615e9a565b815250866040518363ffffffff1660e01b8152600401612c28929190615ba1565b600060405180830381600087803b158015612c4257600080fd5b505af1158015612c56573d6000803e3d6000fd5b505050507fa8f1c330dfd645b9efba2033f04003aa1793208fa11fa288d7cedacb5102d3128e8e8c8e606001518a8f606001518b88604051612c9f989796959493929190615bff565b60405180910390a15050505b505050505b806001600160a01b031663bf654d2b604051806080016040528087600001516001600160a01b03168152602001876020015181526020018760400151815260200187606001516003811115612d0757612d07615e9a565b8152506040518263ffffffff1660e01b8152600401612d269190615b93565b600060405180830381600087803b158015612d4057600080fd5b505af1158015612d54573d6000803e3d6000fd5b5050600054604051637ada848360e01b8152600481018b9052620100009091046001600160a01b03169250637ada84839150602401600060405180830381600087803b158015612da357600080fd5b505af1158015612db7573d6000803e3d6000fd5b5050505050505050505050565b60008083118015612dfa5750612de06402540be4006050615d57565b612dec90600019615d57565b612df886858588614116565b125b1561201a5760006064612e1286611fd360508a615ddc565b612e1c9190615d43565b905082612e2d576120038187615cfd565b6120128187615e3a565b600060029054906101000a90046001600160a01b03166001600160a01b0316633078fff56040518163ffffffff1660e01b815260040160206040518083038186803b158015612e8557600080fd5b505afa158015612e99573d6000803e3d6000fd5b505050506040513d601f19601f82011682018060405250810190612ebd9190615487565b6001600160a01b0316336001600160a01b031614612eed5760405162461bcd60e51b815260040161032e90615ae6565b60008060029054906101000a90046001600160a01b03166001600160a01b0316633078fff56040518163ffffffff1660e01b815260040160206040518083038186803b158015612f3c57600080fd5b505afa158015612f50573d6000803e3d6000fd5b505050506040513d601f19601f82011682018060405250810190612f749190615487565b6040516337a3dba360e01b8152600481018690529091506000906001600160a01b038316906337a3dba39060240160c06040518083038186803b158015612fba57600080fd5b505afa158015612fce573d6000803e3d6000fd5b505050506040513d601f19601f82011682018060405250810190612ff291906157de565b600080548251602084015160408086015190516351d407ff60e11b81529596509394620100009093046001600160a01b03169363a3a80ffe9361303a93929190600401615ac5565b6101606040518083038186803b15801561305357600080fd5b505afa158015613067573d6000803e3d6000fd5b505050506040513d601f19601f8201168201806040525081019061308b91906158fd565b905084158015906130a75750816080015115158160c001511515145b80156130ba575081606001518160a00151145b80156130e057508060c001516130d757848260a0015110156130e0565b848260a0015111155b156131ce576000548251602084015160408086015160a0870151915163a354418160e01b81526001600160a01b03948516600482015260248101939093526044830152606482015262010000909204169063a354418190608401600060405180830381600087803b15801561315457600080fd5b505af1158015613168573d6000803e3d6000fd5b5050835160208086015160408088015160a089015182518e8152948501939093529083015260608201526001600160a01b0390911692507fe57d6aa2ba102529f6f4f17498f4a95f866a5513e746e676e6cd037c991b6fe9915060800160405180910390a25b6040516361417a4360e01b8152600481018790526001600160a01b038416906361417a4390602401610c6a565b6000811180156133115750600060029054906101000a90046001600160a01b03166001600160a01b0316633078fff56040518163ffffffff1660e01b815260040160206040518083038186803b15801561325457600080fd5b505afa158015613268573d6000803e3d6000fd5b505050506040513d601f19601f8201168201806040525081019061328c9190615487565b6001600160a01b031663b21f45176040518163ffffffff1660e01b815260040160206040518083038186803b1580156132c457600080fd5b505afa1580156132d8573d6000803e3d6000fd5b505050506040513d601f19601f820116820180604052508101906132fc9190615487565b6001600160a01b0316336001600160a01b0316145b6133435760405162461bcd60e51b8152602060048201526003602482015262455f4f60e81b604482015260640161032e565b600060029054906101000a90046001600160a01b03166001600160a01b0316638a4adf246040518163ffffffff1660e01b815260040160206040518083038186803b15801561339157600080fd5b505afa1580156133a5573d6000803e3d6000fd5b505050506040513d601f19601f820116820180604052508101906133c99190615487565b60405163352b159160e11b81526001600160a01b038481166004830152602482018490529190911690636a562b2290604401600060405180830381600087803b15801561341557600080fd5b505af1158015613429573d6000803e3d6000fd5b505050505050565b600060029054906101000a90046001600160a01b03166001600160a01b0316633078fff56040518163ffffffff1660e01b815260040160206040518083038186803b15801561347f57600080fd5b505afa158015613493573d6000803e3d6000fd5b505050506040513d601f19601f820116820180604052508101906134b79190615487565b6001600160a01b0316336001600160a01b0316146134e75760405162461bcd60e51b815260040161032e90615ae6565b6000805460405163d5dabd7560e01b815260048101869052620100009091046001600160a01b03169063d5dabd75906024016101c06040518083038186803b15801561353257600080fd5b505afa158015613546573d6000803e3d6000fd5b505050506040513d601f19601f8201168201806040525081019061356a9190615763565b905080602001516000141561357f5750505050565b8051516001600160a01b03166135cb5760405162461bcd60e51b815260206004820152601160248201527024a72b2fa822a72224a723afa7a92222a960791b604482015260640161032e565b60008160000151905060008060029054906101000a90046001600160a01b03166001600160a01b0316633078fff56040518163ffffffff1660e01b815260040160206040518083038186803b15801561362357600080fd5b505afa158015613637573d6000803e3d6000fd5b505050506040513d601f19601f8201168201806040525081019061365b9190615487565b90506000816001600160a01b03166335b03c176040518163ffffffff1660e01b815260040160206040518083038186803b15801561369857600080fd5b505afa1580156136ac573d6000803e3d6000fd5b505050506040513d601f19601f820116820180604052508101906136d09190615487565b90506002816001600160a01b0316633c44d0a385602001516040518263ffffffff1660e01b815260040161370691815260200190565b60206040518083038186803b15801561371e57600080fd5b505afa158015613732573d6000803e3d6000fd5b505050506040513d601f19601f82011682018060405250810190613756919061591a565b101561382457600154602084015160c085015160e086015160808701516000946001600160a01b031693637ea95f32938c939192909161379691906141bc565b6040516001600160e01b031960e087901b1681526004810194909452602484019290925215156044830152606482015260840160206040518083038186803b1580156137e157600080fd5b505afa1580156137f5573d6000803e3d6000fd5b505050506040513d601f19601f82011682018060405250810190613819919061591a565b60a085015250613839565b61383386868560c001516141e1565b60a08401525b60006402540be4006064866060015187604001516138579190615ddc565b6138619190615d43565b61386b9190615d43565b90508615806138b057508360c001516138995780856040015161388e9190615e3a565b8460a00151106138b0565b8085604001516138a99190615cfd565b8460a00151115b806138ef575060008461010001511180156138ef57508360c001516138e1578361010001518460a0015111156138ef565b8361010001518460a0015110155b8061392e5750600084610120015111801561392e57508360c00151613920578361012001518460a00151101561392e565b8361012001518460a0015111155b8061395e575061395c846000015185602001516101a28760e0015188608001516141bc90919063ffffffff16565b155b15613a3457600054845160808601516040516345c19a8d60e11b8152620100009093046001600160a01b039081166004850181905292166024840152604483015290638b83351a90606401600060405180830381600087803b1580156139c357600080fd5b505af11580156139d7573d6000803e3d6000fd5b5050505083600001516001600160a01b03167f4b2ef4d80a0964a9a8f43256d8111558389b384d2029743c1eeb6950b14d9c65898660200151604051613a27929190918252602082015260400190565b60405180910390a2613a90565b6000613a3f8561422a565b90507fdbe34a0ae1c9c65460a7efc44af9aadd9b07a8b3e112ee70a71eeeba287b2d62898260018460a001518560600151600080604051613a869796959493929190615bbc565b60405180910390a1505b600054604051630195728b60e71b8152600481018a905260016024820152620100009091046001600160a01b03169063cab9458090604401600060405180830381600087803b158015613ae257600080fd5b505af1158015613af6573d6000803e3d6000fd5b505050505050505050505050565b600060029054906101000a90046001600160a01b03166001600160a01b0316633078fff56040518163ffffffff1660e01b815260040160206040518083038186803b158015613b5257600080fd5b505afa158015613b66573d6000803e3d6000fd5b505050506040513d601f19601f82011682018060405250810190613b8a9190615487565b6001600160a01b0316336001600160a01b031614613bba5760405162461bcd60e51b815260040161032e90615ae6565b6000805460405163d5dabd7560e01b815260048101869052620100009091046001600160a01b03169063d5dabd75906024016101c06040518083038186803b158015613c0557600080fd5b505afa158015613c19573d6000803e3d6000fd5b505050506040513d601f19601f82011682018060405250810190613c3d9190615763565b6000805482518051602082015160409283015192516351d407ff60e11b81529596509394620100009093046001600160a01b03169363a3a80ffe93613c859390600401615ac5565b6101606040518083038186803b158015613c9e57600080fd5b505afa158015613cb2573d6000803e3d6000fd5b505050506040513d601f19601f82011682018060405250810190613cd691906158fd565b8251519091506001600160a01b0316613d255760405162461bcd60e51b815260206004820152601160248201527024a72b2fa822a72224a723afa7a92222a960791b604482015260640161032e565b8315801590613d38575060008160e00151115b156140835760008054825160208401516040808601519051638c8ff1d560e01b8152620100009094046001600160a01b031693638c8ff1d593613d819390929091600401615ac5565b60a06040518083038186803b158015613d9957600080fd5b505afa158015613dad573d6000803e3d6000fd5b505050506040513d601f19601f82011682018060405250810190613dd19190615877565b905060008060029054906101000a90046001600160a01b03166001600160a01b0316633078fff56040518163ffffffff1660e01b815260040160206040518083038186803b158015613e2257600080fd5b505afa158015613e36573d6000803e3d6000fd5b505050506040513d601f19601f82011682018060405250810190613e5a9190615487565b90506000613e768460a00151888660c001518760e00151614116565b9050600060646402540be40083886000015160600151613e969190615d57565b613ea09190615d15565b613eaa9190615d15565b905060008082128015613ecc5750865160600151613eca83600019615d57565b135b613ef157613eec8660e0015183896000015160600151612b609190615cbc565b613ef4565b60005b9050600061402a87858a600001516060015160006402540be40060648b6001600160a01b03166335b03c176040518163ffffffff1660e01b815260040160206040518083038186803b158015613f4957600080fd5b505afa158015613f5d573d6000803e3d6000fd5b505050506040513d601f19601f82011682018060405250810190613f819190615487565b6001600160a01b031663836a341a8f602001516040518263ffffffff1660e01b8152600401613fb291815260200190565b60206040518083038186803b158015613fca57600080fd5b505afa158015613fde573d6000803e3d6000fd5b505050506040513d601f19601f82011682018060405250810190614002919061591a565b61400c908a615ddc565b6140169190615d43565b6140209190615d43565b8b608001516149db565b90507fdbe34a0ae1c9c65460a7efc44af9aadd9b07a8b3e112ee70a71eeeba287b2d628b8860008d8c600001516060015189876040516140709796959493929190615bbc565b60405180910390a15050505050506140d8565b80600001516001600160a01b03167f4b2ef4d80a0964a9a8f43256d8111558389b384d2029743c1eeb6950b14d9c658683602001516040516140cf929190918252602082015260400190565b60405180910390a25b60008054604051630195728b60e71b81526004810188905260248101929092526201000090046001600160a01b03169063cab9458090604401611f58565b6000808361412d576141288587615dfb565b614137565b6141378686615dfb565b9050600061414c6402540be400606319615d57565b905060006141616402540be4006101f4615d57565b9050876141736402540be400876141bc565b61417e856064615d57565b6141889190615d57565b6141929190615d15565b93508184126141ae578084136141a857836141b0565b806141b0565b815b98975050505050505050565b60006402540be4006141ce8385615ddc565b6141d89190615d43565b90505b92915050565b6000806402540be40060646141f68688615ddc565b6142009190615d43565b61420a9190615d43565b9050826142205761421b8186615e3a565b611410565b6114108186615cfd565b61429260405180610160016040528060006001600160a01b031681526020016000815260200160008152602001600081526020016000815260200160008152602001600015158152602001600081526020016000815260200160008152602001600081525090565b60008060029054906101000a90046001600160a01b03166001600160a01b0316633078fff56040518163ffffffff1660e01b815260040160206040518083038186803b1580156142e157600080fd5b505afa1580156142f5573d6000803e3d6000fd5b505050506040513d601f19601f820116820180604052508101906143199190615487565b90506000816001600160a01b03166335b03c176040518163ffffffff1660e01b815260040160206040518083038186803b15801561435657600080fd5b505afa15801561436a573d6000803e3d6000fd5b505050506040513d601f19601f8201168201806040525081019061438e9190615487565b426101408601526000548551602087015160e08801516080890151949550620100009093046001600160a01b031693632a9a9667936143cd91906141bc565b60c08901516040516001600160e01b031960e087901b1681526001600160a01b039094166004850152602484019290925260448301526001606483018190526084830152151560a482015260c401602060405180830381600087803b15801561443557600080fd5b505af1158015614449573d6000803e3d6000fd5b505050506040513d601f19601f8201168201806040525081019061446d919061591a565b8460800181815161447e9190615e3a565b91508181525050600060029054906101000a90046001600160a01b03166001600160a01b0316638a4adf246040518163ffffffff1660e01b815260040160206040518083038186803b1580156144d357600080fd5b505afa1580156144e7573d6000803e3d6000fd5b505050506040513d601f19601f8201168201806040525081019061450b9190615487565b6001600160a01b031663142696876145348660e0015187608001516141bc90919063ffffffff16565b6040518263ffffffff1660e01b815260040161455291815260200190565b600060405180830381600087803b15801561456c57600080fd5b505af1158015614580573d6000803e3d6000fd5b50505050600060029054906101000a90046001600160a01b03166001600160a01b0316638a4adf246040518163ffffffff1660e01b815260040160206040518083038186803b1580156145d257600080fd5b505afa1580156145e6573d6000803e3d6000fd5b505050506040513d601f19601f8201168201806040525081019061460a9190615487565b84516080860151604051635a65ca9160e01b81526001600160a01b0392831660048201526024810191909152911690635a65ca9190604401600060405180830381600087803b15801561465c57600080fd5b505af1158015614670573d6000803e3d6000fd5b505050506080840180516060860152600090819052548451602086015160405163292c161760e01b81526001600160a01b039283166004820152602481019190915262010000909204169063292c16179060440160206040518083038186803b1580156146dc57600080fd5b505afa1580156146f0573d6000803e3d6000fd5b505050506040513d601f19601f82011682018060405250810190614714919061591a565b84604001818152505061473a8460a001518560e001518661010001518760c00151611f91565b846101000181815250506147618460a001518560e001518661012001518760c00151612dc4565b6101208501526001548451602086015160408088015160c08901519151630735e1cd60e11b81526001600160a01b0394851660048201526024810193909352604483015215156064820152911690630e6bc39a90608401600060405180830381600087803b1580156147d257600080fd5b505af11580156147e6573d6000803e3d6000fd5b50505050806001600160a01b0316634ffe8aec85602001516148198760e0015188606001516141bc90919063ffffffff16565b60c08801516040516001600160e01b031960e086901b168152600481019390935260248301919091521515604482015260016064820152608401600060405180830381600087803b15801561486d57600080fd5b505af1158015614881573d6000803e3d6000fd5b50505050600060029054906101000a90046001600160a01b03166001600160a01b031663b833966f856040518060a001604052806148d08960e001518a606001516141bc90919063ffffffff16565b815243602082018190526040808301919091526000606083015260015490516341698bd960e11b81526080909201916001600160a01b03909116906382d317b29061491f908c90600401615b03565b60206040518083038186803b15801561493757600080fd5b505afa15801561494b573d6000803e3d6000fd5b505050506040513d601f19601f8201168201806040525081019061496f919061591a565b8152506040518363ffffffff1660e01b815260040161498f929190615b12565b600060405180830381600087803b1580156149a957600080fd5b505af11580156149bd573d6000803e3d6000fd5b50959695505050505050565b6000816141ce6402540be40085615ddc565b600080600080600060029054906101000a90046001600160a01b03166001600160a01b031663700ff3598b6000015188614a228e60e001518d6141bc90919063ffffffff16565b6040518463ffffffff1660e01b8152600401614a4093929190615ac5565b6040805180830381600087803b158015614a5957600080fd5b505af1158015614a6d573d6000803e3d6000fd5b505050506040513d601f19601f82011682018060405250810190614a919190615961565b60015491935091506000906001600160a01b0316630b224e878c8b8d614ab78d89615cfd565b8b6040518663ffffffff1660e01b8152600401614ad8959493929190615b5e565b606060405180830381600087803b158015614af257600080fd5b505af1158015614b06573d6000803e3d6000fd5b505050506040513d601f19601f82011682018060405250810190614b2a9190615933565b91965090945090508415614c2357600060029054906101000a90046001600160a01b03166001600160a01b0316638a4adf246040518163ffffffff1660e01b815260040160206040518083038186803b158015614b8657600080fd5b505afa158015614b9a573d6000803e3d6000fd5b505050506040513d601f19601f82011682018060405250810190614bbe9190615487565b8b5160405163352b159160e11b81526001600160a01b03918216600482015260248101889052911690636a562b2290604401600060405180830381600087803b158015614c0a57600080fd5b505af1158015614c1e573d6000803e3d6000fd5b505050505b6000811215614e1c57600060029054906101000a90046001600160a01b03166001600160a01b0316638a4adf246040518163ffffffff1660e01b815260040160206040518083038186803b158015614c7a57600080fd5b505afa158015614c8e573d6000803e3d6000fd5b505050506040513d601f19601f82011682018060405250810190614cb29190615487565b6001600160a01b0316635b898b75614cc983615e51565b6040516001600160e01b031960e084901b168152600481019190915260016024820152604401600060405180830381600087803b158015614d0957600080fd5b505af1158015614d1d573d6000803e3d6000fd5b50505050600060029054906101000a90046001600160a01b03166001600160a01b0316638a4adf246040518163ffffffff1660e01b815260040160206040518083038186803b158015614d6f57600080fd5b505afa158015614d83573d6000803e3d6000fd5b505050506040513d601f19601f82011682018060405250810190614da79190615487565b6001600160a01b0316635b898b75614dbf8a87615e3a565b6040516001600160e01b031960e084901b168152600481019190915260006024820152604401600060405180830381600087803b158015614dff57600080fd5b505af1158015614e13573d6000803e3d6000fd5b50505050614f19565b8315614f1957600060029054906101000a90046001600160a01b03166001600160a01b0316638a4adf246040518163ffffffff1660e01b815260040160206040518083038186803b158015614e7057600080fd5b505afa158015614e84573d6000803e3d6000fd5b505050506040513d601f19601f82011682018060405250810190614ea89190615487565b6001600160a01b0316635b898b75614ec08a87615e3a565b6040516001600160e01b031960e084901b168152600481019190915260006024820152604401600060405180830381600087803b158015614f0057600080fd5b505af1158015614f14573d6000803e3d6000fd5b505050505b811561500557600060029054906101000a90046001600160a01b03166001600160a01b0316638a4adf246040518163ffffffff1660e01b815260040160206040518083038186803b158015614f6d57600080fd5b505afa158015614f81573d6000803e3d6000fd5b505050506040513d601f19601f82011682018060405250810190614fa59190615487565b6001600160a01b031663a056d2bb836040518263ffffffff1660e01b8152600401614fd291815260200190565b600060405180830381600087803b158015614fec57600080fd5b505af1158015615000573d6000803e3d6000fd5b505050505b505050600060029054906101000a90046001600160a01b03166001600160a01b0316638a4adf246040518163ffffffff1660e01b815260040160206040518083038186803b15801561505657600080fd5b505afa15801561506a573d6000803e3d6000fd5b505050506040513d601f19601f8201168201806040525081019061508e9190615487565b6001600160a01b03166376079be36150b38a60e00151896141bc90919063ffffffff16565b6040518263ffffffff1660e01b81526004016150d191815260200190565b600060405180830381600087803b1580156150eb57600080fd5b505af11580156150ff573d6000803e3d6000fd5b50505050858860600151141561518957600054885160208a01516040808c015190516390d112b960e01b8152620100009094046001600160a01b0316936390d112b9936151529390929091600401615ac5565b600060405180830381600087803b15801561516c57600080fd5b505af1158015615180573d6000803e3d6000fd5b50505050615227565b600054885160208a015160408b0151620100009093046001600160a01b031692633f64d0369291906151bb868c615cfd565b6040516001600160e01b031960e087901b1681526001600160a01b039094166004850152602484019290925260448301526064820152608401600060405180830381600087803b15801561520e57600080fd5b505af1158015615222573d6000803e3d6000fd5b505050505b600060029054906101000a90046001600160a01b03166001600160a01b0316633078fff56040518163ffffffff1660e01b815260040160206040518083038186803b15801561527557600080fd5b505afa158015615289573d6000803e3d6000fd5b505050506040513d601f19601f820116820180604052508101906152ad9190615487565b6001600160a01b03166335b03c176040518163ffffffff1660e01b815260040160206040518083038186803b1580156152e557600080fd5b505afa1580156152f9573d6000803e3d6000fd5b505050506040513d601f19601f8201168201806040525081019061531d9190615487565b6001600160a01b0316634ffe8aec89602001516153478b60e001518a6141bc90919063ffffffff16565b60c08c01516040516001600160e01b031960e086901b168152600481019390935260248301919091521515604482015260006064820152608401600060405180830381600087803b15801561539b57600080fd5b505af11580156153af573d6000803e3d6000fd5b50505050509695505050505050565b80516153c981615eb0565b919050565b80516153c981615ec8565b8051600281106153c957600080fd5b600061016082840312156153fb57600080fd5b615403615c52565b905061540e826153be565b81526020820151602082015260408201516040820152606082015160608201526080820151608082015260a082015160a082015261544e60c083016153ce565b60c082015260e082015160e082015261010080830151818301525061012080830151818301525061014080830151818301525092915050565b60006020828403121561549957600080fd5b81516154a481615eb0565b9392505050565b600080604083850312156154be57600080fd5b82356154c981615eb0565b915060208301356154d981615eb0565b809150509250929050565b600080604083850312156154f757600080fd5b823561550281615eb0565b946020939093013593505050565b60008060006060848603121561552557600080fd5b833561553081615eb0565b95602085013595506040909401359392505050565b60006020828403121561555757600080fd5b81516154a481615ec8565b60006020828403121561557457600080fd5b8151600381106154a457600080fd5b6000610180828403121561559657600080fd5b61559e615c8a565b6155a7836153be565b81526020830151602082015260408301516040820152606083015160608201526155d3608084016153ce565b608082015260a0838101519082015260c0808401519082015260e08084015190820152610100808401519082015261012080840151908201526101408084015190820152610160928301519281019290925250919050565b60006080828403121561563d57600080fd5b6040516080810181811067ffffffffffffffff8211171561566e57634e487b7160e01b600052604160045260246000fd5b604052825161567c81615eb0565b8082525060208301516020820152604083015160408201526060830151600481106156a657600080fd5b60608201529392505050565b60006101008083850312156156c657600080fd5b6040519081019067ffffffffffffffff821181831017156156f757634e487b7160e01b600052604160045260246000fd5b816040528351915061570882615eb0565b818152602084015160208201526040840151604082015261572b606085016153d9565b60608201526080840151608082015260a084015160a082015260c084015160c082015260e084015160e0820152809250505092915050565b60006101c0828403121561577657600080fd5b6040516080810181811067ffffffffffffffff821117156157a757634e487b7160e01b600052604160045260246000fd5b6040526157b484846153e8565b8152610160830151602082015261018083015160408201526101a090920151606083015250919050565b600060c082840312156157f057600080fd5b60405160c0810181811067ffffffffffffffff8211171561582157634e487b7160e01b600052604160045260246000fd5b604052825161582f81615eb0565b80825250602083015160208201526040830151604082015260608301516060820152608083015161585f81615ec8565b608082015260a0928301519281019290925250919050565b600060a0828403121561588957600080fd5b60405160a0810181811067ffffffffffffffff821117156158ba57634e487b7160e01b600052604160045260246000fd5b806040525082518152602083015160208201526040830151604082015260608301516158e581615ec8565b60608201526080928301519281019290925250919050565b6000610160828403121561591057600080fd5b6141d883836153e8565b60006020828403121561592c57600080fd5b5051919050565b60008060006060848603121561594857600080fd5b8351925060208401519150604084015190509250925092565b6000806040838503121561597457600080fd5b505080516020909101519092909150565b60008060006060848603121561599a57600080fd5b505081359360208301359350604090920135919050565b600080600080608085870312156159c757600080fd5b84359350602085013592506040850135915060608501356159e781615ec8565b939692955090935050565b60048110615a1057634e487b7160e01b600052602160045260246000fd5b9052565b80516001600160a01b031682526020810151602083015260408101516040830152606081015160608301526080810151608083015260a081015160a083015260c0810151615a6660c084018215159052565b5060e081810151908301526101008082015190830152610120808201519083015261014090810151910152565b60018060a01b03815116825260208101516020830152604081015160408301526060810151610ed460608401826159f2565b6001600160a01b039390931683526020830191909152604082015260600190565b602080825260039082015262415f4f60e81b604082015260600190565b61016081016141db8284615a14565b6102008101615b218285615a14565b8251610160830152602083015161018083015260408301516101a0830152606083015115156101c083015260808301516101e08301529392505050565b6101e08101615b6d8288615a14565b8561016083015284610180830152836101a0830152826101c08301529695505050505050565b608081016141db8284615a93565b60a08101615baf8285615a93565b8260808301529392505050565b8781526102208101615bd16020830189615a14565b9515156101808201526101a08101949094526101c08401929092526101e08301526102009091015292915050565b888152602081018890526102408101615c1b6040830189615a14565b615c296101a08301886159f2565b856101c0830152846101e083015283610200830152826102208301529998505050505050505050565b604051610160810167ffffffffffffffff81118282101715615c8457634e487b7160e01b600052604160045260246000fd5b60405290565b604051610180810167ffffffffffffffff81118282101715615c8457634e487b7160e01b600052604160045260246000fd5b600080821280156001600160ff1b0384900385131615615cde57615cde615e6e565b600160ff1b8390038412811615615cf757615cf7615e6e565b50500190565b60008219821115615d1057615d10615e6e565b500190565b600082615d2457615d24615e84565b600160ff1b821460001984141615615d3e57615d3e615e6e565b500590565b600082615d5257615d52615e84565b500490565b60006001600160ff1b0381841382841380821686840486111615615d7d57615d7d615e6e565b600160ff1b6000871282811687830589121615615d9c57615d9c615e6e565b60008712925087820587128484161615615db857615db8615e6e565b87850587128184161615615dce57615dce615e6e565b505050929093029392505050565b6000816000190483118215151615615df657615df6615e6e565b500290565b60008083128015600160ff1b850184121615615e1957615e19615e6e565b6001600160ff1b0384018313811615615e3457615e34615e6e565b50500390565b600082821015615e4c57615e4c615e6e565b500390565b6000600160ff1b821415615e6757615e67615e6e565b5060000390565b634e487b7160e01b600052601160045260246000fd5b634e487b7160e01b600052601260045260246000fd5b634e487b7160e01b600052602160045260246000fd5b6001600160a01b0381168114615ec557600080fd5b50565b8015158114615ec557600080fdfea26469706673582212209ac4bedd71ae9f0e2c11da1a1d24df8658c6286c14748579ae9a3eaa45f323b764736f6c63430008070033","linkReferences":{}},"methodIdentifiers":{"closeTradeMarketCallback(uint256,uint256,uint256)":"fa7227e9","correctSl(uint256,uint256,uint256,bool)":"b5edf954","correctTp(uint256,uint256,uint256,bool)":"aee2e443","executeLimitCloseOrderCallback(uint256,uint256,uint256)":"b2250471","executeLimitOpenOrderCallback(uint256,uint256,uint256)":"857c3f1e","initialize(address,address)":"485cc955","liqFeeP()":"74cbe6ee","liqTotalFeeP()":"69d017d5","openTradeMarketCallback(uint256,uint256,uint256)":"edd67fbe","pairInfos()":"1346b0ff","setFeeP(uint256,uint256,uint256)":"45ac0f9a","storageT()":"16fff074","transferFromVault(address,uint256)":"da8ddc74","updateMarginCallback(uint256,uint256,uint256)":"203efa58","updateSlCallback(uint256,uint256,uint256)":"da0870e7","vaultFeeP()":"c4493e37","withinExposureLimits(address,uint256,uint256)":"6819edf3"},"id":109}