{"abi":[{"type":"constructor","inputs":[{"name":"_validTimePeriod","type":"uint256","internalType":"uint256"},{"name":"_singleUpdateFeeInWei","type":"uint256","internalType":"uint256"}],"stateMutability":"nonpayable"},{"type":"function","name":"createPriceFeedUpdateData","inputs":[{"name":"id","type":"bytes32","internalType":"bytes32"},{"name":"price","type":"int64","internalType":"int64"},{"name":"conf","type":"uint64","internalType":"uint64"},{"name":"expo","type":"int32","internalType":"int32"},{"name":"emaPrice","type":"int64","internalType":"int64"},{"name":"emaConf","type":"uint64","internalType":"uint64"},{"name":"publishTime","type":"uint64","internalType":"uint64"}],"outputs":[{"name":"priceFeedData","type":"bytes","internalType":"bytes"}],"stateMutability":"pure"},{"type":"function","name":"getEmaPrice","inputs":[{"name":"id","type":"bytes32","internalType":"bytes32"}],"outputs":[{"name":"price","type":"tuple","internalType":"struct PythStructs.Price","components":[{"name":"price","type":"int64","internalType":"int64"},{"name":"conf","type":"uint64","internalType":"uint64"},{"name":"expo","type":"int32","internalType":"int32"},{"name":"publishTime","type":"uint256","internalType":"uint256"}]}],"stateMutability":"view"},{"type":"function","name":"getEmaPriceNoOlderThan","inputs":[{"name":"id","type":"bytes32","internalType":"bytes32"},{"name":"age","type":"uint256","internalType":"uint256"}],"outputs":[{"name":"price","type":"tuple","internalType":"struct PythStructs.Price","components":[{"name":"price","type":"int64","internalType":"int64"},{"name":"conf","type":"uint64","internalType":"uint64"},{"name":"expo","type":"int32","internalType":"int32"},{"name":"publishTime","type":"uint256","internalType":"uint256"}]}],"stateMutability":"view"},{"type":"function","name":"getEmaPriceUnsafe","inputs":[{"name":"id","type":"bytes32","internalType":"bytes32"}],"outputs":[{"name":"price","type":"tuple","internalType":"struct PythStructs.Price","components":[{"name":"price","type":"int64","internalType":"int64"},{"name":"conf","type":"uint64","internalType":"uint64"},{"name":"expo","type":"int32","internalType":"int32"},{"name":"publishTime","type":"uint256","internalType":"uint256"}]}],"stateMutability":"view"},{"type":"function","name":"getPrice","inputs":[{"name":"id","type":"bytes32","internalType":"bytes32"}],"outputs":[{"name":"price","type":"tuple","internalType":"struct PythStructs.Price","components":[{"name":"price","type":"int64","internalType":"int64"},{"name":"conf","type":"uint64","internalType":"uint64"},{"name":"expo","type":"int32","internalType":"int32"},{"name":"publishTime","type":"uint256","internalType":"uint256"}]}],"stateMutability":"view"},{"type":"function","name":"getPriceNoOlderThan","inputs":[{"name":"id","type":"bytes32","internalType":"bytes32"},{"name":"age","type":"uint256","internalType":"uint256"}],"outputs":[{"name":"price","type":"tuple","internalType":"struct PythStructs.Price","components":[{"name":"price","type":"int64","internalType":"int64"},{"name":"conf","type":"uint64","internalType":"uint64"},{"name":"expo","type":"int32","internalType":"int32"},{"name":"publishTime","type":"uint256","internalType":"uint256"}]}],"stateMutability":"view"},{"type":"function","name":"getPriceUnsafe","inputs":[{"name":"id","type":"bytes32","internalType":"bytes32"}],"outputs":[{"name":"price","type":"tuple","internalType":"struct PythStructs.Price","components":[{"name":"price","type":"int64","internalType":"int64"},{"name":"conf","type":"uint64","internalType":"uint64"},{"name":"expo","type":"int32","internalType":"int32"},{"name":"publishTime","type":"uint256","internalType":"uint256"}]}],"stateMutability":"view"},{"type":"function","name":"getUpdateFee","inputs":[{"name":"updateData","type":"bytes[]","internalType":"bytes[]"}],"outputs":[{"name":"feeAmount","type":"uint256","internalType":"uint256"}],"stateMutability":"view"},{"type":"function","name":"getValidTimePeriod","inputs":[],"outputs":[{"name":"","type":"uint256","internalType":"uint256"}],"stateMutability":"view"},{"type":"function","name":"parsePriceFeedUpdates","inputs":[{"name":"updateData","type":"bytes[]","internalType":"bytes[]"},{"name":"priceIds","type":"bytes32[]","internalType":"bytes32[]"},{"name":"minPublishTime","type":"uint64","internalType":"uint64"},{"name":"maxPublishTime","type":"uint64","internalType":"uint64"}],"outputs":[{"name":"feeds","type":"tuple[]","internalType":"struct PythStructs.PriceFeed[]","components":[{"name":"id","type":"bytes32","internalType":"bytes32"},{"name":"price","type":"tuple","internalType":"struct PythStructs.Price","components":[{"name":"price","type":"int64","internalType":"int64"},{"name":"conf","type":"uint64","internalType":"uint64"},{"name":"expo","type":"int32","internalType":"int32"},{"name":"publishTime","type":"uint256","internalType":"uint256"}]},{"name":"emaPrice","type":"tuple","internalType":"struct PythStructs.Price","components":[{"name":"price","type":"int64","internalType":"int64"},{"name":"conf","type":"uint64","internalType":"uint64"},{"name":"expo","type":"int32","internalType":"int32"},{"name":"publishTime","type":"uint256","internalType":"uint256"}]}]}],"stateMutability":"payable"},{"type":"function","name":"priceFeedExists","inputs":[{"name":"id","type":"bytes32","internalType":"bytes32"}],"outputs":[{"name":"","type":"bool","internalType":"bool"}],"stateMutability":"view"},{"type":"function","name":"queryPriceFeed","inputs":[{"name":"id","type":"bytes32","internalType":"bytes32"}],"outputs":[{"name":"priceFeed","type":"tuple","internalType":"struct PythStructs.PriceFeed","components":[{"name":"id","type":"bytes32","internalType":"bytes32"},{"name":"price","type":"tuple","internalType":"struct PythStructs.Price","components":[{"name":"price","type":"int64","internalType":"int64"},{"name":"conf","type":"uint64","internalType":"uint64"},{"name":"expo","type":"int32","internalType":"int32"},{"name":"publishTime","type":"uint256","internalType":"uint256"}]},{"name":"emaPrice","type":"tuple","internalType":"struct PythStructs.Price","components":[{"name":"price","type":"int64","internalType":"int64"},{"name":"conf","type":"uint64","internalType":"uint64"},{"name":"expo","type":"int32","internalType":"int32"},{"name":"publishTime","type":"uint256","internalType":"uint256"}]}]}],"stateMutability":"view"},{"type":"function","name":"updatePriceFeeds","inputs":[{"name":"updateData","type":"bytes[]","internalType":"bytes[]"}],"outputs":[],"stateMutability":"payable"},{"type":"function","name":"updatePriceFeedsIfNecessary","inputs":[{"name":"updateData","type":"bytes[]","internalType":"bytes[]"},{"name":"priceIds","type":"bytes32[]","internalType":"bytes32[]"},{"name":"publishTimes","type":"uint64[]","internalType":"uint64[]"}],"outputs":[],"stateMutability":"payable"},{"type":"event","name":"BatchPriceFeedUpdate","inputs":[{"name":"chainId","type":"uint16","indexed":false,"internalType":"uint16"},{"name":"sequenceNumber","type":"uint64","indexed":false,"internalType":"uint64"}],"anonymous":false},{"type":"event","name":"PriceFeedUpdate","inputs":[{"name":"id","type":"bytes32","indexed":true,"internalType":"bytes32"},{"name":"publishTime","type":"uint64","indexed":false,"internalType":"uint64"},{"name":"price","type":"int64","indexed":false,"internalType":"int64"},{"name":"conf","type":"uint64","indexed":false,"internalType":"uint64"}],"anonymous":false},{"type":"error","name":"InsufficientFee","inputs":[]},{"type":"error","name":"InvalidArgument","inputs":[]},{"type":"error","name":"NoFreshUpdate","inputs":[]},{"type":"error","name":"PriceFeedNotFound","inputs":[]},{"type":"error","name":"PriceFeedNotFoundWithinRange","inputs":[]},{"type":"error","name":"StalePrice","inputs":[]}],"bytecode":{"object":"0x608060405234801561001057600080fd5b5060405161127d38038061127d83398101604081905261002f9161003a565b60025560035561005e565b6000806040838503121561004d57600080fd5b505080516020909101519092909150565b6112108061006d6000396000f3fe6080604052600436106100dd5760003560e01c8063b5dcc9111161007f578063caaf43f111610059578063caaf43f114610259578063d47eed4514610286578063e18910a3146102b4578063ef9e5e28146102c957600080fd5b8063b5dcc911146101e5578063b5ec026114610205578063b9256d281461024457600080fd5b80639474f45b116100bb5780639474f45b1461015857806396834ad31461017857806396db632714610198578063a4ae35e0146101c557600080fd5b806331d98b3f146100e25780634716e9c514610118578063711a2e2814610138575b600080fd5b3480156100ee57600080fd5b506101026100fd366004610e68565b6102dc565b60405161010f91906110c8565b60405180910390f35b61012b610126366004610dd9565b6102f7565b60405161010f9190611015565b34801561014457600080fd5b50610102610153366004610f00565b610519565b34801561016457600080fd5b50610102610173366004610e68565b61055a565b34801561018457600080fd5b50610102610193366004610e68565b610578565b3480156101a457600080fd5b506101b86101b3366004610e81565b610596565b60405161010f9190611064565b3480156101d157600080fd5b506101026101e0366004610f00565b61063b565b3480156101f157600080fd5b50610102610200366004610e68565b61064c565b34801561021157600080fd5b50610234610220366004610e68565b600090815260208190526040902054151590565b604051901515815260200161010f565b610257610252366004610d40565b610661565b005b34801561026557600080fd5b50610279610274366004610e68565b610767565b60405161010f91906110b9565b34801561029257600080fd5b506102a66102a1366004610cff565b610853565b60405190815260200161010f565b3480156102c057600080fd5b506003546102a6565b6102576102d7366004610cff565b61086b565b6102e4610b9a565b6102f1826101e060035490565b92915050565b606060006103058888610853565b9050803410156103275760405162976f7560e21b815260040160405180910390fd5b846001600160401b0381111561033f5761033f6111c4565b60405190808252806020026020018201604052801561037857816020015b610365610bc1565b81526020019060019003908161035d5790505b50915060005b8581101561050d5760005b888110156104a5578989828181106103a3576103a36111ae565b90506020028101906103b591906110d6565b8101906103c29190610f22565b8483815181106103d4576103d46111ae565b60200260200101819052508787838181106103f1576103f16111ae565b9050602002013584838151811061040a5761040a6111ae565b6020026020010151600001511415610493576000848381518110610430576104306111ae565b60200260200101516020015160600151905080876001600160401b0316111580156104645750856001600160401b03168111155b1561046f57506104a5565b6000801b858481518110610485576104856111ae565b602090810291909101015152505b8061049d8161117d565b915050610389565b508686828181106104b8576104b86111ae565b905060200201358382815181106104d1576104d16111ae565b602002602001015160000151146104fb576040516345805f5d60e01b815260040160405180910390fd5b806105058161117d565b91505061037e565b50509695505050505050565b610521610b9a565b61052a8361055a565b90508161053b428360600151610b75565b11156102f157604051630cd5fa0760e11b815260040160405180910390fd5b610562610b9a565b600061056d83610767565b604001519392505050565b610580610b9a565b600061058b83610767565b602001519392505050565b60606105a0610bc1565b8881526020808201805160078b810b810b90915281516001600160401b03808c1691850191909152825160038b810b900b60409182018190529351888316606091820181905282880180518d870b90960b9095528451938b169387019390935283518201949094529151909201919091525161061e918391016110b9565b604051602081830303815290604052915050979650505050505050565b610643610b9a565b61052a83610578565b610654610b9a565b6102f18261015360035490565b8281146106815760405163a9cb9e0d60e01b815260040160405180910390fd5b60005b83811015610745576106bc8585838181106106a1576106a16111ae565b90506020020135600090815260208190526040902054151590565b158061071e57508282828181106106d5576106d56111ae565b90506020020160208101906106ea9190610f97565b6001600160401b0316610714868684818110610708576107086111ae565b90506020020135610767565b6020015160600151105b156107335761072d878761086b565b5061075f565b8061073d8161117d565b915050610684565b50604051636f162bfd60e11b815260040160405180910390fd5b505050505050565b61076f610bc1565b60008281526020819052604090205461079b57604051630295d7cd60e31b815260040160405180910390fd5b5060009081526020818152604091829020825160608082018552825482528451608080820187526001850154600781810b810b810b84526001600160401b03680100000000000000008084048216868b0152600160801b93849004600390810b810b810b878d015260028a015487890152888b01969096528a519485018b528589015480840b840b90930b855282041697830197909752909504810b810b900b84860152600490920154918301919091529182015290565b600254600090610864908390611147565b9392505050565b60006108778383610853565b9050803410156108995760405162976f7560e21b815260040160405180910390fd5b600160005b83811015610ae45760008585838181106108ba576108ba6111ae565b90506020028101906108cc91906110d6565b8101906108d99190610f22565b805160009081526020818152604090912060020154908201516060015191925090811015610acf5781600080846000015181526020019081526020016000206000820151816000015560208201518160010160008201518160000160006101000a8154816001600160401b03021916908360070b6001600160401b0316021790555060208201518160000160086101000a8154816001600160401b0302191690836001600160401b0316021790555060408201518160000160106101000a81548163ffffffff021916908360030b63ffffffff16021790555060608201518160010155505060408201518160030160008201518160000160006101000a8154816001600160401b03021916908360070b6001600160401b0316021790555060208201518160000160086101000a8154816001600160401b0302191690836001600160401b0316021790555060408201518160000160106101000a81548163ffffffff021916908360030b63ffffffff16021790555060608201518160010155505090505081600001517fd06a6b7f4918494b3719217d1802786c1f5112a6c1d88fe2cfec00b4584f6aec82846020015160000151856020015160200151604051610ac6939291906001600160401b03938416815260079290920b6020830152909116604082015260600190565b60405180910390a25b50508080610adc9061117d565b91505061089e565b506001546040805161ffff841681526001600160401b0390921660208301527f943f0e8a16c19895fb87cbeb1a349ed86d7f31923089dd36c1a1ed5e300f267b910160405180910390a1600180548190600090610b4b9083906001600160401b031661111c565b92506101000a8154816001600160401b0302191690836001600160401b0316021790555050505050565b600081831115610b9057610b898284611166565b90506102f1565b610b898383611166565b60408051608081018252600080825260208201819052918101829052606081019190915290565b60408051606081019091526000815260208101610bdc610b9a565b8152602001610be9610b9a565b905290565b60008083601f840112610c0057600080fd5b5081356001600160401b03811115610c1757600080fd5b6020830191508360208260051b8501011115610c3257600080fd5b9250929050565b8035600381900b8114610c4b57600080fd5b919050565b8035600781900b8114610c4b57600080fd5b600060808284031215610c7457600080fd5b604051608081018181106001600160401b0382111715610ca457634e487b7160e01b600052604160045260246000fd5b604052905080610cb383610c50565b8152610cc160208401610ce8565b6020820152610cd260408401610c39565b6040820152606083013560608201525092915050565b80356001600160401b0381168114610c4b57600080fd5b60008060208385031215610d1257600080fd5b82356001600160401b03811115610d2857600080fd5b610d3485828601610bee565b90969095509350505050565b60008060008060008060608789031215610d5957600080fd5b86356001600160401b0380821115610d7057600080fd5b610d7c8a838b01610bee565b90985096506020890135915080821115610d9557600080fd5b610da18a838b01610bee565b90965094506040890135915080821115610dba57600080fd5b50610dc789828a01610bee565b979a9699509497509295939492505050565b60008060008060008060808789031215610df257600080fd5b86356001600160401b0380821115610e0957600080fd5b610e158a838b01610bee565b90985096506020890135915080821115610e2e57600080fd5b50610e3b89828a01610bee565b9095509350610e4e905060408801610ce8565b9150610e5c60608801610ce8565b90509295509295509295565b600060208284031215610e7a57600080fd5b5035919050565b600080600080600080600060e0888a031215610e9c57600080fd5b87359650610eac60208901610c50565b9550610eba60408901610ce8565b9450610ec860608901610c39565b9350610ed660808901610c50565b9250610ee460a08901610ce8565b9150610ef260c08901610ce8565b905092959891949750929550565b60008060408385031215610f1357600080fd5b50508035926020909101359150565b60006101208284031215610f3557600080fd5b604051606081018181106001600160401b0382111715610f6557634e487b7160e01b600052604160045260246000fd5b60405282358152610f798460208501610c62565b6020820152610f8b8460a08501610c62565b60408201529392505050565b600060208284031215610fa957600080fd5b61086482610ce8565b805182526020810151610fc86020840182610fe0565b506040810151610fdb60a0840182610fe0565b505050565b805160070b82526001600160401b036020820151166020830152604081015160030b6040830152606081015160608301525050565b6020808252825182820181905260009190848201906040850190845b8181101561105857611044838551610fb2565b928401926101209290920191600101611031565b50909695505050505050565b600060208083528351808285015260005b8181101561109157858101830151858201604001528201611075565b818111156110a3576000604083870101525b50601f01601f1916929092016040019392505050565b61012081016102f18284610fb2565b608081016102f18284610fe0565b6000808335601e198436030181126110ed57600080fd5b8301803591506001600160401b0382111561110757600080fd5b602001915036819003821315610c3257600080fd5b60006001600160401b0380831681851680830382111561113e5761113e611198565b01949350505050565b600081600019048311821515161561116157611161611198565b500290565b60008282101561117857611178611198565b500390565b600060001982141561119157611191611198565b5060010190565b634e487b7160e01b600052601160045260246000fd5b634e487b7160e01b600052603260045260246000fd5b634e487b7160e01b600052604160045260246000fdfea2646970667358221220b2e9097c2e1aaa0bf7ccc0d24f7a8521ca42f4419bd9f1a8bac36c7b8ea64fe764736f6c63430008070033","linkReferences":{}},"methodIdentifiers":{"createPriceFeedUpdateData(bytes32,int64,uint64,int32,int64,uint64,uint64)":"96db6327","getEmaPrice(bytes32)":"b5dcc911","getEmaPriceNoOlderThan(bytes32,uint256)":"711a2e28","getEmaPriceUnsafe(bytes32)":"9474f45b","getPrice(bytes32)":"31d98b3f","getPriceNoOlderThan(bytes32,uint256)":"a4ae35e0","getPriceUnsafe(bytes32)":"96834ad3","getUpdateFee(bytes[])":"d47eed45","getValidTimePeriod()":"e18910a3","parsePriceFeedUpdates(bytes[],bytes32[],uint64,uint64)":"4716e9c5","priceFeedExists(bytes32)":"b5ec0261","queryPriceFeed(bytes32)":"caaf43f1","updatePriceFeeds(bytes[])":"ef9e5e28","updatePriceFeedsIfNecessary(bytes[],bytes32[],uint64[])":"b9256d28"},"id":82}