{"abi":[{"type":"constructor","inputs":[],"stateMutability":"nonpayable"},{"type":"function","name":"__msgSender","inputs":[],"outputs":[{"name":"","type":"address","internalType":"address"}],"stateMutability":"view"},{"type":"function","name":"cancelOpenLimitOrder","inputs":[{"name":"_pairIndex","type":"uint256","internalType":"uint256"},{"name":"_index","type":"uint256","internalType":"uint256"}],"outputs":[],"stateMutability":"nonpayable"},{"type":"function","name":"cancelPendingMarketOrder","inputs":[{"name":"_id","type":"uint256","internalType":"uint256"}],"outputs":[],"stateMutability":"nonpayable"},{"type":"function","name":"closeTradeMarket","inputs":[{"name":"_pairIndex","type":"uint256","internalType":"uint256"},{"name":"_index","type":"uint256","internalType":"uint256"},{"name":"_amount","type":"uint256","internalType":"uint256"}],"outputs":[{"name":"orderId","type":"uint256","internalType":"uint256"}],"stateMutability":"payable"},{"type":"function","name":"delegatedAction","inputs":[{"name":"trader","type":"address","internalType":"address"},{"name":"call_data","type":"bytes","internalType":"bytes"}],"outputs":[{"name":"","type":"bytes","internalType":"bytes"}],"stateMutability":"payable"},{"type":"function","name":"delegations","inputs":[{"name":"","type":"address","internalType":"address"}],"outputs":[{"name":"","type":"address","internalType":"address"}],"stateMutability":"view"},{"type":"function","name":"executeLimitOrder","inputs":[{"name":"_orderType","type":"uint8","internalType":"enum ITradingStorage.LimitOrder"},{"name":"_trader","type":"address","internalType":"address"},{"name":"_pairIndex","type":"uint256","internalType":"uint256"},{"name":"_index","type":"uint256","internalType":"uint256"},{"name":"priceUpdateData","type":"bytes[]","internalType":"bytes[]"}],"outputs":[],"stateMutability":"payable"},{"type":"function","name":"executeMarketOrders","inputs":[{"name":"orderId","type":"uint256[]","internalType":"uint256[]"},{"name":"priceUpdateData","type":"bytes[]","internalType":"bytes[]"}],"outputs":[],"stateMutability":"payable"},{"type":"function","name":"initialize","inputs":[{"name":"_storageT","type":"address","internalType":"address"},{"name":"_pairInfos","type":"address","internalType":"address"}],"outputs":[],"stateMutability":"nonpayable"},{"type":"function","name":"isOperator","inputs":[{"name":"","type":"address","internalType":"address"}],"outputs":[{"name":"","type":"bool","internalType":"bool"}],"stateMutability":"view"},{"type":"function","name":"limitOrdersTimelock","inputs":[],"outputs":[{"name":"","type":"uint256","internalType":"uint256"}],"stateMutability":"view"},{"type":"function","name":"openTrade","inputs":[{"name":"t","type":"tuple","internalType":"struct ITradingStorage.Trade","components":[{"name":"trader","type":"address","internalType":"address"},{"name":"pairIndex","type":"uint256","internalType":"uint256"},{"name":"index","type":"uint256","internalType":"uint256"},{"name":"initialPosToken","type":"uint256","internalType":"uint256"},{"name":"positionSizeUSDC","type":"uint256","internalType":"uint256"},{"name":"openPrice","type":"uint256","internalType":"uint256"},{"name":"buy","type":"bool","internalType":"bool"},{"name":"leverage","type":"uint256","internalType":"uint256"},{"name":"tp","type":"uint256","internalType":"uint256"},{"name":"sl","type":"uint256","internalType":"uint256"},{"name":"timestamp","type":"uint256","internalType":"uint256"}]},{"name":"_type","type":"uint8","internalType":"enum IExecute.OpenLimitOrderType"},{"name":"_slippageP","type":"uint256","internalType":"uint256"}],"outputs":[{"name":"orderId","type":"uint256","internalType":"uint256"}],"stateMutability":"payable"},{"type":"function","name":"operator","inputs":[],"outputs":[{"name":"","type":"address","internalType":"address"}],"stateMutability":"view"},{"type":"function","name":"pairInfos","inputs":[],"outputs":[{"name":"","type":"address","internalType":"contract IPairInfos"}],"stateMutability":"view"},{"type":"function","name":"pause","inputs":[],"outputs":[],"stateMutability":"nonpayable"},{"type":"function","name":"paused","inputs":[],"outputs":[{"name":"","type":"bool","internalType":"bool"}],"stateMutability":"view"},{"type":"function","name":"removeDelegate","inputs":[],"outputs":[],"stateMutability":"nonpayable"},{"type":"function","name":"setDelegate","inputs":[{"name":"delegate","type":"address","internalType":"address"}],"outputs":[],"stateMutability":"nonpayable"},{"type":"function","name":"setLimitOrdersTimelock","inputs":[{"name":"_blocks","type":"uint256","internalType":"uint256"}],"outputs":[],"stateMutability":"nonpayable"},{"type":"function","name":"setMarketExecFeeReciever","inputs":[{"name":"_reciever","type":"address","internalType":"address"}],"outputs":[],"stateMutability":"nonpayable"},{"type":"function","name":"storageT","inputs":[],"outputs":[{"name":"","type":"address","internalType":"contract ITradingStorage"}],"stateMutability":"view"},{"type":"function","name":"unpause","inputs":[],"outputs":[],"stateMutability":"nonpayable"},{"type":"function","name":"updateMargin","inputs":[{"name":"_pairIndex","type":"uint256","internalType":"uint256"},{"name":"_index","type":"uint256","internalType":"uint256"},{"name":"_type","type":"uint8","internalType":"enum ITradingStorage.updateType"},{"name":"_amount","type":"uint256","internalType":"uint256"},{"name":"priceUpdateData","type":"bytes[]","internalType":"bytes[]"}],"outputs":[{"name":"orderId","type":"uint256","internalType":"uint256"}],"stateMutability":"payable"},{"type":"function","name":"updateOpenLimitOrder","inputs":[{"name":"_pairIndex","type":"uint256","internalType":"uint256"},{"name":"_index","type":"uint256","internalType":"uint256"},{"name":"_price","type":"uint256","internalType":"uint256"},{"name":"_slippageP","type":"uint256","internalType":"uint256"},{"name":"_tp","type":"uint256","internalType":"uint256"},{"name":"_sl","type":"uint256","internalType":"uint256"}],"outputs":[],"stateMutability":"nonpayable"},{"type":"function","name":"updateOperator","inputs":[{"name":"_operator","type":"address","internalType":"address"},{"name":"_isOperator","type":"bool","internalType":"bool"}],"outputs":[],"stateMutability":"nonpayable"},{"type":"function","name":"updateTpAndSl","inputs":[{"name":"_pairIndex","type":"uint256","internalType":"uint256"},{"name":"_index","type":"uint256","internalType":"uint256"},{"name":"_newSl","type":"uint256","internalType":"uint256"},{"name":"_newTP","type":"uint256","internalType":"uint256"},{"name":"priceUpdateData","type":"bytes[]","internalType":"bytes[]"}],"outputs":[],"stateMutability":"payable"},{"type":"event","name":"AddressUpdated","inputs":[{"name":"name","type":"string","indexed":false,"internalType":"string"},{"name":"a","type":"address","indexed":false,"internalType":"address"}],"anonymous":false},{"type":"event","name":"Initialized","inputs":[{"name":"version","type":"uint8","indexed":false,"internalType":"uint8"}],"anonymous":false},{"type":"event","name":"LimitOrderInitiated","inputs":[{"name":"trader","type":"address","indexed":true,"internalType":"address"},{"name":"pairIndex","type":"uint256","indexed":false,"internalType":"uint256"},{"name":"orderId","type":"uint256","indexed":false,"internalType":"uint256"},{"name":"timestamp","type":"uint256","indexed":false,"internalType":"uint256"}],"anonymous":false},{"type":"event","name":"LimitOrderSameBlock","inputs":[{"name":"trader","type":"address","indexed":true,"internalType":"address"},{"name":"pairIndex","type":"uint256","indexed":false,"internalType":"uint256"},{"name":"timestamp","type":"uint256","indexed":false,"internalType":"uint256"}],"anonymous":false},{"type":"event","name":"MarginUpdated","inputs":[{"name":"trader","type":"address","indexed":true,"internalType":"address"},{"name":"pairIndex","type":"uint256","indexed":false,"internalType":"uint256"},{"name":"index","type":"uint256","indexed":false,"internalType":"uint256"},{"name":"_type","type":"uint8","indexed":false,"internalType":"enum ITradingStorage.updateType"},{"name":"newTrade","type":"tuple","indexed":false,"internalType":"struct ITradingStorage.Trade","components":[{"name":"trader","type":"address","internalType":"address"},{"name":"pairIndex","type":"uint256","internalType":"uint256"},{"name":"index","type":"uint256","internalType":"uint256"},{"name":"initialPosToken","type":"uint256","internalType":"uint256"},{"name":"positionSizeUSDC","type":"uint256","internalType":"uint256"},{"name":"openPrice","type":"uint256","internalType":"uint256"},{"name":"buy","type":"bool","internalType":"bool"},{"name":"leverage","type":"uint256","internalType":"uint256"},{"name":"tp","type":"uint256","internalType":"uint256"},{"name":"sl","type":"uint256","internalType":"uint256"},{"name":"timestamp","type":"uint256","internalType":"uint256"}]},{"name":"marginFees","type":"uint256","indexed":false,"internalType":"uint256"},{"name":"lossProtectionTier","type":"uint256","indexed":false,"internalType":"uint256"},{"name":"timestamp","type":"uint256","indexed":false,"internalType":"uint256"}],"anonymous":false},{"type":"event","name":"MarketOrderInitiated","inputs":[{"name":"trader","type":"address","indexed":true,"internalType":"address"},{"name":"pairIndex","type":"uint256","indexed":false,"internalType":"uint256"},{"name":"open","type":"bool","indexed":false,"internalType":"bool"},{"name":"orderId","type":"uint256","indexed":false,"internalType":"uint256"},{"name":"timestamp","type":"uint256","indexed":false,"internalType":"uint256"}],"anonymous":false},{"type":"event","name":"NumberUpdated","inputs":[{"name":"name","type":"string","indexed":false,"internalType":"string"},{"name":"value","type":"uint256","indexed":false,"internalType":"uint256"}],"anonymous":false},{"type":"event","name":"OpenLimitCanceled","inputs":[{"name":"trader","type":"address","indexed":true,"internalType":"address"},{"name":"pairIndex","type":"uint256","indexed":false,"internalType":"uint256"},{"name":"index","type":"uint256","indexed":false,"internalType":"uint256"},{"name":"timestamp","type":"uint256","indexed":false,"internalType":"uint256"},{"name":"collateral","type":"uint256","indexed":false,"internalType":"uint256"}],"anonymous":false},{"type":"event","name":"OpenLimitPlaced","inputs":[{"name":"trader","type":"address","indexed":true,"internalType":"address"},{"name":"pairIndex","type":"uint256","indexed":false,"internalType":"uint256"},{"name":"index","type":"uint256","indexed":false,"internalType":"uint256"},{"name":"isBuy","type":"bool","indexed":false,"internalType":"bool"},{"name":"openPrice","type":"uint256","indexed":false,"internalType":"uint256"},{"name":"executionFee","type":"uint256","indexed":false,"internalType":"uint256"},{"name":"orderType","type":"uint8","indexed":false,"internalType":"enum IExecute.OpenLimitOrderType"},{"name":"slippageP","type":"uint256","indexed":false,"internalType":"uint256"},{"name":"collateral","type":"uint256","indexed":false,"internalType":"uint256"}],"anonymous":false},{"type":"event","name":"OpenLimitUpdated","inputs":[{"name":"trader","type":"address","indexed":true,"internalType":"address"},{"name":"pairIndex","type":"uint256","indexed":false,"internalType":"uint256"},{"name":"index","type":"uint256","indexed":false,"internalType":"uint256"},{"name":"newPrice","type":"uint256","indexed":false,"internalType":"uint256"},{"name":"newTp","type":"uint256","indexed":false,"internalType":"uint256"},{"name":"newSl","type":"uint256","indexed":false,"internalType":"uint256"},{"name":"timestamp","type":"uint256","indexed":false,"internalType":"uint256"}],"anonymous":false},{"type":"event","name":"OperatorUpdated","inputs":[{"name":"operator","type":"address","indexed":false,"internalType":"address"},{"name":"isOperator","type":"bool","indexed":false,"internalType":"bool"}],"anonymous":false},{"type":"event","name":"Paused","inputs":[{"name":"account","type":"address","indexed":false,"internalType":"address"}],"anonymous":false},{"type":"event","name":"SlUpdateInitiated","inputs":[{"name":"trader","type":"address","indexed":true,"internalType":"address"},{"name":"pairIndex","type":"uint256","indexed":false,"internalType":"uint256"},{"name":"index","type":"uint256","indexed":false,"internalType":"uint256"},{"name":"newSl","type":"uint256","indexed":false,"internalType":"uint256"},{"name":"orderId","type":"uint256","indexed":false,"internalType":"uint256"},{"name":"timestamp","type":"uint256","indexed":false,"internalType":"uint256"}],"anonymous":false},{"type":"event","name":"SlUpdated","inputs":[{"name":"trader","type":"address","indexed":true,"internalType":"address"},{"name":"pairIndex","type":"uint256","indexed":false,"internalType":"uint256"},{"name":"index","type":"uint256","indexed":false,"internalType":"uint256"},{"name":"newSl","type":"uint256","indexed":false,"internalType":"uint256"},{"name":"timestamp","type":"uint256","indexed":false,"internalType":"uint256"}],"anonymous":false},{"type":"event","name":"TpUpdated","inputs":[{"name":"trader","type":"address","indexed":true,"internalType":"address"},{"name":"pairIndex","type":"uint256","indexed":false,"internalType":"uint256"},{"name":"index","type":"uint256","indexed":false,"internalType":"uint256"},{"name":"newTp","type":"uint256","indexed":false,"internalType":"uint256"},{"name":"timestamp","type":"uint256","indexed":false,"internalType":"uint256"}],"anonymous":false},{"type":"event","name":"Unpaused","inputs":[{"name":"account","type":"address","indexed":false,"internalType":"address"}],"anonymous":false}],"bytecode":{"object":"0x60806040523480156200001157600080fd5b506200001c62000022565b620000e3565b600054610100900460ff16156200008f5760405162461bcd60e51b815260206004820152602760248201527f496e697469616c697a61626c653a20636f6e747261637420697320696e697469604482015266616c697a696e6760c81b606482015260840160405180910390fd5b60005460ff90811614620000e1576000805460ff191660ff9081179091556040519081527f7f26b83ff96e1f2b6a682f133852f6798a09c465da95921460cefb38474024989060200160405180910390a15b565b615ce780620000f36000396000f3fe6080604052600436106101815760003560e01c80636d70f7ae116100d1578063c0b4d24d1161008a578063ca5eb5e111610064578063ca5eb5e11461044b578063cd90b8a414610495578063d1a91ff2146104a8578063d4a1caa7146104bd57600080fd5b8063c0b4d24d146103f8578063c5ed6a081461040b578063c641558e1461042b57600080fd5b80636d70f7ae1461031d5780638456cb591461034d5780639a10cc32146103625780639e2033f514610382578063b9b6573a146103a2578063bffe3486146103c257600080fd5b806336fb8b151161013e578063485cc95511610118578063485cc95514610299578063570ca735146102b95780635c975abb146102d95780636d44a3b2146102fd57600080fd5b806336fb8b15146102425780633f4ba83a1461027157806346f6c8f51461028657600080fd5b80630890d22a146101865780631346b0ff146101af57806315b760b1146101e757806316fff074146101fc57806319cde9a11461021c5780632c3cbce41461022f575b600080fd5b34801561019257600080fd5b5061019c60695481565b6040519081526020015b60405180910390f35b3480156101bb57600080fd5b506068546101cf906001600160a01b031681565b6040516001600160a01b0390911681526020016101a6565b6101fa6101f53660046154d0565b6104dd565b005b34801561020857600080fd5b506067546101cf906001600160a01b031681565b61019c61022a366004615310565b61050b565b61019c61023d3660046154a4565b611600565b34801561024e57600080fd5b506101fa33600090815260656020526040902080546001600160a01b0319169055565b34801561027d57600080fd5b506101fa612084565b6101fa6102943660046150c7565b612144565b3480156102a557600080fd5b506101fa6102b4366004614f35565b612ba7565b3480156102c557600080fd5b50606a546101cf906001600160a01b031681565b3480156102e557600080fd5b5060335460ff165b60405190151581526020016101a6565b34801561030957600080fd5b506101fa610318366004614f6e565b612cef565b34801561032957600080fd5b506102ed610338366004614ef4565b606b6020526000908152604090205460ff1681565b34801561035957600080fd5b506101fa612e08565b610375610370366004614f9c565b612ec6565b6040516101a691906156e8565b34801561038e57600080fd5b506101fa61039d366004614ef4565b613001565b3480156103ae57600080fd5b506101fa6103bd366004615429565b61311e565b3480156103ce57600080fd5b506101cf6103dd366004614ef4565b6065602052600090815260409020546001600160a01b031681565b6101fa610406366004615021565b613357565b34801561041757600080fd5b506101fa6104263660046153f7565b6134ab565b34801561043757600080fd5b506101fa61044636600461551c565b613534565b34801561045757600080fd5b506101fa610466366004614ef4565b33600090815260656020526040902080546001600160a01b0319166001600160a01b0392909216919091179055565b61019c6104a336600461544b565b613798565b3480156104b457600080fd5b506101cf6140ff565b3480156104c957600080fd5b506101fa6104d83660046153f7565b614127565b6104e561427b565b6104f08686856142c1565b8015610503576105038686868585614561565b505050505050565b600061051561427b565b60675460408051633078fff560e01b815290516000926001600160a01b031691633078fff5916004808301926020929190829003018186803b15801561055a57600080fd5b505afa15801561056e573d6000803e3d6000fd5b505050506040513d601f19601f820116820180604052508101906105929190614f18565b90506000816001600160a01b03166335b03c176040518163ffffffff1660e01b815260040160206040518083038186803b1580156105cf57600080fd5b505afa1580156105e3573d6000803e3d6000fd5b505050506040513d601f19601f820116820180604052508101906106079190614f18565b9050606760009054906101000a90046001600160a01b03166001600160a01b0316638049fde76040518163ffffffff1660e01b815260040160206040518083038186803b15801561065757600080fd5b505afa15801561066b573d6000803e3d6000fd5b505050506040513d601f19601f8201168201806040525081019061068f9190615410565b6067546001600160a01b031663f7b3c6fd6106a86140ff565b6040516001600160e01b031960e084901b1681526001600160a01b03909116600482015260240160206040518083038186803b1580156106e757600080fd5b505afa1580156106fb573d6000803e3d6000fd5b505050506040513d601f19601f8201168201806040525081019061071f9190615410565b106107665760405162461bcd60e51b81526020600482015260126024820152714d41585f50454e44494e475f4f524445525360701b60448201526064015b60405180910390fd5b606760009054906101000a90046001600160a01b03166001600160a01b031663f65d9dbe6040518163ffffffff1660e01b815260040160206040518083038186803b1580156107b457600080fd5b505afa1580156107c8573d6000803e3d6000fd5b505050506040513d601f19601f820116820180604052508101906107ec9190615410565b6067546001600160a01b03166397e7995a6108056140ff565b6040516001600160e01b031960e084901b1681526001600160a01b03909116600482015260208a0135602482015260440160206040518083038186803b15801561084e57600080fd5b505afa158015610862573d6000803e3d6000fd5b505050506040513d601f19601f820116820180604052508101906108869190615410565b6067546001600160a01b0316639c8912f161089f6140ff565b6040516001600160e01b031960e084901b1681526001600160a01b03909116600482015260208b0135602482015260440160206040518083038186803b1580156108e857600080fd5b505afa1580156108fc573d6000803e3d6000fd5b505050506040513d601f19601f820116820180604052508101906109209190615410565b6067546001600160a01b0316631c8636b46109396140ff565b6040516001600160e01b031960e084901b1681526001600160a01b03909116600482015260208c0135602482015260440160206040518083038186803b15801561098257600080fd5b505afa158015610996573d6000803e3d6000fd5b505050506040513d601f19601f820116820180604052508101906109ba9190615410565b6109c49190615b5b565b6109ce9190615b5b565b10610a115760405162461bcd60e51b815260206004820152601360248201527226a0ac2faa2920a222a9afa822a92fa820a4a960691b604482015260640161075d565b60405163238cd23f60e01b8152602087013560048201526001600160a01b0382169063238cd23f9060240160206040518083038186803b158015610a5457600080fd5b505afa158015610a68573d6000803e3d6000fd5b505050506040513d601f19601f82011682018060405250810190610a8c9190615410565b610a9e608088013560e0890135614c70565b1015610adc5760405162461bcd60e51b815260206004820152600d60248201526c42454c4f575f4d494e5f504f5360981b604482015260640161075d565b6101008601351580610b1b5750610af960e0870160c0880161508d565b610b0e578560a0013586610100013510610b1b565b8560a00135866101000135115b610b525760405162461bcd60e51b8152602060048201526008602482015267057524f4e475f54560c41b604482015260640161075d565b6101208601351580610b915750610b6f60e0870160c0880161508d565b610b84578560a0013586610120013511610b91565b8560a00135866101200135105b610bc85760405162461bcd60e51b815260206004820152600860248201526715d493d391d7d4d360c21b604482015260640161075d565b6000856003811115610bdc57610bdc615c2c565b14158015610bfc57506001856003811115610bf957610bf9615c2c565b14155b156110b55760008660e00135118015610c9a5750604051634cadbb2b60e11b815260208701356004820152600060248201526001600160a01b0382169063995b76569060440160206040518083038186803b158015610c5a57600080fd5b505afa158015610c6e573d6000803e3d6000fd5b505050506040513d601f19601f82011682018060405250810190610c929190615410565b8660e0013510155b8015610d2b5750604051639b2f6cab60e01b815260208701356004820152600060248201526001600160a01b03821690639b2f6cab9060440160206040518083038186803b158015610ceb57600080fd5b505afa158015610cff573d6000803e3d6000fd5b505050506040513d601f19601f82011682018060405250810190610d239190615410565b8660e0013511155b610d475760405162461bcd60e51b815260040161075d9061571d565b6067546001600160a01b0316638b83351a610d606140ff565b60675460405160e084901b6001600160e01b03191681526001600160a01b0392831660048201529116602482015260808901356044820152606401600060405180830381600087803b158015610db557600080fd5b505af1158015610dc9573d6000803e3d6000fd5b5050606754600092506001600160a01b031690506344d44f5a610dea6140ff565b6040516001600160e01b031960e084901b1681526001600160a01b03909116600482015260208a0135602482015260440160206040518083038186803b158015610e3357600080fd5b505afa158015610e47573d6000803e3d6000fd5b505050506040513d601f19601f82011682018060405250810190610e6b9190615410565b6067546040805161018081019091529192506001600160a01b03169063fdb153e29080610e966140ff565b6001600160a01b0316815260208b81013590820152604081018590526080808c0135606083015201610ece60e08c0160c08d0161508d565b151581526020018a60e0013581526020018a610100013581526020018a610120013581526020018a60a00135815260200188815260200143815260200160008152506040518263ffffffff1660e01b8152600401610f2c9190615805565b600060405180830381600087803b158015610f4657600080fd5b505af1158015610f5a573d6000803e3d6000fd5b50505050826001600160a01b031663b21f45176040518163ffffffff1660e01b815260040160206040518083038186803b158015610f9757600080fd5b505afa158015610fab573d6000803e3d6000fd5b505050506040513d601f19601f82011682018060405250810190610fcf9190614f18565b6001600160a01b031663ec570610610fe56140ff565b8960200135848a6040518563ffffffff1660e01b815260040161100b94939291906156b2565b600060405180830381600087803b15801561102557600080fd5b505af1158015611039573d6000803e3d6000fd5b505050506110456140ff565b6001600160a01b03167f174df203b38fe4bbf31688bea280abf3c60a2d5a4214fdf30984abdcf6f15fca60208901358361108560e08c0160c08d0161508d565b8b60a0013560008c8c8f608001356040516110a7989796959493929190615a75565b60405180910390a25061155a565b60008660e0013511801561116957506001600160a01b03811663995b7656602088013560018860038111156110ec576110ec615c2c565b6040516001600160e01b031960e086901b168152600481019390935214602482015260440160206040518083038186803b15801561112957600080fd5b505afa15801561113d573d6000803e3d6000fd5b505050506040513d601f19601f820116820180604052508101906111619190615410565b8660e0013510155b801561121557506001600160a01b038116639b2f6cab6020880135600188600381111561119857611198615c2c565b6040516001600160e01b031960e086901b168152600481019390935214602482015260440160206040518083038186803b1580156111d557600080fd5b505afa1580156111e9573d6000803e3d6000fd5b505050506040513d601f19601f8201168201806040525081019061120d9190615410565b8660e0013511155b6112315760405162461bcd60e51b815260040161075d9061571d565b6067546001600160a01b0316638b83351a61124a6140ff565b60675460405160e084901b6001600160e01b03191681526001600160a01b0392831660048201529116602482015260808901356044820152606401600060405180830381600087803b15801561129f57600080fd5b505af11580156112b3573d6000803e3d6000fd5b50600092506112c0915050565b8560038111156112d2576112d2615c2c565b146113615760405163302809fd60e21b81526001600160a01b0383169063c0a027f49061130a9060208a0135906006906004016159df565b602060405180830381600087803b15801561132457600080fd5b505af1158015611338573d6000803e3d6000fd5b505050506040513d601f19601f8201168201806040525081019061135c9190615410565b6113e6565b60405163302809fd60e21b81526001600160a01b0383169063c0a027f4906113949060208a0135906000906004016159df565b602060405180830381600087803b1580156113ae57600080fd5b505af11580156113c2573d6000803e3d6000fd5b505050506040513d601f19601f820116820180604052508101906113e69190615410565b606754604080516101e081019091529194506001600160a01b03169063d8137fe8908060808101806114166140ff565b6001600160a01b031681526020018b60200135815260200160008152602001600081526020018b608001358152602001600081526020018b60c0016020810190611460919061508d565b151581526020018b60e0013581526020018b610100013581526020018b6101200135815260200160008152508152602001600081526020018960a001358152602001878152508560016040518463ffffffff1660e01b81526004016114c7939291906158b8565b600060405180830381600087803b1580156114e157600080fd5b505af11580156114f5573d6000803e3d6000fd5b505050506115016140ff565b604080516020808a013582526001908201529081018590524260608201526001600160a01b0391909116907f1dc637f3b162f19a813b26fe5ed9122af72c7c58d7ff359728fd6517c110bf649060800160405180910390a25b606a546040516000916001600160a01b03169034908381818185875af1925050503d80600081146115a7576040519150601f19603f3d011682016040523d82523d6000602084013e6115ac565b606091505b50509050806115f65760405162461bcd60e51b815260206004820152601660248201527511561150d5551253d397d1915157d393d517d4d1539560521b604482015260640161075d565b5050509392505050565b600061160a61427b565b60675460408051633078fff560e01b815290516000926001600160a01b031691633078fff5916004808301926020929190829003018186803b15801561164f57600080fd5b505afa158015611663573d6000803e3d6000fd5b505050506040513d601f19601f820116820180604052508101906116879190614f18565b6001600160a01b03166335b03c176040518163ffffffff1660e01b815260040160206040518083038186803b1580156116bf57600080fd5b505afa1580156116d3573d6000803e3d6000fd5b505050506040513d601f19601f820116820180604052508101906116f79190614f18565b606a546040519192506000916001600160a01b039091169034908381818185875af1925050503d8060008114611749576040519150601f19603f3d011682016040523d82523d6000602084013e61174e565b606091505b50509050806117985760405162461bcd60e51b815260206004820152601660248201527511561150d5551253d397d1915157d393d517d4d1539560521b604482015260640161075d565b6067546000906001600160a01b031663a3a80ffe6117b46140ff565b89896040518463ffffffff1660e01b81526004016117d493929190615691565b6101606040518083038186803b1580156117ed57600080fd5b505afa158015611801573d6000803e3d6000fd5b505050506040513d601f19601f82011682018060405250810190611825919061535a565b6067549091506000906001600160a01b0316638c8ff1d56118446140ff565b8a8a6040518463ffffffff1660e01b815260040161186493929190615691565b60a06040518083038186803b15801561187c57600080fd5b505afa158015611890573d6000803e3d6000fd5b505050506040513d601f19601f820116820180604052508101906118b49190615298565b60600151905081606001518611156118fb5760405162461bcd60e51b815260206004820152600a60248201526912539597d05353d5539560b21b604482015260640161075d565b606760009054906101000a90046001600160a01b03166001600160a01b0316638049fde76040518163ffffffff1660e01b815260040160206040518083038186803b15801561194957600080fd5b505afa15801561195d573d6000803e3d6000fd5b505050506040513d601f19601f820116820180604052508101906119819190615410565b6067546001600160a01b031663f7b3c6fd61199a6140ff565b6040516001600160e01b031960e084901b1681526001600160a01b03909116600482015260240160206040518083038186803b1580156119d957600080fd5b505afa1580156119ed573d6000803e3d6000fd5b505050506040513d601f19601f82011682018060405250810190611a119190615410565b10611a535760405162461bcd60e51b81526020600482015260126024820152714d41585f50454e44494e475f4f524445525360701b604482015260640161075d565b8015611a985760405162461bcd60e51b81526020600482015260146024820152731053149150511657d091525391d7d0d313d4d15160621b604482015260640161075d565b60008260e0015111611abc5760405162461bcd60e51b815260040161075d906156fb565b836001600160a01b031663737113b589611ae38560e001518a614c7090919063ffffffff16565b6040516001600160e01b031960e085901b16815260048101929092526024820152604401602060405180830381600087803b158015611b2157600080fd5b505af1158015611b35573d6000803e3d6000fd5b505050506040513d601f19601f82011682018060405250810190611b599190615410565b610140830151611b699042615bb4565b1015611ba55760405162461bcd60e51b815260206004820152600b60248201526a4541524c595f434c4f534560a81b604482015260640161075d565b60675460408051633078fff560e01b815290516000926001600160a01b031691633078fff5916004808301926020929190829003018186803b158015611bea57600080fd5b505afa158015611bfe573d6000803e3d6000fd5b505050506040513d601f19601f82011682018060405250810190611c229190614f18565b6001600160a01b03166335b03c176040518163ffffffff1660e01b815260040160206040518083038186803b158015611c5a57600080fd5b505afa158015611c6e573d6000803e3d6000fd5b505050506040513d601f19601f82011682018060405250810190611c929190614f18565b6001600160a01b031663c5f5951a611ca86140ff565b8b8b6040518463ffffffff1660e01b8152600401611cc893929190615691565b60206040518083038186803b158015611ce057600080fd5b505afa158015611cf4573d6000803e3d6000fd5b505050506040513d601f19601f82011682018060405250810190611d1891906150aa565b905080611e2a57606760009054906101000a90046001600160a01b03166001600160a01b0316633078fff56040518163ffffffff1660e01b815260040160206040518083038186803b158015611d6d57600080fd5b505afa158015611d81573d6000803e3d6000fd5b505050506040513d601f19601f82011682018060405250810190611da59190614f18565b6001600160a01b031663c0a027f48a60016040518363ffffffff1660e01b8152600401611dd39291906159df565b602060405180830381600087803b158015611ded57600080fd5b505af1158015611e01573d6000803e3d6000fd5b505050506040513d601f19601f82011682018060405250810190611e259190615410565b611f30565b606760009054906101000a90046001600160a01b03166001600160a01b0316633078fff56040518163ffffffff1660e01b815260040160206040518083038186803b158015611e7857600080fd5b505afa158015611e8c573d6000803e3d6000fd5b505050506040513d601f19601f82011682018060405250810190611eb09190614f18565b6001600160a01b031663c0a027f48a60076040518363ffffffff1660e01b8152600401611ede9291906159df565b602060405180830381600087803b158015611ef857600080fd5b505af1158015611f0c573d6000803e3d6000fd5b505050506040513d601f19601f82011682018060405250810190611f309190615410565b606754604080516101e081019091529197506001600160a01b03169063d8137fe890806080810180611f606140ff565b6001600160a01b031681526020018e81526020018d81526020018c8152602001600081526020016000815260200160001515815260200160008152602001600081526020016000815260200160008152508152602001600081526020016000815260200160008152508860006040518463ffffffff1660e01b8152600401611fea939291906158b8565b600060405180830381600087803b15801561200457600080fd5b505af1158015612018573d6000803e3d6000fd5b505050506120246140ff565b604080518b8152600060208201529081018890524260608201526001600160a01b0391909116907f1dc637f3b162f19a813b26fe5ed9122af72c7c58d7ff359728fd6517c110bf649060800160405180910390a250505050509392505050565b606760009054906101000a90046001600160a01b03166001600160a01b03166312d43a516040518163ffffffff1660e01b815260040160206040518083038186803b1580156120d257600080fd5b505afa1580156120e6573d6000803e3d6000fd5b505050506040513d601f19601f8201168201806040525081019061210a9190614f18565b6001600160a01b0316336001600160a01b03161461213a5760405162461bcd60e51b815260040161075d906157e3565b612142614c95565b565b61214c61427b565b336000908152606b602052604090205460ff1661217b5760405162461bcd60e51b815260040161075d90615771565b60675460408051633078fff560e01b815290516000926001600160a01b031691633078fff5916004808301926020929190829003018186803b1580156121c057600080fd5b505afa1580156121d4573d6000803e3d6000fd5b505050506040513d601f19601f820116820180604052508101906121f89190614f18565b6001600160a01b03166335b03c176040518163ffffffff1660e01b815260040160206040518083038186803b15801561223057600080fd5b505afa158015612244573d6000803e3d6000fd5b505050506040513d601f19601f820116820180604052508101906122689190614f18565b9050600387600381111561227e5761227e615c2c565b141561234457606754604051636e6f99cd60e11b81526001600160a01b039091169063dcdf339a906122b890899089908990600401615691565b60206040518083038186803b1580156122d057600080fd5b505afa1580156122e4573d6000803e3d6000fd5b505050506040513d601f19601f8201168201806040525081019061230891906150aa565b61233f5760405162461bcd60e51b81526020600482015260086024820152671393d7d31253525560c21b604482015260640161075d565b61268c565b6067546040516351d407ff60e11b81526000916001600160a01b03169063a3a80ffe90612379908a908a908a90600401615691565b6101606040518083038186803b15801561239257600080fd5b505afa1580156123a6573d6000803e3d6000fd5b505050506040513d601f19601f820116820180604052508101906123ca919061535a565b905060008160e00151116123f05760405162461bcd60e51b815260040161075d906156fb565b600188600381111561240457612404615c2c565b14158061241657506000816101200151115b61244a5760405162461bcd60e51b81526020600482015260056024820152641393d7d4d360da1b604482015260640161075d565b600288600381111561245e5761245e615c2c565b1415612599576068548151602083015160408085015160a086015160c0870151606088015160e08901519451636bc84d5960e01b81526001600160a01b0397881660048201526024810196909652604486019390935260648501919091521515608484015260a483015260c48201526000929190911690636bc84d599060e40160206040518083038186803b1580156124f657600080fd5b505afa15801561250a573d6000803e3d6000fd5b505050506040513d601f19601f8201168201806040525081019061252e9190615410565b90508161012001516000148061255e57508160c0015161255557816101200151811061255e565b81610120015181115b6125935760405162461bcd60e51b8152602060048201526006602482015265121054d7d4d360d21b604482015260640161075d565b5061268a565b816001600160a01b031663737113b582602001516125c88460e001518560600151614c7090919063ffffffff16565b6040516001600160e01b031960e085901b16815260048101929092526024820152604401602060405180830381600087803b15801561260657600080fd5b505af115801561261a573d6000803e3d6000fd5b505050506040513d601f19601f8201168201806040525081019061263e9190615410565b61014082015161264e9042615bb4565b101561268a5760405162461bcd60e51b815260206004820152600b60248201526a4541524c595f434c4f534560a81b604482015260640161075d565b505b60675460408051633078fff560e01b815290516000926001600160a01b031691633078fff5916004808301926020929190829003018186803b1580156126d157600080fd5b505afa1580156126e5573d6000803e3d6000fd5b505050506040513d601f19601f820116820180604052508101906127099190614f18565b90506000816001600160a01b031663b21f45176040518163ffffffff1660e01b815260040160206040518083038186803b15801561274657600080fd5b505afa15801561275a573d6000803e3d6000fd5b505050506040513d601f19601f8201168201806040525081019061277e9190614f18565b9050600060405180608001604052808a6001600160a01b031681526020018981526020018881526020018b60038111156127ba576127ba615c2c565b81525090506000606760009054906101000a90046001600160a01b03166001600160a01b0316633078fff56040518163ffffffff1660e01b815260040160206040518083038186803b15801561280f57600080fd5b505afa158015612823573d6000803e3d6000fd5b505050506040513d601f19601f820116820180604052508101906128479190614f18565b6001600160a01b03166335b03c176040518163ffffffff1660e01b815260040160206040518083038186803b15801561287f57600080fd5b505afa158015612893573d6000803e3d6000fd5b505050506040513d601f19601f820116820180604052508101906128b79190614f18565b6001600160a01b031663c5f5951a8b8b8b6040518463ffffffff1660e01b81526004016128e693929190615691565b60206040518083038186803b1580156128fe57600080fd5b505afa158015612912573d6000803e3d6000fd5b505050506040513d601f19601f8201168201806040525081019061293691906150aa565b905060006001600160a01b03851663c0a027f48b60038f600381111561295e5761295e615c2c565b14612976578461296f576003612979565b6008612979565b60025b6040518363ffffffff1660e01b81526004016129969291906159df565b602060405180830381600087803b1580156129b057600080fd5b505af11580156129c4573d6000803e3d6000fd5b505050506040513d601f19601f820116820180604052508101906129e89190615410565b606754604080516080810182526001600160a01b038f81168252602082018f90529181018d9052929350169063d775d54890606081018f6003811115612a3057612a30615c2c565b815250836040518363ffffffff1660e01b8152600401612a5192919061589d565b600060405180830381600087803b158015612a6b57600080fd5b505af1158015612a7f573d6000803e3d6000fd5b50505050836001600160a01b031663c23c886c84612a9b6140ff565b6040518363ffffffff1660e01b8152600401612ab8929190615912565b600060405180830381600087803b158015612ad257600080fd5b505af1158015612ae6573d6000803e3d6000fd5b5050604080518d815260208101859052428183015290516001600160a01b038f1693507fd0ac65cbccd4e7062356a9be37735153d991bdc4de08f024a8fffc0600f7048892509081900360600190a260405163dd2f3c0560e01b81526001600160a01b0386169063dd2f3c05903490612b679085908d908d90600401615938565b6000604051808303818588803b158015612b8057600080fd5b505af1158015612b94573d6000803e3d6000fd5b5050505050505050505050505050505050565b600054610100900460ff1615808015612bc75750600054600160ff909116105b80612be15750303b158015612be1575060005460ff166001145b612c445760405162461bcd60e51b815260206004820152602e60248201527f496e697469616c697a61626c653a20636f6e747261637420697320616c72656160448201526d191e481a5b9a5d1a585b1a5e995960921b606482015260840161075d565b6000805460ff191660011790558015612c67576000805461ff0019166101001790555b606780546001600160a01b038086166001600160a01b03199283161790925560688054928516929091169190911790556002606955612ca4614ce7565b8015612cea576000805461ff0019169055604051600181527f7f26b83ff96e1f2b6a682f133852f6798a09c465da95921460cefb38474024989060200160405180910390a15b505050565b606760009054906101000a90046001600160a01b03166001600160a01b03166312d43a516040518163ffffffff1660e01b815260040160206040518083038186803b158015612d3d57600080fd5b505afa158015612d51573d6000803e3d6000fd5b505050506040513d601f19601f82011682018060405250810190612d759190614f18565b6001600160a01b0316336001600160a01b031614612da55760405162461bcd60e51b815260040161075d906157e3565b6001600160a01b0382166000818152606b6020908152604091829020805460ff19168515159081179091558251938452908301527f966c160e1c4dbc7df8d69af4ace01e9297c3cf016397b7914971f2fbfa32672d910160405180910390a15050565b606760009054906101000a90046001600160a01b03166001600160a01b03166312d43a516040518163ffffffff1660e01b815260040160206040518083038186803b158015612e5657600080fd5b505afa158015612e6a573d6000803e3d6000fd5b505050506040513d601f19601f82011682018060405250810190612e8e9190614f18565b6001600160a01b0316336001600160a01b031614612ebe5760405162461bcd60e51b815260040161075d906157e3565b612142614d16565b6001600160a01b03838116600090815260656020526040902054606091163314612f2a5760405162461bcd60e51b81526020600482015260156024820152741111531151d0551157d393d517d054141493d59151605a1b604482015260640161075d565b606680546001600160a01b0319166001600160a01b03861617905560405160009081903090612f5c9087908790615681565b600060405180830381855af49150503d8060008114612f97576040519150601f19603f3d011682016040523d82523d6000602084013e612f9c565b606091505b509150915081612fe857604481511015612fb557600080fd5b60048101905080806020019051810190612fcf9190615143565b60405162461bcd60e51b815260040161075d91906156e8565b606680546001600160a01b031916905595945050505050565b606760009054906101000a90046001600160a01b03166001600160a01b03166312d43a516040518163ffffffff1660e01b815260040160206040518083038186803b15801561304f57600080fd5b505afa158015613063573d6000803e3d6000fd5b505050506040513d601f19601f820116820180604052508101906130879190614f18565b6001600160a01b0316336001600160a01b0316146130b75760405162461bcd60e51b815260040161075d906157e3565b6001600160a01b0381166130fc5760405162461bcd60e51b815260206004820152600c60248201526b5a45524f5f4144445245535360a01b604482015260640161075d565b606a80546001600160a01b0319166001600160a01b0392909216919091179055565b61312661427b565b6067546000906001600160a01b031663b8878a2c6131426140ff565b85856040518463ffffffff1660e01b815260040161316293929190615691565b6101806040518083038186803b15801561317b57600080fd5b505afa15801561318f573d6000803e3d6000fd5b505050506040513d601f19601f820116820180604052508101906131b391906151f0565b9050606954816101400151436131c99190615bb4565b10156131e75760405162461bcd60e51b815260040161075d90615749565b6067546001600160a01b0316638b83351a816132016140ff565b84610160015185606001516132169190615b5b565b6040516001600160e01b031960e086901b1681526001600160a01b0393841660048201529290911660248301526044820152606401600060405180830381600087803b15801561326557600080fd5b505af1158015613279573d6000803e3d6000fd5b50506067546001600160a01b0316915063b4b0f56790506132986140ff565b85856040518463ffffffff1660e01b81526004016132b893929190615691565b600060405180830381600087803b1580156132d257600080fd5b505af11580156132e6573d6000803e3d6000fd5b505050506132f26140ff565b6001600160a01b03167f99b2cab0fe1db813d380331f51c117d5622d07c79686cc4ecd043e8d56ace094848442856060015160405161334a949392919093845260208401929092526040830152606082015260800190565b60405180910390a2505050565b336000908152606b602052604090205460ff166133865760405162461bcd60e51b815260040161075d90615771565b60005b838110156134a457606760009054906101000a90046001600160a01b03166001600160a01b0316633078fff56040518163ffffffff1660e01b815260040160206040518083038186803b1580156133df57600080fd5b505afa1580156133f3573d6000803e3d6000fd5b505050506040513d601f19601f820116820180604052508101906134179190614f18565b6001600160a01b031663dd2f3c053487878581811061343857613438615c42565b9050602002013586866040518563ffffffff1660e01b815260040161345f93929190615938565b6000604051808303818588803b15801561347857600080fd5b505af115801561348c573d6000803e3d6000fd5b5050505050808061349c90615bfb565b915050613389565b5050505050565b336000908152606b602052604090205460ff166134da5760405162461bcd60e51b815260040161075d90615771565b606754604051630d32c90760e01b8152600481018390526001600160a01b0390911690630d32c90790602401600060405180830381600087803b15801561352057600080fd5b505af11580156134a4573d6000803e3d6000fd5b61353c61427b565b6067546000906001600160a01b031663b8878a2c6135586140ff565b89896040518463ffffffff1660e01b815260040161357893929190615691565b6101806040518083038186803b15801561359157600080fd5b505afa1580156135a5573d6000803e3d6000fd5b505050506040513d601f19601f820116820180604052508101906135c991906151f0565b9050606954816101400151436135df9190615bb4565b10156135fd5760405162461bcd60e51b815260040161075d90615749565b82158061361a575080608001516136165782851161361a565b8285105b6136515760405162461bcd60e51b8152602060048201526008602482015267057524f4e475f54560c41b604482015260640161075d565b81158061366e5750806080015161366a5781851061366e565b8185115b6136a55760405162461bcd60e51b815260206004820152600860248201526715d493d391d7d4d360c21b604482015260640161075d565b6101008101859052610120810184905260c0810183905260e0810182905260675460405163574564a760e11b81526001600160a01b039091169063ae8ac94e906136f3908490600401615805565b600060405180830381600087803b15801561370d57600080fd5b505af1158015613721573d6000803e3d6000fd5b5050505061372d6140ff565b604080518981526020810189905290810187905260608101859052608081018490524260a08201526001600160a01b0391909116907f710a8db87f04e82a9de40076812593a965f4aa48693196d2144c07ff9710e8909060c00160405180910390a250505050505050565b60006137a261427b565b60675460408051633078fff560e01b815290516000926001600160a01b031691633078fff5916004808301926020929190829003018186803b1580156137e757600080fd5b505afa1580156137fb573d6000803e3d6000fd5b505050506040513d601f19601f8201168201806040525081019061381f9190614f18565b6067549091506000906001600160a01b031663a3a80ffe61383e6140ff565b8b8b6040518463ffffffff1660e01b815260040161385e93929190615691565b6101606040518083038186803b15801561387757600080fd5b505afa15801561388b573d6000803e3d6000fd5b505050506040513d601f19601f820116820180604052508101906138af919061535a565b6067549091506000906001600160a01b0316638c8ff1d56138ce6140ff565b8c8c6040518463ffffffff1660e01b81526004016138ee93929190615691565b60a06040518083038186803b15801561390657600080fd5b505afa15801561391a573d6000803e3d6000fd5b505050506040513d601f19601f8201168201806040525081019061393e9190615298565b90508060600151156139895760405162461bcd60e51b81526020600482015260146024820152731053149150511657d091525391d7d0d313d4d15160621b604482015260640161075d565b60008260e00151116139ad5760405162461bcd60e51b815260040161075d906156fb565b6068548251602084015160408086015160c0870151606088015160e08901519351630284c13960e11b81526001600160a01b0396871660048201526024810195909552604485019290925215156064840152608483015260a4820152600092919091169063050982729060c40160206040518083038186803b158015613a3257600080fd5b505afa158015613a46573d6000803e3d6000fd5b505050506040513d601f19601f82011682018060405250810190613a6a9190615410565b60405163302809fd60e21b81529091506001600160a01b0385169063c0a027f490613a9b908e9060049081016159df565b602060405180830381600087803b158015613ab557600080fd5b505af1158015613ac9573d6000803e3d6000fd5b505050506040513d601f19601f82011682018060405250810190613aed9190615410565b9450836001600160a01b031663cbe91bd986604051806101000160405280613b136140ff565b6001600160a01b031681526020018f81526020018e81526020018d6001811115613b3f57613b3f615c2c565b81526020018c8152602001866080015181526020018581526020018760e001518152506040518363ffffffff1660e01b8152600401613b7f929190615a03565b600060405180830381600087803b158015613b9957600080fd5b505af1158015613bad573d6000803e3d6000fd5b50505050613bc6826000015184606001518b8b85614d53565b606085015260e084015260675460408051633078fff560e01b815290516000926001600160a01b031691633078fff5916004808301926020929190829003018186803b158015613c1557600080fd5b505afa158015613c29573d6000803e3d6000fd5b505050506040513d601f19601f82011682018060405250810190613c4d9190614f18565b6001600160a01b03166335b03c176040518163ffffffff1660e01b815260040160206040518083038186803b158015613c8557600080fd5b505afa158015613c99573d6000803e3d6000fd5b505050506040513d601f19601f82011682018060405250810190613cbd9190614f18565b6001600160a01b031663c5f5951a613cd36140ff565b8e8e6040518463ffffffff1660e01b8152600401613cf393929190615691565b60206040518083038186803b158015613d0b57600080fd5b505afa158015613d1f573d6000803e3d6000fd5b505050506040513d601f19601f82011682018060405250810190613d4391906150aa565b9050808015613d63575060018a6001811115613d6157613d61615c2c565b145b15613d9e5760405162461bcd60e51b815260206004820152600b60248201526a1393d517d0531313d5d15160aa1b604482015260640161075d565b60008460e00151118015613eae5750846001600160a01b03166335b03c176040518163ffffffff1660e01b815260040160206040518083038186803b158015613de657600080fd5b505afa158015613dfa573d6000803e3d6000fd5b505050506040513d601f19601f82011682018060405250810190613e1e9190614f18565b6020850151604051634cadbb2b60e11b8152600481019190915282151560248201526001600160a01b03919091169063995b76569060440160206040518083038186803b158015613e6e57600080fd5b505afa158015613e82573d6000803e3d6000fd5b505050506040513d601f19601f82011682018060405250810190613ea69190615410565b8460e0015110155b8015613fb65750846001600160a01b03166335b03c176040518163ffffffff1660e01b815260040160206040518083038186803b158015613eee57600080fd5b505afa158015613f02573d6000803e3d6000fd5b505050506040513d601f19601f82011682018060405250810190613f269190614f18565b6020850151604051639b2f6cab60e01b8152600481019190915282151560248201526001600160a01b039190911690639b2f6cab9060440160206040518083038186803b158015613f7657600080fd5b505afa158015613f8a573d6000803e3d6000fd5b505050506040513d601f19601f82011682018060405250810190613fae9190615410565b8460e0015111155b613fd25760405162461bcd60e51b815260040161075d9061571d565b613fda6140ff565b6001600160a01b03167f48452067591e9581b9c1f3135e16ae22829a7c8afc6b3d6a1afa2cd295cc11338d8d8d88878960800151426040516140229796959493929190615ac3565b60405180910390a260675460405163f0cb9b1160e01b81526001600160a01b039091169063f0cb9b119061405a908790600401615903565b600060405180830381600087803b15801561407457600080fd5b505af1158015614088573d6000803e3d6000fd5b505060405163dd2f3c0560e01b81526001600160a01b038816925063dd2f3c05915034906140be908a908d908d90600401615938565b6000604051808303818588803b1580156140d757600080fd5b505af11580156140eb573d6000803e3d6000fd5b505050505050505050509695505050505050565b6066546000906001600160a01b031661411757503390565b506066546001600160a01b031690565b606760009054906101000a90046001600160a01b03166001600160a01b03166312d43a516040518163ffffffff1660e01b815260040160206040518083038186803b15801561417557600080fd5b505afa158015614189573d6000803e3d6000fd5b505050506040513d601f19601f820116820180604052508101906141ad9190614f18565b6001600160a01b0316336001600160a01b0316146141dd5760405162461bcd60e51b815260040161075d906157e3565b600081116142175760405162461bcd60e51b8152602060048201526007602482015266056414c55455f360cc1b604482015260640161075d565b606981905560408051818152601381830152726c696d69744f726465727354696d656c6f636b60681b60608201526020810183905290517f8cf3e35f6221b16e1670a3413180c9484bf5aa71787905909fa82a6a2662e9ab9181900360800190a150565b60335460ff16156121425760405162461bcd60e51b815260206004820152601060248201526f14185d5cd8589b194e881c185d5cd95960821b604482015260640161075d565b6067546000906001600160a01b031663a3a80ffe6142dd6140ff565b86866040518463ffffffff1660e01b81526004016142fd93929190615691565b6101606040518083038186803b15801561431657600080fd5b505afa15801561432a573d6000803e3d6000fd5b505050506040513d601f19601f8201168201806040525081019061434e919061535a565b60e001516067549091506000906001600160a01b0316638c8ff1d56143716140ff565b87876040518463ffffffff1660e01b815260040161439193929190615691565b60a06040518083038186803b1580156143a957600080fd5b505afa1580156143bd573d6000803e3d6000fd5b505050506040513d601f19601f820116820180604052508101906143e19190615298565b602001519050600082116144075760405162461bcd60e51b815260040161075d906156fb565b6069546144148243615bb4565b10156144325760405162461bcd60e51b815260040161075d90615749565b6001600160ff1b0383106144775760405162461bcd60e51b815260206004820152600c60248201526b0494e434f52524543545f54560a41b604482015260640161075d565b6067546001600160a01b0316637fdb96f36144906140ff565b6040516001600160e01b031960e084901b1681526001600160a01b039091166004820152602481018890526044810187905260648101869052608401600060405180830381600087803b1580156144e657600080fd5b505af11580156144fa573d6000803e3d6000fd5b505050506145066140ff565b60408051878152602081018790529081018590524260608201526001600160a01b0391909116907f01c13b316ce9327f58f220b36e368c197eda79df0102d7f4363f1e7fe29323e89060800160405180910390a25050505050565b6067546000906001600160a01b031663a3a80ffe61457d6140ff565b88886040518463ffffffff1660e01b815260040161459d93929190615691565b6101606040518083038186803b1580156145b657600080fd5b505afa1580156145ca573d6000803e3d6000fd5b505050506040513d601f19601f820116820180604052508101906145ee919061535a565b6067549091506000906001600160a01b0316638c8ff1d561460d6140ff565b89896040518463ffffffff1660e01b815260040161462d93929190615691565b60a06040518083038186803b15801561464557600080fd5b505afa158015614659573d6000803e3d6000fd5b505050506040513d601f19601f8201168201806040525081019061467d9190615298565b60400151905060008260e00151116146a75760405162461bcd60e51b815260040161075d906156fb565b6001600160ff1b0385106146ec5760405162461bcd60e51b815260206004820152600c60248201526b125390d3d4949150d517d4d360a21b604482015260640161075d565b60006147198360e00151606460508660a001516147099190615b95565b6147139190615b73565b90614dff565b905085158061475857508260c0015161474457808360a0015161473c9190615b5b565b861115614758565b808360a001516147549190615bb4565b8610155b6147915760405162461bcd60e51b815260206004820152600a602482015269534c5f544f4f5f42494760b01b604482015260640161075d565b60695461479e8343615bb4565b10156147bc5760405162461bcd60e51b815260040161075d90615749565b60675460408051633078fff560e01b815290516000926001600160a01b031691633078fff5916004808301926020929190829003018186803b15801561480157600080fd5b505afa158015614815573d6000803e3d6000fd5b505050506040513d601f19601f820116820180604052508101906148399190614f18565b90508615806149335750806001600160a01b03166335b03c176040518163ffffffff1660e01b815260040160206040518083038186803b15801561487c57600080fd5b505afa158015614890573d6000803e3d6000fd5b505050506040513d601f19601f820116820180604052508101906148b49190614f18565b6001600160a01b03166324abd3fb8a6040518263ffffffff1660e01b81526004016148e191815260200190565b60206040518083038186803b1580156148f957600080fd5b505afa15801561490d573d6000803e3d6000fd5b505050506040513d601f19601f8201168201806040525081019061493191906150aa565b155b15614a20576067546001600160a01b031663a35441816149516140ff565b6040516001600160e01b031960e084901b1681526001600160a01b039091166004820152602481018c9052604481018b9052606481018a9052608401600060405180830381600087803b1580156149a757600080fd5b505af11580156149bb573d6000803e3d6000fd5b505050506149c76140ff565b604080518b8152602081018b90529081018990524260608201526001600160a01b0391909116907f6a750d0aaea2df37b3b72b79412df54b9e55109ccfaedf5dcecc2af9993a61de9060800160405180910390a2614c65565b60405163302809fd60e21b81526000906001600160a01b0383169063c0a027f490614a52908d906005906004016159df565b602060405180830381600087803b158015614a6c57600080fd5b505af1158015614a80573d6000803e3d6000fd5b505050506040513d601f19601f82011682018060405250810190614aa49190615410565b9050816001600160a01b031663b8213bfa826040518060c00160405280614ac96140ff565b6001600160a01b031681526020018e81526020018d81526020018960a0015181526020018960c00151151581526020018c8152506040518363ffffffff1660e01b8152600401614b6a929190600060e08201905083825260018060a01b0383511660208301526020830151604083015260408301516060830152606083015160808301526080830151151560a083015260a083015160c08301529392505050565b600060405180830381600087803b158015614b8457600080fd5b505af1158015614b98573d6000803e3d6000fd5b50505050614ba46140ff565b604080518c8152602081018c90529081018a9052606081018390524260808201526001600160a01b0391909116907fb24bbc82fd04bd3dab7c96c1cabc7a0f7a1a87dfa2b47239926fbde0a0bfa8be9060a00160405180910390a260405163dd2f3c0560e01b81526001600160a01b0383169063dd2f3c05903490614c319085908c908c90600401615938565b6000604051808303818588803b158015614c4a57600080fd5b505af1158015614c5e573d6000803e3d6000fd5b5050505050505b505050505050505050565b60006402540be400614c828385615b95565b614c8c9190615b73565b90505b92915050565b614c9d614e11565b6033805460ff191690557f5db9ee0a495bf2e6ff9c91a7834c1ba4fdd244a5e8aa4e537bd38aeae4b073aa335b6040516001600160a01b03909116815260200160405180910390a1565b600054610100900460ff16614d0e5760405162461bcd60e51b815260040161075d90615798565b612142614e5a565b614d1e61427b565b6033805460ff191660011790557f62e78cea01bee320cd4e420270b5ea74000d11b0c9f74754ebdbfc544b05a258614cca3390565b60008080856001811115614d6957614d69615c2c565b1415614da75782614d7a8588615b5b565b614d849190615bb4565b905080614d966402540be40089615b95565b614da09190615b73565b9150614df5565b6001856001811115614dbb57614dbb615c2c565b1415614df55782614dcc8588615bb4565b614dd69190615bb4565b905080614de86402540be40089615b95565b614df29190615b73565b91505b9550959350505050565b600081614c826402540be40085615b95565b60335460ff166121425760405162461bcd60e51b815260206004820152601460248201527314185d5cd8589b194e881b9bdd081c185d5cd95960621b604482015260640161075d565b600054610100900460ff16614e815760405162461bcd60e51b815260040161075d90615798565b6033805460ff19169055565b8051614e9881615c81565b919050565b60008083601f840112614eaf57600080fd5b50813567ffffffffffffffff811115614ec757600080fd5b6020830191508360208260051b8501011115614ee257600080fd5b9250929050565b8051614e9881615c96565b600060208284031215614f0657600080fd5b8135614f1181615c81565b9392505050565b600060208284031215614f2a57600080fd5b8151614f1181615c81565b60008060408385031215614f4857600080fd5b8235614f5381615c81565b91506020830135614f6381615c81565b809150509250929050565b60008060408385031215614f8157600080fd5b8235614f8c81615c81565b91506020830135614f6381615c96565b600080600060408486031215614fb157600080fd5b8335614fbc81615c81565b9250602084013567ffffffffffffffff80821115614fd957600080fd5b818601915086601f830112614fed57600080fd5b813581811115614ffc57600080fd5b87602082850101111561500e57600080fd5b6020830194508093505050509250925092565b6000806000806040858703121561503757600080fd5b843567ffffffffffffffff8082111561504f57600080fd5b61505b88838901614e9d565b9096509450602087013591508082111561507457600080fd5b5061508187828801614e9d565b95989497509550505050565b60006020828403121561509f57600080fd5b8135614f1181615c96565b6000602082840312156150bc57600080fd5b8151614f1181615c96565b60008060008060008060a087890312156150e057600080fd5b86356150eb81615ca4565b955060208701356150fb81615c81565b94506040870135935060608701359250608087013567ffffffffffffffff81111561512557600080fd5b61513189828a01614e9d565b979a9699509497509295939492505050565b60006020828403121561515557600080fd5b815167ffffffffffffffff8082111561516d57600080fd5b818401915084601f83011261518157600080fd5b81518181111561519357615193615c58565b604051601f8201601f19908116603f011681019083821181831017156151bb576151bb615c58565b816040528281528760208487010111156151d457600080fd5b6151e5836020830160208801615bcb565b979650505050505050565b6000610180828403121561520357600080fd5b61520b615b0d565b61521483614e8d565b815260208301516020820152604083015160408201526060830151606082015261524060808401614ee9565b608082015260a0838101519082015260c0808401519082015260e08084015190820152610100808401519082015261012080840151908201526101408084015190820152610160928301519281019290925250919050565b600060a082840312156152aa57600080fd5b60405160a0810181811067ffffffffffffffff821117156152cd576152cd615c58565b806040525082518152602083015160208201526040830151604082015260608301516152f881615c96565b60608201526080928301519281019290925250919050565b60008060008385036101a081121561532757600080fd5b6101608082121561533757600080fd5b859450840135905061534881615ca4565b92959294505050610180919091013590565b6000610160828403121561536d57600080fd5b615375615b37565b61537e83614e8d565b81526020830151602082015260408301516040820152606083015160608201526080830151608082015260a083015160a08201526153be60c08401614ee9565b60c082015260e0838101519082015261010080840151908201526101208084015190820152610140928301519281019290925250919050565b60006020828403121561540957600080fd5b5035919050565b60006020828403121561542257600080fd5b5051919050565b6000806040838503121561543c57600080fd5b50508035926020909101359150565b60008060008060008060a0878903121561546457600080fd5b863595506020870135945060408701356002811061548157600080fd5b935060608701359250608087013567ffffffffffffffff81111561512557600080fd5b6000806000606084860312156154b957600080fd5b505081359360208301359350604090920135919050565b60008060008060008060a087890312156154e957600080fd5b86359550602087013594506040870135935060608701359250608087013567ffffffffffffffff81111561512557600080fd5b60008060008060008060c0878903121561553557600080fd5b505084359660208601359650604086013595606081013595506080810135945060a0013592509050565b81835281816020850137506000828201602090810191909152601f909101601f19169091010190565b600081518084526155a0816020860160208601615bcb565b601f01601f19169290920160200192915050565b600281106155c4576155c4615c2c565b9052565b80516001600160a01b03168252602080820151908301526040808201519083015260608101516155f781615c6e565b806060840152505050565b80516001600160a01b031682526020810151602083015260408101516040830152606081015160608301526080810151608083015260a081015160a083015260c081015161565460c084018215159052565b5060e081810151908301526101008082015190830152610120808201519083015261014090810151910152565b8183823760009101908152919050565b6001600160a01b039390931683526020830191909152604082015260600190565b6001600160a01b03851681526020810184905260408101839052608081016156d983615c6e565b82606083015295945050505050565b602081526000614c8c6020830184615588565b6020808252600890820152674e4f5f545241444560c01b604082015260600190565b60208082526012908201527113115591549051d157d25390d3d4949150d560721b604082015260600190565b6020808252600e908201526d4c494d49545f54494d454c4f434b60901b604082015260600190565b6020808252600d908201526c27a7262cafa7a822a920aa27a960991b604082015260600190565b6020808252602b908201527f496e697469616c697a61626c653a20636f6e7472616374206973206e6f74206960408201526a6e697469616c697a696e6760a81b606082015260800190565b602080825260089082015267474f565f4f4e4c5960c01b604082015260600190565b81516001600160a01b0316815261018081016020830151602083015260408301516040830152606083015160608301526080830151615848608084018215159052565b5060a083015160a083015260c083015160c083015260e083015160e083015261010080840151818401525061012080840151818401525061014080840151818401525061016080840151818401525092915050565b60a081016158ab82856155c8565b8260808301529392505050565b6000610200820190506158cc828651615602565b602085015161016083015260408501516101808301526060909401516101a08201526101c081019290925215156101e09091015290565b6101608101614c8f8284615602565b60a0810161592082856155c8565b6001600160a01b039290921660809190910152919050565b60006040820185835260206040818501528185835260608501905060608660051b86010192508660005b878110156159d157868503605f190183528135368a9003601e1901811261598857600080fd5b8901803567ffffffffffffffff8111156159a157600080fd5b8036038b13156159b057600080fd5b6159bd878288850161555f565b965050509183019190830190600101615962565b509298975050505050505050565b82815260408101600983106159f6576159f6615c2c565b8260208301529392505050565b60006101208201905083825260018060a01b03835116602083015260208301516040830152604083015160608301526060830151615a4460808401826155b4565b50608083015160a083015260a083015160c083015260c083015160e083015260e08301516101008301529392505050565b6000610100820190508982528860208301528715156040830152866060830152856080830152615aa485615c6e565b8460a08301528360c08301528260e08301529998505050505050505050565b878152602081018790526102208101615adf60408301886155b4565b615aec6060830187615602565b846101c0830152836101e08301528261020083015298975050505050505050565b604051610180810167ffffffffffffffff81118282101715615b3157615b31615c58565b60405290565b604051610160810167ffffffffffffffff81118282101715615b3157615b31615c58565b60008219821115615b6e57615b6e615c16565b500190565b600082615b9057634e487b7160e01b600052601260045260246000fd5b500490565b6000816000190483118215151615615baf57615baf615c16565b500290565b600082821015615bc657615bc6615c16565b500390565b60005b83811015615be6578181015183820152602001615bce565b83811115615bf5576000848401525b50505050565b6000600019821415615c0f57615c0f615c16565b5060010190565b634e487b7160e01b600052601160045260246000fd5b634e487b7160e01b600052602160045260246000fd5b634e487b7160e01b600052603260045260246000fd5b634e487b7160e01b600052604160045260246000fd5b60048110615c7e57615c7e615c2c565b50565b6001600160a01b0381168114615c7e57600080fd5b8015158114615c7e57600080fd5b60048110615c7e57600080fdfea264697066735822122072f48643396ca170a4aca563fe0663561cd3d0f49be2fb490da87c9e4a87a53a64736f6c63430008070033","linkReferences":{}},"methodIdentifiers":{"__msgSender()":"d1a91ff2","cancelOpenLimitOrder(uint256,uint256)":"b9b6573a","cancelPendingMarketOrder(uint256)":"c5ed6a08","closeTradeMarket(uint256,uint256,uint256)":"2c3cbce4","delegatedAction(address,bytes)":"9a10cc32","delegations(address)":"bffe3486","executeLimitOrder(uint8,address,uint256,uint256,bytes[])":"46f6c8f5","executeMarketOrders(uint256[],bytes[])":"c0b4d24d","initialize(address,address)":"485cc955","isOperator(address)":"6d70f7ae","limitOrdersTimelock()":"0890d22a","openTrade((address,uint256,uint256,uint256,uint256,uint256,bool,uint256,uint256,uint256,uint256),uint8,uint256)":"19cde9a1","operator()":"570ca735","pairInfos()":"1346b0ff","pause()":"8456cb59","paused()":"5c975abb","removeDelegate()":"36fb8b15","setDelegate(address)":"ca5eb5e1","setLimitOrdersTimelock(uint256)":"d4a1caa7","setMarketExecFeeReciever(address)":"9e2033f5","storageT()":"16fff074","unpause()":"3f4ba83a","updateMargin(uint256,uint256,uint8,uint256,bytes[])":"cd90b8a4","updateOpenLimitOrder(uint256,uint256,uint256,uint256,uint256,uint256)":"c641558e","updateOperator(address,bool)":"6d44a3b2","updateTpAndSl(uint256,uint256,uint256,uint256,bytes[])":"15b760b1"},"id":111}