{"abi":[{"type":"constructor","inputs":[],"stateMutability":"nonpayable"},{"type":"function","name":"_MAX_SLIPPAGE","inputs":[],"outputs":[{"name":"","type":"uint256","internalType":"uint256"}],"stateMutability":"view"},{"type":"function","name":"__msgSender","inputs":[],"outputs":[{"name":"","type":"address","internalType":"address"}],"stateMutability":"view"},{"type":"function","name":"cancelOpenLimitOrder","inputs":[{"name":"_pairIndex","type":"uint256","internalType":"uint256"},{"name":"_index","type":"uint256","internalType":"uint256"}],"outputs":[],"stateMutability":"nonpayable"},{"type":"function","name":"cancelPendingMarketOrder","inputs":[{"name":"_id","type":"uint256","internalType":"uint256"}],"outputs":[],"stateMutability":"nonpayable"},{"type":"function","name":"closeTradeMarket","inputs":[{"name":"_pairIndex","type":"uint256","internalType":"uint256"},{"name":"_index","type":"uint256","internalType":"uint256"},{"name":"_amount","type":"uint256","internalType":"uint256"}],"outputs":[{"name":"orderId","type":"uint256","internalType":"uint256"}],"stateMutability":"payable"},{"type":"function","name":"delegatedAction","inputs":[{"name":"trader","type":"address","internalType":"address"},{"name":"call_data","type":"bytes","internalType":"bytes"}],"outputs":[{"name":"","type":"bytes","internalType":"bytes"}],"stateMutability":"payable"},{"type":"function","name":"delegations","inputs":[{"name":"","type":"address","internalType":"address"}],"outputs":[{"name":"","type":"address","internalType":"address"}],"stateMutability":"view"},{"type":"function","name":"executeLimitOrder","inputs":[{"name":"_orderType","type":"uint8","internalType":"enum ITradingStorage.LimitOrder"},{"name":"_trader","type":"address","internalType":"address"},{"name":"_pairIndex","type":"uint256","internalType":"uint256"},{"name":"_index","type":"uint256","internalType":"uint256"},{"name":"priceUpdateData","type":"bytes[]","internalType":"bytes[]"}],"outputs":[],"stateMutability":"payable"},{"type":"function","name":"executeMarketOrders","inputs":[{"name":"orderId","type":"uint256[]","internalType":"uint256[]"},{"name":"priceUpdateData","type":"bytes[]","internalType":"bytes[]"}],"outputs":[],"stateMutability":"payable"},{"type":"function","name":"initialize","inputs":[{"name":"_storageT","type":"address","internalType":"address"},{"name":"_pairInfos","type":"address","internalType":"address"}],"outputs":[],"stateMutability":"nonpayable"},{"type":"function","name":"isOperator","inputs":[{"name":"","type":"address","internalType":"address"}],"outputs":[{"name":"","type":"bool","internalType":"bool"}],"stateMutability":"view"},{"type":"function","name":"limitOrdersTimelock","inputs":[],"outputs":[{"name":"","type":"uint256","internalType":"uint256"}],"stateMutability":"view"},{"type":"function","name":"openTrade","inputs":[{"name":"t","type":"tuple","internalType":"struct ITradingStorage.Trade","components":[{"name":"trader","type":"address","internalType":"address"},{"name":"pairIndex","type":"uint256","internalType":"uint256"},{"name":"index","type":"uint256","internalType":"uint256"},{"name":"initialPosToken","type":"uint256","internalType":"uint256"},{"name":"positionSizeUSDC","type":"uint256","internalType":"uint256"},{"name":"openPrice","type":"uint256","internalType":"uint256"},{"name":"buy","type":"bool","internalType":"bool"},{"name":"leverage","type":"uint256","internalType":"uint256"},{"name":"tp","type":"uint256","internalType":"uint256"},{"name":"sl","type":"uint256","internalType":"uint256"},{"name":"timestamp","type":"uint256","internalType":"uint256"}]},{"name":"_type","type":"uint8","internalType":"enum IExecute.OpenLimitOrderType"},{"name":"_slippageP","type":"uint256","internalType":"uint256"}],"outputs":[{"name":"orderId","type":"uint256","internalType":"uint256"}],"stateMutability":"payable"},{"type":"function","name":"operator","inputs":[],"outputs":[{"name":"","type":"address","internalType":"address"}],"stateMutability":"view"},{"type":"function","name":"pairInfos","inputs":[],"outputs":[{"name":"","type":"address","internalType":"contract IPairInfos"}],"stateMutability":"view"},{"type":"function","name":"pause","inputs":[],"outputs":[],"stateMutability":"nonpayable"},{"type":"function","name":"paused","inputs":[],"outputs":[{"name":"","type":"bool","internalType":"bool"}],"stateMutability":"view"},{"type":"function","name":"removeDelegate","inputs":[],"outputs":[],"stateMutability":"nonpayable"},{"type":"function","name":"setDelegate","inputs":[{"name":"delegate","type":"address","internalType":"address"}],"outputs":[],"stateMutability":"nonpayable"},{"type":"function","name":"setLimitOrdersTimelock","inputs":[{"name":"_blocks","type":"uint256","internalType":"uint256"}],"outputs":[],"stateMutability":"nonpayable"},{"type":"function","name":"setMarketExecFeeReciever","inputs":[{"name":"_reciever","type":"address","internalType":"address"}],"outputs":[],"stateMutability":"nonpayable"},{"type":"function","name":"storageT","inputs":[],"outputs":[{"name":"","type":"address","internalType":"contract ITradingStorage"}],"stateMutability":"view"},{"type":"function","name":"unpause","inputs":[],"outputs":[],"stateMutability":"nonpayable"},{"type":"function","name":"updateMargin","inputs":[{"name":"_pairIndex","type":"uint256","internalType":"uint256"},{"name":"_index","type":"uint256","internalType":"uint256"},{"name":"_type","type":"uint8","internalType":"enum ITradingStorage.updateType"},{"name":"_amount","type":"uint256","internalType":"uint256"},{"name":"priceUpdateData","type":"bytes[]","internalType":"bytes[]"}],"outputs":[{"name":"orderId","type":"uint256","internalType":"uint256"}],"stateMutability":"payable"},{"type":"function","name":"updateOpenLimitOrder","inputs":[{"name":"_pairIndex","type":"uint256","internalType":"uint256"},{"name":"_index","type":"uint256","internalType":"uint256"},{"name":"_price","type":"uint256","internalType":"uint256"},{"name":"_slippageP","type":"uint256","internalType":"uint256"},{"name":"_tp","type":"uint256","internalType":"uint256"},{"name":"_sl","type":"uint256","internalType":"uint256"}],"outputs":[],"stateMutability":"nonpayable"},{"type":"function","name":"updateOperator","inputs":[{"name":"_operator","type":"address","internalType":"address"},{"name":"_isOperator","type":"bool","internalType":"bool"}],"outputs":[],"stateMutability":"nonpayable"},{"type":"function","name":"updateTpAndSl","inputs":[{"name":"_pairIndex","type":"uint256","internalType":"uint256"},{"name":"_index","type":"uint256","internalType":"uint256"},{"name":"_newSl","type":"uint256","internalType":"uint256"},{"name":"_newTP","type":"uint256","internalType":"uint256"},{"name":"priceUpdateData","type":"bytes[]","internalType":"bytes[]"}],"outputs":[],"stateMutability":"payable"},{"type":"event","name":"Initialized","inputs":[{"name":"version","type":"uint8","indexed":false,"internalType":"uint8"}],"anonymous":false},{"type":"event","name":"LimitOrderInitiated","inputs":[{"name":"trader","type":"address","indexed":true,"internalType":"address"},{"name":"pairIndex","type":"uint256","indexed":false,"internalType":"uint256"},{"name":"orderId","type":"uint256","indexed":false,"internalType":"uint256"},{"name":"timestamp","type":"uint256","indexed":false,"internalType":"uint256"}],"anonymous":false},{"type":"event","name":"MarginUpdated","inputs":[{"name":"trader","type":"address","indexed":true,"internalType":"address"},{"name":"pairIndex","type":"uint256","indexed":false,"internalType":"uint256"},{"name":"index","type":"uint256","indexed":false,"internalType":"uint256"},{"name":"_type","type":"uint8","indexed":false,"internalType":"enum ITradingStorage.updateType"},{"name":"newTrade","type":"tuple","indexed":false,"internalType":"struct ITradingStorage.Trade","components":[{"name":"trader","type":"address","internalType":"address"},{"name":"pairIndex","type":"uint256","internalType":"uint256"},{"name":"index","type":"uint256","internalType":"uint256"},{"name":"initialPosToken","type":"uint256","internalType":"uint256"},{"name":"positionSizeUSDC","type":"uint256","internalType":"uint256"},{"name":"openPrice","type":"uint256","internalType":"uint256"},{"name":"buy","type":"bool","internalType":"bool"},{"name":"leverage","type":"uint256","internalType":"uint256"},{"name":"tp","type":"uint256","internalType":"uint256"},{"name":"sl","type":"uint256","internalType":"uint256"},{"name":"timestamp","type":"uint256","internalType":"uint256"}]},{"name":"marginFees","type":"uint256","indexed":false,"internalType":"uint256"},{"name":"lossProtectionTier","type":"uint256","indexed":false,"internalType":"uint256"},{"name":"timestamp","type":"uint256","indexed":false,"internalType":"uint256"}],"anonymous":false},{"type":"event","name":"MarketOrderInitiated","inputs":[{"name":"trader","type":"address","indexed":true,"internalType":"address"},{"name":"pairIndex","type":"uint256","indexed":false,"internalType":"uint256"},{"name":"open","type":"bool","indexed":false,"internalType":"bool"},{"name":"orderId","type":"uint256","indexed":false,"internalType":"uint256"},{"name":"timestamp","type":"uint256","indexed":false,"internalType":"uint256"},{"name":"isBuy","type":"bool","indexed":false,"internalType":"bool"}],"anonymous":false},{"type":"event","name":"NumberUpdated","inputs":[{"name":"name","type":"string","indexed":false,"internalType":"string"},{"name":"value","type":"uint256","indexed":false,"internalType":"uint256"}],"anonymous":false},{"type":"event","name":"OpenLimitCanceled","inputs":[{"name":"trader","type":"address","indexed":true,"internalType":"address"},{"name":"pairIndex","type":"uint256","indexed":false,"internalType":"uint256"},{"name":"index","type":"uint256","indexed":false,"internalType":"uint256"},{"name":"timestamp","type":"uint256","indexed":false,"internalType":"uint256"},{"name":"collateral","type":"uint256","indexed":false,"internalType":"uint256"}],"anonymous":false},{"type":"event","name":"OpenLimitPlaced","inputs":[{"name":"trader","type":"address","indexed":true,"internalType":"address"},{"name":"pairIndex","type":"uint256","indexed":false,"internalType":"uint256"},{"name":"index","type":"uint256","indexed":false,"internalType":"uint256"},{"name":"isBuy","type":"bool","indexed":false,"internalType":"bool"},{"name":"openPrice","type":"uint256","indexed":false,"internalType":"uint256"},{"name":"executionFee","type":"uint256","indexed":false,"internalType":"uint256"},{"name":"orderType","type":"uint8","indexed":false,"internalType":"enum IExecute.OpenLimitOrderType"},{"name":"slippageP","type":"uint256","indexed":false,"internalType":"uint256"},{"name":"collateral","type":"uint256","indexed":false,"internalType":"uint256"}],"anonymous":false},{"type":"event","name":"OpenLimitUpdated","inputs":[{"name":"trader","type":"address","indexed":true,"internalType":"address"},{"name":"pairIndex","type":"uint256","indexed":false,"internalType":"uint256"},{"name":"index","type":"uint256","indexed":false,"internalType":"uint256"},{"name":"newPrice","type":"uint256","indexed":false,"internalType":"uint256"},{"name":"newTp","type":"uint256","indexed":false,"internalType":"uint256"},{"name":"newSl","type":"uint256","indexed":false,"internalType":"uint256"},{"name":"timestamp","type":"uint256","indexed":false,"internalType":"uint256"}],"anonymous":false},{"type":"event","name":"OperatorUpdated","inputs":[{"name":"operator","type":"address","indexed":false,"internalType":"address"},{"name":"isOperator","type":"bool","indexed":false,"internalType":"bool"}],"anonymous":false},{"type":"event","name":"Paused","inputs":[{"name":"account","type":"address","indexed":false,"internalType":"address"}],"anonymous":false},{"type":"event","name":"SlUpdateInitiated","inputs":[{"name":"trader","type":"address","indexed":true,"internalType":"address"},{"name":"pairIndex","type":"uint256","indexed":false,"internalType":"uint256"},{"name":"index","type":"uint256","indexed":false,"internalType":"uint256"},{"name":"newSl","type":"uint256","indexed":false,"internalType":"uint256"},{"name":"orderId","type":"uint256","indexed":false,"internalType":"uint256"},{"name":"timestamp","type":"uint256","indexed":false,"internalType":"uint256"}],"anonymous":false},{"type":"event","name":"SlUpdated","inputs":[{"name":"trader","type":"address","indexed":true,"internalType":"address"},{"name":"pairIndex","type":"uint256","indexed":false,"internalType":"uint256"},{"name":"index","type":"uint256","indexed":false,"internalType":"uint256"},{"name":"newSl","type":"uint256","indexed":false,"internalType":"uint256"},{"name":"timestamp","type":"uint256","indexed":false,"internalType":"uint256"}],"anonymous":false},{"type":"event","name":"TpUpdated","inputs":[{"name":"trader","type":"address","indexed":true,"internalType":"address"},{"name":"pairIndex","type":"uint256","indexed":false,"internalType":"uint256"},{"name":"index","type":"uint256","indexed":false,"internalType":"uint256"},{"name":"newTp","type":"uint256","indexed":false,"internalType":"uint256"},{"name":"timestamp","type":"uint256","indexed":false,"internalType":"uint256"}],"anonymous":false},{"type":"event","name":"Unpaused","inputs":[{"name":"account","type":"address","indexed":false,"internalType":"address"}],"anonymous":false}],"bytecode":{"object":"0x60806040523480156200001157600080fd5b506200001c62000022565b620000e3565b600054610100900460ff16156200008f5760405162461bcd60e51b815260206004820152602760248201527f496e697469616c697a61626c653a20636f6e747261637420697320696e697469604482015266616c697a696e6760c81b606482015260840160405180910390fd5b60005460ff90811614620000e1576000805460ff191660ff9081179091556040519081527f7f26b83ff96e1f2b6a682f133852f6798a09c465da95921460cefb38474024989060200160405180910390a15b565b615ef180620000f36000396000f3fe60806040526004361061019c5760003560e01c80636d70f7ae116100ec578063c48a02a21161008a578063ca5eb5e111610064578063ca5eb5e11461047f578063cd90b8a4146104c9578063d1a91ff2146104dc578063d4a1caa7146104f157600080fd5b8063c48a02a214610426578063c5ed6a081461043f578063c641558e1461045f57600080fd5b80639e2033f5116100c65780639e2033f51461039d578063b9b6573a146103bd578063bffe3486146103dd578063c0b4d24d1461041357600080fd5b80636d70f7ae146103385780638456cb59146103685780639a10cc321461037d57600080fd5b806336fb8b1511610159578063485cc95511610133578063485cc955146102b4578063570ca735146102d45780635c975abb146102f45780636d44a3b21461031857600080fd5b806336fb8b151461025d5780633f4ba83a1461028c57806346f6c8f5146102a157600080fd5b80630890d22a146101a15780631346b0ff146101ca57806315b760b11461020257806316fff0741461021757806319cde9a1146102375780632c3cbce41461024a575b600080fd5b3480156101ad57600080fd5b506101b760695481565b6040519081526020015b60405180910390f35b3480156101d657600080fd5b506068546101ea906001600160a01b031681565b6040516001600160a01b0390911681526020016101c1565b6102156102103660046156da565b610511565b005b34801561022357600080fd5b506067546101ea906001600160a01b031681565b6101b761024536600461551a565b61053f565b6101b76102583660046156ae565b61176c565b34801561026957600080fd5b5061021533600090815260656020526040902080546001600160a01b0319169055565b34801561029857600080fd5b506102156121f9565b6102156102af3660046152d1565b6122b9565b3480156102c057600080fd5b506102156102cf36600461513f565b612d34565b3480156102e057600080fd5b50606a546101ea906001600160a01b031681565b34801561030057600080fd5b5060335460ff165b60405190151581526020016101c1565b34801561032457600080fd5b50610215610333366004615178565b612e7c565b34801561034457600080fd5b506103086103533660046150fe565b606b6020526000908152604090205460ff1681565b34801561037457600080fd5b50610215612f95565b61039061038b3660046151a6565b613053565b6040516101c191906158f2565b3480156103a957600080fd5b506102156103b83660046150fe565b61318e565b3480156103c957600080fd5b506102156103d8366004615633565b6132ab565b3480156103e957600080fd5b506101ea6103f83660046150fe565b6065602052600090815260409020546001600160a01b031681565b61021561042136600461522b565b6134e4565b34801561043257600080fd5b506101b764ba43b7400081565b34801561044b57600080fd5b5061021561045a366004615601565b613638565b34801561046b57600080fd5b5061021561047a366004615726565b6136c1565b34801561048b57600080fd5b5061021561049a3660046150fe565b33600090815260656020526040902080546001600160a01b0319166001600160a01b0392909216919091179055565b6101b76104d7366004615655565b61396c565b3480156104e857600080fd5b506101ea6142e3565b3480156104fd57600080fd5b5061021561050c366004615601565b61430b565b61051961445f565b6105248686856144a5565b801561053757610537868686858561476b565b505050505050565b600061054961445f565b60675460408051633078fff560e01b815290516000926001600160a01b031691633078fff5916004808301926020929190829003018186803b15801561058e57600080fd5b505afa1580156105a2573d6000803e3d6000fd5b505050506040513d601f19601f820116820180604052508101906105c69190615122565b90506000816001600160a01b03166335b03c176040518163ffffffff1660e01b815260040160206040518083038186803b15801561060357600080fd5b505afa158015610617573d6000803e3d6000fd5b505050506040513d601f19601f8201168201806040525081019061063b9190615122565b9050606760009054906101000a90046001600160a01b03166001600160a01b0316638049fde76040518163ffffffff1660e01b815260040160206040518083038186803b15801561068b57600080fd5b505afa15801561069f573d6000803e3d6000fd5b505050506040513d601f19601f820116820180604052508101906106c3919061561a565b6067546001600160a01b031663f7b3c6fd6106dc6142e3565b6040516001600160e01b031960e084901b1681526001600160a01b03909116600482015260240160206040518083038186803b15801561071b57600080fd5b505afa15801561072f573d6000803e3d6000fd5b505050506040513d601f19601f82011682018060405250810190610753919061561a565b1061079a5760405162461bcd60e51b81526020600482015260126024820152714d41585f50454e44494e475f4f524445525360701b60448201526064015b60405180910390fd5b606760009054906101000a90046001600160a01b03166001600160a01b031663f65d9dbe6040518163ffffffff1660e01b815260040160206040518083038186803b1580156107e857600080fd5b505afa1580156107fc573d6000803e3d6000fd5b505050506040513d601f19601f82011682018060405250810190610820919061561a565b6067546001600160a01b03166397e7995a6108396142e3565b6040516001600160e01b031960e084901b1681526001600160a01b03909116600482015260208a0135602482015260440160206040518083038186803b15801561088257600080fd5b505afa158015610896573d6000803e3d6000fd5b505050506040513d601f19601f820116820180604052508101906108ba919061561a565b6067546001600160a01b0316639c8912f16108d36142e3565b6040516001600160e01b031960e084901b1681526001600160a01b03909116600482015260208b0135602482015260440160206040518083038186803b15801561091c57600080fd5b505afa158015610930573d6000803e3d6000fd5b505050506040513d601f19601f82011682018060405250810190610954919061561a565b6067546001600160a01b0316631c8636b461096d6142e3565b6040516001600160e01b031960e084901b1681526001600160a01b03909116600482015260208c0135602482015260440160206040518083038186803b1580156109b657600080fd5b505afa1580156109ca573d6000803e3d6000fd5b505050506040513d601f19601f820116820180604052508101906109ee919061561a565b6109f89190615d65565b610a029190615d65565b10610a455760405162461bcd60e51b815260206004820152601360248201527226a0ac2faa2920a222a9afa822a92fa820a4a960691b6044820152606401610791565b60405163238cd23f60e01b8152602087013560048201526001600160a01b0382169063238cd23f9060240160206040518083038186803b158015610a8857600080fd5b505afa158015610a9c573d6000803e3d6000fd5b505050506040513d601f19601f82011682018060405250810190610ac0919061561a565b610ad2608088013560e0890135614e7a565b1015610b105760405162461bcd60e51b815260206004820152600d60248201526c42454c4f575f4d494e5f504f5360981b6044820152606401610791565b6101008601351580610b4f5750610b2d60e0870160c08801615297565b610b42578560a0013586610100013510610b4f565b8560a00135866101000135115b610b865760405162461bcd60e51b8152602060048201526008602482015267057524f4e475f54560c41b6044820152606401610791565b6101208601351580610bc55750610ba360e0870160c08801615297565b610bb8578560a0013586610120013511610bc5565b8560a00135866101200135105b610bfc5760405162461bcd60e51b815260206004820152600860248201526715d493d391d7d4d360c21b6044820152606401610791565b64ba43b740008410610c435760405162461bcd60e51b815260206004820152601060248201526f494e56414c49445f534c49505041474560801b6044820152606401610791565b6000856003811115610c5757610c57615e36565b14158015610c7757506003856003811115610c7457610c74615e36565b14155b156111305760008660e00135118015610d155750604051634cadbb2b60e11b815260208701356004820152600060248201526001600160a01b0382169063995b76569060440160206040518083038186803b158015610cd557600080fd5b505afa158015610ce9573d6000803e3d6000fd5b505050506040513d601f19601f82011682018060405250810190610d0d919061561a565b8660e0013510155b8015610da65750604051639b2f6cab60e01b815260208701356004820152600060248201526001600160a01b03821690639b2f6cab9060440160206040518083038186803b158015610d6657600080fd5b505afa158015610d7a573d6000803e3d6000fd5b505050506040513d601f19601f82011682018060405250810190610d9e919061561a565b8660e0013511155b610dc25760405162461bcd60e51b815260040161079190615927565b6067546001600160a01b0316638b83351a610ddb6142e3565b60675460405160e084901b6001600160e01b03191681526001600160a01b0392831660048201529116602482015260808901356044820152606401600060405180830381600087803b158015610e3057600080fd5b505af1158015610e44573d6000803e3d6000fd5b5050606754600092506001600160a01b031690506344d44f5a610e656142e3565b6040516001600160e01b031960e084901b1681526001600160a01b03909116600482015260208a0135602482015260440160206040518083038186803b158015610eae57600080fd5b505afa158015610ec2573d6000803e3d6000fd5b505050506040513d601f19601f82011682018060405250810190610ee6919061561a565b6067546040805161018081019091529192506001600160a01b03169063fdb153e29080610f116142e3565b6001600160a01b0316815260208b81013590820152604081018590526080808c0135606083015201610f4960e08c0160c08d01615297565b151581526020018a60e0013581526020018a610100013581526020018a610120013581526020018a60a00135815260200188815260200143815260200160008152506040518263ffffffff1660e01b8152600401610fa79190615a0f565b600060405180830381600087803b158015610fc157600080fd5b505af1158015610fd5573d6000803e3d6000fd5b50505050826001600160a01b031663b21f45176040518163ffffffff1660e01b815260040160206040518083038186803b15801561101257600080fd5b505afa158015611026573d6000803e3d6000fd5b505050506040513d601f19601f8201168201806040525081019061104a9190615122565b6001600160a01b031663ec5706106110606142e3565b8960200135848a6040518563ffffffff1660e01b815260040161108694939291906158bc565b600060405180830381600087803b1580156110a057600080fd5b505af11580156110b4573d6000803e3d6000fd5b505050506110c06142e3565b6001600160a01b03167f174df203b38fe4bbf31688bea280abf3c60a2d5a4214fdf30984abdcf6f15fca60208901358361110060e08c0160c08d01615297565b8b60a0013560008c8c8f60800135604051611122989796959493929190615c7f565b60405180910390a2506116c6565b60008660e001351180156111e457506001600160a01b03811663995b76566020880135600388600381111561116757611167615e36565b6040516001600160e01b031960e086901b168152600481019390935214602482015260440160206040518083038186803b1580156111a457600080fd5b505afa1580156111b8573d6000803e3d6000fd5b505050506040513d601f19601f820116820180604052508101906111dc919061561a565b8660e0013510155b801561129057506001600160a01b038116639b2f6cab6020880135600388600381111561121357611213615e36565b6040516001600160e01b031960e086901b168152600481019390935214602482015260440160206040518083038186803b15801561125057600080fd5b505afa158015611264573d6000803e3d6000fd5b505050506040513d601f19601f82011682018060405250810190611288919061561a565b8660e0013511155b6112ac5760405162461bcd60e51b815260040161079190615927565b60038560038111156112c0576112c0615e36565b141561138557604051631fca5ed960e01b8152602087013560048201526001600160a01b03821690631fca5ed99060240160206040518083038186803b15801561130957600080fd5b505afa15801561131d573d6000803e3d6000fd5b505050506040513d601f19601f8201168201806040525081019061134191906152b4565b6113855760405162461bcd60e51b815260206004820152601560248201527414139317d3d491115497d393d517d0531313d5d151605a1b6044820152606401610791565b6067546001600160a01b0316638b83351a61139e6142e3565b60675460405160e084901b6001600160e01b03191681526001600160a01b0392831660048201529116602482015260808901356044820152606401600060405180830381600087803b1580156113f357600080fd5b505af1158015611407573d6000803e3d6000fd5b5060009250611414915050565b85600381111561142657611426615e36565b146114b55760405163302809fd60e21b81526001600160a01b0383169063c0a027f49061145e9060208a013590600690600401615be9565b602060405180830381600087803b15801561147857600080fd5b505af115801561148c573d6000803e3d6000fd5b505050506040513d601f19601f820116820180604052508101906114b0919061561a565b61153a565b60405163302809fd60e21b81526001600160a01b0383169063c0a027f4906114e89060208a013590600090600401615be9565b602060405180830381600087803b15801561150257600080fd5b505af1158015611516573d6000803e3d6000fd5b505050506040513d601f19601f8201168201806040525081019061153a919061561a565b606754604080516101e081019091529194506001600160a01b03169063d8137fe89080608081018061156a6142e3565b6001600160a01b031681526020018b60200135815260200160008152602001600081526020018b608001358152602001600081526020018b60c00160208101906115b49190615297565b151581526020018b60e0013581526020018b610100013581526020018b6101200135815260200160008152508152602001600081526020018960a001358152602001878152508560016040518463ffffffff1660e01b815260040161161b93929190615ac2565b600060405180830381600087803b15801561163557600080fd5b505af1158015611649573d6000803e3d6000fd5b505050506116556142e3565b6001600160a01b03167fe9092f5bd9dedfcde131b74a84f9c41981d96f1114420e39a57d92d9324ee07660208801356001864261169860e08d0160c08e01615297565b6040805195865293151560208601529284019190915260608301521515608082015260a00160405180910390a25b606a546040516000916001600160a01b03169034908381818185875af1925050503d8060008114611713576040519150601f19603f3d011682016040523d82523d6000602084013e611718565b606091505b50509050806117625760405162461bcd60e51b815260206004820152601660248201527511561150d5551253d397d1915157d393d517d4d1539560521b6044820152606401610791565b5050509392505050565b600061177661445f565b60675460408051633078fff560e01b815290516000926001600160a01b031691633078fff5916004808301926020929190829003018186803b1580156117bb57600080fd5b505afa1580156117cf573d6000803e3d6000fd5b505050506040513d601f19601f820116820180604052508101906117f39190615122565b6001600160a01b03166335b03c176040518163ffffffff1660e01b815260040160206040518083038186803b15801561182b57600080fd5b505afa15801561183f573d6000803e3d6000fd5b505050506040513d601f19601f820116820180604052508101906118639190615122565b606a546040519192506000916001600160a01b039091169034908381818185875af1925050503d80600081146118b5576040519150601f19603f3d011682016040523d82523d6000602084013e6118ba565b606091505b50509050806119045760405162461bcd60e51b815260206004820152601660248201527511561150d5551253d397d1915157d393d517d4d1539560521b6044820152606401610791565b6067546000906001600160a01b031663a3a80ffe6119206142e3565b89896040518463ffffffff1660e01b81526004016119409392919061589b565b6101606040518083038186803b15801561195957600080fd5b505afa15801561196d573d6000803e3d6000fd5b505050506040513d601f19601f820116820180604052508101906119919190615564565b6067549091506000906001600160a01b0316638c8ff1d56119b06142e3565b8a8a6040518463ffffffff1660e01b81526004016119d09392919061589b565b60a06040518083038186803b1580156119e857600080fd5b505afa1580156119fc573d6000803e3d6000fd5b505050506040513d601f19601f82011682018060405250810190611a2091906154a2565b6060015190508160600151861115611a675760405162461bcd60e51b815260206004820152600a60248201526912539597d05353d5539560b21b6044820152606401610791565b606760009054906101000a90046001600160a01b03166001600160a01b0316638049fde76040518163ffffffff1660e01b815260040160206040518083038186803b158015611ab557600080fd5b505afa158015611ac9573d6000803e3d6000fd5b505050506040513d601f19601f82011682018060405250810190611aed919061561a565b6067546001600160a01b031663f7b3c6fd611b066142e3565b6040516001600160e01b031960e084901b1681526001600160a01b03909116600482015260240160206040518083038186803b158015611b4557600080fd5b505afa158015611b59573d6000803e3d6000fd5b505050506040513d601f19601f82011682018060405250810190611b7d919061561a565b10611bbf5760405162461bcd60e51b81526020600482015260126024820152714d41585f50454e44494e475f4f524445525360701b6044820152606401610791565b8015611c045760405162461bcd60e51b81526020600482015260146024820152731053149150511657d091525391d7d0d313d4d15160621b6044820152606401610791565b60008260e0015111611c285760405162461bcd60e51b815260040161079190615905565b836001600160a01b031663737113b589611c4f8560e001518a614e7a90919063ffffffff16565b6040516001600160e01b031960e085901b1681526004810192909252602482015260440160206040518083038186803b158015611c8b57600080fd5b505afa158015611c9f573d6000803e3d6000fd5b505050506040513d601f19601f82011682018060405250810190611cc3919061561a565b610140830151611cd39042615dbe565b1015611d0f5760405162461bcd60e51b815260206004820152600b60248201526a4541524c595f434c4f534560a81b6044820152606401610791565b60675460408051633078fff560e01b815290516000926001600160a01b031691633078fff5916004808301926020929190829003018186803b158015611d5457600080fd5b505afa158015611d68573d6000803e3d6000fd5b505050506040513d601f19601f82011682018060405250810190611d8c9190615122565b6001600160a01b03166335b03c176040518163ffffffff1660e01b815260040160206040518083038186803b158015611dc457600080fd5b505afa158015611dd8573d6000803e3d6000fd5b505050506040513d601f19601f82011682018060405250810190611dfc9190615122565b6001600160a01b031663c5f5951a611e126142e3565b8b8b6040518463ffffffff1660e01b8152600401611e329392919061589b565b60206040518083038186803b158015611e4a57600080fd5b505afa158015611e5e573d6000803e3d6000fd5b505050506040513d601f19601f82011682018060405250810190611e8291906152b4565b905080611f9457606760009054906101000a90046001600160a01b03166001600160a01b0316633078fff56040518163ffffffff1660e01b815260040160206040518083038186803b158015611ed757600080fd5b505afa158015611eeb573d6000803e3d6000fd5b505050506040513d601f19601f82011682018060405250810190611f0f9190615122565b6001600160a01b031663c0a027f48a60016040518363ffffffff1660e01b8152600401611f3d929190615be9565b602060405180830381600087803b158015611f5757600080fd5b505af1158015611f6b573d6000803e3d6000fd5b505050506040513d601f19601f82011682018060405250810190611f8f919061561a565b61209a565b606760009054906101000a90046001600160a01b03166001600160a01b0316633078fff56040518163ffffffff1660e01b815260040160206040518083038186803b158015611fe257600080fd5b505afa158015611ff6573d6000803e3d6000fd5b505050506040513d601f19601f8201168201806040525081019061201a9190615122565b6001600160a01b031663c0a027f48a60076040518363ffffffff1660e01b8152600401612048929190615be9565b602060405180830381600087803b15801561206257600080fd5b505af1158015612076573d6000803e3d6000fd5b505050506040513d601f19601f8201168201806040525081019061209a919061561a565b606754604080516101e081019091529197506001600160a01b03169063d8137fe8908060808101806120ca6142e3565b6001600160a01b031681526020018e81526020018d81526020018c8152602001600081526020016000815260200160001515815260200160008152602001600081526020016000815260200160008152508152602001600081526020016000815260200160008152508860006040518463ffffffff1660e01b815260040161215493929190615ac2565b600060405180830381600087803b15801561216e57600080fd5b505af1158015612182573d6000803e3d6000fd5b5050505061218e6142e3565b60c0840151604080518c8152600060208201528082018a90524260608201529115156080830152516001600160a01b0392909216917fe9092f5bd9dedfcde131b74a84f9c41981d96f1114420e39a57d92d9324ee0769181900360a00190a250505050509392505050565b606760009054906101000a90046001600160a01b03166001600160a01b03166312d43a516040518163ffffffff1660e01b815260040160206040518083038186803b15801561224757600080fd5b505afa15801561225b573d6000803e3d6000fd5b505050506040513d601f19601f8201168201806040525081019061227f9190615122565b6001600160a01b0316336001600160a01b0316146122af5760405162461bcd60e51b8152600401610791906159ed565b6122b7614e9f565b565b6122c161445f565b336000908152606b602052604090205460ff166122f05760405162461bcd60e51b81526004016107919061597b565b60675460408051633078fff560e01b815290516000926001600160a01b031691633078fff5916004808301926020929190829003018186803b15801561233557600080fd5b505afa158015612349573d6000803e3d6000fd5b505050506040513d601f19601f8201168201806040525081019061236d9190615122565b6001600160a01b03166335b03c176040518163ffffffff1660e01b815260040160206040518083038186803b1580156123a557600080fd5b505afa1580156123b9573d6000803e3d6000fd5b505050506040513d601f19601f820116820180604052508101906123dd9190615122565b905060038760038111156123f3576123f3615e36565b14156124b957606754604051636e6f99cd60e11b81526001600160a01b039091169063dcdf339a9061242d9089908990899060040161589b565b60206040518083038186803b15801561244557600080fd5b505afa158015612459573d6000803e3d6000fd5b505050506040513d601f19601f8201168201806040525081019061247d91906152b4565b6124b45760405162461bcd60e51b81526020600482015260086024820152671393d7d31253525560c21b6044820152606401610791565b612819565b6067546040516351d407ff60e11b81526000916001600160a01b03169063a3a80ffe906124ee908a908a908a9060040161589b565b6101606040518083038186803b15801561250757600080fd5b505afa15801561251b573d6000803e3d6000fd5b505050506040513d601f19601f8201168201806040525081019061253f9190615564565b905060008160e00151116125655760405162461bcd60e51b815260040161079190615905565b600188600381111561257957612579615e36565b14158061258b57506000816101200151115b6125bf5760405162461bcd60e51b81526020600482015260056024820152641393d7d4d360da1b6044820152606401610791565b60028860038111156125d3576125d3615e36565b141561270e576068548151602083015160408085015160a086015160c0870151606088015160e08901519451636bc84d5960e01b81526001600160a01b0397881660048201526024810196909652604486019390935260648501919091521515608484015260a483015260c48201526000929190911690636bc84d599060e40160206040518083038186803b15801561266b57600080fd5b505afa15801561267f573d6000803e3d6000fd5b505050506040513d601f19601f820116820180604052508101906126a3919061561a565b9050816101200151600014806126d357508160c001516126ca5781610120015181106126d3565b81610120015181115b6127085760405162461bcd60e51b8152602060048201526006602482015265121054d7d4d360d21b6044820152606401610791565b50612817565b600088600381111561272257612722615e36565b141561281757816001600160a01b031663737113b582602001516127578460e001518560600151614e7a90919063ffffffff16565b6040516001600160e01b031960e085901b1681526004810192909252602482015260440160206040518083038186803b15801561279357600080fd5b505afa1580156127a7573d6000803e3d6000fd5b505050506040513d601f19601f820116820180604052508101906127cb919061561a565b6101408201516127db9042615dbe565b10156128175760405162461bcd60e51b815260206004820152600b60248201526a4541524c595f434c4f534560a81b6044820152606401610791565b505b60675460408051633078fff560e01b815290516000926001600160a01b031691633078fff5916004808301926020929190829003018186803b15801561285e57600080fd5b505afa158015612872573d6000803e3d6000fd5b505050506040513d601f19601f820116820180604052508101906128969190615122565b90506000816001600160a01b031663b21f45176040518163ffffffff1660e01b815260040160206040518083038186803b1580156128d357600080fd5b505afa1580156128e7573d6000803e3d6000fd5b505050506040513d601f19601f8201168201806040525081019061290b9190615122565b9050600060405180608001604052808a6001600160a01b031681526020018981526020018881526020018b600381111561294757612947615e36565b81525090506000606760009054906101000a90046001600160a01b03166001600160a01b0316633078fff56040518163ffffffff1660e01b815260040160206040518083038186803b15801561299c57600080fd5b505afa1580156129b0573d6000803e3d6000fd5b505050506040513d601f19601f820116820180604052508101906129d49190615122565b6001600160a01b03166335b03c176040518163ffffffff1660e01b815260040160206040518083038186803b158015612a0c57600080fd5b505afa158015612a20573d6000803e3d6000fd5b505050506040513d601f19601f82011682018060405250810190612a449190615122565b6001600160a01b031663c5f5951a8b8b8b6040518463ffffffff1660e01b8152600401612a739392919061589b565b60206040518083038186803b158015612a8b57600080fd5b505afa158015612a9f573d6000803e3d6000fd5b505050506040513d601f19601f82011682018060405250810190612ac391906152b4565b905060006001600160a01b03851663c0a027f48b60038f6003811115612aeb57612aeb615e36565b14612b035784612afc576003612b06565b6008612b06565b60025b6040518363ffffffff1660e01b8152600401612b23929190615be9565b602060405180830381600087803b158015612b3d57600080fd5b505af1158015612b51573d6000803e3d6000fd5b505050506040513d601f19601f82011682018060405250810190612b75919061561a565b606754604080516080810182526001600160a01b038f81168252602082018f90529181018d9052929350169063d775d54890606081018f6003811115612bbd57612bbd615e36565b815250836040518363ffffffff1660e01b8152600401612bde929190615aa7565b600060405180830381600087803b158015612bf857600080fd5b505af1158015612c0c573d6000803e3d6000fd5b50505050836001600160a01b031663c23c886c84612c286142e3565b6040518363ffffffff1660e01b8152600401612c45929190615b1c565b600060405180830381600087803b158015612c5f57600080fd5b505af1158015612c73573d6000803e3d6000fd5b5050604080518d815260208101859052428183015290516001600160a01b038f1693507fd0ac65cbccd4e7062356a9be37735153d991bdc4de08f024a8fffc0600f7048892509081900360600190a260405163dd2f3c0560e01b81526001600160a01b0386169063dd2f3c05903490612cf49085908d908d90600401615b42565b6000604051808303818588803b158015612d0d57600080fd5b505af1158015612d21573d6000803e3d6000fd5b5050505050505050505050505050505050565b600054610100900460ff1615808015612d545750600054600160ff909116105b80612d6e5750303b158015612d6e575060005460ff166001145b612dd15760405162461bcd60e51b815260206004820152602e60248201527f496e697469616c697a61626c653a20636f6e747261637420697320616c72656160448201526d191e481a5b9a5d1a585b1a5e995960921b6064820152608401610791565b6000805460ff191660011790558015612df4576000805461ff0019166101001790555b606780546001600160a01b038086166001600160a01b03199283161790925560688054928516929091169190911790556002606955612e31614ef1565b8015612e77576000805461ff0019169055604051600181527f7f26b83ff96e1f2b6a682f133852f6798a09c465da95921460cefb38474024989060200160405180910390a15b505050565b606760009054906101000a90046001600160a01b03166001600160a01b03166312d43a516040518163ffffffff1660e01b815260040160206040518083038186803b158015612eca57600080fd5b505afa158015612ede573d6000803e3d6000fd5b505050506040513d601f19601f82011682018060405250810190612f029190615122565b6001600160a01b0316336001600160a01b031614612f325760405162461bcd60e51b8152600401610791906159ed565b6001600160a01b0382166000818152606b6020908152604091829020805460ff19168515159081179091558251938452908301527f966c160e1c4dbc7df8d69af4ace01e9297c3cf016397b7914971f2fbfa32672d910160405180910390a15050565b606760009054906101000a90046001600160a01b03166001600160a01b03166312d43a516040518163ffffffff1660e01b815260040160206040518083038186803b158015612fe357600080fd5b505afa158015612ff7573d6000803e3d6000fd5b505050506040513d601f19601f8201168201806040525081019061301b9190615122565b6001600160a01b0316336001600160a01b03161461304b5760405162461bcd60e51b8152600401610791906159ed565b6122b7614f20565b6001600160a01b038381166000908152606560205260409020546060911633146130b75760405162461bcd60e51b81526020600482015260156024820152741111531151d0551157d393d517d054141493d59151605a1b6044820152606401610791565b606680546001600160a01b0319166001600160a01b038616179055604051600090819030906130e9908790879061588b565b600060405180830381855af49150503d8060008114613124576040519150601f19603f3d011682016040523d82523d6000602084013e613129565b606091505b5091509150816131755760448151101561314257600080fd5b6004810190508080602001905181019061315c919061534d565b60405162461bcd60e51b815260040161079191906158f2565b606680546001600160a01b031916905595945050505050565b606760009054906101000a90046001600160a01b03166001600160a01b03166312d43a516040518163ffffffff1660e01b815260040160206040518083038186803b1580156131dc57600080fd5b505afa1580156131f0573d6000803e3d6000fd5b505050506040513d601f19601f820116820180604052508101906132149190615122565b6001600160a01b0316336001600160a01b0316146132445760405162461bcd60e51b8152600401610791906159ed565b6001600160a01b0381166132895760405162461bcd60e51b815260206004820152600c60248201526b5a45524f5f4144445245535360a01b6044820152606401610791565b606a80546001600160a01b0319166001600160a01b0392909216919091179055565b6132b361445f565b6067546000906001600160a01b031663b8878a2c6132cf6142e3565b85856040518463ffffffff1660e01b81526004016132ef9392919061589b565b6101806040518083038186803b15801561330857600080fd5b505afa15801561331c573d6000803e3d6000fd5b505050506040513d601f19601f8201168201806040525081019061334091906153fa565b9050606954816101400151436133569190615dbe565b10156133745760405162461bcd60e51b815260040161079190615953565b6067546001600160a01b0316638b83351a8161338e6142e3565b84610160015185606001516133a39190615d65565b6040516001600160e01b031960e086901b1681526001600160a01b0393841660048201529290911660248301526044820152606401600060405180830381600087803b1580156133f257600080fd5b505af1158015613406573d6000803e3d6000fd5b50506067546001600160a01b0316915063b4b0f56790506134256142e3565b85856040518463ffffffff1660e01b81526004016134459392919061589b565b600060405180830381600087803b15801561345f57600080fd5b505af1158015613473573d6000803e3d6000fd5b5050505061347f6142e3565b6001600160a01b03167f99b2cab0fe1db813d380331f51c117d5622d07c79686cc4ecd043e8d56ace09484844285606001516040516134d7949392919093845260208401929092526040830152606082015260800190565b60405180910390a2505050565b336000908152606b602052604090205460ff166135135760405162461bcd60e51b81526004016107919061597b565b60005b8381101561363157606760009054906101000a90046001600160a01b03166001600160a01b0316633078fff56040518163ffffffff1660e01b815260040160206040518083038186803b15801561356c57600080fd5b505afa158015613580573d6000803e3d6000fd5b505050506040513d601f19601f820116820180604052508101906135a49190615122565b6001600160a01b031663dd2f3c05348787858181106135c5576135c5615e4c565b9050602002013586866040518563ffffffff1660e01b81526004016135ec93929190615b42565b6000604051808303818588803b15801561360557600080fd5b505af1158015613619573d6000803e3d6000fd5b5050505050808061362990615e05565b915050613516565b5050505050565b336000908152606b602052604090205460ff166136675760405162461bcd60e51b81526004016107919061597b565b606754604051630d32c90760e01b8152600481018390526001600160a01b0390911690630d32c90790602401600060405180830381600087803b1580156136ad57600080fd5b505af1158015613631573d6000803e3d6000fd5b6136c961445f565b6067546000906001600160a01b031663b8878a2c6136e56142e3565b89896040518463ffffffff1660e01b81526004016137059392919061589b565b6101806040518083038186803b15801561371e57600080fd5b505afa158015613732573d6000803e3d6000fd5b505050506040513d601f19601f8201168201806040525081019061375691906153fa565b90506069548161014001514361376c9190615dbe565b101561378a5760405162461bcd60e51b815260040161079190615953565b8215806137a7575080608001516137a3578285116137a7565b8285105b6137de5760405162461bcd60e51b8152602060048201526008602482015267057524f4e475f54560c41b6044820152606401610791565b8115806137fb575080608001516137f7578185106137fb565b8185115b6138325760405162461bcd60e51b815260206004820152600860248201526715d493d391d7d4d360c21b6044820152606401610791565b64ba43b7400084106138795760405162461bcd60e51b815260206004820152601060248201526f494e56414c49445f534c49505041474560801b6044820152606401610791565b6101008101859052610120810184905260c0810183905260e0810182905260675460405163574564a760e11b81526001600160a01b039091169063ae8ac94e906138c7908490600401615a0f565b600060405180830381600087803b1580156138e157600080fd5b505af11580156138f5573d6000803e3d6000fd5b505050506139016142e3565b604080518981526020810189905290810187905260608101859052608081018490524260a08201526001600160a01b0391909116907f710a8db87f04e82a9de40076812593a965f4aa48693196d2144c07ff9710e8909060c00160405180910390a250505050505050565b600061397661445f565b60675460408051633078fff560e01b815290516000926001600160a01b031691633078fff5916004808301926020929190829003018186803b1580156139bb57600080fd5b505afa1580156139cf573d6000803e3d6000fd5b505050506040513d601f19601f820116820180604052508101906139f39190615122565b6067549091506000906001600160a01b031663a3a80ffe613a126142e3565b8b8b6040518463ffffffff1660e01b8152600401613a329392919061589b565b6101606040518083038186803b158015613a4b57600080fd5b505afa158015613a5f573d6000803e3d6000fd5b505050506040513d601f19601f82011682018060405250810190613a839190615564565b6067549091506000906001600160a01b0316638c8ff1d5613aa26142e3565b8c8c6040518463ffffffff1660e01b8152600401613ac29392919061589b565b60a06040518083038186803b158015613ada57600080fd5b505afa158015613aee573d6000803e3d6000fd5b505050506040513d601f19601f82011682018060405250810190613b1291906154a2565b9050806060015115613b5d5760405162461bcd60e51b81526020600482015260146024820152731053149150511657d091525391d7d0d313d4d15160621b6044820152606401610791565b60008260e0015111613b815760405162461bcd60e51b815260040161079190615905565b6068548251602084015160408086015160c0870151606088015160e08901519351630284c13960e11b81526001600160a01b0396871660048201526024810195909552604485019290925215156064840152608483015260a4820152600092919091169063050982729060c40160206040518083038186803b158015613c0657600080fd5b505afa158015613c1a573d6000803e3d6000fd5b505050506040513d601f19601f82011682018060405250810190613c3e919061561a565b60405163302809fd60e21b81529091506001600160a01b0385169063c0a027f490613c6f908e906004908101615be9565b602060405180830381600087803b158015613c8957600080fd5b505af1158015613c9d573d6000803e3d6000fd5b505050506040513d601f19601f82011682018060405250810190613cc1919061561a565b9450836001600160a01b031663cbe91bd986604051806101000160405280613ce76142e3565b6001600160a01b031681526020018f81526020018e81526020018d6001811115613d1357613d13615e36565b81526020018c8152602001866080015181526020018581526020018760e001518152506040518363ffffffff1660e01b8152600401613d53929190615c0d565b600060405180830381600087803b158015613d6d57600080fd5b505af1158015613d81573d6000803e3d6000fd5b50505050613d9a826000015184606001518b8b85614f5d565b606085015260e084015260675460408051633078fff560e01b815290516000926001600160a01b031691633078fff5916004808301926020929190829003018186803b158015613de957600080fd5b505afa158015613dfd573d6000803e3d6000fd5b505050506040513d601f19601f82011682018060405250810190613e219190615122565b6001600160a01b03166335b03c176040518163ffffffff1660e01b815260040160206040518083038186803b158015613e5957600080fd5b505afa158015613e6d573d6000803e3d6000fd5b505050506040513d601f19601f82011682018060405250810190613e919190615122565b6001600160a01b031663c5f5951a613ea76142e3565b8e8e6040518463ffffffff1660e01b8152600401613ec79392919061589b565b60206040518083038186803b158015613edf57600080fd5b505afa158015613ef3573d6000803e3d6000fd5b505050506040513d601f19601f82011682018060405250810190613f1791906152b4565b9050808015613f37575060018a6001811115613f3557613f35615e36565b145b15613f725760405162461bcd60e51b815260206004820152600b60248201526a1393d517d0531313d5d15160aa1b6044820152606401610791565b60008460e001511180156140825750846001600160a01b03166335b03c176040518163ffffffff1660e01b815260040160206040518083038186803b158015613fba57600080fd5b505afa158015613fce573d6000803e3d6000fd5b505050506040513d601f19601f82011682018060405250810190613ff29190615122565b6020850151604051634cadbb2b60e11b8152600481019190915282151560248201526001600160a01b03919091169063995b76569060440160206040518083038186803b15801561404257600080fd5b505afa158015614056573d6000803e3d6000fd5b505050506040513d601f19601f8201168201806040525081019061407a919061561a565b8460e0015110155b801561418a5750846001600160a01b03166335b03c176040518163ffffffff1660e01b815260040160206040518083038186803b1580156140c257600080fd5b505afa1580156140d6573d6000803e3d6000fd5b505050506040513d601f19601f820116820180604052508101906140fa9190615122565b6020850151604051639b2f6cab60e01b8152600481019190915282151560248201526001600160a01b039190911690639b2f6cab9060440160206040518083038186803b15801561414a57600080fd5b505afa15801561415e573d6000803e3d6000fd5b505050506040513d601f19601f82011682018060405250810190614182919061561a565b8460e0015111155b6141a65760405162461bcd60e51b815260040161079190615927565b6141ae6142e3565b6001600160a01b03167f48452067591e9581b9c1f3135e16ae22829a7c8afc6b3d6a1afa2cd295cc11338d8d8d88878960800151426040516141f69796959493929190615ccd565b60405180910390a260675460405163f0cb9b1160e01b81526001600160a01b039091169063f0cb9b119061422e908790600401615b0d565b600060405180830381600087803b15801561424857600080fd5b505af115801561425c573d6000803e3d6000fd5b505060405163dd2f3c0560e01b81526001600160a01b038816925063dd2f3c0591503490614292908a908d908d90600401615b42565b6000604051808303818588803b1580156142ab57600080fd5b505af11580156142bf573d6000803e3d6000fd5b50505050506142d48c8c8661010001516144a5565b50505050509695505050505050565b6066546000906001600160a01b03166142fb57503390565b506066546001600160a01b031690565b606760009054906101000a90046001600160a01b03166001600160a01b03166312d43a516040518163ffffffff1660e01b815260040160206040518083038186803b15801561435957600080fd5b505afa15801561436d573d6000803e3d6000fd5b505050506040513d601f19601f820116820180604052508101906143919190615122565b6001600160a01b0316336001600160a01b0316146143c15760405162461bcd60e51b8152600401610791906159ed565b600081116143fb5760405162461bcd60e51b8152602060048201526007602482015266056414c55455f360cc1b6044820152606401610791565b606981905560408051818152601381830152726c696d69744f726465727354696d656c6f636b60681b60608201526020810183905290517f8cf3e35f6221b16e1670a3413180c9484bf5aa71787905909fa82a6a2662e9ab9181900360800190a150565b60335460ff16156122b75760405162461bcd60e51b815260206004820152601060248201526f14185d5cd8589b194e881c185d5cd95960821b6044820152606401610791565b6067546000906001600160a01b031663a3a80ffe6144c16142e3565b86866040518463ffffffff1660e01b81526004016144e19392919061589b565b6101606040518083038186803b1580156144fa57600080fd5b505afa15801561450e573d6000803e3d6000fd5b505050506040513d601f19601f820116820180604052508101906145329190615564565b60e001516067549091506000906001600160a01b0316638c8ff1d56145556142e3565b87876040518463ffffffff1660e01b81526004016145759392919061589b565b60a06040518083038186803b15801561458d57600080fd5b505afa1580156145a1573d6000803e3d6000fd5b505050506040513d601f19601f820116820180604052508101906145c591906154a2565b602001519050600082116145eb5760405162461bcd60e51b815260040161079190615905565b6069546145f88243615dbe565b10156146165760405162461bcd60e51b815260040161079190615953565b6001600160ff1b03831061465b5760405162461bcd60e51b815260206004820152600c60248201526b0494e434f52524543545f54560a41b6044820152606401610791565b6067546000906001600160a01b0316637fdb96f36146776142e3565b6040516001600160e01b031960e084901b1681526001600160a01b039091166004820152602481018990526044810188905260648101879052608401602060405180830381600087803b1580156146cd57600080fd5b505af11580156146e1573d6000803e3d6000fd5b505050506040513d601f19601f82011682018060405250810190614705919061561a565b905061470f6142e3565b60408051888152602081018890529081018390524260608201526001600160a01b0391909116907f01c13b316ce9327f58f220b36e368c197eda79df0102d7f4363f1e7fe29323e89060800160405180910390a2505050505050565b6067546000906001600160a01b031663a3a80ffe6147876142e3565b88886040518463ffffffff1660e01b81526004016147a79392919061589b565b6101606040518083038186803b1580156147c057600080fd5b505afa1580156147d4573d6000803e3d6000fd5b505050506040513d601f19601f820116820180604052508101906147f89190615564565b6067549091506000906001600160a01b0316638c8ff1d56148176142e3565b89896040518463ffffffff1660e01b81526004016148379392919061589b565b60a06040518083038186803b15801561484f57600080fd5b505afa158015614863573d6000803e3d6000fd5b505050506040513d601f19601f8201168201806040525081019061488791906154a2565b60400151905060008260e00151116148b15760405162461bcd60e51b815260040161079190615905565b6001600160ff1b0385106148f65760405162461bcd60e51b815260206004820152600c60248201526b125390d3d4949150d517d4d360a21b6044820152606401610791565b60006149238360e00151606460508660a001516149139190615d9f565b61491d9190615d7d565b90615009565b905085158061496257508260c0015161494e57808360a001516149469190615d65565b861115614962565b808360a0015161495e9190615dbe565b8610155b61499b5760405162461bcd60e51b815260206004820152600a602482015269534c5f544f4f5f42494760b01b6044820152606401610791565b6069546149a88343615dbe565b10156149c65760405162461bcd60e51b815260040161079190615953565b60675460408051633078fff560e01b815290516000926001600160a01b031691633078fff5916004808301926020929190829003018186803b158015614a0b57600080fd5b505afa158015614a1f573d6000803e3d6000fd5b505050506040513d601f19601f82011682018060405250810190614a439190615122565b9050861580614b3d5750806001600160a01b03166335b03c176040518163ffffffff1660e01b815260040160206040518083038186803b158015614a8657600080fd5b505afa158015614a9a573d6000803e3d6000fd5b505050506040513d601f19601f82011682018060405250810190614abe9190615122565b6001600160a01b03166324abd3fb8a6040518263ffffffff1660e01b8152600401614aeb91815260200190565b60206040518083038186803b158015614b0357600080fd5b505afa158015614b17573d6000803e3d6000fd5b505050506040513d601f19601f82011682018060405250810190614b3b91906152b4565b155b15614c2a576067546001600160a01b031663a3544181614b5b6142e3565b6040516001600160e01b031960e084901b1681526001600160a01b039091166004820152602481018c9052604481018b9052606481018a9052608401600060405180830381600087803b158015614bb157600080fd5b505af1158015614bc5573d6000803e3d6000fd5b50505050614bd16142e3565b604080518b8152602081018b90529081018990524260608201526001600160a01b0391909116907f6a750d0aaea2df37b3b72b79412df54b9e55109ccfaedf5dcecc2af9993a61de9060800160405180910390a2614e6f565b60405163302809fd60e21b81526000906001600160a01b0383169063c0a027f490614c5c908d90600590600401615be9565b602060405180830381600087803b158015614c7657600080fd5b505af1158015614c8a573d6000803e3d6000fd5b505050506040513d601f19601f82011682018060405250810190614cae919061561a565b9050816001600160a01b031663b8213bfa826040518060c00160405280614cd36142e3565b6001600160a01b031681526020018e81526020018d81526020018960a0015181526020018960c00151151581526020018c8152506040518363ffffffff1660e01b8152600401614d74929190600060e08201905083825260018060a01b0383511660208301526020830151604083015260408301516060830152606083015160808301526080830151151560a083015260a083015160c08301529392505050565b600060405180830381600087803b158015614d8e57600080fd5b505af1158015614da2573d6000803e3d6000fd5b50505050614dae6142e3565b604080518c8152602081018c90529081018a9052606081018390524260808201526001600160a01b0391909116907fb24bbc82fd04bd3dab7c96c1cabc7a0f7a1a87dfa2b47239926fbde0a0bfa8be9060a00160405180910390a260405163dd2f3c0560e01b81526001600160a01b0383169063dd2f3c05903490614e3b9085908c908c90600401615b42565b6000604051808303818588803b158015614e5457600080fd5b505af1158015614e68573d6000803e3d6000fd5b5050505050505b505050505050505050565b60006402540be400614e8c8385615d9f565b614e969190615d7d565b90505b92915050565b614ea761501b565b6033805460ff191690557f5db9ee0a495bf2e6ff9c91a7834c1ba4fdd244a5e8aa4e537bd38aeae4b073aa335b6040516001600160a01b03909116815260200160405180910390a1565b600054610100900460ff16614f185760405162461bcd60e51b8152600401610791906159a2565b6122b7615064565b614f2861445f565b6033805460ff191660011790557f62e78cea01bee320cd4e420270b5ea74000d11b0c9f74754ebdbfc544b05a258614ed43390565b60008080856001811115614f7357614f73615e36565b1415614fb15782614f848588615d65565b614f8e9190615dbe565b905080614fa06402540be40089615d9f565b614faa9190615d7d565b9150614fff565b6001856001811115614fc557614fc5615e36565b1415614fff5782614fd68588615dbe565b614fe09190615dbe565b905080614ff26402540be40089615d9f565b614ffc9190615d7d565b91505b9550959350505050565b600081614e8c6402540be40085615d9f565b60335460ff166122b75760405162461bcd60e51b815260206004820152601460248201527314185d5cd8589b194e881b9bdd081c185d5cd95960621b6044820152606401610791565b600054610100900460ff1661508b5760405162461bcd60e51b8152600401610791906159a2565b6033805460ff19169055565b80516150a281615e8b565b919050565b60008083601f8401126150b957600080fd5b50813567ffffffffffffffff8111156150d157600080fd5b6020830191508360208260051b85010111156150ec57600080fd5b9250929050565b80516150a281615ea0565b60006020828403121561511057600080fd5b813561511b81615e8b565b9392505050565b60006020828403121561513457600080fd5b815161511b81615e8b565b6000806040838503121561515257600080fd5b823561515d81615e8b565b9150602083013561516d81615e8b565b809150509250929050565b6000806040838503121561518b57600080fd5b823561519681615e8b565b9150602083013561516d81615ea0565b6000806000604084860312156151bb57600080fd5b83356151c681615e8b565b9250602084013567ffffffffffffffff808211156151e357600080fd5b818601915086601f8301126151f757600080fd5b81358181111561520657600080fd5b87602082850101111561521857600080fd5b6020830194508093505050509250925092565b6000806000806040858703121561524157600080fd5b843567ffffffffffffffff8082111561525957600080fd5b615265888389016150a7565b9096509450602087013591508082111561527e57600080fd5b5061528b878288016150a7565b95989497509550505050565b6000602082840312156152a957600080fd5b813561511b81615ea0565b6000602082840312156152c657600080fd5b815161511b81615ea0565b60008060008060008060a087890312156152ea57600080fd5b86356152f581615eae565b9550602087013561530581615e8b565b94506040870135935060608701359250608087013567ffffffffffffffff81111561532f57600080fd5b61533b89828a016150a7565b979a9699509497509295939492505050565b60006020828403121561535f57600080fd5b815167ffffffffffffffff8082111561537757600080fd5b818401915084601f83011261538b57600080fd5b81518181111561539d5761539d615e62565b604051601f8201601f19908116603f011681019083821181831017156153c5576153c5615e62565b816040528281528760208487010111156153de57600080fd5b6153ef836020830160208801615dd5565b979650505050505050565b6000610180828403121561540d57600080fd5b615415615d17565b61541e83615097565b815260208301516020820152604083015160408201526060830151606082015261544a608084016150f3565b608082015260a0838101519082015260c0808401519082015260e08084015190820152610100808401519082015261012080840151908201526101408084015190820152610160928301519281019290925250919050565b600060a082840312156154b457600080fd5b60405160a0810181811067ffffffffffffffff821117156154d7576154d7615e62565b8060405250825181526020830151602082015260408301516040820152606083015161550281615ea0565b60608201526080928301519281019290925250919050565b60008060008385036101a081121561553157600080fd5b6101608082121561554157600080fd5b859450840135905061555281615eae565b92959294505050610180919091013590565b6000610160828403121561557757600080fd5b61557f615d41565b61558883615097565b81526020830151602082015260408301516040820152606083015160608201526080830151608082015260a083015160a08201526155c860c084016150f3565b60c082015260e0838101519082015261010080840151908201526101208084015190820152610140928301519281019290925250919050565b60006020828403121561561357600080fd5b5035919050565b60006020828403121561562c57600080fd5b5051919050565b6000806040838503121561564657600080fd5b50508035926020909101359150565b60008060008060008060a0878903121561566e57600080fd5b863595506020870135945060408701356002811061568b57600080fd5b935060608701359250608087013567ffffffffffffffff81111561532f57600080fd5b6000806000606084860312156156c357600080fd5b505081359360208301359350604090920135919050565b60008060008060008060a087890312156156f357600080fd5b86359550602087013594506040870135935060608701359250608087013567ffffffffffffffff81111561532f57600080fd5b60008060008060008060c0878903121561573f57600080fd5b505084359660208601359650604086013595606081013595506080810135945060a0013592509050565b81835281816020850137506000828201602090810191909152601f909101601f19169091010190565b600081518084526157aa816020860160208601615dd5565b601f01601f19169290920160200192915050565b600281106157ce576157ce615e36565b9052565b80516001600160a01b031682526020808201519083015260408082015190830152606081015161580181615e78565b806060840152505050565b80516001600160a01b031682526020810151602083015260408101516040830152606081015160608301526080810151608083015260a081015160a083015260c081015161585e60c084018215159052565b5060e081810151908301526101008082015190830152610120808201519083015261014090810151910152565b8183823760009101908152919050565b6001600160a01b039390931683526020830191909152604082015260600190565b6001600160a01b03851681526020810184905260408101839052608081016158e383615e78565b82606083015295945050505050565b602081526000614e966020830184615792565b6020808252600890820152674e4f5f545241444560c01b604082015260600190565b60208082526012908201527113115591549051d157d25390d3d4949150d560721b604082015260600190565b6020808252600e908201526d4c494d49545f54494d454c4f434b60901b604082015260600190565b6020808252600d908201526c27a7262cafa7a822a920aa27a960991b604082015260600190565b6020808252602b908201527f496e697469616c697a61626c653a20636f6e7472616374206973206e6f74206960408201526a6e697469616c697a696e6760a81b606082015260800190565b602080825260089082015267474f565f4f4e4c5960c01b604082015260600190565b81516001600160a01b0316815261018081016020830151602083015260408301516040830152606083015160608301526080830151615a52608084018215159052565b5060a083015160a083015260c083015160c083015260e083015160e083015261010080840151818401525061012080840151818401525061014080840151818401525061016080840151818401525092915050565b60a08101615ab582856157d2565b8260808301529392505050565b600061020082019050615ad682865161580c565b602085015161016083015260408501516101808301526060909401516101a08201526101c081019290925215156101e09091015290565b6101608101614e99828461580c565b60a08101615b2a82856157d2565b6001600160a01b039290921660809190910152919050565b60006040820185835260206040818501528185835260608501905060608660051b86010192508660005b87811015615bdb57868503605f190183528135368a9003601e19018112615b9257600080fd5b8901803567ffffffffffffffff811115615bab57600080fd5b8036038b1315615bba57600080fd5b615bc78782888501615769565b965050509183019190830190600101615b6c565b509298975050505050505050565b8281526040810160098310615c0057615c00615e36565b8260208301529392505050565b60006101208201905083825260018060a01b03835116602083015260208301516040830152604083015160608301526060830151615c4e60808401826157be565b50608083015160a083015260a083015160c083015260c083015160e083015260e08301516101008301529392505050565b6000610100820190508982528860208301528715156040830152866060830152856080830152615cae85615e78565b8460a08301528360c08301528260e08301529998505050505050505050565b878152602081018790526102208101615ce960408301886157be565b615cf6606083018761580c565b846101c0830152836101e08301528261020083015298975050505050505050565b604051610180810167ffffffffffffffff81118282101715615d3b57615d3b615e62565b60405290565b604051610160810167ffffffffffffffff81118282101715615d3b57615d3b615e62565b60008219821115615d7857615d78615e20565b500190565b600082615d9a57634e487b7160e01b600052601260045260246000fd5b500490565b6000816000190483118215151615615db957615db9615e20565b500290565b600082821015615dd057615dd0615e20565b500390565b60005b83811015615df0578181015183820152602001615dd8565b83811115615dff576000848401525b50505050565b6000600019821415615e1957615e19615e20565b5060010190565b634e487b7160e01b600052601160045260246000fd5b634e487b7160e01b600052602160045260246000fd5b634e487b7160e01b600052603260045260246000fd5b634e487b7160e01b600052604160045260246000fd5b60048110615e8857615e88615e36565b50565b6001600160a01b0381168114615e8857600080fd5b8015158114615e8857600080fd5b60048110615e8857600080fdfea2646970667358221220d6a87a5581708c02ee570024d3069ebe48e5f1e856800b39a156db0836401a9464736f6c63430008070033","linkReferences":{}},"methodIdentifiers":{"_MAX_SLIPPAGE()":"c48a02a2","__msgSender()":"d1a91ff2","cancelOpenLimitOrder(uint256,uint256)":"b9b6573a","cancelPendingMarketOrder(uint256)":"c5ed6a08","closeTradeMarket(uint256,uint256,uint256)":"2c3cbce4","delegatedAction(address,bytes)":"9a10cc32","delegations(address)":"bffe3486","executeLimitOrder(uint8,address,uint256,uint256,bytes[])":"46f6c8f5","executeMarketOrders(uint256[],bytes[])":"c0b4d24d","initialize(address,address)":"485cc955","isOperator(address)":"6d70f7ae","limitOrdersTimelock()":"0890d22a","openTrade((address,uint256,uint256,uint256,uint256,uint256,bool,uint256,uint256,uint256,uint256),uint8,uint256)":"19cde9a1","operator()":"570ca735","pairInfos()":"1346b0ff","pause()":"8456cb59","paused()":"5c975abb","removeDelegate()":"36fb8b15","setDelegate(address)":"ca5eb5e1","setLimitOrdersTimelock(uint256)":"d4a1caa7","setMarketExecFeeReciever(address)":"9e2033f5","storageT()":"16fff074","unpause()":"3f4ba83a","updateMargin(uint256,uint256,uint8,uint256,bytes[])":"cd90b8a4","updateOpenLimitOrder(uint256,uint256,uint256,uint256,uint256,uint256)":"c641558e","updateOperator(address,bool)":"6d44a3b2","updateTpAndSl(uint256,uint256,uint256,uint256,bytes[])":"15b760b1"},"id":73}