{"abi":[{"type":"constructor","inputs":[],"stateMutability":"nonpayable"},{"type":"function","name":"addTradingContract","inputs":[{"name":"__trading","type":"address","internalType":"address"}],"outputs":[],"stateMutability":"nonpayable"},{"type":"function","name":"applyReferralAndPnlFee","inputs":[{"name":"_trader","type":"address","internalType":"address"},{"name":"_fees","type":"uint256","internalType":"uint256"},{"name":"_leveragedPosition","type":"uint256","internalType":"uint256"},{"name":"_isPnl","type":"bool","internalType":"bool"},{"name":"_pairIndex","type":"uint256","internalType":"uint256"},{"name":"_percentProfit","type":"int256","internalType":"int256"},{"name":"_collateral","type":"uint256","internalType":"uint256"}],"outputs":[{"name":"","type":"uint256","internalType":"uint256"},{"name":"","type":"uint256","internalType":"uint256"}],"stateMutability":"nonpayable"},{"type":"function","name":"blockOI","inputs":[{"name":"","type":"uint256","internalType":"uint256"},{"name":"","type":"uint256","internalType":"uint256"}],"outputs":[{"name":"","type":"uint256","internalType":"uint256"}],"stateMutability":"view"},{"type":"function","name":"callbacks","inputs":[],"outputs":[{"name":"","type":"address","internalType":"address"}],"stateMutability":"view"},{"type":"function","name":"claimFees","inputs":[],"outputs":[],"stateMutability":"nonpayable"},{"type":"function","name":"claimRebate","inputs":[],"outputs":[],"stateMutability":"nonpayable"},{"type":"function","name":"dev","inputs":[],"outputs":[{"name":"","type":"address","internalType":"address"}],"stateMutability":"view"},{"type":"function","name":"devFeesUSDC","inputs":[],"outputs":[{"name":"","type":"uint256","internalType":"uint256"}],"stateMutability":"view"},{"type":"function","name":"firstEmptyOpenLimitIndex","inputs":[{"name":"trader","type":"address","internalType":"address"},{"name":"pairIndex","type":"uint256","internalType":"uint256"}],"outputs":[{"name":"index","type":"uint256","internalType":"uint256"}],"stateMutability":"view"},{"type":"function","name":"firstEmptyTradeIndex","inputs":[{"name":"trader","type":"address","internalType":"address"},{"name":"pairIndex","type":"uint256","internalType":"uint256"}],"outputs":[{"name":"index","type":"uint256","internalType":"uint256"}],"stateMutability":"view"},{"type":"function","name":"forceUnregisterPendingMarketOrder","inputs":[{"name":"_id","type":"uint256","internalType":"uint256"}],"outputs":[],"stateMutability":"nonpayable"},{"type":"function","name":"getOpenLimitOrder","inputs":[{"name":"_trader","type":"address","internalType":"address"},{"name":"_pairIndex","type":"uint256","internalType":"uint256"},{"name":"_index","type":"uint256","internalType":"uint256"}],"outputs":[{"name":"","type":"tuple","internalType":"struct ITradingStorage.OpenLimitOrder","components":[{"name":"trader","type":"address","internalType":"address"},{"name":"pairIndex","type":"uint256","internalType":"uint256"},{"name":"index","type":"uint256","internalType":"uint256"},{"name":"positionSize","type":"uint256","internalType":"uint256"},{"name":"buy","type":"bool","internalType":"bool"},{"name":"leverage","type":"uint256","internalType":"uint256"},{"name":"tp","type":"uint256","internalType":"uint256"},{"name":"sl","type":"uint256","internalType":"uint256"},{"name":"price","type":"uint256","internalType":"uint256"},{"name":"slippageP","type":"uint256","internalType":"uint256"},{"name":"block","type":"uint256","internalType":"uint256"},{"name":"executionFee","type":"uint256","internalType":"uint256"}]}],"stateMutability":"view"},{"type":"function","name":"getOpenLimitOrders","inputs":[],"outputs":[{"name":"","type":"tuple[]","internalType":"struct ITradingStorage.OpenLimitOrder[]","components":[{"name":"trader","type":"address","internalType":"address"},{"name":"pairIndex","type":"uint256","internalType":"uint256"},{"name":"index","type":"uint256","internalType":"uint256"},{"name":"positionSize","type":"uint256","internalType":"uint256"},{"name":"buy","type":"bool","internalType":"bool"},{"name":"leverage","type":"uint256","internalType":"uint256"},{"name":"tp","type":"uint256","internalType":"uint256"},{"name":"sl","type":"uint256","internalType":"uint256"},{"name":"price","type":"uint256","internalType":"uint256"},{"name":"slippageP","type":"uint256","internalType":"uint256"},{"name":"block","type":"uint256","internalType":"uint256"},{"name":"executionFee","type":"uint256","internalType":"uint256"}]}],"stateMutability":"view"},{"type":"function","name":"getPendingOrderIds","inputs":[{"name":"_trader","type":"address","internalType":"address"}],"outputs":[{"name":"","type":"uint256[]","internalType":"uint256[]"}],"stateMutability":"view"},{"type":"function","name":"getUsdOI","inputs":[],"outputs":[{"name":"","type":"uint256[2]","internalType":"uint256[2]"}],"stateMutability":"view"},{"type":"function","name":"gov","inputs":[],"outputs":[{"name":"","type":"address","internalType":"address"}],"stateMutability":"view"},{"type":"function","name":"govFeesUSDC","inputs":[],"outputs":[{"name":"","type":"uint256","internalType":"uint256"}],"stateMutability":"view"},{"type":"function","name":"govTreasury","inputs":[],"outputs":[{"name":"","type":"address","internalType":"address"}],"stateMutability":"view"},{"type":"function","name":"handleDevGovFees","inputs":[{"name":"_trader","type":"address","internalType":"address"},{"name":"_pairIndex","type":"uint256","internalType":"uint256"},{"name":"_leveragedPositionSize","type":"uint256","internalType":"uint256"},{"name":"_usdc","type":"bool","internalType":"bool"},{"name":"_fullFee","type":"bool","internalType":"bool"},{"name":"_buy","type":"bool","internalType":"bool"}],"outputs":[{"name":"feeAfterRebate","type":"uint256","internalType":"uint256"}],"stateMutability":"nonpayable"},{"type":"function","name":"hasOpenLimitOrder","inputs":[{"name":"trader","type":"address","internalType":"address"},{"name":"pairIndex","type":"uint256","internalType":"uint256"},{"name":"index","type":"uint256","internalType":"uint256"}],"outputs":[{"name":"","type":"bool","internalType":"bool"}],"stateMutability":"view"},{"type":"function","name":"incrementClosingFees","inputs":[{"name":"devFees","type":"uint256","internalType":"uint256"},{"name":"govFees","type":"uint256","internalType":"uint256"}],"outputs":[],"stateMutability":"nonpayable"},{"type":"function","name":"initialize","inputs":[],"outputs":[],"stateMutability":"nonpayable"},{"type":"function","name":"isTradingContract","inputs":[{"name":"","type":"address","internalType":"address"}],"outputs":[{"name":"","type":"bool","internalType":"bool"}],"stateMutability":"view"},{"type":"function","name":"isValidOI","inputs":[{"name":"_pairIndex","type":"uint256","internalType":"uint256"},{"name":"buy","type":"bool","internalType":"bool"},{"name":"leveragedPos","type":"uint256","internalType":"uint256"}],"outputs":[{"name":"","type":"bool","internalType":"bool"}],"stateMutability":"view"},{"type":"function","name":"maxOpenInterest","inputs":[],"outputs":[{"name":"","type":"uint256","internalType":"uint256"}],"stateMutability":"view"},{"type":"function","name":"maxPendingMarketOrders","inputs":[],"outputs":[{"name":"","type":"uint256","internalType":"uint256"}],"stateMutability":"view"},{"type":"function","name":"maxTradesPerPair","inputs":[],"outputs":[{"name":"","type":"uint256","internalType":"uint256"}],"stateMutability":"view"},{"type":"function","name":"openInterestUSDC","inputs":[{"name":"","type":"uint256","internalType":"uint256"},{"name":"","type":"uint256","internalType":"uint256"}],"outputs":[{"name":"","type":"uint256","internalType":"uint256"}],"stateMutability":"view"},{"type":"function","name":"openLimitOrderIds","inputs":[{"name":"","type":"address","internalType":"address"},{"name":"","type":"uint256","internalType":"uint256"},{"name":"","type":"uint256","internalType":"uint256"}],"outputs":[{"name":"","type":"uint256","internalType":"uint256"}],"stateMutability":"view"},{"type":"function","name":"openLimitOrders","inputs":[{"name":"","type":"uint256","internalType":"uint256"}],"outputs":[{"name":"trader","type":"address","internalType":"address"},{"name":"pairIndex","type":"uint256","internalType":"uint256"},{"name":"index","type":"uint256","internalType":"uint256"},{"name":"positionSize","type":"uint256","internalType":"uint256"},{"name":"buy","type":"bool","internalType":"bool"},{"name":"leverage","type":"uint256","internalType":"uint256"},{"name":"tp","type":"uint256","internalType":"uint256"},{"name":"sl","type":"uint256","internalType":"uint256"},{"name":"price","type":"uint256","internalType":"uint256"},{"name":"slippageP","type":"uint256","internalType":"uint256"},{"name":"block","type":"uint256","internalType":"uint256"},{"name":"executionFee","type":"uint256","internalType":"uint256"}],"stateMutability":"view"},{"type":"function","name":"openLimitOrdersCount","inputs":[{"name":"","type":"address","internalType":"address"},{"name":"","type":"uint256","internalType":"uint256"}],"outputs":[{"name":"","type":"uint256","internalType":"uint256"}],"stateMutability":"view"},{"type":"function","name":"openTrades","inputs":[{"name":"_trader","type":"address","internalType":"address"},{"name":"_pairIndex","type":"uint256","internalType":"uint256"},{"name":"_index","type":"uint256","internalType":"uint256"}],"outputs":[{"name":"","type":"tuple","internalType":"struct ITradingStorage.Trade","components":[{"name":"trader","type":"address","internalType":"address"},{"name":"pairIndex","type":"uint256","internalType":"uint256"},{"name":"index","type":"uint256","internalType":"uint256"},{"name":"initialPosToken","type":"uint256","internalType":"uint256"},{"name":"positionSizeUSDC","type":"uint256","internalType":"uint256"},{"name":"openPrice","type":"uint256","internalType":"uint256"},{"name":"buy","type":"bool","internalType":"bool"},{"name":"leverage","type":"uint256","internalType":"uint256"},{"name":"tp","type":"uint256","internalType":"uint256"},{"name":"sl","type":"uint256","internalType":"uint256"},{"name":"timestamp","type":"uint256","internalType":"uint256"}]}],"stateMutability":"view"},{"type":"function","name":"openTradesCount","inputs":[{"name":"_trader","type":"address","internalType":"address"},{"name":"_pairIndex","type":"uint256","internalType":"uint256"}],"outputs":[{"name":"","type":"uint256","internalType":"uint256"}],"stateMutability":"view"},{"type":"function","name":"openTradesInfo","inputs":[{"name":"_trader","type":"address","internalType":"address"},{"name":"_pairIndex","type":"uint256","internalType":"uint256"},{"name":"_index","type":"uint256","internalType":"uint256"}],"outputs":[{"name":"","type":"tuple","internalType":"struct ITradingStorage.TradeInfo","components":[{"name":"openInterestUSDC","type":"uint256","internalType":"uint256"},{"name":"tpLastUpdated","type":"uint256","internalType":"uint256"},{"name":"slLastUpdated","type":"uint256","internalType":"uint256"},{"name":"beingMarketClosed","type":"bool","internalType":"bool"},{"name":"lossProtection","type":"uint256","internalType":"uint256"}]}],"stateMutability":"view"},{"type":"function","name":"pairLongOI","inputs":[{"name":"_pairIndex","type":"uint256","internalType":"uint256"}],"outputs":[{"name":"","type":"uint256","internalType":"uint256"}],"stateMutability":"view"},{"type":"function","name":"pairOI","inputs":[{"name":"_pairIndex","type":"uint256","internalType":"uint256"}],"outputs":[{"name":"","type":"uint256","internalType":"uint256"}],"stateMutability":"view"},{"type":"function","name":"pairShortOI","inputs":[{"name":"_pairIndex","type":"uint256","internalType":"uint256"}],"outputs":[{"name":"","type":"uint256","internalType":"uint256"}],"stateMutability":"view"},{"type":"function","name":"pairTraders","inputs":[{"name":"","type":"uint256","internalType":"uint256"},{"name":"","type":"uint256","internalType":"uint256"}],"outputs":[{"name":"","type":"address","internalType":"address"}],"stateMutability":"view"},{"type":"function","name":"pairTradersArray","inputs":[{"name":"_pairIndex","type":"uint256","internalType":"uint256"}],"outputs":[{"name":"","type":"address[]","internalType":"address[]"}],"stateMutability":"view"},{"type":"function","name":"pairTradersId","inputs":[{"name":"","type":"address","internalType":"address"},{"name":"","type":"uint256","internalType":"uint256"}],"outputs":[{"name":"","type":"uint256","internalType":"uint256"}],"stateMutability":"view"},{"type":"function","name":"pendingMarketCloseCount","inputs":[{"name":"","type":"address","internalType":"address"},{"name":"","type":"uint256","internalType":"uint256"}],"outputs":[{"name":"","type":"uint256","internalType":"uint256"}],"stateMutability":"view"},{"type":"function","name":"pendingMarketOpenCount","inputs":[{"name":"","type":"address","internalType":"address"},{"name":"","type":"uint256","internalType":"uint256"}],"outputs":[{"name":"","type":"uint256","internalType":"uint256"}],"stateMutability":"view"},{"type":"function","name":"pendingOrderIds","inputs":[{"name":"","type":"address","internalType":"address"},{"name":"","type":"uint256","internalType":"uint256"}],"outputs":[{"name":"","type":"uint256","internalType":"uint256"}],"stateMutability":"view"},{"type":"function","name":"pendingOrderIdsCount","inputs":[{"name":"_trader","type":"address","internalType":"address"}],"outputs":[{"name":"","type":"uint256","internalType":"uint256"}],"stateMutability":"view"},{"type":"function","name":"priceAggregator","inputs":[],"outputs":[{"name":"","type":"address","internalType":"contract IPriceAggregator"}],"stateMutability":"view"},{"type":"function","name":"rebates","inputs":[{"name":"","type":"address","internalType":"address"}],"outputs":[{"name":"","type":"uint256","internalType":"uint256"}],"stateMutability":"view"},{"type":"function","name":"referral","inputs":[],"outputs":[{"name":"","type":"address","internalType":"contract IReferral"}],"stateMutability":"view"},{"type":"function","name":"registerPartialTrade","inputs":[{"name":"trader","type":"address","internalType":"address"},{"name":"pairIndex","type":"uint256","internalType":"uint256"},{"name":"index","type":"uint256","internalType":"uint256"},{"name":"_amountReduced","type":"uint256","internalType":"uint256"}],"outputs":[],"stateMutability":"nonpayable"},{"type":"function","name":"removeTradingContract","inputs":[{"name":"__trading","type":"address","internalType":"address"}],"outputs":[],"stateMutability":"nonpayable"},{"type":"function","name":"reqIDpendingLimitOrder","inputs":[{"name":"orderId","type":"uint256","internalType":"uint256"}],"outputs":[{"name":"","type":"tuple","internalType":"struct ITradingStorage.PendingLimitOrder","components":[{"name":"trader","type":"address","internalType":"address"},{"name":"pairIndex","type":"uint256","internalType":"uint256"},{"name":"index","type":"uint256","internalType":"uint256"},{"name":"orderType","type":"uint8","internalType":"enum ITradingStorage.LimitOrder"}]}],"stateMutability":"view"},{"type":"function","name":"reqIDpendingMarketOrder","inputs":[{"name":"orderId","type":"uint256","internalType":"uint256"}],"outputs":[{"name":"","type":"tuple","internalType":"struct ITradingStorage.PendingMarketOrder","components":[{"name":"trade","type":"tuple","internalType":"struct ITradingStorage.Trade","components":[{"name":"trader","type":"address","internalType":"address"},{"name":"pairIndex","type":"uint256","internalType":"uint256"},{"name":"index","type":"uint256","internalType":"uint256"},{"name":"initialPosToken","type":"uint256","internalType":"uint256"},{"name":"positionSizeUSDC","type":"uint256","internalType":"uint256"},{"name":"openPrice","type":"uint256","internalType":"uint256"},{"name":"buy","type":"bool","internalType":"bool"},{"name":"leverage","type":"uint256","internalType":"uint256"},{"name":"tp","type":"uint256","internalType":"uint256"},{"name":"sl","type":"uint256","internalType":"uint256"},{"name":"timestamp","type":"uint256","internalType":"uint256"}]},{"name":"block","type":"uint256","internalType":"uint256"},{"name":"wantedPrice","type":"uint256","internalType":"uint256"},{"name":"slippageP","type":"uint256","internalType":"uint256"}]}],"stateMutability":"view"},{"type":"function","name":"requestGov","inputs":[{"name":"_gov","type":"address","internalType":"address"}],"outputs":[],"stateMutability":"nonpayable"},{"type":"function","name":"requestedGov","inputs":[],"outputs":[{"name":"","type":"address","internalType":"address"}],"stateMutability":"view"},{"type":"function","name":"setCallbacks","inputs":[{"name":"__callbacks","type":"address","internalType":"address"}],"outputs":[],"stateMutability":"nonpayable"},{"type":"function","name":"setDev","inputs":[{"name":"_dev","type":"address","internalType":"address"}],"outputs":[],"stateMutability":"nonpayable"},{"type":"function","name":"setGov","inputs":[{"name":"_newGov","type":"address","internalType":"address"}],"outputs":[],"stateMutability":"nonpayable"},{"type":"function","name":"setGovTreasury","inputs":[{"name":"_govTreasury","type":"address","internalType":"address"}],"outputs":[],"stateMutability":"nonpayable"},{"type":"function","name":"setMaxPendingMarketOrders","inputs":[{"name":"_maxPendingMarketOrders","type":"uint256","internalType":"uint256"}],"outputs":[],"stateMutability":"nonpayable"},{"type":"function","name":"setMaxTradesPerPair","inputs":[{"name":"_maxTradesPerPair","type":"uint256","internalType":"uint256"}],"outputs":[],"stateMutability":"nonpayable"},{"type":"function","name":"setPriceAggregator","inputs":[{"name":"_aggregator","type":"address","internalType":"address"}],"outputs":[],"stateMutability":"nonpayable"},{"type":"function","name":"setReferral","inputs":[{"name":"_refferal","type":"address","internalType":"address"}],"outputs":[],"stateMutability":"nonpayable"},{"type":"function","name":"setTrading","inputs":[{"name":"__trading","type":"address","internalType":"address"}],"outputs":[],"stateMutability":"nonpayable"},{"type":"function","name":"setTvlCap","inputs":[{"name":"_newCap","type":"uint256","internalType":"uint256"}],"outputs":[],"stateMutability":"nonpayable"},{"type":"function","name":"setUSDC","inputs":[{"name":"_token","type":"address","internalType":"address"}],"outputs":[],"stateMutability":"nonpayable"},{"type":"function","name":"setVaultManager","inputs":[{"name":"_vaultManager","type":"address","internalType":"address"}],"outputs":[],"stateMutability":"nonpayable"},{"type":"function","name":"storeOpenLimitOrder","inputs":[{"name":"o","type":"tuple","internalType":"struct ITradingStorage.OpenLimitOrder","components":[{"name":"trader","type":"address","internalType":"address"},{"name":"pairIndex","type":"uint256","internalType":"uint256"},{"name":"index","type":"uint256","internalType":"uint256"},{"name":"positionSize","type":"uint256","internalType":"uint256"},{"name":"buy","type":"bool","internalType":"bool"},{"name":"leverage","type":"uint256","internalType":"uint256"},{"name":"tp","type":"uint256","internalType":"uint256"},{"name":"sl","type":"uint256","internalType":"uint256"},{"name":"price","type":"uint256","internalType":"uint256"},{"name":"slippageP","type":"uint256","internalType":"uint256"},{"name":"block","type":"uint256","internalType":"uint256"},{"name":"executionFee","type":"uint256","internalType":"uint256"}]}],"outputs":[],"stateMutability":"nonpayable"},{"type":"function","name":"storePendingLimitOrder","inputs":[{"name":"_limitOrder","type":"tuple","internalType":"struct ITradingStorage.PendingLimitOrder","components":[{"name":"trader","type":"address","internalType":"address"},{"name":"pairIndex","type":"uint256","internalType":"uint256"},{"name":"index","type":"uint256","internalType":"uint256"},{"name":"orderType","type":"uint8","internalType":"enum ITradingStorage.LimitOrder"}]},{"name":"_orderId","type":"uint256","internalType":"uint256"}],"outputs":[],"stateMutability":"nonpayable"},{"type":"function","name":"storePendingMarketOrder","inputs":[{"name":"_order","type":"tuple","internalType":"struct ITradingStorage.PendingMarketOrder","components":[{"name":"trade","type":"tuple","internalType":"struct ITradingStorage.Trade","components":[{"name":"trader","type":"address","internalType":"address"},{"name":"pairIndex","type":"uint256","internalType":"uint256"},{"name":"index","type":"uint256","internalType":"uint256"},{"name":"initialPosToken","type":"uint256","internalType":"uint256"},{"name":"positionSizeUSDC","type":"uint256","internalType":"uint256"},{"name":"openPrice","type":"uint256","internalType":"uint256"},{"name":"buy","type":"bool","internalType":"bool"},{"name":"leverage","type":"uint256","internalType":"uint256"},{"name":"tp","type":"uint256","internalType":"uint256"},{"name":"sl","type":"uint256","internalType":"uint256"},{"name":"timestamp","type":"uint256","internalType":"uint256"}]},{"name":"block","type":"uint256","internalType":"uint256"},{"name":"wantedPrice","type":"uint256","internalType":"uint256"},{"name":"slippageP","type":"uint256","internalType":"uint256"}]},{"name":"_id","type":"uint256","internalType":"uint256"},{"name":"_open","type":"bool","internalType":"bool"}],"outputs":[],"stateMutability":"nonpayable"},{"type":"function","name":"storeTrade","inputs":[{"name":"_trade","type":"tuple","internalType":"struct ITradingStorage.Trade","components":[{"name":"trader","type":"address","internalType":"address"},{"name":"pairIndex","type":"uint256","internalType":"uint256"},{"name":"index","type":"uint256","internalType":"uint256"},{"name":"initialPosToken","type":"uint256","internalType":"uint256"},{"name":"positionSizeUSDC","type":"uint256","internalType":"uint256"},{"name":"openPrice","type":"uint256","internalType":"uint256"},{"name":"buy","type":"bool","internalType":"bool"},{"name":"leverage","type":"uint256","internalType":"uint256"},{"name":"tp","type":"uint256","internalType":"uint256"},{"name":"sl","type":"uint256","internalType":"uint256"},{"name":"timestamp","type":"uint256","internalType":"uint256"}]},{"name":"_tradeInfo","type":"tuple","internalType":"struct ITradingStorage.TradeInfo","components":[{"name":"openInterestUSDC","type":"uint256","internalType":"uint256"},{"name":"tpLastUpdated","type":"uint256","internalType":"uint256"},{"name":"slLastUpdated","type":"uint256","internalType":"uint256"},{"name":"beingMarketClosed","type":"bool","internalType":"bool"},{"name":"lossProtection","type":"uint256","internalType":"uint256"}]},{"name":"isPnl","type":"bool","internalType":"bool"}],"outputs":[],"stateMutability":"nonpayable"},{"type":"function","name":"totalOI","inputs":[],"outputs":[{"name":"","type":"uint256","internalType":"uint256"}],"stateMutability":"view"},{"type":"function","name":"trading","inputs":[],"outputs":[{"name":"","type":"address","internalType":"address"}],"stateMutability":"view"},{"type":"function","name":"transferUSDC","inputs":[{"name":"_from","type":"address","internalType":"address"},{"name":"_to","type":"address","internalType":"address"},{"name":"_amount","type":"uint256","internalType":"uint256"}],"outputs":[],"stateMutability":"nonpayable"},{"type":"function","name":"tvlCap","inputs":[],"outputs":[{"name":"","type":"uint256","internalType":"uint256"}],"stateMutability":"view"},{"type":"function","name":"unregisterOpenLimitOrder","inputs":[{"name":"_trader","type":"address","internalType":"address"},{"name":"_pairIndex","type":"uint256","internalType":"uint256"},{"name":"_index","type":"uint256","internalType":"uint256"}],"outputs":[],"stateMutability":"nonpayable"},{"type":"function","name":"unregisterPendingLimitOrder","inputs":[{"name":"_order","type":"uint256","internalType":"uint256"}],"outputs":[],"stateMutability":"nonpayable"},{"type":"function","name":"unregisterPendingMarketOrder","inputs":[{"name":"_id","type":"uint256","internalType":"uint256"},{"name":"_open","type":"bool","internalType":"bool"}],"outputs":[],"stateMutability":"nonpayable"},{"type":"function","name":"unregisterTrade","inputs":[{"name":"trader","type":"address","internalType":"address"},{"name":"pairIndex","type":"uint256","internalType":"uint256"},{"name":"index","type":"uint256","internalType":"uint256"}],"outputs":[],"stateMutability":"nonpayable"},{"type":"function","name":"updateOpenLimitOrder","inputs":[{"name":"_o","type":"tuple","internalType":"struct ITradingStorage.OpenLimitOrder","components":[{"name":"trader","type":"address","internalType":"address"},{"name":"pairIndex","type":"uint256","internalType":"uint256"},{"name":"index","type":"uint256","internalType":"uint256"},{"name":"positionSize","type":"uint256","internalType":"uint256"},{"name":"buy","type":"bool","internalType":"bool"},{"name":"leverage","type":"uint256","internalType":"uint256"},{"name":"tp","type":"uint256","internalType":"uint256"},{"name":"sl","type":"uint256","internalType":"uint256"},{"name":"price","type":"uint256","internalType":"uint256"},{"name":"slippageP","type":"uint256","internalType":"uint256"},{"name":"block","type":"uint256","internalType":"uint256"},{"name":"executionFee","type":"uint256","internalType":"uint256"}]}],"outputs":[],"stateMutability":"nonpayable"},{"type":"function","name":"updateSl","inputs":[{"name":"_trader","type":"address","internalType":"address"},{"name":"_pairIndex","type":"uint256","internalType":"uint256"},{"name":"_index","type":"uint256","internalType":"uint256"},{"name":"_newSl","type":"uint256","internalType":"uint256"}],"outputs":[],"stateMutability":"nonpayable"},{"type":"function","name":"updateTp","inputs":[{"name":"_trader","type":"address","internalType":"address"},{"name":"_pairIndex","type":"uint256","internalType":"uint256"},{"name":"_index","type":"uint256","internalType":"uint256"},{"name":"_newTp","type":"uint256","internalType":"uint256"}],"outputs":[],"stateMutability":"nonpayable"},{"type":"function","name":"updateTrade","inputs":[{"name":"_t","type":"tuple","internalType":"struct ITradingStorage.Trade","components":[{"name":"trader","type":"address","internalType":"address"},{"name":"pairIndex","type":"uint256","internalType":"uint256"},{"name":"index","type":"uint256","internalType":"uint256"},{"name":"initialPosToken","type":"uint256","internalType":"uint256"},{"name":"positionSizeUSDC","type":"uint256","internalType":"uint256"},{"name":"openPrice","type":"uint256","internalType":"uint256"},{"name":"buy","type":"bool","internalType":"bool"},{"name":"leverage","type":"uint256","internalType":"uint256"},{"name":"tp","type":"uint256","internalType":"uint256"},{"name":"sl","type":"uint256","internalType":"uint256"},{"name":"timestamp","type":"uint256","internalType":"uint256"}]}],"outputs":[],"stateMutability":"nonpayable"},{"type":"function","name":"usdOI","inputs":[{"name":"","type":"uint256","internalType":"uint256"}],"outputs":[{"name":"","type":"uint256","internalType":"uint256"}],"stateMutability":"view"},{"type":"function","name":"usdc","inputs":[],"outputs":[{"name":"","type":"address","internalType":"contract IERC20"}],"stateMutability":"view"},{"type":"function","name":"vaultManager","inputs":[],"outputs":[{"name":"","type":"address","internalType":"contract IVaultManager"}],"stateMutability":"view"},{"type":"function","name":"walletOI","inputs":[{"name":"_trader","type":"address","internalType":"address"}],"outputs":[{"name":"","type":"uint256","internalType":"uint256"}],"stateMutability":"view"},{"type":"function","name":"withinExposureLimits","inputs":[{"name":"_trader","type":"address","internalType":"address"},{"name":"_pairIndex","type":"uint256","internalType":"uint256"},{"name":"_leveragedPos","type":"uint256","internalType":"uint256"},{"name":"_buy","type":"bool","internalType":"bool"}],"outputs":[{"name":"","type":"bool","internalType":"bool"}],"stateMutability":"view"},{"type":"event","name":"AddressUpdated","inputs":[{"name":"name","type":"string","indexed":false,"internalType":"string"},{"name":"a","type":"address","indexed":false,"internalType":"address"}],"anonymous":false},{"type":"event","name":"FeesCharged","inputs":[{"name":"_trader","type":"address","indexed":false,"internalType":"address"},{"name":"_pairIndex","type":"uint256","indexed":false,"internalType":"uint256"},{"name":"_buy","type":"bool","indexed":false,"internalType":"bool"},{"name":"fee","type":"uint256","indexed":false,"internalType":"uint256"}],"anonymous":false},{"type":"event","name":"FeesClaimed","inputs":[{"name":"govTreasury","type":"address","indexed":false,"internalType":"address"},{"name":"govFees","type":"uint256","indexed":false,"internalType":"uint256"},{"name":"devTreasury","type":"address","indexed":false,"internalType":"address"},{"name":"devFees","type":"uint256","indexed":false,"internalType":"uint256"}],"anonymous":false},{"type":"event","name":"Initialized","inputs":[{"name":"version","type":"uint8","indexed":false,"internalType":"uint8"}],"anonymous":false},{"type":"event","name":"MarketOpenCanceled","inputs":[{"name":"orderId","type":"uint256","indexed":false,"internalType":"uint256"},{"name":"trader","type":"address","indexed":true,"internalType":"address"},{"name":"pairIndex","type":"uint256","indexed":false,"internalType":"uint256"}],"anonymous":false},{"type":"event","name":"NumberUpdated","inputs":[{"name":"name","type":"string","indexed":false,"internalType":"string"},{"name":"value","type":"uint256","indexed":false,"internalType":"uint256"}],"anonymous":false},{"type":"event","name":"NumberUpdatedPair","inputs":[{"name":"name","type":"string","indexed":false,"internalType":"string"},{"name":"pairIndex","type":"uint256","indexed":false,"internalType":"uint256"},{"name":"value","type":"uint256","indexed":false,"internalType":"uint256"}],"anonymous":false},{"type":"event","name":"OIUpdated","inputs":[{"name":"_open","type":"bool","indexed":false,"internalType":"bool"},{"name":"_long","type":"bool","indexed":false,"internalType":"bool"},{"name":"_pairIndex","type":"uint256","indexed":false,"internalType":"uint256"},{"name":"_leveragedPos","type":"uint256","indexed":false,"internalType":"uint256"},{"name":"_price","type":"uint256","indexed":false,"internalType":"uint256"}],"anonymous":false},{"type":"event","name":"RebateClaimed","inputs":[{"name":"referrer","type":"address","indexed":false,"internalType":"address"},{"name":"amount","type":"uint256","indexed":false,"internalType":"uint256"}],"anonymous":false},{"type":"event","name":"SupportedTokenAdded","inputs":[{"name":"a","type":"address","indexed":false,"internalType":"address"}],"anonymous":false},{"type":"event","name":"TradeReferred","inputs":[{"name":"_trader","type":"address","indexed":false,"internalType":"address"},{"name":"_referrer","type":"address","indexed":false,"internalType":"address"},{"name":"_leveragedPosition","type":"uint256","indexed":false,"internalType":"uint256"},{"name":"_traderFeePostDiscount","type":"uint256","indexed":false,"internalType":"uint256"},{"name":"_startingFees","type":"uint256","indexed":false,"internalType":"uint256"},{"name":"_referrerRebate","type":"uint256","indexed":false,"internalType":"uint256"},{"name":"_pairIndex","type":"uint256","indexed":false,"internalType":"uint256"}],"anonymous":false},{"type":"event","name":"TradingContractAdded","inputs":[{"name":"a","type":"address","indexed":false,"internalType":"address"}],"anonymous":false},{"type":"event","name":"TradingContractRemoved","inputs":[{"name":"a","type":"address","indexed":false,"internalType":"address"}],"anonymous":false}],"bytecode":{"object":"0x60806040523480156200001157600080fd5b506200001c62000022565b620000e3565b600054610100900460ff16156200008f5760405162461bcd60e51b815260206004820152602760248201527f496e697469616c697a61626c653a20636f6e747261637420697320696e697469604482015266616c697a696e6760c81b606482015260840160405180910390fd5b60005460ff90811614620000e1576000805460ff191660ff9081179091556040519081527f7f26b83ff96e1f2b6a682f133852f6798a09c465da95921460cefb38474024989060200160405180910390a15b565b615f7b80620000f36000396000f3fe608060405234801561001057600080fd5b50600436106104c15760003560e01c80639c8912f111610278578063d477f05f1161015c578063eda00d54116100ce578063f65d9dbe11610092578063f65d9dbe14610c6a578063f7b3c6fd14610c73578063f823e2ae14610c9c578063fdb153e214610caf578063fe0fc8d614610cc2578063ff12673a14610cd557600080fd5b8063eda00d5414610be0578063f0cb9b1114610c11578063f169429214610c24578063f41450b514610c37578063f4ccf54e14610c4a57600080fd5b8063dc6638f411610120578063dc6638f414610b7b578063dcdf339a14610b83578063dd0290e214610b96578063e3cbe3a714610ba9578063ec44acf214610bbc578063ecf56a1f14610bcd57600080fd5b8063d477f05f14610b0f578063d5dabd7514610b22578063d775d54814610b42578063d8137fe814610b55578063dc2123ff14610b6857600080fd5b8063b543503e116101f5578063c45cceb6116101b9578063c45cceb614610ab3578063cab9458014610ac6578063cda3948f14610ad9578063cfad57a214610ae1578063d294f09314610af4578063d45bc33214610afc57600080fd5b8063b543503e14610a19578063b7682d5414610a2c578063b87cb1da14610a57578063b8878a2c14610a80578063bcc9f1d314610aa057600080fd5b8063a553906c1161023c578063a553906c146109a2578063ae8ac94e146109b5578063b222cb38146109c8578063b3e089a2146109f3578063b4b0f56714610a0657600080fd5b80639c8912f11461091e5780639cb87f23146109495780639e5914da1461095c578063a35441811461096f578063a3a80ffe1461098257600080fd5b806350bb2578116103aa5780637fdb96f31161031c5780638b83351a116102e05780638b83351a1461084e5780638c8ff1d5146108615780638ecf3f5a146108b857806390d112b9146108cd57806391cca3db146108e057806397e7995a146108f357600080fd5b80637fdb96f3146108025780638049fde7146108155780638129fc1c1461081e5780638a0bd702146108265780638a4adf241461083b57600080fd5b80636817f5761161036e5780636817f5761461075e5780636b2d653f146107715780636c7be83a146107995780636d81d981146107b95780637ada8483146107dc5780637eed1d30146107ef57600080fd5b806350bb2578146106e55780635b621e32146106f85780635c76ac9e1461070b5780635fbfe8cc1461072b57806366ac654d1461074b57600080fd5b806332149592116104435780633f64d036116104075780633f64d03614610655578063422a4214146106685780634415b3691461068b578063443295dc146106b657806344d44f5a146106bf5780635070e837146106d257600080fd5b806332149592146105b157806334df8540146106275780633c6d6fa0146106305780633e413bee146106395780633f23fa1a1461064c57600080fd5b80631441a5a91161048a5780631441a5a91461053e5780631c8636b414610551578063292c1617146105725780632a9a9667146105855780633078fff51461059857600080fd5b8062b12783146104c657806305f3c6ad146104f05780630d32c907146105055780630fe1c91f1461051857806312d43a511461052b575b600080fd5b6002546001600160a01b03165b6040516001600160a01b0390911681526020015b60405180910390f35b6105036104fe3660046153da565b610ce8565b005b61050361051336600461592d565b610d7b565b6105036105263660046159ef565b611179565b600d546104d3906001600160a01b031681565b6005546104d3906001600160a01b031681565b61056461055f366004615438565b6111c9565b6040519081526020016104e7565b610564610580366004615438565b6111f4565b6105646105933660046154e3565b6112ac565b6000546104d3906201000090046001600160a01b031681565b6105c46105bf36600461592d565b61163f565b604080516001600160a01b03909d168d5260208d019b909b52998b019890985260608a0196909652931515608089015260a088019290925260c087015260e0860152610100850152610120840152610140830152610160820152610180016104e7565b610564600a5481565b610564600b5481565b6003546104d3906001600160a01b031681565b61056460095481565b6105036106633660046155b8565b6116bd565b61067b6106763660046159c8565b6117ac565b60405190151581526020016104e7565b610564610699366004615438565b601f60209081526000928352604080842090915290825290205481565b61056460085481565b6105646106cd366004615438565b611aa4565b6105036106e03660046153da565b611b2c565b6105036106f33660046153da565b611bcd565b6105036107063660046153da565b611c19565b61071e6107193660046153da565b611c94565b6040516104e79190615bf7565b61073e61073936600461592d565b611d00565b6040516104e79190615b36565b600c546104d3906001600160a01b031681565b61056461076c36600461592d565b611d6b565b61078461077f366004615553565b611d82565b604080519283526020830191909152016104e7565b6107ac6107a736600461592d565b612004565b6040516104e79190615c71565b61067b6107c73660046153da565b60216020526000908152604090205460ff1681565b6105036107ea36600461592d565b6120a8565b6105646107fd36600461592d565b6120fc565b6105036108103660046155b8565b612113565b61056460075481565b6105036122d1565b61082e612405565b6040516104e79190615b83565b6004546104d3906001600160a01b031681565b61050361085c3660046153f7565b6124e9565b61087461086f366004615464565b61254a565b6040516104e79190600060a0820190508251825260208301516020830152604083015160408301526060830151151560608301526080830151608083015292915050565b6108c06125ed565b6040516104e79190615bc6565b6105036108db366004615464565b612627565b600e546104d3906001600160a01b031681565b610564610901366004615438565b601860209081526000928352604080842090915290825290205481565b61056461092c366004615438565b601c60209081526000928352604080842090915290825290205481565b6105646109573660046159ef565b612a09565b61050361096a3660046153da565b612a2d565b61050361097d3660046155b8565b612ab6565b610995610990366004615464565b612c74565b6040516104e79190615d01565b6105036109b03660046153da565b612d2d565b6105036109c336600461564a565b612db5565b6105646109d63660046159ef565b602360209081526000928352604080842090915290825290205481565b610503610a013660046153da565b612ed1565b610503610a14366004615464565b612f56565b610503610a273660046153da565b613242565b610564610a3a366004615438565b601d60209081526000928352604080842090915290825290205481565b610564610a653660046153da565b6001600160a01b031660009081526016602052604090205490565b610a93610a8e366004615464565b6132cf565b6040516104e79190615c62565b610564610aae366004615438565b613440565b61067b610ac1366004615499565b613471565b610503610ad4366004615998565b6136e4565b6105036139ba565b610503610aef3660046153da565b613a3c565b610503613b4e565b610564610b0a36600461592d565b613c11565b610503610b1d3660046153da565b613c25565b610b35610b3036600461592d565b613ca9565b6040516104e79190615cc7565b610503610b50366004615790565b613d77565b610503610b63366004615803565b613e0b565b610503610b7636600461592d565b613fd3565b610564614056565b61067b610b91366004615464565b61410c565b610503610ba436600461592d565b6141a9565b6104d3610bb73660046159ef565b614215565b6001546001600160a01b03166104d3565b610503610bdb36600461592d565b61424d565b610564610bee366004615464565b601760209081526000938452604080852082529284528284209052825290205481565b610503610c1f366004615883565b6142d6565b610564610c3236600461592d565b61435d565b610503610c453660046158a0565b61437b565b610564610c583660046153da565b60226020526000908152604090205481565b61056460065481565b610564610c813660046153da565b6001600160a01b03166000908152601b602052604090205490565b610503610caa3660046153da565b6146b2565b610503610cbd366004615663565b614730565b610503610cd03660046153da565b614a09565b600f546104d3906001600160a01b031681565b600d546001600160a01b03163314610cff57600080fd5b6001600160a01b038116610d1257600080fd5b600f80546001600160a01b0319166001600160a01b03831690811790915560408051818152600b918101919091526a676f76547265617375727960a81b60608201526020810191909152600080516020615f26833981519152906080015b60405180910390a150565b3360009081526021602052604090205460ff16610d9757600080fd5b6000805460405163d09ef24160e01b815260048101849052620100009091046001600160a01b03169063d09ef2419060240160806040518083038186803b158015610de157600080fd5b505afa158015610df5573d6000803e3d6000fd5b505050506040513d601f19601f82011682018060405250810190610e19919061570b565b602090810151600084815260198352604080822081516101e08101835281546001600160a01b031660808201818152600184015460a0840152600284015460c0840152600384015460e084015260048401546101008401526005840154610120840152600684015460ff1615156101408401526007840154610160840152600884015461018084015260098401546101a0840152600a8401546101c08401528252600b83015482880152600c83015482850152600d909201546060820152908352601b90945281209193505b81548110156111015784828281548110610f0157610f01615eec565b906000526020600020015414156110ef576000846008811115610f2657610f26615ec0565b1480610f4357506006846008811115610f4157610f41615ec0565b145b15610f87578251516001600160a01b03166000908152601c60209081526040808320865183015184529091528120805491610f7d83615e78565b9190505550611002565b8251516001600160a01b03166000908152601d60209081526040808320865183015184529091528120805491610fbc83615e78565b90915550508251516001600160a01b03166000908152601460209081526040808320865183015184528252808320865182015184529091529020600301805460ff191690555b8154829061101290600190615e35565b8154811061102257611022615eec565b906000526020600020015482828154811061103f5761103f615eec565b90600052602060002001819055508180548061105d5761105d615ed6565b600082815260208082208301600019908101839055909201909255868252601990526040812080546001600160a01b0319168155600181018290556002810182905560038101829055600481018290556005810182905560068101805460ff19169055600781018290556008810182905560098101829055600a8101829055600b8101829055600c8101829055600d01555b806110f981615e8f565b915050610ee5565b5081518051608090910151600354611124926001600160a01b0390911691614a93565b8151805160209182015160408051888152938401919091526001600160a01b03909116917f4b2ef4d80a0964a9a8f43256d8111558389b384d2029743c1eeb6950b14d9c65910160405180910390a250505050565b3360009081526021602052604090205460ff1661119557600080fd5b81600a60008282546111a79190615ddc565b9250508190555080600b60008282546111c09190615ddc565b90915550505050565b6001600160a01b03821660009081526015602090815260408083208484529091529020545b92915050565b6000805b6006548110156112a5576001600160a01b0384166000908152601360209081526040808320868452825280832084845290915290206007015461123d578091506112a5565b60065461124b826001615ddc565b148015611256575081155b1561129d5760405162461bcd60e51b815260206004820152601260248201527113505617d51490511154d7d4915050d2115160721b60448201526064015b60405180910390fd5b6001016111f8565b5092915050565b3360009081526021602052604081205460ff166112c857600080fd5b60008054604051633a100f4d60e01b8152600481018990526024810188905284151560448201526064916402540be40091620100009091046001600160a01b031690633a100f4d90840160206040518083038186803b15801561132a57600080fd5b505afa15801561133e573d6000803e3d6000fd5b505050506040513d601f19601f820116820180604052508101906113629190615946565b61136c9089615e16565b6113769190615df4565b6113809190615df4565b90508361139557611392600282615df4565b90505b60006113a8898389600080600080611d82565b6002546040805163c4493e3760e01b815290519396509193506000926064926001600160a01b039092169163c4493e3791600480830192602092919082900301818887803b1580156113f957600080fd5b505af115801561140d573d6000803e3d6000fd5b505050506040513d601f19601f820116820180604052508101906114319190615946565b61143c906064615e35565b6114468487615e35565b6114509190615e16565b61145a9190615df4565b9050600060016064600260009054906101000a90046001600160a01b03166001600160a01b031663c4493e376040518163ffffffff1660e01b8152600401602060405180830381600087803b1580156114b257600080fd5b505af11580156114c6573d6000803e3d6000fd5b505050506040513d601f19601f820116820180604052508101906114ea9190615946565b6114f48689615e35565b6114fe9190615e16565b6115089190615df4565b901c9050871561152f5760045460035461152f916001600160a01b03918216911684614a93565b60048054604051635b898b7560e01b8152918201849052600060248301526001600160a01b031690635b898b7590604401600060405180830381600087803b15801561157a57600080fd5b505af115801561158e573d6000803e3d6000fd5b5050505080600b60008282546115a49190615ddc565b90915550819050826115b68588615e35565b6115c09190615e35565b6115ca9190615e35565b600a60008282546115db9190615ddc565b9091555050604080516001600160a01b038d168152602081018c9052871515818301526060810187905290517f9921a6a6258398cbe136bac24f80d97ba2b5e4ab8cf2b2d27232d2ae1c78cdd39181900360800190a1505050509695505050505050565b6010818154811061164f57600080fd5b60009182526020909120600c9091020180546001820154600283015460038401546004850154600586015460068701546007880154600889015460098a0154600a8b0154600b909b01546001600160a01b03909a169b5097999698959760ff9095169693959294919390928c565b3360009081526021602052604090205460ff166116d957600080fd5b6001600160a01b0384166000818152601360209081526040808320878452825280832086845282528083209383526014825280832087845282528083208684529091529020600782015461172e5750506117a6565b828260030160008282546117429190615e35565b90915550506007820154611757908490614af6565b81600001600082825461176a9190615e35565b925050819055506117a3868661178d856007015487614af690919063ffffffff16565b6006860154600587015460009160ff1690614b12565b50505b50505050565b600080600060029054906101000a90046001600160a01b03166001600160a01b03166335b03c176040518163ffffffff1660e01b815260040160206040518083038186803b1580156117fd57600080fd5b505afa158015611811573d6000803e3d6000fd5b505050506040513d601f19601f82011682018060405250810190611835919061562d565b60008681526020805260408120600181015490549293509091859161185991615ddc565b6118639190615ddc565b9050841561198d57604051635970d96b60e11b8152600481018790526001600160a01b0383169063b2e1b2d69060240160206040518083038186803b1580156118ab57600080fd5b505afa1580156118bf573d6000803e3d6000fd5b505050506040513d601f19601f820116820180604052508101906118e39190615946565b81111580156119845750604051638769886960e01b8152600481018790526001600160a01b0383169063876988699060240160206040518083038186803b15801561192d57600080fd5b505afa158015611941573d6000803e3d6000fd5b505050506040513d601f19601f820116820180604052508101906119659190615946565b6000878152602080526040812086915b01546119819190615ddc565b11155b92505050611a9d565b604051635970d96b60e11b8152600481018790526001600160a01b0383169063b2e1b2d69060240160206040518083038186803b1580156119cd57600080fd5b505afa1580156119e1573d6000803e3d6000fd5b505050506040513d601f19601f82011682018060405250810190611a059190615946565b8111158015611984575060405163108c358760e01b8152600481018790526001600160a01b0383169063108c35879060240160206040518083038186803b158015611a4f57600080fd5b505afa158015611a63573d6000803e3d6000fd5b505050506040513d601f19601f82011682018060405250810190611a879190615946565b6000878152602080526040902085906001611975565b9392505050565b6000805b6006548110156112a557611abd84848361410c565b611ac9578091506112a5565b600654611ad7826001615ddc565b148015611ae2575081155b15611b245760405162461bcd60e51b815260206004820152601260248201527113505617d31253525514d7d4915050d2115160721b6044820152606401611294565b600101611aa8565b600d546001600160a01b03163314611b4357600080fd5b6001600160a01b038116611b5657600080fd5b600080546001600160a01b038316620100000262010000600160b01b0319909116179055604051600080516020615f2683398151915290610d709083906040808252600f908201526e383934b1b2a0b3b3b932b3b0ba37b960891b60608201526001600160a01b0391909116602082015260800190565b600d546001600160a01b03163314611be457600080fd5b6001600160a01b038116611bf757600080fd5b600c80546001600160a01b0319166001600160a01b0392909216919091179055565b600d546001600160a01b03163314611c3057600080fd5b6001600160a01b038116611c4357600080fd5b6001600160a01b038116600081815260216020908152604091829020805460ff1916905590519182527ff9cf924d7d98e6e0a27ec523cd7214b0bbdfaba197018b33b41a702f5238190e9101610d70565b6001600160a01b0381166000908152601b6020908152604091829020805483518184028101840190945280845260609392830182828015611cf457602002820191906000526020600020905b815481526020019060010190808311611ce0575b50505050509050919050565b6000818152601e6020908152604091829020805483518184028101840190945280845260609392830182828015611cf457602002820191906000526020600020905b81546001600160a01b03168152600190910190602001808311611d425750505050509050919050565b60008181526020805260408120815b015492915050565b33600090815260216020526040812054819060ff16611da057600080fd5b8515611ec75760008060029054906101000a90046001600160a01b03166001600160a01b03166335b03c176040518163ffffffff1660e01b815260040160206040518083038186803b158015611df557600080fd5b505afa158015611e09573d6000803e3d6000fd5b505050506040513d601f19601f82011682018060405250810190611e2d919061562d565b604051631dc6750f60e21b81526004810188905260248101869052604481018790529091506000906001600160a01b03831690637719d43c9060640160206040518083038186803b158015611e8157600080fd5b505afa158015611e95573d6000803e3d6000fd5b505050506040513d601f19601f82011682018060405250810190611eb99190615946565b935060009250611ff8915050565b60055460405163ce18b98d60e01b81526001600160a01b038b81166004830152602482018b9052600092839283929091169063ce18b98d90604401606060405180830381600087803b158015611f1c57600080fd5b505af1158015611f30573d6000803e3d6000fd5b505050506040513d601f19601f82011682018060405250810190611f54919061595f565b6001600160a01b038216600090815260226020526040812080549497509295509093508392611f84908490615ddc565b9091555050604080516001600160a01b03808f168252841660208201529081018b905260608101849052608081018c905260a0810182905260c081018990527f92133a7a27eec9c36de4706108b974c1be753637bfd864f0d14f4c500ffbcfae9060e00160405180910390a1919350909150505b97509795505050505050565b61202c6040805160808101825260008082526020820181905291810182905290606082015290565b6000828152601a6020908152604091829020825160808101845281546001600160a01b03168152600182015492810192909252600281015492820192909252600380830154919291606084019160ff9091169081111561208e5761208e615ec0565b600381111561209f5761209f615ec0565b90525092915050565b3360009081526021602052604090205460ff166120c457600080fd5b6000908152601a6020526040812080546001600160a01b0319168155600181018290556002810191909155600301805460ff19169055565b6011816002811061210c57600080fd5b0154905081565b3360009081526021602052604090205460ff1661212f57600080fd5b6001600160a01b038416600081815260136020908152604080832087845282528083208684528252808320938352601482528083208784528252808320868452909152902060078201546121845750506117a6565b60008060029054906101000a90046001600160a01b03166001600160a01b03166335b03c176040518163ffffffff1660e01b815260040160206040518083038186803b1580156121d357600080fd5b505afa1580156121e7573d6000803e3d6000fd5b505050506040513d601f19601f8201168201806040525081019061220b919061562d565b600584015460078501546006860154600187015460405163daefa14560e01b8152600481019490945260248401929092526044830188905260ff161515606483015260848201529091506001600160a01b0382169063daefa1459060a40160206040518083038186803b15801561228157600080fd5b505afa158015612295573d6000803e3d6000fd5b505050506040513d601f19601f820116820180604052508101906122b99190615946565b60089093018390555043600190910155905050505050565b600054610100900460ff16158080156122f15750600054600160ff909116105b8061230b5750303b15801561230b575060005460ff166001145b61236e5760405162461bcd60e51b815260206004820152602e60248201527f496e697469616c697a61626c653a20636f6e747261637420697320616c72656160448201526d191e481a5b9a5d1a585b1a5e995960921b6064820152608401611294565b6000805460ff191660011790558015612391576000805461ff0019166101001790555b600d80546001600160a01b03191633179055600560068190556007556123bd6402540be400605a615e16565b6009558015612402576000805461ff0019169055604051600181527f7f26b83ff96e1f2b6a682f133852f6798a09c465da95921460cefb384740249890602001610d70565b50565b60606010805480602002602001604051908101604052809291908181526020016000905b828210156124e05760008481526020908190206040805161018081018252600c860290920180546001600160a01b031683526001808201548486015260028201549284019290925260038101546060840152600481015460ff1615156080840152600581015460a0840152600681015460c0840152600781015460e084015260088101546101008401526009810154610120840152600a810154610140840152600b01546101608301529083529092019101612429565b50505050905090565b3360009081526021602052604090205460ff1661250557600080fd5b6001600160a01b0383163014156125325760035461252d906001600160a01b03168383614a93565b505050565b60035461252d906001600160a01b0316848484615042565b61257e6040518060a00160405280600081526020016000815260200160008152602001600015158152602001600081525090565b506001600160a01b03929092166000908152601460209081526040808320938352928152828220938252928352819020815160a08101835281548152600182015493810193909352600281015491830191909152600381015460ff161515606083015260040154608082015290565b6125f561526f565b60408051808201918290529060119060029082845b81548152602001906001019080831161260a575050505050905090565b3360009081526021602052604090205460ff1661264357600080fd5b6001600160a01b03831660008181526013602090815260408083208684528252808320858452825280832093835260148252808320868452825280832085845290915290206007820154612698575050505050565b8054600683015460058401546126b8928892889260009160ff1690614b12565b6001600160a01b038516600090815260156020908152604080832087845290915290205460011415612826576001600160a01b0385166000908152601f60209081526040808320878452825280832054601e9092529091208054819061272090600190615e35565b8154811061273057612730615eec565b9060005260206000200160009054906101000a90046001600160a01b031681838154811061276057612760615eec565b9060005260206000200160006101000a8154816001600160a01b0302191690836001600160a01b0316021790555081601f60008385815481106127a5576127a5615eec565b60009182526020808320909101546001600160a01b03908116845283820194909452604092830182208b8352815282822094909455918a168252601f835280822089835290925290812055805481908061280157612801615ed6565b600082815260209020810160001990810180546001600160a01b031916905501905550505b6001600160a01b0380861660008181526013602090815260408083208984528252808320888452825280832080546001600160a01b031916815560018082018590556002808301869055600380840187905560048085018890556005850188905560068501805460ff19908116909155600786018990556008860189905560098601899055600a909501889055978752601486528487208d885286528487208c88528652848720878155928301879055908201869055810180549092169091558401839055825481516335b03c1760e01b8152915193956201000090910416936335b03c17938282019392909190829003018186803b15801561292857600080fd5b505afa15801561293c573d6000803e3d6000fd5b505050506040513d601f19601f82011682018060405250810190612960919061562d565b60405163f80aa68b60e01b81526001600160a01b03888116600483015260248201889052604482018790529192509082169063f80aa68b90606401600060405180830381600087803b1580156129b557600080fd5b505af11580156129c9573d6000803e3d6000fd5b505050506001600160a01b038616600090815260156020908152604080832088845290915281208054916129fc83615e78565b9190505550505050505050565b602080528160005260406000208160028110612a2457600080fd5b01549150829050565b600d546001600160a01b03163314612a4457600080fd5b6001600160a01b038116612a5757600080fd5b600580546001600160a01b0319166001600160a01b0383169081179091556040805181815260089181019190915267149959995c9c985b60c21b60608201526020810191909152600080516020615f2683398151915290608001610d70565b3360009081526021602052604090205460ff16612ad257600080fd5b6001600160a01b03841660008181526013602090815260408083208784528252808320868452825280832093835260148252808320878452825280832086845290915290206007820154612b275750506117a6565b60008060029054906101000a90046001600160a01b03166001600160a01b03166335b03c176040518163ffffffff1660e01b815260040160206040518083038186803b158015612b7657600080fd5b505afa158015612b8a573d6000803e3d6000fd5b505050506040513d601f19601f82011682018060405250810190612bae919061562d565b600584015460078501546006860154600187015460405163109b8faf60e11b8152600481019490945260248401929092526044830188905260ff161515606483015260848201529091506001600160a01b038216906321371f5e9060a40160206040518083038186803b158015612c2457600080fd5b505afa158015612c38573d6000803e3d6000fd5b505050506040513d601f19601f82011682018060405250810190612c5c9190615946565b60099093018390555043600290910155905050505050565b612c7c61528d565b506001600160a01b039283166000908152601360209081526040808320948352938152838220928252918252829020825161016081018452815490941684526001810154918401919091526002810154918301919091526003810154606083015260048101546080830152600581015460a0830152600681015460ff16151560c0830152600781015460e083015260088101546101008301526009810154610120830152600a015461014082015290565b600d546001600160a01b03163314612d4457600080fd5b6001600160a01b038116612d5757600080fd5b600180546001600160a01b0319166001600160a01b038316908117909155604080518181526007918101919091526674726164696e6760c81b60608201526020810191909152600080516020615f2683398151915290608001610d70565b3360009081526021602052604090205460ff16612dd157600080fd5b612df0612de160208301836153da565b8260200135836040013561410c565b612df75750565b60006010601782612e0b60208601866153da565b6001600160a01b0316815260208082019290925260409081016000908120868401358252835281812086830135825290925290205481548110612e5057612e50615eec565b90600052602060002090600c0201905081606001358160030181905550816080016020810190612e8091906155f3565b60048201805460ff191691151591909117905560a0820135600582015560c0820135600682015560e08201356007820155610100820135600882015543600a82015561012090910135600990910155565b600d546001600160a01b03163314612ee857600080fd5b6001600160a01b038116612efb57600080fd5b600380546001600160a01b0319166001600160a01b03831690811790915560408051818152600491810191909152637573646360e01b60608201526020810191909152600080516020615f2683398151915290608001610d70565b3360009081526021602052604090205460ff16612f7257600080fd5b612f7d83838361410c565b612f8657505050565b6001600160a01b0383166000908152601760209081526040808320858452825280832084845290915290205460108054612fc290600190615e35565b81548110612fd257612fd2615eec565b90600052602060002090600c020160108281548110612ff357612ff3615eec565b6000918252602082208354600c9092020180546001600160a01b0319166001600160a01b03909216919091178155600180840154908201556002808401549082015560038084015490820155600480840154908201805460ff909216151560ff199092169190911790556005808401549082015560068084015490820155600780840154908201556008808401549082015560098084015490820155600a8084015490820155600b928301549201919091556010805483926017929091849081106130c0576130c0615eec565b60009182526020808320600c909202909101546001600160a01b031683528201929092526040018120601080549192918590811061310057613100615eec565b90600052602060002090600c020160010154815260200190815260200160002060006010848154811061313557613135615eec565b600091825260208083206002600c90930201919091015483528281019390935260409182018120939093556001600160a01b0387168352601782528083208684528252808320858452909152812055601080548061319557613195615ed6565b60008281526020808220600c6000199094019384020180546001600160a01b031916815560018101839055600281018390556003810183905560048101805460ff191690556005810183905560068101839055600781018390556008810183905560098101839055600a8101839055600b01829055919092556001600160a01b0386168252601881526040808320868452909152812080549161323783615e78565b919050555050505050565b600d546001600160a01b0316331461325957600080fd5b6001600160a01b03811661326c57600080fd5b600480546001600160a01b0319166001600160a01b03831690811790915560408051818152600c918101919091526b3b30bab63a26b0b730b3b2b960a11b60608201526020810191909152600080516020615f2683398151915290608001610d70565b61333e60405180610180016040528060006001600160a01b03168152602001600081526020016000815260200160008152602001600015158152602001600081526020016000815260200160008152602001600081526020016000815260200160008152602001600081525090565b61334984848461410c565b61335257600080fd5b6001600160a01b0384166000908152601760209081526040808320868452825280832085845290915290205460108054909190811061339357613393615eec565b60009182526020918290206040805161018081018252600c90930290910180546001600160a01b0316835260018101549383019390935260028301549082015260038201546060820152600482015460ff1615156080820152600582015460a0820152600682015460c0820152600782015460e082015260088201546101008201526009820154610120820152600a820154610140820152600b9091015461016082015290509392505050565b601b602052816000526040600020818154811061345c57600080fd5b90600052602060002001600091509150505481565b600080600060029054906101000a90046001600160a01b03166001600160a01b03166335b03c176040518163ffffffff1660e01b815260040160206040518083038186803b1580156134c257600080fd5b505afa1580156134d6573d6000803e3d6000fd5b505050506040513d601f19601f820116820180604052508101906134fa919061562d565b9050613504614056565b846008546135129190615ddc565b1115801561361a575060405163232683a960e21b8152600481018690526001600160a01b03821690638c9a0ea49060240160206040518083038186803b15801561355b57600080fd5b505afa15801561356f573d6000803e3d6000fd5b505050506040513d601f19601f820116820180604052508101906135939190615946565b604051635e4f8f5960e01b81526004810187905285906001600160a01b03841690635e4f8f599060240160206040518083038186803b1580156135d557600080fd5b505afa1580156135e9573d6000803e3d6000fd5b505050506040513d601f19601f8201168201806040525081019061360d9190615946565b6136179190615ddc565b11155b801561362c575061362c8584866117ac565b80156136d857506040516315b954db60e21b8152600481018690526001600160a01b038216906356e5536c9060240160206040518083038186803b15801561367357600080fd5b505afa158015613687573d6000803e3d6000fd5b505050506040513d601f19601f820116820180604052508101906136ab9190615946565b846136cb886001600160a01b031660009081526016602052604090205490565b6136d59190615ddc565b11155b9150505b949350505050565b3360009081526021602052604090205460ff1661370057600080fd5b600082815260196020908152604080832081516101e08101835281546001600160a01b031660808201818152600184015460a0840152600284015460c0840152600384015460e084015260048401546101008401526005840154610120840152600684015460ff1615156101408401526007840154610160840152600884015461018084015260098401546101a0840152600a8401546101c08401528252600b83015482860152600c83015482850152600d909201546060820152908452601b909252822090915b81548110156139b257848282815481106137e4576137e4615eec565b906000526020600020015414156139aa57831561383a578251516001600160a01b03166000908152601c6020908152604080832086518301518452909152812080549161383083615e78565b91905055506138b5565b8251516001600160a01b03166000908152601d6020908152604080832086518301518452909152812080549161386f83615e78565b90915550508251516001600160a01b03166000908152601460209081526040808320865183015184528252808320865182015184529091529020600301805460ff191690555b815482906138c590600190615e35565b815481106138d5576138d5615eec565b90600052602060002001548282815481106138f2576138f2615eec565b90600052602060002001819055508180548061391057613910615ed6565b600082815260208082208301600019908101839055909201909255868252601990526040812080546001600160a01b0319168155600181018290556002810182905560038101829055600481018290556005810182905560068101805460ff19169055600781018290556008810182905560098101829055600a8101829055600b8101829055600c8101829055600d0155506139b6915050565b6001016137c8565b5050505b5050565b336000818152602260205260409020546003546139e2926001600160a01b0390911691614a93565b33600081815260226020908152604091829020548251938452908301527f8ec2a9ed236322c625516e43eab59fcb8145e38ee8d489a28d0aacaeecc298d6910160405180910390a133600090815260226020526040812055565b6001600160a01b038116613a4f57600080fd5b600c546001600160a01b03163314613a9a5760405162461bcd60e51b815260206004820152600e60248201526d24a72b20a624a22fa1a0a62622a960911b6044820152606401611294565b600c546001600160a01b03828116911614613ae85760405162461bcd60e51b815260206004820152600e60248201526d24a72b20a624a22fa1a0a62622a960911b6044820152606401611294565b600c54600d80546001600160a01b0319166001600160a01b039092169182179055604051600080516020615f2683398151915291610d709160408082526003908201526233b7bb60e91b60608201526001600160a01b0391909116602082015260800190565b600d546001600160a01b03163314613b6557600080fd5b600f54600b54600354613b86926001600160a01b0391821692911690614a93565b600e54600a54600354613ba7926001600160a01b0391821692911690614a93565b600f54600b54600e54600a54604080516001600160a01b03958616815260208101949094529390911682840152606082015290517ff4e6bc0a6951927d4db8490fb63528b3c4ccb43865870fe4e3db7a090cbb14b19181900360800190a16000600a819055600b55565b600081815260208052604081206001611d7a565b600d546001600160a01b03163314613c3c57600080fd5b6001600160a01b038116613c4f57600080fd5b600e80546001600160a01b0319166001600160a01b03831690811790915560408051818152600391810191909152623232bb60e91b60608201526020810191909152600080516020615f2683398151915290608001610d70565b613cb16152f2565b5060009081526019602090815260409182902082516101e08101845281546001600160a01b031660808201908152600183015460a0830152600283015460c0830152600383015460e083015260048301546101008301526005830154610120830152600683015460ff1615156101408301526007830154610160830152600883015461018083015260098301546101a0830152600a8301546101c08301528152600b82015492810192909252600c81015492820192909252600d90910154606082015290565b3360009081526021602052604090205460ff16613d9357600080fd5b6000818152601a6020908152604091829020845181546001600160a01b0319166001600160a01b03909116178155908401516001808301919091559184015160028201556060840151600380830180548795919260ff1990911691908490811115613e0057613e00615ec0565b021790555050505050565b3360009081526021602052604090205460ff16613e2757600080fd5b8251516001600160a01b039081166000908152601b602090815260408083208054600180820183559185528385200187905586845260198352928190208751805182546001600160a01b0319169616959095178155918401519282019290925582820151600282015560608084015160038301556080840151600483015560a0840151600583015560c084015160068301805460ff191691151591909117905560e084015160078301556101008401516008830155610120840151600983015561014090930151600a82015590850151600c82015590840151600d82015543600b909101558015613f51578251516001600160a01b03166000908152601c60209081526040808320865183015184529091528120805491613f4783615e8f565b9190505550505050565b8251516001600160a01b03166000908152601d60209081526040808320865183015184529091528120805491613f8683615e8f565b90915550508251516001600160a01b03166000908152601460209081526040808320865183015184528252808320865182015184529091529020600301805460ff19166001179055505050565b600d546001600160a01b03163314613fea57600080fd5b60008111613ff757600080fd5b6006819055604080518181526010918101919091526f36b0bc2a3930b232b9a832b92830b4b960811b6060820152602081018290527f8cf3e35f6221b16e1670a3413180c9484bf5aa71787905909fa82a6a2662e9ab90608001610d70565b600060646402540be400600954600460009054906101000a90046001600160a01b03166001600160a01b0316637b78d7826040518163ffffffff1660e01b815260040160206040518083038186803b1580156140b157600080fd5b505afa1580156140c5573d6000803e3d6000fd5b505050506040513d601f19601f820116820180604052508101906140e99190615946565b6140f39190615e16565b6140fd9190615df4565b6141079190615df4565b905090565b60105460009061411e57506000611a9d565b6001600160a01b0384166000908152601760209081526040808320868452825280832085845290915281205460108054909190811061415f5761415f615eec565b60009182526020909120600c9091020180549091506001600160a01b0386811691161480156141915750838160010154145b80156141a05750828160020154145b95945050505050565b600d546001600160a01b031633146141c057600080fd5b60098190556040805181815260069181019190915265074766c4361760d41b6060820152602081018290527f8cf3e35f6221b16e1670a3413180c9484bf5aa71787905909fa82a6a2662e9ab90608001610d70565b601e602052816000526040600020818154811061423157600080fd5b6000918252602090912001546001600160a01b03169150829050565b600d546001600160a01b0316331461426457600080fd5b6000811161427157600080fd5b600781905560408051818152601691810191909152756d617850656e64696e674d61726b65744f726465727360501b6060820152602081018290527f8cf3e35f6221b16e1670a3413180c9484bf5aa71787905909fa82a6a2662e9ab90608001610d70565b3360009081526021602052604090205460ff166142f257600080fd5b80516001600160a01b03166000908152601360209081526040808320828501518452825280832081850151845290915290206007810154614331575050565b606082015160038201556080820151600482015560a0820151600582015560e082015160079091015550565b60008181526020805260408120600181015490546111ee9190615ddc565b3360009081526021602052604090205460ff1661439757600080fd5b6143a9836000015184602001516111f4565b604084810191825284516001600160a01b0390811660009081526013602090815283822081890180518452908252848320865184528252848320895181546001600160a01b031916951694851781558151600182015595516002870155606089015160038701556080890151600487015560a0890151600587015560c089015160068701805460ff191691151591909117905560e0890151600787015561010089015160088701556101208901516009870155610140890151600a909601959095559181526015825282812093518152929052812080549161448a83615e8f565b909155505082516001600160a01b031660009081526015602090815260408083208287015184529091529020546001141561452b57602083810180516000908152601e80845260408083205488516001600160a01b039081168552601f87528285208651865287528285209190915593518352908452812086518154600181018355918352939091200180546001600160a01b031916929091169190911790555b60006060830181815284516001600160a01b0390811683526014602090815260408085208289015186528252808520818901518652825280852087518155828801516001820155818801516002820155935160038501805460ff19169115159190911790556080870151600494850155845481516335b03c1760e01b8152915162010000909104909316936335b03c17938282019392909190829003018186803b1580156145d857600080fd5b505afa1580156145ec573d6000803e3d6000fd5b505050506040513d601f19601f82011682018060405250810190614610919061562d565b84516020860151604080880151905163503a202f60e01b81526001600160a01b03938416600482015260248101929092526044820152841515606482015291925082169063503a202f90608401600060405180830381600087803b15801561467757600080fd5b505af115801561468b573d6000803e3d6000fd5b505050506117a684600001518560200151856000015160018860c001518960a00151614b12565b600d546001600160a01b031633146146c957600080fd5b6001600160a01b0381166146dc57600080fd5b6001600160a01b038116600081815260216020908152604091829020805460ff1916600117905590519182527fb692fa98cbec9bd705572b4c7e0927e3f7698e9fe526dcef6f40f3d4d4980ca39101610d70565b3360009081526021602052604090205460ff1661474c57600080fd5b61475e81600001518260200151611aa4565b604082019081524361014083019081526010805460018082018355600083905285517f1b6847dc741a1b0cd08d278845f9d819d87b734759afb55fe2de5cb82a9ae672600c90930292830180546001600160a01b0319166001600160a01b0390921691909117905560208601517f1b6847dc741a1b0cd08d278845f9d819d87b734759afb55fe2de5cb82a9ae67383015593517f1b6847dc741a1b0cd08d278845f9d819d87b734759afb55fe2de5cb82a9ae67482015560608501517f1b6847dc741a1b0cd08d278845f9d819d87b734759afb55fe2de5cb82a9ae67582015560808501517f1b6847dc741a1b0cd08d278845f9d819d87b734759afb55fe2de5cb82a9ae6768201805460ff191691151591909117905560a08501517f1b6847dc741a1b0cd08d278845f9d819d87b734759afb55fe2de5cb82a9ae67782015560c08501517f1b6847dc741a1b0cd08d278845f9d819d87b734759afb55fe2de5cb82a9ae67882015560e08501517f1b6847dc741a1b0cd08d278845f9d819d87b734759afb55fe2de5cb82a9ae6798201556101008501517f1b6847dc741a1b0cd08d278845f9d819d87b734759afb55fe2de5cb82a9ae67a8201556101208501517f1b6847dc741a1b0cd08d278845f9d819d87b734759afb55fe2de5cb82a9ae67b82015591517f1b6847dc741a1b0cd08d278845f9d819d87b734759afb55fe2de5cb82a9ae67c8301556101608401517f1b6847dc741a1b0cd08d278845f9d819d87b734759afb55fe2de5cb82a9ae67d90920191909155546149a39190615e35565b81516001600160a01b03908116600090815260176020908152604080832082870180518552908352818420828801518552835281842095909555855190931682526018815282822093518252929092528120805491614a0183615e8f565b919050555050565b600d546001600160a01b03163314614a2057600080fd5b6001600160a01b038116614a3357600080fd5b600280546001600160a01b0319166001600160a01b038316908117909155604080518181526009918101919091526863616c6c6261636b7360b81b60608201526020810191909152600080516020615f2683398151915290608001610d70565b6040516001600160a01b03831660248201526044810182905261252d90849063a9059cbb60e01b906064015b60408051601f198184030181529190526020810180516001600160e01b03166001600160e01b03199093169290921790915261507a565b60006402540be400614b088385615e16565b611a9d9190615df4565b600082614b20576001614b23565b60005b6000878152602080526040902060ff91909116915084614b7557808260028110614b4f57614b4f615eec565b01548611614b5d5785614b72565b808260028110614b6f57614b6f615eec565b01545b95505b84614b9e5785818360028110614b8d57614b8d615eec565b0154614b999190615e35565b614bbd565b85818360028110614bb157614bb1615eec565b0154614bbd9190615ddc565b818360028110614bcf57614bcf615eec565b015584614be95785600854614be49190615e35565b614bf7565b85600854614bf79190615ddc565b60085584614c28576001600160a01b038816600090815260166020526040902054614c23908790615e35565b614c4c565b6001600160a01b038816600090815260166020526040902054614c4c908790615ddc565b6001600160a01b0389166000908152601660209081526040808320939093558982526023815282822043835290522054614c87908790615ddc565b6000888152602360209081526040808320438452825280832093909355815483516335b03c1760e01b815293519293620100009091046001600160a01b0316926335b03c1792600480840193919291829003018186803b158015614cea57600080fd5b505afa158015614cfe573d6000803e3d6000fd5b505050506040513d601f19601f82011682018060405250810190614d22919061562d565b6040516304d735cf60e51b8152600481018a90529091506001600160a01b03821690639ae6b9e09060240160206040518083038186803b158015614d6557600080fd5b505afa158015614d79573d6000803e3d6000fd5b505050506040513d601f19601f82011682018060405250810190614d9d9190615946565b60008981526023602090815260408083204384529091529020541115614e055760405162461bcd60e51b815260206004820152601760248201527f424c4f434b5f4f495f4c494d49545f42524541434845440000000000000000006044820152606401611294565b604051633c44d0a360e01b8152600481018990526001600160a01b03821690633c44d0a39060240160206040518083038186803b158015614e4557600080fd5b505afa158015614e59573d6000803e3d6000fd5b505050506040513d601f19601f82011682018060405250810190614e7d9190615946565b60021415614fe557604051636dc37de360e01b8152600481018990526000906001600160a01b03831690636dc37de39060240160206040518083038186803b158015614ec857600080fd5b505afa158015614edc573d6000803e3d6000fd5b505050506040513d601f19601f82011682018060405250810190614f009190615610565b9050600086614f10576000614f13565b60015b60ff1690508115614f825787614f48578860118660028110614f3757614f37615eec565b0154614f439190615e35565b614f68565b8860118660028110614f5c57614f5c615eec565b0154614f689190615ddc565b60118660028110614f7b57614f7b615eec565b0155614fe2565b87614fac578860118260028110614f9b57614f9b615eec565b0154614fa79190615e35565b614fcc565b8860118260028110614fc057614fc0615eec565b0154614fcc9190615ddc565b60118260028110614fdf57614fdf615eec565b01555b50505b604080518715158152861515602082015290810189905260608101889052608081018590527fcadf7ed5daaec5b514975523d89eb6ebbbd5d892bc7a5bbf71c5fca0219754579060a00160405180910390a1505050505050505050565b6040516001600160a01b03808516602483015283166044820152606481018290526117a69085906323b872dd60e01b90608401614abf565b60006150cf826040518060400160405280602081526020017f5361666545524332303a206c6f772d6c6576656c2063616c6c206661696c6564815250856001600160a01b031661514f9092919063ffffffff16565b90508051600014806150f05750808060200190518101906150f09190615610565b61252d5760405162461bcd60e51b815260206004820152602a60248201527f5361666545524332303a204552433230206f7065726174696f6e20646964206e6044820152691bdd081cdd58d8d9595960b21b6064820152608401611294565b60606136dc848460008585600080866001600160a01b031685876040516151769190615b1a565b60006040518083038185875af1925050503d80600081146151b3576040519150601f19603f3d011682016040523d82523d6000602084013e6151b8565b606091505b50915091506151c9878383876151d4565b979650505050505050565b60608315615240578251615239576001600160a01b0385163b6152395760405162461bcd60e51b815260206004820152601d60248201527f416464726573733a2063616c6c20746f206e6f6e2d636f6e74726163740000006044820152606401611294565b50816136dc565b6136dc83838151156152555781518083602001fd5b8060405162461bcd60e51b81526004016112949190615c2f565b60405180604001604052806002906020820280368337509192915050565b60405180610160016040528060006001600160a01b031681526020016000815260200160008152602001600081526020016000815260200160008152602001600015158152602001600081526020016000815260200160008152602001600081525090565b604051806080016040528061530561528d565b81526020016000815260200160008152602001600081525090565b803561532b81615f02565b919050565b803561532b81615f17565b6000610160828403121561534e57600080fd5b615356615d10565b905061536182615320565b81526020820135602082015260408201356040820152606082013560608201526080820135608082015260a082013560a08201526153a160c08301615330565b60c082015260e082013560e082015261010080830135818301525061012080830135818301525061014080830135818301525092915050565b6000602082840312156153ec57600080fd5b8135611a9d81615f02565b60008060006060848603121561540c57600080fd5b833561541781615f02565b9250602084013561542781615f02565b929592945050506040919091013590565b6000806040838503121561544b57600080fd5b823561545681615f02565b946020939093013593505050565b60008060006060848603121561547957600080fd5b833561548481615f02565b95602085013595506040909401359392505050565b600080600080608085870312156154af57600080fd5b84356154ba81615f02565b9350602085013592506040850135915060608501356154d881615f17565b939692955090935050565b60008060008060008060c087890312156154fc57600080fd5b863561550781615f02565b95506020870135945060408701359350606087013561552581615f17565b9250608087013561553581615f17565b915060a087013561554581615f17565b809150509295509295509295565b600080600080600080600060e0888a03121561556e57600080fd5b873561557981615f02565b96506020880135955060408801359450606088013561559781615f17565b9699959850939660808101359560a0820135955060c0909101359350915050565b600080600080608085870312156155ce57600080fd5b84356155d981615f02565b966020860135965060408601359560600135945092505050565b60006020828403121561560557600080fd5b8135611a9d81615f17565b60006020828403121561562257600080fd5b8151611a9d81615f17565b60006020828403121561563f57600080fd5b8151611a9d81615f02565b6000610180828403121561565d57600080fd5b50919050565b6000610180828403121561567657600080fd5b61567e615d48565b61568783615320565b81526020830135602082015260408301356040820152606083013560608201526156b360808401615330565b608082015260a0838101359082015260c0808401359082015260e08084013590820152610100808401359082015261012080840135908201526101408084013590820152610160928301359281019290925250919050565b60006080828403121561571d57600080fd5b6040516080810181811067ffffffffffffffff8211171561574e57634e487b7160e01b600052604160045260246000fd5b6040528251815260208301516009811061576757600080fd5b602082015260408381015190820152606083015161578481615f17565b60608201529392505050565b60008082840360a08112156157a457600080fd5b60808112156157b257600080fd5b506157bb615d7a565b83356157c681615f02565b8082525060208401356020820152604084013560408201526060840135600481106157f057600080fd5b6060820152946080939093013593505050565b600080600083850361020081121561581a57600080fd5b6101c08082121561582a57600080fd5b615832615d7a565b915061583e878761533b565b8252610160860135602083015261018086013560408301526101a0860135606083015290935084013591506101e084013561587881615f17565b809150509250925092565b6000610160828403121561589657600080fd5b611a9d838361533b565b60008060008385036102208112156158b757600080fd5b6158c1868661533b565b935060a061015f19820112156158d657600080fd5b506158df615dab565b610160850135815261018085013560208201526101a085013560408201526101c085013561590c81615f17565b60608201526101e08501356080820152915061020084013561587881615f17565b60006020828403121561593f57600080fd5b5035919050565b60006020828403121561595857600080fd5b5051919050565b60008060006060848603121561597457600080fd5b83519250602084015161598681615f02565b80925050604084015190509250925092565b600080604083850312156159ab57600080fd5b8235915060208301356159bd81615f17565b809150509250929050565b6000806000606084860312156159dd57600080fd5b83359250602084013561542781615f17565b60008060408385031215615a0257600080fd5b50508035926020909101359150565b80516001600160a01b031682526020810151602083015260408101516040830152606081015160608301526080810151615a4f608084018215159052565b5060a0818101519083015260c0808201519083015260e0808201519083015261010080820151908301526101208082015190830152610140808201519083015261016090810151910152565b80516001600160a01b031682526020810151602083015260408101516040830152606081015160608301526080810151608083015260a081015160a083015260c0810151615aed60c084018215159052565b5060e081810151908301526101008082015190830152610120808201519083015261014090810151910152565b60008251615b2c818460208701615e4c565b9190910192915050565b6020808252825182820181905260009190848201906040850190845b81811015615b775783516001600160a01b031683529284019291840191600101615b52565b50909695505050505050565b6020808252825182820181905260009190848201906040850190845b81811015615b7757615bb2838551615a11565b928401926101809290920191600101615b9f565b60408101818360005b6002811015615bee578151835260209283019290910190600101615bcf565b50505092915050565b6020808252825182820181905260009190848201906040850190845b81811015615b7757835183529284019291840191600101615c13565b6020815260008251806020840152615c4e816040850160208701615e4c565b601f01601f19169190910160400192915050565b61018081016111ee8284615a11565b81516001600160a01b0316815260208083015190820152604080830151908201526060820151608082019060048110615cba57634e487b7160e01b600052602160045260246000fd5b8060608401525092915050565b60006101c082019050615cdb828451615a9b565b602083015161016083015260408301516101808301526060909201516101a09091015290565b61016081016111ee8284615a9b565b604051610160810167ffffffffffffffff81118282101715615d4257634e487b7160e01b600052604160045260246000fd5b60405290565b604051610180810167ffffffffffffffff81118282101715615d4257634e487b7160e01b600052604160045260246000fd5b6040516080810167ffffffffffffffff81118282101715615d4257634e487b7160e01b600052604160045260246000fd5b60405160a0810167ffffffffffffffff81118282101715615d4257634e487b7160e01b600052604160045260246000fd5b60008219821115615def57615def615eaa565b500190565b600082615e1157634e487b7160e01b600052601260045260246000fd5b500490565b6000816000190483118215151615615e3057615e30615eaa565b500290565b600082821015615e4757615e47615eaa565b500390565b60005b83811015615e67578181015183820152602001615e4f565b838111156117a65750506000910152565b600081615e8757615e87615eaa565b506000190190565b6000600019821415615ea357615ea3615eaa565b5060010190565b634e487b7160e01b600052601160045260246000fd5b634e487b7160e01b600052602160045260246000fd5b634e487b7160e01b600052603160045260246000fd5b634e487b7160e01b600052603260045260246000fd5b6001600160a01b038116811461240257600080fd5b801515811461240257600080fdfe943e9d45a11aaae5d87503e3bc248665d9807856e5cf2bdb4a988bee44422781a264697066735822122082e28b38e1bcc96710c5012f26a6c1bc3afdc27749c311b36aa517eb1f15c0fa64736f6c63430008070033","linkReferences":{}},"methodIdentifiers":{"addTradingContract(address)":"f823e2ae","applyReferralAndPnlFee(address,uint256,uint256,bool,uint256,int256,uint256)":"6b2d653f","blockOI(uint256,uint256)":"b222cb38","callbacks()":"00b12783","claimFees()":"d294f093","claimRebate()":"cda3948f","dev()":"91cca3db","devFeesUSDC()":"34df8540","firstEmptyOpenLimitIndex(address,uint256)":"44d44f5a","firstEmptyTradeIndex(address,uint256)":"292c1617","forceUnregisterPendingMarketOrder(uint256)":"0d32c907","getOpenLimitOrder(address,uint256,uint256)":"b8878a2c","getOpenLimitOrders()":"8a0bd702","getPendingOrderIds(address)":"5c76ac9e","getUsdOI()":"8ecf3f5a","gov()":"12d43a51","govFeesUSDC()":"3c6d6fa0","govTreasury()":"ff12673a","handleDevGovFees(address,uint256,uint256,bool,bool,bool)":"2a9a9667","hasOpenLimitOrder(address,uint256,uint256)":"dcdf339a","incrementClosingFees(uint256,uint256)":"0fe1c91f","initialize()":"8129fc1c","isTradingContract(address)":"6d81d981","isValidOI(uint256,bool,uint256)":"422a4214","maxOpenInterest()":"dc6638f4","maxPendingMarketOrders()":"8049fde7","maxTradesPerPair()":"f65d9dbe","openInterestUSDC(uint256,uint256)":"9cb87f23","openLimitOrderIds(address,uint256,uint256)":"eda00d54","openLimitOrders(uint256)":"32149592","openLimitOrdersCount(address,uint256)":"97e7995a","openTrades(address,uint256,uint256)":"a3a80ffe","openTradesCount(address,uint256)":"1c8636b4","openTradesInfo(address,uint256,uint256)":"8c8ff1d5","pairLongOI(uint256)":"6817f576","pairOI(uint256)":"f1694292","pairShortOI(uint256)":"d45bc332","pairTraders(uint256,uint256)":"e3cbe3a7","pairTradersArray(uint256)":"5fbfe8cc","pairTradersId(address,uint256)":"4415b369","pendingMarketCloseCount(address,uint256)":"b7682d54","pendingMarketOpenCount(address,uint256)":"9c8912f1","pendingOrderIds(address,uint256)":"bcc9f1d3","pendingOrderIdsCount(address)":"f7b3c6fd","priceAggregator()":"3078fff5","rebates(address)":"f4ccf54e","referral()":"1441a5a9","registerPartialTrade(address,uint256,uint256,uint256)":"3f64d036","removeTradingContract(address)":"5b621e32","reqIDpendingLimitOrder(uint256)":"6c7be83a","reqIDpendingMarketOrder(uint256)":"d5dabd75","requestGov(address)":"50bb2578","requestedGov()":"66ac654d","setCallbacks(address)":"fe0fc8d6","setDev(address)":"d477f05f","setGov(address)":"cfad57a2","setGovTreasury(address)":"05f3c6ad","setMaxPendingMarketOrders(uint256)":"ecf56a1f","setMaxTradesPerPair(uint256)":"dc2123ff","setPriceAggregator(address)":"5070e837","setReferral(address)":"9e5914da","setTrading(address)":"a553906c","setTvlCap(uint256)":"dd0290e2","setUSDC(address)":"b3e089a2","setVaultManager(address)":"b543503e","storeOpenLimitOrder((address,uint256,uint256,uint256,bool,uint256,uint256,uint256,uint256,uint256,uint256,uint256))":"fdb153e2","storePendingLimitOrder((address,uint256,uint256,uint8),uint256)":"d775d548","storePendingMarketOrder(((address,uint256,uint256,uint256,uint256,uint256,bool,uint256,uint256,uint256,uint256),uint256,uint256,uint256),uint256,bool)":"d8137fe8","storeTrade((address,uint256,uint256,uint256,uint256,uint256,bool,uint256,uint256,uint256,uint256),(uint256,uint256,uint256,bool,uint256),bool)":"f41450b5","totalOI()":"443295dc","trading()":"ec44acf2","transferUSDC(address,address,uint256)":"8b83351a","tvlCap()":"3f23fa1a","unregisterOpenLimitOrder(address,uint256,uint256)":"b4b0f567","unregisterPendingLimitOrder(uint256)":"7ada8483","unregisterPendingMarketOrder(uint256,bool)":"cab94580","unregisterTrade(address,uint256,uint256)":"90d112b9","updateOpenLimitOrder((address,uint256,uint256,uint256,bool,uint256,uint256,uint256,uint256,uint256,uint256,uint256))":"ae8ac94e","updateSl(address,uint256,uint256,uint256)":"a3544181","updateTp(address,uint256,uint256,uint256)":"7fdb96f3","updateTrade((address,uint256,uint256,uint256,uint256,uint256,bool,uint256,uint256,uint256,uint256))":"f0cb9b11","usdOI(uint256)":"7eed1d30","usdc()":"3e413bee","vaultManager()":"8a4adf24","walletOI(address)":"b87cb1da","withinExposureLimits(address,uint256,uint256,bool)":"c45cceb6"},"id":113}