{"abi":[{"type":"constructor","inputs":[],"stateMutability":"nonpayable"},{"type":"function","name":"addTradingContract","inputs":[{"name":"__trading","type":"address","internalType":"address"}],"outputs":[],"stateMutability":"nonpayable"},{"type":"function","name":"applyReferral","inputs":[{"name":"_trader","type":"address","internalType":"address"},{"name":"_fees","type":"uint256","internalType":"uint256"},{"name":"_leveragedPosition","type":"uint256","internalType":"uint256"}],"outputs":[{"name":"","type":"uint256","internalType":"uint256"},{"name":"","type":"uint256","internalType":"uint256"}],"stateMutability":"nonpayable"},{"type":"function","name":"blockOI","inputs":[{"name":"","type":"uint256","internalType":"uint256"},{"name":"","type":"uint256","internalType":"uint256"}],"outputs":[{"name":"","type":"uint256","internalType":"uint256"}],"stateMutability":"view"},{"type":"function","name":"callbacks","inputs":[],"outputs":[{"name":"","type":"address","internalType":"address"}],"stateMutability":"view"},{"type":"function","name":"claimFees","inputs":[],"outputs":[],"stateMutability":"nonpayable"},{"type":"function","name":"claimRebate","inputs":[],"outputs":[],"stateMutability":"nonpayable"},{"type":"function","name":"dev","inputs":[],"outputs":[{"name":"","type":"address","internalType":"address"}],"stateMutability":"view"},{"type":"function","name":"devFeesUSDC","inputs":[],"outputs":[{"name":"","type":"uint256","internalType":"uint256"}],"stateMutability":"view"},{"type":"function","name":"firstEmptyOpenLimitIndex","inputs":[{"name":"trader","type":"address","internalType":"address"},{"name":"pairIndex","type":"uint256","internalType":"uint256"}],"outputs":[{"name":"index","type":"uint256","internalType":"uint256"}],"stateMutability":"view"},{"type":"function","name":"firstEmptyTradeIndex","inputs":[{"name":"trader","type":"address","internalType":"address"},{"name":"pairIndex","type":"uint256","internalType":"uint256"}],"outputs":[{"name":"index","type":"uint256","internalType":"uint256"}],"stateMutability":"view"},{"type":"function","name":"forceUnregisterPendingMarketOrder","inputs":[{"name":"_id","type":"uint256","internalType":"uint256"}],"outputs":[],"stateMutability":"nonpayable"},{"type":"function","name":"getOpenLimitOrder","inputs":[{"name":"_trader","type":"address","internalType":"address"},{"name":"_pairIndex","type":"uint256","internalType":"uint256"},{"name":"_index","type":"uint256","internalType":"uint256"}],"outputs":[{"name":"","type":"tuple","internalType":"struct ITradingStorage.OpenLimitOrder","components":[{"name":"trader","type":"address","internalType":"address"},{"name":"pairIndex","type":"uint256","internalType":"uint256"},{"name":"index","type":"uint256","internalType":"uint256"},{"name":"positionSize","type":"uint256","internalType":"uint256"},{"name":"buy","type":"bool","internalType":"bool"},{"name":"leverage","type":"uint256","internalType":"uint256"},{"name":"tp","type":"uint256","internalType":"uint256"},{"name":"sl","type":"uint256","internalType":"uint256"},{"name":"price","type":"uint256","internalType":"uint256"},{"name":"slippageP","type":"uint256","internalType":"uint256"},{"name":"block","type":"uint256","internalType":"uint256"},{"name":"executionFee","type":"uint256","internalType":"uint256"}]}],"stateMutability":"view"},{"type":"function","name":"getOpenLimitOrders","inputs":[],"outputs":[{"name":"","type":"tuple[]","internalType":"struct ITradingStorage.OpenLimitOrder[]","components":[{"name":"trader","type":"address","internalType":"address"},{"name":"pairIndex","type":"uint256","internalType":"uint256"},{"name":"index","type":"uint256","internalType":"uint256"},{"name":"positionSize","type":"uint256","internalType":"uint256"},{"name":"buy","type":"bool","internalType":"bool"},{"name":"leverage","type":"uint256","internalType":"uint256"},{"name":"tp","type":"uint256","internalType":"uint256"},{"name":"sl","type":"uint256","internalType":"uint256"},{"name":"price","type":"uint256","internalType":"uint256"},{"name":"slippageP","type":"uint256","internalType":"uint256"},{"name":"block","type":"uint256","internalType":"uint256"},{"name":"executionFee","type":"uint256","internalType":"uint256"}]}],"stateMutability":"view"},{"type":"function","name":"getPendingOrderIds","inputs":[{"name":"_trader","type":"address","internalType":"address"}],"outputs":[{"name":"","type":"uint256[]","internalType":"uint256[]"}],"stateMutability":"view"},{"type":"function","name":"getUsdOI","inputs":[],"outputs":[{"name":"","type":"uint256[2]","internalType":"uint256[2]"}],"stateMutability":"view"},{"type":"function","name":"gov","inputs":[],"outputs":[{"name":"","type":"address","internalType":"address"}],"stateMutability":"view"},{"type":"function","name":"govFeesUSDC","inputs":[],"outputs":[{"name":"","type":"uint256","internalType":"uint256"}],"stateMutability":"view"},{"type":"function","name":"govTreasury","inputs":[],"outputs":[{"name":"","type":"address","internalType":"address"}],"stateMutability":"view"},{"type":"function","name":"handleDevGovFees","inputs":[{"name":"_trader","type":"address","internalType":"address"},{"name":"_pairIndex","type":"uint256","internalType":"uint256"},{"name":"_leveragedPositionSize","type":"uint256","internalType":"uint256"},{"name":"_usdc","type":"bool","internalType":"bool"},{"name":"_fullFee","type":"bool","internalType":"bool"},{"name":"_buy","type":"bool","internalType":"bool"}],"outputs":[{"name":"feeAfterRebate","type":"uint256","internalType":"uint256"}],"stateMutability":"nonpayable"},{"type":"function","name":"hasOpenLimitOrder","inputs":[{"name":"trader","type":"address","internalType":"address"},{"name":"pairIndex","type":"uint256","internalType":"uint256"},{"name":"index","type":"uint256","internalType":"uint256"}],"outputs":[{"name":"","type":"bool","internalType":"bool"}],"stateMutability":"view"},{"type":"function","name":"initialize","inputs":[],"outputs":[],"stateMutability":"nonpayable"},{"type":"function","name":"isTradingContract","inputs":[{"name":"","type":"address","internalType":"address"}],"outputs":[{"name":"","type":"bool","internalType":"bool"}],"stateMutability":"view"},{"type":"function","name":"maxOpenInterest","inputs":[],"outputs":[{"name":"","type":"uint256","internalType":"uint256"}],"stateMutability":"view"},{"type":"function","name":"maxPendingMarketOrders","inputs":[],"outputs":[{"name":"","type":"uint256","internalType":"uint256"}],"stateMutability":"view"},{"type":"function","name":"maxTradesPerPair","inputs":[],"outputs":[{"name":"","type":"uint256","internalType":"uint256"}],"stateMutability":"view"},{"type":"function","name":"openInterestUSDC","inputs":[{"name":"","type":"uint256","internalType":"uint256"},{"name":"","type":"uint256","internalType":"uint256"}],"outputs":[{"name":"","type":"uint256","internalType":"uint256"}],"stateMutability":"view"},{"type":"function","name":"openLimitOrderIds","inputs":[{"name":"","type":"address","internalType":"address"},{"name":"","type":"uint256","internalType":"uint256"},{"name":"","type":"uint256","internalType":"uint256"}],"outputs":[{"name":"","type":"uint256","internalType":"uint256"}],"stateMutability":"view"},{"type":"function","name":"openLimitOrders","inputs":[{"name":"","type":"uint256","internalType":"uint256"}],"outputs":[{"name":"trader","type":"address","internalType":"address"},{"name":"pairIndex","type":"uint256","internalType":"uint256"},{"name":"index","type":"uint256","internalType":"uint256"},{"name":"positionSize","type":"uint256","internalType":"uint256"},{"name":"buy","type":"bool","internalType":"bool"},{"name":"leverage","type":"uint256","internalType":"uint256"},{"name":"tp","type":"uint256","internalType":"uint256"},{"name":"sl","type":"uint256","internalType":"uint256"},{"name":"price","type":"uint256","internalType":"uint256"},{"name":"slippageP","type":"uint256","internalType":"uint256"},{"name":"block","type":"uint256","internalType":"uint256"},{"name":"executionFee","type":"uint256","internalType":"uint256"}],"stateMutability":"view"},{"type":"function","name":"openLimitOrdersCount","inputs":[{"name":"","type":"address","internalType":"address"},{"name":"","type":"uint256","internalType":"uint256"}],"outputs":[{"name":"","type":"uint256","internalType":"uint256"}],"stateMutability":"view"},{"type":"function","name":"openTrades","inputs":[{"name":"_trader","type":"address","internalType":"address"},{"name":"_pairIndex","type":"uint256","internalType":"uint256"},{"name":"_index","type":"uint256","internalType":"uint256"}],"outputs":[{"name":"","type":"tuple","internalType":"struct ITradingStorage.Trade","components":[{"name":"trader","type":"address","internalType":"address"},{"name":"pairIndex","type":"uint256","internalType":"uint256"},{"name":"index","type":"uint256","internalType":"uint256"},{"name":"initialPosToken","type":"uint256","internalType":"uint256"},{"name":"positionSizeUSDC","type":"uint256","internalType":"uint256"},{"name":"openPrice","type":"uint256","internalType":"uint256"},{"name":"buy","type":"bool","internalType":"bool"},{"name":"leverage","type":"uint256","internalType":"uint256"},{"name":"tp","type":"uint256","internalType":"uint256"},{"name":"sl","type":"uint256","internalType":"uint256"},{"name":"timestamp","type":"uint256","internalType":"uint256"}]}],"stateMutability":"view"},{"type":"function","name":"openTradesCount","inputs":[{"name":"_trader","type":"address","internalType":"address"},{"name":"_pairIndex","type":"uint256","internalType":"uint256"}],"outputs":[{"name":"","type":"uint256","internalType":"uint256"}],"stateMutability":"view"},{"type":"function","name":"openTradesInfo","inputs":[{"name":"_trader","type":"address","internalType":"address"},{"name":"_pairIndex","type":"uint256","internalType":"uint256"},{"name":"_index","type":"uint256","internalType":"uint256"}],"outputs":[{"name":"","type":"tuple","internalType":"struct ITradingStorage.TradeInfo","components":[{"name":"openInterestUSDC","type":"uint256","internalType":"uint256"},{"name":"tpLastUpdated","type":"uint256","internalType":"uint256"},{"name":"slLastUpdated","type":"uint256","internalType":"uint256"},{"name":"beingMarketClosed","type":"bool","internalType":"bool"},{"name":"lossProtection","type":"uint256","internalType":"uint256"}]}],"stateMutability":"view"},{"type":"function","name":"pairOI","inputs":[{"name":"_pairIndex","type":"uint256","internalType":"uint256"}],"outputs":[{"name":"","type":"uint256","internalType":"uint256"}],"stateMutability":"view"},{"type":"function","name":"pairTraders","inputs":[{"name":"","type":"uint256","internalType":"uint256"},{"name":"","type":"uint256","internalType":"uint256"}],"outputs":[{"name":"","type":"address","internalType":"address"}],"stateMutability":"view"},{"type":"function","name":"pairTradersArray","inputs":[{"name":"_pairIndex","type":"uint256","internalType":"uint256"}],"outputs":[{"name":"","type":"address[]","internalType":"address[]"}],"stateMutability":"view"},{"type":"function","name":"pairTradersId","inputs":[{"name":"","type":"address","internalType":"address"},{"name":"","type":"uint256","internalType":"uint256"}],"outputs":[{"name":"","type":"uint256","internalType":"uint256"}],"stateMutability":"view"},{"type":"function","name":"pendingMarketCloseCount","inputs":[{"name":"","type":"address","internalType":"address"},{"name":"","type":"uint256","internalType":"uint256"}],"outputs":[{"name":"","type":"uint256","internalType":"uint256"}],"stateMutability":"view"},{"type":"function","name":"pendingMarketOpenCount","inputs":[{"name":"","type":"address","internalType":"address"},{"name":"","type":"uint256","internalType":"uint256"}],"outputs":[{"name":"","type":"uint256","internalType":"uint256"}],"stateMutability":"view"},{"type":"function","name":"pendingOrderIds","inputs":[{"name":"","type":"address","internalType":"address"},{"name":"","type":"uint256","internalType":"uint256"}],"outputs":[{"name":"","type":"uint256","internalType":"uint256"}],"stateMutability":"view"},{"type":"function","name":"pendingOrderIdsCount","inputs":[{"name":"_trader","type":"address","internalType":"address"}],"outputs":[{"name":"","type":"uint256","internalType":"uint256"}],"stateMutability":"view"},{"type":"function","name":"priceAggregator","inputs":[],"outputs":[{"name":"","type":"address","internalType":"contract IPriceAggregator"}],"stateMutability":"view"},{"type":"function","name":"rebates","inputs":[{"name":"","type":"address","internalType":"address"}],"outputs":[{"name":"","type":"uint256","internalType":"uint256"}],"stateMutability":"view"},{"type":"function","name":"referral","inputs":[],"outputs":[{"name":"","type":"address","internalType":"contract IReferral"}],"stateMutability":"view"},{"type":"function","name":"registerPartialTrade","inputs":[{"name":"trader","type":"address","internalType":"address"},{"name":"pairIndex","type":"uint256","internalType":"uint256"},{"name":"index","type":"uint256","internalType":"uint256"},{"name":"_amountReduced","type":"uint256","internalType":"uint256"}],"outputs":[],"stateMutability":"nonpayable"},{"type":"function","name":"removeTradingContract","inputs":[{"name":"__trading","type":"address","internalType":"address"}],"outputs":[],"stateMutability":"nonpayable"},{"type":"function","name":"reqIDpendingLimitOrder","inputs":[{"name":"orderId","type":"uint256","internalType":"uint256"}],"outputs":[{"name":"","type":"tuple","internalType":"struct ITradingStorage.PendingLimitOrder","components":[{"name":"trader","type":"address","internalType":"address"},{"name":"pairIndex","type":"uint256","internalType":"uint256"},{"name":"index","type":"uint256","internalType":"uint256"},{"name":"orderType","type":"uint8","internalType":"enum ITradingStorage.LimitOrder"}]}],"stateMutability":"view"},{"type":"function","name":"reqIDpendingMarketOrder","inputs":[{"name":"orderId","type":"uint256","internalType":"uint256"}],"outputs":[{"name":"","type":"tuple","internalType":"struct ITradingStorage.PendingMarketOrder","components":[{"name":"trade","type":"tuple","internalType":"struct ITradingStorage.Trade","components":[{"name":"trader","type":"address","internalType":"address"},{"name":"pairIndex","type":"uint256","internalType":"uint256"},{"name":"index","type":"uint256","internalType":"uint256"},{"name":"initialPosToken","type":"uint256","internalType":"uint256"},{"name":"positionSizeUSDC","type":"uint256","internalType":"uint256"},{"name":"openPrice","type":"uint256","internalType":"uint256"},{"name":"buy","type":"bool","internalType":"bool"},{"name":"leverage","type":"uint256","internalType":"uint256"},{"name":"tp","type":"uint256","internalType":"uint256"},{"name":"sl","type":"uint256","internalType":"uint256"},{"name":"timestamp","type":"uint256","internalType":"uint256"}]},{"name":"block","type":"uint256","internalType":"uint256"},{"name":"wantedPrice","type":"uint256","internalType":"uint256"},{"name":"slippageP","type":"uint256","internalType":"uint256"}]}],"stateMutability":"view"},{"type":"function","name":"requestGov","inputs":[{"name":"_gov","type":"address","internalType":"address"}],"outputs":[],"stateMutability":"nonpayable"},{"type":"function","name":"requestedGov","inputs":[],"outputs":[{"name":"","type":"address","internalType":"address"}],"stateMutability":"view"},{"type":"function","name":"setCallbacks","inputs":[{"name":"__callbacks","type":"address","internalType":"address"}],"outputs":[],"stateMutability":"nonpayable"},{"type":"function","name":"setDev","inputs":[{"name":"_dev","type":"address","internalType":"address"}],"outputs":[],"stateMutability":"nonpayable"},{"type":"function","name":"setGov","inputs":[{"name":"_gov","type":"address","internalType":"address"}],"outputs":[],"stateMutability":"nonpayable"},{"type":"function","name":"setGovTreasury","inputs":[{"name":"_govTreasury","type":"address","internalType":"address"}],"outputs":[],"stateMutability":"nonpayable"},{"type":"function","name":"setMaxPendingMarketOrders","inputs":[{"name":"_maxPendingMarketOrders","type":"uint256","internalType":"uint256"}],"outputs":[],"stateMutability":"nonpayable"},{"type":"function","name":"setMaxTradesPerPair","inputs":[{"name":"_maxTradesPerPair","type":"uint256","internalType":"uint256"}],"outputs":[],"stateMutability":"nonpayable"},{"type":"function","name":"setPriceAggregator","inputs":[{"name":"_aggregator","type":"address","internalType":"address"}],"outputs":[],"stateMutability":"nonpayable"},{"type":"function","name":"setReferral","inputs":[{"name":"_refferal","type":"address","internalType":"address"}],"outputs":[],"stateMutability":"nonpayable"},{"type":"function","name":"setTrading","inputs":[{"name":"__trading","type":"address","internalType":"address"}],"outputs":[],"stateMutability":"nonpayable"},{"type":"function","name":"setTvlCap","inputs":[{"name":"_newCap","type":"uint256","internalType":"uint256"}],"outputs":[],"stateMutability":"nonpayable"},{"type":"function","name":"setUSDC","inputs":[{"name":"_token","type":"address","internalType":"address"}],"outputs":[],"stateMutability":"nonpayable"},{"type":"function","name":"setVaultManager","inputs":[{"name":"_vaultManager","type":"address","internalType":"address"}],"outputs":[],"stateMutability":"nonpayable"},{"type":"function","name":"storeOpenLimitOrder","inputs":[{"name":"o","type":"tuple","internalType":"struct ITradingStorage.OpenLimitOrder","components":[{"name":"trader","type":"address","internalType":"address"},{"name":"pairIndex","type":"uint256","internalType":"uint256"},{"name":"index","type":"uint256","internalType":"uint256"},{"name":"positionSize","type":"uint256","internalType":"uint256"},{"name":"buy","type":"bool","internalType":"bool"},{"name":"leverage","type":"uint256","internalType":"uint256"},{"name":"tp","type":"uint256","internalType":"uint256"},{"name":"sl","type":"uint256","internalType":"uint256"},{"name":"price","type":"uint256","internalType":"uint256"},{"name":"slippageP","type":"uint256","internalType":"uint256"},{"name":"block","type":"uint256","internalType":"uint256"},{"name":"executionFee","type":"uint256","internalType":"uint256"}]}],"outputs":[],"stateMutability":"nonpayable"},{"type":"function","name":"storePendingLimitOrder","inputs":[{"name":"_limitOrder","type":"tuple","internalType":"struct ITradingStorage.PendingLimitOrder","components":[{"name":"trader","type":"address","internalType":"address"},{"name":"pairIndex","type":"uint256","internalType":"uint256"},{"name":"index","type":"uint256","internalType":"uint256"},{"name":"orderType","type":"uint8","internalType":"enum ITradingStorage.LimitOrder"}]},{"name":"_orderId","type":"uint256","internalType":"uint256"}],"outputs":[],"stateMutability":"nonpayable"},{"type":"function","name":"storePendingMarketOrder","inputs":[{"name":"_order","type":"tuple","internalType":"struct ITradingStorage.PendingMarketOrder","components":[{"name":"trade","type":"tuple","internalType":"struct ITradingStorage.Trade","components":[{"name":"trader","type":"address","internalType":"address"},{"name":"pairIndex","type":"uint256","internalType":"uint256"},{"name":"index","type":"uint256","internalType":"uint256"},{"name":"initialPosToken","type":"uint256","internalType":"uint256"},{"name":"positionSizeUSDC","type":"uint256","internalType":"uint256"},{"name":"openPrice","type":"uint256","internalType":"uint256"},{"name":"buy","type":"bool","internalType":"bool"},{"name":"leverage","type":"uint256","internalType":"uint256"},{"name":"tp","type":"uint256","internalType":"uint256"},{"name":"sl","type":"uint256","internalType":"uint256"},{"name":"timestamp","type":"uint256","internalType":"uint256"}]},{"name":"block","type":"uint256","internalType":"uint256"},{"name":"wantedPrice","type":"uint256","internalType":"uint256"},{"name":"slippageP","type":"uint256","internalType":"uint256"}]},{"name":"_id","type":"uint256","internalType":"uint256"},{"name":"_open","type":"bool","internalType":"bool"}],"outputs":[],"stateMutability":"nonpayable"},{"type":"function","name":"storeTrade","inputs":[{"name":"_trade","type":"tuple","internalType":"struct ITradingStorage.Trade","components":[{"name":"trader","type":"address","internalType":"address"},{"name":"pairIndex","type":"uint256","internalType":"uint256"},{"name":"index","type":"uint256","internalType":"uint256"},{"name":"initialPosToken","type":"uint256","internalType":"uint256"},{"name":"positionSizeUSDC","type":"uint256","internalType":"uint256"},{"name":"openPrice","type":"uint256","internalType":"uint256"},{"name":"buy","type":"bool","internalType":"bool"},{"name":"leverage","type":"uint256","internalType":"uint256"},{"name":"tp","type":"uint256","internalType":"uint256"},{"name":"sl","type":"uint256","internalType":"uint256"},{"name":"timestamp","type":"uint256","internalType":"uint256"}]},{"name":"_tradeInfo","type":"tuple","internalType":"struct ITradingStorage.TradeInfo","components":[{"name":"openInterestUSDC","type":"uint256","internalType":"uint256"},{"name":"tpLastUpdated","type":"uint256","internalType":"uint256"},{"name":"slLastUpdated","type":"uint256","internalType":"uint256"},{"name":"beingMarketClosed","type":"bool","internalType":"bool"},{"name":"lossProtection","type":"uint256","internalType":"uint256"}]}],"outputs":[],"stateMutability":"nonpayable"},{"type":"function","name":"totalOI","inputs":[],"outputs":[{"name":"","type":"uint256","internalType":"uint256"}],"stateMutability":"view"},{"type":"function","name":"trading","inputs":[],"outputs":[{"name":"","type":"address","internalType":"address"}],"stateMutability":"view"},{"type":"function","name":"transferUSDC","inputs":[{"name":"_from","type":"address","internalType":"address"},{"name":"_to","type":"address","internalType":"address"},{"name":"_amount","type":"uint256","internalType":"uint256"}],"outputs":[],"stateMutability":"nonpayable"},{"type":"function","name":"tvlCap","inputs":[],"outputs":[{"name":"","type":"uint256","internalType":"uint256"}],"stateMutability":"view"},{"type":"function","name":"unregisterOpenLimitOrder","inputs":[{"name":"_trader","type":"address","internalType":"address"},{"name":"_pairIndex","type":"uint256","internalType":"uint256"},{"name":"_index","type":"uint256","internalType":"uint256"}],"outputs":[],"stateMutability":"nonpayable"},{"type":"function","name":"unregisterPendingLimitOrder","inputs":[{"name":"_order","type":"uint256","internalType":"uint256"}],"outputs":[],"stateMutability":"nonpayable"},{"type":"function","name":"unregisterPendingMarketOrder","inputs":[{"name":"_id","type":"uint256","internalType":"uint256"},{"name":"_open","type":"bool","internalType":"bool"}],"outputs":[],"stateMutability":"nonpayable"},{"type":"function","name":"unregisterTrade","inputs":[{"name":"trader","type":"address","internalType":"address"},{"name":"pairIndex","type":"uint256","internalType":"uint256"},{"name":"index","type":"uint256","internalType":"uint256"}],"outputs":[],"stateMutability":"nonpayable"},{"type":"function","name":"updateOpenLimitOrder","inputs":[{"name":"_o","type":"tuple","internalType":"struct ITradingStorage.OpenLimitOrder","components":[{"name":"trader","type":"address","internalType":"address"},{"name":"pairIndex","type":"uint256","internalType":"uint256"},{"name":"index","type":"uint256","internalType":"uint256"},{"name":"positionSize","type":"uint256","internalType":"uint256"},{"name":"buy","type":"bool","internalType":"bool"},{"name":"leverage","type":"uint256","internalType":"uint256"},{"name":"tp","type":"uint256","internalType":"uint256"},{"name":"sl","type":"uint256","internalType":"uint256"},{"name":"price","type":"uint256","internalType":"uint256"},{"name":"slippageP","type":"uint256","internalType":"uint256"},{"name":"block","type":"uint256","internalType":"uint256"},{"name":"executionFee","type":"uint256","internalType":"uint256"}]}],"outputs":[],"stateMutability":"nonpayable"},{"type":"function","name":"updateSl","inputs":[{"name":"_trader","type":"address","internalType":"address"},{"name":"_pairIndex","type":"uint256","internalType":"uint256"},{"name":"_index","type":"uint256","internalType":"uint256"},{"name":"_newSl","type":"uint256","internalType":"uint256"}],"outputs":[],"stateMutability":"nonpayable"},{"type":"function","name":"updateTp","inputs":[{"name":"_trader","type":"address","internalType":"address"},{"name":"_pairIndex","type":"uint256","internalType":"uint256"},{"name":"_index","type":"uint256","internalType":"uint256"},{"name":"_newTp","type":"uint256","internalType":"uint256"}],"outputs":[],"stateMutability":"nonpayable"},{"type":"function","name":"updateTrade","inputs":[{"name":"_t","type":"tuple","internalType":"struct ITradingStorage.Trade","components":[{"name":"trader","type":"address","internalType":"address"},{"name":"pairIndex","type":"uint256","internalType":"uint256"},{"name":"index","type":"uint256","internalType":"uint256"},{"name":"initialPosToken","type":"uint256","internalType":"uint256"},{"name":"positionSizeUSDC","type":"uint256","internalType":"uint256"},{"name":"openPrice","type":"uint256","internalType":"uint256"},{"name":"buy","type":"bool","internalType":"bool"},{"name":"leverage","type":"uint256","internalType":"uint256"},{"name":"tp","type":"uint256","internalType":"uint256"},{"name":"sl","type":"uint256","internalType":"uint256"},{"name":"timestamp","type":"uint256","internalType":"uint256"}]}],"outputs":[],"stateMutability":"nonpayable"},{"type":"function","name":"usdOI","inputs":[{"name":"","type":"uint256","internalType":"uint256"}],"outputs":[{"name":"","type":"uint256","internalType":"uint256"}],"stateMutability":"view"},{"type":"function","name":"usdc","inputs":[],"outputs":[{"name":"","type":"address","internalType":"contract IERC20"}],"stateMutability":"view"},{"type":"function","name":"vaultManager","inputs":[],"outputs":[{"name":"","type":"address","internalType":"contract IVaultManager"}],"stateMutability":"view"},{"type":"function","name":"walletOI","inputs":[{"name":"_trader","type":"address","internalType":"address"}],"outputs":[{"name":"","type":"uint256","internalType":"uint256"}],"stateMutability":"view"},{"type":"event","name":"AddressUpdated","inputs":[{"name":"name","type":"string","indexed":false,"internalType":"string"},{"name":"a","type":"address","indexed":false,"internalType":"address"}],"anonymous":false},{"type":"event","name":"FeesCharged","inputs":[{"name":"_trader","type":"address","indexed":false,"internalType":"address"},{"name":"_pairIndex","type":"uint256","indexed":false,"internalType":"uint256"},{"name":"_buy","type":"bool","indexed":false,"internalType":"bool"},{"name":"fee","type":"uint256","indexed":false,"internalType":"uint256"}],"anonymous":false},{"type":"event","name":"Initialized","inputs":[{"name":"version","type":"uint8","indexed":false,"internalType":"uint8"}],"anonymous":false},{"type":"event","name":"MarketOpenCanceled","inputs":[{"name":"orderId","type":"uint256","indexed":false,"internalType":"uint256"},{"name":"trader","type":"address","indexed":true,"internalType":"address"},{"name":"pairIndex","type":"uint256","indexed":false,"internalType":"uint256"}],"anonymous":false},{"type":"event","name":"NumberUpdated","inputs":[{"name":"name","type":"string","indexed":false,"internalType":"string"},{"name":"value","type":"uint256","indexed":false,"internalType":"uint256"}],"anonymous":false},{"type":"event","name":"NumberUpdatedPair","inputs":[{"name":"name","type":"string","indexed":false,"internalType":"string"},{"name":"pairIndex","type":"uint256","indexed":false,"internalType":"uint256"},{"name":"value","type":"uint256","indexed":false,"internalType":"uint256"}],"anonymous":false},{"type":"event","name":"OIUpdated","inputs":[{"name":"_open","type":"bool","indexed":false,"internalType":"bool"},{"name":"_long","type":"bool","indexed":false,"internalType":"bool"},{"name":"_pairIndex","type":"uint256","indexed":false,"internalType":"uint256"},{"name":"_leveragedPos","type":"uint256","indexed":false,"internalType":"uint256"},{"name":"_price","type":"uint256","indexed":false,"internalType":"uint256"}],"anonymous":false},{"type":"event","name":"SupportedTokenAdded","inputs":[{"name":"a","type":"address","indexed":false,"internalType":"address"}],"anonymous":false},{"type":"event","name":"TradeReferred","inputs":[{"name":"_trader","type":"address","indexed":false,"internalType":"address"},{"name":"_referrer","type":"address","indexed":false,"internalType":"address"},{"name":"_leveragedPosition","type":"uint256","indexed":false,"internalType":"uint256"},{"name":"_traderFeePostDiscount","type":"uint256","indexed":false,"internalType":"uint256"},{"name":"_traderFeeDiscount","type":"uint256","indexed":false,"internalType":"uint256"},{"name":"_referrerRebate","type":"uint256","indexed":false,"internalType":"uint256"}],"anonymous":false},{"type":"event","name":"TradingContractAdded","inputs":[{"name":"a","type":"address","indexed":false,"internalType":"address"}],"anonymous":false},{"type":"event","name":"TradingContractRemoved","inputs":[{"name":"a","type":"address","indexed":false,"internalType":"address"}],"anonymous":false}],"bytecode":{"object":"0x60806040523480156200001157600080fd5b506200001c62000022565b620000e3565b600054610100900460ff16156200008f5760405162461bcd60e51b815260206004820152602760248201527f496e697469616c697a61626c653a20636f6e747261637420697320696e697469604482015266616c697a696e6760c81b606482015260840160405180910390fd5b60005460ff90811614620000e1576000805460ff191660ff9081179091556040519081527f7f26b83ff96e1f2b6a682f133852f6798a09c465da95921460cefb38474024989060200160405180910390a15b565b61531b80620000f36000396000f3fe608060405234801561001057600080fd5b506004361061048a5760003560e01c80639c8912f111610262578063d477f05f11610151578063ecf56a1f116100ce578063f65d9dbe11610092578063f65d9dbe14610bd4578063f7b3c6fd14610bdd578063f823e2ae14610c06578063fdb153e214610c19578063fe0fc8d614610c2c578063ff12673a14610c3f57600080fd5b8063ecf56a1f14610b4a578063eda00d5414610b5d578063f0cb9b1114610b8e578063f169429214610ba1578063f4ccf54e14610bb457600080fd5b8063dc6638f411610115578063dc6638f414610af8578063dcdf339a14610b00578063dd0290e214610b13578063e3cbe3a714610b26578063ec44acf214610b3957600080fd5b8063d477f05f14610a8c578063d5dabd7514610a9f578063d775d54814610abf578063d8137fe814610ad2578063dc2123ff14610ae557600080fd5b8063b543503e116101df578063bcc9f1d3116101a3578063bcc9f1d314610a43578063cab9458014610a56578063cda3948f14610a69578063cfad57a214610a71578063d294f09314610a8457600080fd5b8063b543503e146109a9578063b7682d54146109bc578063b833966f146109e7578063b87cb1da146109fa578063b8878a2c14610a2357600080fd5b8063a553906c11610226578063a553906c14610932578063ae8ac94e14610945578063b222cb3814610958578063b3e089a214610983578063b4b0f5671461099657600080fd5b80639c8912f1146108ae5780639cb87f23146108d95780639e5914da146108ec578063a3544181146108ff578063a3a80ffe1461091257600080fd5b80635b621e321161037e5780638049fde7116102fb5780638c8ff1d5116102bf5780638c8ff1d5146107f15780638ecf3f5a1461084857806390d112b91461085d57806391cca3db1461087057806397e7995a1461088357600080fd5b80638049fde7146107a55780638129fc1c146107ae5780638a0bd702146107b65780638a4adf24146107cb5780638b83351a146107de57600080fd5b80636d81d981116103425780636d81d98114610711578063700ff359146107445780637ada84831461076c5780637eed1d301461077f5780637fdb96f31461079257600080fd5b80635b621e321461068b5780635c76ac9e1461069e5780635fbfe8cc146106be57806366ac654d146106de5780636c7be83a146106f157600080fd5b806334df85401161040c5780634415b369116103d05780634415b3691461061e578063443295dc1461064957806344d44f5a146106525780635070e8371461066557806350bb25781461067857600080fd5b806334df8540146105dd5780633c6d6fa0146105e65780633e413bee146105ef5780633f23fa1a146106025780633f64d0361461060b57600080fd5b80631c8636b4116104535780631c8636b414610507578063292c1617146105285780632a9a96671461053b5780633078fff51461054e578063321495921461056757600080fd5b8062b127831461048f57806305f3c6ad146104b95780630d32c907146104ce57806312d43a51146104e15780631441a5a9146104f4575b600080fd5b6002546001600160a01b03165b6040516001600160a01b0390911681526020015b60405180910390f35b6104cc6104c736600461485d565b610c52565b005b6104cc6104dc366004614d25565b610ce5565b600d5461049c906001600160a01b031681565b60055461049c906001600160a01b031681565b61051a6105153660046148bb565b6110c7565b6040519081526020016104b0565b61051a6105363660046148bb565b6110f2565b61051a61054936600461491c565b6111aa565b60005461049c906201000090046001600160a01b031681565b61057a610575366004614d25565b611511565b604080516001600160a01b03909d168d5260208d019b909b52998b019890985260608a0196909652931515608089015260a088019290925260c087015260e0860152610100850152610120840152610140830152610160820152610180016104b0565b61051a600a5481565b61051a600b5481565b60035461049c906001600160a01b031681565b61051a60095481565b6104cc61061936600461498c565b61158f565b61051a61062c3660046148bb565b601f60209081526000928352604080842090915290825290205481565b61051a60085481565b61051a6106603660046148bb565b61167e565b6104cc61067336600461485d565b611706565b6104cc61068636600461485d565b6117a7565b6104cc61069936600461485d565b6117f3565b6106b16106ac36600461485d565b61186e565b6040516104b09190614fc8565b6106d16106cc366004614d25565b6118da565b6040516104b09190614f07565b600c5461049c906001600160a01b031681565b6107046106ff366004614d25565b611945565b6040516104b09190615042565b61073461071f36600461485d565b60216020526000908152604090205460ff1681565b60405190151581526020016104b0565b6107576107523660046148e7565b6119e9565b604080519283526020830191909152016104b0565b6104cc61077a366004614d25565b611b68565b61051a61078d366004614d25565b611bbc565b6104cc6107a036600461498c565b611bd3565b61051a60075481565b6104cc611d02565b6107be611e36565b6040516104b09190614f54565b60045461049c906001600160a01b031681565b6104cc6107ec36600461487a565b611f1a565b6108046107ff3660046148e7565b611f7b565b6040516104b09190600060a0820190508251825260208301516020830152604083015160408301526060830151151560608301526080830151608083015292915050565b610850612022565b6040516104b09190614f97565b6104cc61086b3660046148e7565b61205c565b600e5461049c906001600160a01b031681565b61051a6108913660046148bb565b601860209081526000928352604080842090915290825290205481565b61051a6108bc3660046148bb565b601c60209081526000928352604080842090915290825290205481565b61051a6108e7366004614dc0565b612348565b6104cc6108fa36600461485d565b61236c565b6104cc61090d36600461498c565b6123f5565b6109256109203660046148e7565b612524565b6040516104b091906150d2565b6104cc61094036600461485d565b6125dd565b6104cc610953366004614a1e565b612665565b61051a610966366004614dc0565b602360209081526000928352604080842090915290825290205481565b6104cc61099136600461485d565b612776565b6104cc6109a43660046148e7565b6127fb565b6104cc6109b736600461485d565b612ae7565b61051a6109ca3660046148bb565b601d60209081526000928352604080842090915290825290205481565b6104cc6109f5366004614c74565b612b74565b61051a610a0836600461485d565b6001600160a01b031660009081526016602052604090205490565b610a36610a313660046148e7565b612dbe565b6040516104b09190615033565b61051a610a513660046148bb565b612f2f565b6104cc610a64366004614d90565b612f60565b6104cc613235565b6104cc610a7f36600461485d565b61326f565b6104cc61330d565b6104cc610a9a36600461485d565b613372565b610ab2610aad366004614d25565b6133f6565b6040516104b09190615098565b6104cc610acd366004614b64565b6134c4565b6104cc610ae0366004614bd7565b613558565b6104cc610af3366004614d25565b613720565b61051a6137a3565b610734610b0e3660046148e7565b613859565b6104cc610b21366004614d25565b6138f6565b61049c610b34366004614dc0565b613962565b6001546001600160a01b031661049c565b6104cc610b58366004614d25565b61399a565b61051a610b6b3660046148e7565b601760209081526000938452604080852082529284528284209052825290205481565b6104cc610b9c366004614c57565b613a23565b61051a610baf366004614d25565b613aaa565b61051a610bc236600461485d565b60226020526000908152604090205481565b61051a60065481565b61051a610beb36600461485d565b6001600160a01b03166000908152601b602052604090205490565b6104cc610c1436600461485d565b613ac8565b6104cc610c27366004614a37565b613b46565b6104cc610c3a36600461485d565b613e1f565b600f5461049c906001600160a01b031681565b600d546001600160a01b03163314610c6957600080fd5b6001600160a01b038116610c7c57600080fd5b600f80546001600160a01b0319166001600160a01b03831690811790915560408051818152600b918101919091526a676f76547265617375727960a81b606082015260208101919091526000805160206152c6833981519152906080015b60405180910390a150565b3360009081526021602052604090205460ff16610d0157600080fd5b6000805460405163d09ef24160e01b815260048101849052620100009091046001600160a01b03169063d09ef2419060240160806040518083038186803b158015610d4b57600080fd5b505afa158015610d5f573d6000803e3d6000fd5b505050506040513d601f19601f82011682018060405250810190610d839190614adf565b602090810151600084815260198352604080822081516101e08101835281546001600160a01b031660808201818152600184015460a0840152600284015460c0840152600384015460e084015260048401546101008401526005840154610120840152600684015460ff1615156101408401526007840154610160840152600884015461018084015260098401546101a0840152600a8401546101c08401528252600b83015482880152600c83015482850152600d909201546060820152908352601b90945281209193505b815481101561104f5784828281548110610e6b57610e6b61528c565b9060005260206000200154141561103d576000846005811115610e9057610e90615260565b1415610ed5578251516001600160a01b03166000908152601c60209081526040808320865183015184529091528120805491610ecb83615218565b9190505550610f50565b8251516001600160a01b03166000908152601d60209081526040808320865183015184529091528120805491610f0a83615218565b90915550508251516001600160a01b03166000908152601460209081526040808320865183015184528252808320865182015184529091529020600301805460ff191690555b81548290610f60906001906151d5565b81548110610f7057610f7061528c565b9060005260206000200154828281548110610f8d57610f8d61528c565b906000526020600020018190555081805480610fab57610fab615276565b600082815260208082208301600019908101839055909201909255868252601990526040812080546001600160a01b0319168155600181018290556002810182905560038101829055600481018290556005810182905560068101805460ff19169055600781018290556008810182905560098101829055600a8101829055600b8101829055600c8101829055600d01555b806110478161522f565b915050610e4f565b5081518051608090910151600354611072926001600160a01b0390911691613ea9565b8151805160209182015160408051888152938401919091526001600160a01b03909116917f4b2ef4d80a0964a9a8f43256d8111558389b384d2029743c1eeb6950b14d9c65910160405180910390a250505050565b6001600160a01b03821660009081526015602090815260408083208484529091529020545b92915050565b6000805b6006548110156111a3576001600160a01b0384166000908152601360209081526040808320868452825280832084845290915290206007015461113b578091506111a3565b60065461114982600161517c565b148015611154575081155b1561119b5760405162461bcd60e51b815260206004820152601260248201527113505617d51490511154d7d4915050d2115160721b60448201526064015b60405180910390fd5b6001016110f6565b5092915050565b3360009081526021602052604081205460ff166111c657600080fd5b60008054604051633a100f4d60e01b8152600481018990526024810188905284151560448201526064916402540be40091620100009091046001600160a01b031690633a100f4d90840160206040518083038186803b15801561122857600080fd5b505afa15801561123c573d6000803e3d6000fd5b505050506040513d601f19601f820116820180604052508101906112609190614d3e565b61126a90896151b6565b6112749190615194565b61127e9190615194565b90508361129357611290600282615194565b90505b61129e8882886119e9565b506002546040805163c4493e3760e01b815290519294506000926064926001600160a01b03169163c4493e3791600480830192602092919082900301818887803b1580156112eb57600080fd5b505af11580156112ff573d6000803e3d6000fd5b505050506040513d601f19601f820116820180604052508101906113239190614d3e565b61132e9060646151d5565b61133890856151b6565b6113429190615194565b9050600060016064600260009054906101000a90046001600160a01b03166001600160a01b031663c4493e376040518163ffffffff1660e01b8152600401602060405180830381600087803b15801561139a57600080fd5b505af11580156113ae573d6000803e3d6000fd5b505050506040513d601f19601f820116820180604052508101906113d29190614d3e565b6113dc90876151b6565b6113e69190615194565b901c9050861561140d5760045460035461140d916001600160a01b03918216911684613ea9565b60048054604051635b898b7560e01b8152918201849052600060248301526001600160a01b031690635b898b7590604401600060405180830381600087803b15801561145857600080fd5b505af115801561146c573d6000803e3d6000fd5b5050505080600b6000828254611482919061517c565b9091555081905061149383866151d5565b61149d91906151d5565b600a60008282546114ae919061517c565b9091555050604080516001600160a01b038c168152602081018b9052861515818301526060810186905290517f9921a6a6258398cbe136bac24f80d97ba2b5e4ab8cf2b2d27232d2ae1c78cdd39181900360800190a15050509695505050505050565b6010818154811061152157600080fd5b60009182526020909120600c9091020180546001820154600283015460038401546004850154600586015460068701546007880154600889015460098a0154600a8b0154600b909b01546001600160a01b03909a169b5097999698959760ff9095169693959294919390928c565b3360009081526021602052604090205460ff166115ab57600080fd5b6001600160a01b03841660008181526013602090815260408083208784528252808320868452825280832093835260148252808320878452825280832086845290915290206007820154611600575050611678565b8282600301600082825461161491906151d5565b90915550506007820154611629908490613f0c565b81600001600082825461163c91906151d5565b92505081905550611675868661165f856007015487613f0c90919063ffffffff16565b6006860154600587015460009160ff1690613f28565b50505b50505050565b6000805b6006548110156111a357611697848483613859565b6116a3578091506111a3565b6006546116b182600161517c565b1480156116bc575081155b156116fe5760405162461bcd60e51b815260206004820152601260248201527113505617d31253525514d7d4915050d2115160721b6044820152606401611192565b600101611682565b600d546001600160a01b0316331461171d57600080fd5b6001600160a01b03811661173057600080fd5b600080546001600160a01b038316620100000262010000600160b01b03199091161790556040516000805160206152c683398151915290610cda9083906040808252600f908201526e383934b1b2a0b3b3b932b3b0ba37b960891b60608201526001600160a01b0391909116602082015260800190565b600d546001600160a01b031633146117be57600080fd5b6001600160a01b0381166117d157600080fd5b600c80546001600160a01b0319166001600160a01b0392909216919091179055565b600d546001600160a01b0316331461180a57600080fd5b6001600160a01b03811661181d57600080fd5b6001600160a01b038116600081815260216020908152604091829020805460ff1916905590519182527ff9cf924d7d98e6e0a27ec523cd7214b0bbdfaba197018b33b41a702f5238190e9101610cda565b6001600160a01b0381166000908152601b60209081526040918290208054835181840281018401909452808452606093928301828280156118ce57602002820191906000526020600020905b8154815260200190600101908083116118ba575b50505050509050919050565b6000818152601e60209081526040918290208054835181840281018401909452808452606093928301828280156118ce57602002820191906000526020600020905b81546001600160a01b0316815260019091019060200180831161191c5750505050509050919050565b61196d6040805160808101825260008082526020820181905291810182905290606082015290565b6000828152601a6020908152604091829020825160808101845281546001600160a01b03168152600182015492810192909252600281015492820192909252600380830154919291606084019160ff909116908111156119cf576119cf615260565b60038111156119e0576119e0615260565b90525092915050565b33600090815260216020526040812054819060ff16611a0757600080fd5b60055460405163ce18b98d60e01b81526001600160a01b03878116600483015260248201879052600092839283929091169063ce18b98d9060440160606040518083038186803b158015611a5a57600080fd5b505afa158015611a6e573d6000803e3d6000fd5b505050506040513d601f19601f82011682018060405250810190611a929190614d57565b919450925090506001600160a01b03821615611b58576001600160a01b03821660009081526022602052604081208054839290611ad090849061517c565b909155507f3a864fe7f731bdc590ef080879dd65d46fc853c3348e4c750964677d111fe2a7905088838886611b05818d6151d5565b604080516001600160a01b039687168152959094166020860152928401919091526060830152608082015260a0810183905260c00160405180910390a1611b4c81846151d5565b94509250611b60915050565b869450925050505b935093915050565b3360009081526021602052604090205460ff16611b8457600080fd5b6000908152601a6020526040812080546001600160a01b0319168155600181018290556002810191909155600301805460ff19169055565b60118160028110611bcc57600080fd5b0154905081565b3360009081526021602052604090205460ff16611bef57600080fd5b6001600160a01b03841660008181526013602090815260408083208784528252808320868452825280832093835260148252808320878452825280832086845290915290206007820154611c44575050611678565b60025460058301546007840154600685015460405163aee2e44360e01b8152600481019390935260248301919091526044820186905260ff16151560648201526001600160a01b039091169063aee2e44390608401602060405180830381600087803b158015611cb357600080fd5b505af1158015611cc7573d6000803e3d6000fd5b505050506040513d601f19601f82011682018060405250810190611ceb9190614d3e565b600890920182905543600190910155905050505050565b600054610100900460ff1615808015611d225750600054600160ff909116105b80611d3c5750303b158015611d3c575060005460ff166001145b611d9f5760405162461bcd60e51b815260206004820152602e60248201527f496e697469616c697a61626c653a20636f6e747261637420697320616c72656160448201526d191e481a5b9a5d1a585b1a5e995960921b6064820152608401611192565b6000805460ff191660011790558015611dc2576000805461ff0019166101001790555b600d80546001600160a01b0319163317905560056006819055600755611dee6402540be400605a6151b6565b6009558015611e33576000805461ff0019169055604051600181527f7f26b83ff96e1f2b6a682f133852f6798a09c465da95921460cefb384740249890602001610cda565b50565b60606010805480602002602001604051908101604052809291908181526020016000905b82821015611f115760008481526020908190206040805161018081018252600c860290920180546001600160a01b031683526001808201548486015260028201549284019290925260038101546060840152600481015460ff1615156080840152600581015460a0840152600681015460c0840152600781015460e084015260088101546101008401526009810154610120840152600a810154610140840152600b01546101608301529083529092019101611e5a565b50505050905090565b3360009081526021602052604090205460ff16611f3657600080fd5b6001600160a01b038316301415611f6357600354611f5e906001600160a01b03168383613ea9565b505050565b600354611f5e906001600160a01b0316848484614458565b611faf6040518060a00160405280600081526020016000815260200160008152602001600015158152602001600081525090565b506001600160a01b03831660009081526014602090815260408083208584528252808320848452825291829020825160a08101845281548152600182015492810192909252600281015492820192909252600382015460ff161515606082015260049091015460808201525b9392505050565b61202a6146f2565b60408051808201918290529060119060029082845b81548152602001906001019080831161203f575050505050905090565b3360009081526021602052604090205460ff1661207857600080fd5b6001600160a01b038316600081815260136020908152604080832086845282528083208584528252808320938352601482528083208684528252808320858452909152902060078201546120cd575050505050565b8054600683015460058401546120ed928892889260009160ff1690613f28565b6001600160a01b03851660009081526015602090815260408083208784529091529020546001141561225b576001600160a01b0385166000908152601f60209081526040808320878452825280832054601e90925290912080548190612155906001906151d5565b815481106121655761216561528c565b9060005260206000200160009054906101000a90046001600160a01b03168183815481106121955761219561528c565b9060005260206000200160006101000a8154816001600160a01b0302191690836001600160a01b0316021790555081601f60008385815481106121da576121da61528c565b60009182526020808320909101546001600160a01b03908116845283820194909452604092830182208b8352815282822094909455918a168252601f835280822089835290925290812055805481908061223657612236615276565b600082815260209020810160001990810180546001600160a01b031916905501905550505b6001600160a01b03851660008181526013602090815260408083208884528252808320878452825280832080546001600160a01b031916815560018082018590556002808301869055600380840187905560048085018890556005850188905560068501805460ff19908116909155600786018990556008860189905560098601899055600a909501889055888852601487528588208d895287528588208c89528752858820888155938401889055918301879055820180549093169092550183905592825260158152828220878352905290812080549161233c83615218565b91905055505050505050565b60208052816000526040600020816002811061236357600080fd5b01549150829050565b600d546001600160a01b0316331461238357600080fd5b6001600160a01b03811661239657600080fd5b600580546001600160a01b0319166001600160a01b0383169081179091556040805181815260089181019190915267149959995c9c985b60c21b606082015260208101919091526000805160206152c683398151915290608001610cda565b3360009081526021602052604090205460ff1661241157600080fd5b6001600160a01b03841660008181526013602090815260408083208784528252808320868452825280832093835260148252808320878452825280832086845290915290206007820154612466575050611678565b600254600583015460078401546006850154604051632d7b7e5560e21b8152600481019390935260248301919091526044820186905260ff16151560648201526001600160a01b039091169063b5edf95490608401602060405180830381600087803b1580156124d557600080fd5b505af11580156124e9573d6000803e3d6000fd5b505050506040513d601f19601f8201168201806040525081019061250d9190614d3e565b600990920182905543600290910155905050505050565b61252c614710565b506001600160a01b039283166000908152601360209081526040808320948352938152838220928252918252829020825161016081018452815490941684526001810154918401919091526002810154918301919091526003810154606083015260048101546080830152600581015460a0830152600681015460ff16151560c0830152600781015460e083015260088101546101008301526009810154610120830152600a015461014082015290565b600d546001600160a01b031633146125f457600080fd5b6001600160a01b03811661260757600080fd5b600180546001600160a01b0319166001600160a01b038316908117909155604080518181526007918101919091526674726164696e6760c81b606082015260208101919091526000805160206152c683398151915290608001610cda565b3360009081526021602052604090205460ff1661268157600080fd5b6126a0612691602083018361485d565b82602001358360400135613859565b6126a75750565b600060106017826126bb602086018661485d565b6001600160a01b03168152602080820192909252604090810160009081208684013582528352818120868301358252909252902054815481106127005761270061528c565b90600052602060002090600c020190508160600135816003018190555081608001602081019061273091906149c7565b60048201805460ff191691151591909117905560a0820135600582015560c0820135600682015560e0820135600782015561010090910135600882015543600a90910155565b600d546001600160a01b0316331461278d57600080fd5b6001600160a01b0381166127a057600080fd5b600380546001600160a01b0319166001600160a01b03831690811790915560408051818152600491810191909152637573646360e01b606082015260208101919091526000805160206152c683398151915290608001610cda565b3360009081526021602052604090205460ff1661281757600080fd5b612822838383613859565b61282b57505050565b6001600160a01b0383166000908152601760209081526040808320858452825280832084845290915290205460108054612867906001906151d5565b815481106128775761287761528c565b90600052602060002090600c0201601082815481106128985761289861528c565b6000918252602082208354600c9092020180546001600160a01b0319166001600160a01b03909216919091178155600180840154908201556002808401549082015560038084015490820155600480840154908201805460ff909216151560ff199092169190911790556005808401549082015560068084015490820155600780840154908201556008808401549082015560098084015490820155600a8084015490820155600b928301549201919091556010805483926017929091849081106129655761296561528c565b60009182526020808320600c909202909101546001600160a01b03168352820192909252604001812060108054919291859081106129a5576129a561528c565b90600052602060002090600c02016001015481526020019081526020016000206000601084815481106129da576129da61528c565b600091825260208083206002600c90930201919091015483528281019390935260409182018120939093556001600160a01b03871683526017825280832086845282528083208584529091528120556010805480612a3a57612a3a615276565b60008281526020808220600c6000199094019384020180546001600160a01b031916815560018101839055600281018390556003810183905560048101805460ff191690556005810183905560068101839055600781018390556008810183905560098101839055600a8101839055600b01829055919092556001600160a01b03861682526018815260408083208684529091528120805491612adc83615218565b919050555050505050565b600d546001600160a01b03163314612afe57600080fd5b6001600160a01b038116612b1157600080fd5b600480546001600160a01b0319166001600160a01b03831690811790915560408051818152600c918101919091526b3b30bab63a26b0b730b3b2b960a11b606082015260208101919091526000805160206152c683398151915290608001610cda565b3360009081526021602052604090205460ff16612b9057600080fd5b612ba2826000015183602001516110f2565b604083810191825283516001600160a01b0390811660009081526013602090815283822081880180518452908252848320865184528252848320885181546001600160a01b031916951694851781558151600182015595516002870155606088015160038701556080880151600487015560a0880151600587015560c088015160068701805460ff191691151591909117905560e0880151600787015561010088015160088701556101208801516009870155610140880151600a9096019590955591815260158252828120935181529290528120805491612c838361522f565b909155505081516001600160a01b0316600090815260156020908152604080832082860151845290915290205460011415612d2457602082810180516000908152601e80845260408083205487516001600160a01b039081168552601f87528285208651865287528285209190915593518352908452812085518154600181018355918352939091200180546001600160a01b031916929091169190911790555b60006060820181815283516001600160a01b0316825260146020908152604080842082870180518652908352818520828801518652835293819020855180825592860151600180830191909155918601516002820155925160038401805460ff191691151591909117905560808501516004909301929092558451925160c086015160a0870151612dba95949293929190613f28565b5050565b612e2d60405180610180016040528060006001600160a01b03168152602001600081526020016000815260200160008152602001600015158152602001600081526020016000815260200160008152602001600081526020016000815260200160008152602001600081525090565b612e38848484613859565b612e4157600080fd5b6001600160a01b03841660009081526017602090815260408083208684528252808320858452909152902054601080549091908110612e8257612e8261528c565b60009182526020918290206040805161018081018252600c90930290910180546001600160a01b0316835260018101549383019390935260028301549082015260038201546060820152600482015460ff1615156080820152600582015460a0820152600682015460c0820152600782015460e082015260088201546101008201526009820154610120820152600a820154610140820152600b9091015461016082015290509392505050565b601b6020528160005260406000208181548110612f4b57600080fd5b90600052602060002001600091509150505481565b3360009081526021602052604090205460ff16612f7c57600080fd5b600082815260196020908152604080832081516101e08101835281546001600160a01b031660808201818152600184015460a0840152600284015460c0840152600384015460e084015260048401546101008401526005840154610120840152600684015460ff1615156101408401526007840154610160840152600884015461018084015260098401546101a0840152600a8401546101c08401528252600b83015482860152600c83015482850152600d909201546060820152908452601b909252822090915b815481101561322e57848282815481106130605761306061528c565b906000526020600020015414156132265783156130b6578251516001600160a01b03166000908152601c602090815260408083208651830151845290915281208054916130ac83615218565b9190505550613131565b8251516001600160a01b03166000908152601d602090815260408083208651830151845290915281208054916130eb83615218565b90915550508251516001600160a01b03166000908152601460209081526040808320865183015184528252808320865182015184529091529020600301805460ff191690555b81548290613141906001906151d5565b815481106131515761315161528c565b906000526020600020015482828154811061316e5761316e61528c565b90600052602060002001819055508180548061318c5761318c615276565b600082815260208082208301600019908101839055909201909255868252601990526040812080546001600160a01b0319168155600181018290556002810182905560038101829055600481018290556005810182905560068101805460ff19169055600781018290556008810182905560098101829055600a8101829055600b8101829055600c8101829055600d015550612dba915050565b600101613044565b5050505050565b3360008181526022602052604090205460035461325d926001600160a01b0390911691613ea9565b33600090815260226020526040812055565b600d546001600160a01b0316331461328657600080fd5b6001600160a01b03811661329957600080fd5b600c546001600160a01b038281169116146132b357600080fd5b600d80546001600160a01b0319166001600160a01b038316908117909155604080518181526003918101919091526233b7bb60e91b606082015260208101919091526000805160206152c683398151915290608001610cda565b600d546001600160a01b0316331461332457600080fd5b600f54600b54600354613345926001600160a01b0391821692911690613ea9565b600e54600a54600354613366926001600160a01b0391821692911690613ea9565b6000600a819055600b55565b600d546001600160a01b0316331461338957600080fd5b6001600160a01b03811661339c57600080fd5b600e80546001600160a01b0319166001600160a01b03831690811790915560408051818152600391810191909152623232bb60e91b606082015260208101919091526000805160206152c683398151915290608001610cda565b6133fe614775565b5060009081526019602090815260409182902082516101e08101845281546001600160a01b031660808201908152600183015460a0830152600283015460c0830152600383015460e083015260048301546101008301526005830154610120830152600683015460ff1615156101408301526007830154610160830152600883015461018083015260098301546101a0830152600a8301546101c08301528152600b82015492810192909252600c81015492820192909252600d90910154606082015290565b3360009081526021602052604090205460ff166134e057600080fd5b6000818152601a6020908152604091829020845181546001600160a01b0319166001600160a01b03909116178155908401516001808301919091559184015160028201556060840151600380830180548795919260ff199091169190849081111561354d5761354d615260565b021790555050505050565b3360009081526021602052604090205460ff1661357457600080fd5b8251516001600160a01b039081166000908152601b602090815260408083208054600180820183559185528385200187905586845260198352928190208751805182546001600160a01b0319169616959095178155918401519282019290925582820151600282015560608084015160038301556080840151600483015560a0840151600583015560c084015160068301805460ff191691151591909117905560e084015160078301556101008401516008830155610120840151600983015561014090930151600a82015590850151600c82015590840151600d82015543600b90910155801561369e578251516001600160a01b03166000908152601c602090815260408083208651830151845290915281208054916136948361522f565b9190505550505050565b8251516001600160a01b03166000908152601d602090815260408083208651830151845290915281208054916136d38361522f565b90915550508251516001600160a01b03166000908152601460209081526040808320865183015184528252808320865182015184529091529020600301805460ff19166001179055505050565b600d546001600160a01b0316331461373757600080fd5b6000811161374457600080fd5b6006819055604080518181526010918101919091526f36b0bc2a3930b232b9a832b92830b4b960811b6060820152602081018290527f8cf3e35f6221b16e1670a3413180c9484bf5aa71787905909fa82a6a2662e9ab90608001610cda565b600060646402540be400600954600460009054906101000a90046001600160a01b03166001600160a01b0316637b78d7826040518163ffffffff1660e01b815260040160206040518083038186803b1580156137fe57600080fd5b505afa158015613812573d6000803e3d6000fd5b505050506040513d601f19601f820116820180604052508101906138369190614d3e565b61384091906151b6565b61384a9190615194565b6138549190615194565b905090565b60105460009061386b5750600061201b565b6001600160a01b038416600090815260176020908152604080832086845282528083208584529091528120546010805490919081106138ac576138ac61528c565b60009182526020909120600c9091020180549091506001600160a01b0386811691161480156138de5750838160010154145b80156138ed5750828160020154145b95945050505050565b600d546001600160a01b0316331461390d57600080fd5b60098190556040805181815260069181019190915265074766c4361760d41b6060820152602081018290527f8cf3e35f6221b16e1670a3413180c9484bf5aa71787905909fa82a6a2662e9ab90608001610cda565b601e602052816000526040600020818154811061397e57600080fd5b6000918252602090912001546001600160a01b03169150829050565b600d546001600160a01b031633146139b157600080fd5b600081116139be57600080fd5b600781905560408051818152601691810191909152756d617850656e64696e674d61726b65744f726465727360501b6060820152602081018290527f8cf3e35f6221b16e1670a3413180c9484bf5aa71787905909fa82a6a2662e9ab90608001610cda565b3360009081526021602052604090205460ff16613a3f57600080fd5b80516001600160a01b03166000908152601360209081526040808320828501518452825280832081850151845290915290206007810154613a7e575050565b606082015160038201556080820151600482015560a0820151600582015560e082015160079091015550565b60008181526020805260408120600181015490546110ec919061517c565b600d546001600160a01b03163314613adf57600080fd5b6001600160a01b038116613af257600080fd5b6001600160a01b038116600081815260216020908152604091829020805460ff1916600117905590519182527fb692fa98cbec9bd705572b4c7e0927e3f7698e9fe526dcef6f40f3d4d4980ca39101610cda565b3360009081526021602052604090205460ff16613b6257600080fd5b613b748160000151826020015161167e565b604082019081524361014083019081526010805460018082018355600083905285517f1b6847dc741a1b0cd08d278845f9d819d87b734759afb55fe2de5cb82a9ae672600c90930292830180546001600160a01b0319166001600160a01b0390921691909117905560208601517f1b6847dc741a1b0cd08d278845f9d819d87b734759afb55fe2de5cb82a9ae67383015593517f1b6847dc741a1b0cd08d278845f9d819d87b734759afb55fe2de5cb82a9ae67482015560608501517f1b6847dc741a1b0cd08d278845f9d819d87b734759afb55fe2de5cb82a9ae67582015560808501517f1b6847dc741a1b0cd08d278845f9d819d87b734759afb55fe2de5cb82a9ae6768201805460ff191691151591909117905560a08501517f1b6847dc741a1b0cd08d278845f9d819d87b734759afb55fe2de5cb82a9ae67782015560c08501517f1b6847dc741a1b0cd08d278845f9d819d87b734759afb55fe2de5cb82a9ae67882015560e08501517f1b6847dc741a1b0cd08d278845f9d819d87b734759afb55fe2de5cb82a9ae6798201556101008501517f1b6847dc741a1b0cd08d278845f9d819d87b734759afb55fe2de5cb82a9ae67a8201556101208501517f1b6847dc741a1b0cd08d278845f9d819d87b734759afb55fe2de5cb82a9ae67b82015591517f1b6847dc741a1b0cd08d278845f9d819d87b734759afb55fe2de5cb82a9ae67c8301556101608401517f1b6847dc741a1b0cd08d278845f9d819d87b734759afb55fe2de5cb82a9ae67d9092019190915554613db991906151d5565b81516001600160a01b03908116600090815260176020908152604080832082870180518552908352818420828801518552835281842095909555855190931682526018815282822093518252929092528120805491613e178361522f565b919050555050565b600d546001600160a01b03163314613e3657600080fd5b6001600160a01b038116613e4957600080fd5b600280546001600160a01b0319166001600160a01b038316908117909155604080518181526009918101919091526863616c6c6261636b7360b81b606082015260208101919091526000805160206152c683398151915290608001610cda565b6040516001600160a01b038316602482015260448101829052611f5e90849063a9059cbb60e01b906064015b60408051601f198184030181529190526020810180516001600160e01b03166001600160e01b031990931692909217909152614490565b60006402540be400613f1e83856151b6565b61201b9190615194565b600082613f36576001613f39565b60005b6000878152602080526040902060ff91909116915084613f8b57808260028110613f6557613f6561528c565b01548611613f735785613f88565b808260028110613f8557613f8561528c565b01545b95505b84613fb45785818360028110613fa357613fa361528c565b0154613faf91906151d5565b613fd3565b85818360028110613fc757613fc761528c565b0154613fd3919061517c565b818360028110613fe557613fe561528c565b015584613fff5785600854613ffa91906151d5565b61400d565b8560085461400d919061517c565b6008558461403e576001600160a01b0388166000908152601660205260409020546140399087906151d5565b614062565b6001600160a01b03881660009081526016602052604090205461406290879061517c565b6001600160a01b038916600090815260166020908152604080832093909355898252602381528282204383529052205461409d90879061517c565b6000888152602360209081526040808320438452825280832093909355815483516335b03c1760e01b815293519293620100009091046001600160a01b0316926335b03c1792600480840193919291829003018186803b15801561410057600080fd5b505afa158015614114573d6000803e3d6000fd5b505050506040513d601f19601f820116820180604052508101906141389190614a01565b6040516304d735cf60e51b8152600481018a90529091506001600160a01b03821690639ae6b9e09060240160206040518083038186803b15801561417b57600080fd5b505afa15801561418f573d6000803e3d6000fd5b505050506040513d601f19601f820116820180604052508101906141b39190614d3e565b6000898152602360209081526040808320438452909152902054111561421b5760405162461bcd60e51b815260206004820152601760248201527f424c4f434b5f4f495f4c494d49545f42524541434845440000000000000000006044820152606401611192565b604051633c44d0a360e01b8152600481018990526001600160a01b03821690633c44d0a39060240160206040518083038186803b15801561425b57600080fd5b505afa15801561426f573d6000803e3d6000fd5b505050506040513d601f19601f820116820180604052508101906142939190614d3e565b600214156143fb57604051636dc37de360e01b8152600481018990526000906001600160a01b03831690636dc37de39060240160206040518083038186803b1580156142de57600080fd5b505afa1580156142f2573d6000803e3d6000fd5b505050506040513d601f19601f8201168201806040525081019061431691906149e4565b9050600086614326576000614329565b60015b60ff1690508115614398578761435e57886011866002811061434d5761434d61528c565b015461435991906151d5565b61437e565b88601186600281106143725761437261528c565b015461437e919061517c565b601186600281106143915761439161528c565b01556143f8565b876143c25788601182600281106143b1576143b161528c565b01546143bd91906151d5565b6143e2565b88601182600281106143d6576143d661528c565b01546143e2919061517c565b601182600281106143f5576143f561528c565b01555b50505b604080518715158152861515602082015290810189905260608101889052608081018590527fcadf7ed5daaec5b514975523d89eb6ebbbd5d892bc7a5bbf71c5fca0219754579060a00160405180910390a1505050505050505050565b6040516001600160a01b03808516602483015283166044820152606481018290526116789085906323b872dd60e01b90608401613ed5565b60006144e5826040518060400160405280602081526020017f5361666545524332303a206c6f772d6c6576656c2063616c6c206661696c6564815250856001600160a01b03166145659092919063ffffffff16565b905080516000148061450657508080602001905181019061450691906149e4565b611f5e5760405162461bcd60e51b815260206004820152602a60248201527f5361666545524332303a204552433230206f7065726174696f6e20646964206e6044820152691bdd081cdd58d8d9595960b21b6064820152608401611192565b6060614574848460008561457c565b949350505050565b6060824710156145dd5760405162461bcd60e51b815260206004820152602660248201527f416464726573733a20696e73756666696369656e742062616c616e636520666f6044820152651c8818d85b1b60d21b6064820152608401611192565b600080866001600160a01b031685876040516145f99190614eeb565b60006040518083038185875af1925050503d8060008114614636576040519150601f19603f3d011682016040523d82523d6000602084013e61463b565b606091505b509150915061464c87838387614657565b979650505050505050565b606083156146c35782516146bc576001600160a01b0385163b6146bc5760405162461bcd60e51b815260206004820152601d60248201527f416464726573733a2063616c6c20746f206e6f6e2d636f6e74726163740000006044820152606401611192565b5081614574565b61457483838151156146d85781518083602001fd5b8060405162461bcd60e51b81526004016111929190615000565b60405180604001604052806002906020820280368337509192915050565b60405180610160016040528060006001600160a01b031681526020016000815260200160008152602001600081526020016000815260200160008152602001600015158152602001600081526020016000815260200160008152602001600081525090565b6040518060800160405280614788614710565b81526020016000815260200160008152602001600081525090565b80356147ae816152a2565b919050565b80356147ae816152b7565b600061016082840312156147d157600080fd5b6147d96150e1565b90506147e4826147a3565b81526020820135602082015260408201356040820152606082013560608201526080820135608082015260a082013560a082015261482460c083016147b3565b60c082015260e082013560e082015261010080830135818301525061012080830135818301525061014080830135818301525092915050565b60006020828403121561486f57600080fd5b813561201b816152a2565b60008060006060848603121561488f57600080fd5b833561489a816152a2565b925060208401356148aa816152a2565b929592945050506040919091013590565b600080604083850312156148ce57600080fd5b82356148d9816152a2565b946020939093013593505050565b6000806000606084860312156148fc57600080fd5b8335614907816152a2565b95602085013595506040909401359392505050565b60008060008060008060c0878903121561493557600080fd5b8635614940816152a2565b95506020870135945060408701359350606087013561495e816152b7565b9250608087013561496e816152b7565b915060a087013561497e816152b7565b809150509295509295509295565b600080600080608085870312156149a257600080fd5b84356149ad816152a2565b966020860135965060408601359560600135945092505050565b6000602082840312156149d957600080fd5b813561201b816152b7565b6000602082840312156149f657600080fd5b815161201b816152b7565b600060208284031215614a1357600080fd5b815161201b816152a2565b60006101808284031215614a3157600080fd5b50919050565b60006101808284031215614a4a57600080fd5b614a52615119565b614a5b836147a3565b8152602083013560208201526040830135604082015260608301356060820152614a87608084016147b3565b608082015260a0838101359082015260c0808401359082015260e08084013590820152610100808401359082015261012080840135908201526101408084013590820152610160928301359281019290925250919050565b600060808284031215614af157600080fd5b6040516080810181811067ffffffffffffffff82111715614b2257634e487b7160e01b600052604160045260246000fd5b60405282518152602083015160068110614b3b57600080fd5b6020820152604083810151908201526060830151614b58816152b7565b60608201529392505050565b60008082840360a0811215614b7857600080fd5b6080811215614b8657600080fd5b50614b8f61514b565b8335614b9a816152a2565b808252506020840135602082015260408401356040820152606084013560048110614bc457600080fd5b6060820152946080939093013593505050565b6000806000838503610200811215614bee57600080fd5b6101c080821215614bfe57600080fd5b614c0661514b565b9150614c1287876147be565b8252610160860135602083015261018086013560408301526101a0860135606083015290935084013591506101e0840135614c4c816152b7565b809150509250925092565b60006101608284031215614c6a57600080fd5b61201b83836147be565b600080828403610200811215614c8957600080fd5b614c9385856147be565b925060a061015f1982011215614ca857600080fd5b5060405160a0810181811067ffffffffffffffff82111715614cda57634e487b7160e01b600052604160045260246000fd5b8060405250610160840135815261018084013560208201526101a084013560408201526101c0840135614d0c816152b7565b60608201526101e0939093013560808401525092909150565b600060208284031215614d3757600080fd5b5035919050565b600060208284031215614d5057600080fd5b5051919050565b600080600060608486031215614d6c57600080fd5b835192506020840151614d7e816152a2565b80925050604084015190509250925092565b60008060408385031215614da357600080fd5b823591506020830135614db5816152b7565b809150509250929050565b60008060408385031215614dd357600080fd5b50508035926020909101359150565b80516001600160a01b031682526020810151602083015260408101516040830152606081015160608301526080810151614e20608084018215159052565b5060a0818101519083015260c0808201519083015260e0808201519083015261010080820151908301526101208082015190830152610140808201519083015261016090810151910152565b80516001600160a01b031682526020810151602083015260408101516040830152606081015160608301526080810151608083015260a081015160a083015260c0810151614ebe60c084018215159052565b5060e081810151908301526101008082015190830152610120808201519083015261014090810151910152565b60008251614efd8184602087016151ec565b9190910192915050565b6020808252825182820181905260009190848201906040850190845b81811015614f485783516001600160a01b031683529284019291840191600101614f23565b50909695505050505050565b6020808252825182820181905260009190848201906040850190845b81811015614f4857614f83838551614de2565b928401926101809290920191600101614f70565b60408101818360005b6002811015614fbf578151835260209283019290910190600101614fa0565b50505092915050565b6020808252825182820181905260009190848201906040850190845b81811015614f4857835183529284019291840191600101614fe4565b602081526000825180602084015261501f8160408501602087016151ec565b601f01601f19169190910160400192915050565b61018081016110ec8284614de2565b81516001600160a01b031681526020808301519082015260408083015190820152606082015160808201906004811061508b57634e487b7160e01b600052602160045260246000fd5b8060608401525092915050565b60006101c0820190506150ac828451614e6c565b602083015161016083015260408301516101808301526060909201516101a09091015290565b61016081016110ec8284614e6c565b604051610160810167ffffffffffffffff8111828210171561511357634e487b7160e01b600052604160045260246000fd5b60405290565b604051610180810167ffffffffffffffff8111828210171561511357634e487b7160e01b600052604160045260246000fd5b6040516080810167ffffffffffffffff8111828210171561511357634e487b7160e01b600052604160045260246000fd5b6000821982111561518f5761518f61524a565b500190565b6000826151b157634e487b7160e01b600052601260045260246000fd5b500490565b60008160001904831182151516156151d0576151d061524a565b500290565b6000828210156151e7576151e761524a565b500390565b60005b838110156152075781810151838201526020016151ef565b838111156116785750506000910152565b6000816152275761522761524a565b506000190190565b60006000198214156152435761524361524a565b5060010190565b634e487b7160e01b600052601160045260246000fd5b634e487b7160e01b600052602160045260246000fd5b634e487b7160e01b600052603160045260246000fd5b634e487b7160e01b600052603260045260246000fd5b6001600160a01b0381168114611e3357600080fd5b8015158114611e3357600080fdfe943e9d45a11aaae5d87503e3bc248665d9807856e5cf2bdb4a988bee44422781a26469706673582212208d45f74de3fda35f0a7423c400c61fc11fcc19045395bf783a9ad575cf08368064736f6c63430008070033","linkReferences":{}},"methodIdentifiers":{"addTradingContract(address)":"f823e2ae","applyReferral(address,uint256,uint256)":"700ff359","blockOI(uint256,uint256)":"b222cb38","callbacks()":"00b12783","claimFees()":"d294f093","claimRebate()":"cda3948f","dev()":"91cca3db","devFeesUSDC()":"34df8540","firstEmptyOpenLimitIndex(address,uint256)":"44d44f5a","firstEmptyTradeIndex(address,uint256)":"292c1617","forceUnregisterPendingMarketOrder(uint256)":"0d32c907","getOpenLimitOrder(address,uint256,uint256)":"b8878a2c","getOpenLimitOrders()":"8a0bd702","getPendingOrderIds(address)":"5c76ac9e","getUsdOI()":"8ecf3f5a","gov()":"12d43a51","govFeesUSDC()":"3c6d6fa0","govTreasury()":"ff12673a","handleDevGovFees(address,uint256,uint256,bool,bool,bool)":"2a9a9667","hasOpenLimitOrder(address,uint256,uint256)":"dcdf339a","initialize()":"8129fc1c","isTradingContract(address)":"6d81d981","maxOpenInterest()":"dc6638f4","maxPendingMarketOrders()":"8049fde7","maxTradesPerPair()":"f65d9dbe","openInterestUSDC(uint256,uint256)":"9cb87f23","openLimitOrderIds(address,uint256,uint256)":"eda00d54","openLimitOrders(uint256)":"32149592","openLimitOrdersCount(address,uint256)":"97e7995a","openTrades(address,uint256,uint256)":"a3a80ffe","openTradesCount(address,uint256)":"1c8636b4","openTradesInfo(address,uint256,uint256)":"8c8ff1d5","pairOI(uint256)":"f1694292","pairTraders(uint256,uint256)":"e3cbe3a7","pairTradersArray(uint256)":"5fbfe8cc","pairTradersId(address,uint256)":"4415b369","pendingMarketCloseCount(address,uint256)":"b7682d54","pendingMarketOpenCount(address,uint256)":"9c8912f1","pendingOrderIds(address,uint256)":"bcc9f1d3","pendingOrderIdsCount(address)":"f7b3c6fd","priceAggregator()":"3078fff5","rebates(address)":"f4ccf54e","referral()":"1441a5a9","registerPartialTrade(address,uint256,uint256,uint256)":"3f64d036","removeTradingContract(address)":"5b621e32","reqIDpendingLimitOrder(uint256)":"6c7be83a","reqIDpendingMarketOrder(uint256)":"d5dabd75","requestGov(address)":"50bb2578","requestedGov()":"66ac654d","setCallbacks(address)":"fe0fc8d6","setDev(address)":"d477f05f","setGov(address)":"cfad57a2","setGovTreasury(address)":"05f3c6ad","setMaxPendingMarketOrders(uint256)":"ecf56a1f","setMaxTradesPerPair(uint256)":"dc2123ff","setPriceAggregator(address)":"5070e837","setReferral(address)":"9e5914da","setTrading(address)":"a553906c","setTvlCap(uint256)":"dd0290e2","setUSDC(address)":"b3e089a2","setVaultManager(address)":"b543503e","storeOpenLimitOrder((address,uint256,uint256,uint256,bool,uint256,uint256,uint256,uint256,uint256,uint256,uint256))":"fdb153e2","storePendingLimitOrder((address,uint256,uint256,uint8),uint256)":"d775d548","storePendingMarketOrder(((address,uint256,uint256,uint256,uint256,uint256,bool,uint256,uint256,uint256,uint256),uint256,uint256,uint256),uint256,bool)":"d8137fe8","storeTrade((address,uint256,uint256,uint256,uint256,uint256,bool,uint256,uint256,uint256,uint256),(uint256,uint256,uint256,bool,uint256))":"b833966f","totalOI()":"443295dc","trading()":"ec44acf2","transferUSDC(address,address,uint256)":"8b83351a","tvlCap()":"3f23fa1a","unregisterOpenLimitOrder(address,uint256,uint256)":"b4b0f567","unregisterPendingLimitOrder(uint256)":"7ada8483","unregisterPendingMarketOrder(uint256,bool)":"cab94580","unregisterTrade(address,uint256,uint256)":"90d112b9","updateOpenLimitOrder((address,uint256,uint256,uint256,bool,uint256,uint256,uint256,uint256,uint256,uint256,uint256))":"ae8ac94e","updateSl(address,uint256,uint256,uint256)":"a3544181","updateTp(address,uint256,uint256,uint256)":"7fdb96f3","updateTrade((address,uint256,uint256,uint256,uint256,uint256,bool,uint256,uint256,uint256,uint256))":"f0cb9b11","usdOI(uint256)":"7eed1d30","usdc()":"3e413bee","vaultManager()":"8a4adf24","walletOI(address)":"b87cb1da"},"id":110}