{"abi":[{"type":"constructor","inputs":[],"stateMutability":"nonpayable"},{"type":"function","name":"closeTradeMarketCallback","inputs":[{"name":"orderId","type":"uint256","internalType":"uint256"},{"name":"price","type":"uint256","internalType":"uint256"},{"name":"isPnl","type":"bool","internalType":"bool"}],"outputs":[],"stateMutability":"nonpayable"},{"type":"function","name":"executeLimitCloseOrderCallback","inputs":[{"name":"orderId","type":"uint256","internalType":"uint256"},{"name":"price","type":"uint256","internalType":"uint256"},{"name":"isPnl","type":"bool","internalType":"bool"}],"outputs":[],"stateMutability":"nonpayable"},{"type":"function","name":"executeLimitOpenOrderCallback","inputs":[{"name":"orderId","type":"uint256","internalType":"uint256"},{"name":"price","type":"uint256","internalType":"uint256"},{"name":"spreadP","type":"uint256","internalType":"uint256"},{"name":"isPnl","type":"bool","internalType":"bool"}],"outputs":[],"stateMutability":"nonpayable"},{"type":"function","name":"initialize","inputs":[{"name":"_storageT","type":"address","internalType":"address"},{"name":"_pairInfos","type":"address","internalType":"address"}],"outputs":[],"stateMutability":"nonpayable"},{"type":"function","name":"liqFeeP","inputs":[],"outputs":[{"name":"","type":"uint256","internalType":"uint256"}],"stateMutability":"view"},{"type":"function","name":"liqTotalFeeP","inputs":[],"outputs":[{"name":"","type":"uint256","internalType":"uint256"}],"stateMutability":"view"},{"type":"function","name":"openTradeMarketCallback","inputs":[{"name":"orderId","type":"uint256","internalType":"uint256"},{"name":"price","type":"uint256","internalType":"uint256"},{"name":"spreadP","type":"uint256","internalType":"uint256"},{"name":"isPnl","type":"bool","internalType":"bool"}],"outputs":[],"stateMutability":"nonpayable"},{"type":"function","name":"pairInfos","inputs":[],"outputs":[{"name":"","type":"address","internalType":"contract IPairInfos"}],"stateMutability":"view"},{"type":"function","name":"setFeeP","inputs":[{"name":"_liqFeeP","type":"uint256","internalType":"uint256"},{"name":"_liqTotalFeeP","type":"uint256","internalType":"uint256"},{"name":"_vaultFeeP","type":"uint256","internalType":"uint256"}],"outputs":[],"stateMutability":"nonpayable"},{"type":"function","name":"storageT","inputs":[],"outputs":[{"name":"","type":"address","internalType":"contract ITradingStorage"}],"stateMutability":"view"},{"type":"function","name":"transferFromVault","inputs":[{"name":"_trader","type":"address","internalType":"address"},{"name":"_amount","type":"uint256","internalType":"uint256"}],"outputs":[],"stateMutability":"nonpayable"},{"type":"function","name":"updateMarginCallback","inputs":[{"name":"orderId","type":"uint256","internalType":"uint256"},{"name":"price","type":"uint256","internalType":"uint256"},{"name":"isPnl","type":"bool","internalType":"bool"}],"outputs":[],"stateMutability":"nonpayable"},{"type":"function","name":"updateSlCallback","inputs":[{"name":"orderId","type":"uint256","internalType":"uint256"},{"name":"price","type":"uint256","internalType":"uint256"},{"name":"isPnl","type":"bool","internalType":"bool"}],"outputs":[],"stateMutability":"nonpayable"},{"type":"function","name":"vaultFeeP","inputs":[],"outputs":[{"name":"","type":"uint256","internalType":"uint256"}],"stateMutability":"view"},{"type":"event","name":"AddressUpdated","inputs":[{"name":"name","type":"string","indexed":false,"internalType":"string"},{"name":"a","type":"address","indexed":false,"internalType":"address"}],"anonymous":false},{"type":"event","name":"Done","inputs":[{"name":"done","type":"bool","indexed":false,"internalType":"bool"}],"anonymous":false},{"type":"event","name":"FeeUpdated","inputs":[{"name":"_vaultFeeP","type":"uint256","indexed":false,"internalType":"uint256"},{"name":"_liqFeeP","type":"uint256","indexed":false,"internalType":"uint256"},{"name":"_liqTotalFeeP","type":"uint256","indexed":false,"internalType":"uint256"}],"anonymous":false},{"type":"event","name":"Initialized","inputs":[{"name":"version","type":"uint8","indexed":false,"internalType":"uint8"}],"anonymous":false},{"type":"event","name":"LimitExecuted","inputs":[{"name":"orderId","type":"uint256","indexed":false,"internalType":"uint256"},{"name":"limitIndex","type":"uint256","indexed":false,"internalType":"uint256"},{"name":"t","type":"tuple","indexed":false,"internalType":"struct ITradingStorage.Trade","components":[{"name":"trader","type":"address","internalType":"address"},{"name":"pairIndex","type":"uint256","internalType":"uint256"},{"name":"index","type":"uint256","internalType":"uint256"},{"name":"initialPosToken","type":"uint256","internalType":"uint256"},{"name":"positionSizeUSDC","type":"uint256","internalType":"uint256"},{"name":"openPrice","type":"uint256","internalType":"uint256"},{"name":"buy","type":"bool","internalType":"bool"},{"name":"leverage","type":"uint256","internalType":"uint256"},{"name":"tp","type":"uint256","internalType":"uint256"},{"name":"sl","type":"uint256","internalType":"uint256"},{"name":"timestamp","type":"uint256","internalType":"uint256"}]},{"name":"orderType","type":"uint8","indexed":false,"internalType":"enum ITradingStorage.LimitOrder"},{"name":"price","type":"uint256","indexed":false,"internalType":"uint256"},{"name":"positionSizeUSDC","type":"uint256","indexed":false,"internalType":"uint256"},{"name":"percentProfit","type":"int256","indexed":false,"internalType":"int256"},{"name":"usdcSentToTrader","type":"uint256","indexed":false,"internalType":"uint256"},{"name":"isPnl","type":"bool","indexed":false,"internalType":"bool"}],"anonymous":false},{"type":"event","name":"MarginUpdated","inputs":[{"name":"trader","type":"address","indexed":true,"internalType":"address"},{"name":"pairIndex","type":"uint256","indexed":false,"internalType":"uint256"},{"name":"index","type":"uint256","indexed":false,"internalType":"uint256"},{"name":"newSl","type":"uint256","indexed":false,"internalType":"uint256"},{"name":"timestamp","type":"uint256","indexed":false,"internalType":"uint256"}],"anonymous":false},{"type":"event","name":"MarketExecuted","inputs":[{"name":"orderId","type":"uint256","indexed":false,"internalType":"uint256"},{"name":"t","type":"tuple","indexed":false,"internalType":"struct ITradingStorage.Trade","components":[{"name":"trader","type":"address","internalType":"address"},{"name":"pairIndex","type":"uint256","internalType":"uint256"},{"name":"index","type":"uint256","internalType":"uint256"},{"name":"initialPosToken","type":"uint256","internalType":"uint256"},{"name":"positionSizeUSDC","type":"uint256","internalType":"uint256"},{"name":"openPrice","type":"uint256","internalType":"uint256"},{"name":"buy","type":"bool","internalType":"bool"},{"name":"leverage","type":"uint256","internalType":"uint256"},{"name":"tp","type":"uint256","internalType":"uint256"},{"name":"sl","type":"uint256","internalType":"uint256"},{"name":"timestamp","type":"uint256","internalType":"uint256"}]},{"name":"open","type":"bool","indexed":false,"internalType":"bool"},{"name":"price","type":"uint256","indexed":false,"internalType":"uint256"},{"name":"positionSizeUSDC","type":"uint256","indexed":false,"internalType":"uint256"},{"name":"percentProfit","type":"int256","indexed":false,"internalType":"int256"},{"name":"usdcSentToTrader","type":"uint256","indexed":false,"internalType":"uint256"},{"name":"isPnl","type":"bool","indexed":false,"internalType":"bool"}],"anonymous":false},{"type":"event","name":"MarketOpenCanceled","inputs":[{"name":"orderId","type":"uint256","indexed":false,"internalType":"uint256"},{"name":"trader","type":"address","indexed":true,"internalType":"address"},{"name":"pairIndex","type":"uint256","indexed":false,"internalType":"uint256"}],"anonymous":false},{"type":"event","name":"Pause","inputs":[{"name":"paused","type":"bool","indexed":false,"internalType":"bool"}],"anonymous":false},{"type":"event","name":"SlUpdated","inputs":[{"name":"orderId","type":"uint256","indexed":false,"internalType":"uint256"},{"name":"trader","type":"address","indexed":true,"internalType":"address"},{"name":"pairIndex","type":"uint256","indexed":false,"internalType":"uint256"},{"name":"index","type":"uint256","indexed":false,"internalType":"uint256"},{"name":"newSl","type":"uint256","indexed":false,"internalType":"uint256"}],"anonymous":false}],"bytecode":{"object":"0x60806040523480156200001157600080fd5b506200001c62000022565b620000e3565b600054610100900460ff16156200008f5760405162461bcd60e51b815260206004820152602760248201527f496e697469616c697a61626c653a20636f6e747261637420697320696e697469604482015266616c697a696e6760c81b606482015260840160405180910390fd5b60005460ff90811614620000e1576000805460ff191660ff9081179091556040519081527f7f26b83ff96e1f2b6a682f133852f6798a09c465da95921460cefb38474024989060200160405180910390a15b565b615d9180620000f36000396000f3fe608060405234801561001057600080fd5b50600436106100ea5760003560e01c806369d017d51161008c578063962e1f0911610066578063962e1f09146101cc578063a875fc6b146101df578063c4493e37146101f2578063da8ddc74146101fb57600080fd5b806369d017d51461019957806374cbe6ee146101b05780638246cd19146101b957600080fd5b806345ac0f9a116100c857806345ac0f9a1461014d578063484aabb114610160578063485cc955146101735780634ec0e8891461018657600080fd5b80631346b0ff146100ef5780631410f75b1461011f57806316fff07414610134575b600080fd5b600154610102906001600160a01b031681565b6040516001600160a01b0390911681526020015b60405180910390f35b61013261012d36600461581b565b61020e565b005b600054610102906201000090046001600160a01b031681565b61013261015b3660046157ef565b61092d565b61013261016e3660046157b6565b610a07565b610132610181366004615319565b611a11565b6101326101943660046157b6565b611b6c565b6101a260035481565b604051908152602001610116565b6101a260025481565b6101326101c73660046157b6565b61252a565b6101326101da3660046157b6565b6128ee565b6101326101ed36600461581b565b612ff4565b6101a260045481565b610132610209366004615352565b613a35565b600060029054906101000a90046001600160a01b03166001600160a01b0316633078fff56040518163ffffffff1660e01b815260040160206040518083038186803b15801561025c57600080fd5b505afa158015610270573d6000803e3d6000fd5b505050506040513d601f19601f8201168201806040525081019061029491906152f5565b6001600160a01b0316336001600160a01b0316146102cd5760405162461bcd60e51b81526004016102c490615978565b60405180910390fd5b6000805460405163d5dabd7560e01b815260048101879052620100009091046001600160a01b03169063d5dabd75906024016101c06040518083038186803b15801561031857600080fd5b505afa15801561032c573d6000803e3d6000fd5b505050506040513d601f19601f8201168201806040525081019061035091906155ad565b90508060200151600014156103655750610927565b60008160000151905060008060029054906101000a90046001600160a01b03166001600160a01b0316633078fff56040518163ffffffff1660e01b815260040160206040518083038186803b1580156103bd57600080fd5b505afa1580156103d1573d6000803e3d6000fd5b505050506040513d601f19601f820116820180604052508101906103f591906152f5565b90506000816001600160a01b03166335b03c176040518163ffffffff1660e01b815260040160206040518083038186803b15801561043257600080fd5b505afa158015610446573d6000803e3d6000fd5b505050506040513d601f19601f8201168201806040525081019061046a91906152f5565b60208401516040516369d4bda360e01b81529192506001600160a01b038316916369d4bda3916104a09160040190815260200190565b60206040518083038186803b1580156104b857600080fd5b505afa1580156104cc573d6000803e3d6000fd5b505050506040513d601f19601f820116820180604052508101906104f0919061537e565b156105c557600154602084015160c085015160e086015160808701516000946001600160a01b0316936380242e51938d939192909161052f9190613c6b565b6040516001600160e01b031960e087901b16815260048101949094526024840192909252151560448301526064820152881515608482015260a40160206040518083038186803b15801561058257600080fd5b505afa158015610596573d6000803e3d6000fd5b505050506040513d601f19601f820116820180604052508101906105ba91906153b8565b60a0850152506105da565b6105d487878560c00151613c90565b60a08401525b60006402540be4006064866060015187604001516105f89190615c93565b6106029190615bfa565b61060c9190615bfa565b905087158061065157508360c0015161063a5780856040015161062f9190615cb2565b8460a0015110610651565b80856040015161064a9190615bb4565b8460a00151115b806106905750600084610100015111801561069057508360c00151610682578361010001518460a001511115610690565b8361010001518460a0015110155b806106cf575060008461012001511180156106cf57508360c001516106c1578361012001518460a0015110156106cf565b8361012001518460a0015111155b8061078257506000548451602086015160e08701516080880151620100009094046001600160a01b03169363c45cceb693929161070c9190613c6b565b8860c001516040518563ffffffff1660e01b81526004016107309493929190615950565b60206040518083038186803b15801561074857600080fd5b505afa15801561075c573d6000803e3d6000fd5b505050506040513d601f19601f82011682018060405250810190610780919061537e565b155b1561085857600054845160808601516040516345c19a8d60e11b8152620100009093046001600160a01b039081166004850181905292166024840152604483015290638b83351a90606401600060405180830381600087803b1580156107e757600080fd5b505af11580156107fb573d6000803e3d6000fd5b5050505083600001516001600160a01b03167f4b2ef4d80a0964a9a8f43256d8111558389b384d2029743c1eeb6950b14d9c658a866020015160405161084b929190918252602082015260400190565b60405180910390a26108b7565b60006108648588613ce2565b90507f5c00d8b4c6c92b4922d1bd61ef722ec9a29169acb95d956676b07be6a6643eea8a8260018460a0015185606001516000808e6040516108ad989796959493929190615a5f565b60405180910390a1505b600054604051630195728b60e71b8152600481018b905260016024820152620100009091046001600160a01b03169063cab9458090604401600060405180830381600087803b15801561090957600080fd5b505af115801561091d573d6000803e3d6000fd5b5050505050505050505b50505050565b600060029054906101000a90046001600160a01b03166001600160a01b03166312d43a516040518163ffffffff1660e01b815260040160206040518083038186803b15801561097b57600080fd5b505afa15801561098f573d6000803e3d6000fd5b505050506040513d601f19601f820116820180604052508101906109b391906152f5565b6001600160a01b0316336001600160a01b0316146109f95760405162461bcd60e51b8152602060048201526003602482015262475f4f60e81b60448201526064016102c4565b600292909255600355600455565b600060029054906101000a90046001600160a01b03166001600160a01b0316633078fff56040518163ffffffff1660e01b815260040160206040518083038186803b158015610a5557600080fd5b505afa158015610a69573d6000803e3d6000fd5b505050506040513d601f19601f82011682018060405250810190610a8d91906152f5565b6001600160a01b0316336001600160a01b031614610abd5760405162461bcd60e51b81526004016102c490615978565b6000805460405163363df41d60e11b815260048101869052620100009091046001600160a01b031690636c7be83a9060240160806040518083038186803b158015610b0757600080fd5b505afa158015610b1b573d6000803e3d6000fd5b505050506040513d601f19601f82011682018060405250810190610b3f9190615479565b600080548251602084015160408086015190516351d407ff60e11b81529596509394620100009093046001600160a01b03169363a3a80ffe93610b879392919060040161592f565b6101606040518083038186803b158015610ba057600080fd5b505afa158015610bb4573d6000803e3d6000fd5b505050506040513d601f19601f82011682018060405250810190610bd89190615747565b905060008060029054906101000a90046001600160a01b03166001600160a01b0316633078fff56040518163ffffffff1660e01b815260040160206040518083038186803b158015610c2957600080fd5b505afa158015610c3d573d6000803e3d6000fd5b505050506040513d601f19601f82011682018060405250810190610c6191906152f5565b9050610c956040518060a0016040528060008152602001600081526020016000815260200160008152602001600081525090565b8515801590610ca8575060008360e00151115b1561188d5760008054845160208601516040808801519051638c8ff1d560e01b8152620100009094046001600160a01b031693638c8ff1d593610cf1939092909160040161592f565b60a06040518083038186803b158015610d0957600080fd5b505afa158015610d1d573d6000803e3d6000fd5b505050506040513d601f19601f82011682018060405250810190610d4191906156c1565b9050826001600160a01b03166335b03c176040518163ffffffff1660e01b815260040160206040518083038186803b158015610d7c57600080fd5b505afa158015610d90573d6000803e3d6000fd5b505050506040513d601f19601f82011682018060405250810190610db491906152f5565b6001600160a01b03166324abd3fb85602001516040518263ffffffff1660e01b8152600401610de591815260200190565b60206040518083038186803b158015610dfd57600080fd5b505afa158015610e11573d6000803e3d6000fd5b505050506040513d601f19601f82011682018060405250810190610e35919061537e565b610e3f5786610ed4565b600085606001516003811115610e5757610e57615d12565b14610ecd57600185606001516003811115610e7457610e74615d12565b14610e7f5786610ed4565b8360c001518015610e9857508360a00151846101200151115b80610eb857508360c00151158015610eb857508360a00151846101200151105b610ec757836101200151610ed4565b86610ed4565b8361010001515b826000018181525050826001600160a01b03166335b03c176040518163ffffffff1660e01b815260040160206040518083038186803b158015610f1657600080fd5b505afa158015610f2a573d6000803e3d6000fd5b505050506040513d601f19601f82011682018060405250810190610f4e91906152f5565b60a0850151835160c087015160e088015160208901516040516354d7dccb60e01b8152600481019590955260248501939093529015156044840152606483015260848201526001600160a01b0391909116906354d7dccb9060a40160206040518083038186803b158015610fc157600080fd5b505afa158015610fd5573d6000803e3d6000fd5b505050506040513d601f19601f82011682018060405250810190610ff991906153b8565b6020830152600060028660600151600381111561101857611018615d12565b1415611135576001548551602087015160408089015160a08a015160c08b015160608c015160e08d01519451636bc84d5960e01b81526001600160a01b0397881660048201526024810196909652604486019390935260648501919091521515608484015260a483015260c48201526000929190911690636bc84d599060e40160206040518083038186803b1580156110b057600080fd5b505afa1580156110c4573d6000803e3d6000fd5b505050506040513d601f19601f820116820180604052508101906110e891906153b8565b90508560c001516110fc5780891015611101565b808911155b61110c57600061112a565b606460025487606001516111209190615c93565b61112a9190615bfa565b60808501525061130d565b60008660600151600381111561114d5761114d615d12565b14801561115f57506000856101000151115b801561118757508460c0015161117d57846101000151881115611187565b8461010001518810155b806111df57506001866060015160038111156111a5576111a5615d12565b1480156111b757506000856101200151115b80156111df57508460c001516111d5578461012001518810156111df565b8461012001518811155b6111ea576000611307565b6402540be4006064856001600160a01b03166335b03c176040518163ffffffff1660e01b815260040160206040518083038186803b15801561122b57600080fd5b505afa15801561123f573d6000803e3d6000fd5b505050506040513d601f19601f8201168201806040525081019061126391906152f5565b6001600160a01b031663649a648888602001516040518263ffffffff1660e01b815260040161129491815260200190565b60206040518083038186803b1580156112ac57600080fd5b505afa1580156112c0573d6000803e3d6000fd5b505050506040513d601f19601f820116820180604052508101906112e491906153b8565b87606001516112f39190615c93565b6112fd9190615bfa565b6113079190615bfa565b60808401525b60028660600151600381111561132557611325615d12565b148015611336575060008360800151115b156114f857611380858460200151876060015186608001516002546002546003546113619190615cb2565b89608001516113709190615c93565b61137a9190615bfa565b8c6145a0565b9050836001600160a01b031663b21f45176040518163ffffffff1660e01b815260040160206040518083038186803b1580156113bb57600080fd5b505afa1580156113cf573d6000803e3d6000fd5b505050506040513d601f19601f820116820180604052508101906113f391906152f5565b6001600160a01b031663afc329ac604051806080016040528089600001516001600160a01b0316815260200189602001518152602001896040015181526020018960600151600381111561144957611449615d12565b81525085608001516040518363ffffffff1660e01b815260040161146e929190615a44565b600060405180830381600087803b15801561148857600080fd5b505af115801561149c573d6000803e3d6000fd5b505050507fbf3d234454deff88435a11abb8501124ff9e6923fd2fdfc730d83474b6ffbe2c898987896060015187600001518a606001518960200151888f6040516114ef99989796959493929190615aad565b60405180910390a15b60028660600151600381111561151057611510615d12565b14158015611522575060008360800151115b1561188a576298968083608001511161153f578260800151611544565b629896805b6080840152602083015160608601516064916402540be400916115679190615c0e565b6115719190615bcc565b61157b9190615bcc565b6040840181905260001380156115a55750606085015160408401516115a290600019615c0e565b12155b6116e8576402540be4006064856001600160a01b03166335b03c176040518163ffffffff1660e01b815260040160206040518083038186803b1580156115ea57600080fd5b505afa1580156115fe573d6000803e3d6000fd5b505050506040513d601f19601f8201168201806040525081019061162291906152f5565b6001600160a01b031663836a341a88602001516040518263ffffffff1660e01b815260040161165391815260200190565b60206040518083038186803b15801561166b57600080fd5b505afa15801561167f573d6000803e3d6000fd5b505050506040513d601f19601f820116820180604052508101906116a391906153b8565b604086015160e089015160608a01516116bb91613c6b565b6116c59190615b73565b6116cf9190615c93565b6116d99190615bfa565b6116e39190615bfa565b6116eb565b60005b8360600181815250506117128584602001518760600151866080015187606001518c6145a0565b9050836001600160a01b031663b21f45176040518163ffffffff1660e01b815260040160206040518083038186803b15801561174d57600080fd5b505afa158015611761573d6000803e3d6000fd5b505050506040513d601f19601f8201168201806040525081019061178591906152f5565b6001600160a01b031663afc329ac604051806080016040528089600001516001600160a01b031681526020018960200151815260200189604001518152602001896060015160038111156117db576117db615d12565b81525085608001516040518363ffffffff1660e01b8152600401611800929190615a44565b600060405180830381600087803b15801561181a57600080fd5b505af115801561182e573d6000803e3d6000fd5b505050507fbf3d234454deff88435a11abb8501124ff9e6923fd2fdfc730d83474b6ffbe2c898987896060015187600001518a606001518960200151888f60405161188199989796959493929190615aad565b60405180910390a15b50505b816001600160a01b031663b21f45176040518163ffffffff1660e01b815260040160206040518083038186803b1580156118c657600080fd5b505afa1580156118da573d6000803e3d6000fd5b505050506040513d601f19601f820116820180604052508101906118fe91906152f5565b6001600160a01b031663bf654d2b604051806080016040528087600001516001600160a01b0316815260200187602001518152602001876040015181526020018760600151600381111561195457611954615d12565b8152506040518263ffffffff1660e01b81526004016119739190615a36565b600060405180830381600087803b15801561198d57600080fd5b505af11580156119a1573d6000803e3d6000fd5b5050600054604051637ada848360e01b8152600481018b9052620100009091046001600160a01b03169250637ada84839150602401600060405180830381600087803b1580156119f057600080fd5b505af1158015611a04573d6000803e3d6000fd5b5050505050505050505050565b600054610100900460ff1615808015611a315750600054600160ff909116105b80611a4b5750303b158015611a4b575060005460ff166001145b611aae5760405162461bcd60e51b815260206004820152602e60248201527f496e697469616c697a61626c653a20636f6e747261637420697320616c72656160448201526d191e481a5b9a5d1a585b1a5e995960921b60648201526084016102c4565b6000805460ff191660011790558015611ad1576000805461ff0019166101001790555b6000805462010000600160b01b031916620100006001600160a01b038681169190910291909117909155600180546001600160a01b03191691841691909117905560146004556005600255600a6003558015611b67576000805461ff0019169055604051600181527f7f26b83ff96e1f2b6a682f133852f6798a09c465da95921460cefb38474024989060200160405180910390a15b505050565b600060029054906101000a90046001600160a01b03166001600160a01b0316633078fff56040518163ffffffff1660e01b815260040160206040518083038186803b158015611bba57600080fd5b505afa158015611bce573d6000803e3d6000fd5b505050506040513d601f19601f82011682018060405250810190611bf291906152f5565b6001600160a01b0316336001600160a01b031614611c225760405162461bcd60e51b81526004016102c490615978565b60008060029054906101000a90046001600160a01b03166001600160a01b0316633078fff56040518163ffffffff1660e01b815260040160206040518083038186803b158015611c7157600080fd5b505afa158015611c85573d6000803e3d6000fd5b505050506040513d601f19601f82011682018060405250810190611ca991906152f5565b6040516368fb329760e11b8152600481018690529091506000906001600160a01b0383169063d1f6652e906024016101006040518083038186803b158015611cf057600080fd5b505afa158015611d04573d6000803e3d6000fd5b505050506040513d601f19601f82011682018060405250810190611d2891906154fc565b600080548251602084015160408086015190516351d407ff60e11b81529596509394620100009093046001600160a01b03169363a3a80ffe93611d709392919060040161592f565b6101606040518083038186803b158015611d8957600080fd5b505afa158015611d9d573d6000803e3d6000fd5b505050506040513d601f19601f82011682018060405250810190611dc19190615747565b9050600082606001516001811115611ddb57611ddb615d12565b1415611f5257600054815160808401516040516345c19a8d60e11b81526001600160a01b0392831660048201526201000090930490911660248301819052604483019190915290638b83351a90606401600060405180830381600087803b158015611e4557600080fd5b505af1158015611e59573d6000803e3d6000fd5b50505050600060029054906101000a90046001600160a01b03166001600160a01b0316638a4adf246040518163ffffffff1660e01b815260040160206040518083038186803b158015611eab57600080fd5b505afa158015611ebf573d6000803e3d6000fd5b505050506040513d601f19601f82011682018060405250810190611ee391906152f5565b81516080840151604051635a65ca9160e01b81526001600160a01b0392831660048201526024810191909152911690635a65ca9190604401600060405180830381600087803b158015611f3557600080fd5b505af1158015611f49573d6000803e3d6000fd5b50505050612357565b60008511611f8f5760405162461bcd60e51b815260206004820152600a6024820152695a45524f5f505249434560b01b60448201526064016102c4565b6000836001600160a01b03166335b03c176040518163ffffffff1660e01b815260040160206040518083038186803b158015611fca57600080fd5b505afa158015611fde573d6000803e3d6000fd5b505050506040513d601f19601f8201168201806040525081019061200291906152f5565b60a083015160c084015160e085015160208601516040516354d7dccb60e01b81526004810194909452602484018b90529115156044840152606483015260848201526001600160a01b0391909116906354d7dccb9060a40160206040518083038186803b15801561207257600080fd5b505afa158015612086573d6000803e3d6000fd5b505050506040513d601f19601f820116820180604052508101906120aa91906153b8565b9050600060646402540be4008385606001516120c69190615c0e565b6120d09190615bcc565b6120da9190615bcc565b905060008112156121f9576064856001600160a01b03166335b03c176040518163ffffffff1660e01b815260040160206040518083038186803b15801561212057600080fd5b505afa158015612134573d6000803e3d6000fd5b505050506040513d601f19601f8201168201806040525081019061215891906152f5565b602085015160a0870151604051632b1cbe9d60e01b8152600481019290925260248201526001600160a01b039190911690632b1cbe9d9060440160206040518083038186803b1580156121aa57600080fd5b505afa1580156121be573d6000803e3d6000fd5b505050506040513d601f19601f820116820180604052508101906121e291906153b8565b6121ec9083615c0e565b6121f69190615bcc565b90505b6064612206605082615cb2565b84606001516122159190615c0e565b61221f9190615bcc565b81846060015161222f9190615b73565b136122645760405162461bcd60e51b81526020600482015260056024820152642bafaa2fa160d91b60448201526064016102c4565b5050600060029054906101000a90046001600160a01b03166001600160a01b0316638a4adf246040518163ffffffff1660e01b815260040160206040518083038186803b1580156122b457600080fd5b505afa1580156122c8573d6000803e3d6000fd5b505050506040513d601f19601f820116820180604052508101906122ec91906152f5565b8151608084015160405163352b159160e11b81526001600160a01b0392831660048201526024810191909152911690636a562b2290604401600060405180830381600087803b15801561233e57600080fd5b505af1158015612352573d6000803e3d6000fd5b505050505b60c08201511561245157600060029054906101000a90046001600160a01b03166001600160a01b0316638a4adf246040518163ffffffff1660e01b815260040160206040518083038186803b1580156123af57600080fd5b505afa1580156123c3573d6000803e3d6000fd5b505050506040513d601f19601f820116820180604052508101906123e791906152f5565b60c0830151604051635b898b7560e01b81526004810191909152600060248201526001600160a01b039190911690635b898b7590604401600060405180830381600087803b15801561243857600080fd5b505af115801561244c573d6000803e3d6000fd5b505050505b6001548151602083015160408085015160c08601519151630735e1cd60e11b81526001600160a01b0390951694630e6bc39a94612495949093909291600401615950565b600060405180830381600087803b1580156124af57600080fd5b505af11580156124c3573d6000803e3d6000fd5b505060405163c61904a160e01b8152600481018990526001600160a01b038616925063c61904a191506024015b600060405180830381600087803b15801561250a57600080fd5b505af115801561251e573d6000803e3d6000fd5b50505050505050505050565b600060029054906101000a90046001600160a01b03166001600160a01b0316633078fff56040518163ffffffff1660e01b815260040160206040518083038186803b15801561257857600080fd5b505afa15801561258c573d6000803e3d6000fd5b505050506040513d601f19601f820116820180604052508101906125b091906152f5565b6001600160a01b0316336001600160a01b0316146125e05760405162461bcd60e51b81526004016102c490615978565b60008060029054906101000a90046001600160a01b03166001600160a01b0316633078fff56040518163ffffffff1660e01b815260040160206040518083038186803b15801561262f57600080fd5b505afa158015612643573d6000803e3d6000fd5b505050506040513d601f19601f8201168201806040525081019061266791906152f5565b6040516337a3dba360e01b8152600481018690529091506000906001600160a01b038316906337a3dba39060240160c06040518083038186803b1580156126ad57600080fd5b505afa1580156126c1573d6000803e3d6000fd5b505050506040513d601f19601f820116820180604052508101906126e59190615628565b600080548251602084015160408086015190516351d407ff60e11b81529596509394620100009093046001600160a01b03169363a3a80ffe9361272d9392919060040161592f565b6101606040518083038186803b15801561274657600080fd5b505afa15801561275a573d6000803e3d6000fd5b505050506040513d601f19601f8201168201806040525081019061277e9190615747565b9050841580159061279a5750816080015115158160c001511515145b80156127ad575081606001518160a00151145b80156127d357508060c001516127ca57848260a0015110156127d3565b848260a0015111155b156128c1576000548251602084015160408086015160a0870151915163a354418160e01b81526001600160a01b03948516600482015260248101939093526044830152606482015262010000909204169063a354418190608401600060405180830381600087803b15801561284757600080fd5b505af115801561285b573d6000803e3d6000fd5b5050835160208086015160408088015160a089015182518e8152948501939093529083015260608201526001600160a01b0390911692507fe57d6aa2ba102529f6f4f17498f4a95f866a5513e746e676e6cd037c991b6fe9915060800160405180910390a25b6040516361417a4360e01b8152600481018790526001600160a01b038416906361417a43906024016124f0565b600060029054906101000a90046001600160a01b03166001600160a01b0316633078fff56040518163ffffffff1660e01b815260040160206040518083038186803b15801561293c57600080fd5b505afa158015612950573d6000803e3d6000fd5b505050506040513d601f19601f8201168201806040525081019061297491906152f5565b6001600160a01b0316336001600160a01b0316146129a45760405162461bcd60e51b81526004016102c490615978565b6000805460405163d5dabd7560e01b815260048101869052620100009091046001600160a01b03169063d5dabd75906024016101c06040518083038186803b1580156129ef57600080fd5b505afa158015612a03573d6000803e3d6000fd5b505050506040513d601f19601f82011682018060405250810190612a2791906155ad565b6000805482518051602082015160409283015192516351d407ff60e11b81529596509394620100009093046001600160a01b03169363a3a80ffe93612a6f939060040161592f565b6101606040518083038186803b158015612a8857600080fd5b505afa158015612a9c573d6000803e3d6000fd5b505050506040513d601f19601f82011682018060405250810190612ac09190615747565b9050612af46040518060a0016040528060008152602001600081526020016000815260200160008152602001600081525090565b8415801590612b07575060008260e00151115b15612f615760008054835160208501516040808701519051638c8ff1d560e01b8152620100009094046001600160a01b031693638c8ff1d593612b50939092909160040161592f565b60a06040518083038186803b158015612b6857600080fd5b505afa158015612b7c573d6000803e3d6000fd5b505050506040513d601f19601f82011682018060405250810190612ba091906156c1565b905060008060029054906101000a90046001600160a01b03166001600160a01b0316633078fff56040518163ffffffff1660e01b815260040160206040518083038186803b158015612bf157600080fd5b505afa158015612c05573d6000803e3d6000fd5b505050506040513d601f19601f82011682018060405250810190612c2991906152f5565b9050806001600160a01b03166335b03c176040518163ffffffff1660e01b815260040160206040518083038186803b158015612c6457600080fd5b505afa158015612c78573d6000803e3d6000fd5b505050506040513d601f19601f82011682018060405250810190612c9c91906152f5565b60a085015160c086015160e087015160208801516040516354d7dccb60e01b81526004810194909452602484018c90529115156044840152606483015260848201526001600160a01b0391909116906354d7dccb9060a40160206040518083038186803b158015612d0c57600080fd5b505afa158015612d20573d6000803e3d6000fd5b505050506040513d601f19601f82011682018060405250810190612d4491906153b8565b602084018190528551606001516064916402540be40091612d659190615c0e565b612d6f9190615bcc565b612d799190615bcc565b604084018190526000138015612da457508451606001516040840151612da190600019615c0e565b12155b612dd057604083015160e0850151865160600151612dc191613c6b565b612dcb9190615b73565b612dd3565b60005b8360600181815250506000612f0585856020015188600001516060015160006402540be4006064886001600160a01b03166335b03c176040518163ffffffff1660e01b815260040160206040518083038186803b158015612e3357600080fd5b505afa158015612e47573d6000803e3d6000fd5b505050506040513d601f19601f82011682018060405250810190612e6b91906152f5565b6001600160a01b031663836a341a8d602001516040518263ffffffff1660e01b8152600401612e9c91815260200190565b60206040518083038186803b158015612eb457600080fd5b505afa158015612ec8573d6000803e3d6000fd5b505050506040513d601f19601f82011682018060405250810190612eec91906153b8565b8b60600151612efb9190615c93565b6113709190615bfa565b90507f5c00d8b4c6c92b4922d1bd61ef722ec9a29169acb95d956676b07be6a6643eea898660008b8a60000151606001518960200151878e604051612f51989796959493929190615a5f565b60405180910390a1505050612fb6565b81600001516001600160a01b03167f4b2ef4d80a0964a9a8f43256d8111558389b384d2029743c1eeb6950b14d9c65878460200151604051612fad929190918252602082015260400190565b60405180910390a25b60008054604051630195728b60e71b81526004810189905260248101929092526201000090046001600160a01b03169063cab94580906044016124f0565b600060029054906101000a90046001600160a01b03166001600160a01b0316633078fff56040518163ffffffff1660e01b815260040160206040518083038186803b15801561304257600080fd5b505afa158015613056573d6000803e3d6000fd5b505050506040513d601f19601f8201168201806040525081019061307a91906152f5565b6001600160a01b0316336001600160a01b0316146130aa5760405162461bcd60e51b81526004016102c490615978565b6000805460405163363df41d60e11b815260048101879052620100009091046001600160a01b031690636c7be83a9060240160806040518083038186803b1580156130f457600080fd5b505afa158015613108573d6000803e3d6000fd5b505050506040513d601f19601f8201168201806040525081019061312c9190615479565b905060008060029054906101000a90046001600160a01b03166001600160a01b0316633078fff56040518163ffffffff1660e01b815260040160206040518083038186803b15801561317d57600080fd5b505afa158015613191573d6000803e3d6000fd5b505050506040513d601f19601f820116820180604052508101906131b591906152f5565b6001600160a01b031663b21f45176040518163ffffffff1660e01b815260040160206040518083038186803b1580156131ed57600080fd5b505afa158015613201573d6000803e3d6000fd5b505050506040513d601f19601f8201168201806040525081019061322591906152f5565b905084158015906132c45750600054825160208401516040808601519051636e6f99cd60e11b8152620100009094046001600160a01b03169363dcdf339a93613274939092909160040161592f565b60206040518083038186803b15801561328c57600080fd5b505afa1580156132a0573d6000803e3d6000fd5b505050506040513d601f19601f820116820180604052508101906132c4919061537e565b156139575760008054835160208501516040808701519051632e21e28b60e21b8152620100009094046001600160a01b03169363b8878a2c9361330d939092909160040161592f565b6101806040518083038186803b15801561332657600080fd5b505afa15801561333a573d6000803e3d6000fd5b505050506040513d601f19601f8201168201806040525081019061335e91906153d1565b905060008060029054906101000a90046001600160a01b03166001600160a01b0316633078fff56040518163ffffffff1660e01b815260040160206040518083038186803b1580156133af57600080fd5b505afa1580156133c3573d6000803e3d6000fd5b505050506040513d601f19601f820116820180604052508101906133e791906152f5565b90506002845160208601516040808801519051636a6f32f560e11b81526001600160a01b0388169363d4de65ea9361342693919290919060040161592f565b60206040518083038186803b15801561343e57600080fd5b505afa158015613452573d6000803e3d6000fd5b505050506040513d601f19601f82011682018060405250810190613476919061539b565b600381111561348757613487615d12565b146134b15781608001516134a3578161010001518710156134d2565b8161010001518711156134d2565b81608001516134c8578161010001518711156134d2565b8161010001518710155b801561358457506000548251602084015160a08501516060860151620100009094046001600160a01b03169363c45cceb69392916135109190613c6b565b86608001516040518563ffffffff1660e01b81526004016135349493929190615950565b60206040518083038186803b15801561354c57600080fd5b505afa158015613560573d6000803e3d6000fd5b505050506040513d601f19601f82011682018060405250810190613584919061537e565b15613954576000879050816001600160a01b03166335b03c176040518163ffffffff1660e01b815260040160206040518083038186803b1580156135c757600080fd5b505afa1580156135db573d6000803e3d6000fd5b505050506040513d601f19601f820116820180604052508101906135ff91906152f5565b6001600160a01b03166369d4bda384602001516040518263ffffffff1660e01b815260040161363091815260200190565b60206040518083038186803b15801561364857600080fd5b505afa15801561365c573d6000803e3d6000fd5b505050506040513d601f19601f82011682018060405250810190613680919061537e565b15613753576001546020840151608085015160a086015160608701516000946001600160a01b0316936380242e51938e93919290916136bf9190613c6b565b6040516001600160e01b031960e087901b16815260048101949094526024840192909252151560448301526064820152891515608482015260a40160206040518083038186803b15801561371257600080fd5b505afa158015613726573d6000803e3d6000fd5b505050506040513d601f19601f8201168201806040525081019061374a91906153b8565b98506137659050565b61376288888560800151613c90565b97505b82608001516137b7576402540be400606484610120015185610100015161378c9190615c93565b6137969190615bfa565b6137a09190615bfa565b8361010001516137b09190615cb2565b88106137fc565b6402540be40060648461012001518561010001516137d59190615c93565b6137df9190615bfa565b6137e99190615bfa565b8361010001516137f99190615bb4565b88115b61395257600061388160405180610160016040528086600001516001600160a01b03168152602001866020015181526020016000815260200160008152602001866060015181526020018b81526020018660800151151581526020018660a0015181526020018660c0015181526020018660e001518152602001600081525088613ce2565b60005485516020870151604080890151905163b4b0f56760e01b8152949550620100009093046001600160a01b03169363b4b0f567936138c593929160040161592f565b600060405180830381600087803b1580156138df57600080fd5b505af11580156138f3573d6000803e3d6000fd5b505050507fbf3d234454deff88435a11abb8501124ff9e6923fd2fdfc730d83474b6ffbe2c8a87604001518360038560a0015186606001518a6101000151898f60405161394899989796959493929190615aad565b60405180910390a1505b505b50505b806001600160a01b031663bf654d2b604051806080016040528085600001516001600160a01b031681526020018560200151815260200185604001518152602001856060015160038111156139ae576139ae615d12565b8152506040518263ffffffff1660e01b81526004016139cd9190615a36565b600060405180830381600087803b1580156139e757600080fd5b505af11580156139fb573d6000803e3d6000fd5b5050600054604051637ada848360e01b8152600481018a9052620100009091046001600160a01b03169250637ada848391506024016124f0565b600081118015613b4b5750600060029054906101000a90046001600160a01b03166001600160a01b0316633078fff56040518163ffffffff1660e01b815260040160206040518083038186803b158015613a8e57600080fd5b505afa158015613aa2573d6000803e3d6000fd5b505050506040513d601f19601f82011682018060405250810190613ac691906152f5565b6001600160a01b031663b21f45176040518163ffffffff1660e01b815260040160206040518083038186803b158015613afe57600080fd5b505afa158015613b12573d6000803e3d6000fd5b505050506040513d601f19601f82011682018060405250810190613b3691906152f5565b6001600160a01b0316336001600160a01b0316145b613b7d5760405162461bcd60e51b8152602060048201526003602482015262455f4f60e81b60448201526064016102c4565b600060029054906101000a90046001600160a01b03166001600160a01b0316638a4adf246040518163ffffffff1660e01b815260040160206040518083038186803b158015613bcb57600080fd5b505afa158015613bdf573d6000803e3d6000fd5b505050506040513d601f19601f82011682018060405250810190613c0391906152f5565b60405163352b159160e11b81526001600160a01b038481166004830152602482018490529190911690636a562b2290604401600060405180830381600087803b158015613c4f57600080fd5b505af1158015613c63573d6000803e3d6000fd5b505050505050565b60006402540be400613c7d8385615c93565b613c879190615bfa565b90505b92915050565b6000806402540be4006064613ca58688615c93565b613caf9190615bfa565b613cb99190615bfa565b905082613ccf57613cca8186615cb2565b613cd9565b613cd98186615bb4565b95945050505050565b613d4a60405180610160016040528060006001600160a01b031681526020016000815260200160008152602001600081526020016000815260200160008152602001600015158152602001600081526020016000815260200160008152602001600081525090565b60008060029054906101000a90046001600160a01b03166001600160a01b0316633078fff56040518163ffffffff1660e01b815260040160206040518083038186803b158015613d9957600080fd5b505afa158015613dad573d6000803e3d6000fd5b505050506040513d601f19601f82011682018060405250810190613dd191906152f5565b6001600160a01b03166335b03c176040518163ffffffff1660e01b815260040160206040518083038186803b158015613e0957600080fd5b505afa158015613e1d573d6000803e3d6000fd5b505050506040513d601f19601f82011682018060405250810190613e4191906152f5565b42610140860152905082613f2b576000548451602086015160e08701516080880151620100009094046001600160a01b031693632a9a9667939291613e869190613c6b565b60c08901516040516001600160e01b031960e087901b1681526001600160a01b039094166004850152602484019290925260448301526001606483018190526084830152151560a482015260c401602060405180830381600087803b158015613eee57600080fd5b505af1158015613f02573d6000803e3d6000fd5b505050506040513d601f19601f82011682018060405250810190613f2691906153b8565b613f2e565b60005b84608001818151613f3f9190615cb2565b91508181525050600060029054906101000a90046001600160a01b03166001600160a01b0316638a4adf246040518163ffffffff1660e01b815260040160206040518083038186803b158015613f9457600080fd5b505afa158015613fa8573d6000803e3d6000fd5b505050506040513d601f19601f82011682018060405250810190613fcc91906152f5565b6001600160a01b03166314269687613ff58660e001518760800151613c6b90919063ffffffff16565b6040518263ffffffff1660e01b815260040161401391815260200190565b600060405180830381600087803b15801561402d57600080fd5b505af1158015614041573d6000803e3d6000fd5b50505050600060029054906101000a90046001600160a01b03166001600160a01b0316638a4adf246040518163ffffffff1660e01b815260040160206040518083038186803b15801561409357600080fd5b505afa1580156140a7573d6000803e3d6000fd5b505050506040513d601f19601f820116820180604052508101906140cb91906152f5565b84516080860151604051635a65ca9160e01b81526001600160a01b0392831660048201526024810191909152911690635a65ca9190604401600060405180830381600087803b15801561411d57600080fd5b505af1158015614131573d6000803e3d6000fd5b505050506080840180516060860152600090819052548451602086015160405163292c161760e01b81526001600160a01b039283166004820152602481019190915262010000909204169063292c16179060440160206040518083038186803b15801561419d57600080fd5b505afa1580156141b1573d6000803e3d6000fd5b505050506040513d601f19601f820116820180604052508101906141d591906153b8565b60408086019190915260a085015160e086015161010087015160c08801516020890151945163daefa14560e01b81526004810194909452602484019290925260448301521515606482015260848101919091526001600160a01b0382169063daefa1459060a40160206040518083038186803b15801561425457600080fd5b505afa158015614268573d6000803e3d6000fd5b505050506040513d601f19601f8201168201806040525081019061428c91906153b8565b61010085015260a084015160e085015161012086015160c0870151602088015160405163109b8faf60e11b81526004810195909552602485019390935260448401919091521515606483015260848201526001600160a01b038216906321371f5e9060a40160206040518083038186803b15801561430957600080fd5b505afa15801561431d573d6000803e3d6000fd5b505050506040513d601f19601f8201168201806040525081019061434191906153b8565b6101208501526001548451602086015160408088015160c08901519151630735e1cd60e11b81526001600160a01b0390951694630e6bc39a9461438b949093909291600401615950565b600060405180830381600087803b1580156143a557600080fd5b505af11580156143b9573d6000803e3d6000fd5b50505050806001600160a01b0316634ffe8aec85602001516143ec8760e001518860600151613c6b90919063ffffffff16565b60c08801516040516001600160e01b031960e086901b168152600481019390935260248301919091521515604482015260016064820152608401600060405180830381600087803b15801561444057600080fd5b505af1158015614454573d6000803e3d6000fd5b50505050600060029054906101000a90046001600160a01b03166001600160a01b031663f41450b5856040518060a001604052806144a38960e001518a60600151613c6b90919063ffffffff16565b815243602082018190526040808301919091526000606083015260015490516339c8591b60e11b81526080909201916001600160a01b0390911690637390b236906144f4908c908c90600401615995565b60206040518083038186803b15801561450c57600080fd5b505afa158015614520573d6000803e3d6000fd5b505050506040513d601f19601f8201168201806040525081019061454491906153b8565b815250866040518463ffffffff1660e01b8152600401614566939291906159b4565b600060405180830381600087803b15801561458057600080fd5b505af1158015614594573d6000803e3d6000fd5b50959695505050505050565b600080600080600060029054906101000a90046001600160a01b03166001600160a01b0316636b2d653f8b60000151886145e78e60e001518d613c6b90919063ffffffff16565b60208f01516040516001600160e01b031960e087901b1681526001600160a01b039094166004850152602484019290925260448301528815156064830152608482015260a481018c905260c481018b905260e4016040805180830381600087803b15801561465457600080fd5b505af1158015614668573d6000803e3d6000fd5b505050506040513d601f19601f8201168201806040525081019061468c9190615792565b60015491935091506000906001600160a01b03166368286d368c8b8d6146b28d89615bb4565b6040518563ffffffff1660e01b81526004016146d19493929190615a09565b606060405180830381600087803b1580156146eb57600080fd5b505af11580156146ff573d6000803e3d6000fd5b505050506040513d601f19601f820116820180604052508101906147239190615764565b6004549297509550915060009060649061473d9082615cb2565b6147478587615cb2565b6147519190615c93565b61475b9190615bfa565b9050600060028261476c8688615cb2565b6147769190615cb2565b6147809190615bfa565b6000549091506201000090046001600160a01b0316630fe1c91f82846147a6888a615cb2565b6147b09190615cb2565b6147ba9190615cb2565b836040518363ffffffff1660e01b81526004016147e1929190918252602082015260400190565b600060405180830381600087803b1580156147fb57600080fd5b505af115801561480f573d6000803e3d6000fd5b50505050600060029054906101000a90046001600160a01b03166001600160a01b0316638a4adf246040518163ffffffff1660e01b815260040160206040518083038186803b15801561486157600080fd5b505afa158015614875573d6000803e3d6000fd5b505050506040513d601f19601f8201168201806040525081019061489991906152f5565b6000546001600160a01b0391821691636a562b229162010000900416846148c0888a615cb2565b6148ca9190615cb2565b6040516001600160e01b031960e085901b1681526001600160a01b0390921660048301526024820152604401600060405180830381600087803b15801561491057600080fd5b505af1158015614924573d6000803e3d6000fd5b505050506000871115614a1c57600060029054906101000a90046001600160a01b03166001600160a01b0316638a4adf246040518163ffffffff1660e01b815260040160206040518083038186803b15801561497f57600080fd5b505afa158015614993573d6000803e3d6000fd5b505050506040513d601f19601f820116820180604052508101906149b791906152f5565b8d5160405163352b159160e11b81526001600160a01b039182166004820152602481018a9052911690636a562b2290604401600060405180830381600087803b158015614a0357600080fd5b505af1158015614a17573d6000803e3d6000fd5b505050505b6000831215614b1f57600060029054906101000a90046001600160a01b03166001600160a01b0316638a4adf246040518163ffffffff1660e01b815260040160206040518083038186803b158015614a7357600080fd5b505afa158015614a87573d6000803e3d6000fd5b505050506040513d601f19601f82011682018060405250810190614aab91906152f5565b6001600160a01b0316635b898b75614ac285615cc9565b6040516001600160e01b031960e084901b168152600481019190915260016024820152604401600060405180830381600087803b158015614b0257600080fd5b505af1158015614b16573d6000803e3d6000fd5b50505050614c05565b600060029054906101000a90046001600160a01b03166001600160a01b0316638a4adf246040518163ffffffff1660e01b815260040160206040518083038186803b158015614b6d57600080fd5b505afa158015614b81573d6000803e3d6000fd5b505050506040513d601f19601f82011682018060405250810190614ba591906152f5565b6001600160a01b03166321e36150846040518263ffffffff1660e01b8152600401614bd291815260200190565b600060405180830381600087803b158015614bec57600080fd5b505af1158015614c00573d6000803e3d6000fd5b505050505b614c0f8286615cb2565b614c19908b615bb4565b861115614d2b57600060029054906101000a90046001600160a01b03166001600160a01b0316638a4adf246040518163ffffffff1660e01b815260040160206040518083038186803b158015614c6e57600080fd5b505afa158015614c82573d6000803e3d6000fd5b505050506040513d601f19601f82011682018060405250810190614ca691906152f5565b6001600160a01b0316635b898b75614cbe8488615cb2565b614cc88d8a615cb2565b614cd29190615cb2565b6040516001600160e01b031960e084901b168152600481019190915260006024820152604401600060405180830381600087803b158015614d1257600080fd5b505af1158015614d26573d6000803e3d6000fd5b505050505b8315614e1757600060029054906101000a90046001600160a01b03166001600160a01b0316638a4adf246040518163ffffffff1660e01b815260040160206040518083038186803b158015614d7f57600080fd5b505afa158015614d93573d6000803e3d6000fd5b505050506040513d601f19601f82011682018060405250810190614db791906152f5565b6001600160a01b031663a056d2bb856040518263ffffffff1660e01b8152600401614de491815260200190565b600060405180830381600087803b158015614dfe57600080fd5b505af1158015614e12573d6000803e3d6000fd5b505050505b5050505050600060029054906101000a90046001600160a01b03166001600160a01b0316638a4adf246040518163ffffffff1660e01b815260040160206040518083038186803b158015614e6a57600080fd5b505afa158015614e7e573d6000803e3d6000fd5b505050506040513d601f19601f82011682018060405250810190614ea291906152f5565b6001600160a01b03166376079be3614ec78a60e0015189613c6b90919063ffffffff16565b6040518263ffffffff1660e01b8152600401614ee591815260200190565b600060405180830381600087803b158015614eff57600080fd5b505af1158015614f13573d6000803e3d6000fd5b50505050858860600151141561501057600054885160208a01516040808c015190516390d112b960e01b8152620100009094046001600160a01b0316936390d112b993614f66939092909160040161592f565b600060405180830381600087803b158015614f8057600080fd5b505af1158015614f94573d6000803e3d6000fd5b50506001548a5160208c01516040808e01519051639099939760e01b81526001600160a01b03909416955063909993979450614fd29360040161592f565b600060405180830381600087803b158015614fec57600080fd5b505af1158015615000573d6000803e3d6000fd5b5050505087606001519550615095565b600054885160208a01516040808c01519051631fb2681b60e11b81526001600160a01b0393841660048201526024810192909252604482015260648101899052620100009092041690633f64d03690608401600060405180830381600087803b15801561507c57600080fd5b505af1158015615090573d6000803e3d6000fd5b505050505b600060029054906101000a90046001600160a01b03166001600160a01b0316633078fff56040518163ffffffff1660e01b815260040160206040518083038186803b1580156150e357600080fd5b505afa1580156150f7573d6000803e3d6000fd5b505050506040513d601f19601f8201168201806040525081019061511b91906152f5565b6001600160a01b03166335b03c176040518163ffffffff1660e01b815260040160206040518083038186803b15801561515357600080fd5b505afa158015615167573d6000803e3d6000fd5b505050506040513d601f19601f8201168201806040525081019061518b91906152f5565b6001600160a01b0316634ffe8aec89602001516151b58b60e001518a613c6b90919063ffffffff16565b60c08c01516040516001600160e01b031960e086901b168152600481019390935260248301919091521515604482015260006064820152608401600060405180830381600087803b15801561520957600080fd5b505af115801561521d573d6000803e3d6000fd5b50505050509695505050505050565b805161523781615d28565b919050565b805161523781615d40565b80516002811061523757600080fd5b6000610160828403121561526957600080fd5b615271615b09565b905061527c8261522c565b81526020820151602082015260408201516040820152606082015160608201526080820151608082015260a082015160a08201526152bc60c0830161523c565b60c082015260e082015160e082015261010080830151818301525061012080830151818301525061014080830151818301525092915050565b60006020828403121561530757600080fd5b815161531281615d28565b9392505050565b6000806040838503121561532c57600080fd5b823561533781615d28565b9150602083013561534781615d28565b809150509250929050565b6000806040838503121561536557600080fd5b823561537081615d28565b946020939093013593505050565b60006020828403121561539057600080fd5b815161531281615d40565b6000602082840312156153ad57600080fd5b815161531281615d4e565b6000602082840312156153ca57600080fd5b5051919050565b600061018082840312156153e457600080fd5b6153ec615b41565b6153f58361522c565b81526020830151602082015260408301516040820152606083015160608201526154216080840161523c565b608082015260a0838101519082015260c0808401519082015260e08084015190820152610100808401519082015261012080840151908201526101408084015190820152610160928301519281019290925250919050565b60006080828403121561548b57600080fd5b6040516080810181811067ffffffffffffffff821117156154bc57634e487b7160e01b600052604160045260246000fd5b60405282516154ca81615d28565b80825250602083015160208201526040830151604082015260608301516154f081615d4e565b60608201529392505050565b600061010080838503121561551057600080fd5b6040519081019067ffffffffffffffff8211818310171561554157634e487b7160e01b600052604160045260246000fd5b816040528351915061555282615d28565b818152602084015160208201526040840151604082015261557560608501615247565b60608201526080840151608082015260a084015160a082015260c084015160c082015260e084015160e0820152809250505092915050565b60006101c082840312156155c057600080fd5b6040516080810181811067ffffffffffffffff821117156155f157634e487b7160e01b600052604160045260246000fd5b6040526155fe8484615256565b8152610160830151602082015261018083015160408201526101a090920151606083015250919050565b600060c0828403121561563a57600080fd5b60405160c0810181811067ffffffffffffffff8211171561566b57634e487b7160e01b600052604160045260246000fd5b604052825161567981615d28565b8082525060208301516020820152604083015160408201526060830151606082015260808301516156a981615d40565b608082015260a0928301519281019290925250919050565b600060a082840312156156d357600080fd5b60405160a0810181811067ffffffffffffffff8211171561570457634e487b7160e01b600052604160045260246000fd5b8060405250825181526020830151602082015260408301516040820152606083015161572f81615d40565b60608201526080928301519281019290925250919050565b6000610160828403121561575a57600080fd5b613c878383615256565b60008060006060848603121561577957600080fd5b8351925060208401519150604084015190509250925092565b600080604083850312156157a557600080fd5b505080516020909101519092909150565b6000806000606084860312156157cb57600080fd5b833592506020840135915060408401356157e481615d40565b809150509250925092565b60008060006060848603121561580457600080fd5b505081359360208301359350604090920135919050565b6000806000806080858703121561583157600080fd5b843593506020850135925060408501359150606085013561585181615d40565b939692955090935050565b6004811061587a57634e487b7160e01b600052602160045260246000fd5b9052565b80516001600160a01b031682526020810151602083015260408101516040830152606081015160608301526080810151608083015260a081015160a083015260c08101516158d060c084018215159052565b5060e081810151908301526101008082015190830152610120808201519083015261014090810151910152565b60018060a01b03815116825260208101516020830152604081015160408301526060810151611b67606084018261585c565b6001600160a01b039390931683526020830191909152604082015260600190565b6001600160a01b03949094168452602084019290925260408301521515606082015260800190565b602080825260039082015262415f4f60e81b604082015260600190565b61018081016159a4828561587e565b8215156101608301529392505050565b61022081016159c3828661587e565b8351610160830152602084015161018083015260408401516101a0830152606084015115156101c08301526080909301516101e082015290151561020090910152919050565b6101c08101615a18828761587e565b8461016083015283610180830152826101a083015295945050505050565b60808101613c8a82846158fd565b60a08101615a5282856158fd565b8260808301529392505050565b8881526102408101615a74602083018a61587e565b9615156101808201526101a08101959095526101c08501939093526101e084019190915261020083015215156102209091015292915050565b898152602081018990526102608101615ac9604083018a61587e565b615ad76101a083018961585c565b6101c08201969096526101e0810194909452610200840192909252610220830152151561024090910152949350505050565b604051610160810167ffffffffffffffff81118282101715615b3b57634e487b7160e01b600052604160045260246000fd5b60405290565b604051610180810167ffffffffffffffff81118282101715615b3b57634e487b7160e01b600052604160045260246000fd5b600080821280156001600160ff1b0384900385131615615b9557615b95615ce6565b600160ff1b8390038412811615615bae57615bae615ce6565b50500190565b60008219821115615bc757615bc7615ce6565b500190565b600082615bdb57615bdb615cfc565b600160ff1b821460001984141615615bf557615bf5615ce6565b500590565b600082615c0957615c09615cfc565b500490565b60006001600160ff1b0381841382841380821686840486111615615c3457615c34615ce6565b600160ff1b6000871282811687830589121615615c5357615c53615ce6565b60008712925087820587128484161615615c6f57615c6f615ce6565b87850587128184161615615c8557615c85615ce6565b505050929093029392505050565b6000816000190483118215151615615cad57615cad615ce6565b500290565b600082821015615cc457615cc4615ce6565b500390565b6000600160ff1b821415615cdf57615cdf615ce6565b5060000390565b634e487b7160e01b600052601160045260246000fd5b634e487b7160e01b600052601260045260246000fd5b634e487b7160e01b600052602160045260246000fd5b6001600160a01b0381168114615d3d57600080fd5b50565b8015158114615d3d57600080fd5b60048110615d3d57600080fdfea2646970667358221220a58435d79562546e6504f6365421a157eddc5ac362b4aa6ca267674eb1a5983264736f6c63430008070033","linkReferences":{}},"methodIdentifiers":{"closeTradeMarketCallback(uint256,uint256,bool)":"962e1f09","executeLimitCloseOrderCallback(uint256,uint256,bool)":"484aabb1","executeLimitOpenOrderCallback(uint256,uint256,uint256,bool)":"a875fc6b","initialize(address,address)":"485cc955","liqFeeP()":"74cbe6ee","liqTotalFeeP()":"69d017d5","openTradeMarketCallback(uint256,uint256,uint256,bool)":"1410f75b","pairInfos()":"1346b0ff","setFeeP(uint256,uint256,uint256)":"45ac0f9a","storageT()":"16fff074","transferFromVault(address,uint256)":"da8ddc74","updateMarginCallback(uint256,uint256,bool)":"4ec0e889","updateSlCallback(uint256,uint256,bool)":"8246cd19","vaultFeeP()":"c4493e37"},"id":112}