{"abi":[{"type":"constructor","inputs":[],"stateMutability":"nonpayable"},{"type":"function","name":"claimTokens","inputs":[],"outputs":[],"stateMutability":"nonpayable"},{"type":"function","name":"distributeReward","inputs":[{"name":"_id","type":"tuple","internalType":"struct IExecute.TriggeredLimitId","components":[{"name":"trader","type":"address","internalType":"address"},{"name":"pairIndex","type":"uint256","internalType":"uint256"},{"name":"index","type":"uint256","internalType":"uint256"},{"name":"order","type":"uint8","internalType":"enum ITradingStorage.LimitOrder"}]},{"name":"_reward","type":"uint256","internalType":"uint256"}],"outputs":[],"stateMutability":"nonpayable"},{"type":"function","name":"initialize","inputs":[{"name":"_storageT","type":"address","internalType":"address"}],"outputs":[],"stateMutability":"nonpayable"},{"type":"function","name":"openLimitOrderTypes","inputs":[{"name":"","type":"address","internalType":"address"},{"name":"","type":"uint256","internalType":"uint256"},{"name":"","type":"uint256","internalType":"uint256"}],"outputs":[{"name":"","type":"uint8","internalType":"enum IExecute.OpenLimitOrderType"}],"stateMutability":"view"},{"type":"function","name":"setOpenLimitOrderType","inputs":[{"name":"_trader","type":"address","internalType":"address"},{"name":"_pairIndex","type":"uint256","internalType":"uint256"},{"name":"_index","type":"uint256","internalType":"uint256"},{"name":"_type","type":"uint8","internalType":"enum IExecute.OpenLimitOrderType"}],"outputs":[],"stateMutability":"nonpayable"},{"type":"function","name":"storageT","inputs":[],"outputs":[{"name":"","type":"address","internalType":"contract ITradingStorage"}],"stateMutability":"view"},{"type":"function","name":"storeFirstToTrigger","inputs":[{"name":"_id","type":"tuple","internalType":"struct IExecute.TriggeredLimitId","components":[{"name":"trader","type":"address","internalType":"address"},{"name":"pairIndex","type":"uint256","internalType":"uint256"},{"name":"index","type":"uint256","internalType":"uint256"},{"name":"order","type":"uint8","internalType":"enum ITradingStorage.LimitOrder"}]},{"name":"_bot","type":"address","internalType":"address"}],"outputs":[],"stateMutability":"nonpayable"},{"type":"function","name":"tokensClaimed","inputs":[{"name":"","type":"address","internalType":"address"}],"outputs":[{"name":"","type":"uint256","internalType":"uint256"}],"stateMutability":"view"},{"type":"function","name":"tokensClaimedTotal","inputs":[],"outputs":[{"name":"","type":"uint256","internalType":"uint256"}],"stateMutability":"view"},{"type":"function","name":"tokensToClaim","inputs":[{"name":"","type":"address","internalType":"address"}],"outputs":[{"name":"","type":"uint256","internalType":"uint256"}],"stateMutability":"view"},{"type":"function","name":"triggerTimeout","inputs":[],"outputs":[{"name":"","type":"uint256","internalType":"uint256"}],"stateMutability":"view"},{"type":"function","name":"triggeredLimits","inputs":[{"name":"","type":"address","internalType":"address"},{"name":"","type":"uint256","internalType":"uint256"},{"name":"","type":"uint256","internalType":"uint256"},{"name":"","type":"uint8","internalType":"enum ITradingStorage.LimitOrder"}],"outputs":[{"name":"first","type":"address","internalType":"address"},{"name":"block","type":"uint256","internalType":"uint256"}],"stateMutability":"view"},{"type":"function","name":"unregisterTrigger","inputs":[{"name":"_id","type":"tuple","internalType":"struct IExecute.TriggeredLimitId","components":[{"name":"trader","type":"address","internalType":"address"},{"name":"pairIndex","type":"uint256","internalType":"uint256"},{"name":"index","type":"uint256","internalType":"uint256"},{"name":"order","type":"uint8","internalType":"enum ITradingStorage.LimitOrder"}]}],"outputs":[],"stateMutability":"nonpayable"},{"type":"function","name":"updateTriggerTimeout","inputs":[{"name":"_triggerTimeout","type":"uint256","internalType":"uint256"}],"outputs":[],"stateMutability":"nonpayable"},{"type":"event","name":"Initialized","inputs":[{"name":"version","type":"uint8","indexed":false,"internalType":"uint8"}],"anonymous":false},{"type":"event","name":"NumberUpdated","inputs":[{"name":"name","type":"string","indexed":false,"internalType":"string"},{"name":"value","type":"uint256","indexed":false,"internalType":"uint256"}],"anonymous":false},{"type":"event","name":"PercentagesUpdated","inputs":[{"name":"firstP","type":"uint256","indexed":false,"internalType":"uint256"}],"anonymous":false},{"type":"event","name":"PoolTokensClaimed","inputs":[{"name":"bot","type":"address","indexed":false,"internalType":"address"},{"name":"fromRound","type":"uint256","indexed":false,"internalType":"uint256"},{"name":"toRound","type":"uint256","indexed":false,"internalType":"uint256"},{"name":"tokens","type":"uint256","indexed":false,"internalType":"uint256"}],"anonymous":false},{"type":"event","name":"TokensClaimed","inputs":[{"name":"bot","type":"address","indexed":false,"internalType":"address"},{"name":"tokens","type":"uint256","indexed":false,"internalType":"uint256"}],"anonymous":false},{"type":"event","name":"TriggerRewarded","inputs":[{"name":"id","type":"tuple","indexed":false,"internalType":"struct IExecute.TriggeredLimitId","components":[{"name":"trader","type":"address","internalType":"address"},{"name":"pairIndex","type":"uint256","internalType":"uint256"},{"name":"index","type":"uint256","internalType":"uint256"},{"name":"order","type":"uint8","internalType":"enum ITradingStorage.LimitOrder"}]},{"name":"reward","type":"uint256","indexed":false,"internalType":"uint256"}],"anonymous":false},{"type":"event","name":"TriggerUnregistered","inputs":[{"name":"id","type":"tuple","indexed":false,"internalType":"struct IExecute.TriggeredLimitId","components":[{"name":"trader","type":"address","internalType":"address"},{"name":"pairIndex","type":"uint256","internalType":"uint256"},{"name":"index","type":"uint256","internalType":"uint256"},{"name":"order","type":"uint8","internalType":"enum ITradingStorage.LimitOrder"}]}],"anonymous":false},{"type":"event","name":"TriggeredFirst","inputs":[{"name":"id","type":"tuple","indexed":false,"internalType":"struct IExecute.TriggeredLimitId","components":[{"name":"trader","type":"address","internalType":"address"},{"name":"pairIndex","type":"uint256","internalType":"uint256"},{"name":"index","type":"uint256","internalType":"uint256"},{"name":"order","type":"uint8","internalType":"enum ITradingStorage.LimitOrder"}]},{"name":"bot","type":"address","indexed":false,"internalType":"address"}],"anonymous":false}],"bytecode":{"object":"0x608060405234801561001057600080fd5b5061001961001e565b6100dd565b600054610100900460ff161561008a5760405162461bcd60e51b815260206004820152602760248201527f496e697469616c697a61626c653a20636f6e747261637420697320696e697469604482015266616c697a696e6760c81b606482015260840160405180910390fd5b60005460ff908116146100db576000805460ff191660ff9081179091556040519081527f7f26b83ff96e1f2b6a682f133852f6798a09c465da95921460cefb38474024989060200160405180910390a15b565b6110f0806100ec6000396000f3fe608060405234801561001057600080fd5b50600436106100ea5760003560e01c8063bf654d2b1161008c578063d15ccfaa11610066578063d15ccfaa146101e5578063d4de65ea14610251578063ec57061014610292578063fc8b2698146102a557600080fd5b8063bf654d2b146101ac578063c23c886c146101bf578063c4d66de8146101d257600080fd5b8063613e666e116100c8578063613e666e1461015d578063624601b6146101705780637ceea89a14610190578063afc329ac1461019957600080fd5b806316fff074146100ef5780631e8683341461012557806348c54b9d14610153575b600080fd5b600054610108906201000090046001600160a01b031681565b6040516001600160a01b0390911681526020015b60405180910390f35b610145610133366004610de7565b60036020526000908152604090205481565b60405190815260200161011c565b61015b6102ae565b005b61015b61016b366004610f8d565b610474565b61014561017e366004610de7565b60066020526000908152604090205481565b61014560025481565b61015b6101a7366004610f62565b6105e1565b61015b6101ba366004610f0e565b61080d565b61015b6101cd366004610f2a565b6109af565b61015b6101e0366004610de7565b610b62565b6102326101f3366004610e5d565b6004602090815260009485526040808620825293855283852081529184528284209091528252902080546001909101546001600160a01b039091169082565b604080516001600160a01b03909316835260208301919091520161011c565b61028561025f366004610e28565b600560209081526000938452604080852082529284528284209052825290205460ff1681565b60405161011c9190610ff7565b61015b6102a0366004610ea5565b610c93565b61014560015481565b33600090815260036020526040902054806103035760405162461bcd60e51b815260206004820152601060248201526f4e4f5448494e475f544f5f434c41494d60801b60448201526064015b60405180910390fd5b33600090815260036020908152604080832083905560069091528120805483929061032f908490611066565b9250508190555080600260008282546103489190611066565b92505081905550600060029054906101000a90046001600160a01b03166001600160a01b031662b127836040518163ffffffff1660e01b815260040160206040518083038186803b15801561039c57600080fd5b505afa1580156103b0573d6000803e3d6000fd5b505050506040513d601f19601f820116820180604052508101906103d49190610e0b565b6040516336a3771d60e21b8152336004820152602481018390526001600160a01b03919091169063da8ddc7490604401600060405180830381600087803b15801561041e57600080fd5b505af1158015610432573d6000803e3d6000fd5b505060408051338152602081018590527f896e034966eaaf1adc54acc0f257056febbd300c9e47182cf761982cf1f5e43093500190505b60405180910390a150565b600060029054906101000a90046001600160a01b03166001600160a01b03166312d43a516040518163ffffffff1660e01b815260040160206040518083038186803b1580156104c257600080fd5b505afa1580156104d6573d6000803e3d6000fd5b505050506040513d601f19601f820116820180604052508101906104fa9190610e0b565b6001600160a01b0316336001600160a01b0316146105455760405162461bcd60e51b8152602060048201526008602482015267474f565f4f4e4c5960c01b60448201526064016102fa565b60058110156105845760405162461bcd60e51b815260206004820152600b60248201526a4c4553535f5448414e5f3560a81b60448201526064016102fa565b600181905560408051818152600e918101919091526d1d1c9a59d9d95c951a5b595bdd5d60921b6060820152602081018290527f8cf3e35f6221b16e1670a3413180c9484bf5aa71787905909fa82a6a2662e9ab90608001610469565b600060029054906101000a90046001600160a01b03166001600160a01b031662b127836040518163ffffffff1660e01b815260040160206040518083038186803b15801561062e57600080fd5b505afa158015610642573d6000803e3d6000fd5b505050506040513d601f19601f820116820180604052508101906106669190610e0b565b6001600160a01b0316336001600160a01b0316146106b75760405162461bcd60e51b815260206004820152600e60248201526d43414c4c4241434b535f4f4e4c5960901b60448201526064016102fa565b60006004816106c96020860186610de7565b6001600160a01b0316815260208082019290925260409081016000908120868401358252835281812086830135825290925281209061070e6080860160608701610ef3565b600381111561071f5761071f61108c565b60038111156107305761073061108c565b81526020808201929092526040908101600020815180830190925280546001600160a01b031682526001015491810182905291506107a05760405162461bcd60e51b815260206004820152600d60248201526c1393d517d5149251d1d1549151609a1b60448201526064016102fa565b80516001600160a01b0316600090815260036020526040812080548492906107c9908490611066565b90915550506040517f05fb0d0ede1f86f64263bd6d3eca2a3029323adae522bc4c5ef3aa186895210290610800908590859061104b565b60405180910390a1505050565b600060029054906101000a90046001600160a01b03166001600160a01b031662b127836040518163ffffffff1660e01b815260040160206040518083038186803b15801561085a57600080fd5b505afa15801561086e573d6000803e3d6000fd5b505050506040513d601f19601f820116820180604052508101906108929190610e0b565b6001600160a01b0316336001600160a01b0316146108e35760405162461bcd60e51b815260206004820152600e60248201526d43414c4c4241434b535f4f4e4c5960901b60448201526064016102fa565b600460006108f46020840184610de7565b6001600160a01b031681526020808201929092526040908101600090812084840135825283528181208483013582529092528120906109396080840160608501610ef3565b600381111561094a5761094a61108c565b600381111561095b5761095b61108c565b815260208101919091526040908101600090812080546001600160a01b031916815560010155517fbc446f372d672d41df09bf965eb61c029a34d21d04ebcd4c0ec9c7ee54f2cd8490610469908390611011565b600060029054906101000a90046001600160a01b03166001600160a01b031663ec44acf26040518163ffffffff1660e01b815260040160206040518083038186803b1580156109fd57600080fd5b505afa158015610a11573d6000803e3d6000fd5b505050506040513d601f19601f82011682018060405250810190610a359190610e0b565b6001600160a01b0316336001600160a01b031614610a845760405162461bcd60e51b815260206004820152600c60248201526b54524144494e475f4f4e4c5960a01b60448201526064016102fa565b6000600481610a966020860186610de7565b6001600160a01b03168152602080820192909252604090810160009081208684013582528352818120868301358252909252812090610adb6080860160608701610ef3565b6003811115610aec57610aec61108c565b6003811115610afd57610afd61108c565b81526020810191909152604090810160002080546001600160a01b0319166001600160a01b03851617815543600182015590519091507f1474f6b5ca19838c98ce7eac6aca02feef9e454135a7390c9c9991bf314d04d6906108009085908590611025565b600054610100900460ff1615808015610b825750600054600160ff909116105b80610b9c5750303b158015610b9c575060005460ff166001145b610bff5760405162461bcd60e51b815260206004820152602e60248201527f496e697469616c697a61626c653a20636f6e747261637420697320616c72656160448201526d191e481a5b9a5d1a585b1a5e995960921b60648201526084016102fa565b6000805460ff191660011790558015610c22576000805461ff0019166101001790555b6000805462010000600160b01b031916620100006001600160a01b0385160217905560056001558015610c8f576000805461ff0019169055604051600181527f7f26b83ff96e1f2b6a682f133852f6798a09c465da95921460cefb38474024989060200160405180910390a15b5050565b600060029054906101000a90046001600160a01b03166001600160a01b031663ec44acf26040518163ffffffff1660e01b815260040160206040518083038186803b158015610ce157600080fd5b505afa158015610cf5573d6000803e3d6000fd5b505050506040513d601f19601f82011682018060405250810190610d199190610e0b565b6001600160a01b0316336001600160a01b031614610d685760405162461bcd60e51b815260206004820152600c60248201526b54524144494e475f4f4e4c5960a01b60448201526064016102fa565b6001600160a01b038416600090815260056020908152604080832086845282528083208584529091529020805482919060ff19166001836002811115610db057610db061108c565b021790555050505050565b803560048110610dca57600080fd5b919050565b600060808284031215610de157600080fd5b50919050565b600060208284031215610df957600080fd5b8135610e04816110a2565b9392505050565b600060208284031215610e1d57600080fd5b8151610e04816110a2565b600080600060608486031215610e3d57600080fd5b8335610e48816110a2565b95602085013595506040909401359392505050565b60008060008060808587031215610e7357600080fd5b8435610e7e816110a2565b93506020850135925060408501359150610e9a60608601610dbb565b905092959194509250565b60008060008060808587031215610ebb57600080fd5b8435610ec6816110a2565b93506020850135925060408501359150606085013560038110610ee857600080fd5b939692955090935050565b600060208284031215610f0557600080fd5b610e0482610dbb565b600060808284031215610f2057600080fd5b610e048383610dcf565b60008060a08385031215610f3d57600080fd5b610f478484610dcf565b91506080830135610f57816110a2565b809150509250929050565b60008060a08385031215610f7557600080fd5b610f7f8484610dcf565b946080939093013593505050565b600060208284031215610f9f57600080fd5b5035919050565b8035610fb1816110a2565b6001600160a01b031682526020818101359083015260408082013590830152610fdc60608201610dbb565b60048110610fec57610fec61108c565b806060840152505050565b602081016003831061100b5761100b61108c565b91905290565b6080810161101f8284610fa6565b92915050565b60a081016110338285610fa6565b6001600160a01b039290921660809190910152919050565b60a081016110598285610fa6565b8260808301529392505050565b6000821982111561108757634e487b7160e01b600052601160045260246000fd5b500190565b634e487b7160e01b600052602160045260246000fd5b6001600160a01b03811681146110b757600080fd5b5056fea264697066735822122088d7c8041efd5140b5e142857b2467eeb19c59c5ced3ff535749d95c3ace41af64736f6c63430008070033","linkReferences":{}},"methodIdentifiers":{"claimTokens()":"48c54b9d","distributeReward((address,uint256,uint256,uint8),uint256)":"afc329ac","initialize(address)":"c4d66de8","openLimitOrderTypes(address,uint256,uint256)":"d4de65ea","setOpenLimitOrderType(address,uint256,uint256,uint8)":"ec570610","storageT()":"16fff074","storeFirstToTrigger((address,uint256,uint256,uint8),address)":"c23c886c","tokensClaimed(address)":"624601b6","tokensClaimedTotal()":"7ceea89a","tokensToClaim(address)":"1e868334","triggerTimeout()":"fc8b2698","triggeredLimits(address,uint256,uint256,uint8)":"d15ccfaa","unregisterTrigger((address,uint256,uint256,uint8))":"bf654d2b","updateTriggerTimeout(uint256)":"613e666e"},"id":101}